:100000000C94E8050C942F060C942F060C942F06E4
:100010000C942F060C942F060C942F060C942F068C
:100020000C942F060C942F060C94B3100C9485118D
:100030000C94D9200C942F060C942F060C942F06A8
:100040000C942F060C94BA2D0C942F060C942F06AA
:100050000C942F060C944D210C942F060C942F0613
:100060000C942F060C942F060C942F060C942F063C
:100070000C942F060C942F060C942F060C942F062C
:100080000C942F060C942F060C942F060C942F061C
:100090000C942F060C942F060C942F060C942F060C
:1000A0000C942F060C942F060C942F06F506FD06D3
:1000B000160757076D0776077F078807ED1110129F
:1000C000CB121012CB1255127812CB129A12AD121B
:1000D00005160516321632168D16C7163019301948
:1000E000DF163019DC17DC179718AD1830191C19FA
:1000F000014E024E00014D024D00014B024B00012A
:100100004A024A00F1A2F1A3028A00F000D200D113
:1001100000D004F007F0C3141A0815171C180C12AD
:10012000132B041607090A0B0D0E0F28E11D1B06E1
:100130001905111037E5C0E0E3E200002C0000C112
:10014000E42A0101520101010101010101015051A3
:100150004F01010101010101010101010101010141
:1001600001010101010100000100000101011E1F48
:1001700020212223242526272D39010101010101F7
:100180000101333401C7C8C5C4C6010136380101B5
:1001900001010000C2000001012E3A3B3C3D3E3F00
:1001A000404142434439010101010101012F303135
:1001B00001C7C8C5C4C601013638010101010000EC
:1001C000C200000101450A002530313662003A20A4
:1001D0000025303258000A722F6320303132333418
:1001E00035363738394142434445460A000A00252E
:1001F00030325800626F756E6365213A200001232A
:10020000032201220020001080FF524742204C654B
:1002100076656C3A2025640A005B735D004B657956
:10022000626F6172642073746172742E0A00555398
:100230004220636F6E666967757265642E0A005BA3
:10024000575D005B535D005B525D005B445D005B8E
:10025000435D000A002530325820006B6579626FDB
:100260006172645F7265706F72743A20004C45442D
:100270003A20253032580A0064656C5F6B65795FFF
:100280006269743A2063616E27742064656C3A2059
:10029000253032580A006164645F6B65795F62697A
:1002A000743A2063616E2774206164643A202530BB
:1002B00032580A00646F6E652E0A00626F6F746DAB
:1002C00061676963207363616E3A202E2E2E2000D1
:1002D000290A002575002F002575005D280025647A
:1002E0000020002564002000256400200025640013
:1002F0007C0025303258006D6F7573656B65792011
:100300005B62746E7C782079207620685D28726547
:10031000702F61636C293A205B006D6B5F776865B5
:10032000656C5F74696D655F746F5F6D6178203DAA
:100330002025640A006D6B5F776865656C5F6D6191
:10034000785F7370656564203D2025640A006D6BDD
:100350005F74696D655F746F5F6D6178203D202506
:10036000640A006D6B5F6D61785F73706565642012
:100370003D2025640A006D6B5F696E74657276615D
:100380006C203D2025640A006D6B5F64656C6179AB
:10039000203D2025640A006D6B5F776865656C5FA2
:1003A00074696D655F746F5F6D6178203D202564B1
:1003B0000A006D6B5F776865656C5F6D61785F7370
:1003C00070656564203D2025640A006D6B5F74696B
:1003D0006D655F746F5F6D6178203D2025640A0054
:1003E0006D6B5F6D61785F7370656564203D20257E
:1003F000640A006D6B5F696E74657276616C203D96
:100400002025640A006D6B5F64656C6179203D2076
:1004100025640A000A00257500363A20776865656C
:100420006C5F74696D655F746F5F6D61783A200011
:100430000A00257500353A20776865656C5F6D6147
:10044000785F73706565643A20000A002575003492
:100450003A2074696D655F746F5F6D61783A200052
:100460000A00257500333A206D61785F7370656509
:10047000643A20000A00257500323A20696E7465DE
:100480007276616C286D73293A20000A0025750088
:10049000313A2064656C6179282A31306D73293ACC
:1004A00020000A092D2056616C756573202D0A0005
:1004B0004D3E004D25643E20003F0073657420646E
:1004C000656661756C740A00433E2000776865724A
:1004D000652064656C74613A20637572736F723D58
:1004E00025642C20776865656C3D25640A53656535
:1004F00020687474703A2F2F656E2E77696B69705F
:10050000656469612E6F72672F77696B692F4D6F14
:100510007573655F6B6579730A000A092D204D6F4D
:100520007573656B6579202D0A4553432F713A0920
:10053000717569740A313A0964656C6179282A31E8
:10054000306D73290A323A09696E74657276616C8E
:10055000286D73290A333A096D61785F7370656598
:10056000640A343A0974696D655F746F5F6D617810
:100570000A353A09776865656C5F6D61785F7370FD
:100580006565640A363A09776865656C5F74696DFC
:10059000655F746F5F6D61780A0A703A09707269FD
:1005A0006E742076616C7565730A643A09736574BC
:1005B0002064656661756C74730A75703A092B3135
:1005C0000A646F776E3A092D310A706775703A09BF
:1005D0002B31300A7067646F776E3A092D31300A1B
:1005E0000A7370656564203D2064656C7461202A1F
:1005F000206D61785F7370656564202A20287265BC
:1006000070656174202F2074696D655F746F5F6D14
:100610006178290A003F004D3E2000433E20004CF7
:1006200025640A000A092D20436F6E736F6C6520E4
:100630002D0A4553432F713A09717569740A6D3A51
:10064000096D6F7573656B65790A000A092D204D78
:1006500061676963202D0A643A0964656275670AF7
:10066000783A096465627567206D61747269780A09
:100670006B3A096465627567206B6579626F6172B8
:10068000640A6D3A096465627567206D6F757365FC
:100690000A763A0976657273696F6E0A733A09735E
:1006A00074617475730A633A09636F6E736F6C6576
:1006B000206D6F64650A302D343A096C617965727A
:1006C000302D34284631302D4634290A5061757357
:1006D0003A09626F6F746C6F616465720A653A09FA
:1006E000656570726F6D0A6E3A094E4B524F0A0083
:1006F0000A002575002E6C6576656C3A20000A00AC
:100700002575002E656E61626C653A20000A002531
:10071000303258006261636B6C696768745F636F45
:100720006E6669672E7261773A20000A00257500AF
:100730002E6E6B726F3A20000A002575002E7377BB
:1007400061705F6261636B736C6173685F62616348
:100750006B73706163653A20000A002575002E7383
:100760007761705F67726176655F6573633A2000D9
:100770000A002575002E6E6F5F6775693A20000AC2
:10078000002575002E737761705F72616C745F7203
:100790006775693A20000A002575002E737761702D
:1007A0005F6C616C745F6C6775693A20000A0025A4
:1007B00075002E636170736C6F636B5F746F5F6342
:1007C0006F6E74726F6C3A20000A002575002E73EC
:1007D0007761705F636F6E74726F6C5F636170736B
:1007E0006C6F636B3A20000A0025303258006B654D
:1007F000796D61705F636F6E6669672E7261773ABB
:1008000020000A002575002E6D6F7573653A200073
:100810000A002575002E6B6579626F6172643A205B
:10082000000A002575002E6D61747269783A200007
:100830000A002575002E656E61626C653A20000A1B
:1008400000253032580064656275675F636F6E66BD
:1008500069672E7261773A20000A00257500646589
:100860006661756C745F6C617965723A20003F0057
:100870004E4B524F3A206F66660A004E4B524F3A2B
:10088000206F6E0A0074696D65725F726561643312
:100890003228293A202530346C580A006B65796279
:1008A0006F6172645F6E6B726F3A2025580A006B3D
:1008B0006579626F6172645F69646C653A2025587E
:1008C0000A006B6579626F6172645F70726F746F3A
:1008D000636F6C3A2025580A00686F73745F6B650C
:1008E00079626F6172645F6C65647328293A2025B0
:1008F000580A000A092D20537461747573202D0A5B
:10090000004743433A20342E392E32204156522D8F
:100910004C4942433A20312E382E3073766E2041B6
:1009200056525F415243483A20617672350A004F71
:100930005054494F4E533A204C55464120424F4F58
:10094000544D41474943204D4F5553454B45592040
:1009500045585452414B455920434F4E534F4C45F7
:1009600020434F4D4D414E44204E4B524F204B455E
:10097000594D41505F494E5F454550524F4D204CB7
:1009800045444D4150204C45444D41505F494E5FD8
:10099000454550524F4D204241434B4C49474854E6
:1009A00020534F465450574D5F4C454420425245CA
:1009B000415448494E475F4C454420343039360A4B
:1009C000004255494C443A20356365396266382DFA
:1009D0006469727479202830393A34373A343920CE
:1009E0005365702020372032303136290A005649AD
:1009F000443A20307831323039284B2E542E452E4F
:100A0000432E29205049443A203078323332382856
:100A10004357343029205645523A2030783034300C
:100A2000310A00444553433A20742E6D2E6B2E201C
:100A30006B6579626F617264206669726D7761724D
:100A40006520666F7220435734300A000A092D2052
:100A500056657273696F6E202D0A000A6D6F75738B
:100A6000653A206F66660A000A6D6F7573653A20F5
:100A70006F6E0A000A6B6579626F6172643A206F6B
:100A800066660A000A6B6579626F6172643A206F6C
:100A90006E0A000A6D61747269783A206F66660AA0
:100AA000000A6D61747269783A206F6E0A000A64F8
:100AB000656275673A206F6E0A000A646562756741
:100AC0003A206F66660A000A0A626F6F746C6F6183
:100AD0006465722E2E2E2000433E20006565636FF4
:100AE0006E6669673A0A000000000000000000001E
:100AF00000010101020202030304040505060607C2
:100B00000808090A0B0B0C0D0E0F10111213151605
:100B100017191A1B1D1E2022232527292B2D2F31A3
:100B20003335383A3D3F4244474A4D505356595C5D
:100B30005F6266696C7074777B7E82868A8E91951F
:100B4000999DA1A5A9ADB0B4B8BCC0C3C7CBCED246
:100B5000D5D8DBDFE2E4E7EAECEFF1F3F5F7F8FAFA
:100B6000FBFCFDFEFFFFFF6261636B6C69676874ED
:100B700020737465703A2025750A006261636B6C9E
:100B80006967687420746F67676C653A2025750A19
:100B9000006261636B6C6967687420637573746F5E
:100BA0006D2064656372656173653A2025750A007E
:100BB0006261636B6C6967687420637573746F6DD1
:100BC00020696E6372656173653A2025750A0000BD
:100BD00011241FBECFEFDAE0DEBFCDBF04B603FEA7
:100BE00027C080912C0490912D04A0912E04B091E7
:100BF0002F048730904BA740B04BD1F410922C04B7
:100C000010922D0410922E0410922F0414BE84B75B
:100C1000877F84BF0FB6F894A895809160008861A3
:100C200080936000109260000FBEE0E0F8E3099549
:100C300013E0A0E0B1E0ECE4F9E602C005900D920B
:100C4000A432B107D9F724E0A4E2B3E001C01D92B9
:100C5000AC32B207E1F70E946D0E0C94A4340C94F0
:100C60000000FF93EF93E0912403F0912503309768
:100C700009F00995EF91FF910895FC01859180306D
:100C800011F0EFDFFBCF0895FF27E0E230E247FFEE
:100C90000CC0419597FF09C0EDE260957095809575
:100CA0009095611D711D811D911D27FF02C0219529
:100CB00030E350E2AA27660F771F881F991FAA1FEB
:100CC000A41710F0A41B63955A95A9F7AA3008F051
:100CD000A95FA05DAF93F39561157105810591053D
:100CE00041F7ED3211F4EF93F395F21718F43F93B7
:100CF000F395FBCF8F91B5DFFA95E1F70895E99170
:100D0000F9918591803021F0853219F0AADFF9CF71
:100D1000089520E0E89455915532C1F3503311F411
:100D2000689455915A3348F4505390F3220F022E91
:100D3000220F220F200D250FF4CF0EF4219589915B
:100D40009991533619F3533729F1533559F1BC01B1
:100D500088279927E8945C3621F4899199916894C1
:100D60005591543639F446EF7EF077FF0DC08FEF82
:100D70009FEF0AC055374AE039F0583540E121F07D
:100D8000523642E009F00895FF93EF937DDFEF9133
:100D9000FF91B7CFFF93EF93FC0181918030B9F3BE
:100DA00060DFFBCFFF93EF9368DFF1CFDF93CF934B
:100DB000CDB7DEB72596A3DFCF91DF91089580EB05
:100DC00090E0089589E090E008950F931F93CF93EA
:100DD000DF93062F10E00830110508F0A2C0EC01E7
:100DE000F801EA5AFF4F0C946D348A81882341F050
:100DF0000E94F31F8272C1F011C08A8181110AC062
:100E000080912A030E946715DF91CF911F910F9166
:100E10000C9427200E94F31F81FF06C00E94F31F3D
:100E200080FD02C085E352C089E250C0423009F122
:100E300048F4442389F0413061F584E3809328032A
:100E400088E225C04430F9F0C8F0453011F581E35F
:100E5000809328038AE21BC00E94F31F82FF02C016
:100E60008DE301C089E28093290385E38093280301
:100E700010C088E38093280387E309C088E3809348
:100E8000280382E504C083E3809328038FE08093E6
:100E900029038A81882309F4B3CF0E94F31F85FFB9
:100EA00003C08091280312C0809129030FC08A815A
:100EB000882309F4A5CF0E94F31F80FF06C00E947B
:100EC000F31F82FF05C08CE401C08AE280932A03ED
:100ED00080912A030E94941497CF8A81811121C0A6
:100EE000DF91CF911F910F910C94600B8A8181113A
:100EF00018C0DF91CF911F910F910C94670B8A81DD
:100F000081110FC0DF91CF911F910F910C94830B32
:100F10008A81811106C0DF91CF911F910F910C94AE
:100F20009A0BDF91CF911F910F910895662319F0CD
:100F30006130C1F027C0FC018281882339F00E9412
:100F40000B2190932703809326031CC080912603D6
:100F5000909127030E942321893C9105B4F48AEFE4
:100F600090E00895FC0182818111E9CF80912603F0
:100F7000909127030E942321893C91054CF480EF36
:100F800090E0089580E090E008958FEF90E008955C
:100F900085EF90E00895462F672F0C945232805CC5
:100FA0000E944632089586E191E0089584E091E040
:100FB000089584E008958BE0089580E885BF85BF9B
:100FC0008AB1837C8AB980B38C7080BB81B3836F14
:100FD00081BB84B1877084B985B1886F85B9A3E37B
:100FE000B3E011961C921E92EBE2F3E011821082A4
:100FF00013961C921E9212971382128215961C92BF
:101000001E9214971582148217961C921E921697A0
:10101000178216820895AF92BF92CF92DF92EF921D
:10102000FF920F931F93CF93DF930BE213E0C0E087
:10103000D0E0CC24C394D12CBB24B394F5E0AF2EE4
:10104000AFEEEA2EA1E0FA2E2AB1CE010296A60159
:1010500002C0440F551F8A95E2F7CA01822B8AB954
:1010600050EA5A95F1F78FB181708B2590E079990C
:1010700003C022E030E002C020E030E0822B932B5E
:101080007C9903C064E070E002C060E070E0862BF1
:10109000972B7D9903C068E070E002C060E070E0CB
:1010A000862B972B7E9903C020E130E002C020E020
:1010B00030E0AC01422B532B2FB1022E000C330B2E
:1010C00020953095C9018827990F881F992775E0C9
:1010D000880F991F7A95E1F7842B952B1B9903C0F4
:1010E000E0E4F0E002C0E0E0F0E08E2B9F2B1C99E2
:1010F00003C0E0E8F0E002C0E0E0F0E08E2B9F2BC0
:101100001D9903C060E071E002C060E070E0862BD2
:10111000972B1E9903C020E032E002C020E030E0AF
:10112000AC01422B532B23B1022E000C330B209524
:101130003095C9018827990F881F9927982F8827EC
:10114000990F990F842B952BF80120813181281755
:10115000390741F19183808380910001882301F157
:101160008091E10380FF04C084EF91E00E943D067E
:101170008091E10380FF0CC0809100011F928F934A
:10118000FF92EF920E94D6060F900F900F900F9053
:101190008091E10380FF04C08DEE91E00E943D0646
:1011A000A09200018AB1837C8AB921960E5F1F4FFD
:1011B000C430D10509F048CF80910001882361F146
:1011C000815080930001882339F08FE99FE00197D7
:1011D000F1F700C0000020C080912B0390912C03F8
:1011E000909334038093330380912D0390912E03C9
:1011F000909336038093350380912F0390913003B1
:101200009093380380933703809131039091320398
:1012100090933A038093390381E0DF91CF911F913E
:101220000F91FF90EF90DF90CF90BF90AF90089517
:10123000E82FF0E0EE0FFF1FED5CFC4F8081918105
:101240000895CF92DF92EF92FF920F931F93CF9367
:10125000DF9386ED91E00E943D0683E3E82E83E074
:10126000F82EC0E0D0E091EDC92E91E0D92E08EC27
:1012700011E0DF93CF93DF92CF920E94D6068EECDF
:1012800091E00E943D06F701819191917F010E94BA
:1012900068209F938F931F930F930E94D60686EC2E
:1012A00091E00E943D0621968DB79EB708960FB635
:1012B000F8949EBF0FBE8DBFC430D105D1F6DF912B
:1012C000CF911F910F91FF90EF90DF90CF900895F5
:1012D000E82FF0E0EE0FFF1FE250FE4F8591949152
:1012E00008953E9A469A8AB1806C8AB98BB1806C17
:1012F0008BB96E9A769A0895813041F028F0823049
:1013000039F0833039F00895469808955F9808952C
:101310005E98089576980895813041F028F08230E3
:1013200039F0833039F00895469A08955F9A089508
:101330005E9A0895769A0895CF93C82F0E941A2D29
:10134000C730C0F4C43010F5C130C0F10E943B2D4D
:101350000E94802D0E94B42DEC2FF0E0EA5FFD4F3B
:10136000849180931D040E94B70B80911D04CF913E
:101370000C94532DC730A9F0C83001F50E943B2DC5
:101380000E947A2D0E94B42D81E012C00E943B2D54
:101390000E94802D0E94AE2D86E08C1BCF910C9474
:1013A000B72D0E943B2D0E947A2D0E94B42D80E023
:1013B0000E949D2D83E0CF910C94AB2D0E94802D37
:1013C0000E94B42D10921D0480E00E94532DCF91F5
:1013D0000C94412D0C94C00BFC0180810C94B70B34
:1013E000FC0180810C94B70B28B1342F3095232356
:1013F00038B1432B3FB7F894FC01680F791FE6170B
:10140000F70789F0819198E048B9000000C087FF94
:1014100028B9880F000000C000C000C028B900C073
:101420009A9591F7ECCF3FBF089527B1242B27B9A8
:101430009B01220F331F620F731F0E94F40987EC78
:1014400090E00197F1F700C00000089540E80C9487
:10145000150AEF92FF920F931F93CF93DF9300D063
:1014600000D01F92CDB7DEB7F90170E0869F9001E2
:10147000879F300D1124232F3327042F10E0209F46
:10148000D001219FB00D309FB00D112420E031E03C
:101490007901E61AF70AE09E9001E19E300DF09E78
:1014A000300D11243C833983832F8B0F8D838A83E6
:1014B0004B1B4B83892F90E063E070E00E94453422
:1014C000DE01A80FB91F13962C912183DE01A80F0E
:1014D000B91F12962C912083DE01A80FB91F119617
:1014E0008C9182830F900F900F900F900F90DF914F
:1014F000CF911F910F91FF90EF9008956091650338
:101500008AE090E00C948134EF92FF920F931F9346
:10151000CF93DF9300D01F92CDB7DEB780913E030B
:10152000882399F181E4E82E83E0F82E00E010E0B2
:1015300080913F03909140039E012F5F3F4F409168
:10154000010160910201800F911F0E94290A898187
:101550009A81AB81F70181939193A1937F01005C04
:101560001F4F0115F3E01F0719F76CE070E081E4ED
:1015700093E00E94260A0F900F900F90DF91CF9179
:101580001F910F91FF90EF9008959E012F5F3F4FA5
:10159000409101016091020180913F0390914003CD
:1015A0000E94290AE1E4F3E089819A81AB81819369
:1015B0009193A19383E0E536F807B1F7D6CF0F9367
:1015C0001F93CF93DF931F92CDB7DEB7082F10E0A4
:1015D0001F928F932AE032E03F932F9389830E94DA
:1015E000D6060F900F900F900F908981811103C044
:1015F0001092010111C090912B0490FF08C09695A4
:1016000091589F77933030F490911D0401C090E180
:1016100090930101883078F51092660310923E0392
:10162000882311F1873019F4109202010EC0015085
:1016300011091695102F0027179507951093400351
:1016400000933F038FEF8093020180912B0480FF72
:1016500008C0869581588F77833030F480911D04BF
:1016600001C080E1809301010F90DF91CF911F9124
:101670000F910C94840A9FEF9093020191E0909354
:101680006603893008F490E090933E030F90DF9159
:10169000CF911F910F910895809165038068809389
:1016A00065038F770E94DF0A0C947E0A80916503A0
:1016B0008F778093650380E00E94DF0A0C947E0A96
:1016C0008091650387FD0C94560B0C944C0B809114
:1016D0006503982F9F7791F091589F778078892B99
:1016E000809365038F7791E009F490E08091650322
:1016F00090FB87F9809365030E947E0A80916503C1
:101700008F770C94DF0A80916503982F9F77292F9C
:1017100030E0293031054CF49F5F9F778078892B2A
:101720008068809365030E947E0A809165038F77AD
:101730000C94DF0A9091650381E0890F8F77907890
:101740008A3020F4892B8093650302C0909365034F
:10175000809165038F7791E009F490E080916503B3
:1017600090FB87F9809365038F770C94DF0A909143
:10177000650397FF04C0809301010C94840A0895C7
:1017800080916603882339F180913D038F5F8093B8
:101790003D03909166039817F0F410923D038091F9
:1017A0003B0390913C039093400380933F030E943E
:1017B000840A80913B0390913C030196811523E0BC
:1017C000920728F490933C0380933B030895109272
:1017D0003C0310923B03089580917A0308959FB7CC
:1017E000F894109269039FBF90912104943009F0FE
:1017F00057C09091E9009F703091EC00232F217029
:1018000030FD20E8922B24E02093E9002091EB00AA
:1018100020FF43C02091EE0027FF3FC020916703C7
:10182000222321F02091E80025FF37C010926703A2
:1018300026E03091E80035FD15C0309121043430A8
:1018400061F53091EB0035FD28C0215021F481E095
:101850008093670322C0EFE9FFE03197F1F700C002
:101860000000E7CF8093F1008091E80085FD0AC079
:101870008091E80080FFFCCF8091E8008E77809314
:10188000E80006C08FB7F89421E0209369038FBF6A
:101890009F709093E90080E008959F709093E90015
:1018A0008FEF0895CF93DF9300D01F92CDB7DEB7AF
:1018B0009C0180912104843019F593E099833B8346
:1018C0002A839093E9008FEF9091E800815095FD75
:1018D00006C095ED9A95F1F700008111F5CF809142
:1018E000E80085FF0DC040E050E063E070E0CE010D
:1018F00001960E94270F8091E8008E778093E80080
:101900000F900F900F90DF91CF910895CF93DF93B9
:1019100000D01F92CDB7DEB720912104243021F5ED
:1019200022E029839B838A8383E08093E9008FEF01
:101930009091E800815095FD06C095ED9A95F1F7DC
:1019400000008111F5CF8091E80085FF0DC040E0D7
:1019500050E063E070E0CE0101960E94270F809175
:10196000E8008E778093E8000F900F900F90DF9142
:10197000CF910895209121042430F1F422E02093A6
:10198000E9002FEF3091E800215035FD06C035ED1C
:101990003A95F1F700002111F5CF2091E80025FFDD
:1019A0000BC040E050E065E070E00E94270F80919E
:1019B000E8008E778093E8000895CF93DF9320911D
:1019C0002104243009F048C0EC0180910D018823E6
:1019D000E1F080910E018823C1F085E08093E90059
:1019E0008FEF9091E800815095FD06C095E19A95A2
:1019F000F1F700008111F5CF8091E80085FF2CC040
:101A000040E050E060E170E017C081E08093E900C1
:101A10008FEF9091E800815095FD06C095ED9A9565
:101A2000F1F700008111F5CF8091E80085FF14C027
:101A300040E050E068E070E0CE010E94270F809106
:101A4000E8008E778093E80080E1FE01AAE6B3E02B
:101A500001900D928A95E1F7DF91CF9108958FE47F
:101A600092E00E943D0680912004811109C00E94ED
:101A70003A100E9495108091E20084608093E20009
:101A800008958BE492E00E943D0610922004089590
:101A900087E492E00C943D06209168032F5F822F2B
:101AA00062E30E943934992319F020936803089562
:101AB0001092680380916903882371F18091210459
:101AC000843041F58091E9008F702091EC00922FD5
:101AD000917020FD90E8892B94E09093E90090911B
:101AE000EB0090FF14C09091EE0097FF10C0909112
:101AF000E80095FF03C01092F100F9CF9091E80043
:101B000090FF05C09091E8009E779093E8008F7059
:101B10008093E90010926903089542E061EC81E04E
:101B20000E94D50F42E061EC82E00E94D50F42E0B6
:101B300061EC83E00E94D50F42E261EC84E00E94F8
:101B4000D50F42E161EC85E00C94D50F8091230420
:101B5000833009F455C030F4813071F0823009F4DB
:101B60008EC008958A3009F47AC08B3009F460C0C1
:101B7000893009F09CC020C080912204813A09F08C
:101B800096C08091E800877F8093E80080912604CA
:101B900090912704892B21F460E18AE693E003C049
:101BA00060E080E090E070E00E94720F8091E800B9
:101BB0008B778093E800089580912204813209F0A8
:101BC00076C08091260490912704009719F004971D
:101BD00009F06DC08091E800877F8093E8008091D4
:101BE000E80082FD05C0809121048111F8CF5FC01B
:101BF0008091F10080937A038091E8008B7753C045
:101C000080912204813A09F052C08091260490917B
:101C10002704892B09F04BC08091E800877F8093CF
:101C2000E8008091E80080FFFCCF80910D0136C074
:101C3000809122048132D9F5809126049091270465
:101C4000892BA9F58091E800877F8093E8000E94A6
:101C5000E90F8091240480930D010C945119809117
:101C60002204813221F58091E800877F8093E8008B
:101C70000E94E90F8091250480937B030895809151
:101C80002204813AA1F48091E800877F8093E800E4
:101C90008091E80080FFFCCF80917B038093F1006E
:101CA0008091E8008E778093E8000C94E90F089506
:101CB00008950895089583E492E00E943D060C94EF
:101CC0005A0E0E94932080911F04882329F00E94BD
:101CD000C02081110C94110F089584B7877F84BFB1
:101CE0000FB6F894A8958091600088618093600099
:101CF000109260000FBE90E080E80FB6F8948093D9
:101D00006100909361000FBE0E94580E0E947113F3
:101D10000E943A100E9495108091E20084608093A6
:101D2000E2008FEE9BE00E944D2078948091210488
:101D30008430E1F78EE292E00E943D060E94731328
:101D400083E091E00E94DF128DE192E00E943D0667
:101D50000E94590E80912104853039F489E192E086
:101D60000E943D060E94610EF5CF0E948313F2CFC0
:101D70000C94D5208FE392E00E943D060C94B80E9F
:101D8000292F332723303105C1F05CF42130310590
:101D900079F022303105E9F58DE890E02DE531E06C
:101DA0003CC021323105C1F02232310511F131C080
:101DB00082E190E02AEE31E030C09927833091052E
:101DC00040F5FC01EE0FFF1FED5CFE4F20813181DD
:101DD000FC01E05DFE4F1AC06530D8F4E62FF0E05C
:101DE000EE0FFF1FEA5DFE4F2081318189E090E018
:101DF00014C0653070F470E0FB01EE0FFF1FE45E6D
:101E0000FE4F20813181FB01E95EFE4F808190E031
:101E100004C080E090E020E030E0FA0131832083CC
:101E2000089580E189BD82E189BD09B400FEFDCF3E
:101E30008091D8008F7D8093D8008091E0008260EF
:101E40008093E0008091E00081FDFCCF0895CF9267
:101E5000DF92EF92FF920F931F93CF93DF93EC01EA
:101E60008B016A010E940810811133C0C114D10492
:101E700039F0F60180819181081B190BC80FD91F19
:101E8000E12CF12C0115110519F18091E80085FD77
:101E900016C08091E8008E778093E800C114D104C9
:101EA00049F0F60180819181E80EF91EF182E0820D
:101EB00085E00FC00E940810882321F30AC0899191
:101EC0008093F10001501109FFEFEF1AFF0ADACFFA
:101ED00080E0DF91CF911F910F91FF90EF90DF9005
:101EE000CF900895209128043091290426173707B0
:101EF00048F06115710539F42091E8002E772093A0
:101F0000E80001C0B90140E061157105A9F1209117
:101F10002104222309F443C0253009F442C0209152
:101F2000E80023FD40C02091E80022FD32C020914E
:101F3000E80020FFE9CF4091F3002091F20030E06B
:101F4000342BFC01CF016115710559F028303105A2
:101F500040F481918093F100615071092F5F3F4FF0
:101F6000F1CF41E02830310509F040E02091E80050
:101F70002E772093E800C8CF4111C9CF0AC08091C5
:101F80002104882361F0853061F08091E80083FDB1
:101F90000AC08091E80082FFF2CF80E0089582E0DD
:101FA000089583E0089581E008958F708093E9009B
:101FB000EBEEF0E0808181608083EDEEF0E0108256
:101FC0006093EC0040838091EE00881F8827881F73
:101FD00008958091220487FF11C08091E80082FD5E
:101FE00005C0809121048111F8CF11C08091E800D3
:101FF0008B770BC080912104882349F08091E80001
:1020000080FFF8CF8091E8008E778093E8000895F4
:102010002091E4003091E50095E64091EC00842F9A
:10202000817040FF22C08091E80080FD1CC080913B
:102030002104882391F0853091F08091EB0085FD9B
:1020400010C04091E4005091E5004217530729F376
:102050009A01915011F784E0089582E0089583E099
:10206000089581E0089580E008954091E80042FFDE
:10207000DECF08950E94A6100E94AE10E0EEF0E0C0
:10208000808181608083E8EDF0E080818F778083BC
:1020900019BCA7EDB0E08C918E7F8C9380818F7EF0
:1020A00080831092200408950F931F93CF93DF93A2
:1020B0000E94A6100E94AE10C8EDD0E088818F77F4
:1020C000888388818068888388818F7D888319BC14
:1020D0001092210410921E0410921F0400EE10E0D2
:1020E000F80180818B7F808388818160888342E0D2
:1020F00060E080E00E94D50FE1EEF0E080818E7F0D
:102100008083E2EEF0E0808181608083808188605E
:102110008083F80180818E7F8083888180618883BD
:10212000DF91CF911F910F910895E8EDF0E080814C
:102130008F7E8083E7EDF0E080818160808384E0A2
:1021400082BF81E0809320040C945410E8EDF0E00D
:1021500080818E7F80831092E20008951092DA00D1
:102160001092E10008951F920F920FB60F92112462
:102170002F933F934F935F936F937F938F939F938F
:10218000AF93BF93EF93FF938091E10082FF0BC069
:102190008091E20082FF07C08091E1008B7F8093F5
:1021A000E1000E944C0D8091DA0080FF1FC08091F9
:1021B000D80080FF1BC08091DA008E7F8093DA0008
:1021C0008091D90080FF0DC080E189BD82E189BD89
:1021D00009B400FEFDCF81E0809321040E942F0D01
:1021E00005C019BC109221040E94410D8091E100AC
:1021F00080FF19C08091E20080FF15C08091E2004D
:102200008E7F8093E2008091E20080618093E20003
:102210008091D80080628093D80019BC85E08093BB
:1022200021040E945B0E8091E10084FF30C0809108
:10223000E20084FF2CC080E189BD82E189BD09B440
:1022400000FEFDCF8091D8008F7D8093D8008091D3
:10225000E1008F7E8093E1008091E2008F7E809389
:10226000E2008091E20081608093E20080911E0490
:10227000882311F084E007C08091E30087FD02C04D
:1022800081E001C083E0809321040E94BA0E809116
:10229000E10083FF29C08091E20083FF25C0809187
:1022A000E100877F8093E10082E080932104109217
:1022B0001E048091E1008E7F8093E1008091E20016
:1022C0008E7F8093E2008091E20080618093E20043
:1022D00042E060E080E00E94D50F8091F0008860CD
:1022E0008093F0000E94480DFF91EF91BF91AF9154
:1022F0009F918F917F916F915F914F913F912F911E
:102300000F900FBE0F901F9018951F920F920FB64F
:102310000F9211242F933F934F935F936F937F936B
:102320008F939F93AF93BF93CF93DF93EF93FF93DD
:10233000C091E900CF708091EC00D82FD17080FD62
:10234000D0E81092E9008091F000877F8093F00040
:1023500078940E94C9111092E9008091F000886081
:102360008093F000CD2BCF70C093E900FF91EF91E7
:10237000DF91CF91BF91AF919F918F917F916F919D
:102380005F914F913F912F910F900FBE0F901F9033
:1023900018951F93CF93DF9300D0CDB7DEB7E2E25D
:1023A000F4E088E08E0F9091F10091938E13FBCFB3
:1023B0000E94A60D8091E80083FFEDC08091220469
:1023C00090912304492F50E04A30510508F0E3C0B2
:1023D000FA01E25AFF4F0C946D34803881F0823854
:1023E00009F0D9C0809126048F708093E900809114
:1023F000EB0085FB882780F91092E90007C08091E7
:102400001F04882311F082E001C080E09091E80071
:10241000977F9093E8008093F1001092F10095C0AF
:10242000282F2D7F09F0B7C0882319F0823061F082
:10243000B2C080912404813009F0ADC0933009F01E
:1024400080E080931F042BC080912404811127C059
:10245000809126048F7009F49EC08093E90020913A
:10246000EB0020FF1CC0933021F48091EB008062D0
:1024700014C09091EB0090619093EB0021E030E06C
:10248000A90102C0440F551F8A95E2F74093EA0064
:102490001092EA008091EB0088608093EB0010922C
:1024A000E9008091E800877F53C0811174C01091CA
:1024B00024041F778091E3008078812B8093E300D0
:1024C0008091E800877F8093E8000E94E90F809167
:1024D000E80080FFFCCF8091E30080688093E300F8
:1024E000111102C082E001C083E08093210453C037
:1024F0008058823008F04FC0AE014F5F5F4F60914F
:10250000260480912404909125040E94C00EBC01F1
:10251000892B09F440C09091E800977F9093E800E0
:1025200089819A810E94720F8091E8008B77809355
:10253000E80031C0803879F58091E800877F80938A
:10254000E80080911E048093F1008091E8008E776E
:102550008093E8000E94E90F1EC081111CC0909179
:1025600024049230C0F48091E800877F8093E800D3
:1025700090931E040E94E90F80911E04811106C0F1
:102580008091E30087FD02C081E001C084E0809378
:1025900021040E948D0D8091E80083FF0AC0809184
:1025A000E800877F8093E8008091EB008062809351
:1025B000EB000F900F90DF91CF911F9108959093B2
:1025C0008103809380030895E0918003F09181035B
:1025D000309721F00190F081E02D099480E008957A
:1025E000EF92FF920F931F93CF93DF93E0918003BD
:1025F000F09181033097B1F18C010280F381E02DDD
:1026000009958091E10382FF2DC080FF04C08BE516
:1026100092E00E943D06E80110E185E5E82E82E0A7
:10262000F82E8091E10380FF0BC088811F928F9369
:10263000FF92EF920E94D6060F900F900F900F908E
:10264000115021961111EDCF8091E10380FF0AC056
:1026500083E592E0DF91CF911F910F91FF90EF9072
:102660000C943D06DF91CF911F910F91FF90EF9059
:102670000895E0918003F0918103309721F0048068
:10268000F581E02D0994089520917E0330917F0318
:102690008217930771F090937F0380937E03E091FC
:1026A0008003F0918103309721F00680F781E02DBF
:1026B0000994089520917C0330917D03821793073C
:1026C00071F090937D0380937C03E0918003F091FF
:1026D0008103309721F00084F185E02D099408955D
:1026E00008950C9470130E9402210E94DD070E943D
:1026F0004F230E94AA310E9414300E94072D0E948D
:10270000DA2E0C9401334F925F927F928F929F92B8
:10271000AF92BF92CF92DF92EF92FF920F931F93EF
:10272000CF93DF9300D000D01F92CDB7DEB70E94C9
:102730000B0893E8C92E93E0D92E00E010E0AA24FC
:10274000A394B12C702E802F0E9418094C01F60121
:10275000419051906F014826592641145104B1F41B
:102760000F5F1F4F0430110569F78FEF89838A834C
:102770001B820E940B218160782F9D838C8349816D
:102780005A816B818D810E94541441C08091E10374
:1027900081FD0E94210920E030E07501022E02C077
:1027A000EE0CFF1C0A94E2F7C70184219521892BC6
:1027B00041F129837A828E209F2091E0892809F4B3
:1027C00090E09B830E940B218160782F9D838C83F6
:1027D00049815A816B818D810E94541449815A81AB
:1027E0006B817C818D810E948320000F111FF80175
:1027F000ED57FC4F80819181E826F926F182E08235
:1028000006C02F5F3F4F2B30310539F6A9CF0E940C
:1028100082200E94F426109182030E94E41218176D
:1028200071F10E94E412809382039091E10392FF80
:102830000EC090FF0CC01F928F938DE692E09F9385
:102840008F930E94D6060F900F900F900F9080915B
:1028500082030F900F900F900F900F90DF91CF9108
:102860001F910F91FF90EF90DF90CF90BF90AF90AE
:102870009F908F907F905F904F900C9476300F9048
:102880000F900F900F900F90DF91CF911F910F91AC
:10289000FF90EF90DF90CF90BF90AF909F908F9080
:1028A0007F905F904F900895CF93DF93CDB7DEB7C1
:1028B0002B970FB6F894DEBF0FBECDBF942F4F837A
:1028C000252F588769877A878B874A855B85452BB3
:1028D00021F02F3F09F59F3FF9F4DE01119686E0C4
:1028E000FD0111928A95E9F785E0FE013796019086
:1028F0000D928A95E1F749815A816B817C818D81A6
:102900009E810E94EB1B2B960FB6F894DEBF0FBE84
:10291000CDBFDF91CF9108954F81588569857A8524
:102920008B850E948320D9CFCF93882309F4CDC013
:10293000C82F823859F40E94E41281FDC6C089E391
:102940000E94761E0E94272089E30CC0833879F408
:102950000E94E41280FDB9C083E50E94761E0E94A9
:10296000272083E50E944A1FCF910C9427208438AA
:1029700059F40E94E41282FDA8C087E40E94761EEA
:102980000E94272087E4EECF8CEF8C0F813A48F429
:102990008C2F0E94B22B811198C08C2F0E94761E22
:1029A000E3CF80E28C0F883048F4C77081E001C02B
:1029B000880FCA95EAF70E94F61FD6CF8BE58C0FD9
:1029C000833078F4C53A29F0C63A31F083E890E0D4
:1029D00005C081E890E002C082E890E0CF910C94BD
:1029E000441388E58C0F853108F06FC0C83A61F157
:1029F000C93A69F1CA3A71F1CB3A79F1CC3A81F12D
:102A0000CD3A89F1CE3A91F1CF3A99F1C13BA1F19A
:102A1000C03BA9F1C23BB1F1C33BB9F1C43BC1F129
:102A2000C53BC9F1C63BD1F1C73BD9F1C83BE1F188
:102A3000C93BE9F1CA3BF1F1CB3BF9F1CC3B09F4DD
:102A40003FC080E090E03EC082EE90E03BC089EE67
:102A500090E038C08AEE90E035C085EB90E032C05F
:102A600086EB90E02FC083EB90E02CC084EB90E0ED
:102A700029C087EB90E026C08CEC90E023C08DEC61
:102A800090E020C083E891E01DC08AE891E01AC080
:102A900082E991E017C084E991E014C081E292E0FC
:102AA00011C083E292E00EC084E292E00BC085E2A6
:102AB00092E008C086E292E005C087E292E002C0A0
:102AC0008AE292E0CF910C945A13CF910895882313
:102AD00009F44BC0823859F40E94E41281FF45C0CA
:102AE00089E30E94761E0E94272089E30CC0833868
:102AF00071F40E94E41280FF38C083E50E94761EC4
:102B00000E94272083E50E944A1F0C9427208438C6
:102B100059F40E94E41282FF28C087E40E94761EC6
:102B20000E94272087E4EFCF9CEF980F913A58F34B
:102B300090E2980F983050F4877091E001C0990F9F
:102B40008A95EAF7892F0E94FC1FDFCF9BE5980F3B
:102B5000933020F480E090E00C944413885A85313F
:102B600020F480E090E00C945A130895882321F01B
:102B70000E94F61F0C9427200895882321F00E94BC
:102B8000FC1F0C9427200895CF92DF92EF92FF92C2
:102B90000F931F93CF93DF93CDB7DEB727970FB671
:102BA000F894DEBF0FBECDBF25E0FC01DE0111961B
:102BB00001900D922A95E1F7FC014081318102815B
:102BC000258122952F7063817481672B09F448C396
:102BD0003F3F19F44F3F09F443C36C0149833A83E3
:102BE00089819A812F830E94351E182F9E830E940F
:102BF000341E0E94441D9E81E92FE295EF70F0E0A3
:102C0000E859FF4F2F810C946D34892F807F9F707E
:102C1000F92E882319F0F29490EFF922002349F05D
:102C2000FF2009F45FC28F2D0E9409200E942720F7
:102C300059C2812F0E946715FF2009F411C38F2DFF
:102C40000E940F2027960FB6F894DEBF0FBECDBFAF
:102C5000DF91CF911F910F91FF90EF90DF90CF9078
:102C60000C942720892F807F9F70F92E803219F0D5
:102C7000F29480EFF822112319F0113001F129C0EC
:102C80000023A9F08F2D222349F1213039F5279611
:102C90000FB6F894DEBF0FBECDBFDF91CF911F916D
:102CA0000F91FF90EF90DF90CF900C94192022238A
:102CB00019F0213009F4D4C20E941C202CC000233A
:102CC000E9F0233008F0CCC20E94F31F8F2129F0D5
:102CD00022C00023F1F0211115C08F2D27960FB6C9
:102CE000F894DEBF0FBECDBFDF91CF911F910F9142
:102CF000FF90EF90DF90CF900C94B615223008F043
:102D0000AFC209C0F601858180FFECC18F70858359
:102D1000E4CF2111FBC18F2D69C1292F269526955E
:102D2000237030E02115310521F021303105C1F04B
:102D300097C2002319F0812F937002C080E090E0C9
:102D400027960FB6F894DEBF0FBECDBFDF91CF91AF
:102D50001F910F91FF90EF90DF90CF900C94441350
:102D6000002319F0812F937002C080E090E0279635
:102D70000FB6F894DEBF0FBECDBFDF91CF911F918C
:102D80000F91FF90EF90DF90CF900C945A13812F0A
:102D9000002319F00E947A2502C00E94E22527969E
:102DA0000FB6F894DEBF0FBECDBFDF91CF911F915C
:102DB0000F91FF90EF90DF90CF900C946726892FB2
:102DC000837009F079C001114BC2812F82958695DD
:102DD0008770880F880F212F2F70C22ED12CE12CE5
:102DE000F12C082E04C0CC0CDD1CEE1CFF1C0A9438
:102DF000D2F714FF12C04FE050E060E070E004C072
:102E0000440F551F661F771F8A95D2F78A019B01D1
:102E1000009510952095309503C000E010E09801D2
:102E2000969596959370492F50E0C901B8014230AC
:102E30005105D1F04330510559F16C297D298E2976
:102E40009F294130510541F127960FB6F894DEBF16
:102E50000FBECDBFDF91CF911F910F91FF90EF90EB
:102E6000DF90CF900C94591D6C297D298E299F29C4
:102E700027960FB6F894DEBF0FBECDBFDF91CF917E
:102E80001F910F91FF90EF90DF90CF900C946B1DEE
:102E90000E94591DC701B60127960FB6F894DEBFF0
:102EA0000FBECDBFDF91CF911F910F91FF90EF909B
:102EB000DF90CF900C94471D002319F0892F81706B
:102EC00001C08695882309F4CBC1812F8295869510
:102ED0008770880F880F212F2F70C22ED12CE12CE4
:102EE000F12C082E04C0CC0CDD1CEE1CFF1C0A9437
:102EF000D2F714FF12C04FE050E060E070E004C071
:102F0000440F551F661F771F8A95D2F78A019B01D0
:102F1000009510952095309503C000E010E09801D1
:102F2000969596959370492F50E0C901B8014230AB
:102F30005105D1F04330510559F16C297D298E2975
:102F40009F294130510541F127960FB6F894DEBF15
:102F50000FBECDBFDF91CF911F910F91FF90EF90EA
:102F6000DF90CF900C94101E6C297D298E299F290B
:102F700027960FB6F894DEBF0FBECDBFDF91CF917D
:102F80001F910F91FF90EF90DF90CF900C94221E35
:102F90000E94101EC701B60127960FB6F894DEBF37
:102FA0000FBECDBFDF91CF911F910F91FF90EF909A
:102FB000DF90CF900C94FE1D103F41F118F4103EAD
:102FC00048F48BC0123F09F450C0D8F1133F09F404
:102FD00060C083C01F70892F8F71002321F00E9471
:102FE000971D812F7BCE0E94B81D812F27960FB68B
:102FF000F894DEBF0FBECDBFDF91CF911F910F912F
:10300000FF90EF90DF90CF900C94BD150023A9F0B6
:10301000223008F025C1892F8F7127960FB6F894BA
:10302000DEBF0FBECDBFDF91CF911F910F91FF90FB
:10303000EF90DF90CF900C94DD1D233008F010C18D
:10304000EACF0023A1F0892F8F7127960FB6F8944D
:10305000DEBF0FBECDBFDF91CF911F910F91FF90CB
:10306000EF90DF90CF900C94971D002361F3892F90
:103070008F7127960FB6F894DEBF0FBECDBFDF91DC
:10308000CF911F910F91FF90EF90DF90CF900C9414
:10309000B81D002391F0892F8F7127960FB6F894F1
:1030A000DEBF0FBECDBFDF91CF911F910F91FF907B
:1030B000EF90DF90CF900C94821D27960FB6F89476
:1030C000DEBF0FBECDBFDF91CF911F910F91FF905B
:1030D000EF90DF90CF900C947D1D0023A1F0222370
:1030E00009F4B1CF812F27960FB6F894DEBF0FBE3B
:1030F000CDBFDF91CF911F910F91FF90EF90DF90A7
:10310000CF900C949414222309F4B1CF812F2796E9
:103110000FB6F894DEBF0FBECDBFDF91CF911F91E8
:103120000F91FF90EF90DF90CF900C946715492F8F
:103130004F70612FC6010E94960727960FB6F8942C
:10314000DEBF0FBECDBFDF91CF911F910F91FF90DA
:10315000EF90DF90CF900C948F1C011181C0112350
:1031600041F0892F8F70843021F0907F212F2F70B4
:10317000922B9F70892F90E082309105E9F1ACF499
:10318000009751F1019709F06BC027960FB6F8949C
:10319000DEBF0FBECDBFDF91CF911F910F91FF908A
:1031A000EF90DF90CF900C94172F83309105A1F111
:1031B000049709F055C0812F27960FB6F894DEBF0B
:1031C0000FBECDBFDF91CF911F910F91FF90EF9078
:1031D000DF90CF900C94AB2F27960FB6F894DEBFFC
:1031E0000FBECDBFDF91CF911F910F91FF90EF9058
:1031F000DF90CF900C94EB2E27960FB6F894DEBF9D
:103200000FBECDBFDF91CF911F910F91FF90EF9037
:10321000DF90CF900C94432F27960FB6F894DEBF23
:103220000FBECDBFDF91CF911F910F91FF90EF9017
:10323000DF90CF900C94752F492F4F70612FC601EE
:1032400027960FB6F894DEBF0FBECDBFDF91CF91AA
:103250001F910F91FF90EF90DF90CF900C94E506B7
:1032600027960FB6F894DEBF0FBECDBFDF91CF918A
:103270001F910F91FF90EF90DF90CF9008950E94E3
:1032800016200E94E51F0E9427200E9499270E9475
:10329000672680E090E00E94441380E090E00C9468
:1032A0005A130E9406200C943F190E94351E292FA4
:1032B00022952F7030E02C3031054CF42A30310546
:1032C0006CF4225031092230310588F407C02C30CB
:1032D000310549F02F30310531F009C0803E48F00A
:1032E000803F29F406C093FB882780F9089580E089
:1032F000089581E00895CF93DF9300D000D01F920E
:10330000CDB7DEB70F900F900F900F900F90DF9119
:10331000CF910895CF93DF9300D000D000D0CDB7E8
:10332000DEB726960FB6F894DEBF0FBECDBFDF9195
:10333000CF9108951F93CF93DF93C0918B0316E035
:1033400080918C03C81799F0D0E01C9FF0011D9F5D
:10335000F00D1124E357FC4F40815181628173814C
:10336000848195810E948A192196C770E9CFDF91E7
:10337000CF911F9108954091BD035091BE0360917C
:10338000BF037091C0038091C1039091C2030C945C
:103390008A198091C20382958F7009F054C0809180
:1033A000BF03882309F44FC080918B03A0918C0345
:1033B0006091BD037091BE034091C0035091C10361
:1033C000B6E08A1709F43FC090E041155105C1F1FC
:1033D0007F3F11F46F3FA1F1B89FF001B99FF00D4D
:1033E0001124E357FC4F218172132AC020816213FC
:1033F00027C02281211124C023813481241735075D
:1034000010F421503109241B350B243B3105C0F445
:103410002091C2032F7020612093C20326E0289FD1
:10342000F001299FF00D1124EE56FC4F80818F7022
:10343000806180838DEB93E00E94C4150C949A19EF
:1034400001968770BECF0895CF92DF92EF92FF92E0
:103450000F931F93CF93DF93CDB7DEB762970FB66D
:10346000F894DEBF0FBECDBF8C0185E0F801DE0110
:103470001D9601900D928A95E1F7D8014C91119615
:103480005C91119712966C9112971396CD90DC90E7
:1034900014973091BD037091BE038091C003909149
:1034A000C103009709F46BC17F3F19F43F3F09F452
:1034B00066C1E090BF03EE2009F4C0C02091C203B2
:1034C000C816D90628F0F601E81BF90BCF0104C095
:1034D000809590958C0D9D1DFF24F394843B910560
:1034E00078F0F12C207F09F0C6C07C2DD98AC88ADB
:1034F00089890E947B198DEB93E00E94C415B1C0AD
:10350000822F807F09F046C0751314C0341312C097
:10351000611110C02F7020612093C2030E94BB195B
:103520008DEB93E00E94C4158091C203D8011596DB
:103530008C932EC0CD2819F15F3F11F44F3FF9F065
:10354000F62E61111CC080918B0320918C0336E014
:10355000821709F45AC090E0389FF001399FF00DAE
:103560001124E357FC4F7181571306C07081471334
:1035700003C07281711103C001968770E9CFF62EE6
:10358000662309F418C18091C20381608093C2034D
:10359000F12C11C1751308C0341306C0611104C0A9
:1035A0008091C203D801C3C04D875E878D859E85FB
:1035B0006A8B0E9455196A898823E1F16623D1F14B
:1035C0002091C203822F82958F7090E0029774F051
:1035D0008091BD039091BE0398878F831986DB8607
:1035E000CA862C87CE0107960E94C41586E0F80192
:1035F000ADEBB3E001900D928A95E1F70E94C919F5
:103600000E94BB19FF24F394D6C04D875E878D8539
:103610009E850E94351E292F22952F7030E0223082
:1036200031050CF0BCC09F7009F0B6C0805E8830D8
:1036300008F4C1C0C8010E94C415E4CFC816D90659
:1036400008F453C0F601E81BF90BCF01843B910548
:1036500008F450C0F12C7C2DD98AC88A89890E942F
:103660007B19EDEBF3E086E0DF011D928A95E9F727
:103670000E94BB19A0C0751314C0341312C061118D
:1036800010C08091C203F8018583C8010E94C4154F
:1036900086E0EDEBF3E0DF011D928A95E9F7FE2C61
:1036A0008AC04D875E878D859E856A8B0E945519DD
:1036B0006A89882309F4BECF662309F4BBCF209121
:1036C000C203822F82958F7090E002970CF48ECF08
:1036D0008091BD039091BE039A8389831B82DD8212
:1036E000CC822E83CE0101967FCF809590958C0D54
:1036F0009D1DACCFF62E662309F49CCF75132EC00A
:1037000034132CC02091C20320FD1FC0822F82954C
:103710008F70D9F0D80115962C9315978F3049F0FA
:103720008F5F982F9295907F822F8F70892B15969F
:103730008C93C8010E94C41586E0F801ADEBB3E09C
:1037400001900D928A95E1F793CF86E0F801ADEBF9
:10375000B3E001900D928A95E1F72DC04D875E8709
:103760008D859E850E945519811140CF8091C2039D
:1037700081608093C203C8010E94C4151CC06623E7
:1037800009F458CF4D875E878D859E850E94551917
:10379000882309F44FCF2ACF811148CF0CC02430A1
:1037A00031050CF047CF9F7009F440CFF8019581A7
:1037B000907F09F03BCF8F2D62960FB6F894DEBF55
:1037C0000FBECDBFDF91CF911F910F91FF90EF9072
:1037D000DF90CF9008951F93CF93DF93CDB7DEB7DF
:1037E0002C970FB6F894DEBF0FBECDBF4F8358871E
:1037F00069877A878B879C87CE0107960E94241A57
:10380000882369F08F8198852A853B85232BF1F1E8
:103810009F3F09F063C08F3F09F060C037C086E06A
:10382000FE013796DE01119601900D928A95E1F71F
:103830006F817885EA85FB85309741F17F3F11F4F0
:103840006F3F21F120918C0330E0C9010196877010
:10385000992740918B0350E08417950709F447C0DE
:1038600069837A83FD83EC8396E0929FD001939FD6
:10387000B00D1124A357BC4FFE01319601900D925B
:103880009A95E1F780938C030E949A1916E0809133
:103890008B0390918C038917C1F1189FC0011124EB
:1038A00083579C4F0E94241A882379F1E0918B035F
:1038B0001E9FF0011124E357FC4F4081518162812A
:1038C0007381848195810E948A1980918B0390E095
:1038D00001968770992780938B03D9CF4F815885A4
:1038E00069857A858B859C850E948A19CFCF0E9435
:1038F000511910928C0310928B03EDEBF3E086E0EC
:10390000DF011D928A95E9F7C1CF2C960FB6F89486
:10391000DEBF0FBECDBFDF91CF911F910895DF9223
:10392000EF92FF920F931F93CF93DF93FC01892BAC
:1039300009F48AC0E12CF12CDD24D394EF01219607
:103940008491853709F461C058F4843708F04EC07B
:10395000843008F06AC08130D1F0823071F174C0D7
:10396000883709F45DC050F4863709F455C08737AD
:1039700009F06AC08E2D0E94032054C09CE7980F66
:10398000903708F061C08F770E94671550C08F0193
:103990000E5F1F4FFE01849190E2980F983050F413
:1039A0008770FD2D01C0FF0F8A95EAF78F2F0E94C7
:1039B000092014C00E94941413C08F010E5F1F4F82
:1039C000FE01C49180E28C0F883060F4C7708D2DA9
:1039D00001C0880FCA95EAF70E940F200E94272095
:1039E000E80125C08C2F0E946715FACF9F012E5F3A
:1039F0003F4FFE01C491CC2369F08FE99FE001970E
:103A0000F1F700C00000C150F6CF9F012E5F3F4F7D
:103A1000FE01F490E9010BC00E94F31FE82E07C0DD
:103A20000E9406200E94272002C00E9494148F2D1D
:103A3000882341F0EFE9FFE03197F1F700C0000083
:103A40008150F6CFFE017ACFDF91CF911F910F9178
:103A5000FF90EF90DF9008956093C7037093C803C1
:103A60008093C9039093CA030E94CC300C943F19F1
:103A70006093C3037093C4038093C5039093C603FC
:103A80000E942B310C943F1908950C942C1D0F9318
:103A90001F930091C7031091C8032091C90330916F
:103AA000CA03602B712B822B932B1F910F910C94C7
:103AB0002C1D0F931F930091C7031091C8032091F1
:103AC000C9033091CA0360237123822393231F917A
:103AD0000F910C942C1D0F931F930091C70310910D
:103AE000C8032091C9033091CA0360277127822738
:103AF00093271F910F910C942C1D60E070E0CB0177
:103B00000C94381D0F931F9341E050E060E070E08B
:103B10008A019B0104C0000F111F221F331F8A95C9
:103B2000D2F7C901B8011F910F910C94381D0F9362
:103B30001F9341E050E060E070E004C0440F551F67
:103B4000661F771F8A95D2F78091C3039091C403B3
:103B5000A091C503B091C6038A019B01082B192BC4
:103B60002A2B3B2BC901B8011F910F910C94381DD2
:103B70000F931F9341E050E060E070E004C0440FF9
:103B8000551F661F771F8A95D2F74095509560950F
:103B900070958091C3039091C403A091C503B09127
:103BA000C6038A019B01082319232A233B23C90149
:103BB000B8011F910F910C94381D0F931F9341E092
:103BC00050E060E070E004C0440F551F661F771F8F
:103BD0008A95D2F78091C3039091C403A091C50345
:103BE000B091C6038A019B01082719272A273B2782
:103BF000C901B8011F910F910C94381D0F931F93A9
:103C00000091C3031091C4032091C5033091C603F2
:103C1000602B712B822B932B1F910F910C94381DCD
:103C20000F931F930091C3031091C4032091C50308
:103C30003091C60360237123822393231F910F9138
:103C40000C94381D0F931F930091C3031091C4036C
:103C50002091C5033091C6036027712782279327DF
:103C60001F910F910C94381D0895CF92DF92EF921F
:103C7000FF920F931F93CF93DF938C01C090C703E4
:103C8000D090C803E090C903F090CA034091C303E9
:103C90005091C4036091C5037091C603C42AD52A0C
:103CA000E62AF72ACFE1D0E0D701C6010C2E04C0E6
:103CB000B695A795979587950A94D2F780FF07C088
:103CC000B8018C2F0E9482228130910531F4219716
:103CD00058F7B80180E00E948222DF91CF911F91B6
:103CE0000F91FF90EF90DF90CF900895CF92DF92E9
:103CF000EF92FF920F931F93CF93DF93C82F809182
:103D00000D01882361F180910E01882341F18C2FF0
:103D10008695869586958F3088F4E0910F01F09115
:103D20001001E80FF11DC77081E090E001C0880F1D
:103D3000CA95EAF79181892B8183A3C08091E10321
:103D400080FF9FC01F92CF9386E992E09F938F934D
:103D50000E94D6060F900F900F900F9092C0D090B7
:103D6000DE033091DC03E0910F01F0911001332369
:103D700009F473C04091DD038D2D2FEF96E0E92EFD
:103D8000F12C082F082E000C110BBF01600F711FC2
:103D9000DB0112969C919C1709F473C02F3F19F414
:103DA000911101C0282FC801019606E010E0B7016B
:103DB0000E9459348413E5CFD22F4D114EC02F3FAE
:103DC00069F4842F440F990B0196B8010E9459346D
:103DD0008093DE0331503093DC033FC0822F220FEB
:103DE000990B0196B8010E945934282FFF24F394AF
:103DF00006E010E0022E000C330B6F01C20ED31E42
:103E0000D60112965C91552391F08D2FDD0F990B01
:103E1000BF01680F791FDB0112965C93D6011296E1
:103E20001C920196B8010E945934D82F01C0F39416
:103E3000C9010196B8010E945934282F8413DACFA2
:103E4000242F440F330B2F193109C901069666E060
:103E500070E00E9459348093DD038091DD03082EC9
:103E6000000C990BE80FF91FC283019666E070E021
:103E70000E9459348093DD038091DC038F5F80932F
:103E8000DC03DF91CF911F910F91FF90EF90DF90B6
:103E9000CF900895EF92FF920F931F93CF93DF93EC
:103EA000482F80910D01882369F180910E018823AC
:103EB00049F1842F8695869586958F3090F4E09110
:103EC0000F01F0911001E80FF11D477081E090E0C3
:103ED00001C0880F4A95EAF78095918189238183F3
:103EE0006DC08091E10380FF69C01F924F9388E706
:103EF00092E09F938F930E94D6060F900F900F90A1
:103F00000F905CC02091DE03E091DC03EE2309F406
:103F100055C0C0910F01D09110010091DD03002E1A
:103F2000000C110B86E0E82EF12C30E0DE01A20F30
:103F3000B31FCD01029612965C91541335C0DC017B
:103F40001C92E150E093DC03E11104C01092DE0307
:103F50001092DD034091DD03842F042E000C990B99
:103F6000059666E070E00E9459342817390731F54C
:103F7000F090DE0306E010E0842F440F990B0596C5
:103F8000B8010E9459349C01482F0596B8010E943F
:103F90005934FE01E80FF91F8281811102C02F11EF
:103FA000EBCF2093DD030AC0C9010196B7010E943F
:103FB0005934282F8017910709F0B7CFDF91CF919F
:103FC0001F910F91FF90EF90089581E090E0E091B4
:103FD0000F01F0911001E80FF91F10820196803156
:103FE0009105A9F708958091E00308959091E00369
:103FF000892B8093E003089580959091E0038923B5
:104000008093E00308958093E00308951092E00305
:1040100008959091DF03892B8093DF0308958095A5
:104020009091DF0389238093DF0308951092DF03CB
:1040300008958093CB0308951092CB030895809147
:104040000E01811103C08091DC0308950895E09171
:104050000F01F09110018091E0038083E0910F0146
:10406000F091100190818091DF03892B80838091F2
:10407000CB03882361F0E0910F01F0911001908152
:10408000892B80830E941F2081111092CB03809185
:104090000F01909110010C94F012909325038093DE
:1040A000240308958295982F9C7C392F3695369558
:1040B000282F237344E0249FC0011124932F982BB1
:1040C000292F2A7A2695892F8575880F822B0895A6
:1040D0001F93CF93DF931F92CDB7DEB799830E94D2
:1040E0005220182F9981892F0E945220212F30E0D1
:1040F000322F2227A901482BCA010F90DF91CF91BF
:104100001F9108950895CF93DF9300D000D01F92A0
:10411000CDB7DEB70F900F900F900F900F90DF91FB
:10412000CF910895089580912104843031F1109247
:10413000E20320E488E190E00FB6F894A89580931C
:1041400060000FBE209360000E94242D83B7817F02
:10415000846083BF83B7816083BF7894889583B779
:104160008E7F83BF0FB6F894A89580916000886118
:1041700080936000109260000FBE08950895089526
:10418000CF930E94BE200E940B080E94BF20C0E077
:104190008C2F0E941809892B29F4CF5FC430C1F7F6
:1041A00080E001C081E0CF9108950E9451190C94E4
:1041B000DA2E1F920F920FB60F9211248F939F93B6
:1041C000AF93BF938091E203811113C08091E30309
:1041D0009091E403A091E503B091E6034196A11DFF
:1041E000B11D8093E3039093E403A093E503B093A0
:1041F000E603BF91AF919F918F910F900FBE0F90EB
:104200001F90189582E084BD93E095BD9AEF97BD0D
:1042100080936E0008952FB7F8948091E3039091F6
:10422000E403A091E503B091E6032FBF08952FB7F3
:10423000F8946091E3037091E4038091E503909119
:10424000E6032FBF0895CF92DF92EF92FF920F9374
:104250001F932FB7F8944091E3035091E4036091CA
:10426000E5037091E6032FBF6A017B01EE24FF2472
:104270008C0120E030E0C016D106E206F30610F40F
:10428000415051099A01281B390BC9011F910F9107
:10429000FF90EF90DF90CF9008951F920F920FB68E
:1042A0000F9211248F939F93AF93BF938091E30359
:1042B0009091E403A091E503B091E6030196A11D5E
:1042C000B11D8093E3039093E403A093E503B093BF
:1042D000E603BF91AF919F918F910F900FBE0F900A
:1042E0001F9018950E943A10F8942FEF87EA91E6F4
:1042F000215080409040E1F700C0000087E090EB43
:10430000DC0180932C0490932D04A0932E04B09391
:104310002F049CE088E10FB6F894A8958093600084
:104320000FBE90936000FFCF811103C080E090E04A
:1043300002C087E797E790930108809300089AE00E
:1043400088E10FB6F894A895809360000FBE909313
:104350006000FFCF8D3B50F4883A08F5853AB0F401
:10436000843090F4813009F485C081C0883E30F4F7
:10437000803E50F48F3B09F454C079C0803F08F46C
:1043800076C090E09065089590E00895853A09F42C
:1043900074C0863A09F474C083E890E40895883ABA
:1043A00009F471C0893A09F471C08A3A09F471C0FC
:1043B0008B3A09F471C08C3A09F471C08D3A09F452
:1043C00071C08E3A09F471C08F3A09F471C0813B13
:1043D00009F471C0803B09F471C0823B09F471C0DB
:1043E000833B09F471C0843B09F471C0853B09F437
:1043F00071C0863B09F471C0873B09F471C0883BEA
:1044000009F471C0893B09F471C08A3B09F471C099
:104410008B3B09F471C08C3B09F471C080E094E4DB
:1044200008950E94F31F80FF0EC00E9451192FEFC4
:1044300080E792E0215080409040E1F700C000000A
:104440000E94722112C00E94F31F82FF0EC00E94C0
:1044500051192FEF89E698E1215080409040E1F713
:1044600000C0000081E00E9494210E94511980E068
:1044700090E0089581E090E0089581E890E4089547
:1044800082E890E4089582EE94E4089589EE94E43D
:1044900008958AEE94E4089585EB94E4089586EBFC
:1044A00094E4089583EB94E4089584EB94E40895F0
:1044B00087EB94E408958CEC94E408958DEC94E4F7
:1044C000089583E895E408958AE895E4089582E9DB
:1044D00095E4089584E995E4089581E296E40895C9
:1044E00083E296E4089584E296E4089585E296E4F2
:1044F000089586E296E4089587E296E408958AE2B4
:1045000096E408950E94CB07803EA8F4803C00F515
:10451000813309F45CC038F4893209F452C08A321C
:1045200009F45BC05FC08933B1F08238A1F08533F4
:1045300009F441C057C0833E41F128F4803E99F010
:10454000823EB9F04FC0863E31F1873E71F14AC0DC
:104550000E94CF07089590912A0490FD02C091FF18
:1045600041C080EE3FC080912A0480FFFACF89E3EA
:1045700039C080912A0482FF0CC080912A0484FFF4
:1045800002C080E02FC083EE2DC080912A0482FFFC
:10459000F4CF82EE27C080912A0483FF0AC0809165
:1045A0002A0484FDEECF87EE1DC080912A0483FF8C
:1045B000F6CF86EE17C080912A0485FF06C089E2F7
:1045C00011C080912A0485FFFACF85E30BC080914A
:1045D0002A0486FF06C08AE205C080912A0486FF6D
:1045E000FACF81E30E94AA210895AF92BF92CF92A1
:1045F000DF92EF92FF920F931F93CF937C01C0E065
:10460000CC24C394D12C8C2F0E9418095C0100E0AB
:1046100010E0C601002E02C0880F991F0A94E2F72D
:104620008A219B21892BB1F0602F7C2F80E00E9492
:1046300082229C018E159F0559F0832F807E932F37
:10464000907C11F0803A31F430E02E153F0511F4E2
:1046500081E009C00F5F1F4F0B301105D1F6CF5F0E
:10466000C43089F680E0CF911F910F91FF90EF90B9
:10467000DF90CF90BF90AF900895CF93DF93EC0180
:104680008CE290E00E94F522882329F0CE01DF9190
:10469000CF910C94F52280E0DF91CF910895CF93D4
:1046A0000E94C924811102C00E94A4248BEB92E0D5
:1046B0000E943D06C5E6C15049F00E940B088FE3F9
:1046C0009CE90197F1F700C00000F5CF84EB92E080
:1046D0000E943D0689E290E00E943D23811132C193
:1046E0008AE290E00E943D23882341F00E94C32487
:1046F0000E94A4240E9487320E94E53185E090E068
:104700000E943D2381110E9472210E9492200E94EA
:10471000D4248093E10387E090E00E943D23882326
:10472000C1F18BE190E00E943D23882351F08091FC
:10473000E10381FB222720F991E0922790FB81F988
:104740000FC08EE090E00E943D23882361F08091AD
:10475000E10382FB222720F991E0922790FB82F966
:104760008093E10316C080E190E00E943D23909188
:10477000E103882341F093FB222720F981E082277F
:1047800080FB93F904C0892F809580FB90F990936A
:10479000E1038091E1030E94D8240E94E6248093E3
:1047A0002A0480EE90E00E943D23882341F080910E
:1047B0002A04982F909590FB80F980932A0489E32E
:1047C00090E00E943D23882359F080912A0481FBC8
:1047D000222720F991E0922790FB81F980932A0407
:1047E00082EE90E00E943D23882359F080912A04B4
:1047F00082FB222720F991E0922790FB82F9809397
:104800002A0486EE90E00E943D23882359F080918F
:104810002A0483FB222720F991E0922790FB83F959
:1048200080932A0483EE90E00E943D23882359F070
:1048300080912A0484FB222720F991E0922790FBA3
:1048400084F980932A0485E390E00E943D23882325
:1048500059F080912A0485FB222720F991E09227C4
:1048600090FB85F980932A0481E390E00E943D2328
:10487000882359F080912A0486FB222720F991E0B1
:10488000922790FB86F980932A0481E190E00E94B0
:104890003D23882359F080912A0487FB222720F9A1
:1048A00091E0922790FB87F980932A0480912A0453
:1048B0000E94EA2480912A0487FB882780F980934C
:1048C0000E0187E290E00E943D23C82F8EE190E028
:1048D0000E943D238111C2608FE190E00E943D2340
:1048E0008111C46080E290E00E943D238111C86084
:1048F00081E290E00E943D238111C06182E290E05C
:104900000E943D238111C06283E290E00E943D231A
:104910008111C06484E290E00E943D23882311F05D
:10492000C06802C0CC2329F08C2F0E94E1246C2F98
:1049300003C00E94DD24682F70E080E090E0CF91FA
:104940000C94451DCF9108956DEE7EEF80E090E0D0
:104950000E948F3460E082E090E00E94813460E049
:1049600083E090E00E94813460E084E090E00E9467
:10497000813460E085E090E00E94813460E086E070
:1049800090E00C9481346FEF7FEF80E090E00C9426
:104990008F3480E090E00E947B3421E08D3E9E4F7A
:1049A00009F020E0822F089582E090E00C947334A7
:1049B000682F82E090E00C94813483E090E00C94C6
:1049C0007334682F83E090E00C94813484E090E0AD
:1049D0000C947334682F84E090E00C94813486E06A
:1049E00090E00C947334682F86E090E00C9481344E
:1049F0008091E90380FF0BC06091140185E0689FFE
:104A0000B001112475956795759567952BC081FF49
:104A100009C06091140185E0689FB001112475956B
:104A2000679520C082FF07C06091140185E0689FF0
:104A3000B001112417C09091EA039923D1F060913D
:104A40001301961788F72091140185E0289F9001A3
:104A50001124929FA001939F500D112470E0CA0170
:104A60000E9459346038710540F46115710539F0C0
:104A700002C065E070E0862F08958FE7089581E019
:104A800008958091E90380FF08C06091120170E0F1
:104A9000759567957595679521C081FF06C06091F2
:104AA000120170E07595679519C082FF04C060918E
:104AB000120170E010C09091EA039923C1F0609157
:104AC00011019617A0F780911201899FC00111244E
:104AD00070E00E9459346038710528F46115710541
:104AE00021F0862F08958FE7089581E0089561E011
:104AF00070E0F4CF803F21F40E94F824819504C037
:104B0000813F29F40E94F8248093ED030895823FA9
:104B100021F40E94F824819504C0833F29F40E9467
:104B2000F8248093EC030895893F19F40E944125ED
:104B300005C08A3F31F40E94412581958093EE03A0
:104B400008958B3F21F40E944125819504C08C3F3C
:104B500029F40E9441258093EF030895843F21F4B6
:104B60008091EB03816017C0853F21F48091EB03B6
:104B7000826011C0863F21F48091EB0384600BC0FA
:104B8000873F21F48091EB03886005C0883F31F4B2
:104B90008091EB0380618093EB0308958D3F21F4B6
:104BA0008091E90381600BC08E3F21F48091E9037D
:104BB000826005C08F3F29F48091E903846080936F
:104BC000E9030895803F39F48091ED0387FF6CC0BD
:104BD0001092ED0369C0813F29F48091ED0318160E
:104BE000BCF362C09091EC03823F29F497FF5CC054
:104BF0001092EC0359C0833F19F41916CCF354C03A
:104C0000893F41F48091EE0318160CF04DC01092CC
:104C1000EE034AC08A3F29F48091EE0387FF44C027
:104C2000F6CF8B3F39F48091EF0387FF3DC01092A0
:104C3000EF033AC08C3F29F48091EF031816BCF3C0
:104C400033C0843F21F48091EB038E7F17C0853FF2
:104C500021F48091EB038D7F11C0863F21F4809178
:104C6000EB038B7F0BC0873F21F48091EB03877FA1
:104C700005C0883F31F48091EB038F7E8093EB0376
:104C800013C08D3F21F48091E9038E7F0BC08E3FCE
:104C900021F48091E9038D7F05C08F3F29F4809135
:104CA000E9038B7F8093E9038091EC0381110EC0AF
:104CB0008091ED0381110AC08091EE03811106C03D
:104CC0008091EF03811102C01092EA030895809150
:104CD000E10383FF7EC087EF92E00E943D06809152
:104CE000EB031F928F9382EF92E09F938F930E942A
:104CF000D60680EF92E00E943D068091EC03282FBB
:104D0000082E000C330B3F938F938DEE92E09F9310
:104D10008F930E94D6068BEE92E00E943D06809112
:104D2000ED03282F082E000C330B3F938F9388EE52
:104D300092E09F938F930E94D60686EE92E00E94A7
:104D40003D068091EE03282F082E000C330B3F9375
:104D50008F9383EE92E09F938F930E94D60681EE0D
:104D600092E00E943D068091EF03282F082E000C50
:104D7000330B3F938F938EED92E09F938F930E941E
:104D8000D6068BED92E00E943D068091EA031F92C9
:104D90008F9388ED92E09F938F930E94D60686EDC5
:104DA00092E00E943D068091E9031F928F9383ED6C
:104DB00092E09F938F930E94D60680ED92E00E942E
:104DC0003D068DB79EB74C960FB6F8949EBF0FBEAA
:104DD0008DBF8BEE93E00E9439130E940B219093BC
:104DE000E8038093E70308951F93CF93DF938091A7
:104DF000E7039091E8030E942321AC019091EA031C
:104E0000992321F02091150130E006C02091160170
:104E10008AE0289F900111244217530708F485C0A7
:104E20008091EC03C091ED03D091EE031091EF035C
:104E3000811107C0C11175C0D11173C0111171C0AA
:104E400074C09F3F19F09F5F9093EA03181624F4F3
:104E50000E94F8248093EC038091EC0387FF05C047
:104E60000E94F82481958093EC031C1624F40E9480
:104E7000F8248093ED038091ED0387FF05C00E9425
:104E8000F82481958093ED036091EC03662331F162
:104E9000C091ED03CC2311F1062E000C770B880B8B
:104EA000990B0E94403323E333E343E35FE30E9423
:104EB000A4330E9408336093EC036C2FCC0F770B64
:104EC000880B990B0E94403323E333E343E35FE312
:104ED0000E94A4330E9408336093ED031D1624F44E
:104EE0000E9441258093EE038091EE0387FF05C069
:104EF0000E94412581958093EE03111624F40E94AF
:104F000041258093EF038091EF0387FF05C00E9446
:104F1000412581958093EF03DF91CF911F910C94F0
:104F200067269F3F09F08FCF97CFDF91CF911F91D9
:104F30000895EBEEF3E085E0DF011D928A95E9F735
:104F40001092EA031092E90308958AE195E00E9425
:104F50003D061F9281E08F931F9285E08F938CEC2A
:104F600094E09F938F930E94D6060F900F900F901E
:104F70000F900F900F9008958330E9F128F481305D
:104F800061F0823009F10895853009F462C008F4B7
:104F900049C0863009F474C0089580911601262F07
:104FA00030E0280F311D2F3F310524F4680F609346
:104FB000160103C08FEF80931601809116011F9296
:104FC0008F9385E094E072C080911501262F30E028
:104FD000280F311D2F3F310524F4680F6093150110
:104FE00003C08FEF80931501809115011F928F935D
:104FF00083EF93E05BC080911401262F30E0280FEF
:10500000311D2F3F310524F4680F6093140103C054
:105010008FEF80931401809114011F928F9380EE83
:1050200093E044C080911301262F30E0280F311DFA
:105030002F3F310524F4680F6093130103C08FEFF5
:1050400080931301809113011F928F938BEC93E057
:105050002DC080911201262F30E0280F311D2F3FE7
:10506000310524F4680F6093120103C08FEF809321
:105070001201809112011F928F9382EB93E016C070
:1050800080911101262F30E0280F311D2F3F31056F
:1050900024F4680F6093110103C08FEF8093110116
:1050A000809111011F928F9387E993E09F938F93D3
:1050B0000E94D6060F900F900F900F9008958330A6
:1050C00081F128F4813059F08230D1F00895853093
:1050D00009F449C0B8F1863009F456C008958091AA
:1050E0001601681720F4861B8093160102C01092E7
:1050F0001601809116011F928F9388E893E054C0A7
:1051000080911501681720F4861B8093150102C059
:1051100010921501809115011F928F9386E793E0FD
:1051200043C080911401681720F4861B80931401FA
:1051300002C010921401809114011F928F9383E694
:1051400093E032C080911301681720F4861B80938E
:10515000130102C010921301809113011F928F93CB
:105160008EE493E021C080911201681720F4861B21
:105170008093120102C010921201809112011F92BD
:105180008F9385E393E010C080911101681720F49C
:10519000861B8093110102C01092110180911101B0
:1051A0001F928F938AE193E09F938F930E94D6067C
:1051B0000F900F900F900F900895CF93C82F1F92CC
:1051C0008F938FE196E09F938F930E94D60681E0A4
:1051D00090E0A0E0B0E0BC01CD0104C0660F771FF5
:1051E000881F991FCA95D2F70E94451D0F900F90F6
:1051F0000F900F90CF910C945119CF938B3109F4EC
:1052000009C208F049C08E3009F418C200F5873091
:1052100009F4E7C1A8F4863009F098C28091E1034F
:10522000817F8E7F8093E10384E296E00E943D06B9
:1052300088ED9AE00E943D0681E08093F103CFC1A2
:10524000883009F45BC08B3009F4C5C17FC281315D
:1052500009F464C220F4803109F404C277C28631B3
:1052600009F41BC2893109F071C28CE49AE00E94F2
:105270003D0683E29AE00E943D068EEE99E00E9490
:105280003D0681EC99E00E943D068FE299E00E9484
:105290003D0681E099E0A1C1853309F451C268F46B
:1052A000873209F44DC228F48E3108F44FC28D5173
:1052B0004AC2893209F444C249C2833438F48A3379
:1052C00008F040C2883309F486C140C2833409F42F
:1052D00037C2883409F03AC20E94511987EC9AE02B
:1052E0000E943D069FEF23ED80E3915020408040D7
:1052F000E1F700C000000E94722171C18CED9AE0BC
:105300000E943D068EE598E00E943D060E94DD2445
:105310001F928F938BE598E09F938F930E94D60600
:1053200089E598E00E943D060E94D424C82F86E4B7
:1053300098E00E943D061F92CF9381E498E09F93EE
:105340008F930E94D6068FE398E00E943D0685E386
:1053500098E00E943D068C2F81701F928F9382E30C
:1053600098E09F938F930E94D60680E398E00E9476
:105370003D0686E298E00E943D06C1FB882780F941
:105380001F928F9383E298E09F938F930E94D6069B
:1053900081E298E00E943D0685E198E00E943D068A
:1053A000C2FB882780F91F928F9382E198E09F9338
:1053B0008F930E94D60680E198E00E943D0687E028
:1053C00098E00E943D06C3FBCC27C0F91F92CF9303
:1053D00084E098E09F938F930E94D60682E098E045
:1053E0000E943D060E94E624C82F8EEE97E00E94A0
:1053F0003D061F92CF9389EE97E09F938F930E9473
:10540000D60687EE97E00E943D068EEC97E00E945C
:105410003D068C2F81701F928F938BEC97E09F93AA
:105420008F930E94D6068DB79EB780960FB6F894DC
:105430009EBF0FBE8DBF89EC97E00E943D0682EBB8
:1054400097E00E943D06C1FB882780F91F928F9349
:105450008FEA97E09F938F930E94D6068DEA97E09C
:105460000E943D068BE997E00E943D06C2FB88271B
:1054700080F91F928F9388E997E09F938F930E9402
:10548000D60686E997E00E943D0684E897E00E94F0
:105490003D06C3FB882780F91F928F9381E897E030
:1054A0009F938F930E94D6068FE797E00E943D0658
:1054B00085E797E00E943D06C4FB882780F91F928C
:1054C0008F9382E797E09F938F930E94D60680E7A1
:1054D00097E00E943D068EE597E00E943D06C5FBE1
:1054E000882780F91F928F938BE597E09F938F9386
:1054F0000E94D60689E597E00E943D068DE397E07D
:105500000E943D06C6FB882780F91F928F938AE38D
:1055100097E09F938F930E94D60688E397E00E94BE
:105520003D0680E397E00E943D06C7FBCC27C0F90B
:105530001F92CF938DE297E09F938F930E94D606A0
:105540008BE297E00E943D060E94EF24C82F84E181
:1055500097E00E943D061F92CF938FE097E09F93C4
:105560008F930E94D6068DB79EB780960FB6F8949B
:105570009EBF0FBE8DBF8DE097E00E943D0683E089
:1055800097E00E943D068C2F81701F928F9380E0E0
:1055900097E09F938F930E94D6068EEF96E00E942D
:1055A0003D0685EF96E00E943D06C6951F92CF937B
:1055B00082EF96E09F938F930E94D60680EF96E04D
:1055C0000E943D068DB79EB708960FB6F8949EBF11
:1055D0000FBE8DBF04C08BE496E00E943D06C1E083
:1055E000BAC08091E103C82FC17080FF09C08AEB67
:1055F0009AE00E943D068091E103817F8E7F47C043
:105600008EEA9AE00E943D068091E10381608093DA
:10561000E103E5CF9091E10391FBCC27C0F981E054
:10562000C827892FC0FB81F98093E103CC2319F0AF
:1056300081EA9AE027C083E99AE0CFCF9091E10315
:1056400092FBCC27C0F981E0C827892FC0FB82F9E3
:105650008093E103CC2319F084E89AE013C084E737
:105660009AE0BBCF9091E10393FBCC27C0F981E096
:10567000C827892FC0FB83F98093E103CC2351F025
:1056800088E69AE00E943D068091E1038160809364
:10569000E10361C08BE59AE0A0CF83EF98E00E9420
:1056A0003D060E94E4121F928F9389ED98E09F932C
:1056B0008F930E94D60680910D011F928F9382ECEA
:1056C00098E09F938F930E94D60680917B031F9250
:1056D0008F938FEA98E09F938F930E94D6068091D4
:1056E0000E011F928F938CE998E09F938F930E94F5
:1056F000D6060E9417219F938F937F936F9385E81F
:1057000098E09F938F930E94D6068DB79EB74696DA
:105710000FB6F8949EBF0FBE8DBF61CF0E94511986
:10572000C0910E0181E0C827C0930E01CC2329F05F
:105730008BE798E00E943D060EC080E798E04DCFD1
:1057400080E001C089530E94DD2849CF8EE698E0B1
:105750000E943D06C0E08C2FCF91089580E008950F
:1057600080E00895CF93C82F8091F103813071F0CC
:1057700020F0823009F44BC042C1E0910F01F0915A
:1057800010018081823209F03CC107C0E0910F0115
:10579000F09110018081823261F48C2F0E94AE2B37
:1057A000811104C08C2F0E94FD282FC081E090E061
:1057B0002CC08C2F0E94B02B811126C0C431E1F087
:1057C00070F4CB3081F0C031D1F40E94A52787E17D
:1057D00096E00E943D0682E08093F10315C0C93235
:1057E00059F0C83361F484E296E00E943D068BE1F3
:1057F00096E00E943D0608C01092F10304C185E1C5
:1058000096E00E943D06FFC081E08170FEC0C43278
:1058100028F5CE3108F0C1C0CB30A1F1D0F4C730AB
:1058200009F0D3C08EE18093160182E380931501C5
:105830008AE08093140184E18093130188E08093CF
:10584000120188E2809311018BEB94E00E943D06E7
:10585000BFC0C33149F1C431C1F0B7C0CB3409F482
:10586000A9C028F4C93289F0C83361F0AEC0C1358F
:1058700009F49EC0C23509F499C0CE3409F0A5C020
:105880006AE09EC00E94A527A3C08091F0038823F0
:1058900019F01092F0039CC088EC94E00E943D0641
:1058A00081E08093F103B1C082EA94E00E943D065A
:1058B00080E994E00E943D06809116011F928F932B
:1058C0008DE894E09F938F930E94D6068BE894E036
:1058D0000E943D0689E794E00E943D0680911501F3
:1058E0001F928F9386E794E09F938F930E94D60632
:1058F00084E794E00E943D0685E694E00E943D0620
:10590000809114011F928F9382E694E09F938F936E
:105910000E94D60680E694E00E943D068FE494E063
:105920000E943D06809113011F928F938CE494E0B6
:105930009F938F930E94D6068AE494E00E943D06CE
:1059400085E394E00E943D06809112011F928F939F
:1059500082E394E09F938F930E94D60680E394E0C5
:105960000E943D0689E194E00E943D06809111016C
:105970001F928F9386E194E09F938F930E94D606A7
:1059800084E194E00E943D068DB79EB748960FB61D
:10599000F8949EBF0FBE8DBF1BC0CE51EC2FF0E020
:1059A000E65EFC4F80818093F00312C061E003C08B
:1059B00061E006C06AE08091F0030E94BC2708C045
:1059C0008091F0030E945F2803C089EB94E013C02C
:1059D0008091F003882369F01F928F9383EB94E00A
:1059E0009F938F930E94D6060F900F900F900F9069
:1059F00004C080EB94E00E943D0681E006C0109256
:105A0000F10380E002C080E000CFCF910895E1E88B
:105A1000F0E08081886080838081816080838FB79F
:105A2000F89493E0909389009DE0909388008FBF55
:105A30000C948A31EFE6F0E080818260808381E01F
:105A400080930E040C94A531EFE6F0E080818D7F09
:105A5000808310920E0480E00E94983181E00E94C1
:105A6000983182E00E94983183E00E9498318091C1
:105A70000E040C94A53180910D048F6080930D0469
:105A8000089510920D0480E00E94983181E00E94F8
:105A9000983182E00E94983183E00E949831809191
:105AA0000E040C94A531E5E0F4E0808381838283C9
:105AB00083830895E82FF0E0EB5FFB4F2081422FB6
:105AC00050E08FEF90E0861B9109841795071CF436
:105AD0008FEF80830895620F60830895E82FF0E0D0
