:100000000C940E060C9452060C9452060C94520654
:100010000C9452060C9452060C9452060C94520600
:100020000C9452060C9452060C9440100C9412112D
:100030000C94A1200C9452060C9452060C94520677
:100040000C9452060C946D2D0C9452060C9452068E
:100050000C9452060C9414210C9452060C945206E3
:100060000C9452060C9452060C9452060C945206B0
:100070000C9452060C9452060C9452060C945206A0
:100080000C9452060C9452060C9452060C94520690
:100090000C9452060C9452060C9452060C94520680
:1000A0000C9452060C9452060C9452061F08210818
:1000B00027082C08300835083B083B083B083B085C
:1000C0003B083B083B08721192114A1292114A12E6
:1000D000D411F7114A1219122C1288158815B61569
:1000E000B61512164E16B318B3186616B3185D1768
:1000F0005D1719182D18B318A118F1A1F1A1F1A1DC
:10010000F1A1351E1F2021222D2E23242526273440
:100110002B141A081517C0C11C180C1213313904FE
:100120001607090A00000B0D0E0F3328E11D1B06F0
:100130001905C2C31110363738E5E0E3E2504F002D
:1001400000000052512F30E4004D2A2C4A29494C1E
:10015000E64B282B4E0001010101010101010101C3
:10016000010101010101010101010101010101017F
:100170000101010101010101000001010101010171
:10018000010101010101010101010101010101015F
:100190000101010000000001010101010001010154
:1001A000010101010101010101000A002530333282
:1001B0006C62003A200025303258000A722F63200A
:1001C000303132333435363738394142434445468D
:1001D0000A000A002530386200626F756E6365217F
:1001E0003A20003D3D3D3D3D3D3D3D3D3D3D3D3D9C
:1001F0003D3D3D3D3D3D3D3D3D3D3D3D0A00536363
:10020000616E3A2025750A003D3D3D3D3D3D3D3D39
:10021000203173207461736B203D3D3D3D3D3D3D7C
:100220003D0A00001080FF000301030203010202E7
:10023000026932632074696D656F75740A00256404
:100240000A0064657461636865640A0061747461BE
:10025000636865640A00657870616E646572207316
:1002600074617475733A202564202E2E2E20005B55
:10027000735D004B6579626F6172642073746172A3
:10028000742E0A0055534220636F6E66696775725B
:1002900065642E0A005B575D005B535D005B525D39
:1002A000005B445D005B435D000A0025303258204E
:1002B000006B6579626F6172645F7265706F7274F2
:1002C0003A20004C45443A20253032580A006465F3
:1002D0006C5F6B65795F6269743A2063616E277445
:1002E0002064656C3A20253032580A006164645FEE
:1002F0006B65795F6269743A2063616E277420616F
:1003000064643A20253032580A00646F6E652E0A04
:1003100000626F6F746D61676963207363616E3A29
:10032000202E2E2E2000290A002575002F0025756D
:10033000005D28002564002000256400200025645D
:100340000020002564007C0025303258006D6F7558
:1003500073656B6579205B62746E7C78207920769A
:1003600020685D287265702F61636C293A205B00FC
:100370006D6B5F776865656C5F74696D655F746FE1
:100380005F6D6178203D2025640A006D6B5F7768A2
:1003900065656C5F6D61785F7370656564203D2095
:1003A00025640A006D6B5F74696D655F746F5F6DC6
:1003B0006178203D2025640A006D6B5F6D61785F78
:1003C0007370656564203D2025640A006D6B5F696C
:1003D0006E74657276616C203D2025640A006D6B39
:1003E0005F64656C6179203D2025640A006D6B5F58
:1003F000776865656C5F74696D655F746F5F6D616B
:1004000078203D2025640A006D6B5F776865656C18
:100410005F6D61785F7370656564203D2025640AB7
:10042000006D6B5F74696D655F746F5F6D617820DF
:100430003D2025640A006D6B5F6D61785F737065A8
:100440006564203D2025640A006D6B5F696E7465EC
:100450007276616C203D2025640A006D6B5F6465D7
:100460006C6179203D2025640A000A00257500365C
:100470003A20776865656C5F74696D655F746F5F5E
:100480006D61783A20000A00257500353A207768BA
:1004900065656C5F6D61785F73706565643A2000B7
:1004A0000A00257500343A2074696D655F746F5FCA
:1004B0006D61783A20000A00257500333A206D619D
:1004C000785F73706565643A20000A002575003214
:1004D0003A20696E74657276616C286D73293A20D2
:1004E000000A00257500313A2064656C6179282A7C
:1004F00031306D73293A20000A092D2056616C7540
:100500006573202D0A004D3E004D25643E20003FBE
:10051000007365742064656661756C740A00433EFF
:10052000200077686572652064656C74613A2063A9
:100530007572736F723D25642C20776865656C3D1C
:1005400025640A53656520687474703A2F2F656EB0
:100550002E77696B6970656469612E6F72672F779A
:10056000696B692F4D6F7573655F6B6579730A00F1
:100570000A092D204D6F7573656B6579202D0A452D
:1005800053432F713A09717569740A313A096465E8
:100590006C6179282A31306D73290A323A09696E03
:1005A00074657276616C286D73290A333A096D613E
:1005B000785F73706565640A343A0974696D655FC4
:1005C000746F5F6D61780A353A09776865656C5FAD
:1005D0006D61785F73706565640A363A097768659E
:1005E000656C5F74696D655F746F5F6D61780A0A31
:1005F000703A097072696E742076616C7565730A61
:10060000643A097365742064656661756C74730A75
:1006100075703A092B310A646F776E3A092D310AE9
:10062000706775703A092B31300A7067646F776EA6
:100630003A092D31300A0A7370656564203D2064E3
:10064000656C7461202A206D61785F7370656564E4
:10065000202A2028726570656174202F2074696DCE
:10066000655F746F5F6D6178290A003F004D3E2021
:1006700000433E20004C25640A000A092D20436FE8
:100680006E736F6C65202D0A4553432F713A0971C3
:100690007569740A6D3A096D6F7573656B65790AD2
:1006A000000A092D204D61676963202D0A643A090B
:1006B00064656275670A783A096465627567206DDA
:1006C00061747269780A6B3A096465627567206BB8
:1006D0006579626F6172640A6D3A09646562756773
:1006E000206D6F7573650A763A0976657273696F66
:1006F0006E0A733A097374617475730A633A096315
:100700006F6E736F6C65206D6F64650A302D343ABF
:10071000096C61796572302D34284631302D4634AC
:10072000290A506175733A09626F6F746C6F616466
:1007300065720A653A09656570726F6D0A6E3A09ED
:100740004E4B524F0A000A002575002E6C657665E7
:100750006C3A20000A002575002E656E61626C659A
:100760003A20000A0025303258006261636B6C69E0
:100770006768745F636F6E6669672E7261773A208F
:10078000000A002575002E6E6B726F3A20000A0079
:100790002575002E737761705F6261636B736C61A6
:1007A00073685F6261636B73706163653A20000A0E
:1007B000002575002E737761705F67726176655FE3
:1007C0006573633A20000A002575002E6E6F5F671F
:1007D00075693A20000A002575002E737761705FF5
:1007E00072616C745F726775693A20000A00257542
:1007F000002E737761705F6C616C745F6C677569F4
:100800003A20000A002575002E636170736C6F63D7
:100810006B5F746F5F636F6E74726F6C3A20000A67
:10082000002575002E737761705F636F6E74726F51
:100830006C5F636170736C6F636B3A20000A002514
:10084000303258006B65796D61705F636F6E6669F9
:10085000672E7261773A20000A002575002E6D6FB1
:100860007573653A20000A002575002E6B65796264
:100870006F6172643A20000A002575002E6D617464
:100880007269783A20000A002575002E656E616253
:100890006C653A20000A00253032580064656275A4
:1008A000675F636F6E6669672E7261773A20000A30
:1008B0000025750064656661756C745F6C617965AF
:1008C000723A20003F004E4B524F3A206F66660A44
:1008D000004E4B524F3A206F6E0A0074696D65727C
:1008E0005F72656164333228293A202530346C58B0
:1008F0000A006B6579626F6172645F6E6B726F3A4A
:100900002025580A006B6579626F6172645F6964C3
:100910006C653A2025580A006B6579626F617264D4
:100920005F70726F746F636F6C3A2025580A0068AD
:100930006F73745F6B6579626F6172645F6C65641D
:100940007328293A2025580A000A092D205374617A
:10095000747573202D0A004743433A20342E382EF5
:1009600032204156522D4C4942433A20312E382EE6
:1009700030204156525F415243483A2061767235E9
:100980000A004F5054494F4E533A204C554641208F
:10099000424F4F544D41474943204D4F5553454BCE
:1009A00045592045585452414B455920434F4E53C9
:1009B0004F4C4520434F4D4D414E44204E4B524FDE
:1009C000204B45594D41505F494E5F454550524F70
:1009D0004D204C45444D4150204C45444D41505FC5
:1009E000494E5F454550524F4D204241434B4C4983
:1009F00047485420534F465450574D5F4C45442070
:100A0000425245415448494E475F4C45442034309A
:100A100039360A004255494C443A203563653962FB
:100A200066382D6469727479202831303A35333A4A
:100A30003139205365702031352032303136290A62
:100A4000005649443A20307831323039284B2E5400
:100A50002E452E432E29205049443A2030783233F7
:100A60003238284572676F446F6E652920564552AB
:100A70003A203078303330310A00444553433A202D
:100A8000742E6D2E6B2E206B6579626F61726420FF
:100A90006669726D7761726520666F722045726754
:100AA0006F446F6E650A000A092D205665727369DE
:100AB0006F6E202D0A000A6D6F7573653A206F66A0
:100AC000660A000A6D6F7573653A206F6E0A000A38
:100AD0006B6579626F6172643A206F66660A000A1C
:100AE0006B6579626F6172643A206F6E0A000A6DFD
:100AF00061747269783A206F66660A000A6D6174E3
:100B00007269783A206F6E0A000A64656275673A06
:100B1000206F6E0A000A64656275673A206F666628
:100B20000A000A0A626F6F746C6F616465722E2E20
:100B30002E2000433E20006565636F6E6669673A4C
:100B40000A00000000000000000000000101010296
:100B500002020303040405050606070808090A0B38
:100B60000B0C0D0E0F10111213151617191A1B1D51
:100B70001E2022232527292B2D2F313335383A3DAE
:100B80003F4244474A4D505356595C5F6266696C18
:100B90007074777B7E82868A8E9195999DA1A5A996
:100BA000ADB0B4B8BCC0C3C7CBCED2D5D8DBDFE2C2
:100BB000E4E7EAECEFF1F3F5F7F8FAFBFCFDFEFFF2
:100BC000FFFF6261636B6C696768742073746570A2
:100BD0003A2025750A006261636B6C69676874204E
:100BE000746F67676C653A2025750A006261636BF4
:100BF0006C696768742064656372656173653A2027
:100C000025750A006261636B6C6967687420696EA0
:100C10006372656173653A2025750A0011241FBE51
:100C2000CFEFDAE0DEBFCDBF04B603FE24C0809173
:100C30006C0490916D04A0916E04B0916F048730A4
:100C4000904BA740B04BB9F410926C0410926D0415
:100C500010926E0410926F0414BE84B7877F84BF15
:100C600088E10FB6F89480936000109260000FBE88
:100C7000E0E0F8E3099513E0A0E0B1E0E2E4F8E693
:100C800002C005900D92AA32B107D9F714E0AAE28A
:100C9000B3E001C01D92AC36B107E1F70E94010E2E
:100CA0000C941F340C940000FF93EF93E0912A03FF
:100CB000F0912B03309709F00995EF91FF9108957A
:100CC000FC018591803011F0EFDFFBCF0895FF2705
:100CD000E0E230E247FF0CC0419597FF09C0EDE22A
:100CE0006095709580959095611D711D811D911D78
:100CF00027FF02C0219530E350E2AA27660F771F35
:100D0000881F991FAA1FA41710F0A41B63955A955A
:100D1000A9F7AA3008F0A95FA05DAF93F39561151C
:100D200071058105910541F7ED3211F4EF93F395CB
:100D3000F21718F43F93F395FBCF8F91B5DFFA9537
:100D4000E1F70895E991F9918591803021F085329C
:100D500019F0AADFF9CF089520E0E89455915532B3
:100D6000C1F3503311F4689455915A3348F45053F9
:100D700090F3220F022E220F220F200D250FF4CF09
:100D80000EF4219589919991533619F3533729F12E
:100D9000533559F1BC0188279927E8945C3621F432
:100DA0008991999168945591543639F446EF7EF0C3
:100DB00077FF0DC08FEF9FEF0AC055374AE039F03B
:100DC000583540E121F0523642E009F00895FF9392
:100DD000EF937DDFEF91FF91B7CFFF93EF93FC018E
:100DE00081918030B9F360DFFBCFFF93EF9368DF31
:100DF000F1CFDF93CF93CDB7DEB72596A3DFCF91A9
:100E0000DF91089588EA90E0089584E090E00895E5
:100E1000462F672F0C94E331805C0E94D7310895F0
:100E200082E091E008958AEF90E0089580B38F709A
:100E300080BB81B38F7081BB84B1897F84B985B158
:100E4000897F85B90C94DE0A86E008958EE00895C6
:100E5000EF92FF920F931F93CF93DF9380E885BFAC
:100E600085BF0E94CA208FE99FE00197F1F700C07B
:100E700000000E94D32090932D0380932C030E94A6
:100E800016076E98769A8AB183768AB98BB18C6987
:100E90008BB93E98469A24982C9A0E944F0BCFE823
:100EA000D3E082E8E82E83E0F82E0EE213E01992F8
:100EB000199210928E030E94D320F701819391938F
:100EC0007F0180E090E0F801E80FF91F10820196A1
:100ED0008E309105C1F7025F1F4FF3E0CB39DF077A
:100EE00031F7DF91CF911F910F91FF90EF9008950F
:100EF0008F929F92AF92BF92CF92DF92EF92FF922A
:100F00000F931F93CF93DF9380912C0390912D0328
:100F10000E94EB20883E9340A0F180911B0480FF4B
:100F200008C088E092E09F938F930E94F9060F908B
:100F30000F9080911B0480FF10C080912D038F9330
:100F400080912C038F938EEF91E09F938F930E945B
:100F5000F9060F900F900F900F900E94D32090935E
:100F60002D0380932C030E94F90A80911B0480FFBB
:100F700008C083EE91E09F938F930E94F9060F9033
:100F80000F90E0918E03F0E0EE0FFF1FEE57FC4F45
:100F9000808191810E94EB204C01009709F403C1EC
:100FA000C0918E03D0E00E94D320FE01EE0FFF1F00
:100FB000EE57FC4F9183808380918E03823099F0AD
:100FC00038F4882369F08130B1F4859A8D9813C084
:100FD000843079F058F0853071F4229A2A980BC049
:100FE000849A8C9808C0869A8E9805C0879A8F98A4
:100FF00002C0219A29980E94E20A80EA8A95F1F7B4
:101000000E947C0BC0E0D0E0BB24B3944DE0942E52
:101010005EE0A52EEE24E394F12C04ED11E0C090E7
:101020008E03D12C4C2F50E0FA013197ED30F105B1
:1010300020F4EA5AFF4F0C94D43383B10EC08CB124
:1010400007C089B18095881F8827881F19C086B17D
:1010500086FB882780F90DC089B18295817009C00F
:1010600089B182FB882780F904C089B183FB882776
:1010700080F98B2505C0992D9C1B892F0E94AA0AF7
:10108000AC9CF001AD9CF00D1124EC0FFD1FE25D56
:10109000FC4F408120E030E0440F482B2F5F3F4F52
:1010A0008212FACFAC9CF001AD9CF00D1124EC0F34
:1010B000FD1FE25DFC4F4083E0918E03F0E0C7012D
:1010C0000C2E02C0880F991F0A94E2F7242F2F716B
:1010D0002F30C9F040F42130B1F018F1233099F0ED
:1010E000273089F510C02C3109F456C038F420316E
:1010F00009F452C0283109F44FC025C02E3109F43B
:101100004BC02F3101F5EE0FFF1FE157FC4F20813F
:101110003181AC0142235323452BF1F5822B932BD4
:101120000FC0EE0FFF1FE157FC4F20813181AC0152
:1011300042235323452B81F180959095822393235D
:101140009183808329C080911B0480FF04C089EDB6
:1011500091E00E94600680911B0480FF15C0AC9C4A
:10116000F001AD9CF00D1124EC0FFD1FE25DFC4F72
:1011700080818F711F928F931F930F930E94F906A6
:101180000F900F900F900F9080911B0480FF04C070
:1011900082ED91E00E9460062196CE30D10509F0E3
:1011A0003ECF0E94160780918E038F5F863018F421
:1011B00080938E0302C010928E0381E0DF91CF9165
:1011C0001F910F91FF90EF90DF90CF90BF90AF9065
:1011D0009F908F900895E82FF0E0EE0FFF1FE157EA
:1011E000FC4F808191810895CF92DF92EF92FF9220
:1011F0000F931F93CF93DF938BEB91E00E946006D8
:101200009FE8E92E93E0F92EC0E0D0E026EBC22E55
:1012100021E0D22E0CEA11E0DF93CF93DF92CF9240
:101220000E94F90683EB91E00E946006F70161914C
:1012300071917F0180E090E00E942B209F938F931B
:101240007F936F931F930F930E94F9068AEA91E0B0
:101250000E94600621968DB79EB70A960FB6F89445
:101260009EBF0FBE8DBFC630D105B1F6DF91CF91C5
:101270001F910F91FF90EF90DF90CF900895CF9343
:10128000C82F0E94D72CC730A0F4C430F0F4C1306E
:10129000A0F10E94F52C0E943B2D0E94672DEC2F9F
:1012A000F0E0ED5DFD4F849180935D04CF910C944F
:1012B0000A2DC730A9F0C83001F50E94F52C0E9414
:1012C000352D0E94672D81E012C00E94F52C0E94EE
:1012D0003B2D0E94612D86E08C1BCF910C946A2DD2
:1012E0000E94F52C0E94352D0E94672D80E00E94FF
:1012F000502D83E0CF910C945E2D0E943B2D0E94D7
:10130000672D10925D0480E00E940A2DCF910C940D
:10131000FB2CE82FF0E0EE0FFF1FE95DFD4F8591FC
:101320009491089584B1886684B985B1877985B927
:10133000209A289A559A5D9A0895823079F028F477
:10134000882341F0813041F00895833049F08430A2
:1013500049F008952D9A08952E9A08952B9A08958C
:10136000289808955D980895823079F028F48823AC
:1013700041F0813041F00895833049F0843049F0E4
:1013800008952D9808952E9808952B980895289AD9
:1013900008955D9A089581E392E09F938F930E9450
:1013A000F9061092BC00509A519880EA8A95F1F79C
:1013B0000F900F90499B05C0509884E98093BC0022
:1013C000089589E0589895E09A95F1F70000589AA9
:1013D00095E09A95F1F700008150A1F7EDCF1092BA
:1013E000B9008CE08093B80008951F93CF93DF93EA
:1013F000182F84EA8093BC0091E08091BC0087FDA7
:1014000012C0992321F00E94D320EC010AC0CE0122
:101410000E94EB20883B9B4020F00E94CB0982E099
:101420002BC090E0EACF9091B900987F983021F0DE
:10143000903111F081E020C01093BB0084E88093CC
:10144000BC0081E09091BC0097FD0EC0882321F084
:101450000E94D320EC0106C0CE010E94EB20883B05
:101460009B40D8F680E0EECF8091B900887F88312C
:1014700011F08034F9F680E0DF91CF911F9108954B
:101480000C94F509CF93DF9384E98093BC0081E04D
:101490009091BC0094FF12C0882321F00E94D320B9
:1014A000EC010AC0CE010E94EB20883B9B4020F05B
:1014B000DF91CF910C94CB0980E0EACFDF91CF91FF
:1014C0000895CF93DF938093BB0084E88093BC00A2
:1014D00081E09091BC0097FD12C0882321F00E940A
:1014E000D320EC010AC0CE010E94EB20883B9B4038
:1014F00020F00E94CB0982E009C080E0EACF909101
:10150000B900987F81E0983209F480E0DF91CF91B3
:101510000895CF93DF9384E88093BC0081E090919D
:10152000BC0097FD12C0882321F00E94D320EC015B
:101530000AC0CE010E94EB20883B9B4020F00E9415
:10154000CB0982E004C080E0EACF8091BB00DF914C
:10155000CF910895853008F08F5F20919B0330E094
:1015600002C0359527958A95E2F7822F81700895FC
:101570000F931F93CF93DF931F92CDB7DEB7182F32
:10158000062F80919C03882391F080E40E94F50946
:10159000811108C0812F0E94610A811103C0802F30
:1015A0000E94610A89830E94420A898101C080E009
:1015B0000F90DF91CF911F910F9108956FEF81E010
:1015C0000C94B80A8F5F61E070E001C0660F8A95E5
:1015D000EAF7609581E00C94B80A6FEF82E00E9410
:1015E000B80A6FEF8CE00E94B80A6FEF81E00C94AC
:1015F000B80A80911B0480FF0EC080919C031F924B
:101600008F9386E592E09F938F930E94F9060F9047
:101610000F900F900F9080E40E94F509811118C07F
:101620000E94420A80919C03811126C080911B0474
:1016300080FF08C08CE492E09F938F930E94F9068C
:101640000F900F9081E080939C030E94ED0A12C0DE
:1016500080919C03813081F480911B0480FF08C03D
:1016600082E492E09F938F930E94F9060F900F906F
:1016700010929C030E94D41880911B0480FF0EC01E
:1016800080919C031F928F938EE392E09F938F93A0
:101690000E94F9060F900F900F900F9008950E94EE
:1016A000EF090C94F90A0F931F93CF93DF93082F40
:1016B000EB0180919C038823C9F080E40E94F50926
:1016C000182F81110FC0802F0E94610A182F8111DD
:1016D00009C081E40E94400A182F811103C00E94B2
:1016E000890A88830E94420A812F01C080E0DF912D
:1016F000CF911F910F9108956BE973E082E10C94F3
:10170000530B8091B00308959FB7F89410929F03F4
:101710009FBF90916104943009F058C09091E90006
:101720009F702091EC0020FF02C020E801C020E063
:10173000292B94E09093E9009091EB0090FF43C037
:101740009091EE0097FF3FC090919D03992321F067
:101750009091E80095FF37C010929D0396E030917C
:10176000E80035FD15C030916104343061F53091E9
:10177000EB0035FD28C0915021F481E080939D035A
:1017800022C0EFE9FFE03197F1F700C00000E7CF9A
:101790008093F1008091E80085FD0AC08091E80007
:1017A00080FFFCCF8091E8008E778093E80006C030
:1017B0008FB7F89491E090939F038FBF2F70209381
:1017C000E90080E008952F702093E9008FEF0895DD
:1017D000CF93DF9300D01F92CDB7DEB72091610485
:1017E000243019F523E029839B838A832093E90021
:1017F0008FEF9091E800815095FD06C095ED9A9588
:10180000F1F700008111F5CF8091E80085FF0DC050
:1018100040E050E063E070E0CE0101960E94B80E17
:101820008091E8008E778093E8000F900F900F90E2
:10183000DF91CF910895CF93DF9300D01F92CDB762
:10184000DEB720916104243021F522E029839B83B7
:101850008A8383E08093E9008FEF9091E8008150C4
:1018600095FD06C095ED9A95F1F700008111F5CF31
:101870008091E80085FF0DC040E050E063E070E03B
:10188000CE0101960E94B80E8091E8008E77809379
:10189000E8000F900F900F90DF91CF910895209165
:1018A00061042430F1F422E02093E9002FEF30911D
:1018B000E800215035FD06C035ED3A95F1F70000FE
:1018C0002111F5CF2091E80025FF0BC040E050E04A
:1018D00065E070E00E94B80E8091E8008E778093FA
:1018E000E8000895CF93DF93EC0180916104843088
:1018F00009F047C080910A018823E1F080910B0133
:101900008823C1F085E08093E9008FEF9091E80093
:10191000815095FD06C095E19A95F1F7000081117F
:10192000F5CF8091E80085FF2CC040E050E060E1F9
:1019300070E017C081E08093E9008FEF9091E8009C
:10194000815095FD06C095ED9A95F1F70000811143
:10195000F5CF8091E80085FF14C040E050E068E0DA
:1019600070E0CE010E94B80E8091E8008E778093DF
:10197000E80080E1FE01A0EAB3E001900D928A95B3
:10198000E1F7DF91CF91089585EA92E00E94600629
:1019900080916004811109C00E94C70F0E9422102B
:1019A0008091E20084608093E200089581EA92E0F1
:1019B0000E9460061092600408958DE992E00C94F4
:1019C000600680919E038F5F80939E0362E30E9476
:1019D000B433911135C010929E0380919F038823E8
:1019E00079F180916104843049F58091E9008F702C
:1019F0009091EC0090FF02C090E801C090E0982B1D
:101A000084E08093E9008091EB0080FF14C0809116
:101A1000EE0087FF10C08091E80085FF03C01092A0
:101A2000F100F9CF8091E80080FF05C08091E800C7
:101A30008E778093E8009F709093E90010929F0347
:101A4000089542E061EC81E00E94620F42E061ECA7
:101A500082E00E94620F42E061EC83E00E94620F2C
:101A600042E261EC84E00E94620F42E161EC85E0B9
:101A70000C94620F80916304833009F455C030F4F4
:101A8000813071F0823009F48EC008958A3009F4F3
:101A90007AC08B3009F460C0893009F09CC020C046
:101AA00080916204813A09F096C08091E800877FB6
:101AB0008093E8008091660490916704892B21F05F
:101AC00060E080E090E003C060E180EA93E070E0D5
:101AD0000E94010F8091E8008B778093E8000895C1
:101AE00080916204813209F076C080916604909101
:101AF0006704009719F0049709F06DC08091E80021
:101B0000877F8093E8008091E80082FD05C0809186
:101B100061048111F8CF5FC08091F1008093B00320
:101B20008091E8008B7753C080916204813A09F07C
:101B300052C08091660490916704892B09F04BC0D4
:101B40008091E800877F8093E8008091E80080FF23
:101B5000FCCF80910A0136C0809162048132D9F5B0
:101B60008091660490916704892BA9F58091E80023
:101B7000877F8093E8000E94760F809164048093B1
:101B80000A010C94D41880916204813221F580916D
:101B9000E800877F8093E8000E94760F80916504BB
:101BA0008093B103089580916204813AA1F48091F9
:101BB000E800877F8093E8008091E80080FFFCCFF9
:101BC0008091B1038093F1008091E8008E7780933B
:101BD000E8000C94760F089508950895089589E912
:101BE00092E00E9460060C94EE0D0E945E208091AF
:101BF0005F04882329F00E94882081110C94A20E92
:101C0000089584B7877F84BF88E10FB6F8948093E6
:101C10006000109260000FBE90E080E80FB6F8946C
:101C200080936100909361000FBE0E94EC0D0E94B2
:101C3000EC120E94C70F0E9422108091E200846083
:101C40008093E20084E89BE00E94FA1F78948091E0
:101C500061048430E1F784E892E00E9460060E940B
:101C6000EE1280E091E00E945E1283E792E00E9413
:101C700060060E94ED0D80916104853039F48FE695
:101C800092E00E9460060E94F50DF5CF0E94FE12C0
:101C9000F2CF0C949D2085E992E00E9460060C949E
:101CA000490E292F33272330310599F05CF4213078
:101CB0003105D9F122303105E9F58DE890E022E6D1
:101CC00031E03CC02132310599F022323105E9F092
:101CD00031C099278330910568F5FC01EE0FFF1F95
:101CE000E05DFE4F20813181FC01E35DFE4F1AC0B3
:101CF000653000F5E62FF0E0EE0FFF1FED5DFE4FC3
:101D00002081318189E090E019C0653098F4E62F98
:101D1000F0E0DF01AA0FBB1FA75EBE4F2D913C91E3
:101D2000EC5EFE4F808190E009C082E190E02FEEF2
:101D300031E004C080E090E020E030E0FA0131833F
:101D40002083089580E189BD82E189BD09B400FE48
:101D5000FDCF8091D8008F7D8093D8008091E000E6
:101D600082608093E0008091E00081FDFCCF0895C7
:101D7000CF92DF92EF92FF920F931F93CF93DF9357
:101D80007C018B01EA010E94970F811131C02097DD
:101D900031F088819981081B190BE80EF91EC12CBE
:101DA000D12C0115110519F18091E80085FD14C0B1
:101DB0008091E8008E778093E800209741F0888139
:101DC00099818C0D9D1D9983888385E011C00E94A7
:101DD000970F882331F30CC0F70181917F01809325
:101DE000F10001501109FFEFCF1ADF0ADACF80E0CE
:101DF000DF91CF911F910F91FF90EF90DF90CF90E7
:101E0000089520916804309169042617370748F037
:101E10006115710539F42091E8002E772093E800D0
:101E200001C0B901FC0120E061157105B9F1809193
:101E30006104882309F440C0853009F43FC08091D3
:101E4000E80083FD3DC08091E80082FF06C08091DC
:101E5000E80082FF26C080E008958091E80080FFBE
:101E6000E3CF2091F3008091F20090E0922B611576
:101E7000710551F08830910538F421912093F100DB
:101E8000615071090196F3CF21E0089709F020E035
:101E90008091E8008E778093E800C6CF2111C7CFEC
:101EA000D6CF80916104882339F0853039F0809154
:101EB000E80083FFCCCF04C082E0089583E008955A
:101EC00081E008958F708093E900EBEEF0E080816F
:101ED00081608083EDEEF0E010826093EC0040833F
:101EE0008091EE00881F8827881F089580916204E2
:101EF00087FD05C08091E80080FF0EC012C0809170
:101F0000E80082FD05C0809161048111F8CF089539
:101F10008091E8008B7708C0809161048111EACF3D
:101F200008958091E8008E778093E800089580916D
:101F3000E4009091E50045E62091EC0020FF21C0EF
:101F40002091E80020FD21C020916104222389F026
:101F5000253089F02091EB0025FD0FC02091E40091
:101F60003091E5002817390739F3415041F0C90194
:101F7000E3CF82E0089583E0089581E0089584E04E
:101F800008952091E80022FFDFCF80E008950E94AD
:101F900033100E943B10E0EEF0E08081816080838E
:101FA000E8EDF0E080818F77808319BCA7EDB0E089
:101FB0008C918E7F8C9380818F7E808310926004C1
:101FC00008950F931F93CF93DF930E9433100E94C5
:101FD0003B10C8EDD0E088818F7788838881806846
:101FE000888388818F7D888319BC10926104109248
:101FF0005E0410925F0400EE10E0F80180818B7F98
:10200000808388818160888342E060E080E00E9474
:10201000620FE1EEF0E080818E7F8083E2EEF0E0FF
:10202000808181608083808188608083F8018081E5
:102030008E7F8083888180618883DF91CF911F911B
:102040000F910895E8EDF0E080818F7E8083E7EDC9
:10205000F0E080818160808384E082BF81E08093B2
:1020600060040C94E10FE8EDF0E080818E7F8083C6
:102070001092E20008951092DA001092E1000895A3
:102080001F920F920FB60F9211242F933F934F93ED
:102090005F936F937F938F939F93AF93BF93EF93D0
:1020A000FF938091E10082FF0BC08091E20082FFEC
:1020B00007C08091E1008B7F8093E1000E94E10CDA
:1020C0008091DA0080FF1FC08091D80080FF1BC084
:1020D0008091DA008E7F8093DA008091D90080FFB2
:1020E0000DC080E189BD82E189BD09B400FEFDCF4C
:1020F00081E0809361040E94C40C05C019BC109259
:1021000061040E94D60C8091E10080FF19C080918B
:10211000E20080FF15C08091E2008E7F8093E20094
:102120008091E20080618093E2008091D80080621B
:102130008093D80019BC85E0809361040E94EF0D64
:102140008091E10084FF30C08091E20084FF2CC0C8
:1021500080E189BD82E189BD09B400FEFDCF809197
:10216000D8008F7D8093D8008091E1008F7E80938E
:10217000E1008091E2008F7E8093E2008091E20096
:1021800081608093E20080915E04882311F084E0F6
:1021900007C08091E30087FF02C083E001C081E0B7
:1021A000809361040E944B0E8091E10083FF29C05F
:1021B0008091E20083FF25C08091E100877F8093BA
:1021C000E10082E08093610410925E048091E1005E
:1021D0008E7F8093E1008091E2008E7F8093E20009
:1021E0008091E20080618093E20042E060E080E064
:1021F0000E94620F8091F00088608093F0000E943E
:10220000DD0CFF91EF91BF91AF919F918F917F91E5
:102210006F915F914F913F912F910F900FBE0F9053
:102220001F9018951F920F920FB60F9211242F93A3
:102230003F934F935F936F937F938F939F93AF934E
:10224000BF93CF93EF93FF93C091E900CF7080913C
:10225000EC001092E9008091F000877F8093F000FD
:1022600078940E944E111092E9008091F0008860ED
:102270008093F000C093E900FF91EF91CF91BF915F
:10228000AF919F918F917F916F915F914F913F910E
:102290002F910F900FBE0F901F9018951F93CF9303
:1022A000DF9300D0CDB7DEB7E2E6F4E08091F10035
:1022B000819384E0EA36F807C9F70E943A0D8091CD
:1022C000E80083FFE7C02091620430916304832F0C
:1022D00090E08A30910508F0DDC0FC01ED59FF4F18
:1022E0000C94D433203881F0223809F0D3C0809187
:1022F00066048F708093E9008091EB0085FB88274E
:1023000080F91092E90004C080915F04811182E09D
:102310009091E800977F9093E8008093F1001092ED
:10232000F10092C0822F8D7F09F0B4C0222319F0F2
:10233000223061F0AFC080916404813009F0AAC0FE
:10234000333009F080E080935F0428C080916404FA
:10235000811124C0209166042F7009F49BC0209342
:10236000E9008091EB0080FF19C08091EB003330D1
:1023700011F4806211C080618093EB0081E090E0F5
:10238000022E01C0880F0A94EAF78093EA001092A7
:10239000EA008091EB0088608093EB001092E900E6
:1023A0008091E800877F53C0211174C010916404AC
:1023B0001F778091E3008078812B8093E3008091E8
:1023C000E800877F8093E8000E94760F8091E80004
:1023D00080FFFCCF8091E30080688093E3001123AD
:1023E00011F083E001C082E08093610453C0205863
:1023F000223008F04FC0AE014F5F5F4F609166041E
:1024000080916404909165040E94510E009709F434
:1024100041C02091E800277F2093E800BC0189811A
:102420009A810E94010F8091E8008B778093E800E9
:1024300031C0203879F58091E800877F8093E800EB
:1024400080915E048093F1008091E8008E77809304
:10245000E8000E94760F1EC021111CC090916404F8
:102460009230C0F48091E800877F8093E8009093D9
:102470005E040E94760F80915E04811104C08091F9
:10248000E30087FF02C084E001C081E08093610423
:102490000E94210D8091E80083FF0AC08091E8002E
:1024A000877F8093E8008091EB0080628093EB004F
:1024B0000F900F90DF91CF911F9108959093B703E4
:1024C0008093B6030895E091B603F091B703309777
:1024D00021F00190F081E02D099480E00895FF92B1
:1024E0000F931F93CF93DF938C01E091B603F0918C
:1024F000B703309799F10280F381E02D099580911F
:102500001B0482FF2BC080FF04C081EB92E00E947D
:102510006006E80180E1F82E0BEA12E080911B04CE
:1025200080FF0BC088811F928F931F930F930E948F
:10253000F9060F900F900F900F90FA942196F110DA
:10254000EDCF80911B0480FF09C089EA92E0DF9102
:10255000CF911F910F91FF900C946006DF91CF9166
:102560001F910F91FF900895E091B603F091B7038A
:10257000309721F00480F581E02D09940895209191
:10258000B4033091B5038217930771F09093B503AC
:102590008093B403E091B603F091B703309721F034
:1025A0000680F781E02D099408952091B2033091BF
:1025B000B3038217930771F09093B3038093B20330
:1025C000E091B603F091B703309721F00084F185D4
:1025D000E02D0994089508950C94EB120E94CA20EE
:1025E0000E9428070E941B230E943F310E94BF2F98
:1025F0000E94C42C0E94822E0C948B325F926F92A8
:102600007F928F929F92AF92BF92CF92DF92EF9282
:10261000FF920F931F93CF93DF9300D000D01F92B0
:10262000CDB7DEB70E94780799EBC92E93E0D92E7B
:1026300000E010E0AA24A394B12C502E802F0E9419
:10264000EB083C01F601E190F1906F01E826F926D4
:10265000E114F104B1F40F5F1F4F0630110569F763
:102660008FEF89838A831B820E94D3208160782F19
:102670009D838C8349815A816B818D810E94CF1308
:1026800041C080911B0481FD0E94F40820E030E0ED
:102690004501022E02C0880C991C0A94E2F7C4017D
:1026A0008E219F21892B41F129835A82682079202C
:1026B00081E0672809F480E08B830E94D320816049
:1026C000782F9D838C8349815A816B818D810E94F3
:1026D000CF1349815A816B817C818D810E944E206C
:1026E000F801EE0FFF1FE754FC4F80819181882590
:1026F00099259183808306C02F5F3F4F2E3031058F
:1027000039F6A9CF0E944D200E94BD261091B80332
:102710000E946312181771F10E9463128093B8032C
:1027200090911B0492FF0EC090FF0CC01F928F93DC
:1027300083EC92E09F938F930E94F9060F900F9085
:102740000F900F908091B8030F900F900F900F9003
:102750000F90DF91CF911F910F91FF90EF90DF903D
:10276000CF90BF90AF909F908F907F906F905F9031
:102770000C9421300F900F900F900F900F90DF91DD
:10278000CF911F910F91FF90EF90DF90CF90BF906E
:10279000AF909F908F907F906F905F900895CF93B0
:1027A000DF93CDB7DEB72B970FB6F894DEBF0FBE21
:1027B000CDBF4F83588769877A878B878A859B85AA
:1027C000892B31F05F3F11F080E003C04F3FE1F70C
:1027D00081E0811107C04F81588569857A858B8595
:1027E0000E944E20DE01119686E0FD0111928A952D
:1027F000E9F785E0FE01379601900D928A95E1F7A1
:1028000049815A816B817C818D819E810E94A01BB0
:102810002B960FB6F894DEBF0FBECDBFDF91CF91E0
:102820000895CF93C82F882309F4CCC0823859F477
:102830000E94631281FDC6C089E30E941D1E0E9492
:10284000D41F89E30CC0833879F40E94631280FDA1
:10285000B9C083E50E941D1E0E94D41F83E50E941B
:10286000F21ECF910C94D41F843859F40E94631245
:1028700082FDA8C087E40E941D1E0E94D41F87E429
:10288000EECF8CEF8C0F813A48F48C2F0E94722B84
:10289000811198C08C2F0E941D1EE3CF80E28C0F07
:1028A000883048F4C77081E001C0880FCA95EAF704
:1028B0000E94A31FD6CF8BE58C0F833078F4C53AE6
:1028C00029F0C63A31F482E890E005C081E890E052
:1028D00002C083E890E0CF910C94BF1288E58C0F82
:1028E000853108F06FC0C83A61F1C93A69F1CA3A56
:1028F00071F1CB3A79F1CC3A81F1CD3A89F1CE3A06
:1029000091F1CF3A99F1C13BA1F1C03BA9F1C23B92
:10291000B1F1C33BB9F1C43BC1F1C53BC9F1C63B01
:10292000D1F1C73BD9F1C83BE1F1C93BE9F1CA3B61
:10293000F1F1CB3BF9F1CC3B09F03FC08AE292E0E8
:102940003EC082EE90E03BC089EE90E038C08AEE57
:1029500090E035C085EB90E032C086EB90E02FC070
:1029600083EB90E02CC084EB90E029C087EB90E0F3
:1029700026C08CEC90E023C08DEC90E020C083E872
:1029800091E01DC08AE891E01AC082E991E017C089
:1029900084E991E014C081E292E011C083E292E008
:1029A0000EC084E292E00BC085E292E008C086E2AD
:1029B00092E005C087E292E002C080E090E0CF9113
:1029C0000C94D512CF910895882309F44BC0823816
:1029D00059F40E94631281FF45C089E30E941D1EC5
:1029E0000E94D41F89E30CC0833871F40E946312E3
:1029F00080FF38C083E50E941D1E0E94D41F83E51E
:102A00000E94F21E0C94D41F843859F40E94631261
:102A100082FF28C087E40E941D1E0E94D41F87E405
:102A2000EFCF9CEF980F913A58F390E2980F9830BF
:102A300050F4877091E001C0990F8A95EAF7892FC9
:102A40000E94A91FDFCF9BE5980F933020F480E010
:102A500090E00C94BF12885A853120F480E090E019
:102A60000C94D5120895882321F00E94A31F0C9482
:102A7000D41F0895882321F00E94A91F0C94D41F0D
:102A80000895CF92DF92EF92FF920F931F93CF930F
:102A9000DF93CDB7DEB728970FB6F894DEBF0FBE31
:102AA000CDBF8C0185E0F801DE01119601900D92F9
:102AB0008A95E1F7F80140813181F28025812295E4
:102AC0002F7083819481892B31F03F3F31F481E075
:102AD0004F3F19F403C081E001C080E080FD43C393
:102AE00049833A8389819A812F830E94DB1D9E83CB
:102AF00088870E94DA1D0E94021D4E81E42FE29514
:102B0000EF70F0E0E359FF4F2F8168850C94D433C8
:102B1000842F807F142F1F70882311F01295107F4F
:102B2000FF2059F0112309F45FC2812F68870E94AA
:102B3000B61F0E94D41F688557C2862F0E94E414D6
:102B4000112309F410C3812F0E94BC1F28960FB6D1
:102B5000F894DEBF0FBECDBFDF91CF911F910F91D3
:102B6000FF90EF90DF90CF900C94D41F842F807F44
:102B7000942F9F70E92E803219F0E29480EFE822C2
:102B8000662319F0613001F129C0FF20A9F08E2DD4
:102B9000222349F1213039F528960FB6F894DEBF8B
:102BA0000FBECDBFDF91CF911F910F91FF90EF909E
:102BB000DF90CF900C94C61F222319F0213009F426
:102BC000D2C20E94C91F2CC0FF20E9F0263008F0B5
:102BD000CAC20E94A01F8E2129F022C0FF20F1F05E
:102BE000211115C08E2D28960FB6F894DEBF0FBEAA
:102BF000CDBFDF91CF911F910F91FF90EF90DF90AC
:102C0000CF900C943315253008F0ADC209C0F801FF
:102C1000858180FFE9C18F708583E4CF2111F8C1E0
:102C20008E2D66C1242F26952695237030E0211520
:102C3000310521F021303105C9F095C2FF2021F086
:102C4000862F942F937002C080E090E028960FB6F4
:102C5000F894DEBF0FBECDBFDF91CF911F910F91D2
:102C6000FF90EF90DF90CF900C94BF12FF2021F0E7
:102C7000862F942F937002C080E090E028960FB6C4
:102C8000F894DEBF0FBECDBFDF91CF911F910F91A2
:102C9000FF90EF90DF90CF900C94D512862FFF20FD
:102CA00019F00E94432502C00E94AB2528960FB65A
:102CB000F894DEBF0FBECDBFDF91CF911F910F9172
:102CC000FF90EF90DF90CF900C943026842F83708C
:102CD00009F076C0F11047C2262F2295269527705D
:102CE000220F220F862F8F70C82ED12CE12CF12CB1
:102CF000022E04C0CC0CDD1CEE1CFF1C0A94D2F783
:102D000064FF10C06FE070E080E090E004C0660FE8
:102D1000771F881F991F2A95D2F760957095809527
:102D2000909503C060E070E0CB01242F2695269596
:102D30002370422F50E042305105D1F0433051050D
:102D400059F16C297D298E299F294130510541F186
:102D500028960FB6F894DEBF0FBECDBFDF91CF919E
:102D60001F910F91FF90EF90DF90CF900C94171D63
:102D70006C297D298E299F2928960FB6F894DEBFED
:102D80000FBECDBFDF91CF911F910F91FF90EF90BC
:102D9000DF90CF900C94291D0E94171DC701B6012A
:102DA00028960FB6F894DEBF0FBECDBFDF91CF914E
:102DB0001F910F91FF90EF90DF90CF900C94051D25
:102DC000FF2019F0842F817001C08695882309F4B3
:102DD000CAC1262F229526952770220F220F862FF3
:102DE0008F70C82ED12CE12CF12C022E04C0CC0CFB
:102DF000DD1CEE1CFF1C0A94D2F764FF10C06FE0CC
:102E000070E080E090E004C0660F771F881F991F74
:102E10002A95D2F7609570958095909503C060E0F3
:102E200070E0CB01242F269526952370422F50E089
:102E300042305105D1F04330510559F16C297D29BB
:102E40008E299F294130510541F128960FB6F894FB
:102E5000DEBF0FBECDBFDF91CF911F910F91FF90CD
:102E6000EF90DF90CF900C94B61D6C297D298E29B0
:102E70009F2928960FB6F894DEBF0FBECDBFDF9115
:102E8000CF911F910F91FF90EF90DF90CF900C9416
:102E9000C81D0E94B61DC701B60128960FB6F8944A
:102EA000DEBF0FBECDBFDF91CF911F910F91FF907D
:102EB000EF90DF90CF900C94A41D603F49F118F47F
:102EC000603E48F48CC0623F09F451C0E0F1633FBA
:102ED00009F461C084C0162F1F70842F8F71FF20EA
:102EE00021F00E944F1D812F7ECE0E946A1D812FEE
:102EF00028960FB6F894DEBF0FBECDBFDF91CF91FD
:102F00001F910F91FF90EF90DF90CF900C943A15A6
:102F1000FF20A9F0253008F026C1842F8F71289654
:102F20000FB6F894DEBF0FBECDBFDF91CF911F91DA
:102F30000F91FF90EF90DF90CF900C94891D263079
:102F400008F011C1EACFFF20A1F0842F8F712896DD
:102F50000FB6F894DEBF0FBECDBFDF91CF911F91AA
:102F60000F91FF90EF90DF90CF900C944F1DFF20BA
:102F700061F3842F8F7128960FB6F894DEBF0FBED1
:102F8000CDBFDF91CF911F910F91FF90EF90DF9018
:102F9000CF900C946A1DFF2091F0842F8F7128969A
:102FA0000FB6F894DEBF0FBECDBFDF91CF911F915A
:102FB0000F91FF90EF90DF90CF900C94401D2896DA
:102FC0000FB6F894DEBF0FBECDBFDF91CF911F913A
:102FD0000F91FF90EF90DF90CF900C943B1DFF205E
:102FE000A1F0222309F4B1CF862F28960FB6F894CA
:102FF000DEBF0FBECDBFDF91CF911F910F91FF902C
:10300000EF90DF90CF900C941114222309F4B1CFEC
:10301000862F28960FB6F894DEBF0FBECDBFDF9186
:10302000CF911F910F91FF90EF90DF90CF900C9474
:10303000E4144F70C8010E94BD2228960FB6F89480
:10304000DEBF0FBECDBFDF91CF911F910F91FF90DB
:10305000EF90DF90CF900C944D1CF11084C066234C
:1030600041F0842F8F70843021F0407F862F8F7045
:10307000482B942F9F70492F50E04230510509F49E
:1030800040C0BCF44115510561F14130510509F0D2
:103090006AC028960FB6F894DEBF0FBECDBFDF9191
:1030A000CF911F910F91FF90EF90DF90CF900C94F4
:1030B000BD2E43305105A9F14430510509F053C0EC
:1030C000862F28960FB6F894DEBF0FBECDBFDF91D6
:1030D000CF911F910F91FF90EF90DF90CF900C94C4
:1030E000562F28960FB6F894DEBF0FBECDBFDF91E6
:1030F000CF911F910F91FF90EF90DF90CF900C94A4
:10310000932E28960FB6F894DEBF0FBECDBFDF9189
:10311000CF911F910F91FF90EF90DF90CF900C9483
:10312000EC2E28960FB6F894DEBF0FBECDBFDF9110
:10313000CF911F910F91FF90EF90DF90CF900C9463
:103140001E2F4F70C80128960FB6F894DEBF0FBE31
:10315000CDBFDF91CF911F910F91FF90EF90DF9046
:10316000CF900C94C02228960FB6F894DEBF0FBE05
:10317000CDBFDF91CF911F910F91FF90EF90DF9026
:10318000CF9008950E94C31F0E94921F0E94D41FD7
:103190000E945E270E94302680E090E00E94BF12CD
:1031A00080E090E00C94D5120E94B31F0C94C218DA
:1031B0000E94DB1D292F22952F7030E02C30310525
:1031C0004CF42A3031056CF422503109223031059B
:1031D00090F407C02C30310551F02F30310539F013
:1031E0000AC0803E10F0803F31F481E0089593FBE7
:1031F000882780F9089580E00895CF93DF9300D069
:1032000000D01F92CDB7DEB70F900F900F900F90A8
:103210000F90DF91CF910895CF93DF9300D000D02E
:1032200000D0CDB7DEB726960FB6F894DEBF0FBE3E
:10323000CDBFDF91CF9108951F93CF93DF93C091BE
:10324000C50316E08091C603C81799F0D0E01C9F13
:10325000F0011D9FF00D1124E953FC4F4081518175
:1032600062817381848195810E940C192196C770B7
:10327000E9CFDF91CF911F9108954091F7035091CD
:10328000F8036091F9037091FA038091FB03909128
:10329000FC030C940C19CF938091FC0382958F70E2
:1032A00009F05FC08091F903882309F45AC0209186
:1032B000C503A091C6036091F7037091F803809154
:1032C000FA039091FB0331E06F3F09F030E0B32F38
:1032D000C6E02A1709F445C0009721F07F3F21F48A
:1032E0004B2F03C041E001C040E030E040FD35C05D
:1032F000C29FF001C39FF00D1124E953FC4F41819F
:1033000074132BC04081641328C04281411125C031
:10331000438154814817590710F441505109481B03
:10332000590B483C5105C8F48091FC038F708061B3
:103330008093FC0386E0829FF001839FF00D1124AF
:10334000E453FC4F80818F708061808387EF93E02E
:103350000E944115CF910C941C192F5F3F4F27708D
:10336000B8CFCF910895CF92DF92EF92FF920F9353
:103370001F93CF93DF93CDB7DEB762970FB6F89464
:10338000DEBF0FBECDBF8C0185E0F801DE011D96CA
:1033900001900D928A95E1F7D8014C9111965C91BC
:1033A000119712966C9112971396ED90FC901497CA
:1033B0007091F703E091F8032091FA033091FB0339
:1033C0002115310531F0EF3F31F481E07F3F19F4F1
:1033D00003C081E001C080E0B82FB170CB2E80FD2A
:1033E0006CC1D090F903DD2009F4F5C0F091FC0325
:1033F000E216F30638F0C701821B930B883C910557
:1034000048F09BC0209530952E0D3F1D283C31057E
:1034100008F093C08F2F807F09F052C0E51314C0CD
:10342000741312C0D62E61110FC0FF70F061F093BB
:10343000FC030E943D1987EF93E00E9441158091A3
:10344000FC03F80185836CC1EF2831F05F3F31F454
:1034500081E04F3F19F403C081E001C080E080FDAE
:1034600003C081E0862701C080E0F82FF170FF2EB5
:1034700080FF1CC08091C5032091C60336E08217EF
:1034800009F428C190E0389FF001399FF00D112414
:10349000E953FC4F7181571306C07081471303C075
:1034A0007281671303C001968770E9CFD62E662319
:1034B00009F436C18091FC0381608093FC0353C002
:1034C000E51308C0741306C0611104C0D801159635
:1034D000FC93AEC04D875E878D859E856A8B0E946A
:1034E000D8186A89882329F1D62E662311F12091F4
:1034F000FC03822F82958F7090E002970CF460C0DD
:103500008091F7039091F80398878F831986FB8643
:10351000EA862C87CE01079651C0E51731F14D8719
:103520005E878D859E856A8B0E94D8186A89811175
:103530002EC0C8010E944115A4C08F2F807F69F75B
:103540007E2DF98AE88A89890E94FD1887EF93E029
:103550000E944115E7EFF3E086E0DF011D928A95B6
:10356000E9F70E943D19D12CDBC07413D8CF61114B
:10357000D6CFD8011596FC93C8010E944115E7EFFC
:10358000F3E086E0DF011D928A95E9F7C9C0D62EE7
:10359000662379F22091FC03822F82958F7090E050
:1035A000029774F08091F7039091F8039A838983CE
:1035B0001B82FD82EC822E83CE0101960E94411572
:1035C00086E0F801A7EFB3E001900D928A95E1F74C
:1035D0000E944B196FC0E216F30628F0C701821B48
:1035E000930B9C0104C0209530952E0D3F1D283C67
:1035F000310508F052C0D62E662309F49ACFE513A0
:103600002CC074132AC08091FC0380FD1DC0982F2C
:1036100092959F70C9F0D80115968C9315979F309D
:1036200039F09F5F9295907F8F70892B15968C93C0
:10363000C8010E94411586E0F801A7EFB3E00190B0
:103640000D928A95E1F736C086E0F801A7EFB3E066
:1036500001900D928A95E1F763C04D875E878D8555
:103660009E850E94D818882379F086E0F801A7EF9C
:10367000B3E001900D928A95E1F70E944B190E94E8
:103680003D19DD24D3944CC08091FC03816080936C
:10369000FC03C8010E94411543C07E2DF98AE88AC7
:1036A00089890E94FD18E7EFF3E086E0DF011D92B3
:1036B0008A95E9F70E943D1933C0662309F439CF92
:1036C0004D875E878D859E850E94D818882309F4D2
:1036D00030CFCBCF4D875E878D859E850E94DB1DC9
:1036E000292F22952F7030E0223031052CF49F7065
:1036F00041F0811106C00CC0243031052CF49F70BC
:1037000049F4805E883020F0C8010E944115CF2C1A
:10371000DC2C06C0D80115969C91907F91F7F8CFCC
:103720008D2D62960FB6F894DEBF0FBECDBFDF9130
:10373000CF911F910F91FF90EF90DF90CF90089560
:103740001F93CF93DF93CDB7DEB72C970FB6F894C6
:10375000DEBF0FBECDBF4F83588769877A878B87BF
:103760009C87CE0107960E94B3198823C1F02F8150
:1037700038858A859B85892B31F03F3F11F080E0A9
:1037800003C02F3FE1F781E0811147C04F81588589
:1037900069857A858B859C850E940C193EC086E0E0
:1037A000FE013796DE01119601900D928A95E1F7A0
:1037B000FF81E8854A855B854115510531F0EF3F72
:1037C00031F481E0FF3F19F403C081E001C080E0E3
:1037D00080FD23C02091C60330E0C90101968770A7
:1037E00099276091C50370E086179707F1F1F98377
:1037F000EA835D834C8396E0929FD001939FB00D46
:103800001124A953BC4FFE01319601900D929A9557
:10381000E1F78093C6030E941C1916E08091C5034E
:103820009091C603891779F1189FC001112489531B
:103830009C4F0E94B319882331F1E091C5031E9F6C
:10384000F0011124E953FC4F408151816281738161
:10385000848195810E940C198091C50390E00196A6
:10386000877099278093C503D9CF0E94D4181092EE
:10387000C6031092C503E7EFF3E086E0DF011D9277
:103880008A95E9F7CACF2C960FB6F894DEBF0FBE23
:10389000CDBFDF91CF911F910895DF92EF92FF92FC
:1038A0000F931F93CF93DF939C01009709F48AC075
:1038B000E12CF12CDD24D394E9012196F9018491C6
:1038C000853709F462C058F4843708F04EC084305C
:1038D00008F069C08130D1F0823071F173C088374F
:1038E00009F45CC050F4863709F454C0873709F0F6
:1038F00069C08E2D0E94B01F53C09CE7980F90376F
:1039000008F060C08F770E94E4144FC089010E5FF9
:103910001F4FFE01C49180E28C0F883048F4C770BD
:103920008D2D01C0880FCA95EAF70E94B61F15C0F9
:103930008C2F0E94111413C089010E5F1F4FFE01CE
:10394000C49180E28C0F883060F4C7708D2D01C067
:10395000880FCA95EAF70E94BC1F0E94D41FE80195
:1039600024C08C2F0E94E414FACF2E5F3F4FFE013B
:10397000C491CC2341F08FE99FE00197F1F700C09B
:103980000000C150F6CFE90110C0FE01F490E9013A
:1039900022960BC00E94A01FE82E07C00E94B31FF2
:1039A0000E94D41F02C00E9411149F2D992341F040
:1039B000EFE9FFE03197F1F700C000009150F6CF3A
:1039C0009E017ACFDF91CF911F910F91FF90EF90E1
:1039D000DF900895609301047093020480930304C0
:1039E000909304040E946F300C94C2186093FD03FE
:1039F0007093FE038093FF03909300040E94C730EE
:103A00000C94C21808950C94EA1C0F931F93009114
:103A10000104109102042091030430910404602BEE
:103A2000712B822B932B1F910F910C94EA1C0F93F7
:103A30001F9300910104109102042091030430911E
:103A4000040460237123822393231F910F910C940C
:103A5000EA1C0F931F93009101041091020420911E
:103A600003043091040460277127822793271F9154
:103A70000F910C94EA1C60E070E0CB010C94F61CF2
:103A800041E050E060E070E004C0440F551F661F45
:103A9000771F8A95D2F7CB01BA010C94F61C41E04E
:103AA00050E060E070E004C0440F551F661F771FB0
:103AB0008A95D2F78091FD039091FE03A091FF03B8
:103AC000B0910004482B592B6A2B7B2BCB01BA01F8
:103AD0000C94F61C41E050E060E070E004C0440F3C
:103AE000551F661F771F8A95D2F7409550956095B0
:103AF00070958091FD039091FE03A091FF03B0911A
:103B00000004482359236A237B23CB01BA010C9478
:103B1000F61C41E050E060E070E004C0440F551F27
:103B2000661F771F8A95D2F78091FD039091FE035F
:103B3000A091FF03B0910004482759276A277B27EB
:103B4000CB01BA010C94F61C0F931F930091FD0357
:103B50001091FE032091FF0330910004602B712B24
:103B6000822B932B1F910F910C94F61C0F931F9394
:103B70000091FD031091FE032091FF03309100049A
:103B800060237123822393231F910F910C94F61CC1
:103B90000F931F930091FD031091FE032091FF03EB
:103BA0003091000460277127822793271F910F917E
:103BB0000C94F61C0895CF92DF92EF92FF920F9330
:103BC0001F93CF93DF93EC01C0900104D0900204C7
:103BD000E0900304F09004048091FD039091FE03B3
:103BE000A091FF03B0910004C82AD92AEA2AFB2A2F
:103BF0000FE110E0B701A601002E04C0769567958D
:103C0000579547950A94D2F740FF07C0BE01802F11
:103C10000E944A228130910539F40150110950F770
:103C2000BE0180E00E944A22DF91CF911F910F9147
:103C3000FF90EF90DF90CF900895CF92DF92EF92B8
:103C4000FF920F931F93CF93DF93F82E80910A0179
:103C5000882369F180910B01882349F18F2D869586
:103C6000869586958F3090F4E0910C01F0910D01CE
:103C7000E80FF11D8F2D877021E030E001C0220F89
:103C80008A95EAF78181822B8183A3C080911B04EE
:103C900080FF9FC01F92FF928CEE92E09F938F93C4
:103CA0000E94F9060F900F900F900F9092C0E09035
:103CB000180440911604E0910C01F0910D01442389
:103CC00009F472C0209117048E2D3FEF06E010E03A
:103CD000A82FBB27A7FDB095EF01CA0FDB1F9A8164
:103CE0009F1509F476C03F3F19F4911101C0382F98
:103CF000CD010196C6E0D0E0B8010E94C033821326
:103D0000E7CF2E1151C03F3F71F4822F992787FDD5
:103D100090950196BE010E94C033809318044150D3
:103D20004093160441C0832F992787FD90950196F3
:103D3000BE010E94C033EE24E394C6E0D0E0082F19
:103D4000112707FD10956F01C00ED11ED6011296E6
:103D50006C916623A1F0432F552747FD5095CF0165
:103D6000840F951FDC0112966C93D60112961C925B
:103D7000CA010196BE010E94C033382F01C0E394EE
:103D8000C8010196BE010E94C0338213D8CF822F92
:103D9000992787FD90958E199109069666E070E047
:103DA0000E94C0338093170420911704332727FD06
:103DB0003095E20FF31FF282C901019666E070E0D0
:103DC0000E94C03380931704809116048F5F809304
:103DD0001604DF91CF911F910F91FF90EF90DF902C
:103DE000CF900895DF92EF92FF920F931F93CF939E
:103DF000DF93482F80910A01882371F180910B0194
:103E0000882351F1842F8695869586958F3098F476
:103E1000E0910C01F0910D01E80FF11D477021E0D8
:103E200030E0042E01C0220F0A94EAF72095818128
:103E3000282321836FC080911B0480FF6BC01F92D9
:103E40004F938EEC92E09F938F930E94F9060F9010
:103E50000F900F900F905EC0E0911804D090160460
:103E6000DD2009F457C0C0910C01D0910D010091E3
:103E70001704112707FD109586E0E82EF12CF0E0DD
:103E8000DE01AE0FBF1F9D012E5F3F4F12968C913A
:103E9000841336C0D9011C92DA94D0921604D11042
:103EA00004C0109218041092170420911704822F56
:103EB000992787FD9095059666E070E00E94C033D3
:103EC000E817F90739F540911804E6E0F0E0822F91
:103ED000992787FD90950596BF010E94C0339C01EC
:103EE0000596BF010E94C0338C0F9D1FDC01129606
:103EF0008C91811102C02413EACF209317040AC0C9
:103F0000CF010196B7010E94C033E82F80179107B7
:103F100009F0B5CFDF91CF911F910F91FF90EF90F6
:103F2000DF90089581E090E0E0910C01F0910D01A7
:103F3000E80FF91F1082019680319105A9F70895C5
:103F400080911A04089590911A04982B90931A0462
:103F50000895809590911A04982390931A040895D7
:103F600080931A04089510921A04089590911904E8
:103F7000982B909319040895809590911904982393
:103F800090931904089510921904089580930504DC
:103F9000089510920504089580910B01811103C0CA
:103FA0008091160408950895E0910C01F0910D019F
:103FB00080911A048083E0910C01F0910D018081C1
:103FC00090911904892B808390910504992361F0C5
:103FD000E0910C01F0910D018081892B80830E947A
:103FE000CC1F81111092050480910C0190910D015C
:103FF0000C946F1290932B0380932A03089582955B
:10400000982F9C7C96959695837344E0849F9001AD
:104010001124922B892F8A7A86959575990F892B71
:1040200008951F93CF93DF931F92CDB7DEB7998387
:104030000E94FF1F182F9981892F0E94FF1F212F97
:1040400030E0322F2227A901482BCA010F90DF91BF
:10405000CF911F910895CF92DF92EF92FF92CF936D
:10406000DF936B017C01CB010E941120EC01C701A1
:104070000E9411206C01CE01A0E0B0E077276627F6
:10408000E12CF12C6C297D298E299F29DF91CF917C
:10409000FF90EF90DF90CF9008950895CF93DF9336
:1040A00000D000D01F92CDB7DEB70F900F900F90C9
:1040B0000F900F90DF91CF91089508958091610442
:1040C000843019F110921C0420E488E190E00FB6CE
:1040D000F894A895809360000FBE209360000E9422
:1040E000E12C83B7817F846083BF83B7816083BF06
:1040F0007894889583B78E7F83BF88E10FB6F89454
:1041000080936000109260000FBE08950895089596
:10411000CF930E9486200E9478070E948720C0E0EB
:104120008C2F0E94EB08892B29F4CF5FC630C1F792
:1041300080E001C081E0CF9108950E94D4180C94D2
:10414000822E1F920F920FB60F9211248F939F937E
:10415000AF93BF9380911C04811113C080911D0403
:1041600090911E04A0911F04B09120044196A11DBE
:10417000B11D80931D0490931E04A0931F04B0935F
:104180002004BF91AF919F918F910F900FBE0F9020
:104190001F90189582E084BD93E095BD9AEF97BD7E
:1041A00080936E0008952FB7F89480911D0490912C
:1041B0001E04A0911F04B09120042FBF08952FB7B3
:1041C000F89460911D0470911E0480911F049091D9
:1041D00020042FBF0895CF92DF92EF92FF920F93AA
:1041E0001F932FB7F89440911D0450911E046091C5
:1041F0001F04709120042FBF6A017B01EE24FF246D
:104200008C0120E030E0C016D106E206F30610F47F
:1042100041505109481B590BCA011F910F91FF9042
:10422000EF90DF90CF9008951F920F920FB60F92EC
:1042300011248F939F93AF93BF9380911D0490910E
:104240001E04A0911F04B09120040196A11DB11D70
:1042500080931D0490931E04A0931F04B093200428
:10426000BF91AF919F918F910F900FBE0F901F90B4
:1042700018950E94C70FF8942FEF87EA91E6215016
:1042800080409040E1F700C0000087E090EBDC0147
:1042900080936C0490936D04A0936E04B0936F04AC
:1042A0002CE088E190E00FB6F894A8958093600028
:1042B0000FBE20936000FFCF882319F087E797E7B0
:1042C00002C080E090E090930108809300082AE00B
:1042D00088E190E00FB6F894A895809360000FBE37
:1042E00020936000FFCF8D3B60F4883A18F5853A43
:1042F000C0F48430A0F4813009F084C081E090E003
:104300000895883E30F4803E50F48F3B09F454C049
:1043100079C0803F08F476C090E09065089590E001
:104320000895853A09F471C0863A09F071C082E8AF
:1043300090E40895883A09F46EC0893A09F46EC091
:104340008A3A09F46EC08B3A09F46EC08C3A09F4CB
:104350006EC08D3A09F46EC08E3A09F46EC08F3A81
:1043600009F46EC0813B09F46EC0803B09F46EC055
:10437000823B09F46EC0833B09F46EC0843B09F4B0
:104380006EC0853B09F46EC0863B09F46EC0873B66
:1043900009F46EC0883B09F46EC0893B09F46EC015
:1043A0008A3B09F46EC08B3B09F46EC08C3B09F06C
:1043B0006EC08AE296E408950E94A01F80FF0EC09E
:1043C0000E94D4182FEF80E792E021508040904067
:1043D000E1F700C000000E94392112C00E94A01F16
:1043E00082FF0EC00E94D4182FEF89E698E1215079
:1043F00080409040E1F700C0000081E00E945C2115
:104400000E94D41880E090E0089581E890E4089537
:1044100083E890E4089582EE94E4089589EE94E4AC
:1044200008958AEE94E4089585EB94E4089586EB6C
:1044300094E4089583EB94E4089584EB94E4089560
:1044400087EB94E408958CEC94E408958DEC94E467
:10445000089583E895E408958AE895E4089582E94B
:1044600095E4089584E995E4089581E296E4089539
:1044700083E296E4089584E296E4089585E296E462
:10448000089586E296E4089587E296E4089580E030
:1044900094E408950E940807803EA8F4803C00F54B
:1044A000813309F45CC038F4893209F452C08A328D
:1044B00009F45BC05FC08933B1F08238A1F0853365
:1044C00009F441C057C0833E41F128F4803E99F081
:1044D000823EB9F04FC0863E31F1873E71F14AC04D
:1044E0000E940C07089590916A0490FD02C091FF0C
:1044F00041C080EE3FC080916A0480FFFACF89E31B
:1045000039C080916A0482FF0CC080916A0484FFE4
:1045100002C080E02FC083EE2DC080916A0482FF2C
:10452000F4CF82EE27C080916A0483FF0AC0809195
:104530006A0484FDEECF87EE1DC080916A0483FF7C
:10454000F6CF86EE17C080916A0485FF06C089E227
:1045500011C080916A0485FFFACF85E30BC080917A
:104560006A0486FF06C08AE205C080916A0486FF5D
:10457000FACF81E30E947321089580E090E00895CE
:104580000895BF92CF92DF92EF92FF920F931F9305
:10459000CF93DF938C01B12CEE24E394F12C8B2D7F
:1045A0000E94EB086C01C0E0D0E097010C2E02C025
:1045B000220F331F0A94E2F72C213D21232BB1F067
:1045C0006C2F7B2D80E00E944A229C01801791076E
:1045D00059F0832F807E932F907C11F0803A31F434
:1045E00030E02017310711F481E009C02196CE3068
:1045F000D105D9F6B39486E0B812D1CF80E0DF912F
:10460000CF911F910F91FF90EF90DF90CF90BF90CF
:104610000895CF93DF93EC018CE290E00E94C122D9
:10462000882329F0CE01DF91CF910C94C12280E044
:10463000DF91CF910895CF930E949324811102C0FE
:104640000E946E2481E193E00E946006C5E6C1509D
:1046500049F00E9478078FE39CE90197F1F700C0C9
:104660000000F5CF8AE093E00E94600689E290E0C6
:104670000E940923811130C18AE290E00E9409233F
:10468000882341F00E948D240E946E240E941632DD
:104690000E947B3185E090E00E94092381110E94F5
:1046A00039210E945D200E949E2480931B0487E094
:1046B00090E00E9409238823B1F18BE190E00E94F1
:1046C0000923882351F090911B0491FB882780F9DE
:1046D00021E0822780FB91F924C08EE090E00E94C7
:1046E0000923882351F090911B0492FB882780F9BD
:1046F00021E0822780FB92F914C080E190E00E94C3
:10470000092390911B04882341F093FB882780F9AB
:1047100021E0822780FB93F904C0892F809580FBDC
:1047200090F990931B0480911B040E94A2240E9484
:10473000B02480936A0480EE90E00E9409238823CD
:1047400041F080916A04982F909590FB80F98093B6
:104750006A0489E390E00E940923882359F090912C
:104760006A0491FB882780F921E0822780FB91F978
:1047700090936A0482EE90E00E940923882359F006
:1047800090916A0492FB882780F921E0822780FBC0
:1047900092F990936A0486EE90E00E9409238823A0
:1047A00059F090916A0493FB882780F921E08227D1
:1047B00080FB93F990936A0483EE90E00E940923B2
:1047C000882359F090916A0494FB882780F921E0AE
:1047D000822780FB94F990936A0485E390E00E941D
:1047E0000923882359F090916A0495FB882780F962
:1047F00021E0822780FB95F990936A0481E390E0A1
:104800000E940923882359F090916A0496FB882717
:1048100080F921E0822780FB96F990936A0481E178
:1048200090E00E940923882359F090916A0497FB35
:10483000882780F921E0822780FB97F990936A040A
:1048400080916A040E94B42480916A0487FB8827BF
:1048500080F980930B0187E290E00E940923C82F22
:104860008EE190E00E9409238111C2608FE190E007
:104870000E9409238111C46080E290E00E94092314
:104880008111C86081E290E00E9409238111C0611A
:1048900082E290E00E9409238111C06283E290E0ED
:1048A0000E9409238111C06484E290E00E940923E0
:1048B000882311F0C06802C0CC2329F08C2F0E94FD
:1048C000AB246C2F03C00E94A724682F70E080E007
:1048D00090E0CF910C94031DCF9108956DEE7EEF83
:1048E00080E090E00E940A3460E082E090E00E9464
:1048F000FC3360E083E090E00E94FC3360E084E001
:1049000090E00E94FC3360E085E090E00E94FC3380
:1049100060E086E090E00C94FC336FEF7FEF80E086
:1049200090E00C940A3480E090E00E94F63321E09D
:104930008D3E9E4F09F020E0822F089582E090E0A6
:104940000C94EE33682F82E090E00C94FC3383E00B
:1049500090E00C94EE33682F83E090E00C94FC33ED
:1049600084E090E00C94EE33682F84E090E00C94A7
:10497000FC3386E090E00C94EE33682F86E090E004
:104980000C94FC338091230480FF0BC060911101D3
:1049900085E0689FB00111247595679575956795B9
:1049A0002AC081FF09C06091110185E0689FB001B4
:1049B0001124759567951FC082FF07C06091110192
:1049C00085E0689FB001112416C04091240444235F
:1049D000C9F060911001461788F72091110185E018
:1049E000289F90011124429FC001439F900D1124E4
:1049F00070E00E94C0336038710540F461157105A4
:104A000039F002C065E070E0862F08958FE70895C1
:104A100081E008958091230480FF08C060910F0118
:104A200070E0759567957595679521C081FF06C003
:104A300060910F0170E07595679519C082FF04C001
:104A400060910F0170E010C0809124048823C1F0B0
:104A500060910E018617A0F790910F01989FC001F9
:104A6000112470E00E94C0336038710528F461158C
:104A7000710521F0862F08958FE7089581E008954C
:104A800061E070E0F4CF803F21F40E94C224819560
:104A900004C0813F29F40E94C22480932704089512
:104AA000823F21F40E94C224819504C0833F29F4EF
:104AB0000E94C224809326040895893F19F40E941D
:104AC0000A2505C08A3F31F40E940A25819580930A
:104AD000280408958B3F21F40E940A25819504C083
:104AE0008C3F29F40E940A25809329040895843F6D
:104AF00021F480912504816017C0853F21F48091C5
:104B00002504826011C0863F21F4809125048460D1
:104B10000BC0873F21F480912504886005C0883F41
:104B200031F48091250480618093250408958D3FA0
:104B300021F48091230481600BC08E3F21F4809189
:104B40002304826005C08F3F29F480912304846090
:104B5000809323040895803F39F48091270487FFD0
:104B60006CC01092270469C0813F29F4809127040A
:104B70001816BCF362C090912604823F29F497FF77
:104B80005CC01092260459C0833F19F41916CCF367
:104B900054C0893F41F48091280418160CF04DC090
:104BA000109228044AC08A3F29F48091280487FF84
:104BB00044C0F6CF8B3F39F48091290487FF3DC074
:104BC000109229043AC08C3F29F4809129041816C8
:104BD000BCF333C0843F21F4809125048E7F17C03D
:104BE000853F21F4809125048D7F11C0863F21F4FB
:104BF000809125048B7F0BC0873F21F48091250491
:104C0000877F05C0883F31F4809125048F7E809393
:104C1000250413C08D3F21F4809123048E7F0BC0A7
:104C20008E3F21F4809123048D7F05C08F3F29F4AE
:104C3000809123048B7F809323048091260481112B
:104C40000EC08091270481110AC08091280481112F
:104C500006C080912904811102C010922404089595
:104C600080911B0483FF7EC08DE493E00E94600668
:104C7000809125041F928F9388E493E09F938F93F4
:104C80000E94F90686E493E00E94600620912604C3
:104C9000822F992787FD90959F932F9383E493E02C
:104CA0009F938F930E94F90681E493E00E9460062F
:104CB00020912704822F992787FD90959F932F930A
:104CC0008EE393E09F938F930E94F9068CE393E029
:104CD0000E94600620912804822F992787FD9095D5
:104CE0009F932F9389E393E09F938F930E94F906FC
:104CF00087E393E00E94600620912904822F992780
:104D000087FD90959F932F9384E393E09F938F93D8
:104D10000E94F90681E393E00E94600680912404DA
:104D20001F928F938EE293E09F938F930E94F906D8
:104D30008CE293E00E946006809123041F928F937F
:104D400089E293E09F938F930E94F90686E293E0B5
:104D50000E9460068DB79EB74C960FB6F8949EBF22
:104D60000FBE8DBF85E294E00E94B4120E94D32052
:104D7000909322048093210408951F93CF93DF938F
:104D800080912104909122040E94EB204091240400
:104D9000442321F02091120130E006C0209113013C
:104DA0005AE0259F900111248217930708F482C0CE
:104DB0008091260410912704D0912804C0912904E1
:104DC000811107C0111105C0D11103C0CC2309F412
:104DD00071C04F3F19F04F5F40932404181624F41C
:104DE0000E94C224809326048091260487FF05C078
:104DF0000E94C224819580932604111624F40E94F7
:104E0000C224809327048091270487FF05C00E9455
:104E1000C22481958093270460912604662339F18A
:104E200010912704112319F1772767FD7095872FBB
:104E3000972F0E94C53223E333E343E35FE30E94ED
:104E400029330E94923260932604612F772767FDF1
:104E50007095872F972F0E94C53223E333E343E3F6
:104E60005FE30E9429330E949232609327041D164B
:104E700024F40E940A25809328048091280487FF47
:104E800005C00E940A258195809328041C1624F4ED
:104E90000E940A25809329048091290487FF05C078
:104EA0000E940A25819580932904DF91CF911F915B
:104EB0000C943026DF91CF911F910895E5E2F4E044
:104EC00085E0DF011D928A95E9F710922404109283
:104ED0002304089580E795E00E9460061F9281E018
:104EE0008F931F9285E08F9382E295E09F938F933B
:104EF0000E94F9060F900F900F900F900F900F9057
:104F000008958330E9F128F4813061F0823009F1AD
:104F10000895853009F462C008F449C0863009F468
:104F200074C0089520911301862F90E0820F911D87
:104F30008F3F910520F4620F6093130103C08FEF40
:104F400080931301809113011F928F938BE594E05E
:104F500072C020911201862F90E0820F911D8F3F29
:104F6000910520F4620F6093120103C08FEF8093CC
:104F70001201809112011F928F9389E494E05BC02B
:104F800020911101862F90E0820F911D8F3F910596
:104F900020F4620F6093110103C08FEF8093110121
:104FA000809111011F928F9386E394E044C0209179
:104FB0001001862F90E0820F911D8F3F910520F404
:104FC000620F6093100103C08FEF809310018091F6
:104FD00010011F928F9381E294E02DC020910F0168
:104FE000862F90E0820F911D8F3F910520F4620F74
:104FF00060930F0103C08FEF80930F0180910F0129
:105000001F928F9388E094E016C020910E01862FA6
:1050100090E0820F911D8F3F910520F4620F609305
:105020000E0103C08FEF80930E0180910E011F923D
:105030008F938DEE93E09F938F930E94F9060F90CC
:105040000F900F900F900895833081F128F48130F4
:1050500059F08230D1F00895853009F449C0B8F193
:10506000863009F456C0089580911301681720F422
:10507000861B8093130102C01092130180911301CB
:105080001F928F938EED93E054C0809112016817A8
:1050900020F4861B8093120102C0109212018091AD
:1050A00012011F928F938CEC93E043C08091110109
:1050B000681720F4861B8093110102C01092110121
:1050C000809111011F928F9389EB93E032C0809100
:1050D0001001681720F4861B8093100102C0109203
:1050E0001001809110011F928F9384EA93E021C0F8
:1050F00080910F01681720F4861B80930F0102C076
:1051000010920F0180910F011F928F938BE893E013
:1051100010C080910E01681720F4861B80930E0149
:1051200002C010920E0180910E011F928F9380E7B2
:1051300093E09F938F930E94F9060F900F900F902A
:105140000F900895CF93C82F1F928F9325E736E0D5
:105150003F932F930E94F90661E070E080E090E0B9
:1051600004C0660F771F881F991FCA95D2F70E9447
:10517000031D0F900F900F900F90CF910C94D418A7
:10518000CF938B3109F409C208F049C08E3009F47D
:1051900017C200F5873009F4E7C1A8F4863009F09A
:1051A00095C280911B04817F8E7F80931B048AE7C8
:1051B00096E00E94600683E39BE00E94600681E027
:1051C00080932B04CFC1883009F45BC08B3009F485
:1051D000C5C17CC2813109F461C220F4803109F477
:1051E00002C274C2863109F418C2893109F06EC254
:1051F00087EA9AE00E9460068AE79AE00E946006C9
:1052000081E49AE00E94600684E19AE00E946006D0
:1052100082E899E00E94600687E599E0A1C18533A4
:1052200009F44EC268F4873209F44AC228F48E3178
:1052300008F44CC28D5147C2893209F441C246C2BA
:10524000833438F48A3308F03DC2883309F486C1C8
:105250003DC2833409F434C2883409F037C20E9455
:10526000D41882E29BE00E9460069FEF23ED80E36A
:10527000915020408040E1F700C000000E94392199
:1052800071C187E39BE00E94600684EB98E00E9476
:1052900060060E94A7241F928F9381EB98E09F9352
:1052A0008F930E94F9068FEA98E00E9460060E94A0
:1052B0009E24C82F8CE998E00E9460061F92CF932D
:1052C00027E938E03F932F930E94F90685E998E09B
:1052D0000E9460068BE898E00E9460068C2F817027
:1052E0001F928F9328E838E03F932F930E94F9068E
:1052F00086E898E00E9460068CE798E00E946006CD
:10530000C1FB882780F91F928F9329E738E03F93EC
:105310002F930E94F90687E798E00E9460068BE6CB
:1053200098E00E946006C2FB882780F91F928F9345
:1053300028E638E03F932F930E94F90686E698E02E
:105340000E9460068DE598E00E946006C3FBCC27B2
:10535000C0F91F92CF938AE598E09F938F930E94A4
:10536000F90688E598E00E9460060E94B024C82FE4
:1053700084E498E00E9460061F92CF932FE338E008
:105380003F932F930E94F9068DE398E00E946006F8
:1053900084E298E00E9460068C2F81701F928F93A8
:1053A00021E238E03F932F930E94F9068DB79EB714
:1053B00080960FB6F8949EBF0FBE8DBF8FE198E028
:1053C0000E94600688E098E00E946006C1FB882782
:1053D00080F91F928F9325E038E03F932F930E942E
:1053E000F90683E098E00E94600681EF97E00E9452
:1053F0006006C2FB882780F91F928F932EEE37E05C
:105400003F932F930E94F9068CEE97E00E9460066E
:105410008AED97E00E946006C3FB882780F91F92FF
:105420008F9327ED37E03F932F930E94F90685ED88
:1054300097E00E9460068BEC97E00E946006C4FB38
:10544000882780F91F928F9328EC37E03F932F93A2
:105450000E94F90686EC97E00E94600684EB97E0D4
:105460000E946006C5FB882780F91F928F9321EB6D
:1054700037E03F932F930E94F9068FEA97E00E944E
:10548000600683E997E00E946006C6FB882780F9E2
:105490001F928F9320E937E03F932F930E94F906E4
:1054A0008EE897E00E94600686E897E00E9460061A
:1054B000C7FBCC27C0F91F92CF9383E897E09F9357
:1054C0008F930E94F90681E897E00E9460060E948F
:1054D000B924C82F8AE697E00E9460061F92CF93F6
:1054E00025E637E03F932F930E94F9068DB79EB7CC
:1054F00080960FB6F8949EBF0FBE8DBF83E697E0EF
:105500000E94600689E597E00E9460068C2F8170FA
:105510001F928F9326E537E03F932F930E94F90661
:1055200084E597E00E9460068BE497E00E946006A5
:10553000C6951F92CF9388E497E09F938F930E9424
:10554000F90686E497E00E9460068DB79EB708963C
:105550000FB6F8949EBF0FBE8DBF04C081EA96E0DF
:105560000E946006C1E0B7C080911B04C82FC170C3
:1055700080FF09C085E19BE00E94600680911B04CA
:10558000817F8E7F44C089E09BE00E94600680910D
:105590001B04816080931B04E5CF80911B0481FB79
:1055A000CC27C0F991E0C927C0FB81F980931B0487
:1055B000CC2319F08CEF9AE025C08EEE9AE0D0CF84
:1055C00080911B0482FBCC27C0F991E0C927C0FB66
:1055D00082F980931B04CC2319F08FED9AE012C05E
:1055E0008FEC9AE0BDCF80911B0483FBCC27C0F9E0
:1055F00091E0C927C0FB83F980931B04CC2351F0B1
:1056000083EC9AE00E94600680911B048160809385
:105610001B0461C086EB9AE0A3CF89E499E00E9465
:1056200060060E9463121F928F938FE299E09F930E
:105630008F930E94F90680910A011F928F9388E14F
:1056400099E09F938F930E94F9068091B1031F9276
:105650008F9385E099E09F938F930E94F906809144
:105660000B011F928F9382EF98E09F938F930E947C
:10567000F9060E94DF209F938F937F936F938BEDAA
:1056800098E09F938F930E94F9068DB79EB7469638
:105690000FB6F8949EBF0FBE8DBF64CF0E94D41882
:1056A000C0910B0181E0C827C0930B01CC2329F0E6
:1056B00081ED98E00E9460060EC086EC98E050CF25
:1056C00080E001C089530E94A2284CCF84EC98E06E
:1056D0000E946006C0E08C2FCF91089580E008956D
:1056E00080E00895CF93C82F80912B04813071F012
:1056F00020F0823009F448C03FC1A0910C01B09164
:105700000D018C91823209F039C107C0A0910C01C2
:10571000B0910D018C91823249F48C2F0E946E2B36
:1057200081112FC08C2F0E94C0282CC08C2F0E946A
:10573000702B811126C0C431E1F070F4CB3081F0C0
:10574000C031D1F40E946A278DE696E00E9460067F
:1057500082E080932B0415C0C93259F0C83361F43C
:105760008AE796E00E94600681E796E00E94600664
:1057700008C010922B0404C18BE696E00E946006DC
:10578000FFC081E08170FEC0C43228F5CE3108F040
:10579000C1C0CB30A1F1D0F4C73009F0D3C08EE145
:1057A0008093130182E3809312018AE080931101B8
:1057B00084E18093100188E080930F0188E2809358
:1057C0000E0181E195E00E946006BFC0C33149F13E
:1057D000C431C1F0B7C0CB3409F4A9C028F4C93230
:1057E00089F0C83361F0AEC0C13509F49EC0C2353E
:1057F00009F499C0CE3409F0A5C06AE09EC00E94A9
:105800006A27A3C080912A04882319F010922A04E1
:105810009CC08EE195E00E94600681E080932B049D
:10582000B1C088EF94E00E94600686EE94E00E948A
:105830006006809113011F928F9383EE94E09F93F3
:105840008F930E94F90681EE94E00E9460068FEC2F
:1058500094E00E946006809112011F928F938CEC5D
:1058600094E09F938F930E94F9068AEC94E00E9443
:1058700060068BEB94E00E946006809111011F92FC
:105880008F9388EB94E09F938F930E94F90686EBA9
:1058900094E00E94600685EA94E00E946006809190
:1058A00010011F928F9382EA94E09F938F930E943E
:1058B000F90680EA94E00E9460068BE894E00E947A
:1058C000600680910F011F928F9388E894E09F9368
:1058D0008F930E94F90686E894E00E9460068FE6A6
:1058E00094E00E94600680910E011F928F938CE6D7
:1058F00094E09F938F930E94F9068AE694E00E94B9
:1059000060068DB79EB748960FB6F8949EBF0FBE3F
:105910008DBF1BC0CE51EC2FF0E0E15EFC4F8081CB
:1059200080932A0412C061E003C061E006C06AE00F
:1059300080912A040E94812708C080912A040E9435
:10594000242803C08FE095E013C080912A048823A7
:1059500069F01F928F9389E095E09F938F930E9447
:10596000F9060F900F900F900F9004C086E095E01D
:105970000E94600681E006C010922B0480E002C005
:1059800080E000CFCF910895E1E8F0E08081886069
:1059900080838081816080838FB7F89493E09093B7
:1059A000890090ED909388008FBF0C941F31EFE633
:1059B000F0E080818260808381E080934C040C94CD
:1059C0003A31CF9380916F008D7F80936F0010925A
:1059D0004C04C0E08C2F0E942D31CF5FC530D1F731
:1059E00080914C04CF910C943A3180914B048F619B
:1059F00080934B040895CF9310924B04C0E08C2FFA
:105A00000E942D31CF5FC530D1F780914C04CF91EA
:105A10000C943A3180934104809342048093430470
:105A200080934404809345040895E82FF0E0EF5BF1
:105A3000FB4F4081242F30E08FEF90E0861B9109CF
:105A4000821793071CF48FEF80830895640F60839F
:105A50000895E82FF0E0EF5BFB4F8081861710F48C
:105A600010820895861B80830895809140048F6181
:105A700080934004089510924004089590913F044B
:105A800021E030E0082E01C0220F0A94EAF76623D5
:105A900011F0292B02C02095292320933F0408955B
:105AA000CF93DF93D82FC0E06D2F8C2F0E943E2D17
:105AB000CF5FC530C9F7DF91CF91089580933E0441
:105AC0000895809138048F6180933804089510926E
:105AD000380408958093360408951F920F920FB6EC
