:100000000C9472000C94C1000C94C1000C94C100BB
:100010000C94C1000C94C1000C94C1000C94C1005C
:100020000C94C1000C94C1000C94B9220C948B2345
:100030000C94282F0C94C1000C94C1000C94C100A6
:100040000C94C1000C94C1000C94C1000C94C1002C
:100050000C94C1000C9497100C94C1000C94C10036
:100060000C94C1000C94C1000C94C1000C94C1000C
:100070000C94C1000C94C1000C94C1000C94C100FC
:100080000C94C1000C94C1000C94C1000C94C100EC
:100090000C94C1000C94C1000C94C1000C94C100DC
:1000A0000C94C1000C94C1000C94C100EB230B24F0
:1000B000C3240B24C3244D247024C3249224A524D8
:1000C000502750277E277E27B727F327D029D0290E
:1000D0000B28D02902290229D029D029D029BE29CC
:1000E0000103AA0E11241FBECFEFDAE0DEBFCDBFA1
:1000F00004B603FE24C08091160590911705A091C7
:100100001805B09119058730904BA740B04BB9F452
:1001100010921605109217051092180510921905E5
:1001200014BE84B7877F84BF88E10FB6F8948093AC
:100130006000109260000FBEE0E0F8E3099513E064
:10014000A0E0B1E0E2E5FCE602C005900D92AA3322
:10015000B107D9F715E0AAE3B3E001C01D92A631BB
:10016000B107E1F710E0C4EED0E004C02297FE0131
:100170000E94DE35C23ED107C9F70E94900F0C9451
:1001800027360C94000080E090E0089580E090E035
:100190000895CF93DF93EC01613091F030F062303D
:1001A000F9F0633009F45CC078C08A81882309F4CF
:1001B0005AC00E94F32E82729927892B79F008C0C9
:1001C0008A81882309F44FC00E94F32E81FF06C064
:1001D0000E94F32E80FD02C085E355C089E253C022
:1001E000423009F148F4442389F0413061F584E359
:1001F00080933A0388E225C04430F9F0C8F04530D6
:1002000011F581E380933A038AE21BC00E94F32E2A
:1002100082FF02C08DE301C089E280933B0385E346
:1002200080933A0310C088E380933A0387E309C0C0
:1002300088E380933A0382E504C083E380933A0322
:100240008FE080933B038A81882369F00E94F32E1C
:1002500085FF03C080913A0316C080913B0313C011
:100260008A81811105C080913C030E94D32611C070
:100270000E94F32E80FF06C00E94F32E82FF05C06D
:100280008CE401C08AE280933C0380913C030E948D
:100290003426DF91CF910C949B2EDF91CF9108955E
:1002A000462F50E0672F70E090E00E94CB33089516
:1002B00090E0805C91090E94BF33089580EE90E049
:1002C000089580EE90E00895E82FF0E0EE0FFF1F14
:1002D000E052FF4F859194910895569A5E9A089541
:1002E000811101C05E9A0895811101C05E98089540
:1002F00080E00895089580E0089581E00895CF9307
:10030000DF93CDB7DEB728970FB6F894DEBF0FBEE8
:10031000CDBFE22F29833A834B835C836D837E8339
:100320008F83988780916804E82BE0936804FE012E
:1003300033969E01275F3F4F4191443088F0AAE6F3
:10034000B4E080E090E05D91511106C0DC01A85955
:10035000BB4F12964C9304C001968630910599F7D5
:10036000E217F30749F728960FB6F894DEBF0FBEE1
:10037000CDBFDF91CF910895860F911D860F911DFE
:10038000FC01518B408B81E00895860F911D860FF3
:10039000911DFC015687458781E00895860F911DC8
:1003A000860F911DFC015687458781E00895CF9304
:1003B000DF93EC018C819D81DC01ED91FC91048047
:1003C000F581E02D6E8109951F86188A81E08A8B60
:1003D0001E821B8A1C8A1D8A1E8A1F8A80E0DF916A
:1003E000CF910895FC018681089581E0633009F082
:1003F00080E0089581E0623009F080E00895860F82
:10040000911D860F911DFC01858596850895FC013F
:1004100087890895EF92FF92CF93DF93FC01E70164
:100420002289223029F16787408B8B81837083304A
:10043000F9F48A8187FF1CC08E81908D981708F48B
:10044000808F822F90E0DC01AA0FBB1FA80FB91F7D
:10045000AE0FBF1F8A818F7017968C9317978C8170
:1004600018968C93189784E019968C932F5F228BA3
:10047000DF91CF91FF90EF900895EF92FF920F934D
:1004800002970E940A020F91FF90EF900895CF9378
:10049000DF93EC018C819D81DC01ED91FC91048066
:1004A000F581E02D6E8109951F86188A81E08A8B7F
:1004B0001E821B8A1C8A1D8A1E8A1F8A80E0DF9189
:1004C000CF910895FC018681089581E0633009F0A1
:1004D00080E0089581E0613009F080E00895860FA2
:1004E000911D860F911DFC01858596850895FC015F
:1004F00087890895EF92FF92CF93DF93FC01E70184
:100500002289223029F16787408B8B818370833069
:10051000F9F48A8187FF1CC08E81908D981708F4AA
:10052000808F822F90E0DC01AA0FBB1FA80FB91F9C
:10053000AE0FBF1F8A818F7017968C9317978C818F
:1005400018968C93189784E019968C932F5F228BC2
:10055000DF91CF91FF90EF900895EF92FF920F936C
:1005600002970E947A020F91FF90EF900895CF9327
:10057000DF93EC018C819D81DC01ED91FC91048085
:10058000F581E02D6E8109951C8A1D8A81E08F8B93
:100590001E82188E198E1A8E1B8E1C8E80E0DF91A3
:1005A000CF910895FC018681089581E0633009F0C0
:1005B00080E0089581E0633009F080E00895860FBF
:1005C000911D860F911DFC01808991890895FC0180
:1005D000848D0895EF92FF92CF93DF93FC01E701A2
:1005E0002789233029F1648B458B8B81837083307D
:1005F000F9F48A8187FF1CC08E81958D981708F4C5
:10060000858F822F90E0DC01AA0FBB1FA80FB91FB6
:10061000AE0FBF1F8A818F7017968C9317978C81AE
:1006200018968C93189784E019968C932F5F278BDC
:10063000DF91CF91FF90EF900895EF92FF920F938B
:1006400002970E94EA020F91FF90EF90089508959B
:10065000DF92EF92FF920F931F93CF93DF93CDB76B
:10066000DEB762970FB6F894DEBF0FBECDBF7C0138
:10067000DC0157968C91882369F00E94FD0FF701E9
:100680000389148925893689601B710B820B930BB2
:1006900097FF02C0D12C38C0F701838590E09A8B78
:1006A000898B8E010F5F1F4F9E012F5E3F4F42854A
:1006B0006681848195810E948A17D82E811118C085
:1006C00029893A892330310598F0D7011D968D91FB
:1006D0009C911E97009761F0DC01ED91FC910190D7
:1006E000F081E02D8E010F5F1F4F40E0B7010995AB
:1006F0000E94FD0FF701208D620F711D811D911D5C
:10070000638B748B858B968B8D2D62960FB6F894C8
:10071000DEBF0FBECDBFDF91CF911F910F91FF9034
:10072000EF90DF900895DF92EF92FF920F931F9367
:10073000CF93DF93CDB7DEB762970FB6F894DEBFE5
:100740000FBECDBF7C01DC0157968C91882369F0E8
:100750000E94FD0FF7010389148925893689601BE2
:10076000710B820B930B97FF02C0D12C38C0F7019D
:10077000838590E09A8B898B8E010F5F1F4F9E01BE
:100780002F5E3F4F42856681848195810E948A1742
:10079000D82E811118C029893A892330310598F063
:1007A000D7011D968D919C911E97009761F0DC01F9
:1007B000ED91FC910190F081E02D8E010F5F1F4FB4
:1007C00040E0B70109950E94FD0FF701208D620FEF
:1007D000711D811D911D638B748B858B968B8D2D67
:1007E00062960FB6F894DEBF0FBECDBFDF91CF91FA
:1007F0001F910F91FF90EF90DF9008959F92AF921D
:10080000BF92CF92DF92EF92FF920F931F93CF93FD
:10081000DF93CDB7DEB762970FB6F894DEBF0FBE99
:10082000CDBF7C01DC015C968C91882309F45AC011
:100830000E94FD0FF701008D118D228D338D601BFD
:10084000710B820B930B97FD4DC05701C12CD12C1E
:10085000F701EC0DFD1D838590E09A8B898B8E014D
:100860000F5F1F4F9E012F5E3F4F4285D7011696A7
:100870006C91169714968D919C9115970E948A17EA
:10088000982E811116C029893A892330310588F0C4
:10089000F50180899189009761F0DC01ED91FC916F
:1008A0000190F081E02D8E010F5F1F4F40E0B701F6
:1008B0000995B3E0CB0ED11CE2E0AE0EB11CF6E020
:1008C000CF16D10429F60E94FD0FD7015D962C9119
:1008D000620F711D811D911DF701608F718F828FD5
:1008E000938F01C0912C892D62960FB6F894DEBFCC
:1008F0000FBECDBFDF91CF911F910F91FF90EF9071
:10090000DF90CF90BF90AF909F9008953F924F920D
:100910005F926F927F928F929F92AF92BF92CF928F
:10092000DF92EF92FF920F931F93CF93DF93CDB798
:10093000DEB7EB970FB6F894DEBF0FBECDBF7C01DC
:10094000462E342E522EDC011496AD90BC90159795
:1009500016968C911697811111C158961C92D5014B
:10096000ED91FC910190F081E02D60E0C5010995C9
:100970006C01009711F486ED0BC1FC018080918021
:100980008114910409F4FCC03701F7E06F0E711C6B
:10099000DC0111967C926E9214965C928E01065D3B
:1009A0001F4F28E030E040E060E0F701848195814E
:1009B0000E948916182F8111E7C01AA5D6018D92C1
:1009C0009C92D501ED91FC910280F381E02D232DC5
:1009D00040E0642DC5010995F7018683882309F459
:1009E000D1C099A99087282F40E060E0848195814B
:1009F0000E943617982ED501ED91FC91D6011496E0
:100A00001C92882361F00480F581E02DD7011696B1
:100A10006C91C5010995F7011682892DB9C0019025
:100A2000F081E02DD70116966C91C50109950097CC
:100A300009F4A1CF133108F012E1FC015482111125
:100A40000FC04BAC512C63E2A62E61E0B62E4701DD
:100A5000F2E08F0E911C6E0181E1C80ED11C39C0ED
:100A6000212F30E08E01065D1F4F40E0D701169622
:100A70006C91169714968D919C9115970E948916EA
:100A8000182F811171C0DDCFBA82A9829C828B821E
:100A90001E86188A1F8619A21AA21BA219A6DF8217
:100AA000CE82D986C8868D818B878A87DD86CC8663
:100AB0008E010F5F1F4F252D40E0F7016681848175
:100AC00095810E94D716D70152968C91823019F0E9
:100AD00053945410D9CFF7018289823009F043C072
:100AE000930142E06681848195810E94001268EE44
:100AF00073E080E090E00E94FF0FD7011F962C91D9
:100B00001F9740E016966C91169714968D919C91C4
:100B100015970E946517182F811126C068EE73E0A3
:100B200080E090E00E94FF0F40E060E0C7010E947B
:100B3000161B182F811118C020E040E060E0C701AB
:100B40000E94EC1A89E291E09A838983AE014F5F9B
:100B50005F4F60E070E0C7010E947B1A81E0F701FF
:100B6000878B80E015C011EDD701ED91FC910480D9
:100B7000F581E02DC7010995812F0AC089ED08C0D4
:100B800087ED06C084ED04C0F60191828082ECCF2F
:100B9000EB960FB6F894DEBF0FBECDBFDF91CF91BD
:100BA0001F910F91FF90EF90DF90CF90BF90AF908B
:100BB0009F908F907F906F905F904F903F9008959F
:100BC0003F924F925F926F927F928F929F92AF92DD
:100BD000BF92CF92DF92EF92FF920F931F93CF932A
:100BE000DF93CDB7DEB7EC970FB6F894DEBF0FBE3C
:100BF000CDBF5C01462E342E522EDC011496CD90D2
:100C0000DC90159716968C911697811131C15D96DF
:100C10001C92D601ED91FC910190F081E02D60E0F5
:100C2000C60109957C01009711F486ED26C1FC01EF
:100C3000808091808114910409F41CC13501F7E092
:100C40006F0E711CDC0111967C926E9214965C9270
:100C50008E01065D1F4F28E030E040E060E0F501C6
:100C6000848195810E9489168CAF8111F4C01AA5E8
:100C7000D7018D929C92D601ED91FC910280F38177
:100C8000E02D232D40E0642DC6010995F5018683F2
:100C9000882309F4F1C099A99087282F40E060E0EB
:100CA000848195810E9436178CAFD601ED91FC911D
:100CB000D70114961C92882359F00480F581E02D09
:100CC000D50116966C91C6010995F5011682CEC024
:100CD0000190F081E02DD50116966C91C601099521
:100CE000009709F4A2CF133108F012E1FC015482FD
:100CF000112389F0212F30E08E01065D1F4F40E067
:100D0000D50116966C91169714968D919C91159716
:100D10000E9489168CAF8CAD8111A0C0EBAC87E12D
:100D200091E09A838983C50102969C838B831E86FA
:100D3000188A1F8619A21AA21BA2CE0141969F8370
:100D40008E83998788872D812B872A879D878C871B
:100D500081E089A7F12CFE1481F08E010F5F1F4FF7
:100D60002F2D40E0F5016681848195810E94D71680
:100D7000D50157968C91833039F4F50187898330FA
:100D800029F081ED8CAF6AC0F394E5CF930143E085
:100D90006681848195810E9400128CAF68EE73E0B9
:100DA00080E090E00E94FF0FF501248940E0668119
:100DB000848195810E9465178CAF81114FC068EEC8
:100DC00073E080E090E00E94FF0FE12CF12C09E23B
:100DD00011E040E06E2DC5010E94161B8CAF811101
:100DE0003DC020E040E06E2DC5010E94EC1A8CAFA2
:100DF0001A830983AE014F5F5F4FB701C5010E949F
:100E00007B1A8CAFFFEFEF1AFF0A82E0E816F104BD
:100E100001F780E28CAF8CAD8823C1F090E095950E
:100E200087958CAFDE01DC966D01EE24E394F12C06
:100E300000E022E040E060E0C5010E94BE1A69E1E6
:100E400070E080E090E00E94FF0FE5CF81E0F501C7
:100E5000848F80E012C0F70191828082D501ED91EC
:100E6000FC910480F581E02DC50109958CAD05C08C
:100E700089ED03C087ED01C084EDEC960FB6F894C0
:100E8000DEBF0FBECDBFDF91CF911F910F91FF90BD
:100E9000EF90DF90CF90BF90AF909F908F907F901A
:100EA0006F905F904F903F9008953F924F925F9266
:100EB0006F927F928F929F92AF92BF92CF92DF926A
:100EC000EF92FF920F931F93CF93DF93CDB7DEB7CF
:100ED000EC970FB6F894DEBF0FBECDBF5C01462E77
:100EE000342E522EDC011496CD90DC901597169678
:100EF0008C911697811139C158961C92D601ED91AB
:100F0000FC910190F081E02D60E0C60109957C0123
:100F1000009711F486ED2EC1FC0180809180811430
:100F2000910409F424C13501F7E06F0E711CDC0156
:100F300011967C926E9214965C928E01065D1F4F04
:100F400028E030E040E060E0F501848195810E9476
:100F500089168CAF8111FCC01AA5D7018D929C9285
:100F6000D601ED91FC910280F381E02D232D40E02C
:100F7000642DC6010995F5018683882309F4F9C01B
:100F800099A99087282F40E060E0848195810E9494
:100F900036178CAFD601ED91FC91D70114961C92B7
:100FA000882359F00480F581E02DD50116966C91C7
:100FB000C6010995F5011682D6C00190F081E02D99
:100FC000D50116966C91C6010995009709F4A2CF38
:100FD000133108F012E1FC015482112389F0212F12
:100FE00030E08E01065D1F4F40E0D50116966C91F2
:100FF000169714968D919C9115970E9489168CAF27
:101000008CAD8111A8C04BAC512CBDE1CB2EB1E011
:10101000DB2E4501B2E08B0E911C7E01E1E1EE0E6C
:10102000F11C541449F1DA82C9829C828B821E869B
:10103000188A1F8619A21AA21BA219A6FF82EE8285
:10104000F986E8868D818B878A87FD86EC868E01FE
:101050000F5F1F4F252D40E0D50116966C91169716
:1010600014968D919C9115970E94D716F50182894F
:10107000823011F05394D5CFD50152968C918230A5
:1010800019F081ED8CAF67C0930142E0F5016681F4
:10109000848195810E9400128CAF68EE73E080E03D
:1010A00090E00E94FF0FD5011F962C911F9740E002
:1010B00016966C91169714968D919C9115970E9497
:1010C00065178CAF811147C068EE73E080E090E057
:1010D0000E94FF0F40E060E0C5010E94161B8CAF2C
:1010E000811139C020E040E060E0C5010E94EC1AA7
:1010F0008CAF89E291E09A838983AE014F5F5F4FA5
:1011000060E070E0C5010E947B1A80E28CAF8CAD7C
:101110008823C1F090E0959587958CAFFE01FC96F1
:101120006F01EE24E394F12C00E022E040E060E067
:10113000C5010E94BE1A69E170E080E090E00E9463
:10114000FF0FE5CF81E0D50157968C9380E012C068
:10115000F70191828082D501ED91FC910480F581A7
:10116000E02DC50109958CAD05C089ED03C087ED63
:1011700001C084EDEC960FB6F894DEBF0FBECDBF74
:10118000DF91CF911F910F91FF90EF90DF90CF9063
:10119000BF90AF909F908F907F906F905F904F9097
:1011A0003F9008959C01E0E0F0E0D901AA5ABF4FBA
:1011B0004D915C91452B49F4BB96EE0FFF1FE80F54
:1011C000F91F7183608380E0089531962E5F3F4F51
:1011D000E031F10551F783ED0895CF93DF93FC01E2
:1011E000DA018281882319F08130D9F01FC034835D
:1011F000238381E0828315C02D913C911197232B8D
:10120000A9F0019794838383EB01888199810196EA
:10121000998388838D919C911197019711969C9346
:101220008E9383819481009739F7128281E0238124
:101230003481232B09F080E0DF91CF9108952F9224
:101240003F924F925F926F927F928F929F92AF9256
:10125000BF92CF92DF92EF92FF920F931F93CF93A3
:10126000DF9300D000D0CDB7DEB76C017C836B83F9
:101270005A8349834C0180E1880E911C5601A7E0F6
:10128000AA0EB11C332433942601BBE04B0E511C33
:101290003601E2E16E0E711C33E0232E12E08B81E9
:1012A0009C81892B09F4F5C0D60190968C918230EF
:1012B00069F128F4882349F0813081F0F0CF833040
:1012C00049F1843009F457C0EACFF60114838581CF
:1012D0009681908787831287118730A2AE014D5F78
:1012E0005F4FBE016F5F7F4FC5010E94151F8823AE
:1012F00009F4CFC0D6011596ED91FC911697808127
:1013000091968C939197818192968C93F601768237
:10131000658220A2D60192968C91843069F018F4EF
:10132000823061F013C0853071F0813279F4F601BA
:1013300081A1825084830AC0F60113A2E7E0D6019E
:101340001496EC9303C0D60114968C93D60115968F
:101350008D919C91169718969C938E93179714963F
:101360008C9114971A968C931A9719968C931997B7
:10137000E4E09096EC93D60192968C918430B1F093
:10138000853009F442C0823009F06BC0AE014D5F78
:101390005F4FBE016F5F7F4FC5010E94151F8823FD
:1013A00009F477C0F601858984A36BC0AE014D5F57
:1013B0005F4FBE016F5F7F4FC5010E94151F8823DD
:1013C00009F467C0D60155968C915597833009F082
:1013D00058C056968C915697813009F052C0989615
:1013E0009C91989757968C91992321F0882309F422
:1013F00048C003C0823009F044C0F60133A292898C
:1014000096A3938997A385A33CC0AE014D5F5F4F20
:10141000BE016F5F7F4FC5010E94151F8823C9F170
:10142000D60193968C919397882359F112968D91BA
:101430009C911397009729F1DC01ED91FC910190AB
:10144000F081E02D7401D60195960C9195979796B1
:101450002C91979796964C91969794966C910995A6
:1014600010C0F60121A130E022503109AE014D5FDC
:101470005F4FBE016F5F7F4FC2010E94ED0888235E
:1014800041F0D60116969C928E92159790961C92DA
:1014900006CF0F900F900F900F90DF91CF911F917B
:1014A0000F91FF90EF90DF90CF90BF90AF909F9003
:1014B0008F907F906F905F904F903F902F90089506
:1014C0002F923F924F925F926F927F928F929F9254
:1014D000AF92BF92CF92DF92EF92FF920F931F9342
:1014E000CF93DF9300D000D0CDB7DEB76C017C8303
:1014F0006B835A8349834C0180E1880E911C56010D
:10150000A7E0AA0EB11C332433942601BBE04B0E96
:10151000511C3601E2E16E0E711C43E0242E12E0F4
:101520008B819C81892B09F4F5C0D60190968C9112
:10153000823069F128F4882349F0813081F0F0CFBE
:10154000833049F1843009F457C0EACFF60114839F
:1015500085819681908787831287118730A2AE019B
:101560004D5F5F4FBE016F5F7F4FC5010E94151F2A
:10157000882309F4CFC0D6011596ED91FC911697FA
:10158000808191968C939197818192968C93F601AC
:101590007682658220A2D60192968C91843069F081
:1015A00018F4823061F013C0853071F0813279F423
:1015B000F60181A1825084830AC0F60113A2E7E0FC
:1015C000D6011496EC9303C0D60114968C93D601E1
:1015D00015968D919C91169718969C938E931797BC
:1015E00014968C9114971A968C931A9719968C933B
:1015F0001997E4E09096EC93D60192968C91843002
:10160000B1F0853009F442C0823009F06BC0AE0100
:101610004D5F5F4FBE016F5F7F4FC5010E94151F79
:10162000882309F477C0F601858984A36BC0AE01D5
:101630004D5F5F4FBE016F5F7F4FC5010E94151F59
:10164000882309F467C0D60155968C91559783304D
:1016500009F058C056968C915697813009F052C0C7
:1016600098969C91989757968C91992321F088236E
:1016700009F448C003C0813009F044C0F60133A228
:10168000928996A3938997A385A33CC0AE014D5F31
:101690005F4FBE016F5F7F4FC5010E94151F8823FA
:1016A000C9F1D60193968C919397882359F112969C
:1016B0008D919C911397009729F1DC01ED91FC919C
:1016C0000190F081E02D7401D60195960C919597CB
:1016D00097962C91979796964C91969794966C9195
:1016E000099510C0F60121A130E022503109AE0168
:1016F0004D5F5F4FBE016F5F7F4FC2010E94ED08DB
:10170000882341F0D60116969C928E92159790965A
:101710001C9206CF0F900F900F900F90DF91CF91FA
:101720001F910F91FF90EF90DF90CF90BF90AF90FF
:101730009F908F907F906F905F904F903F902F90F1
:1017400008952F923F924F925F926F927F928F9265
:101750009F92AF92BF92CF92DF92EF92FF920F9340
:101760001F93CF93DF9300D000D0CDB7DEB76C01CD
:101770007C836B835A8349834C0180E1880E911CE2
:101780005601A7E0AA0EB11C332433942601BBE016
:101790004B0E511C3601E2E16E0E711C53E0252EFA
:1017A00012E08B819C81892B09F4F5C0D6019096BB
:1017B0008C91823069F128F4882349F0813081F0DE
:1017C000F0CF833049F1843009F457C0EACFF601F5
:1017D000148385819681908787831287118730A231
:1017E000AE014D5F5F4FBE016F5F7F4FC5010E942D
:1017F000151F882309F4CFC0D6011596ED91FC91F1
:101800001697808191968C939197818192968C9373
:10181000F6017682658220A2D60192968C91843060
:1018200069F018F4823061F013C0853071F08132B4
:1018300079F4F60181A1825084830AC0F60113A2D3
:10184000E7E0D6011496EC9303C0D60114968C936E
:10185000D60115968D919C91169718969C938E9310
:10186000179714968C9114971A968C931A97199629
:101870008C931997E4E09096EC93D60192968C9114
:101880008430B1F0853009F442C0823009F06BC079
:10189000AE014D5F5F4FBE016F5F7F4FC5010E947C
:1018A000151F882309F477C0F601858984A36BC0CE
:1018B000AE014D5F5F4FBE016F5F7F4FC5010E945C
:1018C000151F882309F467C0D60155968C9155974A
:1018D000833009F058C056968C915697813009F0A4
:1018E00052C098969C91989757968C91992321F085
:1018F000882309F448C003C0833009F044C0F601CE
:1019000033A2928996A3938997A385A33CC0AE0185
:101910004D5F5F4FBE016F5F7F4FC5010E94151F76
:101920008823C9F1D60193968C919397882359F116
:1019300012968D919C911397009729F1DC01ED91FE
:10194000FC910190F081E02D7401D60195960C91E7
:10195000959797962C91979796964C9196979496E3
:101960006C91099510C0F60121A130E02250310997
:10197000AE014D5F5F4FBE016F5F7F4FC2010E949E
:10198000ED08882341F0D60116969C928E92159709
:1019900090961C9206CF0F900F900F900F90DF91B2
:1019A000CF911F910F91FF90EF90DF90CF90BF905C
:1019B000AF909F908F907F906F905F904F903F90EF
:1019C0002F90089580E1089580E108950F931F936B
:1019D000CF93DF9300D000D01F92CDB7DEB7209118
:1019E00094033091950340914103509142038091BB
:1019F0008803909189032417350739F440913F03F8
:101A00005091400384179507B9F130934203209316
:101A100041039093400380933F03E8E6F4E088E0BD
:101A2000DF011D928A95E9F720918C0330918D0397
:101A300040918E0350918F036091900370919103B8
:101A400080919203909193030E947F0120918003E3
:101A5000309181034091820350918303609184030C
:101A60007091850380918603909187030E947F0186
:101A700081E08093660402C01092660480914B035B
:101A800090914C0320913D0330913E032817390774
:101A900009F453C090933E0380933D039091470314
:101AA00080914803911102C0882381F00091FE04C7
:101AB0001091FF049093FE048093FF048DEF94E057
:101AC0000E94F4240093FE041093FF0480914903C4
:101AD000882321F0813071F08F3F71F080914603AF
:101AE00090916704981749F18093670481E080938F
:101AF000660423C089EF01C08AEF9FE09A838F704C
:101B0000898381E08B830E9456108160782F9D83AA
:101B10008C8349815A816B818D810E94F2251B82C1
:101B20000E9456108160782F9D838C8349815A8151
:101B30006B818D810E94F225D1CF0E9456108C01BD
:101B40008FEE93E00E948219C8010E946E1081E01E
:101B50000F900F900F900F900F90DF91CF911F91EA
:101B60000F910895282F30E0A90164E0440F551F1C
:101B70006A95E1F7CA01805E9109089730F4809177
:101B80006804882311F090E002C080E090E0405F9C
:101B900051094031510570F440916704442351F0DC
:101BA00040FD806141FD806242FD806443FD8068AC
:101BB00044FD9160EAE6F4E041E050E06191643078
:101BC00080F0A62FA295AF70B0E02A173B0749F42A
:101BD0006F70DA0102C0AA0FBB1F6A95E2F78A2B69
:101BE0009B2BB4E0E037FB0749F7089508952E9A40
:101BF00008952E988EBD0DB407FEFDCF1EBC0DB40A
:101C000007FEFDCF0E94F70D8EB508952E988260D5
:101C10008EBD0DB407FEFDCF6EBD0DB407FEFDCF2A
:101C20000C94F70D88EF0E94F90D807C8034A1F0B0
:101C300018F4882301F10895803819F0803CB9F038
:101C4000089588ED0E94F90D81FD0BC069EC88EDC7
:101C50000E94060E82E00CC088ED0E94F90D81FD05
:101C6000F5CF6BEC88ED0E94060E83E001C081E0A9
:101C700080934303089561ED88ED0E94060E109253
:101C8000430308950F931F93CF93DF938C01269AFC
:101C90000E94F70D219A229A2398209A80E58CBD04
:101CA00081E08DBD259868E188E80E94060E60E21B
:101CB00088E70E94060E60E088E70E94060EC0E0FA
:101CC000D0E088E60E94F90D219680FD06C0CF3F46
:101CD0008FEFD807B1F78FEF1DC061EC88ED0E9440
:101CE000060E60E680ED0E94060E64E088EE0E941B
:101CF000060E88EE0E94F90D82FFFBCFC8010E94FC
:101D0000120E60E288EC0E94060E61E080E80E94FC
:101D1000060E80E0DF91CF911F910F9108958FEE15
:101D200093E00E94420E8AE893E09093C003809370
:101D3000BF0384E493E09093C2038093C1032EE732
:101D400033E03093A4032093A30390935B03809329
:101D50005A030895EF92FF920F931F93CF93DF934F
:101D60008FEE93E00E94BC106FEE73E08EED93E077
:101D70000E94A41D6FEE73E08DEC93E00E94A41D01
:101D8000CFEED3E0D093B403C093B3038FE291E0DE
:101D90009093B0038093AF038DE491E09093B203EE
:101DA0008093B1031092C7031092C8031092C90325
:101DB0001092CA031092CB031092B603E8E0EE2E05
:101DC000E092B703FCE3FF2EF092B8031092B90340
:101DD0001092BA0314E01093BB031092BC0310924C
:101DE000BD031093BE0301E00093C6031092C50328
:101DF0001092C3031092C0031092BF031092C2034B
:101E00001092C1036FEA73E0CE010E94D208D09312
:101E10009B03C0939A0383E591E09093970380938B
:101E2000960381E791E09093990380939803109231
:101E3000A9031092AA031092AB031092AC03109264
:101E4000AD0310929D03E0929E03F0929F031092C7
:101E5000A0031092A1031093A2030093A803109271
:101E6000A7031092A5031092A4031092A30366E99E
:101E700073E0CE010E94D2088BE991E090938B032E
:101E800080938A0390937F0380937E0390937303E0
:101E9000809372039093670380936603D0935203F9
:101EA000C093510387E791E090934E0380934D03D5
:101EB00085E991E09093500380934F031092600363
:101EC00010926103109262031092630310926403F4
:101ED00010925403E0925503F09256031092570368
:101EE000109258031093590300935F0310925E03FE
:101EF00010925C0310925B0310925A036DE473E03E
:101F0000CE010E94D20881EA91E09093450380932C
:101F10004403DF91CF911F910F91FF90EF900895AF
:101F20008091F704816084608093F70480E091E001
:101F30000E94D8240E942B2584B7877F84BF88E124
:101F40000FB6F89480936000109260000FBE90E08E
:101F500080E80FB6F89480936100909361000FBE03
:101F60000E9440220E949B228091E2008460809324
:101F7000E200789480910D058430E1F78091F704B8
:101F800080FF09C02FEF83ED90E321508040904007
:101F9000E1F700C0000081E0809370040E943525C5
:101FA000FDCF0F931F93CF93DF93EC01DC011296CB
:101FB00088E0F80101900D928A95E1F70E94FD0FEB
:101FC0007B876A87DF91CF911F910F9108950F93BF
:101FD0001F93CF93DF93EC01DC01129685E0F801AB
:101FE00001900D928A95E1F70E94FD0F78876F832B
:101FF000DF91CF911F910F9108950C9462108F92F1
:102000009F92AF92BF92CF92DF92EF92FF920E9487
:10201000AF344B015C0120E030E04AE755E40E9418
:1020200065356B017C0120E030E040E85FE30E9411
:102030007A3487FD24C020E03FEF4FE757E4C70123
:10204000B6010E9461351816ACF420E030E040E2A1
:1020500051E4C501B4010E9465350E94833420E932
:1020600031E06115710581F0C9010197F1F7615007
:102070007109F7CFC701B6010E94833402C061E045
:1020800070E0CB010197F1F7FF90EF90DF90CF90D8
:10209000BF90AF909F908F90089582E084BD93E0B1
:1020A00095BD9AEF97BD80936E0008952FB7F89471
:1020B0008091710490917204A0917304B0917404A2
:1020C0002FBF08952FB7F894609171047091720436
:1020D00080917304909174042FBF0895CF92DF9282
:1020E000EF92FF920F931F932FB7F89440917104D2
:1020F0005091720460917304709174042FBF6A014F
:102100007B01EE24FF248C0120E030E0C016D106D4
:10211000E206F30610F441505109481B590BCA015D
:102120001F910F91FF90EF90DF90CF9008951F9235
:102130000F920FB60F9211248F939F93AF93BF937B
:102140008091710490917204A0917304B091740411
:102150000196A11DB11D8093710490937204A09308
:102160007304B0937404BF91AF919F918F910F90BE
:102170000FBE0F901F901895FC0187EA91E09183A4
:1021800080831582108681E0818712869F012E5FF1
:102190003F4F37832683128288E083838CE38483D6
:1021A00080E090E041E0DF01A80FB91F1D961C926E
:1021B0001D971E964C931E971F961C921F971C9658
:1021C0003C932E931B9705968B34910561F7EA5843
:1021D000FF4F108281E1809379040895CF92DF92BE
:1021E000EF92FF920F931F93CF93DF931F92CDB780
:1021F000DEB77C016623B1F18C01C12CD12CF80132
:10220000EA5AFF4F80819181009719F1DC01ED912D
:10221000FC910084F185E02D69830995698186131D
:1022200018C0F601BB96EE0FFF1FEE0DFF1D80815B
:102230009181DC01ED91FC910480F581E02D0F90FE
:10224000DF91CF911F910F91FF90EF90DF90CF9092
:102250000994BFEFCB1ADB0A0E5F1F4FE0E1CE16E9
:10226000D10469F680E00F90DF91CF911F910F911B
:10227000FF90EF90DF90CF90089520E030E041E0B4
:10228000FC01E20FF31F5585561739F04F5F2B5FA6
:102290003F4F4031A9F780E00895842F0895EF92D1
:1022A000FF921F93CF93DF9300D0CDB7DEB77C01B1
:1022B000162F67FD5FC0283008F05CC0442331F062
:1022C000DC0115968C91873009F454C060E0C70199
:1022D0002A8349830E943D112A814981882309F478
:1022E00049C0E82FF0E0111123C085E08E9FD00196
:1022F0008F9FB00D1124AE0DBF1D442359F081E412
:1023000018968C93D70115968C9115978F5F15961B
:102310008C9303C081E018968C9385E08E9FD0014A
:102320008F9FB00D1124AE0DBF1D18968C9123C048
:10233000612F6770660F660F660F442361F060645B
:10234000D70115968C9115978F5F15968C93877092
:10235000687F682B03C02770687B622B85E08E9FA7
:10236000D0018F9FB00D1124AE0DBF1D18966C9338
:10237000862F01C080E00F900F90DF91CF911F91C9
:10238000FF90EF900895CF93DF93EC01611102C0AD
:1023900006960FC00E943D11882349F09E0145E03A
:1023A000849F200D311D1124C901069602C080E0D2
:1023B00090E0DF91CF910895CF93DF931F92CDB737
:1023C000DEB749830E94C3114981009789F0DC017F
:1023D000ED91FC911197309759F013969C9180E004
:1023E000891731F02081241731F033968F5FF8CFB1
:1023F00080E090E001C0CF010F90DF91CF91089570
:10240000EF92FF921F93CF93DF931F92CDB7DEB76A
:10241000162F79012115310569F049830E94C311F6
:10242000FC014981009741F01283F182E0824383ED
:1024300080E003C088ED01C086ED0F90DF91CF9161
:102440001F91FF90EF9008952E980895CF93DF93FA
:102450001F92CDB7DEB789830E94241289818EBD79
:102460000DB407FEFDCF1EBC0DB407FEFDCF0E94CC
:10247000F70D8EB50F90DF91CF910895CF93DF9335
:1024800000D0CDB7DEB76A8389830E942412898188
:1024900082608EBD6A810DB407FEFDCF6EBD0DB4A6
:1024A00007FEFDCF0F900F90DF91CF910C94F70DA9
:1024B0008F929F92BF92CF92DF92EF92FF920F93F3
:1024C0001F93CF93DF931F92CDB7DEB74C01B62E8B
:1024D000690149830E94C3117C014981009709F475
:1024E00043C0FC0180819181892B09F43FC06B2D91
:1024F000C4010E94DC11F601918380830097C1F131
:10250000FC01228126952695822F90E0409764F465
:1025100041E050E060E070E004C0440F551F661FCA
:10252000771F2A95D2F702C040E050E84150510988
:10253000F801518340836B2D80EE0E943E1288ED9E
:102540000E942612F7019481992339F0F401EA5888
:10255000FF4F60816260682B02C0682F697F88ED41
:102560000E943E1280E005C086ED03C087ED01C0E9
:102570008BED0F90DF91CF911F910F91FF90EF9016
:10258000DF90CF90BF909F908F9008958F929F92F1
:10259000AF92BF92CF92DF92EF92FF920F931F9371
:1025A000CF93DF931F92CDB7DEB7A62E8901498363
:1025B0000E94FD0F6B017C0188E8C80E83E1D81EE4
:1025C000E11CF11C812C912CB12C20E04981A42A22
:1025D00029830E94FD0F6C197D098E099F092981AD
:1025E00097FF2DC06A2D80EF0E943E120E94FD0FC2
:1025F0006C197D098E099F0997FF09C088EC0E941C
:10260000261287FFF3CF60E888EC0E943E1288EF25
:102610000E942612282F2F70243019F02E3059F0E6
:102620000EC0EFEF8E1A9E0A0115110589F2801671
:10263000910671F604C0B394F3E0BF12C9CF822FA4
:102640000F90DF91CF911F910F91FF90EF90DF904E
:10265000CF90BF90AF909F908F9008959F92AF9230
:10266000BF92CF92DF92EF92FF920F931F93CF937F
:10267000DF937C01B42E122FAA24A394DC01A60FB1
:10268000B11DA60FB11D6D0186E5C80ED11CC42F6A
:10269000D0E0AB96CC0FDD1FCE0DDF1DD6018D91A6
:1026A0009C91DC01ED91FC910280F381E02D202FC3
:1026B000412F6B2D0995803EC1F4B1100BC061E034
:1026C00088EE0E943E1266E670E080E090E00E9494
:1026D000FF0F15C088819981DC01ED91FC91028486
:1026E000F385E02D612F09950AC08D3031F48FEF0D
:1026F0008A0D833008F042C017C0811142C0F60134
:1027000080819181DC01ED91FC910190F081E02DBF
:10271000202F412F6B2D0995982EBDE08B130CC0F7
:102720008FEF8A0D833050F464E670E080E090E033
:102730000E94FF0FA394B2CF882311F1B1100BC0F8
:1027400061E088EE0E943E1266E670E080E090E074
:102750000E94FF0F11C0EB2DF0E0BB96EE0FFF1FA4
:10276000EE0DFF1D80819181DC01ED91FC910284D1
:10277000F385E02D612F0995892D03C08DE001C0FF
:1027800080E0DF91CF911F910F91FF90EF90DF904C
:10279000CF90BF90AF909F9008950F931F93CF93CA
:1027A000DF9300D0CDB7DEB78A016A8389830E94A8
:1027B0002412898182608EBDF8016A81862F882368
:1027C00039F00DB407FEFDCF91919EBD8150F7CF3A
:1027D000060F111D0DB407FEFDCF0E94F70DC801B5
:1027E0000F900F90DF91CF911F910F9108952F922D
:1027F0003F924F925F926F927F928F929F92AF9291
:10280000BF92CF92DF92EF92FF920F931F93CF93DD
:10281000DF9300D000D01F92CDB7DEB77D836C83ED
:102820005A016901FB0121808FEF820D803408F08D
:102830006FC00E94FD0F2B013C01F8E84F0EF3E141
:102840005F1E611C711CEC81FD81828180FF02C0D2
:1028500060E801C060E488EE0E943E1220E0312C66
:10286000C114D10409F444C076012C143D0408F4C9
:102870007101EA82A8016E2D80E10E94CD136E2DB8
:1028800088E30E943E12EC81FD816081606280EFEE
:102890000E943E1288EC0E94261287FFFBCF60E860
:1028A00088EC0E943E1288EF0E942612282F2F707B
:1028B000812C912C1982222309F46BC02B830E9456
:1028C000FD0F64197509860997092B8197FF61C06F
:1028D000263001F12E3009F456C0243049F4FFEFC0
:1028E0008F1A9F0AA114B10459F18A149B0441F56F
:1028F00088EF2B830E94261285FB882780F9EC81C4
:10290000FD81928180FB90F992832B81822F46C0BA
:102910008AED44C088EF0E94261285FB882780F943
:1029200091E08927EC81FD81928180FB90F992836F
:1029300090FF02C060E801C060E488EE0E943E1291
:1029400060E088E30E943E12F801608180E10E940D
:102950003E126A8188E30E943E12EC81FD81608113
:10296000606280EF0E943E1288EC0E94261287FF70
:10297000FBCF60E888EC0E943E1288EF0E9426128E
:10298000282F2F7098CF89818F5F89838330C1F67C
:10299000AFCFCE18DF080E0D1F1D62CF0F900F9026
:1029A0000F900F900F90DF91CF911F910F91FF909B
:1029B000EF90DF90CF90BF90AF909F908F907F90DF
:1029C0006F905F904F903F902F9008952F923F927D
:1029D0004F925F926F927F928F929F92AF92BF922F
:1029E000CF92DF92EF92FF920F931F93CF93DF93DB
:1029F00000D000D0CDB7DEB75C017C836B834A0189
:102A00007901F901C080D180FB014180F901118277
:102A10001082FB01828181FF02C060E201C060E19F
:102A200088EE0E943E123C2C9401EB81FC81408197
:102A300060E0C5010E94C612582EF6E08F1316C042
:102A400088EF0E9426128295817091E08927EB81A0
:102A5000FC81928180FB91F9928391FF02C060E238
:102A600001C060E188EE0E943E12DECF81115AC0A3
:102A700088EC0E94261282FF53C080E30E94261237
:102A8000282E282F30E0C216D30608F4232CF70195
:102A900020813181622C712CA601421B530B57FF00
:102AA00002C040E050E09301461557050CF49A012E
:102AB00029833A830E942412F8E0FEBD3A812981DD
:102AC0000DB407FEFDCFF801822F800F8E1739F06D
:102AD0001EBC0DB407FEFDCF4EB54193F7CF020FDC
:102AE000131F0E94F70D64E088EC0E943E12F7016C
:102AF00020813181260D371D31832083241420F05D
:102B00002C153D0508F490CF88EF0E94261282957F
:102B10008170EB81FC81928180FB91F9928302C0EC
:102B200030EF532E852D0F900F900F900F90DF9167
:102B3000CF911F910F91FF90EF90DF90CF90BF90BA
:102B4000AF909F908F907F906F905F904F903F904D
:102B50002F9008952F923F924F925F926F927F92A3
:102B60008F929F92AF92BF92CF92DF92EF92FF929D
:102B70000F931F93CF93DF93CDB7DEB762970FB656
:102B8000F894DEBF0FBECDBF3C01542ED22E402E96
:102B90005E2D2FA038A4E9A4FAA4188A1F861E86E9
:102BA0001D868E01035F1F4F9E01215F3F4F598B92
:102BB0000E9458125989811193C0D9824A825B833D
:102BC000CC82BE82AD8298868F82AE014F5F5F4F0E
:102BD00068E080E20E94CD132D853E85452D60E1A1
:102BE000C3010E94C612182F811179C0BD2CBB1CD5
:102BF000BB24BB1CE114F10409F465C0EF85F8891E
:102C00008281BB2009F452C0826082836401AA24BD
:102C1000A394C114D10409F454C03C862B864D857D
:102C20005E856F85788987019E01255F3F4FC301CF
:102C30000E94E614182F8630B1F42F85388988EF6A
:102C4000298B3A8B0E94261285FB882780F98A25DA
:102C500029893A89D90112969C91129780FB91F9A2
:102C600012969C93D6CF81113AC0EBA5FCA5309764
:102C7000A1F00190F081E02D0190F081E02DC401E0
:102C80008C199D099A8789876B857C859E01275FB2
:102C90003F4FA7018BA59CA509958B859C85C81ADC
:102CA000D90A8215930508F0B4CF0DC081608283E4
:102CB0004D855E8587019101BF01C3010E94F71315
:102CC000182F11110CC02D853E85BB2011F060EA34
:102CD00001C060E8452DC3010E94C61201C0812FCA
:102CE00062960FB6F894DEBF0FBECDBFDF91CF91D5
:102CF0001F910F91FF90EF90DF90CF90BF90AF901A
:102D00009F908F907F906F905F904F903F902F900B
:102D100008958F929F92AF92BF92CF92EF920F93AE
:102D20001F931F921F921F930F933F932F9349015D
:102D3000A12CB12CCC24C394E12C06E020E80E9405
:102D4000AA150F900F900F900F900F900F901F915A
:102D50000F91EF90CF90BF90AF909F908F9008957C
:102D60008F929F92AF92BF92CF92EF92FF920F936A
:102D70001F921F92FF92EF923F932F934901A12C34
:102D8000B12C52E0C52EE02E06E020E80E94AA15E4
:102D90000F900F900F900F900F900F900F91FF904A
:102DA000EF90CF90BF90AF909F908F9008953F92FB
:102DB0004F925F926F927F928F929F92AF92BF924B
:102DC000CF92DF92EF92FF920F931F93CF93DF93F7
:102DD000CDB7DEB7C054D1090FB6F894DEBF0FBE31
:102DE000CDBF3C01562E442E322EB02ECE01019680
:102DF0006C017C01022F29E030E0C3010E94B01673
:102E000081111BC08B809C801F93BF92DF92CF9259
:102E10001F9280E48F93A12CB12C62E0C62EE32C8C
:102E200006E020E8442D652DC3010E94AA150F90ED
:102E30000F900F900F900F900F90C05CDF4F0FB668
:102E4000F894DEBF0FBECDBFDF91CF911F910F91E0
:102E5000FF90EF90DF90CF90BF90AF909F908F90BA
:102E60007F906F905F904F903F9008958F929F92C8
:102E7000AF92BF92CF92EF920F93CF931F921F9278
:102E80001F921F921F921F92812C912CA12CB12C6A
:102E9000C12CE22E05E020E00E94AA15C82F6CE2AA
:102EA00071E080E090E00E94FF0F0F900F900F9074
:102EB0000F900F900F908C2FCF910F91EF90CF909C
:102EC000BF90AF909F908F9008958F929F92AF92F6
:102ED000BF92CF92EF920F931F921F921F921F9259
:102EE0001F921F92812C912CA12CB12CC12CE22E6F
:102EF00009E020E00E94AA150F900F900F900F900C
:102F00000F900F900F91EF90CF90BF90AF909F9048
:102F10008F900895AF92BF92CF92DF92EF92FF927F
:102F20000F931F93CF93DF9300D000D0CDB7DEB7C0
:102F30007C01690158011C821B821A8219828E0150
:102F40000F5F1F4F9E012D5F3F4F0E94581281114E
:102F500009C049815A816B817C8185019601C70135
:102F60000E94E6140F900F900F900F90DF91CF9179
:102F70001F910F91FF90EF90DF90CF90BF90AF9097
:102F80000895CF92DF92FF920F931F93CF93DF9319
:102F900000D0CDB7DEB76C01662309F442C0062F1E
:102FA00010E085E0689FB0011124F601E60FF71FDD
:102FB0008085282F277086FF19C031E0E5E0FE2EBE
:102FC000F601F39EE00DF11D11248085869586950E
:102FD000869587708217E1F03F5F303188F3F60104
:102FE0008581821303C02150F601258385E0809FEF
:102FF000F001819FF00D1124EC0DFD1D108681E084
:103000008187128682E0C80ED11CD782C68209C091
:10301000632FC6012A8339830E94C1172A8139810F
:10302000CFCF0F900F90DF91CF911F910F91FF9015
:10303000DF90CF900895CF93DF93EC016134A1F43A
:10304000FC01855B9F4F41E09E012E5F3F4F15863F
:1030500046871786348723873596E817F907B9F727
:103060001D82DF91CF9108950E943D11682FCE01FE
:10307000DF91CF910C94C1170F931F93CF93DF93E0
:10308000EC01022FCA3F8FEFD80711F486ED29C05B
:103090008E819F81892B01F12A87242F40E0CE0168
:1030A0000E944F11182F8823C9F0682FCE010E946B
:1030B000C311009759F3FC010483212F40E060E025
:1030C000CE010E943617082F882351F0612FCE01C0
:1030D0000E941B18802F05C087ED03C084ED01C03E
:1030E00080E0DF91CF911F910F9108952F923F9231
:1030F0004F925F926F927F928F929F92AF92BF9208
:10310000CF92DF92EF92FF920F931F93CF93DF93B3
:10311000CDB7DEB766970FB6F894DEBF0FBECDBF52
:103120007C01862E742E922E1B8A88E08C8B8CE379
:103130008D8BD701ED91FC910190F081E02D60E045
:10314000C70109956C01009709F4ABC0FC01A08090
:10315000B180CE0143969183808394828E010F5F6C
:103160001F4F22E130E040E060E0C7010E94891675
:10317000D601AD92BC928111ACC029843A844B84B3
:103180005C84BD81BE8B1E815701612C6501E6E523
:10319000CE0ED11CD6018D919C91009789F1DC0156
:1031A000ED91FC910084F185E02D0995811128C0F5
:1031B000F60180819181DC01ED91FC910088F1891B
:1031C000E02D612F09958823D9F0F6018081918146
:1031D000DC01ED91FC910484F585E02DA201B101A3
:1031E0000995811160C0F60180819181DC01ED912A
:1031F000FC910684F785E02D6E890995811153C0F5
:103200006394B2E0AB0EB11CE0E16E12BFCF570188
:10321000612C6501F6E5CF0ED11CD6018D919C91F4
:10322000009789F1DC01ED91FC910084F185E02D9E
:103230000995811128C0F60180819181DC01ED9111
:10324000FC910088F189E02D612F09958823B1F167
:10325000F60180819181DC01ED91FC910484F5857A
:10326000E02DA201B101099581110DC0F601808107
:103270009181DC01ED91FC910684F785E02D6E894A
:1032800009958823D9F06394B2E0AB0EB11CE0E15C
:103290006E12BFCF292D472D682DC7010E943C1803
:1032A00018C086ED16C0092D272D482D662DC701A3
:1032B0000E942E13813D09F4A3CF0BC0092D272DA9
:1032C000482D662DC7010E942E13982F977F913DA0
:1032D000D1F266960FB6F894DEBF0FBECDBFDF9178
:1032E000CF911F910F91FF90EF90DF90CF90BF9003
:1032F000AF909F908F907F906F905F904F903F9096
:103300002F900895FF920F931F93CF93DF93EC01BB
:103310001D990EC088EC0E94261285FF05C0CE01C3
:103320000E94120E60E201C060E088EC0E943E1232
:1033300080914303813051F058F0823029F083307E
:1033400039F5FF24F3940DC0F12C0BC083E106C0C6
:1033500080917904807F8031D9F081E18093790474
:1033600017C080917904807F803199F40E94FD0F0D
:1033700068537F4F8F4F9F4F60937504709376040F
:10338000809377049093780480E28093790401C05D
:10339000F12C00E010E0FE01E00FF11FEA5AFF4FB0
:1033A00080819181009739F0DC01ED91FC910680DC
:1033B000F781E02D09950E5F1F4F0032110559F777
:1033C00080917904803409F446C070F4803269F148
:1033D0008033D9F1813109F088C0FE01EA58FF4FEE
:1033E000108200E010E00AC0813509F45AC080382C
:1033F00009F46AC0803509F078C03CC0FE01E00FD6
:10340000F11FEA5AFF4F80819181009739F0DC016A
:10341000ED91FC910480F581E02D09950E5F1F4F21
:103420000032110559F782E15EC00E94FD0F009144
:103430007504109176042091770430917804601B14
:10344000710B820B930B97FD50C061E088EE0E94D8
:103450003E1280E448C088EE0E94261280FD45C0DE
:1034600088ED0E942612682F686088ED0E943E1247
:1034700080E539C088EC0E94261286FF36C081E5BF
:10348000809379040E94FD0F6C5E7F4F8F4F9F4F9A
:103490006093750470937604809377049093780416
:1034A00024C00E94FD0F00917504109176042091B4
:1034B000770430917804601B710B820B930B97FD9E
:1034C00014C080E8809379042F2D40E060E0CE01A5
:1034D0000E947618882331F0823D39F080937A0477
:1034E00080EA01C080E980937904DF91CF911F9138
:1034F0000F91FF9008958F929F92AF92BF92CF92BB
:10350000EF920F93CF93DF93CDB7DEB7C054D109BD
:103510000FB6F894DEBF0FBECDBF5F934F939E01F1
:103520002F5F3F4F3F932F931F9220E42F9320E86C
:10353000822E912C5B0132E2C32EE12C06E021E8C1
:1035400040E0FC016681848195810E94AA150F905C
:103550000F900F900F900F900F90C05CDF4F0FB641
:10356000F894DEBF0FBECDBFDF91CF910F91EF90EA
:10357000CF90BF90AF909F908F9008958F929F9221
:10358000AF92BF92CF92DF92EF92FF920F938E2C69
:10359000A42EB12C1F921F92DF92CF92FF92EF9236
:1035A0009F2CC22EE02E09E021E2462FFC0166810D
:1035B000848195810E94AA150F900F900F900F9013
:1035C0000F900F900F91FF90EF90DF90CF90BF90F2
:1035D000AF909F908F9008958F929F92AF92BF92DD
:1035E000CF92EF920F93A62EB12C1F921F921F9293
:1035F0001F921F921F92812C912CC22EE42E0AE062
:1036000021E240E0FC016681848195810E94AA1537
:103610000F900F900F900F900F900F900F91EF90D1
:10362000CF90BF90AF909F908F9008958F929F9270
:10363000AF92BF92CF92EF920F93A62EB12C1F9212
:103640001F921F921F921F921F92812C912CC12CAE
:10365000E42E0BE021E240E0FC016681848195814B
:103660000E94AA150F900F900F900F900F900F903F
:103670000F91EF90CF90BF90AF909F908F90089553
:10368000FC018285089581E0693009F080E00895A9
:10369000CF93DF93EC018A819B81DC01ED91FC915A
:1036A0000480F581E02D6A8509958A85813439F495
:1036B000EA81FB81EA58FF4F8081846080831A860B
:1036C0001B861C861D861E861F86188A80E0DF9159
:1036D000CF9108958F929F92AF92BF92CF92EF9227
:1036E0000F93A42EB12CB22A1F921F921F921F92E9
:1036F0001F921F92812C912CC12CE62E01E023E217
:1037000040E0FC016285828193810E94AA150F909E
:103710000F900F900F900F900F900F91EF90CF9010
:10372000BF90AF909F908F9008958F929F92AF928D
:10373000BF92CF92EF920F93A62EB12C1F921F92A1
:103740003F932F935F934F934A01C12CE12C00E0EC
:1037500023EA40E0FC016285828193810E94AA15E0
:103760000F900F900F900F900F900F900F91EF9080
:10377000CF90BF90AF909F908F9008958F929F921F
:10378000AF92BF92CF92EF920F93A42EB12CB22A98
:103790001F921F921F921F921F921F92812C912C99
:1037A000C12CE62E03E023E240E0FC016285828129
:1037B00093810E94AA150F900F900F900F900F9079
:1037C0000F900F91EF90CF90BF90AF909F908F9000
:1037D00008952F923F924F925F926F927F928F92B5
:1037E0009F92AF92BF92CF92DF92EF92FF920F9390
:1037F0001F93CF93DF93CDB7DEB7E9970FB6F89459
:10380000DEBF0FBECDBF3C01362E242EDC0112964A
:10381000ED90FC9013971A968C91811103C1D701FA
:10382000ED91FC910190F081E02D60E0C70129AF9E
:1038300009956C0129AD009709F4F6C0FC01A08040
:10384000B180A114B10409F4F1C04301F4E08F0E7A
:10385000911CDC0111969C928E9214962C93FE0181
:1038600031962F018F0128E030E040E060E0D30185
:1038700012968D919C9113970E948916F6011482DD
:103880008111DAC019818D81893009F0D1C0D70149
:10389000ED91FC910280F381E02D222D41E0632D1A
:1038A000C7010995F3018287882309F4C3C098856D
:1038B0009583282F40E060E0828193810E94361733
:1038C000082F882391F0D601AD92BC92D701ED91DB
:1038D000FC910480F581E02DD3011A966C91C7010B
:1038E0000995F3011286102FABC0113208F010E2D7
:1038F000D601AD92BC9211110BC0940142E0F301CC
:103900006285828193810E940012811198C011C04A
:10391000212F30E0820140E0D3011A966C911A9772
:1039200012968D919C9113970E948916811187C0E0
:10393000E4CF1F921F925F924F921F9288E08F9365
:1039400088E0882E912CA12CB12C99E2C92EE12C73
:1039500006E020EA40E0F3016285828193810E94C3
:10396000AA15182F0F900F900F900F900F900F9097
:10397000811166C08B81D3011B968C931B977201BA
:1039800000E028E030E040E01A966C911A97129619
:103990008D919C9113970E94B016811150C02B817C
:1039A0003C8140E0F3016285828193810E94B016E0
:1039B000811145C0298130E0CE0181967C0140E033
:1039C000D3011A966C911A9712968D919C91139728
:1039D0000E94B016811133C02E8140E0F301628550
:1039E000828193810E946517811129C001E0D30172
:1039F0001B968C911B97801740F020E0402F68E0C9
:103A0000C3010E94BE1B0F5FF2CF1296ED91FC9195
:103A10001397EA58FF4F80818460808381E050963D
:103A20008C930EC019ED0CC016ED0AC017ED08C03E
:103A300011ED06C014ED04C0F601B182A082182F6A
:103A4000812FE9960FB6F894DEBF0FBECDBFDF9190
:103A5000CF911F910F91FF90EF90DF90CF90BF908B
:103A6000AF909F908F907F906F905F904F903F901E
:103A70002F900895BF92CF92DF92EF92FF920F9313
:103A80001F93CF93DF9300D000D0CDB7DEB77C017A
:103A9000B62E19821A821B821C8220E0462F61E119
:103AA0000E946A1B20E04B2D60E1C7010E946A1B47
:103AB00020E04B2D64E0C7010E94BE1B23E0C22E14
:103AC000D12C9E012F5F3F4F44E050E06B2DC7018A
:103AD0000E94951B882301F120E04B2D64E1C70172
:103AE0000E946A1B20E04B2D60E1C7010E946A1B07
:103AF00064E170E080E090E00E94FF0F0F900F9073
:103B00000F900F90DF91CF911F910F91FF90EF9049
:103B1000DF90CF90BF90089509811A812B813C815D
:103B20001D7F0330114020413105B1F264E670E0A1
:103B300080E090E00E94FF0F81E0C81AD108C11414
:103B4000D10409F0BECFC8CFCF93DF93FC0181EB46
:103B500091E0918380837383628312861386148637
:103B6000158616861786108A148288E085839CE362
:103B7000968391E09783808784E081876115710542
:103B8000B9F0CB01A0E0B0E0EC01CA5ADF4F2881C8
:103B90003981232B41F49B96AA0FBB1FA60FB71F99
:103BA000ED93FC9305C011960296A031B10561F723
:103BB000DF91CF910895DF92EF92FF920F931F93C1
:103BC000CF93DF93EC01D62E7A01FA0100811181A7
:103BD000228133810130F3E01F07F1E02F07310527
:103BE000D1F060F40115E1E01E072E07310571F1F7
:103BF000013011402140310571F062C0033081E095
:103C0000180780E128073105E1F103301340204116
:103C10003105B9F155C080917B04811151C020E07C
:103C20004D2D61E1CE010E946A1B20E04D2D60E127
:103C3000CE010E946A1B20E04D2D64E0CE010E945F
:103C4000BE1B81E080937B0481EB3BC020E0462FCC
:103C500061E1CE010E946A1B20E04D2D60E1CE01A2
:103C60000E946A1B10927B046A8567708D2D877095
:103C7000660F660F660F682B8A819B810E94EE108B
:103C80001FC020E04D2D64E1CE010E946A1B20E0A0
:103C90004D2D60E1CE010E946A1B64E170E080E07E
:103CA00090E00E94FF0F6A85F7012181269521701F
:103CB00067704D2D8A819B810E94761810927B043B
:103CC00080E0DF91CF911F910F91FF90EF90DF90F7
:103CD0000895EF92FF920F931F93CF93DF93CDB789
:103CE000DEB72E970FB6F894DEBF0FBECDBF7C01B6
:103CF00081E090E09E878D878E010F5F1F4F9E01B0
:103D0000235F3F4F41E0F7016285828193810E94EA
:103D10008A17811151C002E011E089818023D1F01E
:103D200019861A861B861C869E01275F3F4F44E03A
:103D300050E0612FC7010E94951B81110BC0AE019D
:103D4000475F5F4F612FC7010E94DB1D813B99F1E7
:103D5000811132C0000F1F5F1830F9F611E0F70132
:103D60008385811740F119861A861B861C869E0161
:103D7000275F3F4F44E050E0612FC7010E94951B31
:103D8000811117C089859A85877091708130914023
:103D900081F48B859C8581609C878B87AE01475F12
:103DA0005F4F612FC7010E94DB1D813B21F0811114
:103DB00003C01F5FD4CF80E02E960FB6F894DEBF0D
:103DC0000FBECDBFDF91CF911F910F91FF90EF906C
:103DD00008950F931F93CF93DF93EC018889882375
:103DE000F1F00E94FD0F0C851D852E853F85601B1F
:103DF000710B820B930B97FD0FC0CE010E94691EC1
:103E0000182F0E94FD0F6C597F4F8F4F9F4F6C876B
:103E10007D878E879F8701C010E0812F01C080E0E1
:103E2000DF91CF911F910F910895CF93DF93FC0104
:103E3000EA0180819181892B21F580E028C0888169
:103E40009981892BD1F3DB018D919C91DC015C91EF
:103E5000238130E0241B310980819181820F931FDF
:103E6000DC015C93828181508283888199810197F2
:103E700099838883DB018D919C91119701968D9395
:103E80009C9342814111DBCF8381828381E0DF916A
:103E9000CF910895809184040895CF93DF9300D04B
:103EA0001F92CDB7DEB720910D05243019F523E020
:103EB00029839B838A832093E9008FEF9091E80008
:103EC000815095FD06C095ED9A95F1F7000081119E
:103ED000F5CF8091E80085FF0DC040E050E063E041
:103EE00070E0CE0101960E9431218091E8008E772A
:103EF0008093E8000F900F900F90DF91CF9108957D
:103F0000CF93DF9300D01F92CDB7DEB720910D0580
:103F1000243021F522E029839B838A8383E08093E8
:103F2000E9008FEF9091E800815095FD06C095ED76
:103F30009A95F1F700008111F5CF8091E80085FF97
:103F40000DC040E050E063E070E0CE0101960E94B9
:103F500031218091E8008E778093E8000F900F90D8
:103F60000F90DF91CF91089520910D052430F1F449
:103F700022E02093E9002FEF3091E800215035FD39
:103F800006C035ED3A95F1F700002111F5CF2091EB
:103F9000E80025FF0BC040E050E065E070E00E94C3
:103FA00031218091E8008E778093E8000895CF93C7
:103FB000DF93EC0180910D05843039F581E0809329
:103FC000E9008FEF9091E800815095FD06C095EDD6
:103FD0009A95F1F700008111F5CF8091E80085FFF7
:103FE00014C040E050E068E070E0CE010E94312152
:103FF0008091E8008E778093E80088E0FE01ACE7CE
:10400000B4E001900D928A95E1F7DF91CF91089588
:1040100080910C05811109C00E9440220E949B22C0
:104020008091E20084608093E200089510920C0574
:104030000895089542E061EC81E00E94DB2142E0B6
:1040400061EC82E00E94DB2142E061EC83E00C94B1
:10405000DB2180910F05833009F453C030F48130A7
:1040600071F0823009F48CC008958A3009F478C068
:104070008B3009F45EC0893009F09AC020C080916D
:104080000E05813A09F094C08091E800877F809303
:10409000E8008091120590911305892B21F060E0D2
:1040A00080E090E003C068E08CE794E070E00E945C
:1040B0007A218091E8008B778093E80008958091C1
:1040C0000E05813209F074C080911205909113059C
:1040D000892B09F06DC08091E800877F8093E8000C
:1040E0008091E80082FD05C080910D058111F8CF17
:1040F0005FC08091F100809384048091E8008B7709
:1041000053C080910E05813A09F052C0809112058A
:1041100090911305892B09F04BC08091E800877FAF
:104120008093E8008091E80080FFFCCF80910A0135
:1041300036C080910E058132D9F58091120590919B
:104140001305892BA9F58091E800877F8093E8000B
:104150000E94EF218091100580930A010C94F129AF
:1041600080910E05813221F58091E800877F809350
:10417000E8000E94EF218091110580938504089545
:1041800080910E05813AA1F48091E800877F8093A9
:10419000E8008091E80080FFFCCF80918504809347
:1041A000F1008091E8008E778093E8000C94EF2175
:1041B000089508950C94D9200C94262F0C94DC209B
:1041C000292F33272330310599F05CF42130310554
:1041D000D9F122303105E9F584E590E021E132E0C2
:1041E0003CC02132310599F022323105E9F031C06D
:1041F00099278330910568F5FC01EE0FFF1FEB5204
:10420000FE4F20813181FC01EE52FE4F1AC0633017
:1042100000F5E62FF0E0EE0FFF1FE453FE4F208184
:10422000318189E090E019C0633098F4E62FF0E026
:10423000DF01AA0FBB1FAA53BE4F2D913C91ED5336
:10424000FE4F808190E009C082E190E025E632E0F7
:1042500004C080E090E020E030E0FA013183208368
:104260000895CF92DF92EF92FF920F931F93CF9317
:10427000DF937C018B01EA010E941022811131C081
:10428000209731F088819981081B190BE80EF91EDF
:10429000C12CD12C0115110519F18091E80085FD83
:1042A00014C08091E8008E778093E800209741F059
:1042B000888199818C0D9D1D9983888385E011C02B
:1042C0000E941022882331F30CC0F70181917F01F5
:1042D0008093F10001501109FFEFCF1ADF0ADACF06
:1042E00080E0DF91CF911F910F91FF90EF90DF90D1
:1042F000CF900895209114053091150526173707A2
:1043000048F06115710539F42091E8002E7720936B
:10431000E80001C0B901FC0120E061157105B9F1A7
:1043200080910D05882309F440C0853009F43FC011
:104330008091E80083FD3DC08091E80082FF06C0C7
:104340008091E80082FF26C080E008958091E80017
:1043500080FFE3CF2091F3008091F20090E0922B58
:104360006115710551F08830910538F42191209341
:10437000F100615071090196F3CF21E0089709F02F
:1043800020E08091E8008E778093E800C6CF21116D
:10439000C7CFD6CF80910D05882339F0853039F00D
:1043A0008091E80083FFCCCF04C082E0089583E0D1
:1043B000089581E008958F708093E900EBEEF0E0BE
:1043C000808181608083EDEEF0E010826093EC00EC
:1043D00040838091EE00881F8827881F0895809170
:1043E0000E0587FD05C08091E80080FF0EC012C059
:1043F0008091E80082FD05C080910D058111F8CF04
:1044000008958091E8008B7708C080910D05811197
:10441000EACF08958091E8008E778093E8000895B0
:104420008091E4009091E50045E62091EC0020FFAA
:1044300021C02091E80020FD21C020910D052223FC
:1044400089F0253089F02091EB0025FD0FC02091E7
:10445000E4003091E5002817390739F3415041F065
:10446000C901E3CF82E0089583E0089581E00895D3
:1044700084E008952091E80022FFDFCF80E00895D6
:104480000E94AC220E94B422E0EEF0E080818160C4
:104490008083E8EDF0E080818F77808319BCA7ED01
:1044A000B0E08C918E7F8C9380818F7E8083109280
:1044B0000C0508950F931F93CF93DF930E94AC22B6
:1044C0000E94B422C8EDD0E088818F7788838881EC
:1044D0008068888388818F7D888319BC10920D0540
:1044E00010920A0510920B0500EE10E0F801808191
:1044F0008B7F808388818160888342E060E080E0F8
:104500000E94DB21E1EEF0E080818E7F8083E2EE8D
:10451000F0E0808181608083808188608083F80101
:1045200080818E7F8083888180618883DF91CF91B5
:104530001F910F910895E8EDF0E080818F7E8083D8
:10454000E7EDF0E080818160808384E082BF81E0DC
:1045500080930C050C945A22E8EDF0E080818E7F68
:1045600080831092E20008951092DA001092E10028
:1045700008951F920F920FB60F9211242F933F931D
:104580004F935F936F937F938F939F93AF93BF935B
:10459000EF93FF938091E10082FF0BC08091E200D6
:1045A00082FF07C08091E1008B7F8093E1000E9431
:1045B000D7248091DA0080FF1FC08091D80080FF4F
:1045C0001BC08091DA008E7F8093DA008091D90041
:1045D00080FF0DC080E189BD82E189BD09B400FE84
:1045E000FDCF81E080930D050E94082005C019BC15
:1045F00010920D050E9416208091E10080FF19C0E5
:104600008091E20080FF15C08091E2008E7F809350
:10461000E2008091E20080618093E2008091D80006
:1046200080628093D80019BC85E080930D050E94BC
:10463000DA208091E10084FF30C08091E20084FFA5
:104640002CC080E189BD82E189BD09B400FEFDCFA7
:104650008091D8008F7D8093D8008091E1008F7E7B
:104660008093E1008091E2008F7E8093E200809150
:10467000E20081608093E20080910A05882311F0B6
:1046800084E007C08091E30087FF02C083E001C09F
:1046900081E080930D050E94DE208091E10083FF80
:1046A00029C08091E20083FF25C08091E100877FCF
:1046B0008093E10082E080930D0510920A058091BD
:1046C000E1008E7F8093E1008091E2008E7F8093F5
:1046D000E2008091E20080618093E20042E060E0CD
:1046E00080E00E94DB218091F00088608093F000E0
:1046F0000E941920FF91EF91BF91AF919F918F91EF
:104700007F916F915F914F913F912F910F900FBECD
:104710000F901F9018951F920F920FB60F921124B1
:104720002F933F934F935F936F937F938F939F93B9
:10473000AF93BF93CF93EF93FF93C091E900CF70F6
:104740008091EC001092E9008091F000877F8093C7
:10475000F00078940E94C7231092E9008091F00045
:1047600088608093F000C093E900FF91EF91CF91B2
:10477000BF91AF919F918F917F916F915F914F9179
:104780003F912F910F900FBE0F901F9018951F9380
:10479000CF93DF9300D0CDB7DEB7EEE0F5E08091A8
:1047A000F100819385E0E631F807C9F70E942920DE
:1047B0008091E80083FFE7C020910E0530910F053E
:1047C000832F90E08A30910508F0DDC0FC01EA5AA1
:1047D000FF4F0C94DC35203881F0223809F0D3C02B
:1047E000809112058F708093E9008091EB0085FB2A
:1047F000882780F91092E90004C080910B0581118F
:1048000082E09091E800977F9093E8008093F10018
:104810001092F10092C0822F8D7F09F0B4C0222344
:1048200019F0223061F0AFC080911005813009F09D
:10483000AAC0333009F080E080930B0528C0809136
:104840001005811124C0209112052F7009F49BC01E
:104850002093E9008091EB0080FF19C08091EB006C
:10486000333011F4806211C080618093EB0081E0ED
:1048700090E0022E01C0880F0A94EAF78093EA00C4
:104880001092EA008091EB0088608093EB00109218
:10489000E9008091E800877F53C0211174C0109116
:1048A00010051F778091E3008078812B8093E300CF
:1048B0008091E800877F8093E8000E94EF2180913B
:1048C000E80080FFFCCF8091E30080688093E300E4
:1048D000112311F083E001C082E080930D0553C0E5
:1048E0002058223008F04FC0AE014F5F5F4F6091FB
:1048F000120580911005909111050E94E02000970B
:1049000009F441C02091E800277F2093E800BC0112
:1049100089819A810E947A218091E8008B77809327
:10492000E80031C0203879F58091E800877F8093D6
:10493000E80080910A058093F1008091E8008E776D
:104940008093E8000E94EF211EC021111CC09091AD
:1049500010059230C0F48091E800877F8093E800D2
:1049600090930A050E94EF2180910A05811104C0ED
:104970008091E30087FF02C084E001C081E0809362
:104980000D050E941A208091E80083FF0AC08091E3
:10499000E800877F8093E8008091EB00806280933D
:1049A000EB000F900F90DF91CF911F910895089524
:1049B00090938B0480938A040895E0918A04F09187
:1049C0008B04309721F00190F081E02D099480E074
:1049D0000895E0918A04F0918B04309721F00280D1
:1049E000F381E02D09940895E0918A04F0918B04FD
:1049F000309721F00480F581E02D099408952091ED
:104A00008804309189048217930771F09093890488
:104A100080938804E0918A04F0918B04309721F010
:104A20000680F781E02D0994089520918604309145
:104A300087048217930771F090938704809386040C
:104A4000E0918A04F0918B04309721F00084F18585
:104A5000E02D099408950E944D100E948F0E0E942F
:104A600062330E94AE320C9473345F926F927F92E5
:104A70008F929F92AF92BF92CF92DF92EF92FF926E
:104A80000F931F93CF93DF9300D000D01F92CDB729
:104A9000DEB70E94E60C9DE8C92E94E0D92E00E016
:104AA00010E0AA24A394B12C502E802F0E94B20DA6
:104AB0003C01F601E190F1906F01E826F926E1143E
:104AC000F104B1F40F5F1F4F0031110569F78FEF4B
:104AD00089838A831B820E9456108160782F9D8370
:104AE0008C8349815A816B818D810E94F22541C05E
:104AF0008091F70481FD0E94F60D20E030E0450131
:104B0000022E02C0880C991C0A94E2F7C4018E217F
:104B10009F21892B41F129835A826820792081E0E5
:104B2000672809F480E08B830E9456108160782FFB
:104B30009D838C8349815A816B818D810E94F225EE
:104B400049815A816B817C818D810E94172FF801E8
:104B5000EE0FFF1FE357FB4F808191818825992538
:104B60009183808306C02F5F3F4F2031310539F696
:104B7000A9CF0E94162F0E94E73110918C040E9449
:104B8000DD241817D1F00E94DD2480938C040F904F
:104B90000F900F900F900F90DF91CF911F910F9179
:104BA000FF90EF90DF90CF90BF90AF909F908F904D
:104BB0007F906F905F900C94E1320F900F900F9068
:104BC0000F900F90DF91CF911F910F91FF90EF9079
:104BD000DF90CF90BF90AF909F908F907F906F901D
:104BE0005F900895CF93DF93CDB7DEB72B970FB6C5
:104BF000F894DEBF0FBECDBF4F83588769877A8791
:104C00008B878A859B85892B31F05F3F11F080E08F
:104C100003C04F3FE1F781E0811107C04F81588504
:104C200069857A858B850E94172FDE01119686E0B3
:104C3000FD0111928A95E9F785E0FE013796019012
:104C40000D928A95E1F749815A816B817C818D8132
:104C50009E810E94BD2C2B960FB6F894DEBF0FBE2E
:104C6000CDBFDF91CF910895882309F49BC09CEFBD
:104C7000980F913A18F40E94B12E0DC090E2980F4F
:104C8000983058F4877091E001C0990F8A95EAF73F
:104C9000892F0E94F62E0C949B2E9BE5980F933043
:104CA00070F4853A29F0863A31F482E890E005C044
:104CB00081E890E002C083E890E00C94FF2498E53E
:104CC000980F953108F06EC0883A61F1893A69F120
:104CD0008A3A71F18B3A79F18C3A81F18D3A89F106
:104CE0008E3A91F18F3A99F1813BA1F1803BA9F184
:104CF000823BB1F1833BB9F1843BC1F1853BC9F102
:104D0000863BD1F1873BD9F1883BE1F1893BE9F161
:104D10008A3BF1F18B3BF9F18C3B09F03FC08AE211
:104D200092E03EC082EE90E03BC089EE90E038C059
:104D30008AEE90E035C085EB90E032C086EB90E0E3
:104D40002FC083EB90E02CC084EB90E029C087EB70
:104D500090E026C08CEC90E023C08DEC90E020C069
:104D600083E891E01DC08AE891E01AC082E991E0F1
:104D700017C084E991E014C081E292E011C083E29F
:104D800092E00EC084E292E00BC085E292E008C09F
:104D900086E292E005C087E292E002C080E090E007
:104DA0000C9415250895882329F19CEF980F913ACA
:104DB00018F40E94D22E0DC090E2980F983058F44B
:104DC000877091E001C0990F8A95EAF7892F0E94B8
:104DD000FC2E0C949B2E9BE5980F933020F480E0E2
:104DE00090E00C94FF24885A853120F480E090E014
:104DF0000C9415250895882321F00E94F62E0C941A
:104E00009B2E0895882321F00E94FC2E0C949B2E4B
:104E10000895CF92DF92EF92FF920F931F93CF935B
:104E2000DF93CDB7DEB728970FB6F894DEBF0FBE7D
:104E3000CDBF8C0185E0F801DE01119601900D9245
:104E40008A95E1F7F80140813181F2802581229530
:104E50002F7083819481892B31F03F3F31F481E0C1
:104E60004F3F19F403C081E001C080E080FD98C28B
:104E700049833A8389819A812F830E94592E9E8388
:104E800088870E94582E0E94822D4E81E42FE29541
:104E9000EF70F0E0E05AFF4F2F8168850C94DC350D
:104EA000842F807F142F1F70882311F01295107F9C
:104EB000FF2059F0112309F43CC2812F68870E941A
:104EC000062F0E949B2E688534C2862F0E94D3260F
:104ED000112309F465C2812F0E940C2F28960FB66A
:104EE000F894DEBF0FBECDBFDF91CF911F910F9120
:104EF000FF90EF90DF90CF900C949B2E842F807FBB
:104F0000942F9F70E92E803219F0E29480EFE8220E
:104F1000613071F4FF2041F0263008F041C20E9458
:104F2000F32E8E2179F021C0253008F039C21DC042
:104F3000FF20C9F0222331F0F801858180FFF9C1FB
:104F40008F7085838E2D28960FB6F894DEBF0FBE26
:104F5000CDBFDF91CF911F910F91FF90EF90DF9028
:104F6000CF900C94FB262111F8C18E2D66C1242F01
:104F700026952695237030E02115310521F021304A
:104F80003105C9F00DC2FF2021F0862F942F9370B8
:104F900002C080E090E028960FB6F894DEBF0FBE06
:104FA000CDBFDF91CF911F910F91FF90EF90DF90D8
:104FB000CF900C94FF24FF2021F0862F942F937024
:104FC00002C080E090E028960FB6F894DEBF0FBED6
:104FD000CDBFDF91CF911F910F91FF90EF90DF90A8
:104FE000CF900C941525862FFF2019F00E94EF30EA
:104FF00002C00E94573128960FB6F894DEBF0FBE4C
:10500000CDBFDF91CF911F910F91FF90EF90DF9077
:10501000CF900C94DC31842F837009F076C0F110AE
:10502000BFC1262F229526952770220F220F862F8B
:105030008F70C82ED12CE12CF12C022E04C0CC0C88
:10504000DD1CEE1CFF1C0A94D2F764FF10C06FE059
:1050500070E080E090E004C0660F771F881F991F02
:105060002A95D2F7609570958095909503C060E081
:1050700070E0CB01242F269526952370422F50E017
:1050800042305105D1F04330510559F16C297D2949
:105090008E299F294130510541F128960FB6F89489
:1050A000DEBF0FBECDBFDF91CF911F910F91FF905B
:1050B000EF90DF90CF900C94952D6C297D298E294F
:1050C0009F2928960FB6F894DEBF0FBECDBFDF91A3
:1050D000CF911F910F91FF90EF90DF90CF900C94A4
:1050E000A72D0E94952DC701B60128960FB6F894FA
:1050F000DEBF0FBECDBFDF91CF911F910F91FF900B
:10510000EF90DF90CF900C94832DFF2019F0842F27
:10511000817001C08695882309F442C1262F22950B
:1051200026952770220F220F862F8F70C82ED12C24
:10513000E12CF12C022E04C0CC0CDD1CEE1CFF1C5B
:105140000A94D2F764FF10C06FE070E080E090E056
:1051500004C0660F771F881F991F2A95D2F76095A4
:1051600070958095909503C060E070E0CB01242F8E
:10517000269526952370422F50E042305105D1F0FC
:105180004330510559F16C297D298E299F294130E1
:10519000510541F128960FB6F894DEBF0FBECDBF82
:1051A000DF91CF911F910F91FF90EF90DF90CF9003
:1051B0000C94342E6C297D298E299F2928960FB6B0
:1051C000F894DEBF0FBECDBFDF91CF911F910F913D
:1051D000FF90EF90DF90CF900C94462E0E94342EDB
:1051E000C701B60128960FB6F894DEBF0FBECDBF3B
:1051F000DF91CF911F910F91FF90EF90DF90CF90B3
:105200000C94222E603F49F118F4603E48F48CC0A3
:10521000623F09F451C0E0F1633F09F461C084C00A
:10522000162F1F70842F8F71FF2021F00E94CD2D2B
:10523000812F89CE0E94E82D812F28960FB6F894F1
:10524000DEBF0FBECDBFDF91CF911F910F91FF90B9
:10525000EF90DF90CF900C940227FF20A9F025302B
:1052600008F09EC0842F8F7128960FB6F894DEBF89
:105270000FBECDBFDF91CF911F910F91FF90EF90A7
:10528000DF90CF900C94072E263008F089C0EACF2B
:10529000FF20A1F0842F8F7128960FB6F894DEBFFF
:1052A0000FBECDBFDF91CF911F910F91FF90EF9077
:1052B000DF90CF900C94CD2DFF2061F3842F8F7160
:1052C00028960FB6F894DEBF0FBECDBFDF91CF9109
:1052D0001F910F91FF90EF90DF90CF900C94E82DED
:1052E000FF2091F0842F8F7128960FB6F894DEBFBF
:1052F0000FBECDBFDF91CF911F910F91FF90EF9027
:10530000DF90CF900C94BE2D28960FB6F894DEBF98
:105310000FBECDBFDF91CF911F910F91FF90EF9006
:10532000DF90CF900C94B92DFF20A1F0222309F437
:10533000B1CF862F28960FB6F894DEBF0FBECDBF33
:10534000DF91CF911F910F91FF90EF90DF90CF9061
:105350000C943426222309F4B1CF862F28960FB659
:10536000F894DEBF0FBECDBFDF91CF911F910F919B
:10537000FF90EF90DF90CF900C94D3264F70C80130
:1053800028960FB6F894DEBF0FBECDBFDF91CF9148
:105390001F910F91FF90EF90DF90CF900C94C90078
:1053A00028960FB6F894DEBF0FBECDBFDF91CF9128
:1053B0001F910F91FF90EF90DF90CF9008950E9482
:1053C000132F0E94E52E0E949B2E0E9488320E947D
:1053D000DC3180E090E00E94FF2480E090E00C94BB
:1053E00015250E94032F0C94DF290E94592E292F86
:1053F00022952F7030E02C3031054CF42A303105E5
:105400006CF4225031092230310590F407C02C3061
:10541000310551F02F30310539F00AC0803E10F0CF
:10542000803F31F481E0089593FB882780F9089547
:1054300080E00895CF93DF9300D000D01F92CDB7C6
:10544000DEB70F900F900F900F900F90DF91CF91DC
:105450000895CF93DF9300D000D000D0CDB7DEB752
:1054600026960FB6F894DEBF0FBECDBFDF91CF9169
:1054700008951F93CF93DF93C091AD0416E0809100
:10548000AE04C81799F0D0E01C9FF0011D9FF00DED
:105490001124E155FB4F40815181628173818481E8
:1054A00095810E94292A2196C770E9CFDF91CF917B
:1054B0001F9108954091DF045091E0046091E10450
:1054C0007091E2048091E3049091E4040C94292A01
:1054D000CF938091E40482958F7009F05FC0809132
:1054E000E104882309F45AC02091AD04A091AE04D0
:1054F0006091DF047091E0048091E2049091E304F4
:1055000031E06F3F09F030E0B32FC6E02A1709F40D
:1055100045C0009721F07F3F21F44B2F03C041E0AD
:1055200001C040E030E040FD35C0C29FF001C39FA4
:10553000F00D1124E155FB4F418174132BC04081C4
:10554000641328C04281411125C04381548148170A
:10555000590710F441505109481B590B4837510560
:10556000C8F48091E4048F7080618093E40486E045
:10557000829FF001839FF00D1124EC54FB4F80813A
:105580008F70806180838FED94E00E940927CF9116
:105590000C94392A2F5F3F4F2770B8CFCF910895D1
:1055A000CF92DF92EF92FF920F931F93CF93DF93EF
:1055B000CDB7DEB762970FB6F894DEBF0FBECDBF92
:1055C0008C0185E0F801DE011D9601900D928A950F
:1055D000E1F7D8014C9111965C91119712966C915C
:1055E00012971396ED90FC9014977091DF04E09160
:1055F000E0042091E2043091E3042115310531F0FB
:10560000EF3F31F481E07F3F19F403C081E001C036
:1056100080E0B82FB170CB2E80FD6CC1D090E1043A
:10562000DD2009F4F5C0F091E404E216F30638F049
:10563000C701821B930B8837910548F09BC02095CA
:1056400030952E0D3F1D2837310508F093C08F2F60
:10565000807F09F052C0E51314C0741312C0D62E17
:1056600061110FC0FF70F061F093E4040E945A2AA8
:105670008FED94E00E9409278091E404F80185836E
:105680006CC1EF2831F05F3F31F481E04F3F19F4F6
:1056900003C081E001C080E080FD03C081E0862777
:1056A00001C080E0F82FF170FF2E80FF1CC08091B8
:1056B000AD042091AE0436E0821709F428C190E0D1
:1056C000389FF001399FF00D1124E155FB4F718196
:1056D000571306C07081471303C07281671303C05C
:1056E00001968770E9CFD62E662309F436C18091E2
:1056F000E40481608093E40453C0E51308C074138C
:1057000006C0611104C0D8011596FC93AEC04D8748
:105710005E878D859E856A8B0E94F5296A8988231C
:1057200029F1D62E662311F12091E404822F82956F
:105730008F7090E002970CF460C08091DF0490912C
:10574000E00498878F831986FB86EA862C87CE0132
:10575000079651C0E51731F14D875E878D859E858F
:105760006A8B0E94F5296A8981112EC0C8010E94A6
:105770000927A4C08F2F807F69F77E2DF98AE88AD8
:1057800089890E941A2A8FED94E00E940927EFED83
:10579000F4E086E0DF011D928A95E9F70E945A2A1B
:1057A000D12CDBC07413D8CF6111D6CFD801159698
:1057B000FC93C8010E940927EFEDF4E086E0DF01C9
:1057C0001D928A95E9F7C9C0D62E662379F22091F9
:1057D000E404822F82958F7090E0029774F080919C
:1057E000DF049091E0049A8389831B82FD82EC821E
:1057F0002E83CE0101960E94092786E0F801AFEDC5
:10580000B4E001900D928A95E1F70E94682A6FC07A
:10581000E216F30628F0C701821B930B9C0104C01B
:10582000209530952E0D3F1D2837310508F052C0C8
:10583000D62E662309F49ACFE5132CC074132AC020
:105840008091E40480FD1DC0982F92959F70C9F04F
:10585000D80115968C9315979F3039F09F5F9295DC
:10586000907F8F70892B15968C93C8010E94092711
:1058700086E0F801AFEDB4E001900D928A95E1F772
:1058800036C086E0F801AFEDB4E001900D928A9544
:10589000E1F763C04D875E878D859E850E94F5295F
:1058A000882379F086E0F801AFEDB4E001900D9225
:1058B0008A95E1F70E94682A0E945A2ADD24D3942F
:1058C0004CC08091E40481608093E404C8010E948C
:1058D000092743C07E2DF98AE88A89890E941A2AFD
:1058E000EFEDF4E086E0DF011D928A95E9F70E9472
:1058F0005A2A33C0662309F439CF4D875E878D85D8
:105900009E850E94F529882309F430CFCBCF4D879F
:105910005E878D859E850E94592E292F22952F7096
:1059200030E0223031052CF49F7041F0811106C027
:105930000CC0243031052CF49F7049F4805E88300F
:1059400020F0C8010E940927CF2CDC2C06C0D8010A
:1059500015969C91907F91F7F8CF8D2D62960FB69A
:10596000F894DEBF0FBECDBFDF91CF911F910F9195
:10597000FF90EF90DF90CF9008951F93CF93DF9328
:10598000CDB7DEB72C970FB6F894DEBF0FBECDBFF4
:105990004F83588769877A878B879C87CE010796C4
:1059A0000E94D02A8823C1F02F8138858A859B8563
:1059B000892B31F03F3F11F080E003C02F3FE1F72A
:1059C00081E0811147C04F81588569857A858B8533
:1059D0009C850E94292A3EC086E0FE013796DE01A2
:1059E000119601900D928A95E1F7FF81E8854A852D
:1059F0005B854115510531F0EF3F31F481E0FF3F08
:105A000019F403C081E001C080E080FD23C0209133
:105A1000AE0430E0C9010196877099276091AD040A
:105A200070E086179707F1F1F983EA835D834C8371
:105A300096E0929FD001939FB00D1124A155BB4FCA
:105A4000FE01319601900D929A95E1F78093AE0494
:105A50000E94392A16E08091AD049091AE04891716
:105A600079F1189FC001112481559B4F0E94D02AC3
:105A7000882331F1E091AD041E9FF0011124E1551E
:105A8000FB4F4081518162817381848195810E94A5
:105A9000292A8091AD0490E0019687709927809320
:105AA000AD04D9CF0E94F1291092AE041092AD043A
:105AB000EFEDF4E086E0DF011D928A95E9F7CACFA9
:105AC0002C960FB6F894DEBF0FBECDBFDF91CF91FD
:105AD0001F9108956093E9047093EA048093EB04A6
