:100000000C94C6010C9418020C9418020C9418025B
:100010000C9418020C9418020C9418020C941802F8
:100020000C9418020C9418020C94241C0C94F61CCA
:100030000C948F290C9418020C9418020C9418023A
:100040000C9418020C94BF2B0C9418020C941802F8
:100050000C9418020C94C6090C9418020C94180203
:100060000C9418020C9418020C9418020C941802A8
:100070000C9418020C9418020C9418020C94180298
:100080000C9418020C9418020C9418020C94180288
:100090000C9418020C9418020C9418020C94180278
:1000A0000C9418020C9418020C941802631D851D00
:1000B000731E851D731ECA1DED1D731E421E551E27
:1000C000F820F8202521252180219C239C239C2396
:1000D000BC219C23B722B72272239C239C23882314
:1000E000014E024E00014D024D00014B024B00013A
:1000F0004A024A000000000000000000000000006A
:100100000000000000000000000038320000000085
:100110000405060708090A0B0C0D0E0F1011121327
:100120001415161718191A1B1C1D1E1F2021222317
:100130002425262728292A2B2C2D2E2F3031323307
:1001400034353637CB393A3B3C3D3E3F4041424364
:100150004445464748494A4B4C4D4E4F50515253E7
:100160005455565758595A5B5C5D5E5F60616263D7
:100170006465A56768696A6B6C6D6E6F7071727388
:100180007475767778797A7B7C7D7EA8A9AA000041
:100190000085008788898A8B00000000909100000C
:1001A000000000000000000000000000000000004F
:1001B000000000000000000000000000000000003F
:1001C000000000000000000000000000000000002F
:1001D000000000000000000000000000000000001F
:1001E000000000000000000000000000E0E1E2E389
:1001F000E4E5E6E700000000000000000000000069
:1002000000000000000000000000000001032403C3
:1002100055005300420032005500530042002000B8
:1002200066006F0072002000590044004B0042003D
:10023000730000000A03590041004E00470000000F
:100240000403090409023B00020100A03209040072
:1002500000010301010009211101000122400007F2
:1002600005810308000A09040100010300000009D8
:1002700021110100012236000705820308000A123D
:1002800001100100000008BCFA6B00270601020003
:100290000105010980A101850216010026B7001A97
:1002A00001002AB700751095018100C0050C0901F5
:1002B000A1018503160100269C021A01002A9C0256
:1002C000751095018100C005010906A101050719F6
:1002D000E029E71500250195087501810295017552
:1002E00008810105081901290595057501910295F7
:1002F00001750391010507190029FF150026FF006C
:10030000950675088100C000000000000000000094
:1003100000010101020202030304040505060607A9
:100320000808090A0B0B0C0D0E0F101112131516ED
:1003300017191A1B1D1E2022232527292B2D2F318B
:100340003335383A3D3F4244474A4D505356595C45
:100350005F6266696C7074777B7E82868A8E919507
:10036000999DA1A5A9ADB0B4B8BCC0C3C7CBCED22E
:10037000D5D8DBDFE2E4E7EAECEFF1F3F5F7F8FAE2
:10038000FBFCFDFEFFFFFF0061081A0911241FBEE0
:10039000CFEFDAE0DEBFCDBF04B603FE27C0809109
:1003A000770390917803A0917903B0917A03873015
:1003B000904BA740B04BD1F4109277031092780382
:1003C0001092790310927A0314BE84B7877F84BF9A
:1003D0000FB6F894A89580916000886180936000C2
:1003E000109260000FBEE0E0F8E3099511E0A0E094
:1003F000B1E0E8E1F0E602C005900D92A637B10742
:10040000D9F723E0A6E7B1E001C01D92A737B207F4
:10041000E1F711E0C6ECD1E004C02197FE010E9493
:10042000D32FC43CD107C9F70E94B0080C940A30FE
:100430000C94000080E091E008958CE090E0089535
:10044000FC01623041F128F4662351F0613099F0EB
:100450000895633009F457C0643009F468C0089502
:100460008281882309F452C00E941A298272992736
:10047000892B79F008C08281882309F447C00E9443
:100480001A2981FF06C00E941A2980FD02C085E357
:1004900058C089E256C04230C9F048F4442389F07C
:1004A000413021F584E38093790188E21DC0443016
:1004B000B9F088F04530D1F481E3809379018AE284
:1004C00013C085E38093790189E20EC088E38093AD
:1004D000790187E309C088E38093790182E504C04C
:1004E00083E3809379018FE0809378018281882370
:1004F00069F00E941A2985FF03C08091790121C00B
:10050000809178011EC08281811105C080917A019D
:100510000E9485201CC00E941A2980FF06C00E94EC
:100520001A2982FF10C08CE40CC08AE20AC08281C2
:10053000882361F30E941A2982FF02C08DE301C063
:1005400081E280937A0180917A010E94DB1F0C94F2
:100550005729662319F06130C1F027C0FC01828160
:10056000882339F00E948409909377018093760163
:100570001CC080917601909177010E949C09893C72
:100580009105B4F48AEE90E00895FC018281811116
:10059000E9CF80917601909177010E949C09893C76
:1005A00091054CF480EE90E0089580E090E008958D
:1005B0008FEE90E0089585EE90E00895462F672F26
:1005C0000C94C52D805C0E94B92D08958CE091E0BB
:1005D000089584EF90E0089580E00895089580E004
:1005E000089581E00895CF93DF93CDB7DEB72897C4
:1005F0000FB6F894DEBF0FBECDBF29833A834B837D
:100600005C836D837E838F8398878091B202282BD1
:100610002093B202FE013396AE01475F5F4F2191F6
:10062000243088F080E090E0DC01AE54BD4F12969B
:100630003C911297311103C012962C9304C001967D
:100640008630910589F7E417F50749F728960FB624
:10065000F894DEBF0FBECDBFDF91CF910895860F16
:10066000911D860F911DFC015687458781E00895F5
:10067000CF93DF93EC018C819D81DC01ED91FC91A6
:100680000480F581E02D6E8109951F86188A81E02E
:100690008A8B1E821B8A1C8A1D8A1E8A1F8A80E002
:1006A000DF91CF910895FC018681089581E0633048
:1006B00009F080E0089581E0613009F080E008955C
:1006C000860F911D860F911DFC01858596850895E5
:1006D000FC0187890895EF92FF92CF93DF93DC01AD
:1006E000E70152968C915297823049F11F966C9394
:1006F0001F9750964C9350979B8193709330F9F4C9
:100700009A8197FF1CC09E8158962C915897291763
:1007100018F458969C935897E82FF0E09F01220F09
:10072000331FE20FF31FEA0FFB1F9A819F7097831D
:100730009C81908794E091878F5F52968C93DF9194
:10074000CF91FF90EF900895EF92FF920F93029751
:100750000E946B030F91FF90EF9008950895DF9230
:10076000EF92FF920F931F93CF93DF93CDB7DEB736
:1007700062970FB6F894DEBF0FBECDBFDC0157966F
:100780002C91222381F07C010E942B09F70103891F
:10079000148925893689DC01CB01801B910BA20BC2
:1007A000B30BB7FF02C0D12C39C0838590E09A8B80
:1007B000898B8E010F5F1F4F9E012F5E3F4F428539
:1007C0006681848195810E942D12D82E811118C0D6
:1007D00029893A892330310598F0D7011D968D91EA
:1007E0009C911E97009761F0DC01ED91FC910190C6
:1007F000F081E02D8E010F5F1F4F40E0B70109959A
:100800000E942B09F701208DDC01CB01820F911D85
:10081000A11DB11D838B948BA58BB68B8D2D6296FC
:100820000FB6F894DEBF0FBECDBFDF91CF911F9101
:100830000F91FF90EF90DF9008953F924F925F925B
:100840006F927F928F929F92AF92BF92CF92DF92E0
:10085000EF92FF920F931F93CF93DF93CDB7DEB745
:10086000EC970FB6F894DEBF0FBECDBFDC01149637
:100870008D909C90159716963C91311139C1522E4E
:10088000342E462E5C01FC01108ED401ED91FC91BA
:100890000190F081E02D60E0C40109957C01009792
:1008A00011F486ED2AC1FC0160807180611471042D
:1008B00009F420C16501F7E0CF0ED11CDC011196CF
:1008C000DC92CE9214965C928E01065D1F4F28E05A
:1008D00030E040E060E0F501848195810E94F00FF6
:1008E0008CAF8111F8C01AA5D7016D927C92D4010A
:1008F000ED91FC910280F381E02D232D40E0642DE9
:10090000C4010995F5018683882309F4F5C099A9E6
:100910009087282F40E060E0848195810E949B10A1
:100920008CAFD401ED91FC91D70114961C928823D1
:1009300059F00480F581E02DD50116966C91C40123
:100940000995F5011682D2C00190F081E02DD50104
:1009500016966C91C4010995FC01892B09F4A1CF6D
:10096000912F133108F092E15482992369F0292FD5
:1009700030E08E01065D1F4F40E0F5016681848105
:1009800095810E94F00F8CAF8CAD8111A7C0EBACAC
:10099000F12C41E1642E41E0742E2501F2E04F0E6E
:1009A000511C4E0181E1880E911CFE1449F17A829E
:1009B00069825C824B821E86188A1F8619A21AA23F
:1009C0001BA219A69F828E82998688868D818B872D
:1009D0008A879D868C868E010F5F1F4F2F2D40E0EA
:1009E000D50116966C91169714968D919C9115973A
:1009F0000E943E10F5018289823011F0F394D5CF28
:100A0000D50152968C91823019F081ED8CAF66C081
:100A1000960142E0F5016681848195810E942A0B4E
:100A20008CAF68EE73E080E090E00E942D09D50164
:100A30001F962C911F9740E016966C91169714966E
:100A40008D919C9115970E9408128CAF811146C020
:100A500068EE73E080E090E00E942D0940E060E0E5
:100A6000C5010E94FE138CAF811138C020E040E028
:100A700060E0C5010E94D4138CAF87E191E09A83B6
:100A80008983AE014F5F5F4F60E070E0C5010E9457
:100A9000631380E28CAF8CAD8823C1F090E0959514
:100AA00087958CAFFE01FC966F01EE24E394F12C48
:100AB00000E022E040E060E0C5010E94A61369E189
:100AC00070E080E090E00E942D09E5CF91E0D50133
:100AD00057969C9312C0F70171826082D501ED9107
:100AE000FC910480F581E02DC50109958CAD05C010
:100AF00089ED03C087ED01C084EDEC960FB6F89444
:100B0000DEBF0FBECDBFDF91CF911F910F91FF9040
:100B1000EF90DF90CF90BF90AF909F908F907F909D
:100B20006F905F904F903F90089580E1089580E12D
:100B30000895CF93DF936091B2017091B301E0917A
:100B40008101F09182014091A6015091A70120916D
:100B50009A0130919B0180918E0190918F016E17C7
:100B60007F07B1F4E0917F01F09180014E175F079C
:100B700079F4E0917D01F0917E012E173F0741F459
:100B8000E0917B01F0917C018E179F0709F463C00F
:100B900070938201609381015093800140937F01A3
:100BA00030937E0120937D0190937C0180937B01A3
:100BB000E2EBF2E088E0DF011D928A95E9F72091EF
:100BC000AA013091AB014091AC015091AD0160910F
:100BD000AE017091AF018091B0019091B1010E947E
:100BE000F30220919E0130919F014091A00150910C
:100BF000A1016091A2017091A3018091A401909143
:100C0000A5010E94F302209192013091930140913D
:100C10009401509195016091960170919701809196
:100C20009801909199010E94F302209186013091E0
:100C30008701409188015091890160918A017091EA
:100C40008B0180918C0190918D010E94F30281E0D3
:100C50008093B10202C01092B1020E948409EC019B
:100C60008AE392E00E946412CE010E949C0981E016
:100C7000DF91CF910895482F50E0CA0124E0880FFA
:100C8000991F2A95E1F7805E9109089730F48091C9
:100C9000B202882311F090E002C080E090E0E4EB23
:100CA000F2E0A1E0B0E036E03E0F2191243080F088
:100CB000622F62956F7070E04617570749F42F70E6
:100CC000BD0102C0660F771F2A95E2F7862B972B8E
:100CD0003E13EBCF08950895FC01758364838DE185
:100CE00091E0918380838BE391E093838283138AE5
:100CF000148A158A168A178A178288E080878CE3FF
:100D000081871286138684E0848781E0828B118A32
:100D100017861686158661157105B1F0DB01AA5A92
:100D2000BF4F80E090E02D913D91232B49F48B96AD
:100D3000880F991FDB01A80FB91FED93FC9308954D
:100D400001968031910579F708952E9A08952E988D
:100D50008EBD0DB407FEFDCF1EBC0DB407FEFDCF4A
:100D60000E94A5068EB508952E9882608EBD0DB4A2
:100D700007FEFDCF6EBD0DB407FEFDCF0C94A5069A
:100D800088EF0E94A706807C8034A1F018F48823A5
:100D900001F10895803819F0803CB9F0089588ED8C
:100DA0000E94A70681FD0BC069EC88ED0E94B40685
:100DB00082E00CC088ED0E94A70681FDF5CF6BECA8
:100DC00088ED0E94B40683E001C081E08093830136
:100DD000089561ED88ED0E94B40610928301089594
:100DE0000F931F93CF93DF938C01269A0E94A50641
:100DF000219A229A2398209A80E58CBD81E08DBDAE
:100E0000259868E188E80E94B40660E288E70E94BD
:100E1000B40660E088E70E94B406C1E0D0E0209705
:100E200099F088E60E94A706219680FFF8CF61EC32
:100E300088ED0E94B40660E680ED0E94B40664E08E
:100E400088EE0E94B40602C08FEF11C088EE0E94A7
:100E5000A70682FFFBCFC8010E94C00660E288ECB3
:100E60000E94B40661E080E80E94B40680E0DF9151
:100E7000CF911F910F9108958AE392E00E94F006AE
:100E800088EA91E090930D0280930C028CE991E046
:100E90009093F4018093F30180E991E09093DB015A
:100EA0008093DA0184E891E09093C2018093C101BC
:100EB0000895EF92FF920F931F93CF93DF93EC016E
:100EC0007B018A0188A1823029F128F4882341F02E
:100ED000813081F0C9C0833019F18430D9F1C4C0A8
:100EE00082E08C832D813E8138872F838A87898792
:100EF00081E088A3A801B701CE0107960E94F017F0
:100F0000811102C080E0B1C0ED81FE81808189A3A2
:100F100081818AA3CE0142969E838D8383E088A33C
:100F20008AA1843059F018F4823049F00AC0853023
:100F300039F0813231F489A1825002C01BA287E0CE
:100F40008C838D819E8198878F838C818A87898706
:100F500084E088A38AA1843081F0853091F18230C9
:100F600009F050C0A801B701CE0107960E94F01702
:100F7000882341F28D898CA372C0A801B701CE01EC
:100F800007960E94F017882309F4BCCF8D8983301F
:100F900009F065C08E89813009F061C098A58F89FC
:100FA000992321F0882309F45AC003C0813009F045
:100FB00056C091E09BA39A899EA39B899FA38DA372
:100FC0004EC0A801B701CE0107960E94F0178823F2
:100FD00009F498CF8BA1882309F441C08A819B81B1
:100FE0000097E9F1DC01ED91FC910190F081E02D99
:100FF0007E01B0E1EB0EF11C0DA12FA14EA16CA161
:1010000009952DC089A19D85992319F09130E9F0AA
:1010100021C090E002979F878E8781E08D8715C061
:10102000F80120813181232BA9F001979F878E87BA
:10103000F70180819181019691838083D8018D9100
:101040009C91119701978D939C938E859F85009716
:1010500039F71D868E859F85892B09F053CFCE01E8
:1010600040969E838D8318A281E0DF91CF911F91DE
:101070000F91FF90EF9008950F931F93CF93DF93FD
:1010800000D000D0CDB7DEB78C017C836B835A8350
:1010900049832B813C81232B59F0AE014D5F5F4F7B
:1010A000BE016F5F7F4FC8010E9459078111F1CFC8
:1010B0000F900F900F900F90DF91CF911F910F9194
:1010C00008958AE392E00E94D50A6AE372E089E219
:1010D00092E00E9483166AE372E088E192E00E9447
:1010E00083166AE372E08FEF91E00E946C066AE378
:1010F00072E086EE91E00E946C066AE372E08DEC8D
:1011000091E00E946C066AE372E084EB91E00E9439
:101110006C0681E491E09093A9018093A8019093DB
:101120009D0180939C0190939101809390019093F5
:101130008501809384010895E82FF0E0EE0FFF1FF2
:10114000E45FFD4F859194910895569A5E9A0895B3
:10115000811101C05E9A0895811101C05E980895C1
:10116000569A5E9A80914F038160846080934F030A
:1011700080E091E00E948C1E0E94D41E84B7877F7D
:1011800084BF0FB6F894A895809160008861809321
:101190006000109260000FBE90E080E80FB6F894F7
:1011A00080936100909361000FBE0E94A91B0E9472
:1011B000061C8091E20084608093E2007894809124
:1011C0006E038430E1F780914F0380FF09C02FEF59
:1011D00083ED90E3215080409040E1F700C0000093
:1011E0000E94E01EFDCF0F931F93CF93DF93EC017E
:1011F000DC01129688E0F80101900D928A95E1F7E2
:101200000E942B097B876A87DF91CF911F910F91F5
:101210000895089580E090E008958FEF9FEF08957E
:101220008FEF9FEF08950895862F0E94B41981E0F3
:1012300090E00895EAEBF2E01382128288EE93E0E8
:10124000A0E0B0E084839583A683B78387E491E030
:101250009183808308950C9490098F929F92AF920E
:10126000BF92CF92DF92EF92FF920E94AF2E4B017E
:101270005C0120E030E04AE755E40E94662F6B01F4
:101280007C0120E030E040E85FE30E947B2E87FD98
:1012900024C020E03FEF4FE757E4C701B6010E94AA
:1012A000612F1816ACF420E030E040E251E4C501B3
:1012B000B4010E94662F0E94802E20E931E0611562
:1012C000710581F0C9010197F1F761507109F7CFFC
:1012D000C701B6010E94802E02C061E070E0CB0120
:1012E0000197F1F7FF90EF90DF90CF90BF90AF9014
:1012F0009F908F90089582E084BD93E095BD9AEF12
:1013000097BD80936E0008952FB7F8948091C8021E
:101310009091C902A091CA02B091CB022FBF08954B
:101320002FB7F8946091C8027091C9028091CA02E7
:101330009091CB022FBF0895CF92DF92EF92FF9250
:101340000F931F932FB7F8944091C8025091C90290
:101350006091CA027091CB022FBF6A017B01EE241B
:10136000FF248C0120E030E0C016D106E206F3062F
:1013700010F4415051099A01281B390BC9011F91E2
:101380000F91FF90EF90DF90CF9008951F920F92F2
:101390000FB60F9211248F939F93AF93BF938091B9
:1013A000C8029091C902A091CA02B091CB020196E5
:1013B000A11DB11D8093C8029093C902A093CA02D7
:1013C000B093CB02BF91AF919F918F910F900FBEC1
:1013D0000F901F901895CF93DF93FC01862F807894
:1013E00009F051C0283008F04FC0442321F0958106
:1013F000973009F449C0EF012D96A0E0B0E01196B6
:101400009881911103C0662331F021C02596AF3039
:10141000B105A9F739C085E08A9FE0018B9FD00D07
:101420001124CE0FDF1F442331F081E488878581AA
:101430008F5F858302C081E0888725E02A9FC001F5
:101440002B9F900D1124E80FF91F80851DC0677038
:10145000660F660F660F442341F0606485818F5FDD
:1014600085838770687F682B03C02770687B622B39
:1014700025E02A9FC0012B9F900D1124E80FF91F32
:101480006087862F01C080E0DF91CF910895DF92C1
:10149000EF92FF920F931F93CF93DF93EC01E62E11
:1014A000F12C85E0689FB0011124FE01E60FF71FC3
:1014B0008085182F177086FF21C001E085E0D82EA7
:1014C0008FEF800F8F3008F001E0FE01D09EE00D1D
:1014D000F11D1124808586958695869587708113E8
:1014E00005C0602FCE010E94470AEACF0F5F00318E
:1014F00061F78D81811302C011501D8385E08E9D9F
:10150000F0018F9DF00D1124EC0FFD1F108681E07E
:10151000818712862296D783C683DF91CF911F9150
:101520000F91FF90EF90DF900895611102C0069631
:101530000895FC013D9621E03081361307C035E067
:10154000239F800D911D1124069608952F5F3596D7
:10155000203191F780E090E00895FC016134C1F4FE
:101560003F969C01265A3F4F61E0AC014E5F5F4FB2
:10157000DF0112971C9211966C93108213974D9372
:101580005C933596E217F30799F7FC0115820895ED
:101590003D9621E03081361303C0622F0C94470A38
:1015A0002F5F35962031B1F70895CF93DF93FC017B
:1015B00089E591E0918380831582108681E081879F
:1015C0001286CF01029697838683128228E02383B6
:1015D0002CE32483DF011F969F01265A3F4F41E0F1
:1015E000ED0122971882219648831C9223979983B4
:1015F00088831596A217B30799F7EA58FF4F108210
:1016000081E18093D002DF91CF910895CF93DF9352
:101610001F92CDB7DEB749830E94950A4981009792
:1016200089F0DC01ED91FC911197309759F01396F8
:101630009C9180E0891731F02081241731F0339696
:101640008F5FF8CF80E090E001C0CF010F90DF9175
:10165000CF9108950F931F93CF93DF9321153105F9
:1016600071F0E901042F162F0E94950AFC01892BC5
:1016700041F01283D183C083038380E003C088EDEF
:1016800001C086EDDF91CF911F910F910895CF9208
:10169000DF92FF920F931F93CF93DF93662381F125
:1016A000F62E8C016C0186E5C80ED11CC0E0D0E09E
:1016B000D6018D919D916D010097F1F0DC01ED91C6
:1016C000FC910084F185E02D09958F1115C0AB9632
:1016D000CC0FDD1FC00FD11F88819981DC01ED91F6
:1016E000FC910480F581E02DDF91CF911F910F9146
:1016F000FF90DF90CF9009942196C031D105C1F6BB
:1017000080E0DF91CF911F910F91FF90DF90CF90FC
:1017100008952E980895CF93DF931F92CDB7DEB72B
:1017200089830E94890B89818EBD0DB407FEFDCF90
:101730001EBC0DB407FEFDCF0E94A5068EB50F900E
:10174000DF91CF910895CF93DF9300D0CDB7DEB76F
:101750006A8389830E94890B898182608EBD6A8138
:101760000DB407FEFDCF6EBD0DB407FEFDCF0F908B
:101770000F90DF91CF910C94A5068F929F92AF921C
:10178000BF92DF92EF92FF920F931F93CF93DF935D
:101790001F92CDB7DEB74C01D62E590149830E9466
:1017A000950A7C014981009709F440C0FC018081C1
:1017B0009181892BE9F16D2DC4010E94060BF50181
:1017C000918380830097B1F1FC01228126952695B3
:1017D00030E02031310514F02FE030E081E090E07E
:1017E000A0E0B0E004C0880F991FAA1FBB1F2A9574
:1017F000D2F70197F801918380836D2D80EE0E94CE
:10180000A30B88ED0E948B0B682FF701848188233E
:1018100039F0F401EA58FF4F80818260682B01C0E3
:10182000697F88ED0E94A30B80E005C086ED03C0B0
:1018300087ED01C08BED0F90DF91CF911F910F913C
:10184000FF90EF90DF90BF90AF909F908F900895A2
:101850008F929F92AF92BF92CF92DF92EF92FF92C0
:101860000F931F93CF93DF93862E942E59010E94DE
:101870002B096B017C0128E8C20E23E1D21EE11C7A
:10188000F11C00E010E0D0E0C0E098280E942B0995
:10189000DC01CB018C199D09AE09BF09B7FF2DC032
:1018A000692D80EF0E94A30B0E942B09DC01CB0164
:1018B0008C199D09AE09BF09B7FF09C088EC0E94C9
:1018C0008B0B87FFF1CF60E888EC0E94A30B88EFB9
:1018D0000E948B0BC82FCF70C43019F0CE3051F05E
:1018E0000CC00F5F1F4FA114B10481F20A151B0534
:1018F00069F603C0DF5FD33049F68C2FDF91CF91BB
:101900001F910F91FF90EF90DF90CF90BF90AF901D
:101910009F908F9008959F92AF92BF92CF92DF9247
:10192000EF92FF920F931F93CF93DF937C01C42F0D
:10193000122F992493946C01C60ED11CC60ED11C93
:1019400086E5C80ED11CA42EB12CABE2AA0EB11CA8
:10195000AA0CBB1CAE0CBF1CF60180819181DC017E
:10196000ED91FC910280F381E02D202F412F6C2F0F
:101970000995803EC9F4C1110BC061E088EE0E9458
:10198000A30B66E670E080E090E00E942D0916C08F
:10199000F50180819181DC01ED91FC910284F38558
:1019A000E02D612F09950AC08D3031F49FEF990D1C
:1019B000933008F040C016C081113DC0F60180810F
:1019C0009181DC01ED91FC910190F081E02D202FBF
:1019D000412F6C2F0995D82F8D3061F48FEF890D31
:1019E000833050F464E670E080E090E00E942D09BE
:1019F0009394B2CF8823F1F0C1110BC061E088EE5F
:101A00000E94A30B66E670E080E090E00E942D0942
:101A100011C0EC2FF0E0BB96EE0FFF1FEE0DFF1D87
:101A200080819181DC01ED91FC910284F385E02DB0
:101A3000612F09958D2FDF91CF911F910F91FF900D
:101A4000EF90DF90CF90BF90AF909F9008950F934D
:101A50001F93CF93DF9300D0CDB7DEB78A016A839F
:101A600089830E94890B898182608EBDF8016A8119
:101A7000862F882339F00DB407FEFDCF91919EBDCE
:101A80008150F7CF060F111D0DB407FEFDCF0E9448
:101A9000A506C8010F900F90DF91CF911F910F9174
:101AA00008952F923F924F925F926F927F928F9202
:101AB0009F92AF92BF92CF92DF92EF92FF920F93DD
:101AC0001F93CF93DF9300D000D01F92CDB7DEB726
:101AD0007D836C835A016901FB0121808FEF820DA8
:101AE000803408F075C00E942B092B013C01F8E8F6
:101AF0004F0EF3E15F1E611C711CEC81FD81828140
:101B000080FD02C060E401C060E888EE0E94A30B83
:101B100020E0312CC114D10409F44AC076012C1400
:101B20003D0408F47101EA82A8016E2D80E10E9453
:101B3000270D6E2D88E30E94A30BEC81FD8160814F
:101B4000606280EF0E94A30B88EC0E948B0B87FFE2
:101B5000FBCF60E888EC0E94A30B88EF0E948B0B00
:101B6000282F2F70812C912C1982222361F02B8336
:101B70000E942B09DC01CB0184199509A609B7093C
:101B80002B81B7FD05C0CE18DF080E0D1F1DC2CF7B
:101B9000263001F12E3009F456C0243049F4FFEF0D
:101BA0008F1A9F0AA114B10459F18A149B0441F5BC
:101BB00088EF2B830E948B0B85FB882780F9EC81B3
:101BC000FD81928180FB90F992832B81822F41C00D
:101BD0008AED3FC088EF0E948B0B85FB882780F938
:101BE00091E08927EC81FD81928180FB90F99283BD
:101BF00090FD02C060E401C060E888EE0E94A30B83
:101C000060E088E30E94A30BF801608180E10E94FC
:101C1000A30B6A8188E30E94A30BEC81FD816081A4
:101C2000606280EF0E94A30B88EC0E948B0B87FF01
:101C3000FBCF60E888EC0E94A30B88EF0E948B0B1F
:101C4000282F2F7092CF89818F5F89838330C1F6CF
:101C5000AFCF0F900F900F900F900F90DF91CF911B
:101C60001F910F91FF90EF90DF90CF90BF90AF90BA
:101C70009F908F907F906F905F904F903F902F90AC
:101C800008952F923F924F925F926F927F928F9220
:101C90009F92AF92BF92CF92DF92EF92FF920F93FB
:101CA0001F93CF93DF9300D000D01F92CDB7DEB744
:101CB0005C017D836C834A017901F901C080D18088
:101CC000FB014180F90111821082FB01828181FDBB
:101CD00002C060E101C060E288EE0E94A30B3C2CD0
:101CE0009401EC81FD81408160E0C5010E94280CD7
:101CF000582EF6E08F1316C088EF0E948B0B82954A
:101D0000817091E08927EC81FD81928180FB91F9BE
:101D1000928391FD02C060E101C060E288EE0E9402
:101D2000A30BDECF81115BC088EC0E948B0B82FF7E
:101D300054C080E30E948B0B282E282F30E0C2165F
:101D4000D30608F4232CF70120813181622C712CF9
:101D5000A601421B530B57FF02C040E050E0930125
:101D6000461557050CF49A0129833A832B830E9468
:101D7000890BF8E0FEBD8B813A8129810DB407FE05
:101D8000FDCFF801882341F01EBC81500DB407FE41
:101D9000FDCF4EB54193F6CF020F131F0E94A5064B
:101DA00064E088EC0E94A30BF70120813181620E70
:101DB000731E71826082241420F06C147D0408F478
:101DC0008FCF88EF0E948B0B82958170EC81FD8113
:101DD000928180FB91F9928302C080EF582E852D6D
:101DE0000F900F900F900F900F90DF91CF911F9158
:101DF0000F91FF90EF90DF90CF90BF90AF909F90AA
:101E00008F907F906F905F904F903F902F900895AC
:101E10002F923F924F925F926F927F928F929F92FA
:101E2000AF92BF92CF92DF92EF92FF920F931F93E8
:101E3000CF93DF93CDB7DEB762970FB6F894DEBFCE
:101E40000FBECDBF3C01542ED22E402E5E2D2FA0B2
:101E500038A4E9A4FAA4188A1F861E861D868E015E
:101E6000035F1F4F9E01215F3F4F598B0E94BD0BA7
:101E7000598981119CC0D9824A825B83CC82BE82FF
:101E8000AD8298868F82AE014F5F5F4F68E080E23F
:101E90000E94270D2D853E85452D60E1C3010E94DE
:101EA000280C182F81117FC0BD2CBB1CBB24BB1C70
:101EB000E114F10409F46AC0EF85F8898281BB203E
:101EC00009F455C0826082836401AA24A394C114DA
:101ED000D10409F449C03C862B864D855E856F850B
:101EE000788987019E01255F3F4FC3010E94410E03
:101EF000182F8630B1F42F85388988EF298B3A8BDB
:101F00000E948B0B85FB882780F98A2529893A89CD
:101F1000D90112969C91129780FB91F912969C938D
:101F2000D6CF811140C0EBA5FCA53097A1F0019060
:101F3000F081E02D0190F081E02DC4018C199D0904
:101F40009A8789876B857C859E01275F3F4FA70114
:101F50008BA59CA509958B859C85C81AD90A8215E5
:101F6000930508F0B4CF12C011111DC014C08160D8
:101F700082834D855E8587019101BF01C3010E9467
:101F8000510D811114C02D853E850FC02D853E85D4
:101F9000B11003C00AC02D853E8560EA452DC301FE
:101FA0000E94280C04C0812F02C060E8F7CF62961F
:101FB0000FB6F894DEBF0FBECDBFDF91CF911F915A
:101FC0000F91FF90EF90DF90CF90BF90AF909F90D8
:101FD0008F907F906F905F904F903F902F900895DB
:101FE0008F929F92AF92BF92CF92EF920F931F93D7
:101FF0001F921F921F930F933F932F934901A12C80
:10200000B12CCC24C394E12C06E020E80E94080FF8
:102010000F900F900F900F900F900F901F910F91B6
:10202000EF90CF90BF90AF909F908F9008958F9238
:102030009F92AF92BF92CF92EF92FF920F931F9217
:102040001F92FF92EF923F932F934901A12CB12C45
:1020500022E0C22EE02E06E020E80E94080F0F903A
:102060000F900F900F900F900F900F91FF90EF90A7
:10207000CF90BF90AF909F908F9008954F925F92B6
:102080006F927F928F929F92AF92BF92CF92DF9288
:10209000EF92FF920F931F93CF93DF93CDB7DEB7ED
:1020A000C054D1090FB6F894DEBF0FBECDBF3C01BE
:1020B000D62E542E422EC02ECE0101965C017C01FC
:1020C000022F29E030E0C3010E94171081111BC0CC
:1020D0008B809C801F93CF92BF92AF921F9280E41F
:1020E0008F93A12CB12C82E0C82EE42C06E020E8CE
:1020F000452D6D2DC3010E94080F0F900F900F907A
:102100000F900F900F90C05CDF4F0FB6F894DEBFBA
:102110000FBECDBFDF91CF911F910F91FF90EF9038
:10212000DF90CF90BF90AF909F908F907F906F90F7
:102130005F904F9008958F929F92AF92BF92CF92EF
:10214000EF920F93CF931F921F921F921F921F9295
:102150001F92812C912CA12CB12CC12CE22E05E0D8
:1021600020E00E94080FC82F6CE271E080E090E050
:102170000E942D090F900F900F900F900F900F90CD
:102180008C2FCF910F91EF90CF90BF90AF909F90F9
:102190008F9008950F931F93CF93DF938A3F3FEF64
:1021A000930711F486ED2DC0DC011696ED91FC919C
:1021B0001797EF2B09F1122F242FEC011A8740E01B
:1021C0000E94EB09082F8823C9F0682FCE010E94D6
:1021D000950A009739F3FC011483202F40E060E05A
:1021E000CE010E949B10182F882351F0602FCE0142
:1021F0000E94AD0A812F05C087ED03C084ED01C0A8
:1022000080E0DF91CF911F910F9108952F923F921F
:102210004F925F926F927F928F929F92AF92BF92F6
:10222000CF92DF92EF92FF920F931F93CF93DF93A2
:10223000CDB7DEB766970FB6F894DEBF0FBECDBF41
:102240001B8A38E03C8B3CE33D8B8A3F3FEF930792
:1022500009F4ADC0B22E342EA62E7C01DC011696F8
:10226000CD90DC901797CE01439617969C938E9352
:1022700016971A962C938E010F5F1F4F22E130E0C4
:1022800040E060E0C7010E94F00FF701D782C682EC
:102290008111A5C069847A844B845C843D813E8B26
:1022A0002E80670186E5C80ED11C460110E0D401DE
:1022B0008D919C91009789F1DC01ED91FC91008456
:1022C000F185E02D0995811128C0F401808191816B
:1022D000DC01ED91FC910088F189E02D622D0995DA
:1022E0008823D9F0F40180819181DC01ED91FC918A
:1022F0000484F585E02DA201B3010995811159C02F
:10230000F40180819181DC01ED91FC910684F785D7
:10231000E02D6E89099581114CC01F5FB2E08B0ED4
:10232000911C103121F610E0F60180819181009717
:1023300089F1DC01ED91FC910084F185E02D099596
:10234000811128C0F60180819181DC01ED91FC9121
:102350000088F189E02D622D09958823A9F1F60105
:1023600080819181DC01ED91FC910484F585E02D63
:10237000A201B301099581110DC0F60180819181FF
:10238000DC01ED91FC910684F785E02D6E890995BD
:102390008823D1F01F5FB2E0CB0ED11C103121F6A3
:1023A0002B2D432D6A2DC7010E94CA1018C086ED3F
:1023B00016C00B2D232D4A2D612FC7010E948B0CB7
:1023C000813D09F4AACF0BC00B2D232D4A2D612F7F
:1023D000C7010E948B0C982F977F913DD9F266968A
:1023E0000FB6F894DEBF0FBECDBFDF91CF911F9126
:1023F0000F91FF90EF90DF90CF90BF90AF909F90A4
:102400008F907F906F905F904F903F902F900895A6
:102410008F929F92AF92BF92CF92EF920F931F92A3
:102420001F921F921F921F921F92812C912CA12C00
:10243000B12CC12CE22E09E020E00E94080F0F9081
:102440000F900F900F900F900F900F91EF90CF90F3
:10245000BF90AF909F908F900895AF92BF92CF9210
:10246000DF92EF92FF920F931F93CF93DF9300D0F1
:1024700000D0CDB7DEB77C01690158011C821B82F8
:102480001A8219828E010F5F1F4F9E012D5F3F4FF1
:102490000E94BD0B811109C049815A816B817C81E9
:1024A00085019601C7010E94410E0F900F900F9079
:1024B0000F90DF91CF911F910F91FF90EF90DF90E0
:1024C000CF90BF90AF900895AF92BF92CF92DF921E
:1024D000EF92FF920F931F93CF938C011D990EC023
:1024E00088EC0E948B0B85FF05C0C8010E94C006C6
:1024F00060E201C060E088EC0E94A30B8091830140
:10250000813039F040F0823079F0833039F5C1E024
:102510000CC083E106C08091D002807F8031F1F051
:1025200081E18093D0021AC0C0E08091D002807F08
:102530008031A9F40E942B09DC01CB0188539F4F05
:10254000AF4FBF4F8093CC029093CD02A093CE02A9
:10255000B093CF0280E28093D00201C0C0E0780146
:1025600086E5E80EF11C6801A6E7CA0ED11C5701EA
:10257000F501819191915F01009739F0DC01ED91B6
:10258000FC910680F781E02D0995AC14BD0481F71C
:102590009091D002903409F43FC050F4903221F170
:1025A0009033A1F1913109F084C0F60110820AC084
:1025B000913509F458C0903809F46AC0903509F093
:1025C00078C039C0D7018D919D917D01009739F078
:1025D000DC01ED91FC910480F581E02D0995EC146E
:1025E000FD0481F782E163C00E942B090091CC02B7
:1025F0001091CD022091CE023091CF02DC01CB01AF
:10260000801B910BA20BB30BB7FD53C061E088EEAA
:102610000E94A30B80E44BC088EE0E948B0B80FDD0
:1026200048C088ED0E948B0B682F686088ED0E947F
:10263000A30B80E53CC088EC0E948B0B86FF39C061
:1026400081E58093D0020E942B09DC01CB014496E6
:10265000A11DB11D8093CC029093CD02A093CE0218
:10266000B093CF0226C00E942B09C090CC02D0901C
:10267000CD02E090CE02F090CF02DC01CB018C19AC
:102680009D09AE09BF09B7FD14C080E88093D00250
:102690002C2F40E060E0C8010E940611882331F031
:1026A000823D39F08093D10280EA01C080E98093B5
:1026B000D002CF911F910F91FF90EF90DF90CF90BC
:1026C000BF90AF9008958F929F92AF92BF92CF929A
:1026D000EF920F93CF93DF93CDB7DEB7C054D109FC
:1026E0000FB6F894DEBF0FBECDBF5F934F939E0130
:1026F0002F5F3F4F3F932F931F9220E42F9320E8AB
:10270000822E912C5B0132E2C32EE12C06E021E8FF
:1027100040E0FC016681848195810E94080F0F9042
:102720000F900F900F900F900F90C05CDF4F0FB67F
:10273000F894DEBF0FBECDBFDF91CF910F91EF9028
:10274000CF90BF90AF909F908F9008958F929F925F
:10275000AF92BF92CF92DF92EF92FF920F938E2CA7
:10276000A42EB12C1F921F92DF92CF92FF92EF9274
:102770009F2CC22EE02E09E021E2462FFC0166814B
:10278000848195810E94080F0F900F900F900F90F9
:102790000F900F900F91FF90EF90DF90CF90BF9030
:1027A000AF909F908F9008958F929F92AF92BF921B
:1027B000CF92EF920F93A62EB12C1F921F921F92D1
:1027C0001F921F921F92812C912CC22EE42E0AE0A0
:1027D00021E240E0FC016681848195810E94080F1E
:1027E0000F900F900F900F900F900F900F91EF9010
:1027F000CF90BF90AF909F908F9008958F929F92AF
:10280000AF92BF92CF92EF920F93A62EB12C1F9250
:102810001F921F921F921F921F92812C912CC12CEC
:10282000E42E0BE021E240E0FC0166818481958189
:102830000E94080F0F900F900F900F900F900F9025
:102840000F91EF90CF90BF90AF909F908F90089591
:10285000FC018285089581E0693009F080E00895E7
:10286000CF93DF93EC018A819B81DC01ED91FC9198
:102870000480F581E02D6A8509958A85813439F4D3
:10288000EA81FB81EA58FF4F8081846080831A8649
:102890001B861C861D861E861F86188A80E0DF9197
:1028A000CF9108958F929F92AF92BF92CF92EF9265
:1028B0000F93A42EB12CB22A1F921F921F921F9227
:1028C0001F921F92812C912CC12CE62E01E023E255
:1028D00040E0FC016285828193810E94080F0F9085
:1028E0000F900F900F900F900F900F91EF90CF904F
:1028F000BF90AF909F908F9008958F929F92AF92CC
:10290000BF92CF92EF920F93A62EB12C1F921F92DF
:102910003F932F935F934F934A01C12CE12C00E02A
:1029200023EA40E0FC016285828193810E94080FC6
:102930000F900F900F900F900F900F900F91EF90BE
:10294000CF90BF90AF909F908F9008958F929F925D
:10295000AF92BF92CF92EF920F93A42EB12CB22AD6
:102960001F921F921F921F921F921F92812C912CD7
:10297000C12CE62E03E023E240E0FC016285828167
:1029800093810E94080F0F900F900F900F900F905F
:102990000F900F91EF90CF90BF90AF909F908F903E
:1029A00008952F923F924F925F926F927F928F92F3
:1029B0009F92AF92BF92CF92DF92EF92FF920F93CE
:1029C0001F93CF93DF93CDB7DEB7E8970FB6F89498
:1029D000DEBF0FBECDBFDC011296ED90FC901397C9
:1029E0001A963C91311104C1122F242E362E3C012F
:1029F000D701ED91FC910190F081E02D60E0C701DD
:102A000009956C01009709F4F5C0FC01A080B18024
:102A1000A114B10409F4F0C04301F4E08F0E911C3D
:102A2000DC0111969C928E9214961C93FE013196B5
:102A30002F018F0128E030E040E060E0D3011296E2
:102A40008D919C9113970E94F00FF60114828111D1
:102A5000D9C009818D81893009F0D0C0D701ED91AD
:102A6000FC910280F381E02D222D41E0632DC7010E
:102A70000995F3018287882309F4C2C0988595835C
:102A8000282F40E060E0828193810E949B10182FE4
:102A9000882389F0D601AD92BC92D701ED91FC91CB
:102AA0000480F581E02DD3011A966C91C701099538
:102AB000F3011286ABC0202F013208F020E2D601CC
:102AC000AD92BC9221110BC0940142E0F3016285EA
:102AD000828193810E942A0B811197C010C030E03F
:102AE000820140E0D3011A966C911A9712968D914B
:102AF0009C9113970E94F00F811187C0E5CF1F9220
:102B00001F925F924F921F9288E08F9388E0882EE9
:102B1000912CA12CB12C99E2C92EE12C06E020EADF
:102B200040E0F3016285828193810E94080F182F93
:102B30000F900F900F900F900F900F90811166C023
:102B40008B81D3011B968C931B97720100E028E0C8
:102B500030E040E01A966C911A9712968D919C91F4
:102B600013970E941710811150C02B813C8140E0C7
:102B7000F3016285828193810E941710811145C003
:102B8000298130E0CE0181967C0140E0D3011A9684
:102B90006C911A9712968D919C9113970E94171021
:102BA000811133C02E8140E0F301628582819381DF
:102BB0000E940812811129C001E0D3011B968C915B
:102BC0001B97801740F020E0402F68E0C3010E946F
:102BD000A6140F5FF2CF1296ED91FC911397EA586D
:102BE000FF4F80818460808381E050968C930EC07B
:102BF00019ED0CC016ED0AC017ED08C011ED06C0A6
:102C000014ED04C0F601B182A082182F812FE8963E
:102C10000FB6F894DEBF0FBECDBFDF91CF911F91ED
:102C20000F91FF90EF90DF90CF90BF90AF909F906B
:102C30008F907F906F905F904F903F902F9008956E
:102C4000CF92DF92FF920F931F93CF93DF9300D029
:102C500000D0CDB7DEB78C01F62E19821A821B8206
:102C60001C8220E0462F61E10E94521420E04F2D8B
:102C700060E1C8010E94521420E04F2D64E0C801B9
:102C80000E94A61483E0C82ED12C9E012F5F3F4FD7
:102C900044E050E06F2DC8010E947D148823F1F0BC
:102CA00020E04F2D64E1C8010E94521420E04F2D16
:102CB00060E1C8010E94521464E170E080E090E09D
:102CC0000E942D090F900F900F900F90DF91CF91E0
:102CD0001F910F91FF90DF90CF90089589819A8185
:102CE000AB81BC819D7F83309140A041B105C1F291
:102CF00064E670E080E090E00E942D0981E0C81A4F
:102D0000D10819F6CDCFFC0183E691E09183808351
:102D10007383628312861386148615861686178639
:102D2000108A148288E085839CE3968391E09783E0
:102D3000808784E0818761157105B1F0DB01AA5AB3
:102D4000BF4F80E090E02D913D91232B49F48B966D
:102D5000880F991FDB01A80FB91FED93FC9308950D
:102D600001968031910579F70895EF92FF920F93C4
:102D70001F93CF938C01C62F7A01FA018081918134
:102D8000A281B3818130F3E09F07F1E0AF07B10585
:102D9000D1F060F48115E1E09E07AE07B10571F155
:102DA00081309140A140B10571F064C0833021E0D1
:102DB000920720E1A207B105E1F183309340A041E1
:102DC000B105B9F157C08091D202811153C020E002
:102DD0004C2F61E1C8010E94521420E04C2F60E1A9
:102DE000C8010E94521420E04C2F64E0C8010E94E8
:102DF000A61481E08093D20281EB3DC020E0462FF3
:102E000061E1C8010E94521420E04C2F60E1C8012A
:102E10000E9452141092D202F80162856770C77046
:102E2000660F660F660F6C2B828193810E94470BA1
:102E300021C020E04C2F64E1C8010E94521420E020
:102E40004C2F60E1C8010E94521464E170E080E000
:102E500090E00E942D09F8016285F70121812695F5
:102E6000217067704C2FF801828193810E940611B6
:102E70001092D20280E0CF911F910F91FF90EF90BE
:102E80000895EF92FF920F931F93CF93DF93CDB7E7
:102E9000DEB72E970FB6F894DEBF0FBECDBF7C0114
:102EA00081E090E09E878D878E010F5F1F4F9E010E
:102EB000235F3F4F41E0F7016285828193810E9449
:102EC0002D12811151C002E011E089818023D1F0DF
:102ED00019861A861B861C869E01275F3F4F44E099
:102EE00050E0612FC7010E947D1481110BC0AE011B
:102EF000475F5F4F612FC7010E94B516813B99F173
:102F0000811132C0000F1F5F1830F9F611E0F70190
:102F10008385811740F119861A861B861C869E01BF
:102F2000275F3F4F44E050E0612FC7010E947D14AE
:102F3000811117C089859A85877091708130914081
:102F400081F48B859C8581609C878B87AE01475F70
:102F50005F4F612FC7010E94B516813B21F081119F
:102F600003C01F5FD4CF80E02E960FB6F894DEBF6B
:102F70000FBECDBFDF91CF911F910F91FF90EF90CA
:102F800008950F931F93CF93DF93FC0120892111A4
:102F900002C080E020C0EC010E942B090C851D8539
:102FA0002E853F85DC01CB01801B910BA20BB30B5F
:102FB000B7FDEFCFCE010E944117182F0E942B09B9
:102FC000DC01CB018C599F4FAF4FBF4F8C879D8742
:102FD000AE87BF87812FDF91CF911F910F91089509
:102FE000CF93DF93FC01EA0180819181892B19F550
:102FF00080E027C028813981232BD1F3DB012D917B
:103000003C91D9019C91A381B0E0A81BB10920811A
:103010003181A20FB31F9C9382818150828388816A
:103020009981019799838883DB018D919C911197F8
:1030300001968D939C9382818111DCCF8381828361
:1030400081E0DF91CF910895CF92DF92EF92FF92CE
:103050000F931F93CF93DF936C01EB017B01E40E81
:10306000F51E00E010E0CE15DF0561F06991D60194
:10307000ED91FC910190F081E02DC6010995080FBA
:10308000191FF1CFC801DF91CF911F910F91FF90D0
:10309000EF90DF90CF9008958091DB02089508951E
:1030A000CF93DF9300D01F92CDB7DEB720916E0390
:1030B000243021F523E029839B838A8382E0809357
:1030C000E9008FEF9091E800815095FD06C095EDE5
:1030D0009A95F1F700008111F5CF8091E80085FF06
:1030E0000DC040E050E063E070E0CE0101960E9428
:1030F000141A8091E8008E778093E8000F900F906B
:103100000F90DF91CF910895CF93DF9300D01F925E
:10311000CDB7DEB79C0180916E03843019F592E043
:1031200099833B832A839093E9008FEF9091E80085
:10313000815095FD06C095ED9A95F1F7000081113B
:10314000F5CF8091E80085FF0DC040E050E063E0DE
:1031500070E0CE0101960E94141A8091E8008E77EB
:103160008093E8000F900F900F90DF91CF9108951A
:10317000CF93DF9320916E03243039F521E0209323
:10318000E9002FEF3091E800215035FD06C035ED04
:103190003A95F1F700002111F5CF2091E80025FFC5
:1031A00014C0EC0140E050E068E070E00E94141AA6
:1031B0008091E8008E778093E80088E0FE01A3ED1F
:1031C000B2E001900D928A95E1F7DF91CF910895D9
:1031D00080916D03811109C00E94A91B0E94061CE9
:1031E0008091E20084608093E200089510926D0364
:1031F0000895089542E061EC81E00E94231B42E0C3
:1032000061EC82E00C94231B80917003833009F4FD
:1032100053C030F4813071F0823009F48CC00895CD
:103220008A3009F478C08B3009F45EC0893009F027
:103230009AC020C080916F03813A09F094C08091B8
:10324000E800877F8093E800809173039091740376
:10325000892B21F468E083ED92E003C060E080E018
:1032600090E070E00E945F1A8091E8008B77809375
:10327000E800089580916F03813209F074C0809155
:10328000730390917403892B09F06DC08091E8005D
:10329000877F8093E8008091E80082FD05C08091DF
:1032A0006E038111F8CF5FC08091F1008093DB0243
:1032B0008091E8008B7753C080916F03813A09F0C9
:1032C00052C08091730390917403892B09F04BC015
:1032D0008091E800877F8093E8008091E80080FF7C
:1032E000FCCF80910A0136C080916F038132D9F5FD
:1032F0008091730390917403892BA9F58091E80064
:10330000877F8093E8000E94581B8091710380930F
:103310000A010C94B92380916F03813221F58091C9
:10332000E800877F8093E8000E94581B8091720319
:103330008093DC02089580916F03813AA1F480911B
:10334000E800877F8093E8008091E80080FFFCCF51
:103350008091DC028093F1008091E8008E77809369
:10336000E8000C94581B089580E0089508950C948B
:10337000B6190C948D290C94B919292F33272330B1
:103380003105C9F064F42130310581F02230310576
:1033900009F042C08BE390E024E432E041C02132E6
:1033A0003105F1F02232310549F136C082E190E079
:1033B0002FE732E035C099278130910541F0823006
:1033C000910541F0892B41F5E0E4F2E005C0E4E32A
:1033D000F2E002C0EEE0F2E0849190E09F0120C0B4
:1033E000662339F06130C1F489E090E02FE632E0E5
:1033F00017C089E090E026E532E012C0662339F07C
:10340000613051F486E390E021E932E009C080E4C4
:1034100090E027EC32E004C080E090E020E030E073
:10342000FA01318320830895CF92DF92EF92FF92C9
:103430000F931F93CF93DF93EC018B016A010E94DE
:10344000771B811133C0C114D10439F0F60180819A
:103450009181081B190BC80FD91FE12CF12C011504
:10346000110519F18091E80085FD16C08091E800F2
:103470008E778093E800C114D10449F0F601808171
:103480009181E80EF91EF182E08285E00FC00E9472
:10349000771B882321F30AC089918093F1000150A2
:1034A0001109FFEFEF1AFF0ADACF80E0DF91CF9129
:1034B0001F910F91FF90EF90DF90CF900895209192
:1034C0007503309176032617370748F061157105AB
:1034D00039F42091E8002E772093E80001C0B9016B
:1034E00040E061157105A9F120916E03222309F4D2
:1034F00043C0253009F442C02091E80023FD40C0BC
:103500002091E80022FD32C02091E80020FFE9CFA1
:103510004091F3002091F20030E0342BFC01CF0108
:103520006115710559F02830310540F4819180937F
:10353000F100615071092F5F3F4FF1CF41E028301A
:10354000310509F040E02091E8002E772093E80053
:10355000C8CF4111C9CF0AC080916E03882361F0A2
:10356000853061F08091E80083FD0AC08091E80019
:1035700082FFF2CF80E0089582E0089583E008950D
:1035800081E008952091750330917603261737075F
:1035900048F06115710539F42091E8002E772093E9
:1035A000E80001C0B901FC0120E06115710591F14D
:1035B00080916E03882309F440C0853009F43FC030
:1035C0008091E80083FD3DC08091E80082FD2FC01E
:1035D0008091E80080FFE9CF2091F3008091F20014
:1035E00090E0922B6115710559F08830910540F4F7
:1035F00024912093F1003196615071090196F2CF28
:1036000021E0089709F020E08091E8008E77809310
:10361000E800CBCF2111CCCF0AC080916E03882364
:1036200061F0853061F08091E80083FD0AC08091EF
:10363000E80082FFF2CF80E0089582E0089583E001
:10364000089581E00895982F973058F59093E900F8
:10365000981739F07091EC002091ED005091F00036
:1036600003C0242F762F50E021FF19C03091EB00CA
:103670003E7F3093EB003091ED003D7F3093ED00C5
:103680003091EB0031603093EB007093EC002093AD
:10369000ED005093F0002091EE0027FF07C09F5FE0
:1036A000D3CF8F708093E90081E0089580E0089582
:1036B00080916F0387FF11C08091E80082FD05C0F3
:1036C00080916E038111F8CF11C08091E8008B7753
:1036D0000BC080916E03882349F08091E80080FF41
:1036E000F8CF8091E8008E778093E80008952091CC
:1036F000E4003091E50095E64091EC00842F817064
:1037000040FF22C08091E80080FD1CC080916E03C4
:10371000882391F0853091F08091EB0085FD10C0F9
:103720004091E4005091E5004217530729F39A01B4
:10373000915011F784E0089582E0089583E00895A0
:1037400081E0089580E008954091E80042FFDECFD7
:1037500008950E94171C0E941F1CE0EEF0E080817B
:1037600081608083E8EDF0E080818F77808319BCF1
:10377000A7EDB0E08C918E7F8C9380818F7E8083CB
:1037800010926D0308950F931F93CF93DF930E94C0
:10379000171C0E941F1CC8EDD0E088818F7788839A
:1037A00088818068888388818F7D888319BC109286
:1037B0006E0310926A0310926C0310926B0300EE7A
:1037C00010E0F80180818B7F80838881816088830D
:1037D00042E060E080E00E94231BE1EEF0E08081A7
:1037E0008E7F8083E2EEF0E0808181608083808143
:1037F00088608083F80180818E7F808388818061EA
:103800008883DF91CF911F910F910895E8EDF0E04B
:1038100080818F7E8083E7EDF0E08081816080830E
:1038200084E082BF81E080936D030C94C31BE8EDBC
:10383000F0E080818E7F80831092E20008951092E4
:10384000DA001092E10008951F920F920FB60F92C6
:1038500011242F933F934F935F936F937F938F9395
:103860009F93AF93BF93EF93FF938091E10082FF0B
:103870000BC08091E20082FF07C08091E1008B7F46
:103880008093E1000E948B1E8091DA0080FF1FC0B0
:103890008091D80080FF1BC08091DA008E7F8093DA
:1038A000DA008091D90080FF0DC080E189BD82E1FE
:1038B00089BD09B400FEFDCF81E080936E030E94B4
:1038C000E81805C019BC10926E030E94F61880918A
:1038D000E10080FF19C08091E20080FF15C0809157
:1038E000E2008E7F8093E2008091E200806180930D
:1038F000E2008091D80080628093D80019BC85E0F6
:1039000080936E030E94B7198091E10084FF30C05C
:103910008091E20084FF2CC080E189BD82E189BDF5
:1039200009B400FEFDCF8091D8008F7D8093D80030
:103930008091E1008F7E8093E1008091E2008F7E94
:103940008093E2008091E20081608093E2008091A8
:103950006A03882311F084E007C08091E30087FDAB
:1039600002C081E001C083E080936E030E94BB1916
:103970008091E10083FF29C08091E20083FF25C090
:103980008091E100877F8093E10082E080936E0365
:1039900010926A038091E1008E7F8093E100809114
:1039A000E2008E7F8093E2008091E200806180934C
:1039B000E20042E060E080E00E94231B8091F00082
:1039C00088608093F0000E94F918FF91EF91BF91F9
:1039D000AF919F918F917F916F915F914F913F91A7
:1039E0002F910F900FBE0F901F9018951F920F925E
:1039F0000FB60F9211242F933F934F935F936F93C2
:103A00007F938F939F93AF93BF93CF93DF93EF9366
:103A1000FF93C091E900CF708091EC00D82FD17056
:103A200080FDD0E81092E9008091F000877F8093BC
:103A3000F00078940E943A1D1092E9008091F00005
:103A400088608093F000CD2BCF70C093E900FF9188
:103A5000EF91DF91CF91BF91AF919F918F917F9126
:103A60006F915F914F913F912F910F900FBE0F90EB
:103A70001F9018951F93CF93DF93CDB7DEB7AA970A
:103A80000FB6F894DEBF0FBECDBFEFE6F3E088E0DF
:103A90008E0F9091F10091938E13FBCF0E94041929
:103AA0008091E80083FF1FC180916F0390917003A4
:103AB000492F50E04A30510508F015C1FA01EA5A81
:103AC000FF4F0C94D32F803881F0823809F00BC15E
:103AD000809173038F708093E9008091EB0085FBE8
:103AE000882780F91092E90006C080916B039091BD
:103AF0006C03911182609091E800977F9093E800A9
:103B00008093F1001092F100C8C0282F2D7F09F09A
:103B1000EAC0882319F0823061F0E5C0809171031A
:103B2000813009F0E0C0933009F080E080936C03AD
:103B30002BC080917103811127C0809173038F7016
:103B400009F4D1C08093E9002091EB0020FF1CC054
:103B5000933021F48091EB00806214C09091EB00CF
:103B600090619093EB0021E030E0A90102C0440F86
:103B7000551F8A95E2F74093EA001092EA0080917F
:103B8000EB0088608093EB001092E9008091E800E0
:103B9000877F86C08111A7C0109171031F77809124
:103BA000E3008078812B8093E3008091E800877F99
:103BB0008093E8000E94581B8091E80080FFFCCFB2
:103BC0008091E30080688093E300111102C082E0DD
:103BD00001C083E080936E0386C08058823008F075
:103BE00082C080917103909172038C3D53E09507E0
:103BF00079F583E08A838AE289834FB7F894DE01FE
:103C0000139620E03EE051E2E32FF0E0509357009E
:103C1000E49120FF03C0E295EF703F5FEF708E2FBD
:103C200090E0EA3010F0C79601C0C0968D939D9346
:103C30002F5F243149F74FBF8091E800877F809341
:103C4000E8006AE270E0CE0101960E945F1A14C09B
:103C5000AE014F5F5F4F609173030E94BD19BC01BD
:103C6000892B09F440C09091E800977F9093E80079
:103C700089819A810E94C21A8091E8008B77809393
:103C8000E80031C0803879F58091E800877F809323
:103C9000E80080916A038093F1008091E8008E77BC
:103CA0008093E8000E94581B1EC081111CC0909197
:103CB00071039230C0F48091E800877F8093E80020
:103CC00090936A030E94581B80916A03811106C079
:103CD0008091E30087FD02C081E001C084E0809311
:103CE0006E030E94FA188091E80083FF0AC0809159
:103CF000E800877F8093E8008091EB0080628093EA
:103D0000EB00AA960FB6F894DEBF0FBECDBFDF91D1
:103D1000CF911F91089508959093E2028093E1025C
:103D20000895E091E102F091E202309721F00190D4
:103D3000F081E02D099480E00895E091E102F09196
:103D4000E202309721F00280F381E02D099408957A
:103D50002091DF023091E0028217930771F0909377
:103D6000E0028093DF02E091E102F091E2023097FD
:103D700021F00680F781E02D099408952091DD025D
:103D80003091DE028217930771F09093DE028093E8
:103D9000DD02E091E102F091E202309721F000842F
:103DA000F185E02D099408950E947B090E943C074B
:103DB0000E94582D0E948C2C0E948C2B0C94742EE7
:103DC0004F925F927F928F929F92AF92BF92CF92CB
:103DD000DF92EF92FF920F931F93CF93DF9300D068
:103DE00000D01F92CDB7DEB70E94990594EEC92E80
:103DF00092E0D92E00E010E0AA24A394B12C702EFA
:103E0000802F0E943B064C01F601419051906F01BA
:103E10004826592641145104B1F40F5F1F4F003159
:103E2000110569F78FEF89838A831B820E948409B9
:103E30008160782F9D838C8349815A816B818D812C
:103E40000E949B1F41C080914F0381FD0E946B0621
:103E500020E030E07501022E02C0EE0CFF1C0A9437
:103E6000E2F7C70184219521892B41F129837A82C8
:103E70008E209F2091E0892809F490E09B830E9486
:103E800084098160782F9D838C8349815A816B815D
:103E90008D810E949B1F49815A816B817C818D811C
:103EA0000E947E29000F111FF801EC51FD4F808107
:103EB0009181E826F926F182E08206C02F5F3F4F0C
:103EC0002031310539F6A9CF0E947D291091E302F6
:103ED0000E94911E1817D1F00E94911E8093E30258
:103EE0000F900F900F900F900F90DF91CF911F9137
:103EF0000F91FF90EF90DF90CF90BF90AF909F9089
:103F00008F907F905F904F900C94BF2C0F900F90EC
:103F10000F900F900F90DF91CF911F910F91FF9015
:103F2000EF90DF90CF90BF90AF909F908F907F9059
:103F30005F904F900895CF93DF93CDB7DEB72B9767
:103F40000FB6F894DEBF0FBECDBF942F4F83252F41
:103F5000588769877A878B874A855B85452B21F04F
:103F60002F3F09F59F3FF9F4DE01119686E0FD0130
:103F700011928A95E9F785E0FE01379601900D923E
:103F80008A95E1F749815A816B817C818D819E817F
:103F90000E9453262B960FB6F894DEBF0FBECDBFFE
:103FA000DF91CF9108954F81588569857A858B85FA
:103FB0000E947E29D9CFCF93882309F4A4C0C82FAB
:103FC0008CEF8C0F813A48F48C2F0E944A2B811180
:103FD0009AC08C2F0E94DE280CC080E28C0F8830A3
:103FE00058F4C77081E001C0880FCA95EAF70E94B3
:103FF0001D29CF910C9457298BE58C0F833078F4D1
:10400000C53A29F0C63A31F083E890E005C081E86E
:1040100090E002C082E890E0CF910C94A81E88E561
:104020008C0F853108F06FC0C83A61F1C93A69F167
:10403000CA3A71F1CB3A79F1CC3A81F1CD3A89F1B2
:10404000CE3A91F1CF3A99F1C13BA1F1C03BA9F130
:10405000C23BB1F1C33BB9F1C43BC1F1C53BC9F1AE
:10406000C63BD1F1C73BD9F1C83BE1F1C93BE9F10E
:10407000CA3BF1F1CB3BF9F1CC3B09F43FC080E006
:1040800090E03EC082EE90E03BC089EE90E038C008
:104090008AEE90E035C085EB90E032C086EB90E090
:1040A0002FC083EB90E02CC084EB90E029C087EB1D
:1040B00090E026C08CEC90E023C08DEC90E020C016
:1040C00083E891E01DC08AE891E01AC082E991E09E
:1040D00017C084E991E014C081E292E011C083E24C
:1040E00092E00EC084E292E00BC085E292E008C04C
:1040F00086E292E005C087E292E002C08AE292E0A6
:10410000CF910C94BE1ECF910895882329F19CEF86
:10411000980F913A18F40E94FB280DC090E2980F76
:10412000983058F4877091E001C0990F8A95EAF7AA
:10413000892F0E9423290C9457299BE5980F9330CF
:1041400020F480E090E00C94A81E885A853120F479
:1041500080E090E00C94BE1E0895882321F00E9418
:104160001D290C9457290895882321F00E942329A2
:104170000C9457290895CF92DF92EF92FF920F93FC
:104180001F93CF93DF9300D000D000D0CDB7DEB720
:1041900025E0FC01DE01119601900D922A95E1F7D0
:1041A000FC0140813181F280258122952F7063814D
:1041B0007481672B09F4C0C23F3F19F44F3F09F4E3
:1041C000BBC26C0149833A8389819A812E830E9404
:1041D0009D28182F092F0E949C280E94AC27E02FB1
:1041E000E295EF70F0E0E05AFF4F2E810C94D32F50
:1041F000802F807F902F9F70092F882311F00295C8
:10420000007FFF2049F0002309F447C2802F0E945D
:1042100030290E94572941C2812F0E948520002306
:1042200009F48AC2802F0E94362926960FB6F89488
:10423000DEBF0FBECDBFDF91CF911F910F91FF90D9
:10424000EF90DF90CF900C945729802F807F902F94
:104250009F70092F803211F00295007F112319F011
:10426000113001F129C0FF20A9F0802F222349F14C
:10427000213039F526960FB6F894DEBF0FBECDBFBC
:10428000DF91CF911F910F91FF90EF90DF90CF9032
:104290000C944029222319F0213009F44DC20E94C8
:1042A00043292CC0FF20E9F0263008F045C20E94C7
:1042B0001A29802329F022C0FF20F1F0211115C016
:1042C000802F26960FB6F894DEBF0FBECDBFDF91CC
:1042D000CF911F910F91FF90EF90DF90CF900C94B2
:1042E000AD20253008F028C209C0F601858180FF85
:1042F000D4C18F708583E4CF2111E3C1802F51C1D8
:10430000202F26952695237030E02115310521F0C8
:1043100021303105C9F010C2FF2021F0812F902FEC
:10432000937002C080E090E026960FB6F894DEBF4E
:104330000FBECDBFDF91CF911F910F91FF90EF90F6
:10434000DF90CF900C94A81EFF2021F0812F902F9A
:10435000937002C080E090E026960FB6F894DEBF1E
:104360000FBECDBFDF91CF911F910F91FF90EF90C6
:10437000DF90CF900C94BE1E802F837009F078C020
:10438000F110DAC1812F829586958770880F880F8A
:10439000912F9F70C92ED12CE12CF12C082E04C036
:1043A000CC0CDD1CEE1CFF1C0A94D2F714FF12C0CB
:1043B0004FE050E060E070E004C0440F551F661FFE
:1043C000771F8A95D2F7CB01BA01609570958095D9
:1043D000909503C060E070E0CB01202F26952695D4
:1043E0002370422F50E042305105D1F04330510547
:1043F00059F16C297D298E299F294130510541F1C0
:1044000026960FB6F894DEBF0FBECDBFDF91CF91D9
:104410001F910F91FF90EF90DF90CF900C94C127E8
:104420006C297D298E299F2926960FB6F894DEBF28
:104430000FBECDBFDF91CF911F910F91FF90EF90F5
:10444000DF90CF900C94D3270E94C127C701B601FB
:1044500026960FB6F894DEBF0FBECDBFDF91CF9189
:104460001F910F91FF90EF90DF90CF900C94AF27AA
:10447000FF2019F0802F817001C08695882309F4F0
:104480005BC1812F829586958770880F880F912F49
:104490009F70C92ED12CE12CF12C082E04C0CC0C1D
:1044A000DD1CEE1CFF1C0A94D2F714FF12C04FE073
:1044B00050E060E070E004C0440F551F661F771F96
:1044C0008A95D2F7CB01BA01609570958095909549
:1044D00003C060E070E0CB01202F26952695237065
:1044E000422F50E042305105D1F04330510559F18F
:1044F0006C297D298E299F294130510541F126964D
:104500000FB6F894DEBF0FBECDBFDF91CF911F91E4
:104510000F91FF90EF90DF90CF900C9478286C294A
:104520007D298E299F2926960FB6F894DEBF0FBEEF
:10453000CDBFDF91CF911F910F91FF90EF90DF9052
:10454000CF900C948A280E947828C701B60126963D
:104550000FB6F894DEBF0FBECDBFDF91CF911F9194
:104560000F91FF90EF90DF90CF900C946628103F52
:1045700041F118F4103E48F48BC0123F09F450C0CA
:10458000D8F1133F09F460C083C01F70802F8F7172
:10459000FF2021F00E94FF27812F93CE0E94202828
:1045A000812F26960FB6F894DEBF0FBECDBFDF91E8
:1045B000CF911F910F91FF90EF90DF90CF900C94CF
:1045C000B420FF20A9F0253008F0B6C0802F8F71ED
:1045D00026960FB6F894DEBF0FBECDBFDF91CF9108
:1045E0001F910F91FF90EF90DF90CF900C94452892
:1045F000263008F0A1C0EACFFF20A1F0802F8F71F4
:1046000026960FB6F894DEBF0FBECDBFDF91CF91D7
:104610001F910F91FF90EF90DF90CF900C94FF27A8
:10462000FF2061F3802F8F7126960FB6F894DEBFBE
:104630000FBECDBFDF91CF911F910F91FF90EF90F3
:10464000DF90CF900C942028FF2091F0802F8F7165
:1046500026960FB6F894DEBF0FBECDBFDF91CF9187
:104660001F910F91FF90EF90DF90CF900C94EA276D
:1046700026960FB6F894DEBF0FBECDBFDF91CF9167
:104680001F910F91FF90EF90DF90CF900C94E52752
:10469000FF20A1F0222309F4B1CF812F26960FB677
:1046A000F894DEBF0FBECDBFDF91CF911F910F9168
:1046B000FF90EF90DF90CF900C94DB1F222309F442
:1046C000B1CF812F26960FB6F894DEBF0FBECDBFB7
:1046D000DF91CF911F910F91FF90EF90DF90CF90DE
:1046E0000C948520402F4F70612FC6010E94A902B3
:1046F00026960FB6F894DEBF0FBECDBFDF91CF91E7
:104700001F910F91FF90EF90DF90CF900C94F726C0
:10471000402F4F70612FC60126960FB6F894DEBF6A
:104720000FBECDBFDF91CF911F910F91FF90EF9002
:10473000DF90CF900C94200226960FB6F894DEBF3F
:104740000FBECDBFDF91CF911F910F91FF90EF90E2
:10475000DF90CF9008950E943D290E940C290E946D
:10476000572980E090E00E94A81E80E090E00C9421
:10477000BE1E0E942D290C94AB230E949D28292F38
:1047800022952F7030E02C3031054CF42A30310561
:104790006CF4225031092230310588F407C02C30E6
:1047A000310549F02F30310531F009C0803E48F025
:1047B000803F29F406C093FB882780F9089580E0A4
:1047C000089581E00895CF93DF9300D000D01F9229
:1047D000CDB7DEB70F900F900F900F900F90DF9135
:1047E000CF910895CF93DF9300D000D000D0CDB704
:1047F000DEB726960FB6F894DEBF0FBECDBFDF91B1
:10480000CF9108951F93CF93DF93C091040316E0D7
:1048100080910503C81799F0D0E01C9FF0011D9FFF
:10482000F00D1124EA5FFC4F408151816281738158
:10483000848195810E94F2232196C770E9CFDF9190
:10484000CF911F91089540913603509137036091A5
:1048500038037091390380913A0390913B030C9493
:10486000F22380913B0382958F7009F054C08091B0
:104870003803882309F44FC080910403A0910503F5
:1048800060913603709137034091390350913A0398
:10489000B6E08A1709F43FC090E041155105C1F117
:1048A0007F3F11F46F3FA1F1B89FF001B99FF00D68
:1048B0001124EA5FFC4F218172132AC02081621308
:1048C00027C02281211124C0238134812417350778
:1048D00010F421503109241B350B283C3105C0F45C
:1048E00020913B032F70206120933B0326E0289FFB
:1048F000F001299FF00D1124E55FFC4F80818F703E
:104900008061808386E393E00E94BB200C940224A4
:1049100001968770BECF0895CF92DF92EF92FF92FB
:104920000F931F93CF93DF93CDB7DEB762970FB688
:10493000F894DEBF0FBECDBF8C0185E0F801DE012B
:104940001D9601900D928A95E1F7D8014C91119630
:104950005C91119712966C9112971396CD90DC9002
:1049600014973091360370913703809139039091F9
:104970003A03009709F46BC17F3F19F43F3F09F4F4
:1049800066C1E0903803EE2009F4C0C020913B03DB
:10499000C816D90628F0F601E81BF90BCF0104C0B0
:1049A000809590958C0D9D1DFF24F394883C910576
:1049B00078F0F12C207F09F0C6C07C2DD98AC88AF6
:1049C00089890E94E32386E393E00E94BB20B1C063
:1049D000822F807F09F046C0751314C0341312C0B3
:1049E000611110C02F70206120933B030E9423248B
:1049F00086E393E00E94BB2080913B03D80115968B
:104A00008C932EC0CD2819F15F3F11F44F3FF9F080
:104A1000F62E61111CC0809104032091050336E03D
:104A2000821709F45AC090E0389FF001399FF00DC9
:104A30001124EA5FFC4F7181571306C07081471340
:104A400003C07281711103C001968770E9CFF62E01
:104A5000662309F418C180913B03816080933B0376
:104A6000F12C11C1751308C0341306C0611104C0C4
:104A700080913B03D801C3C04D875E878D859E859D
:104A80006A8B0E94BD236A898823E1F16623D1F1F4
:104A900020913B03822F82958F7090E0029774F0F3
:104AA000809136039091370398878F831986DB8630
:104AB000CA862C87CE0107960E94BB2086E0F801AB
:104AC000A6E3B3E001900D928A95E1F70E943124AC
:104AD0000E942324FF24F394D6C04D875E878D85E2
:104AE0009E850E949D28292F22952F7030E022302C
:104AF00031050CF0BCC09F7009F0B6C0805E8830F4
:104B000008F4C1C0C8010E94BB20E4CFC816D90672
:104B100008F453C0F601E81BF90BCF01883C91055E
:104B200008F450C0F12C7C2DD98AC88A89890E944A
:104B3000E323E6E3F3E086E0DF011D928A95E9F7DF
:104B40000E942324A0C0751314C0341312C0611135
:104B500010C080913B03F8018583C8010E94BB20EF
:104B600086E0E6E3F3E0DF011D928A95E9F7FE2C8B
:104B70008AC04D875E878D859E856A8B0E94BD2386
:104B80006A89882309F4BECF662309F4BBCF20913C
:104B90003B03822F82958F7090E002970CF48ECFAA
:104BA00080913603909137039A8389831B82DD823B
:104BB000CC822E83CE0101967FCF809590958C0D6F
:104BC0009D1DACCFF62E662309F49CCF75132EC025
:104BD00034132CC020913B0320FD1FC0822F8295EF
:104BE0008F70D9F0D80115962C9315978F3049F016
:104BF0008F5F982F9295907F822F8F70892B1596BB
:104C00008C93C8010E94BB2086E0F801A6E3B3E0C4
:104C100001900D928A95E1F793CF86E0F801A6E323
:104C2000B3E001900D928A95E1F72DC04D875E8724
:104C30008D859E850E94BD23811140CF80913B03CD
:104C4000816080933B03C8010E94BB201CC0662387
:104C500009F458CF4D875E878D859E850E94BD23C0
:104C6000882309F44FCF2ACF811148CF0CC02430BC
:104C700031050CF047CF9F7009F440CFF8019581C2
:104C8000907F09F03BCF8F2D62960FB6F894DEBF70
:104C90000FBECDBFDF91CF911F910F91FF90EF908D
:104CA000DF90CF9008951F93CF93DF93CDB7DEB7FA
:104CB0002C970FB6F894DEBF0FBECDBF4F83588739
:104CC00069877A878B879C87CE0107960E948C2400
:104CD000882369F08F8198852A853B85232BF1F104
:104CE0009F3F09F063C08F3F09F060C037C086E086
:104CF000FE013796DE01119601900D928A95E1F73B
:104D00006F817885EA85FB85309741F17F3F11F40B
:104D10006F3F21F12091050330E0C90101968770B2
:104D200099274091040350E08417950709F447C080
:104D300069837A83FD83EC8396E0929FD001939FF1
:104D4000B00D1124AA5FBC4FFE01319601900D9267
:104D50009A95E1F7809305030E94022416E0809162
:104D60000403909105038917C1F1189FC001112414
:104D70008A5F9C4F0E948C24882379F1E091040380
:104D80001E9FF0011124EA5FFC4F40815181628136
:104D90007381848195810E94F2238091040390E0C5
:104DA00001968770992780930403D9CF4F81588546
:104DB00069857A858B859C850E94F223CFCF0E94DE
:104DC000B9231092050310920403E6E3F3E086E0B2
:104DD000DF011D928A95E9F7C1CF2C960FB6F894A2
:104DE000DEBF0FBECDBFDF91CF911F910895DF923F
:104DF000EF92FF920F931F93CF93DF93FC01892BC8
:104E000009F48AC0E12CF12CDD24D394EF01219622
:104E10008491853709F461C058F4843708F04EC096
:104E2000843008F06AC08130D1F0823071F174C0F2
:104E3000883709F45DC050F4863709F455C08737C8
:104E400009F06AC08E2D0E942A2954C09CE7980F51
:104E5000903708F061C08F770E94852050C08F0185
:104E60000E5F1F4FFE01849190E2980F983050F42E
:104E70008770FD2D01C0FF0F8A95EAF78F2F0E94E2
:104E8000302914C00E94DB1F13C08F010E5F1F4F1B
:104E9000FE01C49180E28C0F883060F4C7708D2DC4
:104EA00001C0880FCA95EAF70E9436290E94572947
:104EB000E80125C08C2F0E948520FACF9F012E5F2C
:104EC0003F4FFE01C491CC2369F08FE99FE0019729
:104ED000F1F700C00000C150F6CF9F012E5F3F4F99
:104EE000FE01F490E9010BC00E941A29E82E07C0C8
:104EF0000E942D290E94572902C00E94DB1F8F2D7E
:104F0000882341F0EFE9FFE03197F1F700C000009E
:104F10008150F6CFFE017ACFDF91CF911F910F9193
:104F2000FF90EF90DF9008956093400370934103EA
:104F300080934203909343030E94E32C0C94AB2391
:104F400060933C0370933D0380933E0390933F0333
:104F50000E94102D0C94AB2308950C9494270F936A
:104F60001F9300914003109141032091420330911F
:104F70004303602B712B822B932B1F910F910C9469
:104F800094270F931F9300914003109141032091A8
:104F900042033091430360237123822393231F91A3
:104FA0000F910C9494270F931F930091400310913D
:104FB00041032091420330914303602771278227E8
:104FC00093271F910F910C94942760E070E0CB0120
:104FD0000C94A0270F931F9341E050E060E070E035
:104FE0008A019B0104C0000F111F221F331F8A95E5
:104FF000D2F7C901B8011F910F910C94A0270F930C
:105000001F9341E050E060E070E004C0440F551F82
:10501000661F771F8A95D2F780913C0390913D03DC
:10502000A0913E03B0913F038A019B01082B192BED
:105030002A2B3B2BC901B8011F910F910C94A0277B
:105040000F931F9341E050E060E070E004C0440F14
:10505000551F661F771F8A95D2F74095509560952A
:10506000709580913C0390913D03A0913E03B091D7
:105070003F038A019B01082319232A233B23C901EB
:10508000B8011F910F910C94A0270F931F9341E03B
:1050900050E060E070E004C0440F551F661F771FAA
:1050A0008A95D2F780913C0390913D03A0913E03F5
:1050B000B0913F038A019B01082719272A273B2724
:1050C000C901B8011F910F910C94A0270F931F9352
:1050D00000913C0310913D0320913E0330913F032A
:1050E000602B712B822B932B1F910F910C94A02777
:1050F0000F931F9300913C0310913D0320913E03B9
:1051000030913F0360237123822393231F910F91DA
:105110000C94A0270F931F9300913C0310913D0323
:1051200020913E0330913F03602771278227932708
:105130001F910F910C94A0270895CF92DF92EF92C8
:10514000FF920F931F93CF93DF938C01C090400386
:10515000D0904103E0904203F090430340913C0320
:1051600050913D0360913E0370913F03C42AD52ABC
:10517000E62AF72ACFE1D0E0D701C6010C2E04C001
:10518000B695A795979587950A94D2F780FF07C0A3
:10519000B8018C2F0E94DA298130910531F42197D2
:1051A00058F7B80180E00E94DA29DF91CF911F9172
:1051B0000F91FF90EF90DF90CF90089520910B0119
:1051C00030910C01F90132969FEF40E05191581750
:1051D00089F09F3F19F4511101C0942F4F5F463061
:1051E000A9F79F3F39F0F901E90FF11D97FDFA95F5
:1051F00082830895089520910B0130910C01F901EB
:105200003296285F3F4F9081981301C010823196EB
:10521000E217F307C1F7089581E090E0E0910B01F8
:10522000F0910C01E80FF91F10820196883091056A
:10523000A9F7089580914E03089590914E03892B0C
:1052400080934E030895809590914E038923809317
:105250004E03089580934E03089510924E030895CF
:1052600090914D03892B80934D03089580959091E3
:105270004D03892380934D03089510924D030895A3
:1052800080934403089510924403089580910B0184
:1052900090910C01FC0131969C01285F3F4F80E00A
:1052A000919191118F5FE217F307D1F70895E09183
:1052B0000B01F0910C0180914E038083E0910B0172
:1052C000F0910C01908180914D03892B8083809116
:1052D0004403882361F0E0910B01F0910C0190816F
:1052E000892B80830E94462981111092440380916A
:1052F0000B0190910C010C949D1E0895CF93DF93A8
:1053000000D000D01F92CDB7DEB70F900F900F9056
:105310000F900F90DF91CF9108950C94B9231F92B5
:105320000F920FB60F9211248F939F93AF93BF9359
:1053300080915003811113C08091C8029091C902DD
:10534000A091CA02B091CB024196A11DB11D8093DC
:10535000C8029093C902A093CA02B093CB02BF9136
:10536000AF919F918F910F900FBE0F901F90189546
:105370000E94A91BF8942FEF87EA91E62150804004
:105380009040E1F700C0000087E090EBDC018093E3
:10539000770390937803A0937903B0937A039CE00A
:1053A00088E10FB6F894A895809360000FBE9093A3
:1053B0006000FFCF0E94DE0290E4980F903218F454
:1053C0000E94E20208958D3B50F4883A80F5853AB8
:1053D00028F5843000F5813009F46EC06AC0883E3B
:1053E00098F4803EC0F48F3B09F063C00E94B9235B
:1053F0002FEF80E792E0215080409040E1F700C01D
:1054000000000E94B82955C0803F08F452C0282FE0
:1054100030E0306598C0282F30E095C0853A09F417
:105420004EC0863A09F44EC023E830E48CC0883A76
:1054300009F44BC0893A09F44BC08A3A09F44BC0CD
:105440008B3A09F44BC08C3A09F44BC08D3A09F4FD
:105450004BC08E3A09F44BC08F3A09F44BC0813BE4
:1054600009F44BC0803B09F44BC0823B09F44BC0AC
:10547000833B09F44BC0843B09F44BC0853B09F4E2
:105480004BC0863B09F44BC0873B09F44BC0883BBB
:1054900009F44BC0893B09F44BC08A3B09F44BC06B
:1054A0008B3B09F44BC08C3B09F44BC020E034E447
:1054B0004AC020E030E047C021E030E044C021E8AD
:1054C00030E441C022E830E43EC022EE34E43BC088
:1054D00029EE34E438C02AEE34E435C025EB34E458
:1054E00032C026EB34E42FC023EB34E42CC024EB91
:1054F00034E429C027EB34E426C02CEC34E423C088
:105500002DEC34E420C023E835E41DC02AE835E45E
:105510001AC022E935E417C024E935E414C021E2B9
:1055200036E411C023E236E40EC024E236E40BC0B8
:1055300025E236E408C026E236E405C027E236E478
:1055400002C02AE236E4C90108950F931F938732FF
:10555000D8F58E3108F080C08E3009F465C098F41B
:10556000873009F456C08B3009F48AC0863009F0C0
:1055700089C080914F03817F8E7F80934F0381E0AC
:105580008093510380C0863109F47AC068F4803179
:1055900009F078C080914F0383FB222720F991E026
:1055A000922790FB83F949C0893109F469C08B3196
:1055B00009F068C080914F0381FB222720F991E018
:1055C000922790FB81F939C0883309F459C040F41F
:1055D0008932E9F18533D9F1873209F053C037C0F8
:1055E0008334A9F128F48A3308F44CC0895335C0B8
:1055F000883409F047C00E94B9230FEF13ED20E370
:10560000015010402040E1F700C000000E94B8297E
:1056100037C090914F03892F817090FF12C0917F06
:105620009E7F90934F032FC080914F0382FB2227D0
:1056300020F991E0922790FB82F980934F03992300
:10564000F9F080914F03816080934F0319C061E0AE
:1056500070E080E090E010C08D5141E050E060E0EB
:1056600070E08A019B0104C0000F111F221F331F2D
:105670008A95D2F7C901B8010E94AD270E94B923CB
:1056800081E001C080E01F910F91089580E00895AE
:1056900080E00895CF93C82F80915103882319F09B
:1056A000813049F031C0E0910B01F0910C01808113
:1056B000823261F507C0E0910B01F0910C0180810D
:1056C000823261F48C2F0E94462B811104C08C2FF2
:1056D0000E94A52A17C081E090E014C08C2F0E9480
:1056E000482B81110EC0C43149F018F4CB3049F079
:1056F0000FC0C93219F0C83321F00AC0109251030B
:1057000007C081E0817006C01092510380E002C0A2
:1057100080E0F8CFCF910895E1E8F0E080818860E3
:1057200080838081816080838FB7F89493E0909329
:10573000890090ED909388008FBF0C943D2DE82F49
:10574000F0E0E15AFC4F2081422F50E08FEF90E0D3
:10575000861B9109841795071CF48FEF80830895A9
:10576000620F60830895E82FF0E0E15AFC4F8081DA
:10577000861710F410820895861B808308951F9267
:105780000F920FB60F9211242F933F934F935F9375
:105790006F937F938F939F93AF93BF93EF93FF93F9
:1057A000809155038F5F809355039091610390FF23
:1057B00016C081110BC080916003882319F080E02E
:1057C0000E943E2D80915F0380936003909155036A
:1057D00080916003981303C080E00E944B2D80915C
:1057E00054038F5F803418F48093540360C0109288
:1057F000540390915E03992309F1809153038F5FC5
:105800008093530320915C032817C0F41092530334
:1058100090FF14C080915B03882321F08150809316
:105820005B030CC080915D0361E080FF04C080E0F9
:105830000E94B32B03C080E00E949F2B20915A034B
:105840002223A9F1809152038F5F8093520390919C
:105850005803981760F51092520320FF28C08091DA
:105860005703E82FF0E0E95FFC4FE491E0935F031A
:105870009091560390FF12C081110EC09E7F9093AD
:1058800056038091590380FF12C02E7F20935A0344
:105890008E7F809359030BC0815007C08F3721F44E
:1058A00091609093560303C08F5F80935703FF91DD
:1058B000EF91BF91AF919F918F917F916F915F9188
:1058C0004F913F912F910F900FBE0F901F90189501
:1058D000CF93909167039827611101C0D9F0C82F29
:1058E0008091610380FF04C08091630380FD10C03C
:1058F000611102C090FF0CC0809162038C2780FF71
:1059000004C080E00E94A80803C080E00E94AC08A8
:10591000C0936703CF91089580E00E946F2D94FF9C
:1059200005C08091620381608093620395FF05C08A
:10593000809163038160809363039F70892F90E05F
:105940008230910559F08330910571F0019789F407
:10595000809165038160809365030BC0809164032F
:1059600081608093640305C08091660381608093A9
:1059700066030E94A50861E080E00C94682CCF9338
:10598000DF93282F809166038823D1F0D09167039D
:1059900080FF10C0C22F80E00E946F2D2C2F30E0BE
:1059A00002C0359527958A95E2F720FF02C0D160A5
:1059B00001C0DE7F60E08D2FDF91CF910C94682CC9
:1059C000DF91CF910895CF92DF92EF92FF92CF9324
:1059D000209165032223F1F0C091670320FF11C0DD
:1059E0006B017C0180E00E946F2D04C0F694E79467
:1059F000D794C7948A95D2F7C0FE02C0C16001C097
:105A0000CE7F60E08C2FCF91FF90EF90DF90CF9012
:105A10000C94682CCF91FF90EF90DF90CF90089579
:105A2000CF92DF92EF92FF92CF93209164032223D3
:105A3000F1F0C091670320FF11C06B017C0180E091
:105A40000E946F2D04C0F694E794D794C7948A956A
:105A5000D2F7C0FE02C0C16001C0CE7F60E08C2FD3
:105A6000CF91FF90EF90DF90CF900C94682CCF9166
:105A7000FF90EF90DF90CF900895089520916303F9
:105A800030E0082E02C0369527950A94E2F720FDF3
:105A90000C94A80808952091630330E0082E02C0FA
:105AA000369527950A94E2F720FD0C94AC080895EA
:105AB00087E090E00E94E12F909369038093680350
:105AC000019661F480E00E949C08909369038093A2
:105AD0006803BC0187E090E00C94F52F0895E82F4F
