:100000000C941D020C9464020C9464020C9464021F
:100010000C9464020C9464020C9464020C946402C8
:100020000C9464020C9464020C94F20E0C94C40FB1
:100030000C94721E0C9464020C9464020C9464027E
:100040000C9464020C947A270C9464020C9464025D
:100050000C9464020C94DA1E0C9464020C946402F6
:100060000C9464020C9464020C9464020C94640278
:100070000C9464020C9464020C9464020C94640268
:100080000C94A60A0C9464020C9464020C9464020E
:100090000C9464020C9464020C9464020C94640248
:1000A0000C9464020C9464020C946402AD02B202DB
:1000B000D802D402E602E202F402F0022C104F1041
:1000C0000A114F100A119410B7100A11D910EC1030
:1000D000F313F313201420147B14B5141E171E17EA
:1000E000CD141E17CA15CA1585169B161E170A179A
:1000F000F1A100D100D200D0000000F0000002F019
:1001000003F004F005F006F007F008F009F0C51E52
:100110001F20212223242526272D2E2A2B141A08BE
:1001200015171C180C12132F303139041607090A41
:100130000B0D0E0F33340028E1001D1B06190511AD
:100140001036373800E5E0E3E200002C0000000044
:10015000E6C0E7E4353A3B3C3D3E3F404142434444
:10016000454C010101010101B40149014647480123
:1001700001C9CACBCCCDCE0101014A4B000101001F
:10018000C7C8C1C2C3AAA9A84D4E00010101010000
:1001900000010000000001010101001080FF0103C7
:1001A00001020202012301220222012264321464AC
:1001B0003214783C1E1E140A0500000000010101E3
:1001C0000202030405050607090A0B0C0E0F1112A3
:1001D000141517191B1D1F212325282A2C2F3134F4
:1001E00036393B3E414346494C4F5255585A5D6162
:1001F00064676A6D707376797C7F8386898C8F9251
:1002000095989B9EA2A5A7AAADB0B3B6B9BCBEC136
:10021000C4C6C9CBCED0D3D5D7DADCDEE0E2E4E683
:10022000E8EAEBEDEEF0F1F3F4F5F6F8F9FAFAFBA3
:10023000FCFDFDFEFEFEFFFFFFFFFFFFFFFEFEFEDB
:10024000FDFDFCFBFAFAF9F8F6F5F4F3F1F0EEED4A
:10025000EBEAE8E6E4E2E0DEDCDAD7D5D3D0CECBD9
:10026000C9C6C4C1BEBCB9B6B3B0ADAAA7A5A29E4B
:100270009B9895928F8C898683807C797673706D3C
:100280006A6764615D5A5855524F4C494643413E36
:100290003B393634312F2C2A282523211F1D1B19C9
:1002A00017151412110F0E0C0B0A09070605050489
:1002B000030202010101000000000101020202022A
:1002C0000202030303030303030303030303030300
:1002D00004040404040404040404040405050505DA
:1002E00005050505050506060606060606060707B2
:1002F000070707070708080808080809090909097E
:10030000090A0A0A0A0A0B0B0B0B0B0C0C0C0C0C3F
:100310000D0D0D0D0E0E0E0E0F0F0F1010101011F3
:100320001111121212131313141414151516161694
:10033000171718181919191A1A1B1B1C1C1D1D1E1A
:100340001E1F20202121222323242425262627287E
:1003500028292A2B2B2C2D2E2F30303132333435B7
:10036000363738393A3B3C3D3E3F404142444546B2
:1003700047494A4B4C4E4F5152535556585A5B5D64
:100380005E6062636567696B6D6E70727476797BAF
:100390007D7F818486888B8D909295979A9D9FA270
:1003A000A5A8ABAEB1B4B7BABEC1C4C8CBCFD3D683
:1003B000DADEE2E6EAEEF2F8FF00000000000000FC
:1003C0000000000101010202020303040405050606
:1003D00006070808090A0B0B0C0D0E0F101112135B
:1003E000151617191A1B1D1E2022232527292B2D10
:1003F0002F313335383A3D3F4244474A4D505356EA
:10040000595C5F6266696C7074777B7E82868A8EC7
:100410009195999DA1A5A9ADB0B4B8BCC0C3C7CBF7
:10042000CED2D5D8DBDFE2E4E7EAECEFF1F3F5F783
:10043000F8FAFBFCFDFEFFFFFF0011241FBECFEF0B
:10044000DAE0DEBFCDBF04B603FE27C080913B04D7
:1004500090913C04A0913D04B0913E048730904BB4
:10046000A740B04BD1F410923B0410923C04109280
:100470003D0410923E0414BE84B7877F84BF0FB63C
:10048000F894A89580916000886180936000109234
:1004900060000FBEE0E0F8E3099512E0A0E0B1E0F3
:1004A000E8E2FCE502C005900D92AA3FB107D9F73A
:1004B00024E0AAEFB2E001C01D92AB33B207E1F72E
:1004C0000E94C00C0C94122E0C9400008CE890E05A
:1004D00008958FE090E008950F931F93CF938C01C0
:1004E000C62FFC018281662319F0613079F024C0A7
:1004F000882371F00E94C11D827231F00E94C11DDB
:1005000080FD02C085E310C089E20EC0811105C0E4
:100510008091FA020E9455130DC00E94C11D82FFF6
:1005200002C08DE301C081E28093FA028091FA0259
:100530000E9482120E94F51DF8018281882309F42D
:100540005DC08C2F90E0FC013297E830F10508F097
:1005500055C0EA5AFF4F0C94CD2DCF911F910F91AA
:100560000C9458080E94C11D81FF19C09091E903A5
:10057000892F8695815C8F739178882319F0880F75
:10058000892B02C0892F8E628093E9038091E90351
:1005900086958F73CF911F910F910C94DB07CF91AC
:1005A0001F910F910C944E080E94C11D81FF05C040
:1005B000CF911F910F910C943207CF911F910F9102
:1005C0000C941A070E94C11D81FF05C0CF911F9195
:1005D0000F910C946C07CF911F910F910C945107C0
:1005E0000E94C11D81FF05C0CF911F910F910C94F6
:1005F000A107CF911F910F910C948607CF911F9166
:100600000F910895462F672F0C94BE2B805C0E949B
:10061000B22B08958EE091E0089580EF90E0089568
:100620008AB1807D8AB98BB1807D8BB9089585E0D0
:1006300008958EE0089580E885BF85BF0E941B085D
:100640000E94100380B38C7F80BB81B3836081BB29
:100650006E98769A8AB18F728AB98BB1806D8BB998
:1006600087B18F7387B988B1806C88B984B1847081
:1006700084B985B18B6F85B9E5E0F3E0ABEFB2E00B
:10068000119211921D921D9283E0EF30F807C1F78D
:100690000895CF92DF92EF92FF920F931F93CF9323
:1006A000DF931F92CDB7DEB70BEF12E0680160E079
:1006B000FF24F394B5E0EB2E623071F018F4613052
:1006C00041F004C0633059F0643061F0509A58989A
:1006D0000BC0519A599808C0529A5A9805C0539A1B
:1006E0005B9802C0559A5D9880EA8A95F1F78FB1C0
:1006F00081708F2590E0799903C022E030E002C03C
:1007000020E030E0822B932B669903C024E030E098
:1007100002C020E030E0AC01422B532B26B1022E68
:10072000000C330B20953095C9018827990F881F3D
:100730009927A3E0880F991FAA95E1F7842B952BA1
:10074000369903C0A0E1B0E002C0A0E0B0E08A2B7F
:100750009B2B1E9903C0A0E2B0E002C0A0E0B0E075
:100760008A2B9B2B4C9903C0E0E4F0E002C0E0E050
:10077000F0E08E2B9F2B199903C020E830E002C0D7
:1007800020E030E0AC01422B532B189B0EC023B16C
:10079000022E000C330B20953095C9018827990F44
:1007A000881F9927982F882702C080E091E0842B2A
:1007B000952B1D9903C040E052E002C040E050E09C
:1007C000842B952B1C9903C040E054E002C040E00C
:1007D00050E0842B952B49B1042E000C550B40950D
:1007E00050959A012227330F221F3327322F2227B9
:1007F000330F330F330F282B392B4E9903C080E072
:1008000090E102C080E090E0282B392B1B9903C0B7
:1008100040E050E202C040E050E0242B352BD601EE
:100820008D919C9111978217930721F02D933C9302
:10083000E092000169830E94100369816F5FB2E05A
:10084000CB0ED11C653009F037CF80910001882391
:10085000C1F0815080930001882339F0EFE9FFE077
:100860003197F1F700C000000CC0E5E0F3E0D801DB
:100870008D919D918D0181939193B3E005301B077C
:10088000B1F781E00F90DF91CF911F910F91FF9011
:10089000EF90DF90CF900895E82FF0E0EE0FFF1F6C
:1008A000EB5FFC4F8081918108950895CF93C82F0D
:1008B0008730A0F4843000F58130D0F10E94DF262B
:1008C0000E94FD260E9440270E947427EC2FF0E032
:1008D000E656FE4F8491CF910C9412278730C9F0D1
:1008E000883031F50E94DF260E94FD260E943A27BB
:1008F0000E94742781E016C00E94DF260E94FD2618
:100900000E9440270E946E2786E08C1BCF910C949A
:1009100077270E94DF260E94FD260E943A270E9428
:10092000742780E00E945D2783E0CF910C946B27B1
:100930000E9440270E9474270E940327CF910C94A5
:10094000E926E82FF0E0EE0FFF1FE256FE4F8591FB
:1009500094910895229A2A9A80B3806B80BB81B3C8
:10096000806B81BB08959091E90390FD2DC081308B
:10097000C1F030F0823041F580E090E02FEF1BC0F5
:1009800080E090E02FEFFC01EF50FC4F21830396B5
:100990008C339105C1F764E170E081EF93E00C9432
:1009A0006A05E1EFF3E08FEF8083339694E0ED3258
:1009B000F907D1F7F0CFFC01EF50FC4F22830396EB
:1009C0008C339105C1F7E7CF843059F018F48330A8
:1009D00031F00895853039F0863039F008952A983D
:1009E00008958F9808958C9808958D980895909102
:1009F000E90390FD2AC08130B1F028F0823029F55A
:100A000080E090E019C080E090E0FC01EF50FC4FE6
:100A1000118203968C339105C1F764E170E081EF98
:100A200093E00C946A05E1EFF3E01082339684E0E2
:100A3000ED32F807D1F7F1CFFC01EF50FC4F1282F5
:100A400003968C339105C1F7E8CF843059F018F440
:100A5000833031F00895853039F0863039F00895CB
:100A60002A9A08958F9A08958C9A08958D9A0895D8
:100A700021B3342F3095232331B3432B3FB7F89460
:100A8000FC01680F791FE617F70789F0819198E05C
:100A900041BB000000C087FF21BB880F000000C0E1
:100AA00000C000C021BB00C09A9591F7ECCF3FBFBA
:100AB000089520B3242B20BB9B01220F331F620F0C
:100AC000731F0E94380587EC90E00197F1F700C092
:100AD0000000089540E40C945905AF92BF92CF9264
:100AE000DF92EF92FF920F931F93CF93DF936C01EE
:100AF000790150E0FA01E754FD4F44918FEF90E007
:100B0000FC01E61BF109E754FD4FE491E09509F47F
:100B100095C0C42FD0E08E1B91098C9F90018D9FB2
:100B2000300D9C9F300D1124E32F8CE3A82EB12CA7
:100B3000C601B5010E94A52DDC016230710509F4E2
:100B400046C0D0F46115710599F16130710509F065
:100B500079C0C31BD109B501681B790BC69FC001C1
:100B6000C79F900DD69F900D1124B5010E94A52D11
:100B7000032F060F142F67C06430710509F44BC0B2
:100B8000B8F16530710509F05DC0C31BD109B5012D
:100B9000681B790BC69FC001C79F900DD69F900D13
:100BA0001124B5010E94A52D132FE32FE60F44C099
:100BB000C31BD109CC9DC001CD9D900DDC9D900D36
:100BC0001124B5010E94A52D132F160F35C0C31B8C
:100BD000D109CA9FC001CB9F900DDA9F900D1124BF
:100BE000B5010E94A52D142F032FE32FE60F2BC074
:100BF000C31BD109B501681B790BC69FC001C79FF4
:100C0000900DD69F900D1124B5010E94A52D132F94
:100C1000160F032F0FC0C31BD109CA9FC001CB9F62
:100C2000900DDA9F900D1124B5010E94A52D032F80
:100C3000060F132FE42F07C0042F05C0E42F142F35
:100C4000042F01C0E0E0D70111960C9311971C937B
:100C50001296EC93DF91CF911F910F91FF90EF903F
:100C6000DF90CF90BF90AF90089587E090E00C9414
:100C7000DB2DAB01BC0187E090E00C94F52DE9EE93
:100C8000F3E083E08083AAEEB3E08C918078846601
:100C90008F778C938CEC828383836091E9037091CE
:100CA000EA038091EB039091EC030C943906809158
:100CB000E90380FF06C064E170E081EF93E00C94EB
:100CC0006A0580E090E0FC01EF50FC4F1182108239
:100CD000128203968C339105B1F7EDCF20E030E01E
:100CE000F901EF50FC4F8183608342832D5F3F4FBA
:100CF0002C333105A9F70C945706EF92FF920F930E
:100D00001F93CF93DF9300D01F92CDB7DEB7009132
:100D1000E9031091EA032091EB033091EC03009377
:100D2000ED031093EE032093EF033093F003209133
:100D3000E90320FF21C0042FF62EE92E182F9E0173
:100D40002F5F3F4F0E946D058091ED0310FB87F9E7
:100D50008093ED0316958091EE038078182BE0FACE
:100D600017F91093EE03F092EF030093F0034B8119
:100D700069818A810E946E060F900F900F90DF911B
:100D8000CF911F910F91FF90EF9008950F931F93B4
:100D9000CF93DF93EC01062F142F9091E90390FF7E
:100DA00044C0892F8E77823021F4CE010E947D06C7
:100DB0001BC0892F86958F732EE3280F2F73243045
:100DC00018F41091EC0310C0865C8F73893060F4C6
:100DD000C92FCC1FCC27CC1FD091EA038D2F880FB1
:100DE000C82BD7FBDD27D0F98091E903C0FB87F939
:100DF0008093E903C6958091EA038078C82BD0FBE5
:100E0000C7F9C093EA030093EB031093EC036091DE
:100E1000E9037091EA038091EB039091EC03DF9179
:100E2000CF911F910F910C943906DF91CF911F91B3
:100E30000F910895E9EEF3E02081221F2227221F5F
:100E40003091EA03432F440F842F822B37FB9927DD
:100E500090F90A9668E671E00E94B92D438162819B
:100E60000C94C6062091E903221F2227221F3091ED
:100E7000EA03432F440F842F822B37FB992790F9E5
:100E80008A3091051CF4825A9E4F01C00A9768E689
:100E900071E00E94B92D4091EC036091EB030C943A
:100EA000C6066091EB03862F90E08F3E910514F407
:100EB0006F5E01C06FEF8091E903881F8827881F4C
:100EC0009091EA03292F220F97FB992790F94091DF
:100ED000EC03822B0C94C6066091EB03862F90E006
:100EE000419714F0615101C060E08091E903881FCF
:100EF0008827881F9091EA03292F220F97FB9927B3
:100F000090F94091EC03822B0C94C6064091EC03BF
:100F1000842F90E08F3E910514F44F5E01C04FEF97
:100F20008091E903881F8827881F9091EA03292F61
:100F3000220F97FB992790F96091EB03822B0C9479
:100F4000C6064091EC03842F90E0419714F0415184
:100F500001C040E08091E903881F8827881F909195
:100F6000EA03292F220F97FB992790F96091EB0351
:100F7000822B0C94C6068091200381110FC081E062
:100F80008093200389E0809391008FB7F89493E0D9
:100F90009093990090ED909398008FBF0895E1E7AA
:100FA000F0E08081826080830895E1E7F0E0808155
:100FB0008D7F808308959091E90390FF3BC09178E5
:100FC000811102C0926007C0883110F09E6203C098
:100FD0008F73880F982B9093E9036091E9037091C8
:100FE000EA038091EB039091EC030E943906809113
:100FF000E903982F9E77923019F40E94D50707C015
:101000008695825C8F73863110F40E94CF078091A1
:10101000E903881F8827881F9091EA03292F220F50
:1010200097FB992790F94091EC036091EB03822B99
:101030000C94C606089580919B03816080939B0366
:1010400081E0809321030E945122811104C00E94FB
:101050002C220E943F060E9435066093E90370939C
:10106000EA038093EB039093EC036E7761F40E94A4
:101070003F060E9435066093E9037093EA0380936C
:10108000EB039093EC030E94BB078091E90380FF80
:1010900004C086958F730C94DB0708958091E90353
:1010A00086958F738F5F883108F081E00C94DB07A1
:1010B0008091E903982F909590FB80F98093E90344
:1010C0006091E9037091EA038091EB039091EC0346
:1010D0000E9439068091E90380FF04C086958F73D2
:1010E0000C94DB070E94D5072FEF80E792E0215098
:1010F00080409040E1F700C000000C945706CF9369
:10110000C82F80911E0390911F030E94B01EEC2FE8
:10111000F0E0EB54FE4FE491F0E08E179F0718F1DA
:101120000E94A41E90931F0380931E03E0911D0351
:10113000F0E0E754FE4F44918091E903881F88272F
:10114000881F9091EA03292F220F97FB992790F986
:101150006091EB03822B0E947D0680911D0390E03D
:10116000019680931D03CF910895CF93C82F80914E
:101170001B0390911C030E94B01EEC2FF0E0EE5474
:10118000FE4FE491F0E08E179F07E8F00E94A41E46
:1011900090931C0380931B034091EC036091EB033D
:1011A0008091190390911A030E947D068091190382
:1011B00090911A03019668E671E00E94A52D909324
:1011C0001A0380931903CF910895CF92DF92FF9273
:1011D0000F931F93CF93DF93F82E80911703909175
:1011E00018030E94B01EEF2DE695F0E0EE54FE4F7E
:1011F000E491F0E08E179F07E8F10E94A41E9093FF
:1012000018038093170301EF13E0C0E0D0E088E6F5
:10121000C82EDD24D39480911503909116038C0F72
:101220009D1FB6010E94A52D98014091EC0360918D
:10123000EB030E946D0562960D5F1F4FC83681E07B
:10124000D80749F70E9457062091150330911603DD
:10125000F0FE0AC0C9010696BE010E94A52D90931A
:1012600016038093150306C02150310930931603ED
:1012700020931503DF91CF911F910F91FF90DF9085
:10128000CF9008958F929F92AF92BF92CF92DF92AC
:10129000EF92FF920F931F93CF93DF93C82F80FF9E
:1012A00003C0DD24DA9402C0DD24D39480911303BB
:1012B000909114030E94B01EC695EC2FF0E0E1550A
:1012C000FE4FE491F0E08E179F0708F467C00E947C
:1012D000A41E909314038093130391EFE92E93E0DF
:1012E000F92E03EF13E0C0E0D0E027E0822E912C2E
:1012F000F80131971082F7011082F801108287E01F
:10130000A82EB12CC12C809112038C0D87FD8C5E10
:10131000082E000C990BC817D907E9F42091EC03AB
:101320002A9DC0012B9D900D1124B4010E94B92D5E
:10133000462F8091E903881F8827881F9091EA0330
:10134000592F550F97FB992790F997016091EB035F
:10135000852B0E946D05CD0CF1E0AF1AB10899F60E
:10136000219683E0E80EF11C0D5F1F4FC431D105BB
:1013700009F0BECF0E9457068091120391E0D91266
:1013800006C0811102C08DE007C0815005C090E009
:101390000196BE010E94B92D80931203DF91CF9177
:1013A0001F910F91FF90EF90DF90CF90BF90AF9083
:1013B0009F908F9008959F92AF92BF92CF92DF92AD
:1013C000EF92FF920F931F93CF93DF93CDB7DEB7CA
:1013D000EC970FB6F894DEBF0FBECDBF182F8091EB
:1013E0001003909111030E94B01EE12FF0E0E4552C
:1013F000FE4FE491F0E08E179F0708F495C00E941D
:10140000A41E9093110380931003CE0101967C01DA
:101410005E0193E0A90EB11CC12CD12C8701F5010E
:1014200031971082F7011082F5011082912C909172
:10143000010180910F03999E800D112487FD04C046
:1014400084311CF083E101C080E0082E000C990B70
:10145000C816D906A1F48091E903881F8827881F40
:101460009091EA03592F550F97FB992790F997010F
:101470004091EC036091EB03852B0E946D059394E2
:10148000F7E09F12D4CF8FEFC81AD80A93E0E90E85
:10149000F11CE3E0AE0EB11CF4E1CF16D10409F06B
:1014A000BECF23EF33E05BE0E52EF12C64E1C62EE6
:1014B000D12CC701B6010E94B92DD9011197FC01A9
:1014C000EE0FFF1FE80FF91FE00FF11F81818C93D2
:1014D000119780818C938281F9018083FFEFEF1A4D
:1014E000FF0A2D5F3F4F8FE1E816F10411F70E94CC
:1014F00057069091010180910F03913049F48A3F82
:101500002CF489EF80930F038FEF08C081500AC03D
:101510008B313CF08AE180930F0381E080930101DD
:1015200003C08F5F80930F03EC960FB6F894DEBF75
:101530000FBECDBFDF91CF911F910F91FF90EF9024
:10154000DF90CF90BF90AF909F9008951F920F9221
:101550000FB60F9211242F933F934F935F936F9386
:101560007F938F939F93AF93BF93EF93FF9380915C
:10157000E90386958F739EE3980F9F73943020F450
:1015800082500E947F0823C09AE3980F9F73933084
:1015900020F486500E94B5081AC097E3980F9F73F5
:1015A000963020F489500E94E50811C091E3980F0D
:1015B0009F73963020F48F500E94420908C09BE22E
:1015C000980F9F73933018F485510E94DB09FF91A7
:1015D000EF91BF91AF919F918F917F916F915F91AB
:1015E0004F913F912F910F900FBE0F901F90189524
:1015F000809132030895CF93DF9300D01F92CDB72F
:10160000DEB79C0180913004843019F593E0998312
:101610003B832A839093E9008FEF9091E8008150FB
:1016200095FD06C095ED9A95F1F700008111F5CF73
:101630008091E80085FF0DC040E050E063E070E07D
:10164000CE0101960E94660D8091E8008E7780930E
:10165000E8000F900F900F90DF91CF910895CF93F6
:10166000DF9300D01F92CDB7DEB720913004243035
:1016700021F522E029839B838A8383E08093E9001C
:101680008FEF9091E800815095FD06C095ED9A95F9
:10169000F1F700008111F5CF8091E80085FF0DC0C2
:1016A00040E050E063E070E0CE0101960E94660DDC
:1016B0008091E8008E778093E8000F900F900F9054
:1016C000DF91CF910895209130042430F1F422E08D
:1016D0002093E9002FEF3091E800215035FD06C03E
:1016E00035ED3A95F1F700002111F5CF2091E80092
:1016F00025FF0BC040E050E065E070E00E94660D01
:101700008091E8008E778093E8000895CF93DF936F
:10171000EC0190913004943009F046C080910C01A6
:101720008823D9F080910D018823B9F09093E900C6
:101730008FEF9091E800815095FD06C095E19A9554
:10174000F1F700008111F5CF8091E80085FF2CC0F2
:1017500040E050E060E170E017C081E08093E90074
:101760008FEF9091E800815095FD06C095ED9A9518
:10177000F1F700008111F5CF8091E80085FF14C0DA
:1017800040E050E068E070E0CE010E94660D80917C
:10179000E8008E778093E80080E1FE01A2E2B3E0EA
:1017A00001900D928A95E1F7DF91CF910895809194
:1017B0002F04811109C00E94790E0E94D40E8091DD
:1017C000E20084608093E200089510922F0408954F
:1017D000089542E061EC81E00E94140E42E061EC69
:1017E00082E00E94140E42E061EC83E00E94140E3D
:1017F00042E161EC84E00C94140E80913204833059
:1018000009F455C030F4813071F0823009F48EC093
:1018100008958A3009F47AC08B3009F460C08930A9
:1018200009F09CC020C080913104813A09F096C033
:101830008091E800877F8093E80080913504909143
:101840003604892B21F460E182E293E003C060E07A
:1018500080E090E070E00E94B10D8091E8008B770D
:101860008093E800089580913104813209F076C0B8
:101870008091350490913604009719F0039709F090
:101880006DC08091E800877F8093E8008091E80038
:1018900082FD05C0809130048111F8CF5FC0809136
:1018A000F100809332038091E8008B7753C08091E0
:1018B0003104813A09F052C0809135049091360488
:1018C000892B09F04BC08091E800877F8093E80066
:1018D0008091E80080FFFCCF80910C0136C08091A0
:1018E00031048132D9F58091350490913604892BE9
:1018F000A9F58091E800877F8093E8000E94280E78
:101900008091330480930C010C943F178091310433
:10191000813221F58091E800877F8093E8000E9462
:10192000280E80913404809333030895809131040C
:10193000813AA1F48091E800877F8093E80080914C
:10194000E80080FFFCCF809133038093F100809109
:10195000E8008E778093E8000C94280E089508958F
:10196000089508950C94B10C0E942C1E80912E04B1
:10197000882329F00E94591E81110C94500D08955E
:1019800084B7877F84BF0FB6F894A89580916000D4
:10199000886180936000109260000FBE90E080E844
:1019A0000FB6F89480936100909361000FBE0E947F
:1019B000AF0C0E9473110E94790E0E94D40E809188
:1019C000E20084608093E200789480913004843057
:1019D000E1F70E94751182E091E00E941F110E94C0
:1019E000B00C80913004853019F40E94B40CF9CF0A
:1019F0000E948511F6CF0C946E1E0C94FB0C292FBF
:101A0000332723303105C1F05CF42130310579F002
:101A100022303105E9F58DE690E025E731E03CC064
:101A200021323105C1F02232310511F131C082E19C
:101A300090E022EE31E030C099278330910540F5E7
:101A4000FC01EE0FFF1FE35DFE4F20813181FC01A1
:101A5000E65DFE4F1AC06430D8F4E62FF0E0EE0FDA
:101A6000FF1FEE5DFE4F2081318189E090E014C0C0
:101A7000643070F470E0FB01EE0FFF1FE65EFE4F76
:101A800020813181FB01EA5EFE4F808190E004C03D
:101A900080E090E020E030E0FA0131832083089577
:101AA00080E189BD82E189BD09B400FEFDCF80914E
:101AB000D8008F7D8093D8008091E0008260809371
:101AC000E0008091E00081FDFCCF0895CF92DF928D
:101AD000EF92FF920F931F93CF93DF93EC018B0153
:101AE0006A010E94470E811133C0C114D10439F03C
:101AF000F60180819181081B190BC80FD91FE12CB9
:101B0000F12C0115110519F18091E80085FD16C031
:101B10008091E8008E778093E800C114D10449F0E9
:101B2000F60180819181E80EF91EF182E08285E064
:101B30000FC00E94470E882321F30AC08991809329
:101B4000F10001501109FFEFEF1AFF0ADACF80E030
:101B5000DF91CF911F910F91FF90EF90DF90CF9089
:101B6000089520913704309138042617370748F03C
:101B70006115710539F42091E8002E772093E80073
:101B800001C0B90140E061157105A9F1209130044F
:101B9000222309F443C0253009F442C02091E80013
:101BA00023FD40C02091E80022FD32C02091E800D2
:101BB00020FFE9CF4091F3002091F20030E0342B78
:101BC000FC01CF016115710559F02830310540F451
:101BD00081918093F100615071092F5F3F4FF1CFE8
:101BE00041E02830310509F040E02091E8002E77EF
:101BF0002093E800C8CF4111C9CF0AC080913004BA
:101C0000882361F0853061F08091E80083FD0AC08F
:101C10008091E80082FFF2CF80E0089582E008958D
:101C200083E0089581E008958F708093E900EBEEE2
:101C3000F0E0808181608083EDEEF0E010826093BF
:101C4000EC0040838091EE00881F8827881F08954C
:101C50008091310487FF11C08091E80082FD05C0AA
:101C6000809130048111F8CF11C08091E8008B770A
:101C70000BC080913004882349F08091E80080FFF8
:101C8000F8CF8091E8008E778093E8000895209146
:101C9000E4003091E50095E64091EC00842F8170DE
:101CA00040FF22C08091E80080FD1CC0809130047C
:101CB000882391F0853091F08091EB0085FD10C074
:101CC0004091E4005091E5004217530729F39A012F
:101CD000915011F784E0089582E0089583E008951B
:101CE00081E0089580E008954091E80042FFDECF52
:101CF00008950E94E50E0E94ED0EE0EEF0E0808176
:101D000081608083E8EDF0E080818F77808319BC6B
:101D1000A7EDB0E08C918E7F8C9380818F7E808345
:101D200010922F0408950F931F93CF93DF930E9477
:101D3000E50E0E94ED0EC8EDD0E088818F77888394
:101D400088818068888388818F7D888319BC109200
:101D5000300410922D0410922E0400EE10E0F801D1
:101D600080818B7F808388818160888342E060E00E
:101D700080E00E94140EE1EEF0E080818E7F80838F
:101D8000E2EEF0E0808181608083808188608083E2
:101D9000F80180818E7F8083888180618883DF91D4
:101DA000CF911F910F910895E8EDF0E080818F7E33
:101DB0008083E7EDF0E080818160808384E082BFF2
:101DC00081E080932F040C94930EE8EDF0E0808185
:101DD0008E7F80831092E20008951092DA001092B4
:101DE000E10008951F920F920FB60F9211242F93C6
:101DF0003F934F935F936F937F938F939F93AF9393
:101E0000BF93EF93FF938091E10082FF0BC080911D
:101E1000E20082FF07C08091E1008B7F8093E100A8
:101E20000E941E118091DA0080FF1FC08091D800AF
:101E300080FF1BC08091DA008E7F8093DA00809152
:101E4000D90080FF0DC080E189BD82E189BD09B460
:101E500000FEFDCF81E0809330040E94D70B05C0C7
:101E600019BC109230040E94E50B8091E10080FFC4
:101E700019C08091E20080FF15C08091E2008E7F42
:101E80008093E2008091E20080618093E200809183
:101E9000D80080628093D80019BC85E0809330041C
:101EA0000E94B20C8091E10084FF30C08091E2007A
:101EB00084FF2CC080E189BD82E189BD09B400FEA8
:101EC000FDCF8091D8008F7D8093D8008091E10074
:101ED0008F7E8093E1008091E2008F7E8093E2000C
:101EE0008091E20081608093E20080912D0488233C
:101EF00011F084E007C08091E30087FD02C081E01B
:101F000001C083E0809330040E94FD0C8091E100C9
:101F100083FF29C08091E20083FF25C08091E1000A
:101F2000877F8093E10082E08093300410922D043B
:101F30008091E1008E7F8093E1008091E2008E7FAE
:101F40008093E2008091E20080618093E20042E0B1
:101F500060E080E00E94140E8091F0008860809321
:101F6000F0000E94E80BFF91EF91BF91AF919F911C
:101F70008F917F916F915F914F913F912F910F9032
:101F80000FBE0F901F9018951F920F920FB60F92D1
:101F900011242F933F934F935F936F937F938F936E
:101FA0009F93AF93BF93CF93DF93EF93FF93C09132
:101FB000E900CF708091EC00D82FD17080FDD0E87F
:101FC0001092E9008091F000877F8093F000789470
:101FD0000E9408101092E9008091F00088608093C0
:101FE000F000CD2BCF70C093E900FF91EF91DF910E
:101FF000CF91BF91AF919F918F917F916F915F91A1
:102000004F913F912F910F900FBE0F901F901895F9
:102010001F93CF93DF9300D0CDB7DEB7E1E3F4E0B9
:1020200088E08E0F9091F10091938E13FBCF0E9468
:10203000FD0B8091E80083FFEDC080913104909109
:102040003204492F50E04A30510508F0E3C0FA014C
:10205000E25AFF4F0C94CD2D803881F0823809F080
:10206000D9C0809135048F708093E9008091EB0096
:1020700085FB882780F91092E90007C080912E0423
:10208000882311F082E001C080E09091E800977F02
:102090009093E8008093F1001092F10095C0282FF2
:1020A0002D7F09F0B7C0882319F0823061F0B2C0EB
:1020B00080913304813009F0ADC0933009F080E0A5
:1020C00080932E042BC080913304811127C080910E
:1020D00035048F7009F49EC08093E9002091EB00D5
:1020E00020FF1CC0933021F48091EB00806214C06B
:1020F0009091EB0090619093EB0021E030E0A9011A
:1021000002C0440F551F8A95E2F74093EA001092EF
:10211000EA008091EB0088608093EB001092E90068
:102120008091E800877F53C0811174C010913304FF
:102130001F778091E3008078812B8093E30080916A
:10214000E800877F8093E8000E94280E8091E800D5
:1021500080FFFCCF8091E30080688093E300111141
:1021600002C082E001C083E08093300453C08058F5
:10217000823008F04FC0AE014F5F5F4F6091350471
:1021800080913304909134040E94FF0CBC01892B90
:1021900009F440C09091E800977F9093E80089810E
:1021A0009A810E94B10D8091E8008B778093E800BE
:1021B00031C0803879F58091E800877F8093E8000E
:1021C00080912D048093F1008091E8008E778093B8
:1021D000E8000E94280E1EC081111CC0909133049B
:1021E0009230C0F48091E800877F8093E80090935C
:1021F0002D040E94280E80912D04811106C080912B
:10220000E30087FD02C081E001C084E080933004D8
:102210000E94E90B8091E80083FF0AC08091E800EA
:10222000877F8093E8008091EB0080628093EB00D1
:102230000F900F90DF91CF911F9108950895909383
:102240003903809338030895E0913803F0913903FE
:10225000309721F00190F081E02D099480E00895FD
:10226000E0913803F0913903309721F00280F38137
:10227000E02D09940895E0913803F09139033097E7
:1022800021F00480F581E02D099408952091360312
:10229000309137038217930771F09093370380933F
:1022A0003603E0913803F0913903309721F006802E
:1022B000F781E02D0994089520913403309135037E
:1022C0008217930771F09093350380933403E09164
:1022D0003803F0913903309721F00084F185E02D27
:1022E0000994089508950C9472110E949B1E0E94F7
:1022F0001B030E94DF200E94162B0E9480290E944F
:10230000CC260E9491280C946D2C4F925F927F9264
:102310008F929F92AF92BF92CF92DF92EF92FF92F5
:102320000F931F93CF93DF9300D000D01F92CDB7B0
:10233000DEB70E9449039BE3C92E93E0D92E00E04B
:1023400010E0AA24A394B12C702E802F0E944C047C
:102350004C01F601419051906F01482659264114D5
:102360005104B1F40F5F1F4F0530110569F78FEF6E
:1023700089838A831B820E94A41E8160782F9D839B
:102380008C8349815A816B818D810E94421241C0A8
:1023900080919B0381FD0E94550420E030E075018F
:1023A000022E02C0EE0CFF1C0A94E2F7C701842142
:1023B0009521892B41F129837A828E209F2091E0FB
:1023C000892809F490E09B830E94A41E8160782FE5
:1023D0009D838C8349815A816B818D810E94421239
:1023E00049815A816B817C818D810E941C1E000F66
:1023F000111FF801E55CFC4F80819181E826F926E8
:10240000F182E08206C02F5F3F4F2E30310539F652
:10241000A9CF0E941B1E0E94FA2310913A030E942A
:1024200024111817D1F00E94241180933A030F90C1
:102430000F900F900F900F90DF91CF911F910F9100
:10244000FF90EF90DF90CF90BF90AF909F908F90D4
:102450007F905F904F900C94E2290F900F900F9017
:102460000F900F90DF91CF911F910F91FF90EF9000
:10247000DF90CF90BF90AF909F908F907F905F90B4
:102480004F900895CF93DF93CDB7DEB72B970FB65C
:10249000F894DEBF0FBECDBF942F4F83252F5887F2
:1024A00069877A878B874A855B85452B21F02F3F8B
:1024B00009F59F3FF9F4DE01119686E0FD011192C6
:1024C0008A95E9F785E0FE01379601900D928A958D
:1024D000E1F749815A816B817C818D819E810E94C7
:1024E000D9192B960FB6F894DEBF0FBECDBFDF9182
:1024F000CF9108954F81588569857A858B850E9493
:102500001C1ED9CFCF93882309F4CDC0C82F8238A1
:1025100059F40E94241181FDC6C089E30E94641C05
:102520000E94F51D89E30CC0833879F40E942411C0
:1025300080FDB9C083E50E94641C0E94F51D83E5FF
:102540000E94291DCF910C94F51D843859F40E94E6
:10255000241182FDA8C087E40E94641C0E94F51D1E
:1025600087E4EECF8CEF8C0F813A48F48C2F0E94D9
:102570003426811198C08C2F0E94641CE3CF80E226
:102580008C0F883048F4C77081E001C0880FCA956D
:10259000EAF70E94C41DD6CF8BE58C0F833078F408
:1025A000C53A29F0C63A31F083E890E005C081E8E9
:1025B00090E002C082E890E0CF910C94461188E54B
:1025C0008C0F853108F06FC0C83A61F1C93A69F1E2
:1025D000CA3A71F1CB3A79F1CC3A81F1CD3A89F12D
:1025E000CE3A91F1CF3A99F1C13BA1F1C03BA9F1AB
:1025F000C23BB1F1C33BB9F1C43BC1F1C53BC9F129
:10260000C63BD1F1C73BD9F1C83BE1F1C93BE9F188
:10261000CA3BF1F1CB3BF9F1CC3B09F43FC080E080
:1026200090E03EC082EE90E03BC089EE90E038C082
:102630008AEE90E035C085EB90E032C086EB90E00A
:102640002FC083EB90E02CC084EB90E029C087EB97
:1026500090E026C08CEC90E023C08DEC90E020C090
:1026600083E891E01DC08AE891E01AC082E991E018
:1026700017C084E991E014C081E292E011C083E2C6
:1026800092E00EC084E292E00BC085E292E008C0C6
:1026900086E292E005C087E292E002C08AE292E020
:1026A000CF910C945C11CF910895882309F44BC00D
:1026B000823859F40E94241181FF45C089E30E94A9
:1026C000641C0E94F51D89E30CC0833871F40E94DC
:1026D000241180FF38C083E50E94641C0E94F51D10
:1026E00083E50E94291D0C94F51D843859F40E943D
:1026F000241182FF28C087E40E94641C0E94F51DFB
:1027000087E4EFCF9CEF980F913A58F390E2980F3F
:10271000983050F4877091E001C0990F8A95EAF7DC
:10272000892F0E94CA1DDFCF9BE5980F933020F4BC
:1027300080E090E00C944611885A853120F480E0C6
:1027400090E00C945C110895882321F00E94C41D30
:102750000C94F51D0895882321F00E94CA1D0C9445
:10276000F51D0895CF92DF92EF92FF920F931F9382
:10277000CF93DF93CDB7DEB727970FB6F894DEBFC0
:102780000FBECDBF25E0FC01DE01119601900D9238
:102790002A95E1F7FC014081318102812581229552
:1027A0002F7063817481672B09F448C33F3F19F48C
:1027B0004F3F09F443C36C0149833A8389819A816D
:1027C0002F830E94231C182F9E830E94221C0E948C
:1027D000321B9E81E92FE295EF70F0E0E859FF4F40
:1027E0002F810C94CD2D892F807F9F70F92E882307
:1027F00019F0F29490EFF922002349F0FF2009F438
:102800005FC28F2D0E94D71D0E94F51D59C2812FD6
:102810000E945513FF2009F411C38F2D0E94DD1D66
:1028200027960FB6F894DEBF0FBECDBFDF91CF91D4
:102830001F910F91FF90EF90DF90CF900C94F51DBA
:10284000892F807F9F70F92E803219F0F29480EFEB
:10285000F822112319F0113001F129C00023A9F049
:102860008F2D222349F1213039F527960FB6F894A0
:10287000DEBF0FBECDBFDF91CF911F910F91FF90B3
:10288000EF90DF90CF900C94E71D222319F02130B8
:1028900009F4D4C20E94EA1D2CC00023E9F02630BE
:1028A00008F0CCC20E94C11D8F2129F022C0002354
:1028B000F1F0211115C08F2D27960FB6F894DEBFC9
:1028C0000FBECDBFDF91CF911F910F91FF90EF9081
:1028D000DF90CF900C94A413253008F0AFC209C04C
:1028E000F601858180FFECC18F708583E4CF2111D3
:1028F000FBC18F2D69C1292F26952695237030E0C5
:102900002115310521F021303105C1F097C2002396
:1029100019F0812F937002C080E090E027960FB6E7
:10292000F894DEBF0FBECDBFDF91CF911F910F9105
:10293000FF90EF90DF90CF900C944611002319F098
:10294000812F937002C080E090E027960FB6F89434
:10295000DEBF0FBECDBFDF91CF911F910F91FF90D2
:10296000EF90DF90CF900C945C11812F002319F031
:102970000E94022302C00E946A2327960FB6F89491
:10298000DEBF0FBECDBFDF91CF911F910F91FF90A2
:10299000EF90DF90CF900C94EF23892F837009F094
:1029A00079C001114BC2812F829586958770880F5F
:1029B000880F212F2F70C22ED12CE12CF12C082E44
:1029C00004C0CC0CDD1CEE1CFF1C0A94D2F714FFD3
:1029D00012C04FE050E060E070E004C0440F551FAB
:1029E000661F771F8A95D2F78A019B010095109583
:1029F0002095309503C000E010E0980196959695DB
:102A00009370492F50E0C901B80142305105D1F00F
:102A10004330510559F16C297D298E299F29413078
:102A2000510541F127960FB6F894DEBF0FBECDBF1A
:102A3000DF91CF911F910F91FF90EF90DF90CF909A
:102A40000C94471B6C297D298E299F2927960FB648
:102A5000F894DEBF0FBECDBFDF91CF911F910F91D4
:102A6000FF90EF90DF90CF900C94591B0E94471B72
:102A7000C701B60127960FB6F894DEBF0FBECDBFD3
:102A8000DF91CF911F910F91FF90EF90DF90CF904A
:102A90000C94351B002319F0892F817001C0869595
:102AA000882309F4CBC1812F829586958770880F82
:102AB000880F212F2F70C22ED12CE12CF12C082E43
:102AC00004C0CC0CDD1CEE1CFF1C0A94D2F714FFD2
:102AD00012C04FE050E060E070E004C0440F551FAA
:102AE000661F771F8A95D2F78A019B010095109582
:102AF0002095309503C000E010E0980196959695DA
:102B00009370492F50E0C901B80142305105D1F00E
:102B10004330510559F16C297D298E299F29413077
:102B2000510541F127960FB6F894DEBF0FBECDBF19
:102B3000DF91CF911F910F91FF90EF90DF90CF9099
:102B40000C94FE1B6C297D298E299F2927960FB690
:102B5000F894DEBF0FBECDBFDF91CF911F910F91D3
:102B6000FF90EF90DF90CF900C94101C0E94FE1B02
:102B7000C701B60127960FB6F894DEBF0FBECDBFD2
:102B8000DF91CF911F910F91FF90EF90DF90CF9049
:102B90000C94EC1B103F41F118F4103E48F48BC02C
:102BA000123F09F450C0D8F1133F09F460C083C04C
:102BB0001F70892F8F71002321F00E94851B812FA8
:102BC0007BCE0E94A61B812F27960FB6F894DEBFFE
:102BD0000FBECDBFDF91CF911F910F91FF90EF906E
:102BE000DF90CF900C94AB130023A9F0253008F0B0
:102BF00025C1892F8F7127960FB6F894DEBF0FBEBF
:102C0000CDBFDF91CF911F910F91FF90EF90DF909B
:102C1000CF900C94CB1B263008F010C1EACF0023D4
:102C2000A1F0892F8F7127960FB6F894DEBF0FBEE3
:102C3000CDBFDF91CF911F910F91FF90EF90DF906B
:102C4000CF900C94851B002361F3892F8F712796F9
:102C50000FB6F894DEBF0FBECDBFDF91CF911F91AD
:102C60000F91FF90EF90DF90CF900C94A61B002364
:102C700091F0892F8F7127960FB6F894DEBF0FBEA3
:102C8000CDBFDF91CF911F910F91FF90EF90DF901B
:102C9000CF900C94701B27960FB6F894DEBF0FBE32
:102CA000CDBFDF91CF911F910F91FF90EF90DF90FB
:102CB000CF900C946B1B0023A1F0222309F4B1CF19
:102CC000812F27960FB6F894DEBF0FBECDBFDF91E0
:102CD000CF911F910F91FF90EF90DF90CF900C94C8
:102CE0008212222309F4B1CF812F27960FB6F894D0
:102CF000DEBF0FBECDBFDF91CF911F910F91FF902F
:102D0000EF90DF90CF900C945513492F4F70612FA7
:102D1000C6010E94822027960FB6F894DEBF0FBE30
:102D2000CDBFDF91CF911F910F91FF90EF90DF907A
:102D3000CF900C947D1A011181C0112341F0892F8D
:102D40008F70843021F0907F212F2F70922B9F70F5
:102D5000892F90E082309105E9F1ACF4009751F1B0
:102D6000019709F06BC027960FB6F894DEBF0FBE2F
:102D7000CDBFDF91CF911F910F91FF90EF90DF902A
:102D8000CF900C94B92883309105A1F1049709F0F4
:102D900055C0812F27960FB6F894DEBF0FBECDBF6A
:102DA000DF91CF911F910F91FF90EF90DF90CF9027
:102DB0000C94172927960FB6F894DEBF0FBECDBF2F
:102DC000DF91CF911F910F91FF90EF90DF90CF9007
:102DD0000C94A22827960FB6F894DEBF0FBECDBF85
:102DE000DF91CF911F910F91FF90EF90DF90CF90E7
:102DF0000C94D52827960FB6F894DEBF0FBECDBF32
:102E0000DF91CF911F910F91FF90EF90DF90CF90C6
:102E10000C94F428492F4F70612FC60127960FB6E6
:102E2000F894DEBF0FBECDBFDF91CF911F910F9100
:102E3000FF90EF90DF90CF900C946C0227960FB626
:102E4000F894DEBF0FBECDBFDF91CF911F910F91E0
:102E5000FF90EF90DF90CF9008950E94E41D0E94B4
:102E6000B31D0E94F51D0E949F240E94EF2380E065
:102E700090E00E94461180E090E00C945C110E946A
:102E8000D41D0C942D170E94231C292F22952F70DE
:102E900030E02C3031054CF42A3031056CF42250EE
:102EA00031092230310588F407C02C30310549F052
:102EB0002F30310531F009C0803E48F0803F29F4C1
:102EC00006C093FB882780F9089580E0089581E08B
:102ED0000895CF93DF9300D000D01F92CDB7DEB717
:102EE0000F900F900F900F900F90DF91CF9108955A
:102EF000CF93DF9300D000D000D0CDB7DEB72696B9
:102F00000FB6F894DEBF0FBECDBFDF91CF9108950D
:102F10001F93CF93DF93C091450316E08091460342
:102F2000C81799F0D0E01C9FF0011D9FF00D1124EF
:102F3000E95BFC4F4081518162817381848195817D
:102F40000E9478172196C770E9CFDF91CF911F912A
:102F500008954091770350917803609179037091BF
:102F60007A0380917B0390917C030C947817809175
:102F70007C0382958F7009F054C080917903882377
:102F800009F44FC080914503A091460360917703F7
:102F90007091780340917A0350917B03B6E08A17D1
:102FA00009F43FC090E041155105C1F17F3F11F494
:102FB0006F3FA1F1B89FF001B99FF00D1124E95BBB
:102FC000FC4F218172132AC02081621327C0228105
:102FD000211124C0238134812417350710F4215096
:102FE0003109241B350B283C3105C0F420917C03AA
:102FF0002F70206120937C0326E0289FF001299FF9
:10300000F00D1124E45BFC4F80818F708061808320
:1030100087E793E00E94B2130C948817019687709B
:10302000BECF0895CF92DF92EF92FF920F931F933E
:10303000CF93DF93CDB7DEB762970FB6F894DEBFBC
:103040000FBECDBF8C0185E0F801DE011D96019019
:103050000D928A95E1F7D8014C9111965C911197E8
:1030600012966C9112971396CD90DC901497309134
:1030700077037091780380917A0390917B03009796
:1030800009F46BC17F3F19F43F3F09F466C1E0903A
:103090007903EE2009F4C0C020917C03C816D9063C
:1030A00028F0F601E81BF90BCF0104C0809590953C
:1030B0008C0D9D1DFF24F394883C910578F0F12C34
:1030C000207F09F0C6C07C2DD98AC88A89890E94D0
:1030D000691787E793E00E94B213B1C0822F807F07
:1030E00009F046C0751314C0341312C0611110C02A
:1030F0002F70206120937C030E94A91787E793E03B
:103100000E94B21380917C03D80115968C932EC037
:10311000CD2819F15F3F11F44F3FF9F0F62E611100
:103120001CC0809145032091460336E0821709F4C4
:103130005AC090E0389FF001399FF00D1124E95BEF
:10314000FC4F7181571306C07081471303C0728111
:10315000711103C001968770E9CFF62E662309F43A
:1031600018C180917C03816080937C03F12C11C194
:10317000751308C0341306C0611104C080917C032C
:10318000D801C3C04D875E878D859E856A8B0E945E
:1031900043176A898823E1F16623D1F120917C03EA
:1031A000822F82958F7090E0029774F08091770360
:1031B0009091780398878F831986DB86CA862C873F
:1031C000CE0107960E94B21386E0F801A7E7B3E0AC
:1031D00001900D928A95E1F70E94B7170E94A917F6
:1031E000FF24F394D6C04D875E878D859E850E940F
:1031F000231C292F22952F7030E0223031050CF04E
:10320000BCC09F7009F0B6C0805E883008F4C1C0B1
:10321000C8010E94B213E4CFC816D90608F453C0FF
:10322000F601E81BF90BCF01883C910508F450C06A
:10323000F12C7C2DD98AC88A89890E946917E7E711
:10324000F3E086E0DF011D928A95E9F70E94A91755
:10325000A0C0751314C0341312C0611110C0809146
:103260007C03F8018583C8010E94B21386E0E7E77A
:10327000F3E0DF011D928A95E9F7FE2C8AC04D87A5
:103280005E878D859E856A8B0E9443176A89882395
:1032900009F4BECF662309F4BBCF20917C03822FB3
:1032A00082958F7090E002970CF48ECF8091770317
:1032B000909178039A8389831B82DD82CC822E834E
:1032C000CE0101967FCF809590958C0D9D1DACCF42
:1032D000F62E662309F49CCF75132EC034132CC030
:1032E00020917C0320FD1FC0822F82958F70D9F022
:1032F000D80115962C9315978F3049F08F5F982F32
:103300009295907F822F8F70892B15968C93C80190
:103310000E94B21386E0F801A7E7B3E001900D9296
:103320008A95E1F793CF86E0F801A7E7B3E0019033
:103330000D928A95E1F72DC04D875E878D859E851C
:103340000E944317811140CF80917C03816080935C
:103350007C03C8010E94B2131CC0662309F458CF35
:103360004D875E878D859E850E944317882309F4CB
:103370004FCF2ACF811148CF0CC0243031050CF03B
:1033800047CF9F7009F440CFF8019581907F09F0F5
:103390003BCF8F2D62960FB6F894DEBF0FBECDBF28
:1033A000DF91CF911F910F91FF90EF90DF90CF9021
:1033B00008951F93CF93DF93CDB7DEB72C970FB649
:1033C000F894DEBF0FBECDBF4F83588769877A87D9
:1033D0008B879C87CE0107960E941218882369F07C
:1033E0008F8198852A853B85232BF1F19F3F09F03A
:1033F00063C08F3F09F060C037C086E0FE0137969A
:10340000DE01119601900D928A95E1F76F81788522
:10341000EA85FB85309741F17F3F11F46F3F21F141
:103420002091460330E0C9010196877099274091A9
:10343000450350E08417950709F447C069837A83F0
:10344000FD83EC8396E0929FD001939FB00D1124F1
:10345000A95BBC4FFE01319601900D929A95E1F760
:10346000809346030E94881716E08091450390914F
:1034700046038917C1F1189FC0011124895B9C4F35
:103480000E941218882379F1E09145031E9FF001F4
:103490001124E95BFC4F40815181628173818481F9
:1034A00095810E9478178091450390E0019687707E
:1034B000992780934503D9CF4F81588569857A85AF
:1034C0008B859C850E947817CFCF0E943F17109262
:1034D000460310924503E7E7F3E086E0DF011D9223
:1034E0008A95E9F7C1CF2C960FB6F894DEBF0FBED0
:1034F000CDBFDF91CF911F910895DF92EF92FF92A0
:103500000F931F93CF93DF93FC01892B09F48AC09B
:10351000E12CF12CDD24D394EF01219684918537A1
:1035200009F461C058F4843708F04EC0843008F0C4
:103530006AC08130D1F0823071F174C0883709F4EB
:103540005DC050F4863709F455C0873709F06AC06A
:103550008E2D0E94D11D54C09CE7980F903708F023
:1035600061C08F770E94551350C08F010E5F1F4FAF
:10357000FE01849190E2980F983050F48770FD2DF1
:1035800001C0FF0F8A95EAF78F2F0E94D71D14C044
:103590000E94821213C08F010E5F1F4FFE01C49163
:1035A00080E28C0F883060F4C7708D2D01C0880FC9
:1035B000CA95EAF70E94DD1D0E94F51DE80125C0AD
:1035C0008C2F0E945513FACF9F012E5F3F4FFE01B3
:1035D000C491CC2369F08FE99FE00197F1F700C017
:1035E0000000C150F6CF9F012E5F3F4FFE01F490C7
:1035F000E9010BC00E94C11DE82E07C00E94D41D26
:103600000E94F51D02C00E9482128F2D882341F076
:10361000EFE9FFE03197F1F700C000008150F6CFED
:10362000FE017ACFDF91CF911F910F91FF90EF9024
:10363000DF900895609381037093820380938303E6
:10364000909384030E94382A0C942D1760937D0375
:1036500070937E0380937F03909380030E94972A48
:103660000C942D1708950C941A1B0F931F9300911F
:103670008103109182032091830330918403602B96
:10368000712B822B932B1F910F910C941A1B0F936C
:103690001F93009181031091820320918303309145
:1036A000840360237123822393231F910F910C9431
:1036B0001A1B0F931F930091810310918203209195
:1036C00083033091840360277127822793271F91FA
:1036D0000F910C941A1B60E070E0CB010C94261B38
:1036E0000F931F9341E050E060E070E08A019B017E
:1036F00004C0000F111F221F331F8A95D2F7C90182
:10370000B8011F910F910C94261B0F931F9341E05A
:1037100050E060E070E004C0440F551F661F771F43
:103720008A95D2F780917D0390917E03A0917F03CB
:10373000B09180038A019B01082B192B2A2B3B2B6C
:10374000C901B8011F910F910C94261B0F931F9371
:1037500041E050E060E070E004C0440F551F661F78
:10376000771F8A95D2F74095509560957095809116
:103770007D0390917E03A0917F03B09180038A0125
:103780009B01082319232A233B23C901B8011F9158
:103790000F910C94261B0F931F9341E050E060E0C3
:1037A00070E004C0440F551F661F771F8A95D2F73B
:1037B00080917D0390917E03A0917F03B09180035F
:1037C0008A019B01082719272A273B27C901B8012D
:1037D0001F910F910C94261B0F931F9300917D0353
:1037E00010917E0320917F0330918003602B712B19
:1037F000822B932B1F910F910C94261B0F931F93D9
:1038000000917D0310917E0320917F03309180030E
:1038100060237123822393231F910F910C94261B05
:103820000F931F9300917D0310917E0320917F03DE
:103830003091800360277127822793271F910F9172
:103840000C94261B0895CF92DF92EF92FF920F9374
:103850001F93CF93DF938C01C0908103D09082039C
:10386000E0908303F090840340917D0350917E03A8
:1038700060917F0370918003C42AD52AE62AF72A33
:10388000CFE1D0E0D701C6010C2E04C0B695A795B4
:10389000979587950A94D2F780FF07C0B8018C2FBF
:1038A0000E940F208130910531F4219758F7B8011B
:1038B00080E00E940F20DF91CF911F910F91FF9028
:1038C000EF90DF90CF900895CF92DF92EF92FF922A
:1038D0000F931F93CF93DF93C82F80910C01882300
:1038E000E1F080910D018823C1F08C2F869586959B
:1038F00086958F3008F0A4C0E0910E01F0910F0181
:10390000E80FF11DC77081E090E001C0880FCA95F3
:10391000EAF79181892B818393C0D09098033091ED
:103920009603E0910E01F0910F01332309F473C067
:10393000409197038D2D2FEF96E0E92EF12C082F63
:10394000082E000C110BBF01600F711FDB011296D6
:103950009C919C1709F474C02F3F19F4911101C078
:10396000282FC801019606E010E0B7010E94B92D8A
:103970008413E5CFD22F4D114EC02F3F69F4842F11
:10398000440F990B0196B8010E94B92D80939803BA
:103990003150309396033FC0822F220F990B01962E
:1039A000B8010E94B92D282FFF24F39406E010E0FF
:1039B000022E000C330B6F01C20ED31ED6011296DD
:1039C0005C91552391F08D2FDD0F990BBF01680F8E
:1039D000791FDB0112965C93D60112961C92019618
:1039E000B8010E94B92DD82F01C0F394C9010196E6
:1039F000B8010E94B92D282F8413DACF242F440F49
:103A0000330B2F193109C901069666E070E00E9458
:103A1000B92D8093970320919703022E000C330B4E
:103A2000E20FF31FC283C901019666E070E00E94B5
:103A3000B92D80939703809196038F5F80939603AF
:103A4000DF91CF911F910F91FF90EF90DF90CF907A
:103A50000895EF92FF920F931F93CF93C82F8091F9
:103A60000C018823E9F080910D018823C9F08C2F87
:103A70008695869586958F3008F06FC0E0910E018F
:103A8000F0910F01E80FF11DC77081E090E001C0D7
:103A9000880FCA95EAF780959181892381835DC05B
:103AA0002091980340919603442309F456C0E09175
:103AB0000E01F0910F0100919703002E000C110BE5
:103AC00086E0E82EF12C30E0DF01A20FB31FCD011C
:103AD000029612965C915C1336C0DC011C92415038
:103AE00040939603411104C01092980310929703DB
:103AF00040919703842F042E000C990B059666E0E5
:103B000070E00E94B92D2817390739F5C091980344
:103B100006E010E0842F440F990B0596B8010E942F
:103B2000B92D9C01482F0596B8010E94B92DDF01DF
:103B3000A80FB91F12968C91811102C02C13EACFE5
:103B4000209397030AC0C9010196B7010E94B92DBD
:103B5000282F8017910709F0B6CFCF911F910F91B1
:103B6000FF90EF90089581E090E0E0910E01F091D8
:103B70000F01E80FF91F1082019680319105A9F716
:103B8000089580919A03089590919A03892B8093C8
:103B90009A030895809590919A03892380939A03BC
:103BA000089580939A03089510929A03089590912E
:103BB0009903892B80939903089580959091990397
:103BC000892380939903089510929903089580930F
:103BD0008503089510928503089580910D01811148
:103BE00003C08091960308950895E0910E01F0912D
:103BF0000F0180919A038083E0910E01F0910F01F3
:103C0000908180919903892B8083809185038823FB
:103C100061F0E0910E01F0910F019081892B80837A
:103C20000E94ED1D81111092850380910E019091EB
:103C30000F010C9430110895CF93DF9300D000D082
:103C40001F92CDB7DEB70F900F900F900F900F908F
:103C5000DF91CF910895089580913004843031F13F
:103C600010929C0320E488E190E00FB6F894A895A8
:103C7000809360000FBE209360000E94E92683B706
:103C8000817F846083BF83B7816083BF7894889588
:103C900083B78E7F83BF0FB6F894A895809160009C
:103CA000886180936000109260000FBE08950895AF
:103CB0000895CF930E94571E0E9449030E94581EE8
:103CC000C0E08C2F0E944C04892B29F4CF5FC530B3
:103CD000C1F780E001C081E0CF9108950E943F17B5
:103CE0000C9491281F920F920FB60F9211248F936C
:103CF0009F93AF93BF9380919C03811113C08091D8
:103D00009D0390919E03A0919F03B091A0034196C3
:103D1000A11DB11D80939D0390939E03A0939F03CB
:103D2000B093A003BF91AF919F918F910F900FBE61
:103D30000F901F90189582E084BD93E095BD9AEF97
:103D400097BD80936E0008952FB7F89480919D03DE
:103D500090919E03A0919F03B091A0032FBF08955F
:103D6000CF92DF92EF92FF920F931F932FB7F894A9
:103D700040919D0350919E0360919F037091A00319
:103D80002FBF6A017B01EE24FF248C0120E030E08C
:103D9000C016D106E206F30610F4415051099A010B
:103DA000281B390BC9011F910F91FF90EF90DF90F5
:103DB000CF9008951F920F920FB60F9211248F93F8
:103DC0009F93AF93BF9380919D0390919E03A09189
:103DD0009F03B091A0030196A11DB11D80939D0387
:103DE00090939E03A0939F03B093A003BF91AF91C4
:103DF0009F918F910F900FBE0F901F9018950E946A
:103E0000790EF8942FEF87EA91E621508040904098
:103E1000E1F700C0000087E090EBDC0180933B04F9
:103E200090933C04A0933D04B0933E049CE088E151
:103E30000FB6F894A895809360000FBE9093600031
:103E4000FFCF811103C080E090E002C087E797E7D1
:103E500090930108809300089AE088E10FB6F894E7
:103E6000A895809360000FBE90936000FFCF8D3BBC
:103E700050F4883A08F5853AB0F4843090F48130F3
:103E800009F485C081C0883E30F4803E50F48F3BF9
:103E900009F454C079C0803F08F476C090E0906582
:103EA000089590E00895853A09F474C0863A09F4BB
:103EB00074C083E890E40895883A09F471C0893A9F
:103EC00009F471C08A3A09F471C08B3A09F471C0DF
:103ED0008C3A09F471C08D3A09F471C08E3A09F434
:103EE00071C08F3A09F471C0813B09F471C0803B05
:103EF00009F471C0823B09F471C0833B09F471C0BD
:103F0000843B09F471C0853B09F471C0863B09F418
:103F100071C0873B09F471C0883B09F471C0893BCB
:103F200009F471C08A3B09F471C08B3B09F471C07C
:103F30008C3B09F471C080E094E408950E94C11D97
:103F400080FF0EC00E943F172FEF80E792E02150C4
:103F500080409040E1F700C000000E94FF1E12C0A8
:103F60000E94C11D82FF0EC00E943F172FEF89E6FD
:103F700098E1215080409040E1F700C0000081E0CE
:103F80000E94211F0E943F1780E090E0089581E089
:103F900090E0089581E890E4089582E890E408951F
:103FA00082EE94E4089589EE94E408958AEE94E410
:103FB000089585EB94E4089586EB94E4089583EBEB
:103FC00094E4089584EB94E4089587EB94E40895D1
:103FD0008CEC94E408958DEC94E4089583E895E4E2
:103FE00008958AE895E4089582E995E4089584E9BE
:103FF00095E4089581E296E4089583E296E40895B5
:1040000084E296E4089585E296E4089586E296E4D3
:10401000089587E296E408958AE296E408950E945E
:104020000203803EA8F4803C00F5813309F45CC0B3
:1040300038F4893209F452C08A3209F45BC05FC097
:104040008933B1F08238A1F0853309F441C057C0FB
:10405000833E41F128F4803E99F0823EB9F04FC092
:10406000863E31F1873E71F14AC00E9406030895F1
:104070009091390490FD02C091FF41C080EE3FC095
:104080008091390480FFFACF89E339C080913904E7
:1040900082FF0CC08091390484FF02C080E02FC0F1
:1040A00083EE2DC08091390482FFF4CF82EE27C0C9
:1040B0008091390483FF0AC08091390484FDEECFDA
:1040C00087EE1DC08091390483FFF6CF86EE17C0BE
:1040D0008091390485FF06C089E211C080913904BE
:1040E00085FFFACF85E30BC08091390486FF06C0B7
:1040F0008AE205C08091390486FFFACF81E30E94ED
:10410000371F089580E090E00895AF92BF92CF925C
:10411000DF92EF92FF920F931F93CF937C01C0E049
:10412000CC24C394D12C8C2F0E944C045C0100E061
:1041300010E0C601002E02C0880F991F0A94E2F712
:104140008A219B21892BB1F0602F7C2F80E00E9477
:104150000F209C018E159F0559F0832F807E932F91
:10416000907C11F0803A31F430E02E153F0511F4C7
:1041700081E009C00F5F1F4F0E301105D1F6CF5FF0
:10418000C53089F680E0CF911F910F91FF90EF909D
:10419000DF90CF90BF90AF900895CF93DF93EC0165
:1041A0008CE290E00E948520882329F0CE01DF91E7
:1041B000CF910C94852080E0DF91CF910895CF932B
:1041C0000E945122811102C00E942C22C5E6C150DA
:1041D00049F00E9449038FE39CE90197F1F700C081
:1041E0000000F5CF89E290E00E94CD20811132C11C
:1041F0008AE290E00E94CD20882341F00E944B2269
:104200000E942C220E94F32B0E94512B85E090E00B
:104210000E94CD2081110E94FF1E0E942B1E0E9431
:104220005C2280939B0387E090E00E94CD2088234E
:10423000C1F18BE190E00E94CD20882351F0809164
:104240009B0381FB222720F991E0922790FB81F9C3
:104250000FC08EE090E00E94CD20882361F0809115
:104260009B0382FB222720F991E0922790FB82F9A1
:1042700080939B0316C080E190E00E94CD20909136
:104280009B03882341F093FB222720F981E08227BA
:1042900080FB93F904C0892F809580FB90F990935F
:1042A0009B0380919B030E9460220E946E22809358
:1042B000390480EE90E00E94CD20882341F0809167
:1042C0003904982F909590FB80F98093390489E305
:1042D00090E00E94CD20882359F08091390481FB21
:1042E000222720F991E0922790FB81F980933904ED
:1042F00082EE90E00E94CD20882359F0809139040D
:1043000082FB222720F991E0922790FB82F980938B
:10431000390486EE90E00E94CD20882359F08091E8
:10432000390483FB222720F991E0922790FB83F93F
:104330008093390483EE90E00E94CD20882359F0C9
:104340008091390484FB222720F991E0922790FB89
:1043500084F98093390485E390E00E94CD2088237E
:1043600059F08091390485FB222720F991E09227AA
:1043700090FB85F98093390481E390E00E94CD2081
:10438000882359F08091390486FB222720F991E097
:10439000922790FB86F98093390481E190E00E9496
:1043A000CD20882359F08091390487FB222720F9FA
:1043B00091E0922790FB87F980933904809139042A
:1043C0000E9472228091390487FB882780F98093AC
:1043D0000D0187E290E00E94CD20C82F8EE190E091
:1043E0000E94CD208111C2608FE190E00E94CD201B
:1043F0008111C46080E290E00E94CD208111C860EC
:1044000081E290E00E94CD208111C06182E290E0C3
:104410000E94CD208111C06283E290E00E94CD20F5
:104420008111C06484E290E00E94CD20882311F0C5
:10443000C06802C0CC2329F08C2F0E9469226C2F07
:1044400003C00E946522682F70E080E090E0CF9169
:104450000C94331BCF9108956DEE7EEF80E090E0D9
:104460000E94FD2D60E082E090E00E94E72D60E078
:1044700083E090E00E94E72D60E084E090E00E94FD
:10448000E72D60E085E090E00E94E72D60E086E0A7
:1044900090E00C94E72D6FEF7FEF80E090E00C94BC
:1044A000FD2D80E090E00E94E12D21E08D3E9E4FA9
:1044B00009F020E0822F089582E090E00C94D32D43
:1044C000682F82E090E00C94E72D83E090E00C945C
:1044D000D32D682F83E090E00C94E72D84E090E0EA
:1044E0000C94D32D682F84E090E00C94E72D86E0A7
:1044F00090E00C94D32D682F86E090E00C94E72D8B
:104500008091A30380FF0BC06091130185E0689F39
:10451000B001112475956795759567952BC081FF3E
:1045200009C06091130185E0689FB0011124759561
:10453000679520C082FF07C06091130185E0689FE6
:10454000B001112417C09091A4039923D1F0609178
:104550001201961788F72091130185E0289F90019A
:104560001124929FA001939F500D112470E0CA0165
:104570000E94B92D6038710540F46115710539F05C
:1045800002C065E070E0862F08958FE7089581E00E
:1045900008958091A30380FF08C06091110170E02D
:1045A000759567957595679521C081FF06C06091E7
:1045B000110170E07595679519C082FF04C0609184
:1045C000110170E010C09091A4039923C1F0609193
:1045D00010019617A0F780911101899FC001112445
:1045E00070E00E94B92D6038710528F461157105DD
:1045F00021F0862F08958FE7089581E0089561E006
:1046000070E0F4CF803F21F40E948022819504C0A5
:10461000813F29F40E9480228093A7030895823F5E
:1046200021F40E948022819504C0833F29F40E94D6
:1046300080228093A6030895893F19F40E94C9221D
:1046400005C08A3F31F40E94C92281958093A80356
:1046500008958B3F21F40E94C922819504C08C3FAC
:1046600029F40E94C9228093A9030895843F21F46C
:104670008091A503816017C0853F21F48091A50337
:10468000826011C0863F21F48091A50384600BC035
:10469000873F21F48091A503886005C0883F31F4ED
:1046A0008091A50380618093A50308958D3F21F437
:1046B0008091A30381600BC08E3F21F48091A303FE
:1046C000826005C08F3F29F48091A30384608093AA
:1046D000A3030895803F39F48091A70387FF6CC03E
:1046E0001092A70369C0813F29F48091A70318168F
:1046F000BCF362C09091A603823F29F497FF5CC08F
:104700001092A60359C0833F19F41916CCF354C074
:10471000893F41F48091A80318160CF04DC0109207
:10472000A8034AC08A3F29F48091A80387FF44C0A8
:10473000F6CF8B3F39F48091A90387FF3DC01092DB
:10474000A9033AC08C3F29F48091A9031816BCF341
:1047500033C0843F21F48091A5038E7F17C0853F2D
:1047600021F48091A5038D7F11C0863F21F48091B3
:10477000A5038B7F0BC0873F21F48091A503877F22
:1047800005C0883F31F48091A5038F7E8093A503F7
:1047900013C08D3F21F48091A3038E7F0BC08E3F09
:1047A00021F48091A3038D7F05C08F3F29F4809170
:1047B000A3038B7F8093A3038091A60381110EC076
:1047C0008091A70381110AC08091A803811106C0BE
:1047D0008091A903811102C01092A403089585EA73
:1047E00093E00E943B110E94A41E9093A203809329
:1047F000A10308951F93CF93DF938091A10390911C
:10480000A2030E94B01EAC019091A403992321F051
:104810002091140130E006C0209115018AE0289F04
:10482000900111244217530708F485C08091A60314
:10483000C091A703D091A8031091A903811107C0CB
:10484000C11175C0D11173C0111171C074C09F3FE7
:1048500019F09F5F9093A403181624F40E948022FD
:104860008093A6038091A60387FF05C00E94802243
:1048700081958093A6031C1624F40E9480228093C5
:10488000A7038091A70387FF05C00E94802281951E
:104890008093A7036091A603662331F1C091A7031B
:1048A000CC2311F1062E000C770B880B990B0E947C
:1048B000AC2C23E333E343E35FE30E94102D0E941B
:1048C000742C6093A6036C2FCC0F770B880B990B7D
:1048D0000E94AC2C23E333E343E35FE30E94102DFB
:1048E0000E94742C6093A7031D1624F40E94C92211
:1048F0008093A8038091A80387FF05C00E94C92266
:1049000081958093A803111624F40E94C9228093F4
:10491000A9038091A90387FF05C00E94C922819540
:104920008093A903DF91CF911F910C94EF239F3FB8
:1049300009F08FCF97CFDF91CF911F910895E5EACE
:10494000F3E085E0DF011D928A95E9F71092A40358
:104950001092A3030895833081F128F4813059F037
:104960008230D1F00895853009F449C0B8F186301D
:1049700009F456C0089580911501262F30E0280FC4
:10498000311D2F3F310524F4680F60931501089500
:104990008FEF80931501089580911401262F30E048
:1049A000280F311D2F3F310524F4680F6093140147
:1049B00008958FEF80931401089580911301262F9D
:1049C00030E0280F311D2F3F310524F4680F60932C
:1049D000130108958FEF80931301089580911201C0
:1049E000262F30E0280F311D2F3F310524F4680FAA
:1049F0006093120108958FEF8093120108958091C2
:104A00001101262F30E0280F311D2F3F310524F4EE
:104A1000680F6093110108958FEF8093110108953D
:104A200080911001262F30E0280F311D2F3F3105D6
:104A300024F4680F6093100108958FEF80931001A4
:104A40000895833011F128F4813049F0823091F0DB
:104A50000895853081F120F18630C1F1089580916B
:104A60001501681720F4861B809315010895109294
:104A70001501089580911401681720F4861B809316
:104A8000140108951092140108958091130168177C
:104A900020F4861B8093130108951092130108954A
:104AA00080911201681720F4861B809312010895EB
:104AB00010921201089580911101681720F4861B4D
:104AC00080931101089510921101089580911001B1
:104AD000681720F4861B809310010895109210012E
:104AE00008950F931F938B3109F475C0A0F58E3094
:104AF00009F484C0C0F4873009F462C068F48630D9
:104B000009F0AAC080919B03817F8E7F80939B03D5
:104B100081E08093AB03A1C0883009F44AC08B3098
:104B200009F498C099C0813109F472C068F48031E9
:104B300009F092C080919B0383FB222720F991E02A
:104B4000922790FB83F950C0863109F483C08931E4
:104B500009F480C081C0853309F463C068F48732EA
:104B600009F45FC028F48E3108F476C08D515FC01F
:104B7000893209F456C070C0833438F48A3308F09F
:104B800055C0883309F466C067C0833409F449C04E
:104B9000883409F061C00E943F170FEF13ED20E346
:104BA000015010402040E1F700C000000E94FF1EAD
:104BB00051C00E945C220E946E220E9477224AC04D
:104BC00090919B03892F817090FF12C0917F9E7FEF
:104BD00090939B0342C080919B0381FB222720F985
:104BE00091E0922790FB81F980939B03992391F1A7
:104BF00080919B03816080939B032CC080919B03D9
:104C000082FB222720F991E0922790FB82F9ECCFDA
:104C10000E943F1790910D0181E0892780930D013B
:104C200019C061E070E080E090E010C0895341E07D
:104C300050E060E070E08A019B0104C0000F111F8A
:104C4000221F331F8A95D2F7C901B8010E94331B76
:104C50000E943F1781E001C080E01F910F910895ED
:104C600080E0089580E00895CF93C82F8091AB0332
:104C7000813069F018F08230C9F184C0E0910E01F2
:104C8000F0910F018081823209F07EC007C0E0916F
:104C90000E01F0910F018081823261F48C2F0E940D
:104CA0003026811104C08C2F0E9471251DC081E027
:104CB00090E01AC08C2F0E943226811114C0C4319A
:104CC00079F048F4CB3079F0C03109F061C082E06E
:104CD0008093AB0308C0C93219F0C83321F058C023
:104CE0001092AB0355C081E0817054C0C93291F17C
:104CF00020F5C43179F1B0F4C73009F047C08EE136
:104D00008093150182E3809314018AE0809313015C
:104D100084E18093120188E08093110188E28093FE
:104D2000100134C0CE51C63088F5EC2FF0E0E051D0
:104D3000FD4F80818093AA0329C0CE34E9F020F48E
:104D4000CB3421F56AE013C0C13579F0C235F1F4F6
:104D500061E00DC08091AA03882319F01092AA0384
:104D600015C081E08093AB0315C061E006C080915F
:104D7000AA030E94AB240AC06AE08091AA030E94A1
:104D8000212504C01092AB0380E004C081E002C082
:104D900080E0AACFCF910895E1E8F0E080818860BB
:104DA00080838081816080838FB7F89493E09093B3
:104DB000890090ED909388008FBF0C94F62AEFE65F
:104DC000F0E080818260808381E08093D4030C9442
:104DD000112BCF9380916F008D7F80936F00109285
:104DE000D403C0E08C2F0E94042BCF5FC730D1F7D3
:104DF0008091D403CF910C94112B8091D3038F67B2
:104E00008093D3030895CF931092D303C0E08C2FE7
:104E10000E94042BCF5FC730D1F78091D403CF918C
:104E20000C94112BE5ECF3E097E09E0F81939E1319
:104E3000FDCF0895E82FF0E0EB53FC4F2081422F87
:104E400050E08FEF90E0861B9109841795071CF4C2
:104E50008FEF80830895620F60830895E82FF0E05C
:104E6000EB53FC4F8081861710F410820895861B47
:104E7000808308958091C4038F678093C40308954D
:104E80001092C40308954091C30321E030E06623EB
:104E900041F001C0220F8A95EAF7242B2093C30327
:104EA0000895B90102C0660F771F8A95E2F7CB011A
:104EB000809584238093C3030895CF93DF93D82FE5
:104EC000C0E06D2F8C2F0E944327CF5FC730C9F7FA
:104ED000DF91CF9108958093C20308958091BA0322
:104EE0008F678093BA0308951092BA030895809350
:104EF000B80308951F920F920FB60F921124EF92EC
:104F0000FF920F931F932F933F934F935F936F9352
:104F10007F938F939F93AF93BF93CF93DF93EF9341
:104F2000FF938091AF038F5F8093AF030CEC13E08E
:104F3000C0E0D0E0FC2E2091D30330E00C2E02C064
:104F4000369527950A94E2F720FF1AC08091AF03A7
:104F500081110DC0F8018081882319F08C2F0E94E7
:104F6000F72AFE01EB53FC4F8081F801808390917A
:104F7000AF03F8018081981303C08F2D0E94042B8A
:104F800021960F5F1F4FC730D105A1F68091AE0368
:104F90008F5F803418F48093AE03ACC01092AE03E0
:104FA000E090C403E11005C09091BA0391113BC099
:104FB000A1C08091AD038F5F8093AD039091C20338
:104FC000981790F71092AD030BEB13E0C0E0D0E020
:104FD000F12CC7010C2E02C0969587950A94E2F732
:104FE00080FF1AC0F8018081882319F081508083E6
:104FF00013C08091C30390E00C2E02C09695879554
:105000000A94E2F761E080FF04C08C2F0E942E27F3
:1050100003C08C2F0E941A2721960F5F1F4FC730A5
:10502000D105B9F6C1CF8091AC038F5F8093AC03FB
:105030002091B803281708F05DC01092AC0340918E
:10504000B0035091B903A1EBB3E020E030E0C1E040
:10505000D0E0692F70E0022E02C0769567950A9421
:10506000E2F760FF3AC08C91E82FF0E0E754FC4F84
:105070000491B9016B537C4FFB010083642F70E0F6
:10508000022E02C0769567950A94E2F760FF19C078
:10509000811115C0BE01022E01C0660F0A94EAF705
:1050A00060954623E52FF0E0022E02C0F695E795C5
:1050B0000A94E2F7E0FF11C0962356230EC08150F8
:1050C0000BC08F3741F4BE01022E01C0660F0A9457
:1050D000EAF7462B02C08F5F8C932F5F3F4F1196EC
:1050E0002730310509F0B5CF4093B0039093BA0350
:1050F0005093B903FF91EF91DF91CF91BF91AF91A1
:105100009F918F917F916F915F914F913F912F91DF
:105110001F910F91FF90EF900F900FBE0F901F9077
:1051200018950E945122811102C00E942C220E94D7
:10513000772280933A0480FF02C0869501C080E008
:105140000C94560480913A04982F9695292F30E0BC
:10515000283031054CF49F5F990F8170892B816055
:1051600080933A040E947B2280913A0486950C94A5
:10517000560480913A04982F969591F09158990F82
:105180008170892B80933A048E7F91E009F490E03E
:1051900080913A0490FB80F980933A040E947B222C
:1051A00080913A0486950C94560480913A04982F85
:1051B0009095917090FB80F980933A04992339F08F
:1051C000982F9E7F21F48170826080933A048091B1
:1051D0003A040E947B2280913A0480FF02C08695A7
:1051E00001C080E00C94560490913A04892F869572
:1051F0008F5F8F779170893028F4880F892B809387
:105200003A0402C090933A0480913A048E7F91E070
:1052100009F490E080913A0490FB80F980933A047D
:105220000E947B2280913A0486950C945604880F44
:1052300090913A049170892B80933A048E7F91E08B
:1052400009F490E080913A0490FB80F980933A044D
:105250000E947B2280913A0486950C945604EF922A
:10526000FF920F931F93CF93DF930091DA030827E8
:10527000611101C0F1F1C0E0D0E0E62EF82E10E09F
:105280008C2F9C2F2091D30330E00C2E02C036953A
:1052900027950A94E2F720FF0BC02091D60330E057
:1052A0000C2E02C0369527950A94E2F720FD1BC00C
:1052B000E11009C09801092E02C0369527950A947D
:1052C000E2F720FF10C02091D5032F2530E002C067
:1052D000369527959A95E2F720FF03C00E94B30404
:1052E00002C00E94F7042196C730D10549F6F0921A
:1052F000DA03DF91CF911F910F91FF90EF90089506
:105300000F931F93CF93DF93C0E0D0E001E010E054
:105310008C2F0E94672B94FF0BC08091D5039801BE
:105320000C2E01C0220F0A94EAF7282B2093D503F4
:1053300095FF0BC08091D60398010C2E01C0220F5F
:105340000A94EAF7282B2093D6039F70892F90E0C8
:105350008230910589F083309105D1F0813091053B
:1053600011F50C2E01C0880F0A94EAF79091D8032A
:10537000892B8093D80317C02091D703C8010C2E26
:1053800001C0880F0A94EAF7822B8093D7030BC0E1
:105390002091D903C8010C2E01C0880F0A94EAF7A6
:1053A000822B8093D9032196C730D10509F0B0CF65
:1053B0000E94AA0461E080E0DF91CF911F910F91DC
:1053C0000C942F29CF92DF92EF92FF920F931F93AD
:1053D000CF93DF939091D903992309F440C01091A2
:1053E000DA03C0E0D0E0E82EF12CCC24C394D12C19
:1053F0000C2F8091D90390E00C2E02C096958795D2
:105400000A94E2F780FF1BC0802F0E94672B970150
:1054100002C0359527958A95E2F720FF08C0C6019E
:105420000C2E01C0880F0A94EAF7182B08C0C60199
:105430000C2E01C0880F0A94EAF780951823219654
:10544000C730D105A9F660E0812FDF91CF911F9180
:105450000F91FF90EF90DF90CF900C942F29DF9168
:10546000CF911F910F91FF90EF90DF90CF90089513
:10547000AF92BF92CF92DF92EF92FF920F931F9362
:10548000CF93DF932091D803222309F445C06B0109
:105490007C011091DA03C0E0D0E0AA24A394B12CDF
:1054A0000C2F8091D80390E00C2E02C09695879522
:1054B0000A94E2F780FF1EC0802F0E94672BA7018D
:1054C000960104C056954795379527958A95D2F74A
:1054D00020FF08C0C5010C2E01C0880F0A94EAF70E
:1054E000182B08C0C5010C2E01C0880F0A94EAF7DA
:1054F000809518232196C730D10591F660E0812F61
:10550000DF91CF911F910F91FF90EF90DF90CF909F
:10551000BF90AF900C942F29DF91CF911F910F91E5
:10552000FF90EF90DF90CF90BF90AF900895AF9233
:10553000BF92CF92DF92EF92FF920F931F93CF9380
:10554000DF932091D703222309F445C06B017C012E
:105550001091DA03C0E0D0E0AA24A394B12C0C2F60
:105560008091D70390E00C2E02C0969587950A94FF
:10557000E2F780FF1EC0802F0E94672BA7019601D3
:1055800004C056954795379527958A95D2F720FF01
:1055900008C0C5010C2E01C0880F0A94EAF7182B29
:1055A00008C0C5010C2E01C0880F0A94EAF7809547
:1055B00018232196C730D10591F660E0812FDF9145
:1055C000CF911F910F91FF90EF90DF90CF90BF9000
:1055D000AF900C942F29DF91CF911F910F91FF90E5
:1055E000EF90DF90CF90BF90AF90089508952091F5
:1055F000D60330E0082E02C0369527950A94E2F7CC
:1056000020FD0C94B30408952091D60330E0082EB9
:1056100002C0369527950A94E2F720FD0C94F70412
:10562000089561E08091DA030C942F29CF92DF92E4
:10563000EF92FF920F931F93CF93DF930BED13E045
:10564000CEE1D0E0E12CF12CCE010E94E12DF80159
:1056500091838083019699F4C701880F991F9C015B
:1056600025523C4F69018E2D0E94A104F6019183C1
:105670008083F80160817181CE010E94FD2DFFEFD2
:10568000EF1AFF0A22960E5F1F4FCC32D105E1F6CA
:10569000DF91CF911F910F91FF90EF90DF90CF900E
:1056A00008950F931F93CF930EE110E0C0E08C2F6D
:1056B0000E94A104BC01C8010E94FD2DCF5F0E5FB6
:1056C0001F4FC730A1F7CF911F910F910895E82F79
:1056D000F0E0EE0FFF1FE552FC4F808191810895AD
:1056E000CF92DF92EF92FF920F931F93CF9382E3BB
:1056F00090E00E94E12D8C01C12CD12C2DEEE22EE8
:105700002EEFF22E0E941703C82F0E941903C89F84
:10571000C00111249C0183E0220F331F8A95E1F719
:10572000205C3F4FC216D30680F4C601C4960E9487
:10573000D32D282F30E0C0FE02C0322F2227E20EE8
:10574000F31E8FEFC81AD80ADDCF81E00E151F05B2
:1057500009F080E0CF911F910F91FF90EF90DF90C3
:10576000CF90089590E0880F991FC4960C94E12D76
:1057700090E0880F991FC4960C94FD2DEF92FF9234
:105780000F931F93CF93DF9300D0CDB7DEB7182FC1
:105790004A8369830E941703082F0E941903089FF8
:1057A000C0011124189F7001199FF00C11240E9450
:1057B000190369819701689F200D311D1124C901CA
:1057C0004A81840F911D8C589F4F0F900F90DF914D
:1057D000CF911F910F91FF90EF900C94D32D8C5887
:1057E0009F4F0C94E72D8F929F92AF92BF92CF92D2
:1057F000DF92EF92FF920F931F93CF93DF930E945C
:105800000D036C010E940A037C01C114D10409F14B
:105810000E9469024C01A12CB12C0DEE1EEFA814C0
:10582000B90420F4F601C591D49102C0C0E0D0E0E3
:10583000BE018A2D0E94B82B0C0F1D1F8FEFA81AD6
:10584000B80A82E0C80ED11C80E2A816B10439F76C
:1058500002C00DEE1EEFE114F10471F10E94660228
:105860006C01A12CB12C0E941703C82F0E941903B0
:10587000C89FC001112423E0880F991F2A95E1F7E2
:10588000A816B906C8F4AC14BD0428F4F701EA0D53
:10589000FB1DC49101C0C0E06C2FC5010E94EF2B1D
:1058A000EC2FF0E0A0FE02C0FE2FEE270E0F1F1F10
:1058B0008FEFA81AB80AD7CFB80182E390E0DF9142
:1058C000CF911F910F91FF90EF90DF90CF90BF90FD
:1058D000AF909F908F900C94FD2D0E94702B8111A2
:1058E00002C00C94F32B08950E947B2C6894B11194
:1058F0000C940A2D08950E94EF2C88F09F5798F081
:10590000B92F9927B751B0F0E1F0660F771F881FC4
:10591000991F1AF0BA95C9F714C0B13091F00E94DE
:10592000092DB1E008950C94092D672F782F882751
:10593000B85F39F0B93FCCF3869577956795B39505
:10594000D9F73EF490958095709561957F4F8F4F74
:105950009F4F0895E89409C097FB3EF49095809579
:10596000709561957F4F8F4F9F4F9923A9F0F92F25
:1059700096E9BB279395F695879577956795B795A3
:10598000F111F8CFFAF4BB0F11F460FF1BC06F5F89
:105990007F4F8F4F9F4F16C0882311F096E911C09B
:1059A000772321F09EE8872F762F05C0662371F0BC
:1059B00096E8862F70E060E02AF09A95660F771FD0
:1059C000881FDAF7880F9695879597F9089557FD00
:1059D0009058440F551F59F05F3F71F04795880F5D
:1059E00097FB991F61F09F3F79F0879508951216F4
:1059F00013061406551FF2CF4695F1DF08C01616A0
:105A000017061806991FF1CF869571056105089450
:105A10000895E894BB2766277727CB0197F9089567
:105A20000E94232D0C94942D0E94862D38F00E9404
:105A30008D2D20F0952311F00C947D2D0C94832D49
:105A400011240C940A2D0E94E72C70F3959FC1F34A
:105A5000950F50E0551F629FF001729FBB27F00D1C
:105A6000B11D639FAA27F00DB11DAA1F649F662771
:105A7000B00DA11D661F829F2227B00DA11D621FC0
:105A8000739FB00DA11D621F839FA00D611D221F7A
:105A9000749F3327A00D611D231F849F600D211D5E
:105AA000822F762F6A2F11249F5750409AF0F1F0E1
:105AB00088234AF0EE0FFF1FBB1F661F771F881F4A
:105AC00091505040A9F79E3F510580F00C947D2DD8
:105AD0000C940A2D5F3FE4F3983ED4F386957795B6
