:100000000C941E020C9465020C9465020C9465021B
:100010000C9465020C9465020C9465020C946502C4
:100020000C9465020C9465020C944B0E0C941D0FFD
:100030000C94CB1D0C9465020C9465020C94650223
:100040000C9465020C94D5260C9465020C94650200
:100050000C9465020C94331E0C9465020C9465029A
:100060000C9465020C9465020C9465020C94650274
:100070000C9465020C9465020C9465020C94650264
:100080000C94FF090C9465020C9465020C946502B3
:100090000C9465020C9465020C9465020C94650244
:1000A0000C9465020C9465020C9465027C027E023D
:1000B000800282028402860288028A02850FA80FCB
:1000C0006310A80F6310ED0F10106310321045106D
:1000D0004C134C1379137913D4130E147716771627
:1000E0002614771623152315DE15F41577166316D7
:1000F000016202620162026200F1A100D100D2003D
:10010000D0000000F0000002F003F004F005F0065B
:10011000F007F008F009F0C51E1F20212223242536
:1001200026272D2E2A2B141A0815171C180C12130B
:100130002F303139041607090A0B0D0E0F33340026
:1001400028E1001D1B061905111036373800E5E0BF
:10015000E3E200002C00000000E6C0E7E4353A3B93
:100160003C3D3E3F4041424344454C0101010101B9
:1001700001B40149014647480101C9CACBCCCDCEE3
:100180000101014A4B00010100C7C8C1C2C3AAA9AD
:10019000A84D4E0001010101000001000000000116
:1001A000010101001080FF012301220222012264CB
:1001B0003214643214783C1E1E140A05000000003C
:1001C0000101010202030405050607090A0B0C0ED2
:1001D0000F1112141517191B1D1F212325282A2C56
:1001E0002F313436393B3E414346494C4F525558E6
:1001F0005A5D6164676A6D707376797C7F838689E6
:100200008C8F9295989B9EA2A5A7AAADB0B3B6B9C4
:10021000BCBEC1C4C6C9CBCED0D3D5D7DADCDEE0F4
:10022000E2E4E6E8EAEBEDEEF0F1F3F4F5F6F8F9E6
:10023000FAFAFBFCFDFDFEFEFEFFFFFFFFFFFFFFE6
:10024000FEFEFEFDFDFCFBFAFAF9F8F6F5F4F3F11B
:10025000F0EEEDEBEAE8E6E4E2E0DEDCDAD7D5D377
:10026000D0CECBC9C6C4C1BEBCB9B6B3B0ADAAA7C7
:10027000A5A29E9B9895928F8C898683807C7976A7
:1002800073706D6A6764615D5A5855524F4C4946A8
:1002900043413E3B393634312F2C2A282523211F58
:1002A0001D1B1917151412110F0E0C0B0A09070646
:1002B0000505040302020101010000000001010222
:1002C0000202020202030303030303030303030303
:1002D00003030304040404040404040404040405E0
:1002E00005050505050505050506060606060606B7
:1002F0000607070707070707080808080808090985
:10030000090909090A0A0A0A0A0B0B0B0B0B0C0C48
:100310000C0C0C0D0D0D0D0E0E0E0E0F0F0F101000
:1003200010101111111212121313131414141515A5
:10033000161616171718181919191A1A1B1B1C1C30
:100340001D1D1E1E1F20202121222323242425269B
:1003500026272828292A2B2B2C2D2E2F30303132DE
:10036000333435363738393A3B3C3D3E3F404142E5
:1003700044454647494A4B4C4E4F515253555658A7
:100380005A5B5D5E6062636567696B6D6E70727407
:1003900076797B7D7F818486888B8D909295979AE4
:1003A0009D9FA2A5A8ABAEB1B4B7BABEC1C4C8CB1D
:1003B000CFD3D6DADEE2E6EAEEF2F8FF0000000084
:1003C0000000000000000101010202020303040416
:1003D00005050606070808090A0B0B0C0D0E0F1081
:1003E000111213151617191A1B1D1E20222325275B
:1003F000292B2D2F313335383A3D3F4244474A4D62
:10040000505356595C5F6266696C7074777B7E826C
:10041000868A8E9195999DA1A5A9ADB0B4B8BCC0AE
:10042000C3C7CBCED2D5D8DBDFE2E4E7EAECEFF10D
:10043000F3F5F7F8FAFBFCFDFEFFFFFF11241FBEEA
:10044000CFEFDAE0DEBFCDBF04B603FE27C0809158
:100450001D0490911E04A0911F04B09120048730C8
:10046000904BA740B04BD1F410921D0410921E0483
:1004700010921F041092200414BE84B7877F84BF9B
:100480000FB6F894A8958091600088618093600011
:10049000109260000FBEE0E0F8E3099512E0A0E0E2
:1004A000B1E0EEEDFAE502C005900D92AA3FB1076A
:1004B000D9F724E0AAEFB2E001C01D92AD31B20736
:1004C000E1F70E94190C0C946D2D0C9400008CE83F
:1004D00090E008958FE090E00895FC0182818823E8
:1004E000D1F1862F90E0FC013297E830F105A0F4BD
:1004F000EA5AFF4F0C94282D0C94B3070C94A907CB
:100500000C948D060C9475060C94C7060C94AC06DE
:100510000C94FC060C94E106662319F0613069F036
:1005200008950E941A1D827231F00E941A1D80FDEA
:1005300002C085E309C089E207C00E941A1D82FF3C
:1005400002C08DE301C081E28093FA028091FA0239
:100550000E94DB1106C0611106C08091FA020E9460
:10056000AE120C944E1D6130C1F30895611104C0A8
:10057000FC018281811103C080E090E0089580EF4A
:1005800090E00895462F672F0C94192B805C0E94F1
:100590000D2B089587E191E0089589EF90E008958B
:1005A0008AB1807D8AB98BB1807D8BB9089585E051
:1005B00008958EE0089580E885BF85BF0E94760784
:1005C0000E94D00280B38C7F80BB81B3836081BBEB
:1005D0006E98769A8AB18F728AB98BB1806D8BB919
:1005E00087B18F7387B988B1806C88B984B1847002
:1005F00084B985B18B6F85B9E5E0F3E0ABEFB2E08C
:10060000119211921D921D9283E0EF30F807C1F70D
:100610000895CF92DF92EF92FF920F931F93CF93A3
:10062000DF931F92CDB7DEB70BEF12E0680160E0F9
:10063000FF24F394B5E0EB2E623071F018F46130D2
:1006400041F004C0633059F0643061F0509A58981A
:100650000BC0519A599808C0529A5A9805C0539A9B
:100660005B9802C0559A5D9880EA8A95F1F78FB140
:1006700081708F2590E0799903C022E030E002C0BC
:1006800020E030E0822B932B669903C024E030E019
:1006900002C020E030E0AC01422B532B26B1022EE9
:1006A000000C330B20953095C9018827990F881FBE
:1006B0009927A3E0880F991FAA95E1F7842B952B22
:1006C000369903C0A0E1B0E002C0A0E0B0E08A2B00
:1006D0009B2B1E9903C0A0E2B0E002C0A0E0B0E0F6
:1006E0008A2B9B2B4C9903C0E0E4F0E002C0E0E0D1
:1006F000F0E08E2B9F2B199903C020E830E002C058
:1007000020E030E0AC01422B532B189B0EC023B1EC
:10071000022E000C330B20953095C9018827990FC4
:10072000881F9927982F882702C080E091E0842BAA
:10073000952B1D9903C040E052E002C040E050E01C
:10074000842B952B1C9903C040E054E002C040E08C
:1007500050E0842B952B49B1042E000C550B40958D
:1007600050959A012227330F221F3327322F222739
:10077000330F330F330F282B392B4E9903C080E0F2
:1007800090E102C080E090E0282B392B1B9903C038
:1007900040E050E202C040E050E0242B352BD6016F
:1007A0008D919C9111978217930721F02D933C9383
:1007B000E092000169830E94D00269816F5FB2E01C
:1007C000CB0ED11C653009F037CF80910001882312
:1007D000C1F0815080930001882339F0EFE9FFE0F8
:1007E0003197F1F700C000000CC0E5E0F3E0D8015C
:1007F0008D919D918D0181939193B3E005301B07FD
:10080000B1F781E00F90DF91CF911F910F91FF9091
:10081000EF90DF90CF900895E82FF0E0EE0FFF1FEC
:10082000EB5FFC4F8081918108950895CF93C82F8D
:100830008730A0F4843000F58130D0F10E94352655
:100840000E9456260E949B260E94CF26EC2FF0E0A5
:10085000ED55FE4F8491CF910C946E268730C9F0F0
:10086000883031F50E9435260E9456260E94952632
:100870000E94CF2681E016C00E9435260E9456268F
:100880000E949B260E94C92686E08C1BCF910C9467
:10089000D2260E9435260E9456260E9495260E9446
:1008A000CF2680E00E94B82683E0CF910C94C62624
:1008B0000E949B260E94CF260E945C26CF910C941A
:1008C0003F26E82FF0E0EE0FFF1FE955FE4F859120
:1008D00094910895229A2A9A80B3806B80BB81B349
:1008E000806B81BB0895813041F028F0823039F06F
:1008F000833039F008952A9808958F9808958C9838
:1009000008958D980895813041F028F0823039F0B3
:10091000833039F008952A9A08958F9A08958C9A11
:1009200008958D9A089521B3342F3095232331B340
:10093000432B3FB7F894FC01680F791FE617F707C0
:1009400089F0819198E041BB000000C087FF21BB86
:10095000880F000000C000C000C021BB00C09A95F5
:1009600091F7ECCF3FBF089520B3242B20BB9B0110
:10097000220F331F620F731F0E94930487EC90E0D5
:100980000197F1F700C00000089540E40C94B4040E
:10099000AF92BF92CF92DF92EF92FF920F931F938D
:1009A000CF93DF936C01790150E0FA01E454FD4FDD
:1009B00044918FEF90E0FC01E61BF109E454FD4FF8
:1009C000E491E09509F495C0C42FD0E08E1B910905
:1009D0008C9F90018D9F300D9C9F300D1124E32F33
:1009E0008CE3A82EB12CC601B5010E94002DDC01BC
:1009F0006230710509F446C0D0F46115710599F1B2
:100A00006130710509F079C0C31BD109B501681BBC
:100A1000790BC69FC001C79F900DD69F900D1124E2
:100A2000B5010E94002D032F060F142F67C06430FC
:100A3000710509F44BC0B8F16530710509F05DC06E
:100A4000C31BD109B501681B790BC69FC001C79FA5
:100A5000900DD69F900D1124B5010E94002D132FEB
:100A6000E32FE60F44C0C31BD109CC9DC001CD9D2F
:100A7000900DDC9D900D1124B5010E94002D132FC7
:100A8000160F35C0C31BD109CA9FC001CB9F900D63
:100A9000DA9F900D1124B5010E94002D142F032F11
:100AA000E32FE60F2BC0C31BD109B501681B790BDF
:100AB000C69FC001C79F900DD69F900D1124B50110
:100AC0000E94002D132F160F032F0FC0C31BD10937
:100AD000CA9FC001CB9F900DDA9F900D1124B501E4
:100AE0000E94002D032F060F132FE42F07C0042FA1
:100AF00005C0E42F142F042F01C0E0E0D7011196A8
:100B00000C9311971C931296EC93DF91CF911F9148
:100B10000F91FF90EF90DF90CF90BF90AF9008952E
:100B200087E090E00C94362DAB01BC0187E090E0AB
:100B30000C94502DE7EDF3E083E08083A8EDB3E063
:100B40008C91807884668F778C938CEC82838383FE
:100B50006091D7037091D8038091D9039091DA0303
:100B60000C9494058091D70380FF06C060E170E08B
:100B70008FED93E00C94C50480E090E0FC01E1521D
:100B8000FC4F118210821282039680339105B1F7D7
:100B9000EDCF20E030E0F901E152FC4F818360832A
:100BA00042832D5F3F4F20333105A9F70C94B205E6
:100BB000EF92FF920F931F93CF93DF9300D01F927A
:100BC000CDB7DEB70091D7031091D8032091D90398
:100BD0003091DA030093DB031093DC032093DD03F1
:100BE0003093DE032091D70320FF21C0042FF62E7F
:100BF000E92E182F9E012F5F3F4F0E94C80480915D
:100C0000DB0310FB87F98093DB0316958091DC03EF
:100C10008078182BE0FA17F91093DC03F092DD03CB
:100C20000093DE034B8169818A810E94C9050F9080
:100C30000F900F90DF91CF911F910F91FF90EF9048
:100C400008950F931F93CF93DF93EC01062F142F7A
:100C50009091D70390FF44C0892F8E77823021F482
:100C6000CE010E94D8051BC0892F86958F732EE375
:100C7000280F2F73243018F41091DA0310C0865C0B
:100C80008F73893060F4C92FCC1FCC27CC1FD09133
:100C9000D8038D2F880FC82BD7FBDD27D0F9809183
:100CA000D703C0FB87F98093D703C6958091D803FB
:100CB0008078C82BD0FBC7F9C093D8030093D90321
:100CC0001093DA036091D7037091D8038091D90310
:100CD0009091DA03DF91CF911F910F910C949405BD
:100CE000DF91CF911F910F910895E7EDF3E02081FF
:100CF000221F2227221F3091D803432F440F842F15
:100D0000822B37FB992790F90A9668E671E00E94DA
:100D1000142D438162810C9421062091D703221F58
:100D20002227221F3091D803432F440F842F822B78
:100D300037FB992790F98A3091051CF4825A9E4F0F
:100D400001C00A9768E671E00E94142D4091DA0311
:100D50006091D9030C9421066091D903862F90E00D
:100D60008F3E910514F46F5E01C06FEF8091D70341
:100D7000881F8827881F9091D803292F220F97FB5F
:100D8000992790F94091DA03822B0C942106609107
:100D9000D903862F90E0419714F0615101C060E0C3
:100DA0008091D703881F8827881F9091D803292F07
:100DB000220F97FB992790F94091DA03822B0C942C
:100DC00021064091DA03842F90E08F3E910514F4C0
:100DD0004F5E01C04FEF8091D703881F8827881F7F
:100DE0009091D803292F220F97FB992790F96091B2
:100DF000D903822B0C9421064091DA03842F90E0D2
:100E0000419714F0415101C040E08091D703881F01
:100E10008827881F9091D803292F220F97FB9927A5
:100E200090F96091D903822B0C94210680912003C4
:100E300081110FC081E08093200389E080939100AD
:100E40008FB7F89493E09093990090ED9093980069
:100E50008FBF0895E1E7F0E080818260808308958C
:100E6000E1E7F0E080818D7F808308959091D70342
:100E700090FF3BC09178811102C0926007C0883119
:100E800010F09E6203C08F73880F982B9093D70346
:100E90006091D7037091D8038091D9039091DA03C0
:100EA0000E9494058091D703982F9E77923019F471
:100EB0000E94300707C08695825C8F73863110F4DC
:100EC0000E942A078091D703881F8827881F909146
:100ED000D803292F220F97FB992790F94091DA0325
:100EE0006091D903822B0C942106089580919B0375
:100EF000816080939B0381E0809321030E94A7215E
:100F0000811104C00E9482210E949A050E949005CE
:100F10006093D7037093D8038093D9039093DA0337
:100F20006E7761F40E949A050E9490056093D70342
:100F30007093D8038093D9039093DA030E94160725
:100F40008091D70380FF04C086958F730C94360779
:100F500008958091D70386958F738F5F883108F04D
:100F600081E00C9436078091D703982F909590FBE1
:100F700080F98093D7036091D7037091D803809153
:100F8000D9039091DA030E9494058091D70380FFE2
:100F900004C086958F730C9436070E9430072FEF9C
:100FA00080E792E0215080409040E1F700C00000CF
:100FB0000C94B205CF93C82F80911E0390911F030C
:100FC0000E94091EEC2FF0E0E854FE4FE491F0E09F
:100FD0008E179F0718F10E94FD1D90931F038093A9
:100FE0001E03E0911D03F0E0E454FE4F4491809114
:100FF000D703881F8827881F9091D803292F220F95
:1010000097FB992790F96091D903822B0E94D8050C
:1010100080911D0390E0019680931D03CF91089568
:10102000CF93C82F80911B0390911C030E94091E2F
:10103000EC2FF0E0EB54FE4FE491F0E08E179F07A9
:10104000E8F00E94FD1D90931C0380931B034091C8
:10105000DA036091D9038091190390911A030E94D9
:10106000D8058091190390911A03019668E671E002
:101070000E94002D90931A0380931903CF91089535
:10108000CF92DF92FF920F931F93CF93DF93F82EAF
:1010900080911703909118030E94091EEF2DE69589
:1010A000F0E0EB54FE4FE491F0E08E179F07F0F173
:1010B0000E94FD1D90931803809317030FED13E01A
:1010C000C0E0D0E088E6C82EDD24D39480911503DB
:1010D000909116038C0F9D1FB6010E94002D980160
:1010E0004091DA036091D9030E94C80466960D5FAF
:1010F0001F4FC03681E0D80749F70E94B205209102
:10110000150330911603F0FE0BC0C901069668E680
:1011100071E00E94002D909316038093150306C082
:10112000215031093093160320931503DF91CF919D
:101130001F910F91FF90DF90CF9008958F929F9213
:10114000AF92BF92CF92DF92EF92FF920F931F93D5
:10115000CF93DF93C82F80FF03C0DD24DA9402C051
:10116000DD24D39480911303909114030E94091EEF
:10117000C695EC2FF0E0EE54FE4FE491F0E08E17B0
:101180009F0708F466C00E94FD1D9093140380938E
:1011900013039FEDE92E93E0F92E01EE13E0C0E07A
:1011A000D0E027E0822E912CF80131971082F701D0
:1011B0001082F801108287E0A82EB12CC12C8091FA
:1011C00012038C0D87FD805F082E000C990BC81749
:1011D000D907E9F42091DA032A9DC0012B9D900DD7
:1011E0001124B4010E94142D462F8091D703881F2B
:1011F0008827881F9091D803592F550F97FB99275F
:1012000090F997016091D903852B0E94C804CD0CF9
:10121000F1E0AF1AB10899F6219683E0E80EF11CCF
:101220000D5F1F4FC031D10509F0BECF0E94B2053E
:101230008091120391E0D91206C0811102C08DE0A5
:1012400006C0815004C090E001968F70992780936A
:101250001203DF91CF911F910F91FF90EF90DF90DC
:10126000CF90BF90AF909F908F9008959F92AF9234
:10127000BF92CF92DF92EF92FF920F931F93CF9383
:10128000DF93CDB7DEB7E0970FB6F894DEBF0FBEA1
:10129000CDBF182F80911003909111030E94091E59
:1012A000E12FF0E0E155FE4FE491F0E08E179F074B
:1012B00008F493C00E94FD1D9093110380931003C6
:1012C000CE0101967C015E0193E0A90EB11CC12CF8
:1012D000D12C8701F50131971082F7011082F501B9
:1012E0001082912C9091010180910F03999E800DA5
:1012F000112487FD04C080311CF08FE001C080E024
:10130000082E000C990BC816D906A1F48091D703BA
:10131000881F8827881F9091D803592F550F97FB56
:10132000992790F997014091DA036091D903852BB1
:101330000E94C8049394F7E09F12D4CF8FEFC81A8D
:10134000D80A93E0E90EF11CE3E0AE0EB11CF0E127
:10135000CF16D10409F0BECFA1EEB3E08BE090E050
:10136000FC01EF70FF279D0121503109AF01440FAF
:10137000551FE40FF51FBF01600F711FFB01418175
:10138000F901408321503109FB014081F90140837B
:10139000FB0122812C93019613968B31910501F765
:1013A0000E94B2059091010180910F03913049F4A0
:1013B0008A3F2CF489EF80930F038FEF08C0815090
:1013C0000AC087313CF086E180930F0381E080936F
:1013D000010103C08F5F80930F03E0960FB6F8946E
:1013E000DEBF0FBECDBFDF91CF911F910F91FF9058
:1013F000EF90DF90CF90BF90AF909F9008951F9295
:101400000F920FB60F9211242F933F934F935F9338
:101410006F937F938F939F93AF93BF93EF93FF93BC
:101420008091D70386958F739EE3980F9F739430B6
:1014300020F482500E94DA0723C09AE3980F9F732A
:10144000933020F486500E9410081AC097E3980F3A
:101450009F73963020F489500E94400811C091E398
:10146000980F9F73963020F48F500E949E0808C0FA
:101470009BE2980F9F73933018F485510E943609B0
:10148000FF91EF91BF91AF919F918F917F916F915C
:101490005F914F913F912F910F900FBE0F901F9032
:1014A0001895809132030895CF93DF9300D01F9257
:1014B000CDB7DEB79C0180911204843019F593E01A
:1014C00099833B832A839093E9008FEF9091E80002
:1014D000815095FD06C095ED9A95F1F700008111B8
:1014E000F5CF8091E80085FF0DC040E050E063E05B
:1014F00070E0CE0101960E94BF0C8091E8008E77CB
:101500008093E8000F900F900F90DF91CF91089596
:10151000CF93DF9300D01F92CDB7DEB72091120496
:10152000243021F522E029839B838A8383E0809302
:10153000E9008FEF9091E800815095FD06C095ED90
:101540009A95F1F700008111F5CF8091E80085FFB1
:101550000DC040E050E063E070E0CE0101960E94D3
:10156000BF0C8091E8008E778093E8000F900F9079
:101570000F90DF91CF910895209112042430F1F45F
:1015800022E02093E9002FEF3091E800215035FD53
:1015900006C035ED3A95F1F700002111F5CF209105
:1015A000E80025FF0BC040E050E065E070E00E94DD
:1015B000BF0C8091E8008E778093E8000895CF9368
:1015C000DF93EC0190911204943009F046C08091B1
:1015D0000C018823D9F080910D018823B9F09093F4
:1015E000E9008FEF9091E800815095FD06C095E1EC
:1015F0009A95F1F700008111F5CF8091E80085FF01
:101600002CC040E050E060E170E017C081E08093C2
:10161000E9008FEF9091E800815095FD06C095EDAF
:101620009A95F1F700008111F5CF8091E80085FFD0
:1016300014C040E050E068E070E0CE010E94BF0CB2
:101640008091E8008E778093E80080E1FE01A2E2BD
:10165000B3E001900D928A95E1F7DF91CF91089563
:1016600080911104811109C00E94D20D0E942D0E9B
:101670008091E20084608093E2000895109211044A
:101680000895089542E061EC81E00E946D0D42E012
:1016900061EC82E00E946D0D42E061EC83E00E940B
:1016A0006D0D42E161EC84E00C946D0D80911404A9
:1016B000833009F455C030F4813071F0823009F480
:1016C0008EC008958A3009F47AC08B3009F460C066
:1016D000893009F09CC020C080911304813A09F040
:1016E00096C08091E800877F8093E800809117047E
:1016F00090911804892B21F460E182E293E003C009
:1017000060E080E090E070E00E940A0D8091E800C7
:101710008B778093E800089580911304813209F05B
:1017200076C08091170490911804009719F00397E0
:1017300009F06DC08091E800877F8093E800809178
:10174000E80082FD05C0809112048111F8CF5FC0CE
:101750008091F100809332038091E8008B7753C031
:1017600080911304813A09F052C08091170490913E
:101770001804892B09F04BC08091E800877F809383
:10178000E8008091E80080FFFCCF80910C0136C01A
:10179000809113048132D9F5809117049091180437
:1017A000892BA9F58091E800877F8093E8000E944B
:1017B000810D8091150480930C010C9498168091F2
:1017C0001304813221F58091E800877F8093E8003F
:1017D0000E94810D809116048093330308958091B7
:1017E0001304813AA1F48091E800877F8093E80098
:1017F0008091E80080FFFCCF809133038093F1005B
:101800008091E8008E778093E8000C94810D089514
:101810000895089508950C940A0C0E94851D8091E6
:101820001004882329F00E94B21D81110C94A90C88
:10183000089584B7877F84BF0FB6F894A8958091E8
:101840006000886180936000109260000FBE90E09D
:1018500080E80FB6F89480936100909361000FBE0A
:101860000E94080C0E94CC100E94D20D0E942D0EE6
:101870008091E20084608093E20078948091120469
:101880008430E1F70E94CE1082E091E00E9478104F
:101890000E94090C80911204853019F40E940D0CED
:1018A000F9CF0E94DE10F6CF0C94C71D0C94540C97
:1018B000292F332723303105C1F05CF42130310565
:1018C00079F022303105E9F58DE690E025E731E049
:1018D0003CC021323105C1F02232310511F131C055
:1018E00082E190E022EE31E030C09927833091050B
:1018F00040F5FC01EE0FFF1FE35DFE4F20813181BB
:10190000FC01E65DFE4F1AC06430D8F4E62FF0E02B
:10191000EE0FFF1FEE5DFE4F2081318189E090E0E8
:1019200014C0643070F470E0FB01EE0FFF1FE65E40
:10193000FE4F20813181FB01EA5EFE4F808190E005
:1019400004C080E090E020E030E0FA0131832083A1
:10195000089580E189BD82E189BD09B400FEFDCF13
:101960008091D8008F7D8093D8008091E0008260C4
:101970008093E0008091E00081FDFCCF0895CF923C
:10198000DF92EF92FF920F931F93CF93DF93EC01BF
:101990008B016A010E94A00D811133C0C114D104D2
:1019A00039F0F60180819181081B190BC80FD91FEE
:1019B000E12CF12C0115110519F18091E80085FD4C
:1019C00016C08091E8008E778093E800C114D1049E
:1019D00049F0F60180819181E80EF91EF182E082E2
:1019E00085E00FC00E94A00D882321F30AC08991D1
:1019F0008093F10001501109FFEFEF1AFF0ADACFCF
:101A000080E0DF91CF911F910F91FF90EF90DF90D9
:101A1000CF9008952091190430911A0426173707A2
:101A200048F06115710539F42091E8002E77209374
:101A3000E80001C0B90140E061157105A9F12091EC
:101A40001204222309F443C0253009F442C0209136
:101A5000E80023FD40C02091E80022FD32C0209123
:101A6000E80020FFE9CF4091F3002091F20030E040
:101A7000342BFC01CF016115710559F02830310577
:101A800040F481918093F100615071092F5F3F4FC5
:101A9000F1CF41E02830310509F040E02091E80025
:101AA0002E772093E800C8CF4111C9CF0AC080919A
:101AB0001204882361F0853061F08091E80083FD95
:101AC0000AC08091E80082FFF2CF80E0089582E0B2
:101AD000089583E0089581E008958F708093E90070
:101AE000EBEEF0E0808181608083EDEEF0E010822B
:101AF0006093EC0040838091EE00881F8827881F48
:101B000008958091130487FF11C08091E80082FD41
:101B100005C0809112048111F8CF11C08091E800B6
:101B20008B770BC080911204882349F08091E800E4
:101B300080FFF8CF8091E8008E778093E8000895C9
:101B40002091E4003091E50095E64091EC00842F6F
:101B5000817040FF22C08091E80080FD1CC0809110
:101B60001204882391F0853091F08091EB0085FD7F
:101B700010C04091E4005091E5004217530729F34B
:101B80009A01915011F784E0089582E0089583E06E
:101B9000089581E0089580E008954091E80042FFB3
:101BA000DECF08950E943E0E0E94460EE0EEF0E069
:101BB000808181608083E8EDF0E080818F77808391
:101BC00019BCA7EDB0E08C918E7F8C9380818F7EC5
:101BD00080831092110408950F931F93CF93DF9386
:101BE0000E943E0E0E94460EC8EDD0E088818F779D
:101BF000888388818068888388818F7D888319BCE9
:101C00001092120410920F041092100400EE10E0D3
:101C1000F80180818B7F808388818160888342E0A6
:101C200060E080E00E946D0DE1EEF0E080818E7F4B
:101C30008083E2EEF0E08081816080838081886033
:101C40008083F80180818E7F808388818061888392
:101C5000DF91CF911F910F910895E8EDF0E0808121
:101C60008F7E8083E7EDF0E080818160808384E077
:101C700082BF81E0809311040C94EC0DE8EDF0E05C
:101C800080818E7F80831092E20008951092DA00A6
:101C90001092E10008951F920F920FB60F92112437
:101CA0002F933F934F935F936F937F938F939F9364
:101CB000AF93BF93EF93FF938091E10082FF0BC03E
:101CC0008091E20082FF07C08091E1008B7F8093CA
:101CD000E1000E9477108091DA0080FF1FC08091A0
:101CE000D80080FF1BC08091DA008E7F8093DA00DD
:101CF0008091D90080FF0DC080E189BD82E189BD5E
:101D000009B400FEFDCF81E0809312040E94300BE5
:101D100005C019BC109212040E943E0B8091E10094
:101D200080FF19C08091E20080FF15C08091E20021
:101D30008E7F8093E2008091E20080618093E200D8
:101D40008091D80080628093D80019BC85E0809390
:101D500012040E940B0C8091E10084FF30C080913E
:101D6000E20084FF2CC080E189BD82E189BD09B415
:101D700000FEFDCF8091D8008F7D8093D8008091A8
:101D8000E1008F7E8093E1008091E2008F7E80935E
:101D9000E2008091E20081608093E20080910F0474
:101DA000882311F084E007C08091E30087FD02C022
:101DB00081E001C083E0809312040E94560C809160
:101DC000E10083FF29C08091E20083FF25C080915C
:101DD000E100877F8093E10082E0809312041092FB
:101DE0000F048091E1008E7F8093E1008091E200FA
:101DF0008E7F8093E2008091E20080618093E20018
:101E000042E060E080E00E946D0D8091F00088600B
:101E10008093F0000E94410BFF91EF91BF91AF9131
:101E20009F918F917F916F915F914F913F912F91F2
:101E30000F900FBE0F901F9018951F920F920FB624
:101E40000F9211242F933F934F935F936F937F9340
:101E50008F939F93AF93BF93CF93DF93EF93FF93B2
:101E6000C091E900CF708091EC00D82FD17080FD37
:101E7000D0E81092E9008091F000877F8093F00015
:101E800078940E94610F1092E9008091F0008860C0
:101E90008093F000CD2BCF70C093E900FF91EF91BC
:101EA000DF91CF91BF91AF919F918F917F916F9172
:101EB0005F914F913F912F910F900FBE0F901F9008
:101EC00018951F93CF93DF9300D0CDB7DEB7E3E132
:101ED000F4E088E08E0F9091F10091938E13FBCF88
:101EE0000E94560B8091E80083FFEDC0809113049F
:101EF00090911404492F50E04A30510508F0E3C096
:101F0000FA01E25AFF4F0C94282D803881F0823874
:101F100009F0D9C0809117048F708093E9008091F7
:101F2000EB0085FB882780F91092E90007C08091BB
:101F30001004882311F082E001C080E09091E80055
:101F4000977F9093E8008093F1001092F10095C084
:101F5000282F2D7F09F0B7C0882319F0823061F057
:101F6000B2C080911504813009F0ADC0933009F002
:101F700080E0809310042BC080911504811127C04C
:101F8000809117048F7009F49EC08093E90020911E
:101F9000EB0020FF1CC0933021F48091EB008062A5
:101FA00014C09091EB0090619093EB0021E030E041
:101FB000A90102C0440F551F8A95E2F74093EA0039
:101FC0001092EA008091EB0088608093EB00109201
:101FD000E9008091E800877F53C0811174C010919F
:101FE00015041F778091E3008078812B8093E300B4
:101FF0008091E800877F8093E8000E94810D8091A6
:10200000E80080FFFCCF8091E30080688093E300CC
:10201000111102C082E001C083E08093120453C01A
:102020008058823008F04FC0AE014F5F5F4F609123
:10203000170480911504909116040E94580CBC015D
:10204000892B09F440C09091E800977F9093E800B5
:1020500089819A810E940A0D8091E8008B77809394
:10206000E80031C0803879F58091E800877F80935F
:10207000E80080910F048093F1008091E8008E7752
:102080008093E8000E94810D1EC081111CC09091B8
:1020900015049230C0F48091E800877F8093E800B7
:1020A00090930F040E94810D80910F04811106C04E
:1020B0008091E30087FD02C081E001C084E080934D
:1020C00012040E94420B8091E80083FF0AC08091B5
:1020D000E800877F8093E8008091EB008062809326
:1020E000EB000F900F90DF91CF911F91089508950D
:1020F00090933903809338030895E0913803F09169
:102100003903309721F00190F081E02D099480E0AF
:102110000895E0913803F0913903309721F002805F
:10212000F381E02D09940895E0913803F09139038B
:10213000309721F00480F581E02D099408952091D5
:102140003603309137038217930771F0909337036A
:1021500080933603E0913803F0913903309721F0F2
:102160000680F781E02D0994089520913403309181
:1021700035038217930771F09093350380933403EE
:10218000E0913803F0913903309721F00084F18514
:10219000E02D0994089508950C94CB100E94F41D2D
:1021A0000E94DB020E9435200E94712A0E94DB28D7
:1021B0000E9422260E94EC270C94C82B4F925F921B
:1021C0007F928F929F92AF92BF92CF92DF92EF92C7
:1021D000FF920F931F93CF93DF9300D000D01F92F5
:1021E000CDB7DEB70E9409039BE3C92E93E0D92E39
:1021F00000E010E0AA24A394B12C702E802F0E943E
:102200000C044C01F601419051906F01482659266B
:1022100041145104B1F40F5F1F4F0530110569F7E8
:102220008FEF89838A831B820E94FD1D8160782F36
:102230009D838C8349815A816B818D810E949B1182
:1022400041C080919B0381FD0E94150420E030E095
:102250007501022E02C0EE0CFF1C0A94E2F7C701C2
:1022600084219521892B41F129837A828E209F2018
:1022700091E0892809F490E09B830E94FD1D816014
:10228000782F9D838C8349815A816B818D810E9437
:102290009B1149815A816B817C818D810E94751DC2
:1022A000000F111FF801E55CFC4F80819181E82649
:1022B000F926F182E08206C02F5F3F4F2E303105B4
:1022C00039F6A9CF0E94741D0E94502310913A0341
:1022D0000E947D101817D1F00E947D1080933A0360
:1022E0000F900F900F900F900F90DF91CF911F9153
:1022F0000F91FF90EF90DF90CF90BF90AF909F90A5
:102300008F907F905F904F900C943D290F900F908D
:102310000F900F900F90DF91CF911F910F91FF9031
:10232000EF90DF90CF90BF90AF909F908F907F9075
:102330005F904F900895CF93DF93CDB7DEB72B9783
:102340000FB6F894DEBF0FBECDBF942F4F83252F5D
:10235000588769877A878B874A855B85452B21F06B
:102360002F3F09F59F3FF9F4DE01119686E0FD014C
:1023700011928A95E9F785E0FE01379601900D925A
:102380008A95E1F749815A816B817C818D819E819B
:102390000E9432192B960FB6F894DEBF0FBECDBF48
:1023A000DF91CF9108954F81588569857A858B8516
:1023B0000E94751DD9CFCF93882309F4CDC0C82FB3
:1023C000823859F40E947D1081FDC6C089E30E94C5
:1023D000BD1B0E944E1D89E30CC0833879F40E9416
:1023E0007D1080FDB9C083E50E94BD1B0E944E1D7B
:1023F00083E50E94821CCF910C944E1D843859F4C1
:102400000E947D1082FDA8C087E40E94BD1B0E942F
:102410004E1D87E4EECF8CEF8C0F813A48F48C2F61
:102420000E948A25811198C08C2F0E94BD1BE3CF8A
:1024300080E28C0F883048F4C77081E001C0880FBB
:10244000CA95EAF70E941D1DD6CF8BE58C0F83300D
:1024500078F4C53A29F0C63A31F083E890E005C037
:1024600081E890E002C082E890E0CF910C949F1048
:1024700088E58C0F853108F06FC0C83A61F1C93A20
:1024800069F1CA3A71F1CB3A79F1CC3A81F1CD3A9E
:1024900089F1CE3A91F1CF3A99F1C13BA1F1C03B1C
:1024A000A9F1C23BB1F1C33BB9F1C43BC1F1C53B9A
:1024B000C9F1C63BD1F1C73BD9F1C83BE1F1C93BFA
:1024C000E9F1CA3BF1F1CB3BF9F1CC3B09F43FC058
:1024D00080E090E03EC082EE90E03BC089EE90E06C
:1024E00038C08AEE90E035C085EB90E032C086EBD4
:1024F00090E02FC083EB90E02CC084EB90E029C0EB
:1025000087EB90E026C08CEC90E023C08DEC90E04F
:1025100020C083E891E01DC08AE891E01AC082E9FA
:1025200091E017C084E991E014C081E292E011C00B
:1025300083E292E00EC084E292E00BC085E292E07A
:1025400008C086E292E005C087E292E002C08AE21B
:1025500092E0CF910C94B510CF910895882309F49F
:102560004BC0823859F40E947D1081FF45C089E339
:102570000E94BD1B0E944E1D89E30CC0833871F47C
:102580000E947D1080FF38C083E50E94BD1B0E9421
:102590004E1D83E50E94821C0C944E1D843859F414
:1025A0000E947D1082FF28C087E40E94BD1B0E940C
:1025B0004E1D87E4EFCF9CEF980F913A58F390E2CD
:1025C000980F983050F4877091E001C0990F8A9568
:1025D000EAF7892F0E94231DDFCF9BE5980F9330E8
:1025E00020F480E090E00C949F10885A853120F40C
:1025F00080E090E00C94B5100895882321F00E94AB
:102600001D1D0C944E1D0895882321F00E94231D4A
:102610000C944E1D0895CF92DF92EF92FF920F938C
:102620001F93CF93DF93CDB7DEB727970FB6F894FC
:10263000DEBF0FBECDBF25E0FC01DE01119601908B
:102640000D922A95E1F7FC014081318102812581BB
:1026500022952F7063817481672B09F448C33F3F33
:1026600019F44F3F09F443C36C0149833A838981CC
:102670009A812F830E947C1B182F9E830E947B1BB4
:102680000E948B1A9E81E92FE295EF70F0E0E859E5
:10269000FF4F2F810C94282D892F807F9F70F92E5A
:1026A000882319F0F29490EFF922002349F0FF20DB
:1026B00009F45FC28F2D0E94301D0E944E1D59C229
:1026C000812F0E94AE12FF2009F411C38F2D0E94AA
:1026D000361D27960FB6F894DEBF0FBECDBFDF9133
:1026E000CF911F910F91FF90EF90DF90CF900C94BE
:1026F0004E1D892F807F9F70F92E803219F0F29441
:1027000080EFF822112319F0113001F129C00023C4
:10271000A9F08F2D222349F1213039F527960FB6E4
:10272000F894DEBF0FBECDBFDF91CF911F910F9107
:10273000FF90EF90DF90CF900C94401D222319F072
:10274000213009F4D4C20E94431D2CC00023E9F0BB
:10275000263008F0CCC20E941A1D8F2129F022C019
:102760000023F1F0211115C08F2D27960FB6F89494
:10277000DEBF0FBECDBFDF91CF911F910F91FF90B4
:10278000EF90DF90CF900C94FD12253008F0AFC28F
:1027900009C0F601858180FFECC18F708583E4CF8D
:1027A0002111FBC18F2D69C1292F269526952370F4
:1027B00030E02115310521F021303105C1F097C2FB
:1027C000002319F0812F937002C080E090E02796DB
:1027D0000FB6F894DEBF0FBECDBFDF91CF911F9132
:1027E0000F91FF90EF90DF90CF900C949F100023FB
:1027F00019F0812F937002C080E090E027960FB609
:10280000F894DEBF0FBECDBFDF91CF911F910F9126
:10281000FF90EF90DF90CF900C94B510812F0023A4
:1028200019F00E94582202C00E94C02227960FB6BB
:10283000F894DEBF0FBECDBFDF91CF911F910F91F6
:10284000FF90EF90DF90CF900C944523892F8370F9
:1028500009F079C001114BC2812F8295869587704E
:10286000880F880F212F2F70C22ED12CE12CF12C34
:10287000082E04C0CC0CDD1CEE1CFF1C0A94D2F701
:1028800014FF12C04FE050E060E070E004C0440F5D
:10289000551F661F771F8A95D2F78A019B01009505
:1028A00010952095309503C000E010E098019695B2
:1028B00096959370492F50E0C901B80142305105F7
:1028C000D1F04330510559F16C297D298E299F297A
:1028D0004130510541F127960FB6F894DEBF0FBE87
:1028E000CDBFDF91CF911F910F91FF90EF90DF90BF
:1028F000CF900C94A01A6C297D298E299F292796A8
:102900000FB6F894DEBF0FBECDBFDF91CF911F9100
:102910000F91FF90EF90DF90CF900C94B21A0E942D
:10292000A01AC701B60127960FB6F894DEBF0FBEF6
:10293000CDBFDF91CF911F910F91FF90EF90DF906E
:10294000CF900C948E1A002319F0892F817001C04A
:102950008695882309F4CBC1812F8295869587704F
:10296000880F880F212F2F70C22ED12CE12CF12C33
:10297000082E04C0CC0CDD1CEE1CFF1C0A94D2F700
:1029800014FF12C04FE050E060E070E004C0440F5C
:10299000551F661F771F8A95D2F78A019B01009504
:1029A00010952095309503C000E010E098019695B1
:1029B00096959370492F50E0C901B80142305105F6
:1029C000D1F04330510559F16C297D298E299F2979
:1029D0004130510541F127960FB6F894DEBF0FBE86
:1029E000CDBFDF91CF911F910F91FF90EF90DF90BE
:1029F000CF900C94571B6C297D298E299F292796EF
:102A00000FB6F894DEBF0FBECDBFDF91CF911F91FF
:102A10000F91FF90EF90DF90CF900C94691B0E9474
:102A2000571BC701B60127960FB6F894DEBF0FBE3D
:102A3000CDBFDF91CF911F910F91FF90EF90DF906D
:102A4000CF900C94451B103F41F118F4103E48F410
:102A50008BC0123F09F450C0D8F1133F09F460C095
:102A600083C01F70892F8F71002321F00E94DE1A0E
:102A7000812F7BCE0E94FF1A812F27960FB6F894E4
:102A8000DEBF0FBECDBFDF91CF911F910F91FF90A1
:102A9000EF90DF90CF900C9404130023A9F0253021
:102AA00008F025C1892F8F7127960FB6F894DEBFE5
:102AB0000FBECDBFDF91CF911F910F91FF90EF908F
:102AC000DF90CF900C94241B263008F010C1EACF81
:102AD0000023A1F0892F8F7127960FB6F894DEBFDF
:102AE0000FBECDBFDF91CF911F910F91FF90EF905F
:102AF000DF90CF900C94DE1A002361F3892F8F7141
:102B000027960FB6F894DEBF0FBECDBFDF91CF91F1
:102B10001F910F91FF90EF90DF90CF900C94FF1AD0
:102B2000002391F0892F8F7127960FB6F894DEBF9E
:102B30000FBECDBFDF91CF911F910F91FF90EF900E
:102B4000DF90CF900C94C91A27960FB6F894DEBF89
:102B50000FBECDBFDF91CF911F910F91FF90EF90EE
:102B6000DF90CF900C94C41A0023A1F0222309F423
:102B7000B1CF812F27960FB6F894DEBF0FBECDBF21
:102B8000DF91CF911F910F91FF90EF90DF90CF9049
:102B90000C94DB11222309F4B1CF812F27960FB6B5
:102BA000F894DEBF0FBECDBFDF91CF911F910F9183
:102BB000FF90EF90DF90CF900C94AE12492F4F70A2
:102BC000612FC6010E94B60227960FB6F894DEBFA9
:102BD0000FBECDBFDF91CF911F910F91FF90EF906E
:102BE000DF90CF900C94D619011181C0112341F0D0
:102BF000892F8F70843021F0907F212F2F70922B9E
:102C00009F70892F90E082309105E9F1ACF4009734
:102C100051F1019709F06BC027960FB6F894DEBF0B
:102C20000FBECDBFDF91CF911F910F91FF90EF901D
:102C3000DF90CF900C94142883309105A1F1049774
:102C400009F055C0812F27960FB6F894DEBF0FBE4E
:102C5000CDBFDF91CF911F910F91FF90EF90DF904B
:102C6000CF900C94722827960FB6F894DEBF0FBE53
:102C7000CDBFDF91CF911F910F91FF90EF90DF902B
:102C8000CF900C94FD2727960FB6F894DEBF0FBEA9
:102C9000CDBFDF91CF911F910F91FF90EF90DF900B
:102CA000CF900C94302827960FB6F894DEBF0FBE55
:102CB000CDBFDF91CF911F910F91FF90EF90DF90EB
:102CC000CF900C944F28492F4F70612FC601279643
:102CD0000FB6F894DEBF0FBECDBFDF91CF911F912D
:102CE0000F91FF90EF90DF90CF900C946D0227969C
:102CF0000FB6F894DEBF0FBECDBFDF91CF911F910D
:102D00000F91FF90EF90DF90CF9008950E943D1DAE
:102D10000E940C1D0E944E1D0E94F5230E94452317
:102D200080E090E00E949F1080E090E00C94B5104D
:102D30000E942D1D0C9486160E947C1B292F229523
:102D40002F7030E02C3031054CF42A3031056CF412
:102D5000225031092230310588F407C02C3031056A
:102D600049F02F30310531F009C0803E48F0803FF6
:102D700029F406C093FB882780F9089580E0089520
:102D800081E00895CF93DF9300D000D01F92CDB79C
:102D9000DEB70F900F900F900F900F90DF91CF91B3
:102DA0000895CF93DF9300D000D000D0CDB7DEB729
:102DB00026960FB6F894DEBF0FBECDBFDF91CF9140
:102DC00008951F93CF93DF93C091450316E0809140
:102DD0004603C81799F0D0E01C9FF0011D9FF00D2D
:102DE0001124E95BFC4F40815181628173818481B0
:102DF00095810E94D1162196C770E9CFDF91CF91BE
:102E00001F91089540917703509178036091790361
:102E100070917A0380917B0390917C030C94D1167E
:102E200080917C0382958F7009F054C08091790362
:102E3000882309F44FC080914503A0914603609117
:102E400077037091780340917A0350917B03B6E049
:102E50008A1709F43FC090E041155105C1F17F3F49
:102E600011F46F3FA1F1B89FF001B99FF00D11244B
:102E7000E95BFC4F218172132AC02081621327C0B5
:102E80002281211124C0238134812417350710F4B5
:102E900021503109241B350B283C3105C0F4209109
:102EA0007C032F70206120937C0326E0289FF00193
:102EB000299FF00D1124E45BFC4F80818F708061AD
:102EC000808387E793E00E940B130C94E116019630
:102ED0008770BECF0895CF92DF92EF92FF920F934B
:102EE0001F93CF93DF93CDB7DEB762970FB6F894F9
:102EF000DEBF0FBECDBF8C0185E0F801DE011D965F
:102F000001900D928A95E1F7D8014C9111965C9150
:102F1000119712966C9112971396CD90DC9014979E
:102F2000309177037091780380917A0390917B03BD
:102F3000009709F46BC17F3F19F43F3F09F466C164
:102F4000E0907903EE2009F4C0C020917C03C816FC
:102F5000D90628F0F601E81BF90BCF0104C08095D3
:102F600090958C0D9D1DFF24F394883C910578F07D
:102F7000F12C207F09F0C6C07C2DD98AC88A8989A6
:102F80000E94C21687E793E00E940B13B1C0822F04
:102F9000807F09F046C0751314C0341312C061114C
:102FA00010C02F70206120937C030E94021787E7D6
:102FB00093E00E940B1380917C03D80115968C93AB
:102FC0002EC0CD2819F15F3F11F44F3FF9F0F62ED6
:102FD00061111CC0809145032091460336E08217A1
:102FE00009F45AC090E0389FF001399FF00D112488
:102FF000E95BFC4F7181571306C07081471303C012
:103000007281711103C001968770E9CFF62E662395
:1030100009F418C180917C03816080937C03F12CBA
:1030200011C1751308C0341306C0611104C080912A
:103030007C03D801C3C04D875E878D859E856A8BD2
:103040000E949C166A898823E1F16623D1F12091C0
:103050007C03822F82958F7090E0029774F08091AC
:1030600077039091780398878F831986DB86CA86C9
:103070002C87CE0107960E940B1386E0F801A7E784
:10308000B3E001900D928A95E1F70E9410170E941B
:103090000217FF24F394D6C04D875E878D859E85E9
:1030A0000E947C1B292F22952F7030E022303105A1
:1030B0000CF0BCC09F7009F0B6C0805E883008F488
:1030C000C1C0C8010E940B13E4CFC816D90608F48A
:1030D00053C0F601E81BF90BCF01883C910508F4B9
:1030E00050C0F12C7C2DD98AC88A89890E94C216C9
:1030F000E7E7F3E086E0DF011D928A95E9F70E9499
:103100000217A0C0751314C0341312C0611110C08F
:1031100080917C03F8018583C8010E940B1386E02F
:10312000E7E7F3E0DF011D928A95E9F7FE2C8AC0FC
:103130004D875E878D859E856A8B0E949C166A8965
:10314000882309F4BECF662309F4BBCF20917C030A
:10315000822F82958F7090E002970CF48ECF809131
:103160007703909178039A8389831B82DD82CC82D6
:103170002E83CE0101967FCF809590958C0D9D1D5D
:10318000ACCFF62E662309F49CCF75132EC03413F2
:103190002CC020917C0320FD1FC0822F82958F7050
:1031A000D9F0D80115962C9315978F3049F08F5F81
:1031B000982F9295907F822F8F70892B15968C93E4
:1031C000C8010E940B1386E0F801A7E7B3E0019065
:1031D0000D928A95E1F793CF86E0F801A7E7B3E077
:1031E00001900D928A95E1F72DC04D875E878D8500
:1031F0009E850E949C16811140CF80917C03816046
:1032000080937C03C8010E940B131CC0662309F441
:1032100058CF4D875E878D859E850E949C1688239A
:1032200009F44FCF2ACF811148CF0CC0243031058B
:103230000CF047CF9F7009F440CFF8019581907F43
:1032400009F03BCF8F2D62960FB6F894DEBF0FBE0C
:10325000CDBFDF91CF911F910F91FF90EF90DF9045
:10326000CF9008951F93CF93DF93CDB7DEB72C9700
:103270000FB6F894DEBF0FBECDBF4F835887698766
:103280007A878B879C87CE0107960E946B178823CD
:1032900069F08F8198852A853B85232BF1F19F3F2B
:1032A00009F063C08F3F09F060C037C086E0FE01BF
:1032B0003796DE01119601900D928A95E1F76F81A4
:1032C0007885EA85FB85309741F17F3F11F46F3FA8
:1032D00021F12091460330E0C901019687709927BA
:1032E0004091450350E08417950709F447C069836E
:1032F0007A83FD83EC8396E0929FD001939FB00D7B
:103300001124A95BBC4FFE01319601900D929A9554
:10331000E1F7809346030E94E11616E08091450391
:10332000909146038917C1F1189FC0011124895B50
:103330009C4F0E946B17882379F1E09145031E9FF3
:10334000F0011124E95BFC4F40815181628173815E
:10335000848195810E94D1168091450390E0019669
:103360008770992780934503D9CF4F815885698508
:103370007A858B859C850E94D116CFCF0E949816A6
:103380001092460310924503E7E7F3E086E0DF0181
:103390001D928A95E9F7C1CF2C960FB6F894DEBF3F
:1033A0000FBECDBFDF91CF911F910895DF92EF92B5
:1033B000FF920F931F93CF93DF93FC01892B09F4A6
:1033C0008AC0E12CF12CDD24D394EF012196849165
:1033D000853709F461C058F4843708F04EC0843052
:1033E00008F06AC08130D1F0823071F174C0883742
:1033F00009F45DC050F4863709F455C0873709F0E9
:103400006AC08E2D0E942A1D54C09CE7980F9037E9
:1034100008F061C08F770E94AE1250C08F010E5F1E
:103420001F4FFE01849190E2980F983050F48770FE
:10343000FD2D01C0FF0F8A95EAF78F2F0E94301DE6
:1034400014C00E94DB1113C08F010E5F1F4FFE01DD
:10345000C49180E28C0F883060F4C7708D2D01C05C
:10346000880FCA95EAF70E94361D0E944E1DE8019A
:1034700025C08C2F0E94AE12FACF9F012E5F3F4FC6
:10348000FE01C491CC2369F08FE99FE00197F1F729
:1034900000C00000C150F6CF9F012E5F3F4FFE01DC
:1034A000F490E9010BC00E941A1DE82E07C00E948B
:1034B0002D1D0E944E1D02C00E94DB118F2D8823FE
:1034C00041F0EFE9FFE03197F1F700C000008150D3
:1034D000F6CFFE017ACFDF91CF911F910F91FF9030
:1034E000EF90DF900895609381037093820380933F
:1034F0008303909384030E9493290C94861660930F
:103500007D0370937E0380937F03909380030E94DA
:10351000F2290C94861608950C94731A0F931F9336
:1035200000918103109182032091830330918403E1
:10353000602B712B822B932B1F910F910C94731A7C
:103540000F931F93009181031091820320918303B5
:103550003091840360237123822393231F910F9161
:103560000C94731A0F931F9300918103109182039F
:10357000209183033091840360277127822793274A
:103580001F910F910C94731A60E070E0CB010C94C2
:103590007F1A0F931F9341E050E060E070E08A01D2
:1035A0009B0104C0000F111F221F331F8A95D2F701
:1035B000C901B8011F910F910C947F1A0F931F93AB
:1035C00041E050E060E070E004C0440F551F661F0A
:1035D000771F8A95D2F780917D0390917E03A09109
:1035E0007F03B09180038A019B01082B192B2A2BA2
:1035F0003B2BC901B8011F910F910C947F1A0F93B7
:103600001F9341E050E060E070E004C0440F551F9C
:10361000661F771F8A95D2F74095509560957095F3
:1036200080917D0390917E03A0917F03B0918003F0
:103630008A019B01082319232A233B23C901B801CE
:103640001F910F910C947F1A0F931F9341E050E04C
:1036500060E070E004C0440F551F661F771F8A9515
:10366000D2F780917D0390917E03A0917F03B0916A
:1036700080038A019B01082719272A273B27C901B4
:10368000B8011F910F910C947F1A0F931F93009113
:103690007D0310917E0320917F0330918003602B86
:1036A000712B822B932B1F910F910C947F1A0F93E8
:1036B0001F9300917D0310917E0320917F03309131
:1036C000800360237123822393231F910F910C9415
:1036D0007F1A0F931F9300917D0310917E03209119
:1036E0007F033091800360277127822793271F91E2
:1036F0000F910C947F1A0895CF92DF92EF92FF9270
:103700000F931F93CF93DF938C01C0908103D090D0
:103710008203E0908303F090840340917D035091F5
:103720007E0360917F0370918003C42AD52AE62A24
:10373000F72ACFE1D0E0D701C6010C2E04C0B69520
:10374000A795979587950A94D2F780FF07C0B8018F
:103750008C2F0E94681F8130910531F4219758F712
:10376000B80180E00E94681FDF91CF911F910F91F7
:10377000FF90EF90DF90CF900895CF92DF92EF927D
:10378000FF920F931F93CF93DF93C82F80910C016B
:103790008823E1F080910D018823C1F08C2F86955C
:1037A000869586958F3008F0A4C0E0910E01F091C7
:1037B0000F01E80FF11DC77081E090E001C0880F94
:1037C000CA95EAF79181892B818393C0D0909803A1
:1037D00030919603E0910E01F0910F01332309F42B
:1037E00073C0409197038D2D2FEF96E0E92EF12CB9
:1037F000082F082E000C110BBF01600F711FDB0199
:1038000012969C919C1709F474C02F3F19F49111E2
:1038100001C0282FC801019606E010E0B7010E9400
:10382000142D8413E5CFD22F4D114EC02F3F69F4D4
:10383000842F440F990B0196B8010E94142D809398
:1038400098033150309396033FC0822F220F990B7B
:103850000196B8010E94142D282FFF24F39406E04E
:1038600010E0022E000C330B6F01C20ED31ED601E6
:1038700012965C91552391F08D2FDD0F990BBF01AE
:10388000680F791FDB0112965C93D60112961C9289
:103890000196B8010E94142DD82F01C0F394C901DC
:1038A0000196B8010E94142D282F8413DACF242FFB
:1038B000440F330B2F193109C901069666E070E0F9
:1038C0000E94142D8093970320919703022E000CE1
:1038D000330BE20FF31FC283C901019666E070E06B
:1038E0000E94142D80939703809196038F5F80939D
:1038F0009603DF91CF911F910F91FF90EF90DF9092
:10390000CF900895EF92FF920F931F93CF93C82FFC
:1039100080910C018823E9F080910D018823C9F082
:103920008C2F8695869586958F3008F06FC0E09134
:103930000E01F0910F01E80FF11DC77081E090E0DA
:1039400001C0880FCA95EAF7809591818923818308
:103950005DC02091980340919603442309F456C01A
:10396000E0910E01F0910F0100919703002E000CE1
:10397000110B86E0E82EF12C30E0DF01A20FB31F1F
:10398000CD01029612965C915C1336C0DC011C924C
:10399000415040939603411104C010929803109235
:1039A000970340919703842F042E000C990B0596E2
:1039B00066E070E00E94142D2817390739F5C09190
:1039C000980306E010E0842F440F990B0596B80188
:1039D0000E94142D9C01482F0596B8010E94142DB9
:1039E000DF01A80FB91F12968C91811102C02C1310
:1039F000EACF209397030AC0C9010196B7010E943C
:103A0000142D282F8017910709F0B6CFCF911F9161
:103A10000F91FF90EF90089581E090E0E0910E010A
:103A2000F0910F01E80FF91F108201968031910586
:103A3000A9F7089580919A03089590919A03892B8C
:103A400080939A030895809590919A038923809397
:103A50009A03089580939A03089510929A03089503
:103A600090919903892B8093990308958095909163
:103A700099038923809399030895109299030895D7
:103A800080938503089510928503089580910D0118
:103A9000811103C08091960308950895E0910E016D
:103AA000F0910F0180919A038083E0910E01F091D3
:103AB0000F01908180919903892B808380918503E8
:103AC000882361F0E0910E01F0910F019081892B24
:103AD00080830E94461D81111092850380910E0102
:103AE00090910F010C9489100895CF93DF9300D02B
:103AF00000D01F92CDB7DEB70F900F900F900F90B0
:103B00000F90DF91CF910895089580911204843031
:103B100031F110929C0320E488E190E00FB6F89414
:103B2000A895809360000FBE209360000E943F26FE
:103B300083B7817F846083BF83B7816083BF7894BC
:103B4000889583B78E7F83BF0FB6F894A895809130
:103B50006000886180936000109260000FBE08953D
:103B600008950895CF930E94B01D0E9409030E94FA
:103B7000B11DC0E08C2F0E940C04892B29F4CF5F6B
:103B8000C530C1F780E001C081E0CF9108950E9467
:103B900098160C94EC271F920F920FB60F921124D7
:103BA0008F939F93AF93BF9380919C03811113C018
:103BB00080919D0390919E03A0919F03B091A003DB
:103BC0004196A11DB11D80939D0390939E03A093E8
:103BD0009F03B093A003BF91AF919F918F910F90DE
:103BE0000FBE0F901F90189582E084BD93E095BDA5
:103BF0009AEF97BD80936E0008952FB7F894809147
:103C00009D0390919E03A0919F03B091A0032FBFAD
:103C10000895CF92DF92EF92FF920F931F932FB7E9
:103C2000F89440919D0350919E0360919F03709181
:103C3000A0032FBF6A017B01EE24FF248C0120E04A
:103C400030E0C016D106E206F30610F441505109E7
:103C50009A01281B390BC9011F910F91FF90EF901A
:103C6000DF90CF9008951F920F920FB60F921124FC
:103C70008F939F93AF93BF9380919D0390919E03E9
:103C8000A0919F03B091A0030196A11DB11D809347
:103C90009D0390939E03A0939F03B093A003BF91B5
:103CA000AF919F918F910F900FBE0F901F9018951D
:103CB0000E94D20DF8942FEF87EA91E621508040C0
:103CC0009040E1F700C0000087E090EBDC018093BA
:103CD0001D0490931E04A0931F04B09320049CE045
:103CE00088E10FB6F894A895809360000FBE90937A
:103CF0006000FFCF811103C080E090E002C087E741
:103D000097E790930108809300089AE088E10FB646
:103D1000F894A895809360000FBE90936000FFCF49
:103D20008D3B50F4883A08F5853AB0F4843090F42D
:103D3000813009F485C081C0883E30F4803E50F463
:103D40008F3B09F454C079C0803F08F476C090E0FE
:103D50009065089590E00895853A09F474C0863A14
:103D600009F474C083E890E40895883A09F471C0B6
:103D7000893A09F471C08A3A09F471C08B3A09F49E
:103D800071C08C3A09F471C08D3A09F471C08E3A51
:103D900009F471C08F3A09F471C0813B09F471C014
:103DA000803B09F471C0823B09F471C0833B09F484
:103DB00071C0843B09F471C0853B09F471C0863B36
:103DC00009F471C0873B09F471C0883B09F471C0E4
:103DD000893B09F471C08A3B09F471C08B3B09F43B
:103DE00071C08C3B09F471C080E094E408950E9496
:103DF0001A1D80FF0EC00E9498162FEF80E792E0F8
:103E0000215080409040E1F700C000000E94581E01
:103E100012C00E941A1D82FF0EC00E9498162FEF3A
:103E200089E698E1215080409040E1F700C0000011
:103E300081E00E947A1E0E94981680E090E008952A
:103E400081E090E0089581E890E4089582E890E4AC
:103E5000089582EE94E4089589EE94E408958AEE3C
:103E600094E4089585EB94E4089586EB94E4089532
:103E700083EB94E4089584EB94E4089587EB94E451
:103E800008958CEC94E408958DEC94E4089583E80F
:103E900095E408958AE895E4089582E995E4089503
:103EA00084E995E4089581E296E4089583E296E436
:103EB000089584E296E4089585E296E4089586E202
:103EC00096E4089587E296E408958AE296E40895D8
:103ED0000E94C202803EA8F4803C00F5813309F4C0
:103EE0005CC038F4893209F452C08A3209F45BC0EC
:103EF0005FC08933B1F08238A1F0853309F441C045
:103F000057C0833E41F128F4803E99F0823EB9F0DB
:103F10004FC0863E31F1873E71F14AC00E94C60211
:103F2000089590911B0490FD02C091FF41C080EE66
:103F30003FC080911B0480FFFACF89E339C0809194
:103F40001B0482FF0CC080911B0484FF02C080E030
:103F50002FC083EE2DC080911B0482FFF4CF82EE30
:103F600027C080911B0483FF0AC080911B0484FD3D
:103F7000EECF87EE1DC080911B0483FFF6CF86EE47
:103F800017C080911B0485FF06C089E211C0809193
:103F90001B0485FFFACF85E30BC080911B0486FFCD
:103FA00006C08AE205C080911B0486FFFACF81E338
:103FB0000E94901E0895AF92BF92CF92DF92EF922F
:103FC000FF920F931F93CF937C01C0E0CC24C39446
:103FD000D12C8C2F0E940C045C0100E010E0C60183
:103FE000002E02C0880F991F0A94E2F78A219B21B4
:103FF000892BB1F0602F7C2F80E00E94681F9C010C
:104000008E159F0559F0832F807E932F907C11F0A1
:10401000803A31F430E02E153F0511F481E009C0FB
:104020000F5F1F4F0E301105D1F6CF5FC53089F6F7
:1040300080E0CF911F910F91FF90EF90DF90CF9094
:10404000BF90AF900895CF93DF93EC018CE290E0A6
:104050000E94DB1F882329F0CE01DF91CF910C94C1
:10406000DB1F80E0DF91CF910895CF930E94A721BD
:10407000811102C00E948221C5E6C15049F00E9410
:1040800009038FE39CE90197F1F700C00000F5CF29
:1040900089E290E00E942320811132C18AE290E0FF
:1040A0000E942320882341F00E94A1210E948221A6
:1040B0000E944E2B0E94AC2A85E090E00E942320B3
:1040C00081110E94581E0E94841D0E94B22180937B
:1040D0009B0387E090E00E9423208823C1F18BE1BD
:1040E00090E00E942320882351F080919B0381FB64
:1040F000222720F991E0922790FB81F90FC08EE0F2
:1041000090E00E942320882361F080919B0382FB32
:10411000222720F991E0922790FB82F980939B035C
:1041200016C080E190E00E94232090919B03882399
:1041300041F093FB222720F981E0822780FB93F94D
:1041400004C0892F809580FB90F990939B03809108
:104150009B030E94B6210E94C42180931B0480EE21
:1041600090E00E942320882341F080911B04982F27
:10417000909590FB80F980931B0489E390E00E9466
:104180002320882359F080911B0481FB222720F9EA
:1041900091E0922790FB81F980931B0482EE90E0DE
:1041A0000E942320882359F080911B0482FB222740
:1041B00020F991E0922790FB82F980931B0486EE10
:1041C00090E00E942320882359F080911B0483FBF8
:1041D000222720F991E0922790FB83F980931B041A
:1041E00083EE90E00E942320882359F080911B04E5
:1041F00084FB222720F991E0922790FB84F9809399
:104200001B0485E390E00E942320882359F08091CD
:104210001B0485FB222720F991E0922790FB85F96A
:1042200080931B0481E390E00E942320882359F0AF
:1042300080911B0486FB222720F991E0922790FBB6
:1042400086F980931B0481E190E00E94232088235B
:1042500059F080911B0487FB222720F991E09227D7
:1042600090FB87F980931B0480911B040E94C82156
:1042700080911B0487FB882780F980930D0187E2DA
:1042800090E00E942320C82F8EE190E00E9423201E
:104290008111C2608FE190E00E9423208111C460EF
:1042A00080E290E00E9423208111C86081E290E0CA
:1042B0000E9423208111C06182E290E00E942320AD
:1042C0008111C06283E290E00E9423208111C064CA
:1042D00084E290E00E942320882311F0C06802C08D
:1042E000CC2329F08C2F0E94BF216C2F03C00E9489
:1042F000BB21682F70E080E090E0CF910C948C1A85
:10430000CF9108956DEE7EEF80E090E00E94582DF1
:1043100060E082E090E00E94422D60E083E090E067
:104320000E94422D60E084E090E00E94422D60E017
:1043300085E090E00E94422D60E086E090E00C94E1
:10434000422D6FEF7FEF80E090E00C94582D80E0DD
:1043500090E00E943C2D21E08D3E9E4F09F020E030
:10436000822F089582E090E00C942E2D682F82E039
:1043700090E00C94422D83E090E00C942E2D682F59
:1043800083E090E00C94422D84E090E00C942E2D7C
:10439000682F84E090E00C94422D86E090E00C942D
:1043A0002E2D682F86E090E00C94422D8091A3037F
:1043B00080FF0BC06091130185E0689FB00111245C
:1043C00075956795759567952BC081FF09C06091BC
:1043D000130185E0689FB00111247595679520C091
:1043E00082FF07C06091130185E0689FB00111242E
:1043F00017C09091A4039923D1F0609112019617F0
:1044000088F72091130185E0289F90011124929F45
:10441000A001939F500D112470E0CA010E94142D39
:104420006038710540F46115710539F002C065E02E
:1044300070E0862F08958FE7089581E008958091B8
:10444000A30380FF08C06091110170E07595679526
:104450007595679521C081FF06C06091110170E0DC
:104460007595679519C082FF04C06091110170E0D5
:1044700010C09091A4039923C1F060911001961788
:10448000A0F780911101899FC001112470E00E9462
:10449000142D6038710528F46115710521F0862FFF
:1044A00008958FE7089581E0089561E070E0F4CF0A
:1044B000803F21F40E94D621819504C0813F29F4D8
:1044C0000E94D6218093A7030895823F21F40E9481
:1044D000D621819504C0833F29F40E94D621809380
:1044E000A6030895893F19F40E941F2205C08A3F40
:1044F00031F40E941F2281958093A80308958B3F79
:1045000021F40E941F22819504C08C3F29F40E944F
:104510001F228093A9030895843F21F48091A5036D
:10452000816017C0853F21F48091A503826011C08E
:10453000863F21F48091A50384600BC0873F21F45E
:104540008091A503886005C0883F31F48091A50360
:1045500080618093A50308958D3F21F48091A3038A
:1045600081600BC08E3F21F48091A303826005C05F
:104570008F3F29F48091A30384608093A30308955F
:10458000803F39F48091A70387FF6CC01092A70386
:1045900069C0813F29F48091A7031816BCF362C05B
:1045A0009091A603823F29F497FF5CC01092A60366
:1045B00059C0833F19F41916CCF354C0893F41F414
:1045C0008091A80318160CF04DC01092A8034AC0A1
:1045D0008A3F29F48091A80387FF44C0F6CF8B3F20
:1045E00039F48091A90387FF3DC01092A9033AC016
:1045F0008C3F29F48091A9031816BCF333C0843F83
:1046000021F48091A5038E7F17C0853F21F480910E
:10461000A5038D7F11C0863F21F48091A5038B7F78
:104620000BC0873F21F48091A503877F05C0883F99
:1046300031F48091A5038F7E8093A50313C08D3F35
:1046400021F48091A3038E7F0BC08E3F21F48091D3
:10465000A3038D7F05C08F3F29F48091A3038B7F37
:104660008093A3038091A60381110EC08091A703BC
:1046700081110AC08091A803811106C08091A9030D
:10468000811102C01092A403089585EA93E00E946C
:1046900094100E94FD1D9093A2038093A10308959E
:1046A0001F93CF93DF938091A1039091A2030E9467
:1046B000091EAC019091A403992321F020911401CB
:1046C00030E006C0209115018AE0289F9001112456
:1046D0004217530708F485C08091A603C091A70331
:1046E000D091A8031091A903811107C0C11175C011
:1046F000D11173C0111171C074C09F3F19F09F5F39
:104700009093A403181624F40E94D6218093A60344
:104710008091A60387FF05C00E94D62181958093D2
:10472000A6031C1624F40E94D6218093A70380912F
:10473000A70387FF05C00E94D62181958093A70318
:104740006091A603662331F1C091A703CC2311F138
:10475000062E000C770B880B990B0E94072C23E385
:1047600033E343E35FE30E946B2C0E94CF2B609303
:10477000A6036C2FCC0F770B880B990B0E94072C8C
:1047800023E333E343E35FE30E946B2C0E94CF2BD0
:104790006093A7031D1624F40E941F228093A80390
:1047A0008091A80387FF05C00E941F2281958093F6
:1047B000A803111624F40E941F228093A90380915C
:1047C000A90387FF05C00E941F2281958093A9033A
:1047D000DF91CF911F910C9445239F3F09F08FCF1C
:1047E00097CFDF91CF911F910895E5EAF3E085E03F
:1047F000DF011D928A95E9F71092A4031092A3039A
:104800000895833081F128F4813059F08230D1F05D
:104810000895853009F449C0B8F1863009F456C0CE
:10482000089580911501262F30E0280F311D2F3F6C
:10483000310524F4680F6093150108958FEF80937C
:104840001501089580911401262F30E0280F311DA5
:104850002F3F310524F4680F6093140108958FEF02
:1048600080931401089580911301262F30E0280FC2
:10487000311D2F3F310524F4680F60931301089513
:104880008FEF80931301089580911201262F30E05D
:10489000280F311D2F3F310524F4680F609312015A
:1048A00008958FEF80931201089580911101262FB2
:1048B00030E0280F311D2F3F310524F4680F60933D
:1048C000110108958FEF80931101089580911001D7
:1048D000262F30E0280F311D2F3F310524F4680FBB
:1048E0006093100108958FEF809310010895833035
:1048F00011F128F4813049F0823091F0089585302B
:1049000081F120F18630C1F1089580911501681779
:1049100020F4861B809315010895109215010895C7
:1049200080911401681720F4861B80931401089568
:1049300010921401089580911301681720F4861BCA
:10494000809313010895109213010895809112012C
:10495000681720F4861B80931201089510921201AB
:10496000089580911101681720F4861B809311012E
:10497000089510921101089580911001681720F494
:10498000861B8093100108951092100108950F93D3
:104990001F938B3109F475C0A0F58E3009F484C0E3
:1049A000C0F4873009F462C068F4863009F0AAC008
:1049B00080919B03817F8E7F80939B0381E0809316
:1049C000AB03A1C0883009F44AC08B3009F498C009
:1049D00099C0813109F472C068F4803109F092C045
:1049E00080919B0383FB222720F991E0922790FB83
:1049F00083F950C0863109F483C0893109F480C03D
:104A000081C0853309F463C068F4873209F45FC05C
:104A100028F48E3108F476C08D515FC0893209F4D4
:104A200056C070C0833438F48A3308F055C08833D8
:104A300009F466C067C0833409F449C0883409F0BA
:104A400061C00E9498160FEF13ED20E30150104053
:104A50002040E1F700C000000E94581E51C00E9493
:104A6000B2210E94C4210E94CD214AC090919B0393
:104A7000892F817090FF12C0917F9E7F90939B033E
:104A800042C080919B0381FB222720F991E092276D
:104A900090FB81F980939B03992391F180919B0373
:104AA000816080939B032CC080919B0382FB222713
:104AB00020F991E0922790FB82F9ECCF0E949816A2
:104AC00090910D0181E0892780930D0119C061E06B
:104AD00070E080E090E010C0895341E050E060E079
:104AE00070E08A019B0104C0000F111F221F331FB9
:104AF0008A95D2F7C901B8010E948C1A0E949816B3
:104B000081E001C080E01F910F91089580E0089539
:104B100080E00895CF93C82F8091AB03813069F076
:104B200018F08230C9F184C0E0910E01F0910F01BC
:104B30008081823209F07EC007C0E0910E01F091C1
:104B40000F018081823261F48C2F0E9486258111B1
:104B500004C08C2F0E94C7241DC081E090E01AC0C1
:104B60008C2F0E948825811114C0C43179F048F43B
:104B7000CB3079F0C03109F061C082E08093AB03A3
:104B800008C0C93219F0C83321F058C01092AB03E5
:104B900055C081E0817054C0C93291F120F5C43113
:104BA00079F1B0F4C73009F047C08EE18093150168
:104BB00082E3809314018AE08093130184E180935F
:104BC000120188E08093110188E28093100134C0C3
:104BD000CE51C63088F5EC2FF0E0E051FD4F8081DA
:104BE0008093AA0329C0CE34E9F020F4CB3421F518
:104BF0006AE013C0C13579F0C235F1F461E00DC04F
:104C00008091AA03882319F01092AA0315C081E0AD
:104C10008093AB0315C061E006C08091AA030E9497
:104C200001240AC06AE08091AA030E94772404C08C
:104C30001092AB0380E004C081E002C080E0AACF04
:104C4000CF910895E1E8F0E08081886080838081E1
:104C5000816080838FB7F89493E09093890090ED02
:104C6000909388008FBF0C94512AEFE6F0E080818A
:104C70008260808381E08093C8030C946C2AEFE605
:104C8000F0E080818D7F80831092C80380E00E94D5
:104C90005F2A81E00E945F2A82E00E945F2A83E00F
:104CA0000E945F2A8091C8030C946C2A8091C703EC
:104CB0008F608093C70308951092C70380E00E941D
:104CC0005F2A81E00E945F2A82E00E945F2A83E0DF
:104CD0000E945F2A8091C8030C946C2AEFEBF3E0EA
:104CE00080838183828383830895E82FF0E0E154F9
:104CF000FC4F2081422F50E08FEF90E0861B9109FE
:104D0000841795071CF48FEF80830895620F6083EA
:104D10000895E82FF0E0E154FC4F8081861710F4ED
:104D200010820895861B808308958091BE038F6052
:104D30008093BE0308951092BE0308954091BD0371
:104D400021E030E0662341F001C0220F8A95EAF7A6
:104D5000242B2093BD030895B90102C0660F771F6D
:104D60008A95E2F7CB01809584238093BD03089553
:104D7000CF93DF93D82FC0E06D2F8C2F0E949E26FB
:104D8000CF5FC430C9F7DF91CF9108958093BC0302
:104D900008958091B7038F608093B70308951092B0
:104DA000B70308958093B50308951F920F920FB62D
:104DB0000F921124EF92FF920F931F932F933F9323
:104DC0004F935F936F937F938F939F93AF93BF9313
:104DD000CF93DF93EF93FF938091AF038F5F809327
:104DE000AF0303EC13E0C0E0D0E0FC2E2091C7033A
:104DF00030E00C2E02C0369527950A94E2F720FF8A
:104E00001AC08091AF0381110DC0F8018081882301
:104E100019F08C2F0E94522AFE01E154FC4F808130
:104E2000F80180839091AF03F8018081981303C04B
:104E30008F2D0E945F2A21960F5F1F4FC430D1052E
:104E4000A1F68091AE038F5F803418F48093AE0397
:104E5000ACC01092AE03E090BE03E11005C090918B
:104E6000B70391113BC0A1C08091AD038F5F8093C8
:104E7000AD039091BC03981790F71092AD0308EB27
:104E800013E0C0E0D0E0F12CC7010C2E02C09695D3
:104E900087950A94E2F780FF1AC0F8018081882381
:104EA00019F08150808313C08091BD0390E00C2ED7
:104EB00002C0969587950A94E2F761E080FF04C0EE
:104EC0008C2F0E94892603C08C2F0E947526219664
:104ED0000F5F1F4FC430D105B9F6C1CF8091AC032D
:104EE0008F5F8093AC032091B503281708F05DC055
:104EF0001092AC034091B0035091B603A1EBB3E024
:104F000020E030E0C1E0D0E0692F70E0022E02C066
:104F1000769567950A94E2F760FF3AC08C91E82F86
:104F2000F0E0E454FC4F0491B90161547C4FFB0163
:104F30000083642F70E0022E02C0769567950A9474
:104F4000E2F760FF19C0811115C0BE01022E01C039
:104F5000660F0A94EAF760954623E52FF0E0022EEB
:104F600002C0F695E7950A94E2F7E0FF11C0962398
:104F700056230EC081500BC08F3741F4BE01022E64
:104F800001C0660F0A94EAF7462B02C08F5F8C932C
:104F90002F5F3F4F11962430310509F0B5CF409374
:104FA000B0039093B7035093B603FF91EF91DF9155
:104FB000CF91BF91AF919F918F917F916F915F91B1
:104FC0004F913F912F911F910F91FF90EF900F9074
:104FD0000FBE0F901F9018950E94A721811102C04B
:104FE0000E9482210E94CD2180931C0480FF02C078
:104FF000869501C080E00C94160480911C04982FC3
:105000009695292F30E0283031054CF49F5F990F99
:105010008170892B816080931C040E94D121809132
:105020001C0486950C94160480911C04982F969568
:1050300091F09158990F8170892B80931C048E7F79
:1050400091E009F490E080911C0490FB80F980933A
:105050001C040E94D12180911C0486950C94160496
:1050600080911C04982F9095917090FB80F980930B
:105070001C04992339F0982F9E7F21F4817082605F
:1050800080931C0480911C040E94D12180911C04F7
:1050900080FF02C0869501C080E00C9416049091B8
:1050A0001C04892F86958F5F8F779170893028F443
:1050B000880F892B80931C0402C090931C0480915C
:1050C0001C048E7F91E009F490E080911C0490FB19
:1050D00080F980931C040E94D12180911C04869544
:1050E0000C941604880F90911C049170892B809366
:1050F0001C048E7F91E009F490E080911C0490FBE9
:1051000080F980931C040E94D12180911C04869513
:105110000C941604EF92FF920F931F93CF93DF939B
:105120000091CE030827611101C0F1F1C0E0D0E089
:10513000E62EF82E10E08C2F9C2F2091C70330E034
:105140000C2E02C0369527950A94E2F720FF0BC07B
:105150002091CA0330E00C2E02C0369527950A94A0
:10516000E2F720FD1BC0E11009C09801092E02C022
:10517000369527950A94E2F720FF10C02091C903C5
:105180002F2530E002C0369527959A95E2F720FF4B
:1051900003C00E94730402C00E9483042196C4309D
:1051A000D10549F6F092CE03DF91CF911F910F9177
:1051B000FF90EF9008950F931F93CF93DF93C0E07C
:1051C000D0E001E010E08C2F0E94C22A94FF0BC0B7
:1051D0008091C90398010C2E01C0220F0A94EAF7AE
:1051E000282B2093C90395FF0BC08091CA03980117
:1051F0000C2E01C0220F0A94EAF7282B2093CA0331
:105200009F70892F90E08230910589F0833091055D
:10521000D1F08130910511F50C2E01C0880F0A9450
:10522000EAF79091CC03892B8093CC0317C020918F
:10523000CB03C8010C2E01C0880F0A94EAF7822B19
:105240008093CB030BC02091CD03C8010C2E01C06D
:10525000880F0A94EAF7822B8093CD032196C430FD
:10526000D10509F0B0CF0E946A0461E080E0DF91CF
:10527000CF911F910F910C948A28CF92DF92EF92D9
:10528000FF920F931F93CF93DF939091CD039923B8
:1052900009F440C01091CE03C0E0D0E0E82EF12C1C
:1052A000CC24C394D12C0C2F8091CD0390E00C2EF4
:1052B00002C0969587950A94E2F780FF1BC0802F65
:1052C0000E94C22A970102C0359527958A95E2F778
:1052D00020FF08C0C6010C2E01C0880F0A94EAF70F
:1052E000182B08C0C6010C2E01C0880F0A94EAF7DB
:1052F000809518232196C430D105A9F660E0812F4E
:10530000DF91CF911F910F91FF90EF90DF90CF90A1
:105310000C948A28DF91CF911F910F91FF90EF900D
:10532000DF90CF900895AF92BF92CF92DF92EF922D
:10533000FF920F931F93CF93DF932091CC032223EF
:1053400009F445C06B017C011091CE03C0E0D0E0B0
:10535000AA24A394B12C0C2F8091CC0390E00C2EA6
:1053600002C0969587950A94E2F780FF1EC0802FB1
:105370000E94C22AA701960104C056954795379509
:1053800027958A95D2F720FF08C0C5010C2E01C0D1
:10539000880F0A94EAF7182B08C0C5010C2E01C02B
:1053A000880F0A94EAF7809518232196C430D10516
:1053B00091F660E0812FDF91CF911F910F91FF90C7
:1053C000EF90DF90CF90BF90AF900C948A28DF9140
:1053D000CF911F910F91FF90EF90DF90CF90BF90F2
:1053E000AF900895AF92BF92CF92DF92EF92FF926B
:1053F0000F931F93CF93DF932091CB03222309F4C4
:1054000045C06B017C011091CE03C0E0D0E0AA241E
:10541000A394B12C0C2F8091CB0390E00C2E02C0F2
:10542000969587950A94E2F780FF1EC0802F0E9410
:10543000C22AA701960104C056954795379527952E
:105440008A95D2F720FF08C0C5010C2E01C0880F35
:105450000A94EAF7182B08C0C5010C2E01C0880F6A
:105460000A94EAF7809518232196C430D10591F665
:1054700060E0812FDF91CF911F910F91FF90EF900E
:10548000DF90CF90BF90AF900C948A28DF91CF919E
:105490001F910F91FF90EF90DF90CF90BF90AF9052
:1054A000089508952091CA0330E0082E02C0369571
:1054B00027950A94E2F720FD0C9473040895209137
:1054C000CA0330E0082E02C0369527950A94E2F709
:1054D00020FD0C948304089561E08091CE030C9428
:1054E0008A28CF92DF92EF92FF920F931F93CF9370
:1054F000DF930FEC13E0CBE0D0E0E12CF12CCE01F8
:105500000E943C2DF80191838083019699F4C70194
:10551000880F991F9C0121533C4F69018E2D0E94D9
:105520006104F60191838083F80160817181CE016D
:105530000E94582DFFEFEF1AFF0A22960E5F1F4FB1
:10554000C331D105E1F6DF91CF911F910F91FF900B
:10555000EF90DF90CF9008950F931F93CF930BE0C0
:1055600010E0C0E08C2F0E946104BC01C8010E94C1
:10557000582DCF5F0E5F1F4FC430A1F7CF911F9101
:105580000F910895E82FF0E0EE0FFF1FE153FC4F5D
:10559000808191810895CF92DF92EF92FF920F93D5
:1055A0001F93CF9384E190E00E943C2D8C01C12C8D
:1055B000D12C2DEEE22E2EEFF22E0E94D702C82F14
:1055C0000E94D902C89FC00111249C0183E0220FD0
:1055D000331F8A95E1F7205C3F4FC216D30680F453
:1055E000C60146960E942E2D282F30E0C0FE02C034
:1055F000322F2227E20EF31E8FEFC81AD80ADDCF12
:1056000081E00E151F0509F080E0CF911F910F91E9
:10561000FF90EF90DF90CF90089590E0880F991F52
:1056200046960C943C2D90E0880F991F46960C945A
:10563000582DEF92FF920F931F93CF93DF9300D0DB
:10564000CDB7DEB7182F4A8369830E94D702082F8F
:105650000E94D902089FC0011124189F7001199F50
:10566000F00C11240E94D90269819701689F200DD6
:10567000311D1124C9014A81840F911D8A5A9F4FFF
:105680000F900F90DF91CF911F910F91FF90EF90AE
:105690000C942E2D8A5A9F4F0C94422D8F929F92DC
:1056A000AF92BF92CF92DF92EF92FF920F931F9330
:1056B000CF93DF930E94CD026C010E94CA027C014D
:1056C000C114D10409F10E946A024C01A12CB12C31
:1056D0000DEE1EEFA814B90420F4F601C591D49183
:1056E00002C0C0E0D0E0BE018A2D0E94132B0C0F37
:1056F0001D1F8FEFA81AB80A82E0C80ED11C80E2E5
:10570000A816B10439F702C00DEE1EEFE114F10442
:1057100071F10E9467026C01A12CB12C0E94D7028A
:10572000C82F0E94D902C89FC001112423E0880F0E
:10573000991F2A95E1F7A816B906C8F4AC14BD0460
:1057400028F4F701EA0DFB1DC49101C0C0E06C2FE5
:10575000C5010E944A2BEC2FF0E0A0FE02C0FE2FF4
:10576000EE270E0F1F1F8FEFA81AB80AD7CFB80168
:1057700084E190E0DF91CF911F910F91FF90EF9026
:10578000DF90CF90BF90AF909F908F900C94582D4A
:105790000E94CB2A811102C00C944E2B08950E94C6
:1057A000D62B6894B1110C94652C08950E944A2C54
:1057B00088F09F5798F0B92F9927B751B0F0E1F0D2
:1057C000660F771F881F991F1AF0BA95C9F714C082
:1057D000B13091F00E94642CB1E008950C94642CD7
:1057E000672F782F8827B85F39F0B93FCCF38695BB
:1057F00077956795B395D9F73EF490958095709518
:1058000061957F4F8F4F9F4F0895E89409C097FB94
:105810003EF490958095709561957F4F8F4F9F4F87
:105820009923A9F0F92F96E9BB279395F6958795CB
:1058300077956795B795F111F8CFFAF4BB0F11F48E
:1058400060FF1BC06F5F7F4F8F4F9F4F16C0882335
:1058500011F096E911C0772321F09EE8872F762F6B
:1058600005C0662371F096E8862F70E060E02AF0AC
:105870009A95660F771F881FDAF7880F9695879598
:1058800097F9089557FD9058440F551F59F05F3F01
:1058900071F04795880F97FB991F61F09F3F79F052
:1058A00087950895121613061406551FF2CF4695D4
:1058B000F1DF08C0161617061806991FF1CF869556
:1058C0007105610508940895E894BB27662777273A
:1058D000CB0197F908950E947E2C0C94EF2C0E9426
:1058E000E12C38F00E94E82C20F0952311F00C9464
:1058F000D82C0C94DE2C11240C94652C0E94422C84
:1059000070F3959FC1F3950F50E0551F629FF00112
:10591000729FBB27F00DB11D639FAA27F00DB11D2B
:10592000AA1F649F6627B00DA11D661F829F2227B4
:10593000B00DA11D621F739FB00DA11D621F839F3B
:10594000A00D611D221F749F3327A00D611D231F11
:10595000849F600D211D822F762F6A2F11249F575F
:1059600050409AF0F1F088234AF0EE0FFF1FBB1F62
:10597000661F771F881F91505040A9F79E3F510521
:1059800080F00C94D82C0C94652C5F3FE4F3983E87
:10599000D4F3869577956795B795F795E7959F5FCB
:1059A000C1F7FE2B880F911D9695879597F908955D
:1059B00097F99F6780E870E060E008959FEF80ECC2
:1059C000089500240A941616170618060906089565
:1059D00000240A9412161306140605060895092ECB
:1059E0000394000C11F4882352F0BB0F40F4BF2B3A
:1059F00011F460FF04C06F5F7F4F8F4F9F4F08957A
:105A0000AA1BBB1B51E107C0AA1FBB1FA617B707E4
:105A100010F0A61BB70B881F991F5A95A9F7809500
:105A20009095BC01CD01089597FB072E16F40094C4
:105A300007D077FD09D00E94002D07FC05D03EF469
:105A4000909581959F4F0895709561957F4F08952A
:105A5000EE0FFF1F0590F491E02D0994F999FECF08
:105A600092BD81BDF89A992780B50895A6E1B0E06E
:105A700044E050E00C945F2DA8E1B0E042E050E03B
:105A80000C945F2D262FF999FECF1FBA92BD81BDD0
:105A900020BD0FB6F894FA9AF99A0FBE01960895B0
:105AA000242F0E94432D252F0E94432D0C94582D06
:105AB0000E94422D272F0C94432DDC01CB01FC01C9
:105AC000F999FECF06C0F2BDE1BDF89A319600B457
:0E5AD0000D9241505040B8F70895F894FFCF62
