:100000000C945E020C94A2020C94A2020C94A20224
:100010000C94A2020C94A2020C94A2020C94A202D0
:100020000C94A2020C94A2020C94D60F0C94A8106B
:100030000C9418210C94A2020C94A2020C94A2021B
:100040000C94A2020C947B290C94A2020C94A202A0
:100050000C94A2020C948D200C94A2020C94A20287
:100060000C94A2020C94A2020C94A2020C94A20280
:100070000C94A2020C94A2020C94A2020C94A20270
:100080000C94DF0A0C94A2020C94A2020C94A2021B
:100090000C94A2020C94A2020C94A2020C94A20250
:1000A0000C94A2020C94A2020C94A2020C03110361
:1000B0003803340346034203540350030811281144
:1000C000E0112811E0116A118D11E011AF11C21178
:1000D000C915C915F715F71553168F1617191719DE
:1000E000A71617199E179E177D189118171905192D
:1000F000AF27C727A827A627A6273728A627A627DA
:10010000DE27A627E827FA272828A627A627A62736
:100110003728A627A62737281C28D427A627A627AE
:10012000082808280828082808280828082808284F
:1001300008280328A6270328A627A627A627A62738
:10014000A627A627A627A627A627A627A6270328E9
:10015000A627A6273728A6271A281A281A281A28D1
:100160001A281A281A281A281A280328A627A62780
:10017000A627A627B927F1A100D100D200D0000000
:1001800000F0000002F003F004F005F006F007F0C4
:1001900008F009F0C51E1F20212223242526272D23
:1001A0002E2A2B141A0815171C180C12132F303175
:1001B00039041607090A0B0D0E0F33340028E1002D
:1001C0001D1B061905111036373800E5E0E3E20083
:1001D000002C00000000E6C0E7E4353A3B3C3D3E21
:1001E0003F4041424344454C010101010101B4013A
:1001F00049014647480101C9CACBCCCDCE01010116
:100200004A4B00010100C7C8C1C2C3AAA9A84D4EEC
:1002100000010101010000010000000001010101D5
:10022000001080FF0103010202020123002064325A
:1002300014643214783C1E1E140A050000000001EC
:1002400001010202030405050607090A0B0C0E0F43
:100250001112141517191B1D1F212325282A2C2FB5
:10026000313436393B3E414346494C4F5255585A3A
:100270005D6164676A6D707376797C7F8386898C33
:100280008F9295989B9EA2A5A7AAADB0B3B6B9BC14
:10029000BEC1C4C6C9CBCED0D3D5D7DADCDEE0E24E
:1002A000E4E6E8EAEBEDEEF0F1F3F4F5F6F8F9FA4E
:1002B000FAFBFCFDFDFEFEFEFFFFFFFFFFFFFFFE62
:1002C000FEFEFDFDFCFBFAFAF9F8F6F5F4F3F1F0A9
:1002D000EEEDEBEAE8E6E4E2E0DEDCDAD7D5D3D017
:1002E000CECBC9C6C4C1BEBCB9B6B3B0ADAAA7A572
:1002F000A29E9B9895928F8C898683807C79767359
:10030000706D6A6764615D5A5855524F4C49464357
:10031000413E3B393634312F2C2A282523211F1DFD
:100320001B1917151412110F0E0C0B0A09070605DD
:1003300005040302020101010000000001010202A4
:100340000202020203030303030303030303030381
:10035000030304040404040404040404040405055D
:100360000505050505050505060606060606060635
:100370000707070707070708080808080809090901
:100380000909090A0A0A0A0A0B0B0B0B0B0C0C0CC5
:100390000C0C0D0D0D0D0E0E0E0E0F0F0F1010107C
:1003A000101111111212121313131414141515161F
:1003B0001616171718181919191A1A1B1B1C1C1DA9
:1003C0001D1E1E1F20202121222323242425262612
:1003D000272828292A2B2B2C2D2E2F303031323351
:1003E0003435363738393A3B3C3D3E3F4041424454
:1003F000454647494A4B4C4E4F5152535556585A11
:100400005B5D5E6062636567696B6D6E707274766A
:10041000797B7D7F818486888B8D909295979A9D3C
:100420009FA2A5A8ABAEB1B4B7BABEC1C4C8CBCF6A
:10043000D3D6DADEE2E6EAEEF2F8FF0000000000D2
:100440000000000000010101020202030304040590
:10045000050606070808090A0B0B0C0D0E0F1011F4
:100460001213151617191A1B1D1E202223252729C2
:100470002B2D2F313335383A3D3F4244474A4D50BA
:100480005356595C5F6266696C7074777B7E8286B6
:100490008A8E9195999DA1A5A9ADB0B4B8BCC0C3F1
:1004A000C7CBCED2D5D8DBDFE2E4E7EAECEFF1F35D
:1004B000F5F7F8FAFBFCFDFEFFFFFF0011241FBE5D
:1004C000CFEFDAE0DEBFCDBF04B603FE24C08091DB
:1004D000710490917204A0917304B09174048730F8
:1004E000904BA740B04BB9F4109271041092720473
:1004F000109273041092740414BE84B7877F84BF73
:1005000088E10FB6F89480936000109260000FBEEF
:10051000E0E0F8E3099513E0A0E0B1E0E2E3F0E603
:1005200002C005900D92A234B107D9F714E0A2E4FD
:10053000B3E001C01D92A137B107E1F70E94620D3F
:100540000C9417300C9400008CE890E008958FE034
:1005500090E008951F93CF93DF93EC01162F8A81CB
:100560006130A1F028F06A3041F16B30A1F144C054
:10057000882371F00E94E41F827231F00E94E41F10
:1005800080FD02C085E310C089E20EC0811105C064
:10059000809142030E944C150DC00E94E41F82FF0F
:1005A00002C08DE301C081E2809342038091420347
:1005B0000E9482140E9418201FC08823E9F091E055
:1005C0008091ED03811190E09093ED0380916E0492
:1005D00090FB80F90DC0882379F091E08091EC03C5
:1005E000811190E09093EC0380916E0490FB81F96F
:1005F00080936E040E943B228A81882309F45EC0A6
:10060000812F90E0FC013297E830F10508F056C0E8
:10061000EA5AFF4F0C94C02FDF91CF911F910C9499
:1006200094080E94E41F81FF1AC090912A04892F28
:100630008695815C8F739178882329F0880F892BA8
:1006400080932A0403C09E6290932A0480912A0416
:1006500086958F73DF91CF911F910C940A08DF91DB
:10066000CF911F910C948A080E94E41F81FF05C05E
:10067000DF91CF911F910C946107DF91CF911F9172
:100680000C9448070E94E41F81FF05C0DF91CF91C1
:100690001F910C949B07DF91CF911F910C948007C1
:1006A0000E94E41F81FF05C0DF91CF911F910C9440
:1006B000D007DF91CF911F910C94B507DF91CF91B7
:1006C0001F910895462F672F0C94A52D805C0E94E2
:1006D000992D089584E991E0089586E791E00895C1
:1006E0008AB1807D8AB98BB1807D8BB9089585E010
:1006F00008958EE0089580E885BF85BF0E944C086C
:100700000E94700380B38C7F80BB81B3836081BB08
:100710006E98769A8AB18F728AB98BB1806D8BB9D7
:1007200087B18F7387B988B1806C88B984B18474BC
:1007300084B985B18B6B85B9EDE4F3E0A3E4B3E054
:10074000119211921D921D9283E0E735F807C1F7CF
:100750000895FF920F931F93CF93DF93C3E4D3E0E9
:1007600010E001E0A5E0FA2E123071F018F411301B
:1007700041F004C0133059F0143061F0509A589889
:100780000BC0519A599808C0529A5A9805C0539A6A
:100790005B9802C0559A5D9880EA8A95F1F72FB16F
:1007A0002170202730E0799B03C080E090E002C0F8
:1007B00082E090E0282B392B669B03C080E090E01C
:1007C00002C084E090E0282B392B86B1992787FD61
:1007D0009095809590958827990F881F9927F3E029
:1007E000880F991FFA95E1F7282B392B369B03C008
:1007F00080E090E002C080E190E0282B392B83B1AB
:10080000992787FD9095809590958827990F881F47
:10081000992775E0880F991F7A95E1F7282B392BD6
:100820004C9B03C060E070E002C060E470E0262BE7
:10083000372B199B03C060E070E002C060E870E0F5
:10084000262B372B189B03C040E050E002C040E04D
:1008500051E0242B352B1D9B03C080E090E002C0AB
:1008600080E092E0282B392B1C9B03C080E090E0B5
:1008700002C080E094E0282B392B89B1992787FDAD
:100880009095809590958827990F881F9927982F84
:100890008827990F990F990F282B392B4E9B03C04E
:1008A00080E090E002C080E090E1282B392B1B9B78
:1008B00003C080E090E002C080E090E2282B392B5A
:1008C000888199818217930721F039832883F092D8
:1008D00000010E9470031F5F2296153009F044CF7B
:1008E000809100018823C1F081508093000188230A
:1008F00039F08FE99FE00197F1F700C000000CC0CC
:10090000ADE4B3E0E3E4F3E0819191918D939D93A5
:1009100093E0ED34F907C1F781E0DF91CF911F91AA
:100920000F91FF900895E82FF0E0EE0FFF1FE35BBB
:10093000FC4F8081918108950895CF93C82F87300F
:10094000A0F4843000F58130D0F10E94E5280E94A7
:1009500003290E9449290E947529EC2FF0E0E05EEE
:10096000FD4F8491CF910C9418298730C9F08830BD
:1009700031F50E94E5280E9403290E9443290E9424
:10098000752981E016C00E94E5280E9403290E9473
:1009900049290E946F2986E08C1BCF910C947829FD
:1009A0000E94E5280E9403290E9443290E9475297C
:1009B00080E00E945E2983E0CF910C946C290E9414
:1009C00049290E9475290E940929CF910C94EF288A
:1009D000E82FF0E0EE0FFF1FEC5DFD4F8591949145
:1009E0000895229A2A9A269A2E98089590912A0478
:1009F00090FD29C08130B1F030F0823021F5E4E380
:100A0000F4E08FEF19C0E3E3F4E08FEF80833396D7
:100A100094E0E336F907D1F760E170E082E394E017
:100A20000C949205E2E3F4E08FEF8083339694E038
:100A3000E236F907D1F7F0CF8083339694E0E436BD
:100A4000F907D1F7E9CF833019F0843019F0089510
:100A50002A9808952E9A089590912A0490FD26C010
:100A60008130A1F028F0823009F5E4E3F4E017C00A
:100A7000E3E3F4E01082339684E0E336F807D1F73D
:100A800060E170E082E394E00C949205E2E3F4E02C
:100A90001082339684E0E236F807D1F7F1CF108266
:100AA000339684E0E436F807D1F7EACF833019F0C3
:100AB000843019F008952A9A08952E9808953EB129
:100AC000242F209523233EB1342B4FB7F894FC01FB
:100AD000680F791FE617F70789F0819198E03EB912
:100AE000000000C087FF2EB9880F000000C000C0C2
:100AF00000C02EB900C09A9591F7ECCF4FBF089572
:100B00002DB1242B2DB99B01220F331F260F371F28
:100B1000B9010E945F0587EC90E00197F1F700C0F2
:100B20000000089544E00C948005CF92DF92EF928C
:100B3000FF920F931F93CF93DF937C01E42FF0E09C
:100B4000E55CFC4F44918FEF90E0FC01E61BF1095E
:100B5000E55CFC4FE491E09509F496C0042F10E0A9
:100B60008E1B9109809FB001819F700D909F700D29
:100B70001124E72FF72FCCE3D0E0C701BE010E947C
:100B8000762FDC016230710509F447C0D8F4611595
:100B90007105A1F16130710509F07AC00E1B1109D0
:100BA000CE018A1B9B0BDC010A9FC0010B9F900D9D
:100BB0001A9F900D1124BE010E94762FCE2EC60ED4
:100BC000D42E67C06430710509F44BC0B8F16530AC
:100BD000710509F05DC00E1B1109BE01681B790B80
:100BE000069FC001079F900D169F900D1124BE0116
:100BF0000E94762FDE2EFE2FF60F44C00E1B110929
:100C00000E9DC0010F9D900D1E9D900D1124BE01E3
:100C10000E94762FDE2ED60E35C00E1B11090A9FBC
:100C2000C0010B9F900D1A9F900D1124BE010E94D0
:100C3000762FD42ECE2EFE2FF60F2BC00E1B1109B1
:100C4000BE01681B790B069FC001079F900D169F80
:100C5000900D1124BE010E94762FDE2ED60ECE2ED0
:100C60000FC00E1B11090A9FC0010B9F900D1A9F08
:100C7000900D1124BE010E94762FCE2EC60EDE2EC0
:100C8000F42F07C0C42E05C0F42FD42EC42E01C0EB
:100C9000F0E0D9011196CC921197DC921296FC9358
:100CA000DF91CF911F910F91FF90EF90DF90CF9048
:100CB00008958AE090E00C94CE2FAB01BC018AE04D
:100CC00090E00C94FA2F8CE980932A04EBE2F4E094
:100CD000808180788661806880838FEF80932C0488
:100CE00080932D0460912A0470912B0480912C0430
:100CF00090912D040C945D0680912A0480FF06C01B
:100D000060E170E082E394E00C949205E4E3F4E0A7
:100D1000DF0111971C92DF0112971C92108233960B
:100D200084E0E436F807A1F7EBCFE4E3F4E0DF0179
:100D300011978C93DF0112976C934083339694E064
:100D4000E436F907A1F70C947C06CF92DF92EF927C
:100D5000FF920F931F93CF93DF9300D01F92CDB7D5
:100D6000DEB7F82EC92ED62EE42E00912A0410915B
:100D70002B0420912C0430912D0400932E04109309
:100D80002F04209330043093310480912A0480FF93
:100D90001EC09E012F5F3F4F8F2D0E9495058091B1
:100DA0002E04F0FA87F980932E04F69420912F04F4
:100DB00020782F29C0FA27F920932F04D0923004ED
:100DC000E09231044B8169818A810E9495060F90DF
:100DD0000F900F90DF91CF911F910F91FF90EF90A7
:100DE000DF90CF9008950F931F93CF93DF93C82F79
:100DF000192F062FD42F80912A0480FF44C0982FEA
:100E00009E77923029F48C2F912F0E94A5061AC04C
:100E1000282F26952F739EE3920F9F73943018F41A
:100E2000D0912D040FC0265C2F73293058F4881FF1
:100E30008827881F10912B04C12FCC0FC82B17FBBC
:100E4000112710F980912A04C0FB87F980932A04A6
:100E5000C69580912B0480788C2B10FB87F98093AA
:100E60002B0400932C04D0932D0460912A047091DC
:100E70002B0480912C0490912D04DF91CF911F9130
:100E80000F910C945D06DF91CF911F910F91089502
:100E900020912A04221F2227221F30912B04432F46
:100EA000440F842F822B37FB992790F90A9668E626
:100EB00071E00E948A2F40912D0460912C040C94C3
:100EC000F30620912A04221F2227221F30912B048F
:100ED000432F440F842F822B37FB992790F98A30B8
:100EE00091051CF4825A9E4F01C00A9768E671E092
:100EF0000E948A2F40912D0460912C040C94F306DB
:100F000060912C04862F90E08F3E910514F46F5E63
:100F100001C06FEF80912A04881F8827881F909155
:100F20002B04292F220F97FB992790F940912D042C
:100F3000822B0C94F30660912C04862F90E041974D
:100F400014F0615101C060E080912A04881F882755
:100F5000881F90912B04292F220F97FB992790F936
:100F600040912D04822B0C94F30640912D04842F84
:100F700090E08F3E910514F44F5E01C04FEF8091D9
:100F80002A04881F8827881F90912B04292F220F5D
:100F900097FB992790F960912C04822B0C94F3060F
:100FA00040912D04842F90E0419714F0415101C0ED
:100FB00040E080912A04881F8827881F90912B0485
:100FC000292F220F97FB992790F960912C04822BEF
:100FD0000C94F3068091680381110FC081E0809327
:100FE000680389E0809391008FB7F89493E0909321
:100FF000990090ED909398008FBF0895E1E7F0E09D
:101000008081826080830895E1E7F0E080818D7FB8
:101010008083089590912A0490FF3DC091788111BA
:1010200002C0926003C0883120F09E6290932A042F
:1010300005C08F73880F892B80932A0460912A043E
:1010400070912B0480912C0490912D040E945D06D8
:1010500080912A04982F9E77923019F40E940408F8
:1010600007C08695825C8F73863110F40E94FE075C
:1010700080912A04881F8827881F90912B04292F8C
:10108000220F97FB992790F940912D0460912C0431
:10109000822B0C94F30608958091E603816080937F
:1010A000E60381E0809369030E948024811104C0DB
:1010B0000E945B240E9463060E94590660932A04E2
:1010C00070932B0480932C0490932D046F3F7F4FDB
:1010D0008F4F9F4F21F40E9463060E947C068091EF
:1010E0002A048E7761F40E9463060E945906609379
:1010F0002A0470932B0480932C0490932D040E9457
:10110000EA0780912A0480FF04C086958F730C94AF
:101110000A08089580912A0486958F738F5F88311D
:1011200008F081E00C940A0880912A04982F909589
:1011300090FB80F980932A0460912A0470912B041B
:1011400080912C0490912D040E945D0680912A04C8
:1011500080FF04C086958F730C940A080E940408CF
:101160002FEF80E792E0215080409040E1F700C0EF
:1011700000000C947C06CF93C82F80916603909159
:1011800067030E946420EC2FF0E0E95CFD4FE491DE
:10119000F0E08E179F0710F10E945820909367038C
:1011A00080936603E0916503F0E0E55CFD4F4491B8
:1011B00080912A04881F8827881F90912B04292F4B
:1011C000220F97FB992790F960912C04822B0E94A3
:1011D000A506809165038F5F80936503CF91089585
:1011E000CF93C82F80916303909164030E94642081
:1011F000EC2FF0E0EC5CFD4FE491F0E08E179F07E0
:10120000E8F00E9458209093640380936303409118
:101210002D0460912C0480916103909162030E94DF
:10122000A5068091610390916203019668E671E0E2
:101230000E94762F9093620380936103CF9108956B
:10124000DF92EF92FF920F931F93CF93DF93D82EED
:1012500080915F03909160030E946420ED2DE695DC
:10126000F0E0EC5CFD4FE491F0E08E179F07F0F1A9
:101270000E9458209093600380935F0302E314E080
:10128000C0E0D0E088E6E82EFF24F39480915D036F
:1012900090915E038C0F9D1FB7010E94762F9801DD
:1012A00040912D0460912C040E94950566960D5F77
:1012B0001F4FC03681E0D80749F70E947C06209175
:1012C0005D0330915E03D0FE0BC0C901069668E64F
:1012D00071E00E94762F90935E0380935D0306C0B9
:1012E0002150310930935E0320935D03DF91CF914C
:1012F0001F910F91FF90EF90DF9008958F929F9232
:10130000AF92BF92CF92DF92EF92FF920F931F9313
:10131000CF93DF93C82F80FD03C09924939402C01C
:1013200099249A9480915B0390915C030E946420BD
:10133000C695EC2FF0E0EF5CFD4FE491F0E08E17E6
:101340009F0708F468C00E94582090935C03809324
:101350005B0322E3E22E24E0F22E04E314E0C0E07B
:10136000D0E037E0A32EB12CF80131971082F701BD
:101370001082F801108297E0C92ED12C812C809127
:101380005A03880D87FD805F992787FD9095C817C0
:10139000D907E9F420912D042C9DC0012D9D900DBD
:1013A0001124B5010E948A2F462F80912A04881F9C
:1013B0008827881F90912B04592F550F97FB992749
:1013C00090F9970160912C04852B0E949505890C5A
:1013D000F1E0CF1AD108C114D10489F6219683E037
:1013E000E80EF11C0D5F1F4FC031D10509F0BCCFD5
:1013F0000E947C0680915A0391E0991206C08111E7
:1014000002C08DE006C0815004C090E001968F704C
:10141000992780935A03DF91CF911F910F91FF90ED
:10142000EF90DF90CF90BF90AF909F908F900895F6
:101430009F92AF92BF92CF92DF92EF92FF920F9363
:101440001F93CF93DF93CDB7DEB7E0970FB6F89435
:10145000DEBF0FBECDBF182F809158039091590366
:101460000E946420E12FF0E0E25DFD4FE491F0E0A6
:101470008E179F0708F491C00E945820909359033B
:10148000809358038E010F5F1F4F6E0183E0C80EDB
:10149000D11CE12CF12C5801F60131971082D801B2
:1014A0001C92F6011082912C9091010180915703BA
:1014B000999E800D112487FD04C080311CF08FE0BF
:1014C00001C080E0992787FD9095E816F906A1F400
:1014D00080912A04881F8827881F90912B04592FF8
:1014E000550F97FB992790F9980140912D04609131
:1014F0002C04852B0E9495059394F7E09F12D4CF7E
:101500008FEFE81AF80A0D5F1F4FA3E0CA0ED11C37
:10151000B0E1EB16F10409F0BFCF64E374E08BE0B7
:1015200090E09C012F703327AB0141505109F90124
:10153000EE0FFF1FE20FF31FEA0DFB1D2181DA0101
:101540002C939B01225031094081D9014C93228177
:10155000FB01208301966D5F7F4F8B31910509F769
:101560000E947C069091010180915703913049F4CB
:101570008A3F2CF489EF809357038FEF08C0815086
:101580000AC087313CF086E18093570381E0809365
:10159000010103C08F5F80935703E0960FB6F89464
:1015A000DEBF0FBECDBFDF91CF911F910F91FF9096
:1015B000EF90DF90CF90BF90AF909F9008951F92D3
:1015C0000F920FB60F9211242F933F934F935F9377
:1015D0006F937F938F939F93AF93BF93EF93FF93FB
:1015E00080912A0486958F739EE3980F9F739430A1
:1015F00020F482500E94BB0823C09AE3980F9F7387
:10160000933020F486500E94F0081AC097E3980F98
:101610009F73963020F489500E94200911C091E3F5
:10162000980F9F73963020F48F500E947E0908C057
:101630009BE2980F9F73933018F485510E94180A0B
:10164000FF91EF91BF91AF919F918F917F916F919A
:101650005F914F913F912F910F900FBE0F901F9070
:10166000189580917A030895CF93DF9300D01F924D
:10167000CDB7DEB720916504243019F523E0298326
:101680009B838A832093E9008FEF9091E80081503B
:1016900095FD06C095ED9A95F1F700008111F5CF03
:1016A0008091E80085FF0DC040E050E063E070E00D
:1016B000CE0101960E94050E8091E8008E778093FE
:1016C000E8000F900F900F90DF91CF910895CF9386
:1016D000DF9300D01F92CDB7DEB720916504243090
:1016E00021F522E029839B838A8383E08093E900AC
:1016F0008FEF9091E800815095FD06C095ED9A9589
:10170000F1F700008111F5CF8091E80085FF0DC051
:1017100040E050E063E070E0CE0101960E94050ECB
:101720008091E8008E778093E8000F900F900F90E3
:10173000DF91CF910895209165042430F1F422E0E7
:101740002093E9002FEF3091E800215035FD06C0CD
:1017500035ED3A95F1F700002111F5CF2091E80021
:1017600025FF0BC040E050E065E070E00E94050EF0
:101770008091E8008E778093E8000895CF93DF93FF
:10178000EC0180916504843009F047C080910C0120
:101790008823E1F080910D018823C1F086E08093D9
:1017A000E9008FEF9091E800815095FD06C095E12A
:1017B0009A95F1F700008111F5CF8091E80085FF3F
:1017C0002CC040E050E060E170E017C081E0809301
:1017D000E9008FEF9091E800815095FD06C095EDEE
:1017E0009A95F1F700008111F5CF8091E80085FF0F
:1017F00014C040E050E068E070E0CE010E94050EA9
:101800008091E8008E778093E80080E1FE01AAE6EF
:10181000B3E001900D928A95E1F7DF91CF910895A1
:1018200080916404811109C00E945D0F0E94B80F6D
:101830008091E20084608093E20008951092640435
:10184000089508951F93CF93DF93CDB7DEB7A09788
:101850000FB6F894DEBF0FBECDBF80916504843013
:1018600009F045C08091E9008F709091EC0090FFE5
:1018700002C010E801C010E0182B85E08093E90059
:101880008091E80082FF15C08091E80085FF0CC0C0
:1018900040E050E060E270E0CE0101960E944E0E02
:1018A000CE0101960E94F4118091E8008B7780931D
:1018B000E80084E08093E9008091EB0080FF14C091
:1018C0008091EE0087FF10C08091E80085FF03C083
:1018D0001092F100F9CF8091E80080FF05C080915F
:1018E000E8008E778093E8001F701093E900A096BF
:1018F0000FB6F894DEBF0FBECDBFDF91CF911F9121
:10190000089542E061EC81E00E94F80E42E061EC53
:1019100082E00E94F80E42E061EC83E00E94F80E43
:1019200042E261EC84E00E94F80E42E260EC85E065
:101930000E94F80E42E161EC86E00C94F80E809172
:101940006704833009F455C030F4813071F082307F
:1019500009F48EC008958A3009F47AC08B3009F4F6
:1019600060C0893009F09CC020C080916604813A33
:1019700009F096C08091E800877F8093E80080910D
:101980006A0490916B04892B21F060E080E090E084
:1019900003C060E18AE693E070E00E94970E8091B8
:1019A000E8008B778093E800089580916604813287
:1019B00009F076C080916A0490916B04009719F049
:1019C000049709F06DC08091E800877F8093E8005C
:1019D0008091E80082FD05C0809165048111F8CFF7
:1019E0005FC08091F10080937A038091E8008B774B
:1019F00053C080916604813A09F052C080916A0414
:101A000090916B04892B09F04BC08091E800877F8F
:101A10008093E8008091E80080FFFCCF80910C016A
:101A200036C0809166048132D9F580916A04909124
:101A30006B04892BA9F58091E800877F8093E800EB
:101A40000E940C0F8091680480930C010C9438194B
:101A500080916604813221F58091E800877F809330
:101A6000E8000E940C0F8091690480937B03089525
:101A700080916604813AA1F48091E800877F809389
:101A8000E8008091E80080FFFCCF80917B03809389
:101A9000F1008091E8008E778093E8000C940C0FA1
:101AA00008950895089508950C94530D0E94D5202B
:101AB00080916304882329F00E94FF2081110C94F7
:101AC000EF0D089584B7877F84BF88E10FB6F8943F
:101AD00080936000109260000FBE90E080E80FB627
:101AE000F89480936100909361000FBE0E94510DA5
:101AF0000E9459130E945D0F0E94B80F8091E2006E
:101B000084608093E2007894809165048430E1F7EA
:101B10000E945B1382E091E00E9405130E94520D27
:101B200080916504853019F40E94560DF9CF0E940A
:101B30008313F6CF0C9414210C949A0D292F33277C
:101B40002330310599F05CF421303105D9F1223090
:101B50003105E9F58DE890E02AE731E03CC021321B
:101B6000310599F022323105E9F031C099278330EF
:101B7000910568F5FC01EE0FFF1FEE5CFE4F208122
:101B80003181FC01E15DFE4F1AC0653000F5E62FA2
:101B9000F0E0EE0FFF1FEB5DFE4F2081318189E009
:101BA00090E019C0653098F4E62FF0E0DF01AA0F4D
:101BB000BB1FA55EBE4F2D913C91EA5EFE4F80811A
:101BC00090E009C082E190E027E032E004C080E0CC
:101BD00090E020E030E0FA0131832083089580E135
:101BE00089BD82E189BD09B400FEFDCF8091D80096
:101BF0008F7D8093D8008091E00082608093E00028
:101C00008091E00081FDFCCF0895CF92DF92EF92AA
:101C1000FF920F931F93CF93DF937C018B01EA0117
:101C20000E942D0F811131C0209731F08881998158
:101C3000081B190BE80EF91EC12CD12C011511053A
:101C400019F18091E80085FD14C08091E8008E773D
:101C50008093E800209741F0888199818C0D9D1D2B
:101C60009983888385E011C00E942D0F882331F36A
:101C70000CC0F70181917F018093F100015011099F
:101C8000FFEFCF1ADF0ADACF80E0DF91CF911F910B
:101C90000F91FF90EF90DF90CF900895CF92DF9259
:101CA000EF92FF920F931F93CF93DF937C018B01F1
:101CB000EA010E942D0F811131C0209731F08881F7
:101CC0009981081B190BE80EF91EC12CD12C0115A6
:101CD000110519F18091E80085FD14C08091E8009C
:101CE0008B778093E800209741F0888199818C0D53
:101CF0009D1D9983888385E011C00E942D0F882344
:101D000031F30CC08091F100F70181937F01015004
:101D10001109FFEFCF1ADF0ADACF80E0DF91CF9110
:101D20001F910F91FF90EF90DF90CF900895209139
:101D30006C0430916D042617370748F06115710562
:101D400039F42091E8002E772093E80001C0B90112
:101D5000FC0120E061157105B9F1809165048823CB
:101D600009F440C0853009F43FC08091E80083FD4C
:101D70003DC08091E80082FF06C08091E80082FFAC
:101D800026C080E008958091E80080FFE3CF209195
:101D9000F3008091F20090E0922B6115710551F0F3
:101DA0008830910538F421912093F1006150710938
:101DB0000196F3CF21E0089709F020E08091E80038
:101DC0008E778093E800C6CF2111C7CFD6CF809100
:101DD0006504882339F0853039F08091E80083FF6D
:101DE000CCCF04C082E0089583E0089581E0089597
:101DF0008F708093E900EBEEF0E08081816080835A
:101E0000EDEEF0E010826093EC0040838091EE00F4
:101E1000881F8827881F08958091660487FD05C064
:101E20008091E80080FF0EC012C08091E80082FD22
:101E300005C0809165048111F8CF08958091E80074
:101E40008B7708C0809165048111EACF0895809155
:101E5000E8008E778093E80008958091E4009091E7
:101E6000E50045E62091EC0020FF21C02091E8002C
:101E700020FD21C020916504222389F0253089F0BE
:101E80002091EB0025FD0FC02091E4003091E5008A
:101E90002817390739F3415041F0C901E3CF82E0F7
:101EA000089583E0089581E0089584E008952091E5
:101EB000E80022FFDFCF80E008950E94C90F0E9452
:101EC000D10FE0EEF0E0808181608083E8EDF0E00A
:101ED00080818F77808319BCA7EDB0E08C918E7FD5
:101EE0008C9380818F7E80831092640408950F9379
:101EF0001F93CF93DF930E94C90F0E94D10FC8EDAB
:101F0000D0E088818F778883888180688883888102
:101F10008F7D888319BC1092650410926204109220
:101F2000630400EE10E0F80180818B7F808388815C
:101F30008160888342E060E080E00E94F80EE1EE7C
:101F4000F0E080818E7F8083E2EEF0E0808181602E
:101F50008083808188608083F80180818E7F808388
:101F6000888180618883DF91CF911F910F910895BF
:101F7000E8EDF0E080818F7E8083E7EDF0E0808106
:101F80008160808384E082BF81E0809364040C944C
:101F9000770FE8EDF0E080818E7F80831092E20081
:101FA00008951092DA001092E10008951F920F92A6
:101FB0000FB60F9211242F933F934F935F936F931C
:101FC0007F938F939F93AF93BF93EF93FF938091F2
:101FD000E10082FF0BC08091E20082FF07C0809188
:101FE000E1008B7F8093E1000E94220C8091DA0057
:101FF00080FF1FC08091D80080FF1BC08091DA0055
:102000008E7F8093DA008091D90080FF0DC080E13F
:1020100089BD82E189BD09B400FEFDCF81E08093D6
:1020200065040E94100C05C019BC109265040E9442
:102030001E0C8091E10080FF19C08091E20080FFBA
:1020400015C08091E2008E7F8093E2008091E200D3
:1020500080618093E2008091D80080628093D800F4
:1020600019BC85E0809365040E94540D8091E100C5
:1020700084FF30C08091E20084FF2CC080E189BDE4
:1020800082E189BD09B400FEFDCF8091D8008F7D2B
:102090008093D8008091E1008F7E8093E100809151
:1020A000E2008F7E8093E2008091E2008160809365
:1020B000E20080916204882311F084E007C08091DF
:1020C000E30087FF02C083E001C081E080936504E4
:1020D0000E949C0D8091E10083FF29C08091E20065
:1020E00083FF25C08091E100877F8093E10082E03B
:1020F00080936504109262048091E1008E7F80934A
:10210000E1008091E2008E7F8093E2008091E20006
:1021100080618093E20042E060E080E00E94F80E7F
:102120008091F00088608093F0000E94210CFF9164
:10213000EF91BF91AF919F918F917F916F915F913F
:102140004F913F912F910F900FBE0F901F901895B8
:102150001F920F920FB60F9211242F933F934F931C
:102160005F936F937F938F939F93AF93BF93CF931F
:10217000EF93FF93C091E900CF708091EC00109233
:10218000E9008091F000877F8093F00078940E94AE
:10219000E4101092E9008091F00088608093F000D4
:1021A000C093E900FF91EF91CF91BF91AF919F91C3
:1021B0008F917F916F915F914F913F912F910F90F0
:1021C0000FBE0F901F9018951F93CF93DF9300D0F1
:1021D000CDB7DEB7E6E6F4E08091F100819384E0CC
:1021E000EE36F807C9F70E949F0C8091E80083FF44
:1021F000E7C02091660430916704832F90E08A3015
:10220000910508F0DDC0FC01E25AFF4F0C94C02F8D
:10221000203881F0223809F0D3C080916A048F7091
:102220008093E9008091EB0085FB882780F910926C
:10223000E90004C080916304811182E09091E8007C
:10224000977F9093E8008093F1001092F10092C084
:10225000822F8D7F09F0B4C0222319F0223061F063
:10226000AFC080916804813009F0AAC0333009F012
:1022700080E08093630428C080916804811124C0A9
:1022800020916A042F7009F49BC02093E90080918B
:10229000EB0080FF19C08091EB00333011F48062B5
:1022A00011C080618093EB0081E090E0022E01C0BC
:1022B000880F0A94EAF78093EA001092EA0080916E
:1022C000EB0088608093EB001092E9008091E800B9
:1022D000877F53C0211174C0109168041F778091CB
:1022E000E3008078812B8093E3008091E800877F72
:1022F0008093E8000E940C0F8091E80080FFFCCFE3
:102300008091E30080688093E300112311F083E063
:1023100001C082E08093650453C02058223008F049
:102320004FC0AE014F5F5F4F60916A0480916804B7
:10233000909169040E949E0D009709F441C020917C
:10234000E800277F2093E800BC0189819A810E94E0
:10235000970E8091E8008B778093E80031C0203899
:1023600079F58091E800877F8093E800809162048E
:102370008093F1008091E8008E778093E8000E94BE
:102380000C0F1EC021111CC0909168049230C0F443
:102390008091E800877F8093E800909362040E9418
:1023A0000C0F80916204811104C08091E30087FFCB
:1023B00002C084E001C081E0809365040E94810C2A
:1023C0008091E80083FF0AC08091E800877F8093B6
:1023D000E8008091EB0080628093EB000F900F90FB
:1023E000DF91CF911F9108958F929F92AF92BF92EC
:1023F000CF92DF92EF92FF920F931F93CF93DF93D1
:10240000CDB7DEB728970FB6F894DEBF0FBECDBFAD
:10241000EDB6FEB6FC0120813181ADB6BEB6A31A81
:10242000B1080FB6F894BEBE0FBEADBE0DB71EB755
:102430000F5F1F4F722F771F7727771F632F661F3E
:102440006627661F2F773F77772351F0E30FF11D43
:10245000A281B0E0BA2FAA274381A40FB11D02C008
:10246000A0E0B0E0C02E480142E0D42ED01A5D2D8D
:10247000580D482D4C19431740F4FC01E50FF11D90
:102480004081F40141934F01F2CF29836D833A8358
:10249000402F1C830B837E83B887AF835C818A2F98
:1024A00098850E94E61281E00FB6F894FEBE0FBE3A
:1024B000EDBE28960FB6F894DEBF0FBECDBFDF91FC
:1024C000CF911F910F91FF90EF90DF90CF90BF9031
:1024D000AF909F908F900895DF92EF92FF920F93AD
:1024E0001F93CF93DF93CDB7DEB728970FB6F8943D
:1024F000DEBF0FBECDBF29833A834B835C836D83E0
:102500007E838F8398870B811C8180917E03662355
:1025100091F0811123C0F801818190E0982F8827E4
:102520002081820F911D90937D0380937C0381E035
:1025300080937E0311C0882319F010927E030EC091
:10254000F801818190E0982F88272081820F911DCA
:1025500090937D0380937C0382E001C080E0D12CC6
:10256000E82EF12CED2DF0E08A8190E08E199F0984
:10257000E817F907E4F480917C0390917D039C01B6
:102580002E513109223E334038F4E00FF11FEE0D99
:10259000FF1D60810E94DA2F80917C0390917D0362
:1025A000019690937D0380937C03D394DBCF81E0ED
:1025B00028960FB6F894DEBF0FBECDBFDF91CF9146
:1025C0001F910F91FF90EF90DF900895CF93DF93CD
:1025D000CDB7DEB728970FB6F894DEBF0FBECDBFDC
:1025E0003A834B835C836D837E838F83988720310E
:1025F00011F40E946C1281E028960FB6F894DEBFA9
:102600000FBECDBFDF91CF91089590938403809347
:1026100083030895E0918303F0918403309721F0C0
:102620000190F081E02D099480E00895E09183030A
:10263000F0918403309721F00280F381E02D09941A
:102640000895E0918303F0918403309721F0048092
:10265000F581E02D09940895209181033091820342
:102660008217930771F09093820380938103E09126
:102670008303F0918403309721F00680F781E02DE9
:102680000994089520917F03309180038217930766
:1026900071F09093800380937F03E0918303F09126
:1026A0008403309721F00084F185E02D099408958A
:1026B00008950C9458130E944F200E947B030E949F
:1026C000372280936E048F3F51F410926E0480E0A5
:1026D0000E943B221092ED031092EC0308C0982F49
:1026E00091709093ED03869581708093EC030E9426
:1026F00010230E94012D0E94812B0E94D2280E944B
:10270000902A0C944D2E5F926F927F928F929F929F
:10271000AF92BF92CF92DF92EF92FF920F931F93EF
:10272000CF93DF9300D000D01F92CDB7DEB70E94C9
:10273000A90396E8C92E93E0D92E00E010E0AA2460
:10274000A394B12C502E802F0E9493043C01F601DB
:10275000E190F1906F01E826F926E114F104B1F45B
:102760000F5F1F4F0530110569F78FEF89838A834B
:102770001B820E9458208160782F9D838C83498121
:102780005A816B818D810E94401441C08091E60383
:1027900081FD0E949C0420E030E04501022E02C031
:1027A000880C991C0A94E2F7C4018E219F21892B81
:1027B00041F129835A826820792081E0672809F451
:1027C00080E08B830E9458208160782F9D838C83CA
:1027D00049815A816B818D810E94401449815A81BF
:1027E0006B817C818D810E943F20F801EE0FFF1FDD
:1027F000EA57FC4F808191818825992591838083B8
:1028000006C02F5F3F4F2E30310539F6A9CF0E9409
:102810003E200E942826109185030E940A13181753
:10282000D1F00E940A13809385030F900F900F90B0
:102830000F900F90DF91CF911F910F91FF90EF902C
:10284000DF90CF90BF90AF909F908F907F906F90D0
:102850005F900C94E32B0F900F900F900F900F90C0
:10286000DF91CF911F910F91FF90EF90DF90CF906C
:10287000BF90AF909F908F907F906F905F900895E2
:10288000CF93DF93CDB7DEB72B970FB6F894DEBFAB
:102890000FBECDBF4F83588769877A878B878A851C
:1028A0009B85892B31F05F3F11F080E003C04F3FE3
:1028B000E1F781E0811107C04F81588569857A85EC
:1028C0008B850E943F20DE01119686E0FD0111926A
:1028D0008A95E9F785E0FE01379601900D928A9579
:1028E000E1F749815A816B817C818D819E810E94B3
:1028F000041C2B960FB6F894DEBF0FBECDBFDF9140
:10290000CF910895CF93C82F882309F4C3C08CEFCB
:102910008C0F813A48F48C2F0E943D288111BAC057
:102920008C2F0E94811E0CC080E28C0F883058F4DE
:10293000C77081E001C0880FCA95EAF70E94E71FBF
:10294000CF910C9418208BE58C0F833078F4C53A26
:1029500029F0C63A31F482E890E005C081E890E0C1
:1029600002C083E890E0CF910C942C1388E58C0F83
:10297000873108F08FC0C83A09F445C0C93A09F454
:1029800045C0CA3A09F445C0CD3B09F445C0CE3B29
:1029900009F445C0CB3A09F445C0CC3A09F445C026
:1029A000CD3A09F445C0CE3A09F445C0CF3A09F40E
:1029B00045C0C13B09F445C0C03B09F445C0C23B1A
:1029C00009F445C0C33B09F445C0C43B09F445C004
:1029D000C53B09F445C0C63B09F445C0C73B09F4F3
:1029E00045C0C83B09F445C0C93B09F445C0CA3BD2
:1029F00009F445C0CB3B09F445C0CC3B09F045C0C8
:102A00008AE292E044C082EE90E041C089EE90E01C
:102A10003EC08AEE90E03BC08FE690E038C080E791
:102A200090E035C085EB90E032C086EB90E02FC09F
:102A300083EB90E02CC084EB90E029C087EB90E022
:102A400026C08CEC90E023C08DEC90E020C083E8A1
:102A500091E01DC08AE891E01AC082E991E017C0B8
:102A600084E991E014C081E292E011C083E292E037
:102A70000EC084E292E00BC085E292E008C086E2DC
:102A800092E005C087E292E002C080E090E0CF9142
:102A90000C944213CF910895882329F19CEF980F4D
:102AA000913A18F40E94461F0DC090E2980F98309A
:102AB00058F4877091E001C0990F8A95EAF7892F41
:102AC0000E94ED1F0C9418209BE5980F933020F482
:102AD00080E090E00C942C13885A873120F480E039
:102AE00090E00C9442130895882321F00E94E71F80
:102AF0000C9418200895882321F00E94ED1F0C9457
:102B000018200895CF92DF92EF92FF920F931F93B8
:102B1000CF93DF93CDB7DEB728970FB6F894DEBF1B
:102B20000FBECDBF8C0185E0F801DE01119601904A
:102B30000D928A95E1F7F80140813181F28025817B
:102B400022952F7083819481892B31F03F3F31F49E
:102B500081E04F3F19F403C081E001C080E080FDB7
:102B600066C349833A8389819A812F830E943F1EDD
:102B70009E8388870E943E1E0E94661D4E81E42F20
:102B8000E295EF70F0E0E859FF4F2F8168850C94D3
:102B9000C02F842F807F142F1F70882311F012956F
:102BA000107FFF2059F0112309F492C2812F68870A
:102BB0000E94FA1F0E94182068858AC2862F0E94F0
:102BC0004C15112309F433C3812F0E94002028964D
:102BD0000FB6F894DEBF0FBECDBFDF91CF911F912E
:102BE0000F91FF90EF90DF90CF900C941820842FDE
:102BF000807F942F9F70E92E803219F0E29480EF4D
:102C0000E822662319F0613001F129C0FF20A9F004
:102C10008E2D222349F1213039F528960FB6F894EC
:102C2000DEBF0FBECDBFDF91CF911F910F91FF90FF
:102C3000EF90DF90CF900C940A20222319F02130DE
:102C400009F4F5C20E940D202CC0FF20E9F02630C7
:102C500008F0EDC20E94E41F8E2129F022C0FF205F
:102C6000F1F0211115C08E2D28960FB6F894DEBF15
:102C70000FBECDBFDF91CF911F910F91FF90EF90CD
:102C8000DF90CF900C947415253008F0D0C209C0A5
:102C9000F801858180FF1CC28F708583E4CF2111EC
:102CA0001BC28E2D8BC1242F26952695237030E0D4
:102CB0002115310521F021303105C9F0B8C2FF20BE
:102CC00021F0862F942F937002C080E090E0289628
:102CD0000FB6F894DEBF0FBECDBFDF91CF911F912D
:102CE0000F91FF90EF90DF90CF900C942C13FF206A
:102CF00021F0862F942F937002C080E090E02896F8
:102D00000FB6F894DEBF0FBECDBFDF91CF911F91FC
:102D10000F91FF90EF90DF90CF900C944213862F8D
:102D2000FF2019F00E94302502C00E9498252896A5
:102D30000FB6F894DEBF0FBECDBFDF91CF911F91CC
:102D40000F91FF90EF90DF90CF900C941D26842F71
:102D5000837009F076C0F1106AC2262F229526955D
:102D60002770220F220F862F8F70C82ED12CE12CB6
:102D7000F12C022E04C0CC0CDD1CEE1CFF1C0A94AE
:102D8000D2F764FF10C06FE070E080E090E004C014
:102D9000660F771F881F991F2A95D2F76095709547
:102DA0008095909503C060E070E0CB01242F2695BC
:102DB00026952370422F50E042305105D1F0433028
:102DC000510559F16C297D298E299F2941305105E2
:102DD00041F128960FB6F894DEBF0FBECDBFDF914C
:102DE000CF911F910F91FF90EF90DF90CF900C94B7
:102DF0007B1D6C297D298E299F2928960FB6F89472
:102E0000DEBF0FBECDBFDF91CF911F910F91FF901D
:102E1000EF90DF90CF900C948D1D0E947B1DC70119
:102E2000B60128960FB6F894DEBF0FBECDBFDF9176
:102E3000CF911F910F91FF90EF90DF90CF900C9466
:102E4000691DFF2019F0842F817001C086958823A9
:102E500009F4EDC1262F229526952770220F220F07
:102E6000862F8F70C82ED12CE12CF12C022E04C09D
:102E7000CC0CDD1CEE1CFF1C0A94D2F764FF10C0C2
:102E80006FE070E080E090E004C0660F771F881F5D
:102E9000991F2A95D2F7609570958095909503C0FB
:102EA00060E070E0CB01242F269526952370422FF9
:102EB00050E042305105D1F04330510559F16C29B1
:102EC0007D298E299F294130510541F128960FB661
:102ED000F894DEBF0FBECDBFDF91CF911F910F9150
:102EE000FF90EF90DF90CF900C941A1E6C297D29F3
:102EF0008E299F2928960FB6F894DEBF0FBECDBF4E
:102F0000DF91CF911F910F91FF90EF90DF90CF90C5
:102F10000C942C1E0E941A1EC701B60128960FB6EB
:102F2000F894DEBF0FBECDBFDF91CF911F910F91FF
:102F3000FF90EF90DF90CF900C94081E603F30F42C
:102F4000603E08F04BC0603D68F4BDC0613F09F4CD
:102F50006EC008F451C0623F09F47DC0633F09F4BC
:102F60008EC0B1C0FF20E9F0222389F082E52896C7
:102F70000FB6F894DEBF0FBECDBFDF91CF911F918A
:102F80000F91FF90EF90DF90CF900C948214842FDC
:102F90008F7168870E94B31D6885862F8295807F18
:102FA00063CE222311F082E598C0842F8F71688749
:102FB0000E94CE1D6885862F8295807F28960FB649
:102FC000F894DEBF0FBECDBFDF91CF911F910F915F
:102FD000FF90EF90DF90CF900C947B15162F1F7011
:102FE000842F8F71FF2021F00E94B31D812F3CCED2
:102FF0000E94CE1D812FE2CFFF20A9F0253008F0DE
:1030000016C1842F8F7128960FB6F894DEBF0FBEBD
:10301000CDBFDF91CF911F910F91FF90EF90DF9087
:10302000CF900C94ED1D263008F001C1EACFFF20AF
:10303000A1F0842F8F7128960FB6F894DEBF0FBED3
:10304000CDBFDF91CF911F910F91FF90EF90DF9057
:10305000CF900C94B31DFF2061F3842F8F712896BD
:103060000FB6F894DEBF0FBECDBFDF91CF911F9199
:103070000F91FF90EF90DF90CF900C94CE1DFF202A
:1030800091F0842F8F7128960FB6F894DEBF0FBE93
:10309000CDBFDF91CF911F910F91FF90EF90DF9007
:1030A000CF900C94A41D28960FB6F894DEBF0FBEE7
:1030B000CDBFDF91CF911F910F91FF90EF90DF90E7
:1030C000CF900C949F1DFF2029F0222309F4B1CF4B
:1030D000862F4DCF222309F2862F28960FB6F8941B
:1030E000DEBF0FBECDBFDF91CF911F910F91FF903B
:1030F000EF90DF90CF900C944C154F70C8010E9458
:10310000B32228960FB6F894DEBF0FBECDBFDF9175
:10311000CF911F910F91FF90EF90DF90CF900C9483
:10312000B11CF11084C0662341F0842F8F7084306D
:1031300021F0407F862F8F70482B942F9F70492F4E
:1031400050E04230510509F440C0BCF4411551052E
:1031500061F14130510509F06AC028960FB6F89424
:10316000DEBF0FBECDBFDF91CF911F910F91FF90BA
:10317000EF90DF90CF900C94B82A43305105A9F11D
:103180004430510509F053C0862F28960FB6F894A5
:10319000DEBF0FBECDBFDF91CF911F910F91FF908A
:1031A000EF90DF90CF900C94182B28960FB6F894E0
:1031B000DEBF0FBECDBFDF91CF911F910F91FF906A
:1031C000EF90DF90CF900C94A12A28960FB6F89438
:1031D000DEBF0FBECDBFDF91CF911F910F91FF904A
:1031E000EF90DF90CF900C94D42A28960FB6F894E5
:1031F000DEBF0FBECDBFDF91CF911F910F91FF902A
:10320000EF90DF90CF900C94F32A4F70C80128966E
:103210000FB6F894DEBF0FBECDBFDF91CF911F91E7
:103220000F91FF90EF90DF90CF900C94AA02289618
:103230000FB6F894DEBF0FBECDBFDF91CF911F91C7
:103240000F91FF90EF90DF90CF9008950E9407209C
:103250000E94D61F0E9418200E94C9260E941D2687
:1032600080E090E00E942C1380E090E00C944213E8
:103270000E94F71F0C9426190E943F1E292F2295A9
:103280002F7030E02C3031054CF42A3031056CF4CD
:10329000225031092230310590F407C02C3031051D
:1032A00051F02F30310539F00AC0803E10F0803FD8
:1032B00031F481E0089593FB882780F9089580E038
:1032C0000895CF93DF9300D000D01F92CDB7DEB723
:1032D0000F900F900F900F900F90DF91CF91089566
:1032E000CF93DF9300D000D000D0CDB7DEB72696C5
:1032F0000FB6F894DEBF0FBECDBFDF91CF9108951A
:103300001F93CF93DF93C091900316E080919103B8
:10331000C81799F0D0E01C9FF0011D9FF00D1124FB
:10332000EE56FC4F40815181628173818481958189
:103330000E9470192196C770E9CFDF91CF911F913C
:1033400008954091C2035091C3036091C4037091EA
:10335000C5038091C6039091C7030C947019CF9355
:103360008091C70382958F7009F05FC08091C4037C
:10337000882309F45AC020919003A0919103609191
:10338000C2037091C3038091C5039091C60331E0DD
:103390006F3F09F030E0B32FC6E02A1709F445C0AB
:1033A000009721F07F3F21F44B2F03C041E001C083
:1033B00040E030E040FD35C0C29FF001C39FF00DFA
:1033C0001124EE56FC4F418174132BC040816413CD
:1033D00028C04281411125C04381548148175907B3
:1033E00010F441505109481B590B483C5105C8F491
:1033F0008091C7038F7080618093C70386E0829FAE
:10340000F001839FF00D1124E956FC4F80818F70ED
:103410008061808382EC93E00E948215CF910C94AE
:1034200080192F5F3F4F2770B8CFCF910895CF926B
:10343000DF92EF92FF920F931F93CF93DF93CDB75D
:10344000DEB762970FB6F894DEBF0FBECDBF8C011A
:1034500085E0F801DE011D9601900D928A95E1F755
:10346000D8014C9111965C91119712966C9112971C
:103470001396ED90FC9014977091C203E091C303F2
:103480002091C5033091C6032115310531F0EF3F7E
:1034900031F481E07F3F19F403C081E001C080E096
:1034A000B82FB170CB2E80FD6CC1D090C403DD204D
:1034B00009F4F5C0F091C703E216F30638F0C7012E
:1034C000821B930B883C910548F09BC0209530955A
:1034D0002E0D3F1D283C310508F093C08F2F807FB3
:1034E00009F052C0E51314C0741312C0D62E611136
:1034F0000FC0FF70F061F093C7030E94A11982EC26
:1035000093E00E9482158091C703F80185836CC106
:10351000EF2831F05F3F31F481E04F3F19F403C0F1
:1035200081E001C080E080FD03C081E0862701C00A
:1035300080E0F82FF170FF2E80FF1CC08091900377
:103540002091910336E0821709F428C190E0389F5A
:10355000F001399FF00D1124EE56FC4F7181571385
:1035600006C07081471303C07281671303C00196C0
:103570008770E9CFD62E662309F436C18091C70340
:1035800081608093C70353C0E51308C0741306C05D
:10359000611104C0D8011596FC93AEC04D875E87BB
:1035A0008D859E856A8B0E943C196A89882329F142
:1035B000D62E662311F12091C703822F82958F703A
:1035C00090E002970CF460C08091C2039091C30315
:1035D00098878F831986FB86EA862C87CE0107960B
:1035E00051C0E51731F14D875E878D859E856A8BC9
:1035F0000E943C196A8981112EC0C8010E9482155F
:10360000A4C08F2F807F69F77E2DF98AE88A898987
:103610000E94611982EC93E00E948215E2ECF3E0D3
:1036200086E0DF011D928A95E9F70E94A119D12C4D
:10363000DBC07413D8CF6111D6CFD8011596FC9397
:10364000C8010E948215E2ECF3E086E0DF011D92E2
:103650008A95E9F7C9C0D62E662379F22091C7036F
:10366000822F82958F7090E0029774F08091C20350
:103670009091C3039A8389831B82FD82EC822E83FF
:10368000CE0101960E94821586E0F801A2ECB3E01B
:1036900001900D928A95E1F70E94AF196FC0E21672
:1036A000F30628F0C701821B930B9C0104C02095F0
:1036B00030952E0D3F1D283C310508F052C0D62E06
:1036C000662309F49ACFE5132CC074132AC08091A5
:1036D000C70380FD1DC0982F92959F70C9F0D80137
:1036E00015968C9315979F3039F09F5F9295907F38
:1036F0008F70892B15968C93C8010E94821586E0E5
:10370000F801A2ECB3E001900D928A95E1F736C082
:1037100086E0F801A2ECB3E001900D928A95E1F702
:1037200063C04D875E878D859E850E943C198823E6
:1037300079F086E0F801A2ECB3E001900D928A9551
:10374000E1F70E94AF190E94A119DD24D3944CC067
:103750008091C70381608093C703C8010E948215CE
:1037600043C07E2DF98AE88A89890E946119E2ECBA
:10377000F3E086E0DF011D928A95E9F70E94A11926
:1037800033C0662309F439CF4D875E878D859E85CA
:103790000E943C19882309F430CFCBCF4D875E8738
:1037A0008D859E850E943F1E292F22952F7030E027
:1037B000223031052CF49F7041F0811106C00CC0FD
:1037C000243031052CF49F7049F4805E883020F05D
:1037D000C8010E948215CF2CDC2C06C0D80115969A
:1037E0009C91907F91F7F8CF8D2D62960FB6F8944B
:1037F000DEBF0FBECDBFDF91CF911F910F91FF9024
:10380000EF90DF90CF9008951F93CF93DF93CDB7C4
:10381000DEB72C970FB6F894DEBF0FBECDBF4F8337
:10382000588769877A878B879C87CE0107960E9485
:10383000171A8823C1F02F8138858A859B85892BAB
:1038400031F03F3F11F080E003C02F3FE1F781E00E
:10385000811147C04F81588569857A858B859C8504
:103860000E9470193EC086E0FE013796DE01119677
:1038700001900D928A95E1F7FF81E8854A855B8585
:103880004115510531F0EF3F31F481E0FF3F19F46C
:1038900003C081E001C080E080FD23C0209191033E
:1038A00030E0C9010196877099276091900370E01C
:1038B00086179707F1F1F983EA835D834C8396E0DD
:1038C000929FD001939FB00D1124AE56BC4FFE01C4
:1038D000319601900D929A95E1F7809391030E94A1
:1038E000801916E08091900390919103891779F1E6
:1038F000189FC00111248E569C4F0E94171A8823CE
:1039000031F1E09190031E9FF0011124EE56FC4F1F
:103910004081518162817381848195810E947019F7
:103920008091900390E0019687709927809390038F
:10393000D9CF0E9438191092910310929003E2ECB3
:10394000F3E086E0DF011D928A95E9F7CACF2C9655
:103950000FB6F894DEBF0FBECDBFDF91CF911F91A0
:103960000895DF92EF92FF920F931F93CF93DF930F
:103970009C01009709F48AC0E12CF12CDD24D3943A
:10398000E9012196F9018491853709F462C058F460
:10399000843708F04EC0843008F069C08130D1F01F
:1039A000823071F173C0883709F45CC050F48637F7
:1039B00009F454C0873709F069C08E2D0E94F41FA6
:1039C00053C09CE7980F903708F060C08F770E9433
:1039D0004C154FC089010E5F1F4FFE01C49180E25C
:1039E0008C0F883048F4C7708D2D01C0880FCA95A0
:1039F000EAF70E94FA1F15C08C2F0E94821413C090
:103A000089010E5F1F4FFE01C49180E28C0F883048
:103A100060F4C7708D2D01C0880FCA95EAF70E9427
:103A200000200E941820E80124C08C2F0E944C1511
:103A3000FACF2E5F3F4FFE01C491CC2341F08FE9B6
:103A40009FE00197F1F700C00000C150F6CFE901F7
:103A500010C0FE01F490E90122960BC00E94E41F01
:103A6000E82E07C00E94F71F0E94182002C00E9483
:103A700082149F2D992341F0EFE9FFE03197F1F790
:103A800000C000009150F6CF9E017ACFDF91CF9118
:103A90001F910F91FF90EF90DF9008956093CC03FA
:103AA0007093CD038093CE039093CF030E94312C6B
:103AB0000C9426196093C8037093C9038093CA03BA
:103AC0009093CB030E94892C0C94261908950C9492
:103AD0004E1D0F931F930091CC031091CD032091A5
:103AE000CE033091CF03602B712B822B932B1F9130
:103AF0000F910C944E1D0F931F930091CC031091C6
:103B0000CD032091CE033091CF0360237123822314
:103B100093231F910F910C944E1D0F931F930091AF
:103B2000CC031091CD032091CE033091CF036027B9
:103B30007127822793271F910F910C944E1D60E0EF
:103B400070E0CB010C945A1D41E050E060E070E061
:103B500004C0440F551F661F771F8A95D2F7CB010B
:103B6000BA010C945A1D41E050E060E070E004C0DE
:103B7000440F551F661F771F8A95D2F78091C8039F
:103B80009091C903A091CA03B091CB03482B592B44
:103B90006A2B7B2BCB01BA010C945A1D41E050E0FB
:103BA00060E070E004C0440F551F661F771F8A95C0
:103BB000D2F740955095609570958091C80390918B
:103BC000C903A091CA03B091CB03482359236A23A8
:103BD0007B23CB01BA010C945A1D41E050E060E018
:103BE00070E004C0440F551F661F771F8A95D2F7F7
:103BF0008091C8039091C903A091CA03B091CB03EF
:103C0000482759276A277B27CB01BA010C945A1DF4
:103C10000F931F930091C8031091C9032091CA0309
:103C20003091CB03602B712B822B932B1F910F9123
:103C30000C945A1D0F931F930091C8031091C90350
:103C40002091CA033091CB036023712382239323F5
:103C50001F910F910C945A1D0F931F930091C8034D
:103C60001091C9032091CA033091CB0360277127BB
:103C7000822793271F910F910C945A1D0895CF927C
:103C8000DF92EF92FF920F931F93CF93DF93EC019C
:103C9000C090CC03D090CD03E090CE03F090CF0342
:103CA0008091C8039091C903A091CA03B091CB033E
:103CB000C82AD92AEA2AFB2A0FE110E0B701A60197
:103CC000002E04C076956795579547950A94D2F7CC
:103CD00040FF07C0BE01802F0E9440228130910525
:103CE00039F40150110950F7BE0180E00E944022D2
:103CF000DF91CF911F910F91FF90EF90DF90CF90C8
:103D00000895CF92DF92EF92FF920F931F93CF937C
:103D1000DF93F82E80910C018823E9F080910D014A
:103D20008823C9F08F2D8695869586958F3008F06B
:103D3000A4C0E0910E01F0910F01E80FF11D8F2D4D
:103D4000877021E030E001C0220F8A95EAF7818177
:103D5000822B818392C0E090E3034091E103E091E4
:103D60000E01F0910F01442309F472C02091E20387
:103D70008E2D3FEF06E010E0A82FBB27A7FDB095E2
:103D8000EF01CA0FDB1F9A819F1509F476C03F3FF0
:103D900019F4911101C0382FCD010196C6E0D0E091
:103DA000B8010E948A2F8213E7CF2E1151C03F3FE6
:103DB00071F4822F992787FD90950196BE010E948C
:103DC0008A2F8093E30341504093E10341C0832F46
:103DD000992787FD90950196BE010E948A2FEE24B7
:103DE000E394C6E0D0E0082F112707FD10956F017E
:103DF000C00ED11ED60112966C916623A1F0432FFE
:103E0000552747FD5095CF01840F951FDC01129671
:103E10006C93D60112961C92CA010196BE010E94B3
:103E20008A2F382F01C0E394C8010196BE010E9479
:103E30008A2F8213D8CF822F992787FD90958E19CC
:103E40009109069666E070E00E948A2F8093E20353
:103E50002091E203332727FD3095E20FF31FF28212
:103E6000C901019666E070E00E948A2F8093E20308
:103E70008091E1038F5F8093E103DF91CF911F91E8
:103E80000F91FF90EF90DF90CF900895DF92EF9227
:103E9000FF920F931F93CF93DF93482F80910C01D4
:103EA0008823F1F080910D018823D1F0842F86952D
:103EB000869586958F3008F071C0E0910E01F091E3
:103EC0000F01E80FF11D477021E030E0042E01C022
:103ED000220F0A94EAF720958181282321835EC06E
:103EE000E091E303D090E103DD2009F457C0C091D5
:103EF0000E01D0910F010091E203112707FD1095EB
:103F000086E0E82EF12CF0E0DE01AE0FBF1F9D0130
:103F10002E5F3F4F12968C91841336C0D9011C92AC
:103F2000DA94D092E103D11004C01092E30310920E
:103F3000E2032091E203822F992787FD9095059651
:103F400066E070E00E948A2FE817F90739F5409182
:103F5000E303E6E0F0E0822F992787FD9095059630
:103F6000BF010E948A2F9C010596BF010E948A2FE3
:103F70008C0F9D1FDC0112968C91811102C02413BD
:103F8000EACF2093E2030AC0CF010196B7010E9455
:103F90008A2FE82F8017910709F0B5CFDF91CF91D5
:103FA0001F910F91FF90EF90DF90089581E090E0D6
:103FB000E0910E01F0910F01E80FF91F10820196B8
:103FC00080319105A9F708958091E50308959091B6
:103FD000E503982B9093E503089580959091E50370
:103FE00098239093E50308958093E5030895109234
:103FF000E50308959091E403982B9093E4030895CA
:1040000080959091E40398239093E403089510928F
:10401000E40308958093D00308951092D003089587
:1040200080910D01811103C08091E10308950895ED
:10403000E0910E01F0910F018091E5038083E09102
:104040000E01F0910F0180819091E403892B808310
:104050009091D003992361F0E0910E01F0910F014E
:104060008081892B80830E94102081111092D003BF
:1040700080910E0190910F010C9416130895CF9327
:10408000DF9300D000D01F92CDB7DEB70F900F9016
:104090000F900F900F90DF91CF910895089582E0D7
:1040A00084BD93E095BD9AEF97BD80936E0008950F
:1040B0002FB7F8948091E7039091E803A091E9036A
:1040C000B091EA032FBF0895CF92DF92EF92FF9253
:1040D0000F931F932FB7F8944091E7035091E80393
:1040E0006091E9037091EA032FBF6A017B01EE241E
:1040F000FF248C0120E030E0C016D106E206F30672
:1041000010F441505109481B590BCA011F910F91DE
:10411000FF90EF90DF90CF9008951F920F920FB60F
:104120000F9211248F939F93AF93BF938091E703D6
:104130009091E803A091E903B091EA030196A11DD3
:10414000B11D8093E7039093E803A093E903B09334
:10415000EA03BF91AF919F918F910F900FBE0F9087
:104160001F9018950E945D0FF8942FEF87EA91E653
:10417000215080409040E1F700C0000087E090EBC4
:10418000DC018093710490937204A0937304B09344
:1041900074042CE088E190E00FB6F894A895809321
:1041A00060000FBE20936000FFCF809165048430D3
:1041B00019F11092EB0320E488E190E00FB6F89437
:1041C000A895809360000FBE209360000E94EF28A6
:1041D00083B7817F846083BF83B7816083BF789416
:1041E000889583B78E7F83BF88E10FB6F89480935C
:1041F0006000109260000FBE089508950895CF9357
:104200000E94FD200E94A9030E94FE20C0E08C2F86
:104210000E949304892B29F4CF5FC530C1F780E059
:1042200001C081E0CF9108950E9438190C94902A22
:104230001F920F920FB60F9211248F939F93AF93FB
:10424000BF938091EB03811113C08091E70390919C
:10425000E803A091E903B091EA034196A11DB11DC5
:104260008093E7039093E803A093E903B093EA03F4
:10427000BF91AF919F918F910F900FBE0F901F90A4
:104280001895CF93C82F8F3B68F4883A08F046C042
:10429000853AD8F58430A0F4813009F099C081E0E6
:1042A00090E0E3C0883E30F4803E20F58F3B09F477
:1042B0007DC08EC0803F08F48BC090E09065D5C073
:1042C0006091E7037091E8038091E9039091EA031C
:1042D00025E030E040E050E00E949E2F6430710500
:1042E0008105910539F48091EC03882319F00E942F
:1042F00038196EC08C2F8B7F833E21F48091ED03A3
:10430000811166C08C2F90E0B0C0853A09F463C07B
:10431000863A09F063C082E890E4A7C0883A09F4BD
:1043200060C0893A09F460C08A3A09F460C08D3BE4
:1043300009F460C08E3B09F460C08B3A09F460C098
:104340008C3A09F460C08D3A09F460C08E3A09F4E1
:1043500060C08F3A09F460C0813B09F460C0803BC3
:1043600009F460C0823B09F460C0833B09F460C07B
:10437000843B09F460C0853B09F460C0863B09F4C6
:1043800060C0873B09F460C0883B09F460C0893B8A
:1043900009F460C08A3B09F460C08B3B09F460C03B
:1043A0008C3B09F060C08AE296E45FC00E94E41F83
:1043B00080FF9DCF0E9438192FEF80E792E02150B7
:1043C00080409040E1F700C000000E94B2208FCFF3
:1043D00080E090E04AC081E890E447C083E890E440
:1043E00044C082EE94E441C089EE94E43EC08AEE7B
:1043F00094E43BC08FE694E438C080E794E435C091
:1044000085EB94E432C086EB94E42FC083EB94E414
:104410002CC084EB94E429C087EB94E426C08CEC98
:1044200094E423C08DEC94E420C083E895E41DC09F
:104430008AE895E41AC082E995E417C084E995E416
:1044400014C081E296E411C083E296E40EC084E2D7
:1044500096E40BC085E296E408C086E296E405C0C7
:1044600087E296E402C080E094E4CF91089588E06A
:1044700090E00C94C62F682F88E090E00C94EC2F0D
:104480000E946203803EA8F4803C00F5813309F469
:104490005CC038F4893209F452C08A3209F45BC036
:1044A0005FC08933B1F08238A1F0853309F441C08F
:1044B00057C0833E41F128F4803E99F0823EB9F026
:1044C0004FC0863E31F1873E71F14AC00E946603BB
:1044D000089590916F0490FD02C091FF41C080EE5D
:1044E0003FC080916F0480FFFACF89E339C080918B
:1044F0006F0482FF0CC080916F0484FF02C080E0D3
:104500002FC083EE2DC080916F0482FFF4CF82EE26
:1045100027C080916F0483FF0AC080916F0484FDDF
:10452000EECF87EE1DC080916F0483FFF6CF86EE3D
:1045300017C080916F0485FF06C089E211C0809189
:104540006F0485FFFACF85E30BC080916F0486FF6F
:1045500006C08AE205C080916F0486FFFACF81E32E
:104560000E944121089580E090E00895BF92CF928B
:10457000DF92EF92FF920F931F93CF93DF938C0103
:10458000B12CEE24E394F12C8B2D0E9493046C014A
:10459000C0E0D0E097010C2E02C0220F331F0A9416
:1045A000E2F72C213D21232BB1F06C2F7B2D80E0F5
:1045B0000E9440229C018017910759F0832F807E32
:1045C000932F907C11F0803A31F430E020173107BE
:1045D00011F481E009C02196CE30D105D9F6B3940B
:1045E00085E0B812D1CF80E0DF91CF911F910F917C
:1045F000FF90EF90DF90CF90BF900895CF93DF931F
:10460000EC018CE290E00E94B622882329F0CE01D2
:10461000DF91CF910C94B62280E0DF91CF91089585
:10462000CF930E948024811102C00E945B24C5E6C2
:10463000C15049F00E94A9038FE39CE90197F1F76B
:1046400000C00000F5CF89E290E00E94FE228111B7
:1046500030C18AE290E00E94FE22882341F00E944D
:104660007A240E945B240E94D82D0E943D2D85E073
:1046700090E00E94FE2281110E94B2200E944E20F2
:104680000E948B248093E60387E090E00E94FE2244
:104690008823B1F18BE190E00E94FE22882351F043
:1046A0009091E60391FB882780F921E0822780FB27
:1046B00091F924C08EE090E00E94FE22882351F000
:1046C0009091E60392FB882780F921E0822780FB06
:1046D00092F914C080E190E00E94FE229091E603DE
:1046E000882341F093FB882780F921E0822780FB13
:1046F00093F904C0892F809580FB90F99093E6038D
:104700008091E6030E948F240E949D2480936F0471
:1047100080EE90E00E94FE22882341F080916F0499
:10472000982F909590FB80F980936F0489E390E037
:104730000E94FE22882359F090916F0491FB8827F4
:1047400080F921E0822780FB91F990936F0482EE3B
:1047500090E00E94FE22882359F090916F0492FB12
:10476000882780F921E0822780FB92F990936F04DB
:1047700086EE90E00E94FE22882359F090916F040B
:1047800093FB882780F921E0822780FB93F990939F
:104790006F0483EE90E00E94FE22882359F09091EE
:1047A0006F0494FB882780F921E0822780FB94F92D
:1047B00090936F0485E390E00E94FE22882359F0D5
:1047C00090916F0495FB882780F921E0822780FB78
:1047D00095F990936F0481E390E00E94FE22882374
:1047E00059F090916F0496FB882780F921E0822789
:1047F00080FB96F990936F0481E190E00E94FE2285
:10480000882359F090916F0497FB882780F921E065
:10481000822780FB97F990936F0480916F040E9428
:10482000A12480916F0487FB882780F980930D0174
:1048300087E290E00E94FE22C82F8EE190E00E9465
:10484000FE228111C2608FE190E00E94FE22811160
:10485000C46080E290E00E94FE228111C86081E283
:1048600090E00E94FE228111C06182E290E00E94ED
:10487000FE228111C06283E290E00E94FE2281113B
:10488000C06484E290E00E94FE22882311F0C06898
:1048900002C0CC2329F08C2F0E9498246C2F03C0D7
:1048A0000E949424682F70E080E090E0CF910C94F7
:1048B000671DCF9108956DEE7EEF80E090E00E943D
:1048C000023060E082E090E00E94EC2F60E083E044
:1048D00090E00E94EC2F60E084E090E00E94EC2FDA
:1048E00060E085E090E00E94EC2F60E086E090E0E0
:1048F0000C94EC2F6FEF7FEF80E090E00C9402308F
:1049000080E090E00E94D42F21E08D3E9E4F09F080
:1049100020E0822F089582E090E00C94C62F682F4B
:1049200082E090E00C94EC2F83E090E00C94C62F92
:10493000682F83E090E00C94EC2F84E090E00C94DE
:10494000C62F682F84E090E00C94EC2F86E090E076
:104950000C94C62F682F86E090E00C94EC2F809189
:10496000F00380FF0BC06091130185E0689FB001E8
:10497000112475956795759567952AC081FF09C0C3
:104980006091130185E0689FB001112475956795CA
:104990001FC082FF07C06091130185E0689FB001CE
:1049A000112416C04091F1034423C9F06091120113
:1049B000461788F72091130185E0289F9001112464
:1049C000429FC001439F900D112470E00E948A2FE6
:1049D0006038710540F46115710539F002C065E079
:1049E00070E0862F08958FE7089581E00895809103
:1049F000F00380FF08C06091110170E07595679524
:104A00007595679521C081FF06C06091110170E026
:104A10007595679519C082FF04C06091110170E01F
:104A200010C08091F1038823C1F0609110018617B6
:104A3000A0F790911101989FC001112470E00E948D
:104A40008A2F6038710528F46115710521F0862FD1
:104A500008958FE7089581E0089561E070E0F4CF54
:104A6000803F21F40E94AF24819504C0813F29F446
:104A70000E94AF248093F4030895823F21F40E94A2
:104A8000AF24819504C0833F29F40E94AF24809312
:104A9000F3030895893F19F40E94F72405C08A3F63
:104AA00031F40E94F72481958093F50308958B3F9C
:104AB00021F40E94F724819504C08C3F29F40E94C0
:104AC000F7248093F6030895843F21F48091F20344
:104AD000816017C0853F21F48091F203826011C08C
:104AE000863F21F48091F20384600BC0873F21F45C
:104AF0008091F203886005C0883F31F48091F20311
:104B000080618093F20308958D3F21F48091F0033A
:104B100081600BC08E3F21F48091F003826005C05C
:104B20008F3F29F48091F00384608093F00308950F
:104B3000803F39F48091F40387FF6CC01092F40336
:104B400069C0813F29F48091F4031816BCF362C058
:104B50009091F303823F29F497FF5CC01092F30316
:104B600059C0833F19F41916CCF354C0893F41F45E
:104B70008091F50318160CF04DC01092F5034AC051
:104B80008A3F29F48091F50387FF44C0F6CF8B3F1D
:104B900039F48091F60387FF3DC01092F6033AC0C6
:104BA0008C3F29F48091F6031816BCF333C0843F80
:104BB00021F48091F2038E7F17C0853F21F480910C
:104BC000F2038D7F11C0863F21F48091F2038B7F29
:104BD0000BC0873F21F48091F203877F05C0883F97
:104BE00031F48091F2038F7E8093F20313C08D3FE6
:104BF00021F48091F0038E7F0BC08E3F21F48091D1
:104C0000F0038D7F05C08F3F29F48091F0038B7FE7
:104C10008093F0038091F30381110EC08091F4031F
:104C200081110AC08091F503811106C08091F603BD
:104C3000811102C01092F103089582EF93E00E9467
:104C400021130E9458209093EF038093EE03089560
:104C50001F93CF93DF938091EE039091EF030E9417
:104C600064204091F103442321F02091140130E0AD
:104C700006C0209115015AE0259F9001112482174A
:104C8000930708F482C08091F3031091F403D0914C
:104C9000F503C091F603811107C0111105C0D111B0
:104CA00003C0CC2309F471C04F3F19F04F5F40930C
:104CB000F103181624F40E94AF248093F30380912B
:104CC000F30387FF05C00E94AF2481958093F3030F
:104CD000111624F40E94AF248093F4038091F4030E
:104CE00087FF05C00E94AF2481958093F4036091F3
:104CF000F303662339F11091F403112319F1772797
:104D000067FD7095872F972F0E94872E23E333E34B
:104D100043E35FE30E94EB2E0E94542E6093F30363
:104D2000612F772767FD7095872F972F0E94872E19
:104D300023E333E343E35FE30E94EB2E0E94542E10
:104D40006093F4031D1624F40E94F7248093F50366
:104D50008091F50387FF05C00E94F7248195809319
:104D6000F5031C1624F40E94F7248093F603809127
:104D7000F60387FF05C00E94F72481958093F60310
:104D8000DF91CF911F910C941D26DF91CF911F9140
:104D90000895E2EFF3E085E0DF011D928A95E9F7DF
:104DA0001092F1031092F0030895833081F128F4FA
:104DB000813059F08230D1F00895853009F449C02E
:104DC000B8F1863009F456C0089520911501862F58
:104DD00090E0820F911D8F3F910520F4620F609348
:104DE000150108958FEF8093150108952091140106
:104DF000862F90E0820F911D8F3F910520F4620F66
:104E00006093140108958FEF809314010895209109
:104E10001301862F90E0820F911D8F3F910520F4A2
:104E2000620F6093130108958FEF8093130108952B
:104E300020911201862F90E0820F911D8F3F9105E6
:104E400020F4620F6093120108958FEF8093120196
:104E5000089520911101862F90E0820F911D8F3FC0
:104E6000910520F4620F6093110108958FEF8093F4
:104E70001101089520911001862F90E0820F911D5D
:104E80008F3F910520F4620F6093100108958FEF1A
:104E9000809310010895833011F128F4813049F096
:104EA000823091F00895853081F120F18630C1F192
:104EB000089580911501681720F4861B80931501D1
:104EC000089510921501089580911401681720F437
:104ED000861B809314010895109214010895809107
:104EE0001301681720F4861B809313010895109214
:104EF0001301089580911201681720F4861B809396
:104F000012010895109212010895809111016817FD
:104F100020F4861B809311010895109211010895C9
:104F200080911001681720F4861B8093100108956A
:104F3000109210010895482F50E0FA013697E3349B
:104F4000F10520F4E858FF4F0C94C02F80E008953D
:104F50000E948B240E949D240E94A62488C08091D8
:104F6000E603817F8E7F8093E60381E08093F803E0
:104F700008950E9438192FEF83ED90E3215080406F
:104F80009040E1F700C000000E94B22070C09091F4
:104F9000E603892F817090FF03C0917F9E7F27C019
:104FA00091609093E60363C09091E60391FB88279C
:104FB00080F921E0822780FB91F913C09091E603EC
:104FC00092FB882780F921E0822780FB92F909C0B3
:104FD0009091E60393FB882780F921E0822780FBEC
:104FE00093F99093E603882309F441C0916090936C
:104FF000E60308950E94381980910D0191E08927F8
:1050000080930D0134C061E070E080E090E00DC05D
:1050100023EE280F61E070E080E090E004C0660FAE
:10502000771F881F991F2A95D2F70E94671D0E943B
:1050300038191DC027ECEDCF91E08091ED0381116F
:1050400090E09093ED0380916E0490FB80F90BC08B
:1050500091E08091EC03811190E09093EC038091BA
:105060006E0490FB81F980936E040E943B2281E0E4
:10507000089580E0089580E00895CF93C82F80912F
:10508000F803813069F018F08230B1F181C0A0914D
:105090000E01B0910F018C91823209F07BC007C0E4
:1050A000A0910E01B0910F018C91823249F48C2FA6
:1050B0000E94392881111DC08C2F0E949B271AC085
:1050C0008C2F0E943B28811114C0C43179F048F420
:1050D000CB3079F0C03109F061C082E08093F803F1
:1050E00008C0C93219F0C83321F058C01092F80333
:1050F00055C081E0817054C0C93291F120F5C431AE
:1051000079F1B0F4C73009F047C08EE18093150102
:1051100082E3809314018AE08093130184E18093F9
:10512000120188E08093110188E28093100134C05D
:10513000CE51C63088F5EC2FF0E0E95CFC4F808161
:105140008093F70329C0CE34E9F020F4CB3421F565
:105150006AE013C0C13579F0C235F1F461E00DC0E9
:105160008091F703882319F01092F70315C081E0AE
:105170008093F80315C061E006C08091F7030E9498
:10518000D5260AC06AE08091F7030E944B2704C02D
:105190001092F80380E004C081E002C080E0AACF52
:1051A000CF910895E1E8F0E080818860808380817C
:1051B000816080838FB7F89493E09093890090ED9D
:1051C000909388008FBF0C94E12CEFE6F0E0808193
:1051D0008260808381E0809319040C94FC2CCF932F
:1051E00080916F008D7F80936F0010921904C0E052
:1051F0008C2F0E94EF2CCF5FC530D1F7809119041E
:10520000CF910C94FC2C809118048F61809318042A
:105210000895CF9310921804C0E08C2F0E94EF2CB9
:10522000CF5FC530D1F780911904CF910C94FC2C3D
:1052300080930E0480930F048093100480931104D4
:10524000809312040895E82FF0E0E25FFB4F408165
:10525000242F30E08FEF90E0861B9109821793078F
:105260001CF48FEF80830895640F60830895E82F06
:10527000F0E0E25FFB4F8081861710F41082089502
:10528000861B8083089580910D048F6180930D04A7
:10529000089510920D04089590910C0421E030E0DF
:1052A000082E01C0220F0A94EAF7662311F0292B79
:1052B00002C02095292320930C040895CF93DF93F7
:1052C000D82FC0E06D2F8C2F0E944C29CF5FC530A6
:1052D000C9F7DF91CF91089580930B0408958091D1
:1052E00005048F61809305040895109205040895C4
:1052F0008093030408951F920F920FB60F9211240A
:10530000EF92FF920F931F932F933F934F935F93CF
:105310006F937F938F939F93AF93BF93CF93DF93BD
:10532000EF93FF938091FC038F5F8093FC0303E175
:1053300014E0C0E0D0E0FC2E2091180430E00C2EE8
:1053400002C0369527950A94E2F720FF1AC0809193
:10535000FC0381110DC0F8018081882319F08C2F86
:105360000E94E22CFE01E25FFB4F8081F801808306
:105370009091FC03F8018081981303C08F2D0E9447
:10538000EF2C21960F5F1F4FC530D105A1F68091FC
:10539000FB038F5F8093FB03803408F4AAC0109254
:1053A000FB03E0900D04E11005C0F0900504F1103E
:1053B0003BC09FC08091FA038F5F8093FA03909166
:1053C0000B04981790F71092FA0306E014E0C0E07F
:1053D000D0E0F12CC7010C2E02C0969587950A9457
:1053E000E2F780FF1AC0F8018081882319F081500C
:1053F000808313C080910C0490E00C2E02C096951F
:1054000087950A94E2F761E080FF04C08C2F0E9428
:10541000372903C08C2F0E94232921960F5F1F4F2D
:10542000C530D105B9F6C1CF8091F9038F5F809364
:10543000F90390910304981708F05BC01092F903E8
:105440001091FD0300910404AEEFB3E080E090E022
:1054500041E050E02F2D30E0082E02C03695279510
:105460000A94E2F720FF39C06C91E62FF0E0E55C8A
:10547000FB4FE491EC01C25FDB4FE883212F30E06A
:10548000082E02C0369527950A94E2F720FF19C02E
:10549000611115C0BA01082E01C0660F0A94EAF71F
:1054A00060951623202F30E0082E02C036952795F0
:1054B0000A94E2F720FF11C00623F6220EC06150C5
:1054C0000BC06F3741F49A01082E01C0220F0A94D5
:1054D000EAF7122B02C06F5F6C930196119685302C
:1054E000910509F0B7CFF09205041093FD030093E6
:1054F0000404FF91EF91DF91CF91BF91AF919F9104
:105500008F917F916F915F914F913F912F911F915B
:105510000F91FF90EF900F900FBE0F901F90189576
:105520000E948024811102C00E945B240E94A62454
:105530008093700480FF02C0869501C080E00C94C7
:105540009D0480917004982F9695292F30E0283083
:1055500031054CF49F5F990F8170892B8160809396
:1055600070040E94AA248091700486950C949D0476
:1055700080917004982F969591F09158990F8170B1
:10558000892B809370048E7F91E009F490E08091E4
:10559000700490FB80F9809370040E94AA2480918B
:1055A000700486950C949D0480917004982F9095BA
:1055B000917090FB80F980937004992339F0982FB3
:1055C0009E7F21F4817082608093700480917004CA
:1055D0000E94AA248091700480FF02C0869501C0B9
:1055E00080E00C949D0430917004232F26952F5F4A
:1055F0002F77822F90E0317009972CF4220F232B04
:105600002093700402C030937004809170048E7FE8
:1056100091E009F490E08091700490FB80F9809310
:1056200070040E94AA248091700486950C949D04B5
:10563000880F909170049170982B909370049E7FC6
:1056400021E009F420E08091700420FB80F9809330
:1056500070040E94AA248091700486950C949D0485
:10566000EF92FF920F931F93CF93DF93F82EE62EC6
:1056700000911F040827611101C0E1F1C0E0D0E0F2
:1056800010E08C2F9C2F2091180430E00C2E02C0CB
:10569000369527950A94E2F720FF0BC020911B0452
:1056A00030E00C2E02C0369527950A94E2F720FDD3
:1056B0001BC0E11009C09801092E02C0369527953C
:1056C0000A94E2F720FF10C020911A042F2530E041
:1056D00002C0369527959A95E2F720FF03C00E94F5
:1056E000F60402C00E942C052196C530D10549F66A
:1056F000F0921F04DF91CF911F910F91FF90EF90D7
:1057000008950F931F93CF93DF93C0E0D0E001E0A3
:1057100010E08C2F0E94522D94FF0BC080911A0430
:1057200098010C2E01C0220F0A94EAF7822B809375
:105730001A0495FF0BC080911B0498010C2E01C028
:10574000220F0A94EAF7822B80931B049F70892F03
:1057500090E08230910589F083309105D1F081305D
:10576000910511F50C2E01C0880F0A94EAF790916B
:105770001D04982B90931D0417C020911C04C80190
:105780000C2E01C0880F0A94EAF7282B20931C04E2
:105790000BC020911E04C8010C2E01C0880F0A9472
:1057A000EAF7282B20931E042196C530D10509F075
:1057B000B0CF0E94F10461E080E0DF91CF911F91B2
:1057C0000F910C94302BCF92DF92EF92FF920F93B8
:1057D0001F93CF93DF9390911E049923C9F1D0902A
:1057E0001F04C0E0D0E0E82EF12C01E010E0209191
:1057F0001E0430E08C2F0C2E02C0369527950A949B
:10580000E2F720FF15C00E94522D970102C0359586
:1058100027958A95E2F7C90198010C2E01C0220F45
:105820000A94EAF780FF02C0D22A02C02095D22251
:105830002196C530D105D9F660E08D2DDF91CF914D
:105840001F910F91FF90EF90DF90CF900C94302B31
:10585000DF91CF911F910F91FF90EF90DF90CF904C
:105860000895AF92BF92CF92DF92EF92FF920F9383
:105870001F93CF93DF936B017C0180911D048823DC
:10588000E9F1B0901F04C0E0D0E001E010E0209109
:105890001D0430E00C2E02C0369527950A94E2F7DD
:1058A00020FF1AC08C2F0E94522DA701960104C020
:1058B00056954795379527958A95D2F7DA01C9010C
:1058C00098010C2E01C0220F0A94EAF780FF02C053
:1058D000B22A02C02095B2222196C530D105B9F670
:1058E00060E08B2DDF91CF911F910F91FF90EF9092
:1058F000DF90CF90BF90AF900C94302BDF91CF9181
:105900001F910F91FF90EF90DF90CF90BF90AF90DD
:105910000895AF92BF92CF92DF92EF92FF920F93D2
:105920001F93CF93DF936B017C0180911C0488232C
:10593000E9F1B0901F04C0E0D0E001E010E0209158
:105940001C0430E00C2E02C0369527950A94E2F72D
:1059500020FF1AC08C2F0E94522DA701960104C06F
:1059600056954795379527958A95D2F7DA01C9015B
:1059700098010C2E01C0220F0A94EAF780FF02C0A2
:10598000B22A02C02095B2222196C530D105B9F6BF
:1059900060E08B2DDF91CF911F910F91FF90EF90E1
:1059A000DF90CF90BF90AF900C94302BDF91CF91D0
:1059B0001F910F91FF90EF90DF90CF90BF90AF902D
:1059C0000895089520911B0430E0082E02C03695FA
:1059D00027950A94E2F720FD0C94F604089520918F
:1059E0001B0430E0082E02C0369527950A94E2F792
:1059F00020FD0C942C05089561E080911F040C9407
:105A0000302BCF92DF92EF92FF920F931F93CF93A1
:105A1000DF9300E214E09EE1E92EF12CC0E0D0E03B
:105A2000C7010E94D42FF80191838083019699F4D5
:105A30006E01CC0CDD1CC601805E9B4F6C018C2F6F
:105A40000E94E804F60191838083F80160817181EE
:105A5000C7010E9402302196F2E0EF0EF11C0E5FAA
:105A60001F4FC530D105E1F6DF91CF911F910F9106
:105A7000FF90EF90DF90CF9008951F93CF93DF9327
:105A8000CEE1D0E010E0812F0E94E804BC01CE01FD
:105A90000E9402301F5F22961530A9F7DF91CF9147
:105AA0001F910895E82FF0E0EE0FFF1FE05EFB4F1F
:105AB000808191810895DF92EF92FF920F931F935F
:105AC000CF93DF9382E390E00E94D42F7C01C0E06B
:105AD000D0E00DEE1EEF0E947703D82E0E947903CE
