:100000000C941C020C9463020C9463020C94630223
:100010000C9463020C9463020C9463020C946302CC
:100020000C9463020C9463020C94350E0C94070F2D
:100030000C94B51D0C9463020C9463020C9463023F
:100040000C9463020C94AE260C9463020C9463022D
:100050000C9463020C941D1E0C9463020C946302B6
:100060000C9463020C9463020C9463020C9463027C
:100070000C9463020C9463020C9463020C9463026C
:100080000C94E9090C9463020C9463020C946302CF
:100090000C9463020C9463020C9463020C9463024C
:1000A0000C9463020C9463020C9463027A027C0247
:1000B0007E02800282028402860288026F0F920F03
:1000C0004D10920F4D10D70FFA0F4D101C102F101E
:1000D0003613361363136313BE13F81361166116D8
:1000E000101461160D150D15C815DE1561164D1687
:1000F000016202620162026200F1A100D100D2003D
:10010000D0000000F0000002F003F004F005F0065B
:10011000F007F008F009F0C51E1F20212223242536
:1001200026272D2E2A2B141A0815171C180C12130B
:100130002F303139041607090A0B0D0E0F33340026
:1001400028E1001D1B061905111036373800E5E0BF
:10015000E3E200002C00000000E6C0E7E4353A3B93
:100160003C3D3E3F4041424344454C0101010101B9
:1001700001B40149014647480101C9CACBCCCDCEE3
:100180000101014A4B00010100C7C8C1C2C3AAA9AD
:10019000A84D4E0001010101000001000000000116
:1001A000010101001080FF01230020643214643239
:1001B00014783C1E1E140A05000000000101010213
:1001C00002030405050607090A0B0C0E0F11121491
:1001D0001517191B1D1F212325282A2C2F313436D2
:1001E000393B3E414346494C4F5255585A5D616434
:1001F000676A6D707376797C7F8386898C8F929520
:10020000989B9EA2A5A7AAADB0B3B6B9BCBEC1C407
:10021000C6C9CBCED0D3D5D7DADCDEE0E2E4E6E85F
:10022000EAEBEDEEF0F1F3F4F5F6F8F9FAFAFBFC8F
:10023000FDFDFEFEFEFFFFFFFFFFFFFFFEFEFEFDDA
:10024000FDFCFBFAFAF9F8F6F5F4F3F1F0EEEDEB5C
:10025000EAE8E6E4E2E0DEDCDAD7D5D3D0CECBC9FB
:10026000C6C4C1BEBCB9B6B3B0ADAAA7A5A29E9B79
:100270009895928F8C898683807C797673706D6A6D
:100280006764615D5A5855524F4C494643413E3B65
:10029000393634312F2C2A282523211F1D1B1917ED
:1002A000151412110F0E0C0B0A090706050504039D
:1002B000020201010100000000010102020202022B
:1002C00002030303030303030303030303030304FE
:1002D00004040404040404040404040505050505D9
:1002E00005050505050606060606060606070707B0
:1002F000070707070808080808080909090909097C
:100300000A0A0A0A0A0B0B0B0B0B0C0C0C0C0C0D3B
:100310000D0D0D0E0E0E0E0F0F0F101010101111EF
:10032000111212121313131414141515161616178E
:100330001718181919191A1A1B1B1C1C1D1D1E1E13
:100340001F20202121222323242425262627282874
:10035000292A2B2B2C2D2E2F3030313233343536A9
:100360003738393A3B3C3D3E3F40414244454647A1
:10037000494A4B4C4E4F5152535556585A5B5D5E4D
:100380006062636567696B6D6E70727476797B7D90
:100390007F818486888B8D909295979A9D9FA2A548
:1003A000A8ABAEB1B4B7BABEC1C4C8CBCFD3D6DA4E
:1003B000DEE2E6EAEEF2F8FF0000000000000000D6
:1003C0000000010101020202030304040505060600
:1003D000070808090A0B0B0C0D0E0F10111213154C
:1003E0001617191A1B1D1E2022232527292B2D2FF6
:1003F000313335383A3D3F4244474A4D50535659C0
:100400005C5F6266696C7074777B7E82868A8E918F
:1004100095999DA1A5A9ADB0B4B8BCC0C3C7CBCEBA
:10042000D2D5D8DBDFE2E4E7EAECEFF1F3F5F7F859
:10043000FAFBFCFDFEFFFFFF11241FBECFEFDAE049
:10044000DEBFCDBF04B603FE27C08091110490919A
:100450001204A0911304B09114048730904BA7406C
:10046000B04BD1F4109211041092120410921304A4
:100470001092140414BE84B7877F84BF0FB6F8941B
:10048000A895809160008861809360001092600060
:100490000FBEE0E0F8E3099512E0A0E0B1E0EAEB7E
:1004A000F9E502C005900D92AA3FB107D9F724E003
:1004B000AAEFB2E001C01D92A131B207E1F70E949C
:1004C000030C0C94DB2C0C9400008CE890E0089555
:1004D0008FE090E00895FC0182818823D1F1862F7E
:1004E00090E0FC013297E830F105A0F4EA5AFF4FA2
:1004F0000C94962C0C949D070C9493070C947706FF
:100500000C945F060C94B1060C9496060C94E606C7
:100510000C94CB06662319F0613069F008950E94AF
:10052000041D827231F00E94041D80FD02C085E32B
:1005300009C089E207C00E94041D82FF02C08DE34A
:1005400001C081E28093FA028091FA020E94C511F3
:1005500006C0611106C08091FA020E9498120C94A4
:10056000381D6130C1F30895611104C0FC0182811E
:10057000811103C080E090E0089580EF90E008953D
:10058000462F672F0C94872A805C0E947B2A08954F
:1005900087E191E0089589EF90E008958AB1807D28
:1005A0008AB98BB1807D8BB9089585E008958EE07E
:1005B000089580E885BF85BF0E9460070E94CE0233
:1005C00080B38C7F80BB81B3836081BB6E98769A49
:1005D0008AB18F728AB98BB1806D8BB987B18F73F5
:1005E00087B988B1806C88B984B1847484B985B1C5
:1005F0008B6B85B9E5E0F3E0ABEFB2E011921192BD
:100600001D921D9283E0EF30F807C1F70895CF9255
:10061000DF92EF92FF920F931F93CF93DF931F927E
:10062000CDB7DEB70BEF12E0680140E0FF24F39492
:10063000B5E0EB2E423071F018F4413041F004C0C7
:10064000433059F0443061F0509A58980BC0519A99
:10065000599808C0529A5A9805C0539A5B9802C09C
:10066000559A5D9880EA8A95F1F72FB121702F2570
:1006700030E0799903C082E090E002C080E090E031
:10068000282B392B669903C084E090E002C080E0FB
:1006900090E0822B932B66B1062E000C770B6095B1
:1006A00070959B012227330F221F3327A3E0220FCF
:1006B000331FAA95E1F7282B392B369903C080E127
:1006C00090E002C080E090E0B901682B792B23B163
:1006D000022E000C330B20953095C9018827990F05
:1006E000881F9927E5E0880F991FEA95E1F7862B87
:1006F000972B4C9903C020E430E002C020E030E0AA
:10070000822B932B199903C020E830E002C020E02F
:1007100030E0822B932B189903C0A0E0B1E002C017
:10072000A0E0B0E08A2B9B2B1D9903C0E0E0F2E033
:1007300002C0E0E0F0E08E2B9F2B1C9903C020E06C
:1007400034E002C020E030E0BC01622B732B29B101
:10075000022E000C330B20953095C9018827990F84
:10076000881F9927982F8827990F990F990F862B03
:10077000972B4E9903C020E030E102C020E030E02A
:10078000822B932B1B9903C020E030E202C020E0B3
:1007900030E0822B932BD6012D913C911197281795
:1007A000390721F08D939C93E092000149830E94C8
:1007B000CE0249814F5FB2E0CB0ED11C453009F02B
:1007C00039CF809100018823C1F0815080930001CE
:1007D000882339F0EFE9FFE03197F1F700C000001E
:1007E0000CC0E5E0F3E0D8018D919D918D018193DE
:1007F0009193B3E005301B07B1F781E00F90DF91D3
:10080000CF911F910F91FF90EF90DF90CF900895BF
:10081000E82FF0E0EE0FFF1FEB5FFC4F808191812E
:1008200008950895CF93C82F8730A0F4843000F541
:100830008130D0F10E941F260E943A260E9477261E
:100840000E94A826EC2FF0E0ED55FE4F8491CF9149
:100850000C944C268730C9F0883031F50E941F2651
:100860000E943A260E9471260E94A82681E016C0A6
:100870000E941F260E943A260E9477260E94A226E6
:1008800086E08C1BCF910C94AB260E941F260E9401
:100890003A260E9471260E94A82680E00E94942693
:1008A00083E0CF910C949F260E9477260E94A82671
:1008B0000E944026CF910C942926E82FF0E0EE0FFD
:1008C000FF1FE955FE4F859194910895229A2A9A27
:1008D000269A2E980895882319F0813019F00895EA
:1008E0002A9808952E9A0895882319F0813019F0D6
:1008F00008952A9A08952E9808952EB1342F309590
:1009000023233EB1432B3FB7F894FC01680F791FB6
:10091000E617F70789F0819198E04EB9000000C012
:1009200087FF2EB9880F000000C000C000C02EB99C
:1009300000C09A9591F7ECCF3FBF08952DB1242BBD
:100940002DB99B01220F331F620F731F0E947D047C
:1009500087EC90E00197F1F700C00000089544E0B3
:100960000C949E04AF92BF92CF92DF92EF92FF92CF
:100970000F931F93CF93DF936C01790150E0FA013D
:10098000E854FD4F44918FEF90E0FC01E61BF10924
:10099000E854FD4FE491E09509F495C0C42FD0E0F0
:1009A0008E1B91098C9F90018D9F300D9C9F300D67
:1009B0001124E32F8CE3A82EB12CC601B5010E94AF
:1009C0006E2CDC016230710509F446C0D0F461156B
:1009D000710599F16130710509F079C0C31BD10926
:1009E000B501681B790BC69FC001C79F900DD69FAC
:1009F000900D1124B5010E946E2C032F060F142FA9
:100A000067C06430710509F44BC0B8F165307105F9
:100A100009F05DC0C31BD109B501681B790BC69FE6
:100A2000C001C79F900DD69F900D1124B5010E9463
:100A30006E2C132FE32FE60F44C0C31BD109CC9DAE
:100A4000C001CD9D900DDC9D900D1124B5010E943B
:100A50006E2C132F160F35C0C31BD109CA9FC001BE
:100A6000CB9F900DDA9F900D1124B5010E946E2C42
:100A7000142F032FE32FE60F2BC0C31BD109B501A1
:100A8000681B790BC69FC001C79F900DD69F900D24
:100A90001124B5010E946E2C132F160F032F0FC0C7
:100AA000C31BD109CA9FC001CB9F900DDA9F900D47
:100AB0001124B5010E946E2C032F060F132FE42F73
:100AC00007C0042F05C0E42F142F042F01C0E0E05D
:100AD000D70111960C9311971C931296EC93DF910A
:100AE000CF911F910F91FF90EF90DF90CF90BF902B
:100AF000AF90089587E090E00C94A42CAB01BC016A
:100B000087E090E00C94BE2CEBECF3E083E0808374
:100B1000ACECB3E08C91807884668F778C938CEC0E
:100B2000828383836091CB037091CC038091CD034A
:100B30009091CE030C947E058091CB0380FF06C07C
:100B400060E170E083ED93E00C94AF0480E090E00E
:100B5000FC01ED52FC4F1182108212820396803309
:100B60009105B1F7EDCF20E030E0F901ED52FC4FF7
:100B70008183608342832D5F3F4F20333105A9F786
:100B80000C949C05EF92FF920F931F93CF93DF93EA
:100B900000D01F92CDB7DEB70091CB031091CC03EC
:100BA0002091CD033091CE030093CF031093D00357
:100BB0002093D1033093D2032091CB0320FF21C097
:100BC000042FF62EE92E182F9E012F5F3F4F0E9413
:100BD000B2048091CF0310FB87F98093CF03169561
:100BE0008091D0038078182BE0FA17F91093D00386
:100BF000F092D1030093D2034B8169818A810E94D4
:100C0000B3050F900F900F90DF91CF911F910F912F
:100C1000FF90EF9008950F931F93CF93DF93EC0114
:100C2000062F142F9091CB0390FF44C0892F8E770D
:100C3000823021F4CE010E94C2051BC0892F869507
:100C40008F732EE3280F2F73243018F41091CE03E6
:100C500010C0865C8F73893060F4C92FCC1FCC27FD
:100C6000CC1FD091CC038D2F880FC82BD7FBDD274D
:100C7000D0F98091CB03C0FB87F98093CB03C69555
:100C80008091CC038078C82BD0FBC7F9C093CC03EC
:100C90000093CD031093CE036091CB037091CC03EE
:100CA0008091CD039091CE03DF91CF911F910F9151
:100CB0000C947E05DF91CF911F910F910895EBEC7D
:100CC000F3E02081221F2227221F3091CC03432FE3
:100CD000440F842F822B37FB992790F90A9668E6F8
:100CE00071E00E94822C438162810C940B0620915A
:100CF000CB03221F2227221F3091CC03432F440F06
:100D0000842F822B37FB992790F98A3091051CF4A8
:100D1000825A9E4F01C00A9768E671E00E94822CB9
:100D20004091CE036091CD030C940B066091CD03EE
:100D3000862F90E08F3E910514F46F5E01C06FEF37
:100D40008091CB03881F8827881F9091CC03292F7F
:100D5000220F97FB992790F94091CE03822B0C9498
:100D60000B066091CD03862F90E0419714F06151FE
:100D700001C060E08091CB03881F8827881F909175
:100D8000CC03292F220F97FB992790F94091CE038E
:100D9000822B0C940B064091CE03842F90E08F3E63
:100DA000910514F44F5E01C04FEF8091CB03881F73
:100DB0008827881F9091CC03292F220F97FB992712
:100DC00090F96091CD03822B0C940B064091CE03D9
:100DD000842F90E0419714F0415101C040E0809190
:100DE000CB03881F8827881F9091CC03292F220FBF
:100DF00097FB992790F96091CD03822B0C940B06F9
:100E00008091200381110FC081E08093200389E04D
:100E1000809391008FB7F89493E09093990090EDB0
:100E2000909398008FBF0895E1E7F0E080818260A1
:100E300080830895E1E7F0E080818D7F80830895CD
:100E40009091CB0390FF3BC09178811102C09260DA
:100E500007C0883110F09E6203C08F73880F982BF3
:100E60009093CB036091CB037091CC038091CD0321
:100E70009091CE030E947E058091CB03982F9E77A0
:100E8000923019F40E941A0707C08695825C8F730E
:100E9000863110F40E9414078091CB03881F8827A5
:100EA000881F9091CC03292F220F97FB992790F947
:100EB0004091CE036091CD03822B0C940B060895D4
:100EC00080919B03816080939B0381E08093210349
:100ED0000E949121811104C00E946C210E9484050E
:100EE0000E947A056093CB037093CC038093CD036B
:100EF0009093CE036E7761F40E9484050E947A0578
:100F00006093CB037093CC038093CD039093CE0377
:100F10000E9400078091CB0380FF04C086958F73E9
:100F20000C94200708958091CB0386958F738F5F73
:100F3000883108F081E00C9420078091CB03982F32
:100F4000909590FB80F98093CB036091CB037091D7
:100F5000CC038091CD039091CE030E947E058091B9
:100F6000CB0380FF04C086958F730C9420070E94EA
:100F70001A072FEF80E792E0215080409040E1F780
:100F800000C000000C949C05CF93C82F80911E03D5
:100F900090911F030E94F31DEC2FF0E0EC54FE4FE4
:100FA000E491F0E08E179F0718F10E94E71D9093DF
:100FB0001F0380931E03E0911D03F0E0E854FE4FF1
:100FC00044918091CB03881F8827881F9091CC0380
:100FD000292F220F97FB992790F96091CD03822B3F
:100FE0000E94C20580911D0390E0019680931D032D
:100FF000CF910895CF93C82F80911B0390911C032C
:101000000E94F31DEC2FF0E0EF54FE4FE491F0E06E
:101010008E179F07E8F00E94E71D90931C038093B2
:101020001B034091CE036091CD03809119039091F1
:101030001A030E94C2058091190390911A03019628
:1010400068E671E00E946E2C90931A038093190356
:10105000CF910895CF92DF92FF920F931F93CF937A
:10106000DF93F82E80911703909118030E94F31DCF
:10107000EF2DE695F0E0EF54FE4FE491F0E08E178F
:101080009F07F0F10E94E71D9093180380931703C8
:1010900003ED13E0C0E0D0E088E6C82EDD24D39451
:1010A00080911503909116038C0F9D1FB6010E942D
:1010B0006E2C98014091CE036091CD030E94B20442
:1010C00066960D5F1F4FC03681E0D80749F70E9432
:1010D0009C052091150330911603F0FE0BC0C90149
:1010E000019668E671E00E946E2C9093160380933F
:1010F000150306C0215031093093160320931503C0
:10110000DF91CF911F910F91FF90DF90CF900895C5
:101110008F929F92AF92BF92CF92DF92EF92FF9207
:101120000F931F93CF93DF93C82F80FF03C0DD245D
:10113000DA9402C0DD24D3948091130390911403B8
:101140000E94F31DC695EC2FF0E0E255FE4FE491AE
:10115000F0E08E179F0708F466C00E94E71D909389
:1011600014038093130393EDE92E93E0F92E05ED1C
:1011700013E0C0E0D0E027E0822E912CF8013197F7
:101180001082F7011082F801108287E0A82EB12C9E
:10119000C12C809112038C0D87FD805F082E000CFE
:1011A000990BC817D907E9F42091CE032A9DC001F5
:1011B0002B9D900D1124B4010E94822C462F80910A
:1011C000CB03881F8827881F9091CC03592F550F78
:1011D00097FB992790F997016091CD03852B0E9489
:1011E000B204CD0CF1E0AF1AB10899F6219683E074
:1011F000E80EF11C0D5F1F4FC031D10509F0BECFC5
:101200000E949C058091120391E0D91206C08111C1
:1012100002C08DE006C0815004C090E001968F703E
:10122000992780931203DF91CF911F910F91FF9027
:10123000EF90DF90CF90BF90AF909F908F900895E8
:101240009F92AF92BF92CF92DF92EF92FF920F9355
:101250001F93CF93DF93CDB7DEB7E0970FB6F89427
:10126000DEBF0FBECDBF182F8091100390911103E8
:101270000E94F31DE12FF0E0E555FE4FE491F0E010
:101280008E179F0708F493C00E94E71D90931103E7
:1012900080931003CE0101967C015E0193E0A90EBC
:1012A000B11CC12CD12C8701F50131971082F701B7
:1012B0001082F5011082912C9091010180910F0311
:1012C000999E800D112487FD04C080311CF08FE0B1
:1012D00001C080E0082E000C990BC816D906A1F4B5
:1012E0008091CB03881F8827881F9091CC03592FAA
:1012F000550F97FB992790F997014091CE03609184
:10130000CD03852B0E94B2049394F7E09F12D4CFB3
:101310008FEFC81AD80A93E0E90EF11CE3E0AE0E95
:10132000B11CF0E1CF16D10409F0BECFA5EDB3E0BA
:101330008BE090E0FC01EF70FF279D012150310907
:10134000AF01440F551FE40FF51FBF01600F711F60
:10135000FB014181F901408321503109FB014081AA
:10136000F9014083FB0122812C93019613968B3166
:10137000910501F70E949C059091010180910F0356
:10138000913049F48A3F2CF489EF80930F038FEF5B
:1013900008C081500AC087313CF086E180930F037A
:1013A00081E08093010103C08F5F80930F03E0967B
:1013B0000FB6F894DEBF0FBECDBFDF91CF911F9166
:1013C0000F91FF90EF90DF90CF90BF90AF909F90E4
:1013D00008951F920F920FB60F9211242F933F93EF
:1013E0004F935F936F937F938F939F93AF93BF932D
:1013F000EF93FF938091CB0386958F739EE3980FB5
:101400009F73943020F482500E94C40723C09AE353
:10141000980F9F73933020F486500E94FA071AC0E9
:1014200097E3980F9F73963020F489500E942A0802
:1014300011C091E3980F9F73963020F48F500E9453
:10144000880808C09BE2980F9F73933018F4855169
:101450000E942009FF91EF91BF91AF919F918F91D1
:101460007F916F915F914F913F912F910F900FBEA0
:101470000F901F901895809132030895CF93DF93BA
:1014800000D01F92CDB7DEB79C0180910604843056
:1014900019F593E099833B832A839093E9008FEFBA
:1014A0009091E800815095FD06C095ED9A95F1F771
:1014B00000008111F5CF8091E80085FF0DC040E06C
:1014C00050E063E070E0CE0101960E94A90C80918B
:1014D000E8008E778093E8000F900F900F90DF91D7
:1014E000CF910895CF93DF9300D01F92CDB7DEB791
:1014F00020910604243021F522E029839B838A83EE
:1015000083E08093E9008FEF9091E800815095FD92
:1015100006C095ED9A95F1F700008111F5CF809105
:10152000E80085FF0DC040E050E063E070E0CE01D0
:1015300001960E94A90C8091E8008E778093E800C4
:101540000F900F900F90DF91CF9108952091060496
:101550002430F1F422E02093E9002FEF3091E800ED
:10156000215035FD06C035ED3A95F1F70000211107
:10157000F5CF2091E80025FF0BC040E050E065E08A
:1015800070E00E94A90C8091E8008E778093E800BB
:101590000895CF93DF93EC0190910604943009F005
:1015A00046C080910C018823D9F080910D018823D9
:1015B000B9F09093E9008FEF9091E800815095FD8C
:1015C00006C095E19A95F1F700008111F5CF809161
:1015D000E80085FF2CC040E050E060E170E017C0FB
:1015E00081E08093E9008FEF9091E800815095FDB4
:1015F00006C095ED9A95F1F700008111F5CF809125
:10160000E80085FF14C040E050E068E070E0CE01E3
:101610000E94A90C8091E8008E778093E80080E119
:10162000FE01A2E2B3E001900D928A95E1F7DF910D
:10163000CF91089580910504811109C00E94BC0DCD
:101640000E94170E8091E20084608093E20008956A
:10165000109205040895089542E061EC81E00E9433
:10166000570D42E061EC82E00E94570D42E061ECD0
:1016700083E00E94570D42E161EC84E00C94570D29
:1016800080910804833009F455C030F4813071F042
:10169000823009F48EC008958A3009F47AC08B3004
:1016A00009F460C0893009F09CC020C08091070413
:1016B000813A09F096C08091E800877F8093E80026
:1016C00080910B0490910C04892B21F460E182E25B
:1016D00093E003C060E080E090E070E00E94F40CD2
:1016E0008091E8008B778093E8000895809107044B
:1016F000813209F076C080910B0490910C04009720
:1017000019F0039709F06DC08091E800877F8093FE
:10171000E8008091E80082FD05C0809106048111F7
:10172000F8CF5FC08091F100809332038091E80090
:101730008B7753C080910704813A09F052C08091A1
:101740000B0490910C04892B09F04BC08091E800A8
:10175000877F8093E8008091E80080FFFCCF809134
:101760000C0136C0809107048132D9F580910B04B9
:1017700090910C04892BA9F58091E800877F8093D4
:10178000E8000E946B0D8091090480930C010C9479
:10179000821680910704813221F58091E800877FCD
:1017A0008093E8000E946B0D80910A0480933303BC
:1017B000089580910704813AA1F48091E800877F21
:1017C0008093E8008091E80080FFFCCF8091330394
:1017D0008093F1008091E8008E778093E8000C946C
:1017E0006B0D08950895089508950C94F40B0E94CC
:1017F0006F1D80910404882329F00E949C1D811193
:101800000C94930C089584B7877F84BF0FB6F89427
:10181000A8958091600088618093600010926000BC
:101820000FBE90E080E80FB6F8948093610090932B
:1018300061000FBE0E94F20B0E94B6100E94BC0D08
:101840000E94170E8091E20084608093E2007894F9
:10185000809106048430E1F70E94B81082E091E0A4
:101860000E9462100E94F30B80910604853019F4E7
:101870000E94F70BF9CF0E94C810F6CF0C94B11D4F
:101880000C943E0C292F332723303105C1F05CF432
:101890002130310579F022303105E9F58DE690E00F
:1018A00025E731E03CC021323105C1F0223231055B
:1018B00011F131C082E190E022EE31E030C0992791
:1018C0008330910540F5FC01EE0FFF1FE35DFE4FF5
:1018D00020813181FC01E65DFE4F1AC06430D8F4EE
:1018E000E62FF0E0EE0FFF1FEE5DFE4F208131810D
:1018F00089E090E014C0643070F470E0FB01EE0FFA
:10190000FF1FE65EFE4F20813181FB01EA5EFE4F44
:10191000808190E004C080E090E020E030E0FA01B7
:1019200031832083089580E189BD82E189BD09B4B6
:1019300000FEFDCF8091D8008F7D8093D8008091EC
:10194000E00082608093E0008091E00081FDFCCFA8
:101950000895CF92DF92EF92FF920F931F93CF9350
:10196000DF93EC018B016A010E948A0D811133C063
:10197000C114D10439F0F60180819181081B190B43
:10198000C80FD91FE12CF12C0115110519F1809117
:10199000E80085FD16C08091E8008E778093E8000E
:1019A000C114D10449F0F60180819181E80EF91E3D
:1019B000F182E08285E00FC00E948A0D882321F326
:1019C0000AC089918093F10001501109FFEFEF1ACD
:1019D000FF0ADACF80E0DF91CF911F910F91FF9046
:1019E000EF90DF90CF90089520910D0430910E0478
:1019F0002617370748F06115710539F42091E80082
:101A00002E772093E80001C0B90140E0611571050F
:101A1000A9F120910604222309F443C0253009F4DA
:101A200042C02091E80023FD40C02091E80022FD43
:101A300032C02091E80020FFE9CF4091F3002091CF
:101A4000F20030E0342BFC01CF016115710559F033
:101A50002830310540F481918093F1006150710983
:101A60002F5F3F4FF1CF41E02830310509F040E0D2
:101A70002091E8002E772093E800C8CF4111C9CF0C
:101A80000AC080910604882361F0853061F080915E
:101A9000E80083FD0AC08091E80082FFF2CF80E079
:101AA000089582E0089583E0089581E008958F709D
:101AB0008093E900EBEEF0E0808181608083EDEEC1
:101AC000F0E010826093EC0040838091EE00881F6C
:101AD0008827881F08958091070487FF11C080918F
:101AE000E80082FD05C0809106048111F8CF11C085
:101AF0008091E8008B770BC080910604882349F021
:101B00008091E80080FFF8CF8091E8008E77809385
:101B1000E80008952091E4003091E50095E64091B9
:101B2000EC00842F817040FF22C08091E80080FD8E
:101B30001CC080910604882391F0853091F080913B
:101B4000EB0085FD10C04091E4005091E500421784
:101B5000530729F39A01915011F784E0089582E028
:101B6000089583E0089581E0089580E0089540910C
:101B7000E80042FFDECF08950E94280E0E94300E3A
:101B8000E0EEF0E0808181608083E8EDF0E080812C
:101B90008F77808319BCA7EDB0E08C918E7F8C93FA
:101BA00080818F7E80831092050408950F931F9388
:101BB000CF93DF930E94280E0E94300EC8EDD0E034
:101BC00088818F77888388818068888388818F7DEA
:101BD000888319BC10920604109203041092040426
:101BE00000EE10E0F80180818B7F80838881816026
:101BF000888342E060E080E00E94570DE1EEF0E073
:101C000080818E7F8083E2EEF0E08081816080833E
:101C1000808188608083F80180818E7F80838881C5
:101C200080618883DF91CF911F910F910895E8ED36
:101C3000F0E080818F7E8083E7EDF0E0808181603D
:101C4000808384E082BF81E0809305040C94D60DEC
:101C5000E8EDF0E080818E7F80831092E2000895AD
:101C60001092DA001092E10008951F920F920FB6C1
:101C70000F9211242F933F934F935F936F937F9312
:101C80008F939F93AF93BF93EF93FF938091E10066
:101C900082FF0BC08091E20082FF07C08091E100CB
:101CA0008B7F8093E1000E9461108091DA0080FFB9
:101CB0001FC08091D80080FF1BC08091DA008E7F0A
:101CC0008093DA008091D90080FF0DC080E189BD4A
:101CD00082E189BD09B400FEFDCF81E08093060456
:101CE0000E941A0B05C019BC109206040E94280B12
:101CF0008091E10080FF19C08091E20080FF15C053
:101D00008091E2008E7F8093E2008091E20080610A
:101D10008093E2008091D80080628093D80019BC43
:101D200085E0809306040E94F50B8091E10084FF1A
:101D300030C08091E20084FF2CC080E189BD82E147
:101D400089BD09B400FEFDCF8091D8008F7D8093BE
:101D5000D8008091E1008F7E8093E1008091E200C5
:101D60008F7E8093E2008091E20081608093E200A8
:101D700080910304882311F084E007C08091E30080
:101D800087FD02C081E001C083E0809306040E94C9
:101D9000400C8091E10083FF29C08091E20083FF25
:101DA00025C08091E100877F8093E10082E08093ED
:101DB0000604109203048091E1008E7F8093E1007D
:101DC0008091E2008E7F8093E2008091E20080614A
:101DD0008093E20042E060E080E00E94570D809135
:101DE000F00088608093F0000E942B0BFF91EF9130
:101DF000BF91AF919F918F917F916F915F914F9123
:101E00003F912F910F900FBE0F901F9018951F922A
:101E10000F920FB60F9211242F933F934F935F931E
:101E20006F937F938F939F93AF93BF93CF93DF93E2
:101E3000EF93FF93C091E900CF708091EC00D82F11
:101E4000D17080FDD0E81092E9008091F000877F8A
:101E50008093F00078940E944B0F1092E9008091DB
:101E6000F00088608093F000CD2BCF70C093E90024
:101E7000FF91EF91DF91CF91BF91AF919F918F91A2
:101E80007F916F915F914F913F912F910F900FBE76
:101E90000F901F9018951F93CF93DF9300D0CDB76D
:101EA000DEB7E7E0F4E088E08E0F9091F1009193C7
:101EB0008E13FBCF0E94400B8091E80083FFEDC0A2
:101EC0008091070490910804492F50E04A30510551
:101ED00008F0E3C0FA01E25AFF4F0C94962C8038C8
:101EE00081F0823809F0D9C080910B048F70809303
:101EF000E9008091EB0085FB882780F91092E900CA
:101F000007C080910404882311F082E001C080E0C2
:101F10009091E800977F9093E8008093F1001092F1
:101F2000F10095C0282F2D7F09F0B7C0882319F044
:101F3000823061F0B2C080910904813009F0ADC0F7
:101F4000933009F080E0809304042BC08091090451
:101F5000811127C080910B048F7009F49EC080937B
:101F6000E9002091EB0020FF1CC0933021F4809108
:101F7000EB00806214C09091EB0090619093EB00B5
:101F800021E030E0A90102C0440F551F8A95E2F715
:101F90004093EA001092EA008091EB008860809301
:101FA000EB001092E9008091E800877F53C0811117
:101FB00074C0109109041F778091E3008078812B11
:101FC0008093E3008091E800877F8093E8000E947F
:101FD0006B0D8091E80080FFFCCF8091E30080686A
:101FE0008093E300111102C082E001C083E080937E
:101FF000060453C08058823008F04FC0AE014F5FD6
:102000005F4F60910B048091090490910A040E9433
:10201000420CBC01892B09F440C09091E800977FE5
:102020009093E80089819A810E94F40C8091E800E5
:102030008B778093E80031C0803879F58091E80093
:10204000877F8093E800809103048093F100809162
:10205000E8008E778093E8000E946B0D1EC081110E
:102060001CC0909109049230C0F48091E800877FF1
:102070008093E800909303040E946B0D8091030409
:10208000811106C08091E30087FD02C081E001C09C
:1020900084E0809306040E942C0B8091E80083FF6B
:1020A0000AC08091E800877F8093E8008091EB0070
:1020B00080628093EB000F900F90DF91CF911F9182
:1020C0000895089590933903809338030895E0911B
:1020D0003803F0913903309721F00190F081E02D21
:1020E000099480E00895E0913803F0913903309726
:1020F00021F00280F381E02D09940895E0913803E6
:10210000F0913903309721F00480F581E02D099496
:10211000089520913603309137038217930771F0A9
:102120009093370380933603E0913803F09139039D
:10213000309721F00680F781E02D099408952091D1
:102140003403309135038217930771F09093350370
:1021500080933403E0913803F0913903309721F0F4
:102160000084F185E02D0994089508950C94B5102C
:102170000E94DE1D0E94D9020E941F200E94F329A6
:102180000E94B7280E940C260E94C6270C94362B6A
:102190004F925F927F928F929F92AF92BF92CF9217
:1021A000DF92EF92FF920F931F93CF93DF9300D0B4
:1021B00000D01F92CDB7DEB70E9407039BE3C92E64
:1021C00093E0D92E00E010E0AA24A394B12C702E45
:1021D000802F0E9408044C01F601419051906F013C
:1021E0004826592641145104B1F40F5F1F4F0530A2
:1021F000110569F78FEF89838A831B820E94E71D8F
:102200008160782F9D838C8349815A816B818D8178
:102210000E94851141C080919B0381FD0E941104A1
:1022200020E030E07501022E02C0EE0CFF1C0A9483
:10223000E2F7C70184219521892B41F129837A8214
:102240008E209F2091E0892809F490E09B830E94D2
:10225000E71D8160782F9D838C8349815A816B8132
:102260008D810E94851149815A816B817C818D818C
:102270000E945F1D000F111FF801E55CFC4F80817B
:102280009181E826F926F182E08206C02F5F3F4F58
:102290002E30310539F6A9CF0E945E1D0E943A23E7
:1022A00010913A030E9467101817D1F00E9467102E
:1022B00080933A030F900F900F900F900F90DF9143
:1022C000CF911F910F91FF90EF90DF90CF90BF9033
:1022D000AF909F908F907F905F904F900C941929B2
:1022E0000F900F900F900F900F90DF91CF911F9153
:1022F0000F91FF90EF90DF90CF90BF90AF909F90A5
:102300008F907F905F904F900895CF93DF93CDB7DC
:10231000DEB72B970FB6F894DEBF0FBECDBF942F5C
:102320004F83252F588769877A878B874A855B85F6
:10233000452B21F02F3F09F59F3FF9F4DE0111965F
:1023400086E0FD0111928A95E9F785E0FE01379656
:1023500001900D928A95E1F749815A816B817C81C8
:102360008D819E810E941C192B960FB6F894DEBFBA
:102370000FBECDBFDF91CF9108954F8158856985FC
:102380007A858B850E945F1DD9CFCF93882309F46E
:10239000CDC0C82F823859F40E94671081FDC6C095
:1023A00089E30E94A71B0E94381D89E30CC0833873
:1023B00079F40E94671080FDB9C083E50E94A71BD5
:1023C0000E94381D83E50E946C1CCF910C94381D2F
:1023D000843859F40E94671082FDA8C087E40E94E7
:1023E000A71B0E94381D87E4EECF8CEF8C0F813A3B
:1023F00048F48C2F0E947425811198C08C2F0E9464
:10240000A71BE3CF80E28C0F883048F4C77081E0CF
:1024100001C0880FCA95EAF70E94071DD6CF8BE549
:102420008C0F833078F4C53A29F0C63A31F083E84E
:1024300090E005C081E890E002C082E890E0CF9192
:102440000C94891088E58C0F853108F06FC0C83A6C
:1024500061F1C93A69F1CA3A71F1CB3A79F1CC3AF2
:1024600081F1CD3A89F1CE3A91F1CF3A99F1C13B60
:10247000A1F1C03BA9F1C23BB1F1C33BB9F1C43BEF
:10248000C1F1C53BC9F1C63BD1F1C73BD9F1C83B4E
:10249000E1F1C93BE9F1CA3BF1F1CB3BF9F1CC3BAE
:1024A00009F43FC080E090E03EC082EE90E03BC087
:1024B00089EE90E038C08AEE90E035C085EB90E080
:1024C00032C086EB90E02FC083EB90E02CC084EB11
:1024D00090E029C087EB90E026C08CEC90E023C010
:1024E0008DEC90E020C083E891E01DC08AE891E087
:1024F0001AC082E991E017C084E991E014C081E23A
:1025000092E011C083E292E00EC084E292E00BC040
:1025100085E292E008C086E292E005C087E292E0A0
:1025200002C08AE292E0CF910C949F10CF9108955F
:10253000882309F44BC0823859F40E94671081FF48
:1025400045C089E30E94A71B0E94381D89E30CC087
:10255000833871F40E94671080FF38C083E50E94C1
:10256000A71B0E94381D83E50E946C1C0C94381D2B
:10257000843859F40E94671082FF28C087E40E94C3
:10258000A71B0E94381D87E4EFCF9CEF980F913A6C
:1025900058F390E2980F983050F4877091E001C0A2
:1025A000990F8A95EAF7892F0E940D1DDFCF9BE5D1
:1025B000980F933020F480E090E00C948910885AB2
:1025C000853120F480E090E00C949F1008958823DA
:1025D00021F00E94071D0C94381D0895882321F0D6
:1025E0000E940D1D0C94381D0895CF92DF92EF923A
:1025F000FF920F931F93CF93DF93CDB7DEB727974B
:102600000FB6F894DEBF0FBECDBF25E0FC01DE01A2
:10261000119601900D922A95E1F7FC0140813181DC
:102620000281258122952F7063817481672B09F4C3
:1026300048C33F3F19F44F3F09F443C36C0149833A
:102640003A8389819A812F830E94661B182F9E836B
:102650000E94651B0E94751A9E81E92FE295EF701A
:10266000F0E0E859FF4F2F810C94962C892F807F42
:102670009F70F92E882319F0F29490EFF92200232D
:1026800049F0FF2009F45FC28F2D0E941A1D0E949D
:10269000381D59C2812F0E949812FF2009F411C3DE
:1026A0008F2D0E94201D27960FB6F894DEBF0FBE17
:1026B000CDBFDF91CF911F910F91FF90EF90DF90F1
:1026C000CF900C94381D892F807F9F70F92E803217
:1026D00019F0F29480EFF822112319F0113001F172
:1026E00029C00023A9F08F2D222349F1213039F58B
:1026F00027960FB6F894DEBF0FBECDBFDF91CF9106
:102700001F910F91FF90EF90DF90CF900C942A1DB6
:10271000222319F0213009F4D4C20E942D1D2CC0AF
:102720000023E9F0263008F0CCC20E94041D8F215E
:1027300029F022C00023F1F0211115C08F2D27961A
:102740000FB6F894DEBF0FBECDBFDF91CF911F91C2
:102750000F91FF90EF90DF90CF900C94E71225300F
:1027600008F0AFC209C0F601858180FFECC18F700F
:102770008583E4CF2111FBC18F2D69C1292F2695B7
:102780002695237030E02115310521F021303105E7
:10279000C1F097C2002319F0812F937002C080E02E
:1027A00090E027960FB6F894DEBF0FBECDBFDF9145
:1027B000CF911F910F91FF90EF90DF90CF900C94ED
:1027C0008910002319F0812F937002C080E090E0FF
:1027D00027960FB6F894DEBF0FBECDBFDF91CF9125
:1027E0001F910F91FF90EF90DF90CF900C949F106E
:1027F000812F002319F00E94422202C00E94AA22C7
:1028000027960FB6F894DEBF0FBECDBFDF91CF91F4
:102810001F910F91FF90EF90DF90CF900C942F239A
:10282000892F837009F079C001114BC2812F8295E5
:1028300086958770880F880F212F2F70C22ED12C7C
:10284000E12CF12C082E04C0CC0CDD1CEE1CFF1C6E
:102850000A94D2F714FF12C04FE050E060E070E03D
:1028600004C0440F551F661F771F8A95D2F78A014F
:102870009B01009510952095309503C000E010E075
:102880009801969596959370492F50E0C901B8012B
:1028900042305105D1F04330510559F16C297D2961
:1028A0008E299F294130510541F127960FB6F894A2
:1028B000DEBF0FBECDBFDF91CF911F910F91FF9073
:1028C000EF90DF90CF900C948A1A6C297D298E2985
:1028D0009F2927960FB6F894DEBF0FBECDBFDF91BC
:1028E000CF911F910F91FF90EF90DF90CF900C94BC
:1028F0009C1A0E948A1AC701B60127960FB6F8944F
:10290000DEBF0FBECDBFDF91CF911F910F91FF9022
:10291000EF90DF90CF900C94781A002319F0892F54
:10292000817001C08695882309F4CBC1812F8295DF
:1029300086958770880F880F212F2F70C22ED12C7B
:10294000E12CF12C082E04C0CC0CDD1CEE1CFF1C6D
:102950000A94D2F714FF12C04FE050E060E070E03C
:1029600004C0440F551F661F771F8A95D2F78A014E
:102970009B01009510952095309503C000E010E074
:102980009801969596959370492F50E0C901B8012A
:1029900042305105D1F04330510559F16C297D2960
:1029A0008E299F294130510541F127960FB6F894A1
:1029B000DEBF0FBECDBFDF91CF911F910F91FF9072
:1029C000EF90DF90CF900C94411B6C297D298E29CC
:1029D0009F2927960FB6F894DEBF0FBECDBFDF91BB
:1029E000CF911F910F91FF90EF90DF90CF900C94BB
:1029F000531B0E94411BC701B60127960FB6F894DE
:102A0000DEBF0FBECDBFDF91CF911F910F91FF9021
:102A1000EF90DF90CF900C942F1B103F41F118F4F2
:102A2000103E48F48BC0123F09F450C0D8F1133F58
:102A300009F460C083C01F70892F8F71002321F0BB
:102A40000E94C81A812F7BCE0E94E91A812F2796F7
:102A50000FB6F894DEBF0FBECDBFDF91CF911F91AF
:102A60000F91FF90EF90DF90CF900C94EE12002327
:102A7000A9F0253008F025C1892F8F7127960FB650
:102A8000F894DEBF0FBECDBFDF91CF911F910F91A4
:102A9000FF90EF90DF90CF900C940E1B263008F043
:102AA00010C1EACF0023A1F0892F8F7127960FB6AE
:102AB000F894DEBF0FBECDBFDF91CF911F910F9174
:102AC000FF90EF90DF90CF900C94C81A002361F331
:102AD000892F8F7127960FB6F894DEBF0FBECDBF3A
:102AE000DF91CF911F910F91FF90EF90DF90CF90EA
:102AF0000C94E91A002391F0892F8F7127960FB655
:102B0000F894DEBF0FBECDBFDF91CF911F910F9123
:102B1000FF90EF90DF90CF900C94B31A27960FB6EA
:102B2000F894DEBF0FBECDBFDF91CF911F910F9103
:102B3000FF90EF90DF90CF900C94AE1A0023A1F09D
:102B4000222309F4B1CF812F27960FB6F894DEBF68
:102B50000FBECDBFDF91CF911F910F91FF90EF90EE
:102B6000DF90CF900C94C511222309F4B1CF812FAF
:102B700027960FB6F894DEBF0FBECDBFDF91CF9181
:102B80001F910F91FF90EF90DF90CF900C949812CF
:102B9000492F4F70612FC6010E94B40227960FB6CD
:102BA000F894DEBF0FBECDBFDF91CF911F910F9183
:102BB000FF90EF90DF90CF900C94C019011181C06D
:102BC000112341F0892F8F70843021F0907F212FC5
:102BD0002F70922B9F70892F90E082309105E9F140
:102BE000ACF4009751F1019709F06BC027960FB62E
:102BF000F894DEBF0FBECDBFDF91CF911F910F9133
:102C0000FF90EF90DF90CF900C94EE2783309105EA
:102C1000A1F1049709F055C0812F27960FB6F894BB
:102C2000DEBF0FBECDBFDF91CF911F910F91FF90FF
:102C3000EF90DF90CF900C944C2827960FB6F89425
:102C4000DEBF0FBECDBFDF91CF911F910F91FF90DF
:102C5000EF90DF90CF900C94D72727960FB6F8947B
:102C6000DEBF0FBECDBFDF91CF911F910F91FF90BF
:102C7000EF90DF90CF900C940A2827960FB6F89427
:102C8000DEBF0FBECDBFDF91CF911F910F91FF909F
:102C9000EF90DF90CF900C942928492F4F70612F2F
:102CA000C60127960FB6F894DEBF0FBECDBFDF91E9
:102CB000CF911F910F91FF90EF90DF90CF900C94E8
:102CC0006B0227960FB6F894DEBF0FBECDBFDF9123
:102CD000CF911F910F91FF90EF90DF90CF900895CB
:102CE0000E94271D0E94F61C0E94381D0E94DF23AF
:102CF0000E942F2380E090E00E94891080E090E005
:102D00000C949F100E94171D0C9470160E94661B55
:102D1000292F22952F7030E02C3031054CF42A30C9
:102D200031056CF4225031092230310588F407C096
:102D30002C30310549F02F30310531F009C0803E8B
:102D400048F0803F29F406C093FB882780F9089556
:102D500080E0089581E00895CF93DF9300D000D004
:102D60001F92CDB7DEB70F900F900F900F900F907E
:102D7000DF91CF910895CF93DF9300D000D000D0A2
:102D8000CDB7DEB726960FB6F894DEBF0FBECDBF27
:102D9000DF91CF9108951F93CF93DF93C0914503A7
:102DA00016E080914603C81799F0D0E01C9FF0010F
:102DB0001D9FF00D1124E95BFC4F40815181628120
:102DC0007381848195810E94BB162196C770E9CFDB
:102DD000DF91CF911F91089540917703509178032F
:102DE0006091790370917A0380917B0390917C03C9
:102DF0000C94BB1680917C0382958F7009F054C0AF
:102E000080917903882309F44FC080914503A091F4
:102E10004603609177037091780340917A03509153
:102E20007B03B6E08A1709F43FC090E041155105D5
:102E3000C1F17F3F11F46F3FA1F1B89FF001B99F3D
:102E4000F00D1124E95BFC4F218172132AC020810F
:102E5000621327C02281211124C0238134812417C9
:102E6000350710F421503109241B350B283C31055E
:102E7000C0F420917C032F70206120937C0326E016
:102E8000289FF001299FF00D1124E45BFC4F808105
:102E90008F708061808387E793E00E94F5120C9425
:102EA000CB1601968770BECF0895CF92DF92EF9236
:102EB000FF920F931F93CF93DF93CDB7DEB7629747
:102EC0000FB6F894DEBF0FBECDBF8C0185E0F801D0
:102ED000DE011D9601900D928A95E1F7D8014C9183
:102EE00011965C91119712966C9112971396CD9052
:102EF000DC901497309177037091780380917A0376
:102F000090917B03009709F46BC17F3F19F43F3F19
:102F100009F466C1E0907903EE2009F4C0C0209165
:102F20007C03C816D90628F0F601E81BF90BCF017F
:102F300004C0809590958C0D9D1DFF24F394883CD2
:102F4000910578F0F12C207F09F0C6C07C2DD98A3C
:102F5000C88A89890E94AC1687E793E00E94F5121F
:102F6000B1C0822F807F09F046C0751314C034139E
:102F700012C0611110C02F70206120937C030E9449
:102F8000EC1687E793E00E94F51280917C03D8014C
:102F900015968C932EC0CD2819F15F3F11F44F3F49
:102FA000F9F0F62E61111CC0809145032091460373
:102FB00036E0821709F45AC090E0389FF001399F3B
:102FC000F00D1124E95BFC4F7181571306C070812D
:102FD000471303C07281711103C001968770E9CF56
:102FE000F62E662309F418C180917C0381608093DA
:102FF0007C03F12C11C1751308C0341306C0611194
:1030000004C080917C03D801C3C04D875E878D8545
:103010009E856A8B0E9486166A898823E1F1662361
:10302000D1F120917C03822F82958F7090E00297DE
:1030300074F0809177039091780398878F83198635
:10304000DB86CA862C87CE0107960E94F51286E0A1
:10305000F801A7E7B3E001900D928A95E1F70E948D
:10306000FA160E94EC16FF24F394D6C04D875E87B3
:103070008D859E850E94661B292F22952F7030E03A
:10308000223031050CF0BCC09F7009F0B6C0805EE4
:10309000883008F4C1C0C8010E94F512E4CFC816F8
:1030A000D90608F453C0F601E81BF90BCF01883CA0
:1030B000910508F450C0F12C7C2DD98AC88A8989E1
:1030C0000E94AC16E7E7F3E086E0DF011D928A95E7
:1030D000E9F70E94EC16A0C0751314C0341312C097
:1030E000611110C080917C03F8018583C8010E94A2
:1030F000F51286E0E7E7F3E0DF011D928A95E9F734
:10310000FE2C8AC04D875E878D859E856A8B0E94C6
:1031100086166A89882309F4BECF662309F4BBCFDB
:1031200020917C03822F82958F7090E002970CF49F
:103130008ECF80917703909178039A8389831B8245
:10314000DD82CC822E83CE0101967FCF8095909533
:103150008C0D9D1DACCFF62E662309F49CCF751304
:103160002EC034132CC020917C0320FD1FC0822F61
:1031700082958F70D9F0D80115962C9315978F30C2
:1031800049F08F5F982F9295907F822F8F70892BB7
:1031900015968C93C8010E94F51286E0F801A7E706
:1031A000B3E001900D928A95E1F793CF86E0F801A4
:1031B000A7E7B3E001900D928A95E1F72DC04D8706
:1031C0005E878D859E850E948616811140CF8091F5
:1031D0007C03816080937C03C8010E94F5121CC0AF
:1031E000662309F458CF4D875E878D859E850E94A2
:1031F0008616882309F44FCF2ACF811148CF0CC0FF
:10320000243031050CF047CF9F7009F440CFF8010E
:103210009581907F09F03BCF8F2D62960FB6F89481
:10322000DEBF0FBECDBFDF91CF911F910F91FF90F9
:10323000EF90DF90CF9008951F93CF93DF93CDB79A
:10324000DEB72C970FB6F894DEBF0FBECDBF4F830D
:10325000588769877A878B879C87CE0107960E945B
:103260005517882369F08F8198852A853B85232B04
:10327000F1F19F3F09F063C08F3F09F060C037C094
:1032800086E0FE013796DE01119601900D928A9537
:10329000E1F76F817885EA85FB85309741F17F3FC3
:1032A00011F46F3F21F12091460330E0C9010196EE
:1032B000877099274091450350E08417950709F4DA
:1032C00047C069837A83FD83EC8396E0929FD001A7
:1032D000939FB00D1124A95BBC4FFE013196019064
:1032E0000D929A95E1F7809346030E94CB1616E063
:1032F00080914503909146038917C1F1189FC00141
:103300001124895B9C4F0E945517882379F1E09125
:1033100045031E9FF0011124E95BFC4F4081518160
:1033200062817381848195810E94BB1680914503DF
:1033300090E001968770992780934503D9CF4F81FC
:10334000588569857A858B859C850E94BB16CFCF71
:103350000E9482161092460310924503E7E7F3E0BD
:1033600086E0DF011D928A95E9F7C1CF2C960FB652
:10337000F894DEBF0FBECDBFDF91CF911F910895AE
:10338000DF92EF92FF920F931F93CF93DF93FC0195
:10339000892B09F48AC0E12CF12CDD24D394EF01B0
:1033A00021968491853709F461C058F4843708F078
:1033B0004EC0843008F06AC08130D1F0823071F1A3
:1033C00074C0883709F45DC050F4863709F455C0DD
:1033D000873709F06AC08E2D0E94141D54C09CE7E7
:1033E000980F903708F061C08F770E94981250C0F4
:1033F0008F010E5F1F4FFE01849190E2980F98306D
:1034000050F48770FD2D01C0FF0F8A95EAF78F2FCA
:103410000E941A1D14C00E94C51113C08F010E5FB7
:103420001F4FFE01C49180E28C0F883060F4C7709A
:103430008D2D01C0880FCA95EAF70E94201D0E94B9
:10344000381DE80125C08C2F0E949812FACF9F01E9
:103450002E5F3F4FFE01C491CC2369F08FE99FE0BE
:103460000197F1F700C00000C150F6CF9F012E5F19
:103470003F4FFE01F490E9010BC00E94041DE82EAD
:1034800007C00E94171D0E94381D02C00E94C5116E
:103490008F2D882341F0EFE9FFE03197F1F700C06D
:1034A00000008150F6CFFE017ACFDF91CF911F91BE
:1034B0000F91FF90EF90DF900895609381037093D8
:1034C000820380938303909384030E944F290C947A
:1034D000701660937D0370937E0380937F039093B7
:1034E00080030E9491290C94701608950C945D1A23
:1034F0000F931F9300918103109182032091830306
:1035000030918403602B712B822B932B1F910F9191
:103510000C945D1A0F931F93009181031091820305
:1035200020918303309184036023712382239323AA
:103530001F910F910C945D1A0F931F9300918103BB
:1035400010918203209183033091840360277127B7
:10355000822793271F910F910C945D1A60E070E011
:10356000CB010C94691A0F931F9341E050E060E087
:1035700070E08A019B0104C0000F111F221F331F3E
:103580008A95D2F7C901B8011F910F910C94691A5D
:103590000F931F9341E050E060E070E004C0440FDF
:1035A000551F661F771F8A95D2F780917D039091F2
:1035B0007E03A0917F03B09180038A019B01082BB9
:1035C000192B2A2B3B2BC901B8011F910F910C9489
:1035D000691A0F931F9341E050E060E070E004C06F
:1035E000440F551F661F771F8A95D2F74095509557
:1035F0006095709580917D0390917E03A0917F03EB
:10360000B09180038A019B01082319232A233B23BD
:10361000C901B8011F910F910C94691A0F931F9360
:1036200041E050E060E070E004C0440F551F661FA9
:10363000771F8A95D2F780917D0390917E03A091A8
:103640007F03B09180038A019B01082719272A274D
:103650003B27C901B8011F910F910C94691A0F9370
:103660001F9300917D0310917E0320917F03309181
:103670008003602B712B822B932B1F910F910C9445
:10368000691A0F931F9300917D0310917E0320917F
:103690007F033091800360237123822393231F9142
:1036A0000F910C94691A0F931F9300917D03109151
:1036B0007E0320917F03309180036027712782274A
:1036C00093271F910F910C94691A0895CF92DF925E
:1036D000EF92FF920F931F93CF93DF938C01C090D3
:1036E0008103D0908203E0908303F09084034091A3
:1036F0007D0350917E0360917F0370918003C42A03
:10370000D52AE62AF72ACFE1D0E0D701C6010C2E50
:1037100004C0B695A795979587950A94D2F780FF30
:1037200007C0B8018C2F0E94521F8130910531F4DF
:10373000219758F7B80180E00E94521FDF91CF9186
:103740001F910F91FF90EF90DF90CF900895CF924F
:10375000DF92EF92FF920F931F93CF93DF93C82FC7
:1037600080910C018823E1F080910D018823C1F044
:103770008C2F8695869586958F3008F0A4C0E091B1
:103780000E01F0910F01E80FF11DC77081E090E08C
:1037900001C0880FCA95EAF79181892B818393C074
:1037A000D090980330919603E0910E01F0910F01B3
:1037B000332309F473C0409197038D2D2FEF96E0CA
:1037C000E92EF12C082F082E000C110BBF01600F01
:1037D000711FDB0112969C919C1709F474C02F3F56
:1037E00019F4911101C0282FC801019606E010E0DC
:1037F000B7010E94822C8413E5CFD22F4D114EC009
:103800002F3F69F4842F440F990B0196B8010E9451
:10381000822C809398033150309396033FC0822FBF
:10382000220F990B0196B8010E94822C282FFF24A9
:10383000F39406E010E0022E000C330B6F01C20E71
:10384000D31ED60112965C91552391F08D2FDD0F7A
:10385000990BBF01680F791FDB0112965C93D601AB
:1038600012961C920196B8010E94822CD82F01C09A
:10387000F394C9010196B8010E94822C282F841369
:10388000DACF242F440F330B2F193109C9010696C3
:1038900066E070E00E94822C80939703209197034A
:1038A000022E000C330BE20FF31FC283C9010196F5
:1038B00066E070E00E94822C8093970380919603CB
:1038C0008F5F80939603DF91CF911F910F91FF90AF
:1038D000EF90DF90CF900895EF92FF920F931F9398
:1038E000CF93C82F80910C018823E9F080910D01BE
:1038F0008823C9F08C2F8695869586958F3008F0A1
:103900006FC0E0910E01F0910F01E80FF11DC7703B
:1039100081E090E001C0880FCA95EAF78095918117
:10392000892381835DC020919803409196034423AD
:1039300009F456C0E0910E01F0910F010091970338
:10394000002E000C110B86E0E82EF12C30E0DF0198
:10395000A20FB31FCD01029612965C915C1336C084
:10396000DC011C92415040939603411104C0109217
:1039700098031092970340919703842F042E000C14
:10398000990B059666E070E00E94822C2817390793
:1039900039F5C091980306E010E0842F440F990B8D
:1039A0000596B8010E94822C9C01482F0596B8010B
:1039B0000E94822CDF01A80FB91F12968C918111F1
:1039C00002C02C13EACF209397030AC0C9010196C5
:1039D000B7010E94822C282F8017910709F0B6CFDB
:1039E000CF911F910F91FF90EF90089581E090E0AB
:1039F000E0910E01F0910F01E80FF91F108201967E
:103A000080319105A9F7089580919A0308959091C6
:103A10009A03892B80939A030895809590919A0335
:103A2000892380939A03089580939A0308951092AE
:103A30009A03089590919903892B8093990308958F
:103A4000809590919903892380939903089510920A
:103A5000990308958093850308951092850308952E
:103A600080910D01811103C08091960308950895FE
:103A7000E0910E01F0910F0180919A038083E09113
:103A80000E01F0910F01908180919903892B808321
:103A900080918503882361F0E0910E01F0910F0180
:103AA0009081892B80830E94301D811110928503A3
:103AB00080910E0190910F010C9473100895CF9393
:103AC000DF9300D000D01F92CDB7DEB70F900F90DC
:103AD0000F900F900F90DF91CF91089508958091EE
:103AE0000604843031F110929C0320E488E190E0D8
:103AF0000FB6F894A895809360000FBE20936000E5
:103B00000E94292683B7817F846083BF83B7816049
:103B100083BF7894889583B78E7F83BF0FB6F89460
:103B2000A895809160008861809360001092600089
:103B30000FBE089508950895CF930E949A1D0E9484
:103B400007030E949B1DC0E08C2F0E940804892B54
:103B500029F4CF5FC530C1F780E001C081E0CF918B
:103B600008950E9482160C94C6271F920F920FB6DA
:103B70000F9211248F939F93AF93BF9380919C03D7
:103B8000811113C080919D0390919E03A0919F038A
:103B9000B091A0034196A11DB11D80939D03909308
:103BA0009E03A0939F03B093A003BF91AF919F91F9
:103BB0008F910F900FBE0F901F90189582E084BDDB
:103BC00093E095BD9AEF97BD80936E0008952FB74F
:103BD000F89480919D0390919E03A0919F03B091D2
:103BE000A0032FBF0895CF92DF92EF92FF920F9321
:103BF0001F932FB7F89440919D0350919E036091BD
:103C00009F037091A0032FBF6A017B01EE24FF2464
:103C10008C0120E030E0C016D106E206F30610F475
:103C2000415051099A01281B390BC9011F910F916D
:103C3000FF90EF90DF90CF9008951F920F920FB6F4
:103C40000F9211248F939F93AF93BF9380919D0305
:103C500090919E03A0919F03B091A0030196A11D96
:103C6000B11D80939D0390939E03A0939F03B093F7
:103C7000A003BF91AF919F918F910F900FBE0F90B6
:103C80001F9018950E94BC0DF8942FEF87EA91E6DB
:103C9000215080409040E1F700C0000087E090EBA9
:103CA000DC018093110490931204A0931304B09349
:103CB00014049CE088E10FB6F894A8958093600006
:103CC0000FBE90936000FFCF811103C080E090E0B1
:103CD00002C087E797E790930108809300089AE075
:103CE00088E10FB6F894A895809360000FBE90937A
:103CF0006000FFCF8D3B50F4883A08F5853AB0F468
:103D0000843090F4813009F485C081C0883E30F45D
:103D1000803E50F48F3B09F454C079C0803F08F4D2
:103D200076C090E09065089590E00895853A09F492
:103D300074C0863A09F474C083E890E40895883A20
:103D400009F471C0893A09F471C08A3A09F471C062
:103D50008B3A09F471C08C3A09F471C08D3A09F4B8
:103D600071C08E3A09F471C08F3A09F471C0813B79
:103D700009F471C0803B09F471C0823B09F471C041
:103D8000833B09F471C0843B09F471C0853B09F49D
:103D900071C0863B09F471C0873B09F471C0883B50
:103DA00009F471C0893B09F471C08A3B09F471C000
:103DB0008B3B09F471C08C3B09F471C080E094E442
:103DC00008950E94041D80FF0EC00E9482162FEFEE
:103DD00080E792E0215080409040E1F700C0000071
:103DE0000E94421E12C00E94041D82FF0EC00E944B
:103DF00082162FEF89E698E1215080409040E1F74C
:103E000000C0000081E00E94641E0E94821680E0D3
:103E100090E0089581E090E0089581E890E40895AD
:103E200082E890E4089582EE94E4089589EE94E4A3
:103E300008958AEE94E4089585EB94E4089586EB62
:103E400094E4089583EB94E4089584EB94E4089556
:103E500087EB94E408958CEC94E408958DEC94E45D
:103E6000089583E895E408958AE895E4089582E941
:103E700095E4089584E995E4089581E296E408952F
:103E800083E296E4089584E296E4089585E296E458
:103E9000089586E296E4089587E296E408958AE21A
:103EA00096E408950E94C002803EA8F4803C00F58C
:103EB000813309F45CC038F4893209F452C08A3283
:103EC00009F45BC05FC08933B1F08238A1F085335B
:103ED00009F441C057C0833E41F128F4803E99F077
:103EE000823EB9F04FC0863E31F1873E71F14AC043
:103EF0000E94C402089590910F0490FD02C091FFAA
:103F000041C080EE3FC080910F0480FFFACF89E36B
:103F100039C080910F0482FF0CC080910F0484FF90
:103F200002C080E02FC083EE2DC080910F0482FF7D
:103F3000F4CF82EE27C080910F0483FF0AC08091E6
:103F40000F0484FDEECF87EE1DC080910F0483FF28
:103F5000F6CF86EE17C080910F0485FF06C089E278
:103F600011C080910F0485FFFACF85E30BC08091CB
:103F70000F0486FF06C08AE205C080910F0486FF09
:103F8000FACF81E30E947A1E0895AF92BF92CF923A
:103F9000DF92EF92FF920F931F93CF937C01C0E0CB
:103FA000CC24C394D12C8C2F0E9408045C0100E027
:103FB00010E0C601002E02C0880F991F0A94E2F794
:103FC0008A219B21892BB1F0602F7C2F80E00E94F9
:103FD000521F9C018E159F0559F0832F807E932FD1
:103FE000907C11F0803A31F430E02E153F0511F449
:103FF00081E009C00F5F1F4F0E301105D1F6CF5F72
:10400000C53089F680E0CF911F910F91FF90EF901E
:10401000DF90CF90BF90AF900895CF93DF93EC01E6
:104020008CE290E00E94C51F882329F0CE01DF9129
:10403000CF910C94C51F80E0DF91CF910895CF936D
:104040000E949121811102C00E946C21C5E6C150DD
:1040500049F00E9407038FE39CE90197F1F700C044
:104060000000F5CF89E290E00E940D20811132C15D
:104070008AE290E00E940D20882341F00E948B216B
:104080000E946C210E94BC2A0E94202A85E090E0B8
:104090000E940D2081110E94421E0E946E1D0E94EE
:1040A0009C2180939B0387E090E00E940D20882351
:1040B000C1F18BE190E00E940D20882351F08091A6
:1040C0009B0381FB222720F991E0922790FB81F945
:1040D0000FC08EE090E00E940D20882361F0809157
:1040E0009B0382FB222720F991E0922790FB82F923
:1040F00080939B0316C080E190E00E940D20909178
:104100009B03882341F093FB222720F981E082273B
:1041100080FB93F904C0892F809580FB90F99093E0
:104120009B0380919B030E94A0210E94AE2180935B
:104130000F0480EE90E00E940D20882341F08091D2
:104140000F04982F909590FB80F980930F0489E3DA
:1041500090E00E940D20882359F080910F0481FB8C
:10416000222720F991E0922790FB81F980930F0498
:1041700082EE90E00E940D20882359F080910F0478
:1041800082FB222720F991E0922790FB82F980930D
:104190000F0486EE90E00E940D20882359F0809154
:1041A0000F0483FB222720F991E0922790FB83F9EB
:1041B00080930F0483EE90E00E940D20882359F035
:1041C00080910F0484FB222720F991E0922790FB35
:1041D00084F980930F0485E390E00E940D208823EA
:1041E00059F080910F0485FB222720F991E0922756
:1041F00090FB85F980930F0481E390E00E940D20ED
:10420000882359F080910F0486FB222720F991E042
:10421000922790FB86F980930F0481E190E00E9441
:104220000D20882359F080910F0487FB222720F965
:1042300091E0922790FB87F980930F0480910F04FF
:104240000E94B22180910F0487FB882780F9809318
:104250000D0187E290E00E940D20C82F8EE190E0D2
:104260000E940D208111C2608FE190E00E940D201C
:104270008111C46080E290E00E940D208111C8602D
:1042800081E290E00E940D208111C06182E290E005
:104290000E940D208111C06283E290E00E940D20F7
:1042A0008111C06484E290E00E940D20882311F007
:1042B000C06802C0CC2329F08C2F0E94A9216C2F4A
:1042C00003C00E94A521682F70E080E090E0CF91AC
:1042D0000C94761ACF9108956DEE7EEF80E090E019
:1042E0000E94C62C60E082E090E00E94B02C60E06A
:1042F00083E090E00E94B02C60E084E090E00E94B7
:10430000B02C60E085E090E00E94B02C60E086E098
:1043100090E00C94B02C6FEF7FEF80E090E00C9475
:10432000C62C80E090E00E94AA2C21E08D3E9E4F9A
:1043300009F020E0822F089582E090E00C949C2CFC
:10434000682F82E090E00C94B02C83E090E00C9415
:104350009C2C682F83E090E00C94B02C84E090E0DB
:104360000C949C2C682F84E090E00C94B02C86E098
:1043700090E00C949C2C682F86E090E00C94B02C7C
:104380008091A30380FF0BC06091130185E0689FBB
:10439000B001112475956795759567952BC081FFC0
:1043A00009C06091130185E0689FB00111247595E3
:1043B000679520C082FF07C06091130185E0689F68
:1043C000B001112417C09091A4039923D1F06091FA
:1043D0001201961788F72091130185E0289F90011C
:1043E0001124929FA001939F500D112470E0CA01E7
:1043F0000E94822C6038710540F46115710539F016
:1044000002C065E070E0862F08958FE7089581E08F
:1044100008958091A30380FF08C06091110170E0AE
:10442000759567957595679521C081FF06C0609168
:10443000110170E07595679519C082FF04C0609105
:10444000110170E010C09091A4039923C1F0609114
:1044500010019617A0F780911101899FC0011124C6
:1044600070E00E94822C6038710528F46115710596
:1044700021F0862F08958FE7089581E0089561E087
:1044800070E0F4CF803F21F40E94C021819504C0E8
:10449000813F29F40E94C0218093A7030895823FA1
:1044A00021F40E94C021819504C0833F29F40E9419
:1044B000C0218093A6030895893F19F40E94092220
:1044C00005C08A3F31F40E94092281958093A80398
:1044D00008958B3F21F40E940922819504C08C3FEE
:1044E00029F40E9409228093A9030895843F21F4AE
:1044F0008091A503816017C0853F21F48091A503B9
:10450000826011C0863F21F48091A50384600BC0B6
:10451000873F21F48091A503886005C0883F31F46E
:104520008091A50380618093A50308958D3F21F4B8
:104530008091A30381600BC08E3F21F48091A3037F
:10454000826005C08F3F29F48091A303846080932B
:10455000A3030895803F39F48091A70387FF6CC0BF
:104560001092A70369C0813F29F48091A703181610
:10457000BCF362C09091A603823F29F497FF5CC010
:104580001092A60359C0833F19F41916CCF354C0F6
:10459000893F41F48091A80318160CF04DC0109289
:1045A000A8034AC08A3F29F48091A80387FF44C02A
:1045B000F6CF8B3F39F48091A90387FF3DC010925D
:1045C000A9033AC08C3F29F48091A9031816BCF3C3
:1045D00033C0843F21F48091A5038E7F17C0853FAF
:1045E00021F48091A5038D7F11C0863F21F4809135
:1045F000A5038B7F0BC0873F21F48091A503877FA4
:1046000005C0883F31F48091A5038F7E8093A50378
:1046100013C08D3F21F48091A3038E7F0BC08E3F8A
:1046200021F48091A3038D7F05C08F3F29F48091F1
:10463000A3038B7F8093A3038091A60381110EC0F7
:104640008091A70381110AC08091A803811106C03F
:104650008091A903811102C01092A403089585EAF4
:1046600093E00E947E100E94E71D9093A203809326
:10467000A10308951F93CF93DF938091A10390919D
:10468000A2030E94F31DAC019091A403992321F091
:104690002091140130E006C0209115018AE0289F86
:1046A000900111244217530708F485C08091A60396
:1046B000C091A703D091A8031091A903811107C04D
:1046C000C11175C0D11173C0111171C074C09F3F69
:1046D00019F09F5F9093A403181624F40E94C02140
:1046E0008093A6038091A60387FF05C00E94C02186
:1046F00081958093A6031C1624F40E94C021809308
:10470000A7038091A70387FF05C00E94C021819560
:104710008093A7036091A603662331F1C091A7039C
:10472000CC2311F1062E000C770B880B990B0E94FD
:10473000752B23E333E343E35FE30E94D92B0E940D
:104740003D2B6093A6036C2FCC0F770B880B990B36
:104750000E94752B23E333E343E35FE30E94D92BED
:104760000E943D2B6093A7031D1624F40E9409228A
:104770008093A8038091A80387FF05C00E940922A7
:1047800081958093A803111624F40E940922809336
:10479000A9038091A90387FF05C00E940922819582
:1047A0008093A903DF91CF911F910C942F239F3FFA
:1047B00009F08FCF97CFDF91CF911F910895E5EA50
:1047C000F3E085E0DF011D928A95E9F71092A403DA
:1047D0001092A3030895833081F128F4813059F0B9
:1047E0008230D1F00895853009F449C0B8F186309F
:1047F00009F456C0089580911501262F30E0280F46
:10480000311D2F3F310524F4680F60931501089581
:104810008FEF80931501089580911401262F30E0C9
:10482000280F311D2F3F310524F4680F60931401C8
:1048300008958FEF80931401089580911301262F1E
:1048400030E0280F311D2F3F310524F4680F6093AD
:10485000130108958FEF8093130108958091120141
:10486000262F30E0280F311D2F3F310524F4680F2B
:104870006093120108958FEF809312010895809143
:104880001101262F30E0280F311D2F3F310524F470
:10489000680F6093110108958FEF809311010895BF
:1048A00080911001262F30E0280F311D2F3F310558
:1048B00024F4680F6093100108958FEF8093100126
:1048C0000895833011F128F4813049F0823091F05D
:1048D0000895853081F120F18630C1F108958091ED
:1048E0001501681720F4861B809315010895109216
:1048F0001501089580911401681720F4861B809398
:1049000014010895109214010895809113016817FD
:1049100020F4861B809313010895109213010895CB
:1049200080911201681720F4861B8093120108956C
:1049300010921201089580911101681720F4861BCE
:104940008093110108951092110108958091100132
:10495000681720F4861B80931001089510921001AF
:1049600008950F931F938B3109F475C0A0F58E3015
:1049700009F484C0C0F4873009F462C068F486305A
:1049800009F0AAC080919B03817F8E7F80939B0357
:1049900081E08093AB03A1C0883009F44AC08B301A
:1049A00009F498C099C0813109F472C068F480316B
:1049B00009F092C080919B0383FB222720F991E0AC
:1049C000922790FB83F950C0863109F483C0893166
:1049D00009F480C081C0853309F463C068F487326C
:1049E00009F45FC028F48E3108F476C08D515FC0A1
:1049F000893209F456C070C0833438F48A3308F021
:104A000055C0883309F466C067C0833409F449C0CF
:104A1000883409F061C00E9482160FEF13ED20E385
:104A2000015010402040E1F700C000000E94421EEB
:104A300051C00E949C210E94AE210E94B7214AC011
:104A400090919B03892F817090FF12C0917F9E7F70
:104A500090939B0342C080919B0381FB222720F906
:104A600091E0922790FB81F980939B03992391F128
:104A700080919B03816080939B032CC080919B035A
:104A800082FB222720F991E0922790FB82F9ECCF5C
:104A90000E94821690910D0181E0892780930D017B
:104AA00019C061E070E080E090E010C0895341E0FF
:104AB00050E060E070E08A019B0104C0000F111F0C
:104AC000221F331F8A95D2F7C901B8010E94761AB6
:104AD0000E94821681E001C080E01F910F9108952D
:104AE00080E0089580E00895CF93C82F8091AB03B4
:104AF000813069F018F08230C9F184C0E0910E0174
:104B0000F0910F018081823209F07EC007C0E091F0
:104B10000E01F0910F018081823261F48C2F0E948E
:104B20007025811104C08C2F0E94B1241DC081E02A
:104B300090E01AC08C2F0E947225811114C0C431DC
:104B400079F048F4CB3079F0C03109F061C082E0EF
:104B50008093AB0308C0C93219F0C83321F058C0A4
:104B60001092AB0355C081E0817054C0C93291F1FD
:104B700020F5C43179F1B0F4C73009F047C08EE1B7
:104B80008093150182E3809314018AE080931301DE
:104B900084E18093120188E08093110188E2809380
:104BA000100134C0CE51C63088F5EC2FF0E0E05152
:104BB000FD4F80818093AA0329C0CE34E9F020F410
:104BC000CB3421F56AE013C0C13579F0C235F1F478
:104BD00061E00DC08091AA03882319F01092AA0306
:104BE00015C081E08093AB0315C061E006C08091E1
:104BF000AA030E94EB230AC06AE08091AA030E94E4
:104C0000612404C01092AB0380E004C081E002C0C4
:104C100080E0AACFCF910895E1E8F0E0808188603C
:104C200080838081816080838FB7F89493E0909334
:104C3000890090ED909388008FBF0C94D329EFE604
:104C4000F0E080818260808381E08093C0030C94D7
:104C5000EE29EFE6F0E080818D7F80831092C00323
:104C600080E00E94E12981E00E94E1298091C00357
:104C70000C94EE298091BF0383608093BF03089555
:104C80001092BF0380E00E94E12981E00E94E129A7
:104C90008091C0030C94EE29EBEBF3E080838183D9
:104CA0000895E82FF0E0E554FC4F2081422F50E0BA
:104CB0008FEF90E0861B9109841795071CF48FEF06
:104CC00080830895620F60830895E82FF0E0E55433
:104CD000FC4F8081861710F410820895861B808314
:104CE00008958091BA0383608093BA030895109267
:104CF000BA0308954091B90321E030E0662341F002
:104D000001C0220F8A95EAF7242B2093B903089556
:104D1000B90102C0660F771F8A95E2F7CB01809533
:104D200084238093B9030895CF93C82F682F80E020
:104D30000E947A266C2F81E0CF910C947A26809382
:104D4000B80308958091B50383608093B5030895F7
:104D50001092B50308958093B30308951F920F92A4
:104D60000FB60F921124EF92FF920F931F932F9380
:104D70003F934F935F936F937F938F939F93AF93E3
:104D8000BF93CF93DF93EF93FF938091AF038F5F38
:104D90008093AF030DEB13E0C0E0D0E0FC2E209138
:104DA000BF0330E00C2E02C0369527950A94E2F737
:104DB00020FF1AC08091AF0381110DC0F8018081DE
:104DC000882319F08C2F0E94D429FE01E554FC4F52
:104DD0008081F80180839091AF03F801808198135E
:104DE00003C08F2D0E94E1290F5F1F4F219719F0FB
:104DF000C1E0D0E0D3CF8091AE038F5F803418F450
:104E00008093AE03ACC01092AE03E090BA03E11001
:104E100005C09091B50391113BC0A1C08091AD0335
:104E20008F5F8093AD039091B803981790F710921D
:104E3000AD0306EB13E0C0E0D0E0F12CC7010C2E6F
:104E400002C0969587950A94E2F780FF1AC0F80190
:104E50008081882319F08150808313C08091B90329
:104E600090E00C2E02C0969587950A94E2F761E0D7
:104E700080FF04C08C2F0E94652603C08C2F0E94E7
:104E800051260F5F1F4F219721F2C1E0D0E0D6CF0E
:104E90008091AC038F5F8093AC032091B3032817FC
:104EA00008F05DC01092AC032091B0033091B403C0
:104EB000A1EBB3E040E050E0C1E0D0E0692F70E04A
:104EC000042E02C0769567950A94E2F760FF3AC017
:104ED0008C91E82FF0E0E854FC4F0491BA0165543E
:104EE0007C4FFB010083622F70E0042E02C0769598
:104EF00067950A94E2F760FF19C0811115C0BE01E1
:104F0000042E01C0660F0A94EAF760952623E32F6A
:104F1000F0E0042E02C0F695E7950A94E2F7E0FF70
:104F200011C0962336230EC081500BC08F3741F439
:104F3000BE01042E01C0660F0A94EAF7262B02C0B8
:104F40008F5F8C9311964130510519F041E050E08C
:104F5000B5CF2093B0039093B5033093B403FF9182
:104F6000EF91DF91CF91BF91AF919F918F917F9101
:104F70006F915F914F913F912F911F910F91FF90F2
:104F8000EF900F900FBE0F901F9018950E949121E7
:104F9000811102C00E946C210E94B72180931004ED
:104FA00080FF02C0869501C080E00C9412048091BD
:104FB0001004982F9695292F30E0283031054CF4B5
:104FC0009F5F990F8170892B8160809310040E94EC
:104FD000BB218091100486950C94120480911004DA
:104FE000982F969591F09158990F8170892B809305
:104FF00010048E7F91E009F490E08091100490FB02
:1050000080F9809310040E94BB2180911004869542
:105010000C94120480911004982F9095917090FB3D
:1050200080F980931004992339F0982F9E7F21F402
:105030008170826080931004809110040E94BB21D3
:105040008091100480FF02C0869501C080E00C941E
:10505000120490911004892F86958F5F8F7791703D
:10506000893028F4880F892B8093100402C0909314
:105070001004809110048E7F91E009F490E08091FB
:10508000100490FB80F9809310040E94BB21809152
:10509000100486950C941204880F9091100491705E
:1050A000892B809310048E7F91E009F490E0809129
:1050B000100490FB80F9809310040E94BB21809122
:1050C000100486950C941204EF92FF920F931F9395
:1050D000CF93DF930091C6030827611102C009F442
:1050E0003FC0C0E0D0E0E62EF82E10E08C2F9C2FC1
:1050F0002091BF0330E00C2E02C0369527950A940C
:10510000E2F720FF0BC02091C20330E00C2E02C05A
:10511000369527950A94E2F720FD1BC0E11009C0DF
:105120009801092E02C0369527950A94E2F720FFD0
:1051300010C02091C1032F2530E002C0369527957D
:105140009A95E2F720FF03C00E946B0402C00E9400
:105150007404219719F0C1E0D0E0C8CFF092C603E3
:10516000DF91CF911F910F91FF90EF9008950F93D2
:105170001F93CF93DF93C0E0D0E001E010E08C2FCD
:105180000E94302A94FF0BC08091C10398010C2E1D
:1051900001C0220F0A94EAF7282B2093C10395FF40
:1051A0000BC08091C20398010C2E01C0220F0A94FB
:1051B000EAF7282B2093C2039F70892F90E082305A
:1051C000910589F083309105D1F08130910511F579
:1051D0000C2E01C0880F0A94EAF79091C403892B22
:1051E0008093C40317C02091C303C8010C2E01C0D3
:1051F000880F0A94EAF7822B8093C3030BC0209197
:10520000C503C8010C2E01C0880F0A94EAF7822B4F
:105210008093C503219719F0C1E0D0E0B0CF0E9480
:10522000660461E080E0DF91CF911F910F910C94B3
:105230006428CF93DF939091C503992369F1D82F08
:10524000C091C60390FF0FC080E00E94302A2D2F2E
:1052500030E002C0359527958A95E2F720FD02C01F
:10526000CE7F01C0C1608091C50381FF0FC081E086
:105270000E94302A2D2F30E002C0359527958A955F
:10528000E2F720FD02C0CD7F01C0C26060E08C2F3C
:10529000DF91CF910C946428DF91CF910895CF9244
:1052A000DF92EF92FF92CF932091C403222399F1D2
:1052B0006B017C01C091C60320FF11C080E00E94F9
:1052C000302AA701960104C0569547953795279532
:1052D0008A95D2F720FD02C0CE7F01C0C1608091C7
:1052E000C40381FF0FC081E00E94302A04C0F694FD
:1052F000E794D794C7948A95D2F7C0FC02C0CD7FBB
:1053000001C0C26060E08C2FCF91FF90EF90DF90E2
:10531000CF900C946428CF91FF90EF90DF90CF90C6
:105320000895CF92DF92EF92FF92CF932091C30323
:10533000222399F16B017C01C091C60320FF11C0AB
:1053400080E00E94302AA701960104C05695479537
:10535000379527958A95D2F720FD02C0CE7F01C0F0
:10536000C1608091C30381FF0FC081E00E94302A99
:1053700004C0F694E794D794C7948A95D2F7C0FCFA
:1053800002C0CD7F01C0C26060E08C2FCF91FF9042
:10539000EF90DF90CF900C946428CF91FF90EF9026
:1053A000DF90CF90089508952091C20330E0082E39
:1053B00002C0369527950A94E2F720FD0C946B0401
:1053C00008952091C20330E0082E02C0369527953B
:1053D0000A94E2F720FD0C947404089561E0809132
:1053E000C6030C94642887E090E00E94AA2C909356
:1053F000C8038093C703019661F480E00E945D04B6
:105400009093C8038093C703BC0187E090E00E949B
:10541000C62C89E090E00E94AA2C9093CA03809346
:10542000C903019661F481E00E945D049093CA0370
:105430008093C903BC0189E090E00C94C62C0895C8
:1054400080E00E945D04BC0187E090E00E94C62CD1
:1054500081E00E945D04BC0189E090E00C94C62CC0
:10546000E82FF0E0EE0FFF1FE953FC4F80819181A0
:105470000895CF92DF92EF92FF920F931F93CF93F5
:1054800081E190E00E94AA2C8C01C12CD12C2DEE40
:10549000E22E2EEFF22E0E94D502C82F0E94D702D4
:1054A000C89FC00111249C0183E0220F331F8A95FD
:1054B000E1F7205C3F4FC216D30680F4C601439645
:1054C0000E949C2C282F30E0C0FE02C0322F2227E1
:1054D000E20EF31E8FEFC81AD80ADDCF81E00E1559
:1054E0001F0509F080E0CF911F910F91FF90EF9081
:1054F000DF90CF90089590E0880F991F43960C9409
:10550000AA2C90E0880F991F43960C94C62CEF921A
:10551000FF920F931F93CF93DF9300D0CDB7DEB7E9
:10552000182F4A8369830E94D502082F0E94D70250
:10553000089FC0011124189F7001199FF00C1124BD
:105540000E94D70269819701689F200D311D1124A7
:10555000C9014A81840F911D8D5A9F4F0F900F9062
:10556000DF91CF911F910F91FF90EF900C949C2CA5
:105570008D5A9F4F0C94B02C8F929F92AF92BF92F6
:10558000CF92DF92EF92FF920F931F93CF93DF930F
:105590000E94CB026C010E94C8027C01C114D1049C
:1055A00009F10E9468024C01A12CB12C0DEE1EEFF6
:1055B000A814B90420F4F601C591D49102C0C0E04A
:1055C000D0E0BE018A2D0E94812A0C0F1D1F8FEF93
:1055D000A81AB80A82E0C80ED11C80E2A816B1044D
:1055E00039F702C00DEE1EEFE114F10471F10E94D3
:1055F00065026C01A12CB12C0E94D502C82F0E941B
:10560000D702C89FC001112423E0880F991F2A9553
:10561000E1F7A816B906C8F4AC14BD0428F4F701E4
:10562000EA0DFB1DC49101C0C0E06C2FC5010E94B2
:10563000B82AEC2FF0E0A0FE02C0FE2FEE270E0FDE
:105640001F1F8FEFA81AB80AD7CFB80181E190E0E9
:10565000DF91CF911F910F91FF90EF90DF90CF904E
:10566000BF90AF909F908F900C94C62C0E94392AC7
:10567000811102C00C94BC2A08950E94442B6894A6
:10568000B1110C94D32B08950E94B82B88F09F572A
:1056900098F0B92F9927B751B0F0E1F0660F771F56
:1056A000881F991F1AF0BA95C9F714C0B13091F04C
:1056B0000E94D22BB1E008950C94D22B672F782F43
:1056C0008827B85F39F0B93FCCF386957795679511
:1056D000B395D9F73EF490958095709561957F4F7D
:1056E0008F4F9F4F0895E89409C097FB3EF4909523
:1056F0008095709561957F4F8F4F9F4F9923A9F0AB
:10570000F92F96E9BB279395F69587957795679539
:10571000B795F111F8CFFAF4BB0F11F460FF1BC07D
:105720006F5F7F4F8F4F9F4F16C0882311F096E910
:1057300011C0772321F09EE8872F762F05C06623BE
:1057400071F096E8862F70E060E02AF09A95660F77
:10575000771F881FDAF7880F9695879597F9089530
:1057600057FD9058440F551F59F05F3F71F0479512
:10577000880F97FB991F61F09F3F79F087950895F7
:10578000121613061406551FF2CF4695F1DF08C016
:10579000161617061806991FF1CF86957105610533
:1057A00008940895E894BB2766277727CB0197F9DB
:1057B00008950E94EC2B0C945D2C0E944F2C38F025
:1057C0000E94562C20F0952311F00C94462C0C943A
:1057D0004C2C11240C94D32B0E94B02B70F3959F6A
:1057E000C1F3950F50E0551F629FF001729FBB27D8
:1057F000F00DB11D639FAA27F00DB11DAA1F649F74
:105800006627B00DA11D661F829F2227B00DA11D26
:10581000621F739FB00DA11D621F839FA00D611DAC
:10582000221F749F3327A00D611D231F849F600DCD
:10583000211D822F762F6A2F11249F5750409AF0F6
:10584000F1F088234AF0EE0FFF1FBB1F661F771F82
:10585000881F91505040A9F79E3F510580F00C944D
:10586000462C0C94D32B5F3FE4F3983ED4F38695FB
:1058700077956795B795F795E7959F5FC1F7FE2BED
:10588000880F911D9695879597F9089597F99F67C9
:1058900080E870E060E008959FEF80EC08950024B8
:1058A0000A941616170618060906089500240A9485
:1058B00012161306140605060895092E0394000C0B
:1058C00011F4882352F0BB0F40F4BF2B11F460FF9A
:1058D00004C06F5F7F4F8F4F9F4F0895AA1BBB1B64
:1058E00051E107C0AA1FBB1FA617B70710F0A61BE0
:1058F000B70B881F991F5A95A9F780959095BC0101
:10590000CD01089597FB072E16F4009407D077FD7C
:1059100009D00E946E2C07FC05D03EF4909581952D
:105920009F4F0895709561957F4F0895EE0FFF1F6B
:105930000590F491E02D0994F999FECF92BD81BDB7
:10594000F89A992780B50895A6E1B0E044E050E0C8
:105950000C94CD2CA8E1B0E042E050E00C94CD2CAA
:10596000262FF999FECF1FBA92BD81BD20BD0FB67B
:10597000F894FA9AF99A0FBE01960895242F0E947E
:10598000B12C252F0E94B12C0C94C62C0E94B02C57
:10599000272F0C94B12CDC01CB01FC01F999FECF2F
:1059A00006C0F2BDE1BDF89A319600B40D924150A7
:0A59B0005040B8F70895F894FFCFB7
:1059BA0005FF3B0AC90AA60A720A3E0A01018603C2
:1059CA002808140A321E404D3639B00263022D02ED
:1059DA00F4018701A001B901D201040A30710165FD
:1059EA0001330130034700480036003000200052DE
:1059FA000047004200200055006E006400650072F6
:105A0A0000200047006C006F00770020004D006FF7
:105A1A0000640000000A03590041004E00470000DC
:105A2A00000403090409026D00040100A0320904FC
:105A3A0000000103010100092111010001224000B7
:105A4A000705810308000A09040100010301020095
:105A5A00092111010001224D000705820308000AED
:105A6A0009040200010300000009211101000122BA
:105A7A0036000705830308000A090403000103002E
:105A8A0000000921110100012239000705840310D1
:105A9A0000011201100100000008EDFE6060010023
:105AAA000102000105010906A101050719E029E71C
:105ABA0015002501950875018102050819012905B6
:105ACA009505750191029501750391010507190064
