:100000000C9460020C94A4020C94A4020C94A4021C
:100010000C94A4020C94A4020C94A4020C94A402C8
:100020000C94A4020C94A4020C9429100C94FB10C0
:100030000C945C210C94A4020C94A4020C94A402D1
:100040000C94A4020C94E0290C94A4020C94A40235
:100050000C94A4020C94D1200C94A4020C94A4023D
:100060000C94A4020C94A4020C94A4020C94A40278
:100070000C94A4020C94A4020C94A4020C94A40268
:100080000C94320B0C94A4020C94A4020C94A402C1
:100090000C94A4020C94A4020C94A4020C94A40248
:1000A0000C94A4020C94A4020C94A4020E03130357
:1000B0003A03360348034403560352035B117B1192
:1000C00033127B113312BD11E011331202121512DB
:1000D0001C161C164A164A16A616E2166A196A1942
:1000E000FA166A19F117F117D018E4186A19581995
:1000F000F3270B28EC27EA27EA277B28EA27EA27B9
:100100002228EA272C283E286C28EA27EA27EA2713
:100110007B28EA27EA277B2860281828EA27EA278D
:100120004C284C284C284C284C284C284C284C282F
:100130004C284728EA274728EA27EA27EA27EA2718
:10014000EA27EA27EA27EA27EA27EA27EA274728C9
:10015000EA27EA277B28EA275E285E285E285E28B1
:100160005E285E285E285E285E284728EA27EA2760
:10017000EA27EA27FD27F1A100D100D200D0000034
:1001800000F0000002F003F004F005F006F007F0C4
:1001900008F009F0C51E1F20212223242526272D23
:1001A0002E2A2B141A0815171C180C12132F303175
:1001B00039041607090A0B0D0E0F33340028E1002D
:1001C0001D1B061905111036373800E5E0E3E20083
:1001D000002C00000000E6C0E7E4353A3B3C3D3E21
:1001E0003F4041424344454C010101010101B4013A
:1001F00049014647480101C9CACBCCCDCE01010116
:100200004A4B00010100C7C8C1C2C3AAA9A84D4EEC
:1002100000010101010000010000000001010101D5
:10022000001080FF010301020202012301220222C9
:100230000122643214643214783C1E1E140A050034
:100240000000000101010202030405050607090A76
:100250000B0C0E0F1112141517191B1D1F2123252E
:10026000282A2C2F313436393B3E414346494C4FE6
:100270005255585A5D6164676A6D707376797C7FF8
:100280008386898C8F9295989B9EA2A5A7AAADB0D4
:10029000B3B6B9BCBEC1C4C6C9CBCED0D3D5D7DAEC
:1002A000DCDEE0E2E4E6E8EAEBEDEEF0F1F3F4F5B3
:1002B000F6F8F9FAFAFBFCFDFDFEFEFEFFFFFFFF7C
:1002C000FFFFFFFEFEFEFDFDFCFBFAFAF9F8F6F576
:1002D000F4F3F1F0EEEDEBEAE8E6E4E2E0DEDCDA9E
:1002E000D7D5D3D0CECBC9C6C4C1BEBCB9B6B3B0C6
:1002F000ADAAA7A5A29E9B9895928F8C8986838094
:100300007C797673706D6A6764615D5A5855524F97
:100310004C494643413E3B393634312F2C2A28255F
:1003200023211F1D1B1917151412110F0E0C0B0A78
:10033000090706050504030202010101000000008F
:100340000101020202020202030303030303030387
:100350000303030303030404040404040404040463
:10036000040405050505050505050505060606063B
:10037000060606060707070707070708080808080C
:10038000080909090909090A0A0A0A0A0B0B0B0BD1
:100390000B0C0C0C0C0C0D0D0D0D0E0E0E0E0F0F8C
:1003A0000F10101010111111121212131313141434
:1003B000141515161616171718181919191A1A1BC5
:1003C0001B1C1C1D1D1E1E1F202021212223232437
:1003D00024252626272828292A2B2B2C2D2E2F3082
:1003E000303132333435363738393A3B3C3D3E3F95
:1003F00040414244454647494A4B4C4E4F51525367
:100400005556585A5B5D5E6062636567696B6D6ED9
:1004100070727476797B7D7F818486888B8D9092D3
:1004200095979A9D9FA2A5A8ABAEB1B4B7BABEC12D
:10043000C4C8CBCFD3D6DADEE2E6EAEEF2F8FF00AC
:1004400000000000000000000001010102020203A0
:1004500003040405050606070808090A0B0B0C0D22
:100460000E0F10111213151617191A1B1D1E20221C
:10047000232527292B2D2F313335383A3D3F424450
:10048000474A4D505356595C5F6266696C70747789
:100490007B7E82868A8E9195999DA1A5A9ADB0B4E7
:1004A000B8BCC0C3C7CBCED2D5D8DBDFE2E4E7EA25
:1004B000ECEFF1F3F5F7F8FAFBFCFDFEFFFFFF00B0
:1004C00011241FBECFEFDAE0DEBFCDBF04B603FEBE
:1004D00024C08091890490918A04A0918B04B091EA
:1004E0008C048730904BA740B04BB9F4109289042C
:1004F00010928A0410928B0410928C0414BE84B75C
:10050000877F84BF88E10FB6F894809360001092D3
:1005100060000FBEE0E0F8E3099513E0A0E0B1E071
:10052000ECEFF0E602C005900D92A234B107D9F7C6
:1005300014E0A2E4B3E001C01D92A938B107E1F7CD
:100540000E94B50D0C947C300C9400008CE890E077
:1005500008958FE090E008951F93CF93DF93EC010F
:10056000162F8A816130A1F028F06A3041F16B309A
:10057000A1F144C0882371F00E943720827231F0CB
:100580000E94372080FD02C085E310C089E20EC0C2
:10059000811105C0809142030E949F150DC00E94E9
:1005A000372082FF02C08DE301C081E280934203C5
:1005B000809142030E94D5140E946B201FC08823A3
:1005C000E9F091E08091ED03811190E09093ED03CB
:1005D0008091860490FB80F90DC0882379F091E02A
:1005E0008091EC03811190E09093EC03809186045C
:1005F00090FB81F9809386040E947F228A81882360
:1006000009F45EC0812F90E0FC013297E830F105DB
:1006100008F056C0EA5AFF4F0C942530DF91CF9175
:100620001F910C94E6080E94372081FF1AC0909118
:100630003604892F8695815C8F739178882329F001
:10064000880F892B8093360403C09E6290933604F2
:100650008091360486958F73DF91CF911F910C9412
:100660005C08DF91CF911F910C94DC080E94372029
:1006700081FF05C0DF91CF911F910C94B307DF91EB
:10068000CF911F910C949A070E94372081FF05C0DB
:10069000DF91CF911F910C94ED07DF91CF911F91C6
:1006A0000C94D2070E94372081FF05C0DF91CF91C3
:1006B0001F910C942208DF91CF911F910C94070891
:1006C000DF91CF911F910895462F672F0C940A2E2A
:1006D000805C0E94FE2D089584E991E0089586E7EC
:1006E00091E008958AB1807D8AB98BB1807D8BB904
:1006F000089585E008958EE0089580E885BF85BF60
:100700000E949E080E94720380B38C7F80BB81B3DD
:10071000836081BB6E98769A8AB18F728AB98BB1E9
:10072000806D8BB987B18F7387B988B1806C88B9B8
:1007300084B1847084B985B18B6F85B9EDE4F3E041
:10074000A3E4B3E0119211921D921D9283E0E7356C
:10075000F807C1F70895FF920F931F93CF93DF938C
:10076000C3E4D3E010E001E0A5E0FA2E123071F00E
:1007700018F4113041F004C0133059F0143061F016
:10078000509A58980BC0519A599808C0529A5A9842
:1007900005C0539A5B9802C0559A5D9880EA8A9585
:1007A000F1F78FB18170802790E0799B03C020E042
:1007B00030E002C022E030E0822B932B669B03C026
:1007C00020E030E002C024E030E0822B932B26B101
:1007D000332727FD3095209530952227330F221F90
:1007E0003327F3E0220F331FFA95E1F7822B932B87
:1007F000369B03C060E070E002C060E170E0862BD1
:10080000972B1E9B03C060E070E002C060E270E0C6
:10081000682B792B4C9B03C020E030E002C020E421
:1008200030E0262B372B199B03C040E050E002C07C
:1008300040E850E0422B532B189B0DC083B1992701
:1008400087FD9095809590958827990F881F992707
:10085000982F882702C080E091E0842B952B1D9B68
:1008600003C020E030E002C020E032E0822B932B76
:100870001C9B03C020E030E002C020E034E0822B6B
:10088000932B29B1332727FD3095209530952227CA
:10089000330F221F3327322F2227330F330F330F0B
:1008A000822B932B4E9B03C020E030E002C020E05F
:1008B00030E1822B932B1B9B03C020E030E002C071
:1008C00020E030E2822B932B2881398128173907C9
:1008D00021F099838883F09200010E9472031F5FC8
:1008E0002296153009F042CF809100018823C1F093
:1008F000815080930001882339F08FE99FE00197B0
:10090000F1F700C000000CC0ADE4B3E0E3E4F3E0B5
:10091000819191918D939D9393E0ED34F907C1F707
:1009200081E0DF91CF911F910F91FF900895E82F03
:10093000F0E0EE0FFF1FE35BFC4F80819181089593
:100940000895CF93C82F8730A0F4843000F581300C
:10095000D0F10E9429290E9447290E94A6290E94BD
:10096000DA29EC2FF0E0E05EFD4F8491CF910C94FA
:100970005C298730C9F0883031F50E9429290E940E
:1009800047290E94A0290E94DA2981E016C00E940E
:1009900029290E9447290E94A6290E94D42986E07D
:1009A0008C1BCF910C94DD290E9429290E94472994
:1009B0000E94A0290E94DA2980E00E94BB2983E0DE
:1009C000CF910C94C9290E94A6290E94DA290E947D
:1009D0004D29CF910C9433291F93CF93DF9300D0EF
:1009E00000D01F92CDB7DEB7162F8091880480FF0C
:1009F00020C08E7F8E3041F4662331F080E20E9469
:100A0000CC2980E10E949229809188048E7F8031D8
:100A100081F4112371F080E20E94CC2980E10F90D3
:100A20000F900F900F900F90DF91CF911F910C942A
:100A300078290F900F900F900F900F90DF91CF912A
:100A40001F910895E82FF0E0EE0FFF1FEC5DFD4FC2
:100A5000859194910895229A2A9A80B3806B80BBE5
:100A600081B3806B81BB08959091360490FD29C0BD
:100A70008130B1F030F0823021F5E0E4F4E08FEF26
:100A800019C0EFE3F4E08FEF8083339694E0EB3707
:100A9000F907D1F764E170E08EE394E00C94E4058B
:100AA000EEE3F4E08FEF8083339694E0EA37F907C2
:100AB000D1F7F0CF8083339694E0EC37F907D1F784
:100AC000E9CF843059F018F4833031F0089585303F
:100AD00039F0863039F008952A9808958F9808954E
:100AE0008C9808958D9808959091360490FD26C0B5
:100AF0008130A1F028F0823009F5E0E4F4E017C07D
:100B0000EFE3F4E01082339684E0EB37F807D1F797
:100B100064E170E08EE394E00C94E405EEE3F4E02D
:100B20001082339684E0EA37F807D1F7F1CF1082CC
:100B3000339684E0EC37F807D1F7EACF843059F0E8
:100B400018F4833031F00895853039F0863039F06B
:100B500008952A9A08958F9A08958C9A08958D9AE7
:100B6000089531B3242F2095232331B3342B4FB76D
:100B7000F894FC01680F791FE617F70789F0819157
:100B800098E031BB000000C087FF21BB880F000048
:100B900000C000C000C021BB00C09A9591F7ECCF07
:100BA0004FBF089520B3242B20BB9B01220F331F7E
:100BB000260F371FB9010E94B10587EC90E001971D
:100BC000F1F700C00000089540E40C94D205CF92E4
:100BD000DF92EF92FF920F931F93CF93DF937C01ED
:100BE000E42FF0E0E15CFC4F44918FEF90E0FC01DA
:100BF000E61BF109E15CFC4FE491E09509F496C035
:100C0000042F10E08E1B9109809FB001819F700D11
:100C1000909F700D1124E72FF72FCCE3D0E0C70190
:100C2000BE010E94DB2FDC016230710509F447C070
:100C3000D8F461157105A1F16130710509F07AC030
:100C40000E1B1109CE018A1B9B0BDC010A9FC00100
:100C50000B9F900D1A9F900D1124BE010E94DB2F57
:100C6000CE2EC60ED42E67C06430710509F44BC079
:100C7000B8F16530710509F05DC00E1B1109BE01A8
:100C8000681B790B069FC001079F900D169F900D62
:100C90001124BE010E94DB2FDE2EFE2FF60F44C072
:100CA0000E1B11090E9DC0010F9D900D1E9D900DF4
:100CB0001124BE010E94DB2FDE2ED60E35C00E1B86
:100CC00011090A9FC0010B9F900D1A9F900D1124CE
:100CD000BE010E94DB2FD42ECE2EFE2FF60F2BC08E
:100CE0000E1B1109BE01681B790B069FC001079FEF
:100CF000900D169F900D1124BE010E94DB2FDE2E59
:100D0000D60ECE2E0FC00E1B11090A9FC0010B9FDD
:100D1000900D1A9F900D1124BE010E94DB2FCE2E44
:100D2000C60EDE2EF42F07C0C42E05C0F42FD42E1D
:100D3000C42E01C0F0E0D9011196CC921197DC923B
:100D40001296FC93DF91CF911F910F91FF90EF903E
:100D5000DF90CF9008958AE090E00C943330AB019F
:100D6000BC018AE090E00C945F308CE980933604FB
:100D7000E7E3F4E0808180788661806880838FEF8C
:100D8000809338048093390460913604709137045D
:100D900080913804909139040C94AF068091360408
:100DA00080FF06C064E170E08EE394E00C94E405FB
:100DB000E0E4F4E0DF0111971C92DF0112971C922E
:100DC0001082339684E0EC37F807A1F7EBCFE0E42C
:100DD000F4E0DF0111978C93DF0112976C9340834D
:100DE000339694E0EC37F907A1F70C94CE06CF9236
:100DF000DF92EF92FF920F931F93CF93DF9300D078
:100E00001F92CDB7DEB7F82EC92ED62EE42E009154
:100E1000360410913704209138043091390400933E
:100E20003A0410933B0420933C0430933D0480919A
:100E3000360480FF1EC09E012F5F3F4F8F2D0E9402
:100E4000E70580913A04F0FA87F980933A04F69422
:100E500020913B0420782F29C0FA27F920933B04E6
:100E6000D0923C04E0923D044B8169818A810E94CA
:100E7000E7060F900F900F90DF91CF911F910F9188
:100E8000FF90EF90DF90CF9008950F931F93CF9333
:100E9000DF93C82F192F062FD42F8091360480FF9F
:100EA00044C0982F9E77923029F48C2F912F0E9466
:100EB000F7061AC0282F26952F739EE3920F9F7373
:100EC000943018F4D09139040FC0265C2F73293068
:100ED00058F4881F8827881F10913704C12FCC0F22
:100EE000C82B17FB112710F980913604C0FB87F936
:100EF00080933604C6958091370480788C2B10FB44
:100F000087F98093370400933804D09339046091B3
:100F10003604709137048091380490913904DF9140
:100F2000CF911F910F910C94AF06DF91CF911F913C
:100F30000F91089520913604221F2227221F3091FD
:100F40003704432F440F842F822B37FB992790F9C6
:100F50000A9668E671E00E94EF2F40913904609193
:100F600038040C94450720913604221F2227221FA3
:100F700030913704432F440F842F822B37FB99275E
:100F800090F98A3091051CF4825A9E4F01C00A974D
:100F900068E671E00E94EF2F4091390460913804B7
:100FA0000C94450760913804862F90E08F3E9105A0
:100FB00014F46F5E01C06FEF80913604881F88279C
:100FC000881F90913704292F220F97FB992790F9BA
:100FD00040913904822B0C94450760913804862F88
:100FE00090E0419714F0615101C060E080913604B7
:100FF000881F8827881F90913704292F220F97FB7D
:10100000992790F940913904822B0C94450740911F
:101010003904842F90E08F3E910514F44F5E01C097
:101020004FEF80913604881F8827881F90913704DE
:10103000292F220F97FB992790F960913804822B72
:101040000C94450740913904842F90E0419714F0A7
:10105000415101C040E080913604881F8827881FD5
:1010600090913704292F220F97FB992790F96091CF
:101070003804822B0C9445078091680381110FC0BE
:1010800081E08093680389E0809391008FB7F894A2
:1010900093E09093990090ED909398008FBF0895FE
:1010A000E1E7F0E08081826080830895E1E7F0E08D
:1010B00080818D7F808308959091360490FF3DC09C
:1010C0009178811102C0926003C0883120F09E6245
:1010D0009093360405C08F73880F892B8093360454
:1010E00060913604709137048091380490913904EE
:1010F0000E94AF0680913604982F9E77923019F4A3
:101100000E94560807C08695825C8F73863110F462
:101110000E94500880913604881F8827881F90916C
:101120003704292F220F97FB992790F94091390412
:1011300060913804822B0C94450708958091E60352
:1011400081608093E60381E0809369030E94C42458
:10115000811104C00E949F240E94B5060E94AB0624
:101160006093360470933704809338049093390465
:101170006F3F7F4F8F4F9F4F21F40E94B5060E9413
:10118000CE06809136048E7761F40E94B5060E94E7
:10119000AB066093360470933704809338049093C1
:1011A00039040E943C088091360480FF04C0869573
:1011B0008F730C945C0808958091360486958F7324
:1011C0008F5F883108F081E00C945C0880913604D0
:1011D000982F909590FB80F98093360460913604A7
:1011E0007091370480913804909139040E94AF06C1
:1011F0008091360480FF04C086958F730C945C0840
:101200000E9456082FEF80E792E0215080409040E6
:10121000E1F700C000000C94CE06CF93C82F809158
:101220006603909167030E94A820EC2FF0E0E55C34
:10123000FD4FE491F0E08E179F0710F10E949C2073
:101240009093670380936603E0916503F0E0E15CAF
:10125000FD4F449180913604881F8827881F909104
:101260003704292F220F97FB992790F960913804B2
:10127000822B0E94F706809165038F5F8093650340
:10128000CF910895CF93C82F809163039091640309
:101290000E94A820EC2FF0E0E85CFD4FE491F0E024
:1012A0008E179F07E8F00E949C2090936403809320
:1012B00063034091390460913804809161039091F7
:1012C00062030E94F7068091610390916203019688
:1012D00068E671E00E94DB2F9093620380936103C4
:1012E000CF910895DF92EF92FF920F931F93CF93C8
:1012F000DF93D82E80915F03909160030E94A82015
:10130000ED2DE695F0E0E85CFD4FE491F0E08E17FE
:101310009F07E8F10E949C209093600380935F03F5
:101320000EE314E0C0E0D0E088E6E82EFF24F3945A
:1013300080915D0390915E038C0F9D1FB7010E9409
:10134000DB2F980140913904609138040E94E70531
:1013500062960D5F1F4FC83681E0D80749F70E949B
:10136000CE0620915D0330915E03D0FE0AC0C90114
:101370000696BE010E94DB2F90935E0380935D036F
:1013800006C02150310930935E0320935D03DF9145
:10139000CF911F910F91FF90EF90DF9008958F9262
:1013A0009F92AF92BF92CF92DF92EF92FF920F93F4
:1013B0001F93CF93DF93C82F80FD03C0992493948C
:1013C00002C099249A9480915B0390915C030E94DF
:1013D000A820C695EC2FF0E0EB5CFD4FE491F0E027
:1013E0008E179F0708F469C00E949C2090935C03AD
:1013F00080935B032EE3E22E24E0F22E00E414E05F
:10140000C0E0D0E037E0A32EB12CF8013197108274
:10141000F7011082F801108297E0C92ED12C812C9F
:1014200080915A03880D87FD8C5E992787FD9095E2
:10143000C817D907E9F4209139042C9DC0012D9DCE
:10144000900D1124B5010E94EF2F462F8091360494
:10145000881F8827881F90913704592F550F97FBB5
:10146000992790F9970160913804852B0E94E70530
:10147000890CF1E0CF1AD108C114D10489F6219664
:1014800083E0E80EF11C0D5F1F4FC431D10509F058
:10149000BCCF0E94CE0680915A0391E0991206C0FB
:1014A000811102C08DE007C0815005C090E0019617
:1014B000BE010E94EF2F80935A03DF91CF911F91BD
:1014C0000F91FF90EF90DF90CF90BF90AF909F90E3
:1014D0008F9008959F92AF92BF92CF92DF92EF923A
:1014E000FF920F931F93CF93DF93CDB7DEB7EC97A7
:1014F0000FB6F894DEBF0FBECDBF182F80915803F2
:10150000909159030E94A820E12FF0E0EE5CFD4F7E
:10151000E491F0E08E179F0708F492C00E949C208F
:1015200090935903809358038E010F5F1F4F5E0104
:1015300083E0A80EB11CE12CF12C6801F501319774
:101540001082F8011082F5011082912C9091010116
:1015500080915703999E800D112487FD04C084312A
:101560001CF083E101C080E0992787FD9095E81683
:10157000F906A1F480913604881F8827881F90916E
:101580003704592F550F97FB992790F998014091EF
:10159000390460913804852B0E94E7059394F7E0A5
:1015A0009F12D4CF8FEFE81AF80A0D5F1F4FE3E0C8
:1015B000AE0EB11CF4E1EF16F10409F0BFCF20E448
:1015C00034E00BE010E054E1E52EF12CC801B70146
:1015D0000E94EF2FD9011197FC01EE0FFF1FE80FBA
:1015E000F91FEC0DFD1D81818C93D901129780812B
:1015F0008C938281F90180830F5F1F4F2D5F3F4FD6
:101600000F31110519F70E94CE06909101018091CA
:101610005703913049F48A3F2CF489EF80935703A4
:101620008FEF08C081500AC08B313CF08AE1809373
:10163000570381E08093010103C08F5F80935703BC
:10164000EC960FB6F894DEBF0FBECDBFDF91CF9101
:101650001F910F91FF90EF90DF90CF90BF90AF90D0
:101660009F9008951F920F920FB60F9211242F93FF
:101670003F934F935F936F937F938F939F93AF931A
:10168000BF93EF93FF938091360486958F739EE30B
:10169000980F9F73943020F482500E940D0923C04C
:1016A0009AE3980F9F73933020F486500E9442096A
:1016B0001AC097E3980F9F73963020F489500E94C8
:1016C000720911C091E3980F9F73963020F48F50E8
:1016D0000E94CF0908C09BE2980F9F73933018F4C3
:1016E00085510E946A0AFF91EF91BF91AF919F913E
:1016F0008F917F916F915F914F913F912F910F90BB
:101700000FBE0F901F90189580917A030895CF9384
:10171000DF9300D01F92CDB7DEB720917D04243037
:1017200019F523E029839B838A832093E9008FEFB7
:101730009091E800815095FD06C095ED9A95F1F7DE
:1017400000008111F5CF8091E80085FF0DC040E0D9
:1017500050E063E070E0CE0101960E94580E809147
:10176000E8008E778093E8000F900F900F90DF9144
:10177000CF910895CF93DF9300D01F92CDB7DEB7FE
:1017800020917D04243021F522E029839B838A83E4
:1017900083E08093E9008FEF9091E800815095FD00
:1017A00006C095ED9A95F1F700008111F5CF809173
:1017B000E80085FF0DC040E050E063E070E0CE013E
:1017C00001960E94580E8091E8008E778093E80081
:1017D0000F900F900F90DF91CF91089520917D048D
:1017E0002430F1F422E02093E9002FEF3091E8005B
:1017F000215035FD06C035ED3A95F1F70000211175
:10180000F5CF2091E80025FF0BC040E050E065E0F7
:1018100070E00E94580E8091E8008E778093E80077
:101820000895CF93DF93EC0180917D04843009F01B
:1018300047C080910C018823E1F080910D0188233D
:10184000C1F086E08093E9008FEF9091E80081502D
:1018500095FD06C095E19A95F1F700008111F5CF4D
:101860008091E80085FF2CC040E050E060E170E02E
:1018700017C081E08093E9008FEF9091E8008150DC
:1018800095FD06C095ED9A95F1F700008111F5CF11
:101890008091E80085FF14C040E050E068E070E00F
:1018A000CE010E94580E8091E8008E778093E80068
:1018B00080E1FE01AAE6B3E001900D928A95E1F77E
:1018C000DF91CF91089580917C04811109C00E941D
:1018D000B00F0E940B108091E20084608093E200C0
:1018E000089510927C04089508951F93CF93DF9379
:1018F000CDB7DEB7A0970FB6F894DEBF0FBECDBF51
:1019000080917D04843009F045C08091E9008F709A
:101910009091EC0090FF02C010E801C010E0182B7D
:1019200085E08093E9008091E80082FF15C08091F6
:10193000E80085FF0CC040E050E060E270E0CE01BE
:1019400001960E94A10ECE0101960E94471280913D
:10195000E8008B778093E80084E08093E900809131
:10196000EB0080FF14C08091EE0087FF10C08091D3
:10197000E80085FF03C01092F100F9CF8091E800E4
:1019800080FF05C08091E8008E778093E8001F708B
:101990001093E900A0960FB6F894DEBF0FBECDBF3E
:1019A000DF91CF911F91089542E061EC81E00E94A8
:1019B0004B0F42E061EC82E00E944B0F42E061EC91
:1019C00083E00E944B0F42E261EC84E00E944B0FE7
:1019D00042E260EC85E00E944B0F42E161EC86E060
:1019E0000C944B0F80917F04833009F455C030F480
:1019F000813071F0823009F48EC008958A3009F484
:101A00007AC08B3009F460C0893009F09CC020C0D6
:101A100080917E04813A09F096C08091E800877F2A
:101A20008093E8008091820490918304892B21F0B7
:101A300060E080E090E003C060E18AE693E070E05F
:101A40000E94EA0E8091E8008B778093E800089569
:101A500080917E04813209F076C080918204909159
:101A60008304009719F0049709F06DC08091E80095
:101A7000877F8093E8008091E80082FD05C0809117
:101A80007D048111F8CF5FC08091F10080937A03CB
:101A90008091E8008B7753C080917E04813A09F0F1
:101AA00052C08091820490918304892B09F04BC02D
:101AB0008091E800877F8093E8008091E80080FFB4
:101AC000FCCF80910C0136C080917E048132D9F523
:101AD0008091820490918304892BA9F58091E8007C
:101AE000877F8093E8000E945F0F8091800480933D
:101AF0000C010C948B1980917E04813221F5809128
:101B0000E800877F8093E8000E945F0F8091810446
:101B100080937B03089580917E04813AA1F48091A3
:101B2000E800877F8093E8008091E80080FFFCCF89
:101B300080917B038093F1008091E8008E77809301
:101B4000E8000C945F0F08950895089508950C948B
:101B5000A60D0E94192180917B04882329F00E9400
:101B6000432181110C94420E089584B7877F84BF6E
:101B700088E10FB6F89480936000109260000FBE69
:101B800090E080E80FB6F894809361009093610034
:101B90000FBE0E94A40D0E94AC130E94B00F0E94C1
:101BA0000B108091E20084608093E2007894809131
:101BB0007D048430E1F70E94AE1382E091E00E9440
:101BC00058130E94A50D80917D04853019F40E9460
:101BD000A90DF9CF0E94D613F6CF0C9458210C947E
:101BE000ED0D292F33272330310599F05CF4213096
:101BF0003105D9F122303105E9F58DE890E02AE789
:101C000031E03CC02132310599F022323105E9F052
:101C100031C099278330910568F5FC01EE0FFF1F55
:101C2000EE5CFE4F20813181FC01E15DFE4F1AC068
:101C3000653000F5E62FF0E0EE0FFF1FEB5DFE4F85
:101C40002081318189E090E019C0653098F4E62F59
:101C5000F0E0DF01AA0FBB1FA55EBE4F2D913C91A6
:101C6000EA5EFE4F808190E009C082E190E027E0CB
:101C700032E004C080E090E020E030E0FA013183FF
:101C80002083089580E189BD82E189BD09B400FE09
:101C9000FDCF8091D8008F7D8093D8008091E000A7
:101CA00082608093E0008091E00081FDFCCF089588
:101CB000CF92DF92EF92FF920F931F93CF93DF9318
:101CC0007C018B01EA010E94800F811131C02097B5
:101CD00031F088819981081B190BE80EF91EC12C7F
:101CE000D12C0115110519F18091E80085FD14C072
:101CF0008091E8008E778093E800209741F08881FA
:101D000099818C0D9D1D9983888385E011C00E9467
:101D1000800F882331F30CC0F70181917F018093FC
:101D2000F10001501109FFEFCF1ADF0ADACF80E08E
:101D3000DF91CF911F910F91FF90EF90DF90CF90A7
:101D40000895CF92DF92EF92FF920F931F93CF935C
:101D5000DF937C018B01EA010E94800F811131C069
:101D6000209731F088819981081B190BE80EF91E24
:101D7000C12CD12C0115110519F18091E80085FDC8
:101D800014C08091E8008B778093E800209741F0A1
:101D9000888199818C0D9D1D9983888385E011C070
:101DA0000E94800F882331F30CC08091F100F7016D
:101DB00081937F0101501109FFEFCF1ADF0ADACFBB
:101DC00080E0DF91CF911F910F91FF90EF90DF9016
:101DD000CF90089520918404309185042617370709
:101DE00048F06115710539F42091E8002E772093B1
:101DF000E80001C0B901FC0120E061157105B9F1ED
:101E000080917D04882309F440C0853009F43FC0E7
:101E10008091E80083FD3DC08091E80082FF06C00C
:101E20008091E80082FF26C080E008958091E8005C
:101E300080FFE3CF2091F3008091F20090E0922B9D
:101E40006115710551F08830910538F42191209386
:101E5000F100615071090196F3CF21E0089709F074
:101E600020E08091E8008E778093E800C6CF2111B2
:101E7000C7CFD6CF80917D04882339F0853039F0E3
:101E80008091E80083FFCCCF04C082E0089583E016
:101E9000089581E008958F708093E900EBEEF0E003
:101EA000808181608083EDEEF0E010826093EC0031
:101EB00040838091EE00881F8827881F08958091B5
:101EC0007E0487FD05C08091E80080FF0EC012C02F
:101ED0008091E80082FD05C080917D048111F8CFDA
:101EE00008958091E8008B7708C080917D0481116E
:101EF000EACF08958091E8008E778093E8000895F6
:101F00008091E4009091E50045E62091EC0020FFEF
:101F100021C02091E80020FD21C020917D042223D2
:101F200089F0253089F02091EB0025FD0FC020912C
:101F3000E4003091E5002817390739F3415041F0AA
:101F4000C901E3CF82E0089583E0089581E0089518
:101F500084E008952091E80022FFDFCF80E008951B
:101F60000E941C100E942410E0EEF0E0808181604D
:101F70008083E8EDF0E080818F77808319BCA7ED46
:101F8000B0E08C918E7F8C9380818F7E80831092C5
:101F90007C0408950F931F93CF93DF930E941C102E
:101FA0000E942410C8EDD0E088818F7788838881D3
:101FB0008068888388818F7D888319BC10927D0416
:101FC00010927A0410927B0400EE10E0F8018081F8
:101FD0008B7F808388818160888342E060E080E03D
:101FE0000E944B0FE1EEF0E080818E7F8083E2EE75
:101FF000F0E0808181608083808188608083F80147
:1020000080818E7F8083888180618883DF91CF91FA
:102010001F910F910895E8EDF0E080818F7E80831D
:10202000E7EDF0E080818160808384E082BF81E021
:1020300080937C040C94CA0FE8EDF0E080818E7FE1
:1020400080831092E20008951092DA001092E1006D
:1020500008951F920F920FB60F9211242F933F9362
:102060004F935F936F937F938F939F93AF93BF93A0
:10207000EF93FF938091E10082FF0BC08091E2001B
:1020800082FF07C08091E1008B7F8093E1000E9476
:10209000750C8091DA0080FF1FC08091D80080FF0E
:1020A0001BC08091DA008E7F8093DA008091D90086
:1020B00080FF0DC080E189BD82E189BD09B400FEC9
:1020C000FDCF81E080937D040E94630C05C019BCA4
:1020D00010927D040E94710C8091E10080FF19C074
:1020E0008091E20080FF15C08091E2008E7F809396
:1020F000E2008091E20080618093E2008091D8004C
:1021000080628093D80019BC85E080937D040E9492
:10211000A70D8091E10084FF30C08091E20084FF30
:102120002CC080E189BD82E189BD09B400FEFDCFEC
:102130008091D8008F7D8093D8008091E1008F7EC0
:102140008093E1008091E2008F7E8093E200809195
:10215000E20081608093E20080917A04882311F08C
:1021600084E007C08091E30087FF02C083E001C0E4
:1021700081E080937D040E94EF0D8091E10083FF58
:1021800029C08091E20083FF25C08091E100877F14
:102190008093E10082E080937D0410927A04809124
:1021A000E1008E7F8093E1008091E2008E7F80933A
:1021B000E2008091E20080618093E20042E060E012
:1021C00080E00E944B0F8091F00088608093F000C7
:1021D0000E94740CFF91EF91BF91AF919F918F91ED
:1021E0007F916F915F914F913F912F910F900FBE13
:1021F0000F901F9018951F920F920FB60F921124F7
:102200002F933F934F935F936F937F938F939F93FE
:10221000AF93BF93CF93EF93FF93C091E900CF703B
:102220008091EC001092E9008091F000877F80930C
:10223000F00078940E9437111092E9008091F0002C
:1022400088608093F000C093E900FF91EF91CF91F7
:10225000BF91AF919F918F917F916F915F914F91BE
:102260003F912F910F900FBE0F901F9018951F93C5
:10227000CF93DF9300D0CDB7DEB7EEE7F4E08091E7
:10228000F100819384E0E638F807C9F70E94F20C68
:102290008091E80083FFE7C020917E0430917F04A5
:1022A000832F90E08A30910508F0DDC0FC01E25AEE
:1022B000FF4F0C942530203881F0223809F0D3C02C
:1022C000809182048F708093E9008091EB0085FB00
:1022D000882780F91092E90004C080917B04811165
:1022E00082E09091E800977F9093E8008093F1005E
:1022F0001092F10092C0822F8D7F09F0B4C022238A
:1023000019F0223061F0AFC080918004813009F073
:10231000AAC0333009F080E080937B0428C080910C
:102320008004811124C0209182042F7009F49BC085
:102330002093E9008091EB0080FF19C08091EB00B1
:10234000333011F4806211C080618093EB0081E032
:1023500090E0022E01C0880F0A94EAF78093EA0009
:102360001092EA008091EB0088608093EB0010925D
:10237000E9008091E800877F53C0211174C010915B
:1023800080041F778091E3008078812B8093E300A5
:102390008091E800877F8093E8000E945F0F809122
:1023A000E80080FFFCCF8091E30080688093E30029
:1023B000112311F083E001C082E080937D0453C0BB
:1023C0002058223008F04FC0AE014F5F5F4F609140
:1023D000820480918004909181040E94F10D009705
:1023E00009F441C02091E800277F2093E800BC0158
:1023F00089819A810E94EA0E8091E8008B77809310
:10240000E80031C0203879F58091E800877F80931B
:10241000E80080917A048093F1008091E8008E7743
:102420008093E8000E945F0F1EC021111CC0909194
:1024300080049230C0F48091E800877F8093E800A8
:1024400090937A040E945F0F80917A04811104C0F6
:102450008091E30087FF02C084E001C081E08093A7
:102460007D040E94D40C8091E80083FF0AC0809113
:10247000E800877F8093E8008091EB008062809382
:10248000EB000F900F90DF91CF911F9108958F92E5
:102490009F92AF92BF92CF92DF92EF92FF920F93F3
:1024A0001F93CF93DF93CDB7DEB728970FB6F8947D
:1024B000DEBF0FBECDBFEDB6FEB6FC01208131817F
:1024C000ADB6BEB6A31AB1080FB6F894BEBE0FBE25
:1024D000ADBE0DB71EB70F5F1F4F722F771F772747
:1024E000771F632F661F6627661F2F773F77772337
:1024F00051F0E30FF11DA281B0E0BA2FAA2743816A
:10250000A40FB11D02C0A0E0B0E0C02E480142E01F
:10251000D42ED01A5D2D580D482D4C19431740F478
:10252000FC01E50FF11D4081F40141934F01F2CF11
:1025300029836D833A83402F1C830B837E83B88766
:10254000AF835C818A2F98850E94391381E00FB692
:10255000F894FEBE0FBEEDBE28960FB6F894DEBF0F
:102560000FBECDBFDF91CF911F910F91FF90EF90E4
:10257000DF90CF90BF90AF909F908F900895DF92A3
:10258000EF92FF920F931F93CF93DF93CDB7DEB7F8
:1025900028970FB6F894DEBF0FBECDBF29833A83CC
:1025A0004B835C836D837E838F8398870B811C8133
:1025B00080917E03662391F0811123C0F80181810F
:1025C00090E0982F88272081820F911D90937D03A2
:1025D00080937C0381E080937E0311C0882319F0EF
:1025E00010927E030EC0F801818190E0982F882719
:1025F0002081820F911D90937D0380937C0382E064
:1026000001C080E0D12CE82EF12CED2DF0E08A8184
:1026100090E08E199F09E817F907E4F480917C0394
:1026200090917D039C012E513109223E334038F4B4
:10263000E00FF11FEE0DFF1D60810E943F30809181
:102640007C0390917D03019690937D0380937C039E
:10265000D394DBCF81E028960FB6F894DEBF0FBE8F
:10266000CDBFDF91CF911F910F91FF90EF90DF9041
:102670000895CF93DF93CDB7DEB728970FB6F894C0
:10268000DEBF0FBECDBF3A834B835C836D837E83F9
:102690008F839887203111F40E94BF1281E0289621
:1026A0000FB6F894DEBF0FBECDBFDF91CF91089576
:1026B00090938403809383030895E0918303F091C2
:1026C0008403309721F00190F081E02D099480E09F
:1026D0000895E0918303F0918403309721F0028004
:1026E000F381E02D09940895E0918303F091840330
:1026F000309721F00480F581E02D09940895209110
:102700008103309182038217930771F090938203C3
:1027100080938103E0918303F0918403309721F04B
:102720000680F781E02D0994089520917F03309170
:1027300080038217930771F09093800380937F0347
:10274000E0918303F0918403309721F00084F185B8
:10275000E02D0994089508950C94AB130E949320E2
:102760000E947D030E947B22809386048F3F51F458
:102770001092860480E00E947F221092ED03109256
:10278000EC0308C0982F91709093ED0386958170AB
:102790008093EC030E9454230E94662D0E94E62B36
:1027A0000E9416290E94F52A0C94B22E5F926F9215
:1027B0007F928F929F92AF92BF92CF92DF92EF92D1
:1027C000FF920F931F93CF93DF9300D000D01F92FF
:1027D000CDB7DEB70E94AB0396E8C92E93E0D92EA1
:1027E00000E010E0AA24A394B12C502E802F0E9468
:1027F00097043C01F601E190F1906F01E826F9267B
:10280000E114F104B1F40F5F1F4F0530110569F7B2
:102810008FEF89838A831B820E949C208160782F9E
:102820009D838C8349815A816B818D810E94931491
:1028300041C08091E60381FD0E94A00420E030E0C9
:102840004501022E02C0880C991C0A94E2F7C401CB
:102850008E219F21892B41F129835A82682079207A
:1028600081E0672809F480E08B830E949C208160CE
:10287000782F9D838C8349815A816B818D810E9441
:10288000931449815A816B817C818D810E94EC0473
:10289000F801EE0FFF1FEA57FC4F808191818825D8
:1028A00099259183808306C02F5F3F4F2E303105DD
:1028B00039F6A9CF0E9491200E946C2610918503C1
:1028C0000E945D131817D1F00E945D138093850359
:1028D0000F900F900F900F900F90DF91CF911F915D
:1028E0000F91FF90EF90DF90CF90BF90AF909F90AF
:1028F0008F907F906F905F900C94482C0F900F906A
:102900000F900F900F90DF91CF911F910F91FF903B
:10291000EF90DF90CF90BF90AF909F908F907F907F
:102920006F905F900895CF93DF93CDB7DEB72B976D
:102930000FB6F894DEBF0FBECDBF4F8358876987AF
:102940007A878B878A859B85892B31F05F3F11F0D1
:1029500080E003C04F3FE1F781E0811107C04F8164
:10296000588569857A858B850E94EC04DE01119675
:1029700086E0FD0111928A95E9F785E0FE01379620
:1029800001900D928A95E1F749815A816B817C8192
:102990008D819E810E94571C2B960FB6F894DEBF46
:1029A0000FBECDBFDF91CF910895CF93C82F88235D
:1029B00009F4C3C08CEF8C0F813A48F48C2F0E942D
:1029C00081288111BAC08C2F0E94D41E0CC080E2D5
:1029D0008C0F883058F4C77081E001C0880FCA9509
:1029E000EAF70E943A20CF910C946B208BE58C0F74
:1029F000833078F4C53A29F0C63A31F482E890E0A1
:102A000005C081E890E002C083E890E0CF910C948B
:102A10007F1388E58C0F873108F08FC0C83A09F41E
:102A200045C0C93A09F445C0CA3A09F445C0CD3B8E
:102A300009F445C0CE3B09F445C0CB3A09F445C082
:102A4000CC3A09F445C0CD3A09F445C0CE3A09F470
:102A500045C0CF3A09F445C0C13B09F445C0C03B6D
:102A600009F445C0C23B09F445C0C33B09F445C065
:102A7000C43B09F445C0C53B09F445C0C63B09F455
:102A800045C0C73B09F445C0C83B09F445C0C93B34
:102A900009F445C0CA3B09F445C0CB3B09F445C025
:102AA000CC3B09F045C08AE292E044C082EE90E05F
:102AB00041C089EE90E03EC08AEE90E03BC08FE6D8
:102AC00090E038C080E790E035C085EB90E032C000
:102AD00086EB90E02FC083EB90E02CC084EB90E07D
:102AE00029C087EB90E026C08CEC90E023C08DECF1
:102AF00090E020C083E891E01DC08AE891E01AC010
:102B000082E991E017C084E991E014C081E292E08B
:102B100011C083E292E00EC084E292E00BC085E235
:102B200092E008C086E292E005C087E292E002C02F
:102B300080E090E0CF910C949513CF910895882375
:102B400029F19CEF980F913A18F40E94991F0DC03B
:102B500090E2980F983058F4877091E001C0990F77
:102B60008A95EAF7892F0E9440200C946B209BE500
:102B7000980F933020F480E090E00C947F13885AF3
:102B8000873120F480E090E00C9495130895882319
:102B900021F00E943A200C946B200895882321F0A4
:102BA0000E9440200C946B200895CF92DF92EF9208
:102BB000FF920F931F93CF93DF93CDB7DEB7289784
:102BC0000FB6F894DEBF0FBECDBF8C0185E0F801D3
:102BD000DE01119601900D928A95E1F7F80140818E
:102BE0003181F280258122952F7083819481892BF8
:102BF00031F03F3F31F481E04F3F19F403C081E0F1
:102C000001C080E080FD66C349833A8389819A814F
:102C10002F830E94921E9E8388870E94911E0E948D
:102C2000B91D4E81E42FE295EF70F0E0E859FF4FB7
:102C30002F8168850C942530842F807F142F1F707E
:102C4000882311F01295107FFF2059F0112309F409
:102C500092C2812F68870E944D200E946B20688558
:102C60008AC2862F0E949F15112309F433C3812F36
:102C70000E94532028960FB6F894DEBF0FBECDBF3A
:102C8000DF91CF911F910F91FF90EF90DF90CF9048
:102C90000C946B20842F807F942F9F70E92E8032BC
:102CA00019F0E29480EFE822662319F0613001F117
:102CB00029C0FF20A9F08E2D222349F1213039F5BA
:102CC00028960FB6F894DEBF0FBECDBFDF91CF912F
:102CD0001F910F91FF90EF90DF90CF900C945D20AB
:102CE000222319F0213009F4F5C20E9460202CC083
:102CF000FF20E9F0263008F0EDC20E9437208E2137
:102D000029F022C0FF20F1F0211115C08E2D289648
:102D10000FB6F894DEBF0FBECDBFDF91CF911F91EC
:102D20000F91FF90EF90DF90CF900C94C715253056
:102D300008F0D0C209C0F801858180FF1CC28F70E5
:102D40008583E4CF21111BC28E2D8BC1242F2695A4
:102D50002695237030E02115310521F02130310511
:102D6000C9F0B8C2FF2021F0862F942F937002C0C3
:102D700080E090E028960FB6F894DEBF0FBECDBF7E
:102D8000DF91CF911F910F91FF90EF90DF90CF9047
:102D90000C947F13FF2021F0862F942F937002C094
:102DA00080E090E028960FB6F894DEBF0FBECDBF4E
:102DB000DF91CF911F910F91FF90EF90DF90CF9017
:102DC0000C949513862FFF2019F00E94742502C0E1
:102DD0000E94DC2528960FB6F894DEBF0FBECDBF4B
:102DE000DF91CF911F910F91FF90EF90DF90CF90E7
:102DF0000C946126842F837009F076C0F1106AC2AA
:102E0000262F229526952770220F220F862F8F704E
:102E1000C82ED12CE12CF12C022E04C0CC0CDD1CD0
:102E2000EE1CFF1C0A94D2F764FF10C06FE070E044
:102E300080E090E004C0660F771F881F991F2A95D5
:102E4000D2F7609570958095909503C060E070E032
:102E5000CB01242F269526952370422F50E0423037
:102E60005105D1F04330510559F16C297D298E2946
:102E70009F294130510541F128960FB6F894DEBFE5
:102E80000FBECDBFDF91CF911F910F91FF90EF90BB
:102E9000DF90CF900C94CE1D6C297D298E299F291F
:102EA00028960FB6F894DEBF0FBECDBFDF91CF914D
:102EB0001F910F91FF90EF90DF90CF900C94E01D49
:102EC0000E94CE1DC701B60128960FB6F894DEBF4A
:102ED0000FBECDBFDF91CF911F910F91FF90EF906B
:102EE000DF90CF900C94BC1DFF2019F0842F8170CF
:102EF00001C08695882309F4EDC1262F22952695D9
:102F00002770220F220F862F8F70C82ED12CE12C14
:102F1000F12C022E04C0CC0CDD1CEE1CFF1C0A940C
:102F2000D2F764FF10C06FE070E080E090E004C072
:102F3000660F771F881F991F2A95D2F760957095A5
:102F40008095909503C060E070E0CB01242F26951A
:102F500026952370422F50E042305105D1F0433086
:102F6000510559F16C297D298E299F294130510540
:102F700041F128960FB6F894DEBF0FBECDBFDF91AA
:102F8000CF911F910F91FF90EF90DF90CF900C9415
:102F90006D1E6C297D298E299F2928960FB6F894DD
:102FA000DEBF0FBECDBFDF91CF911F910F91FF907C
:102FB000EF90DF90CF900C947F1E0E946D1EC70192
:102FC000B60128960FB6F894DEBF0FBECDBFDF91D5
:102FD000CF911F910F91FF90EF90DF90CF900C94C5
:102FE0005B1E603F30F4603E08F04BC0603D68F40B
:102FF000BDC0613F09F46EC008F451C0623F09F4DE
:103000007DC0633F09F48EC0B1C0FF20E9F02223E8
:1030100089F082E528960FB6F894DEBF0FBECDBFCB
:10302000DF91CF911F910F91FF90EF90DF90CF90A4
:103030000C94D514842F8F7168870E94061E6885B2
:10304000862F8295807F63CE222311F082E598C07F
:10305000842F8F7168870E94211E6885862F829534
:10306000807F28960FB6F894DEBF0FBECDBFDF91EC
:10307000CF911F910F91FF90EF90DF90CF900C9424
:10308000CE15162F1F70842F8F71FF2021F00E9404
:10309000061E812F3CCE0E94211E812FE2CFFF20F1
:1030A000A9F0253008F016C1842F8F7128960FB62D
:1030B000F894DEBF0FBECDBFDF91CF911F910F916E
:1030C000FF90EF90DF90CF900C94401E263008F0D8
:1030D00001C1EACFFF20A1F0842F8F7128960FB68F
:1030E000F894DEBF0FBECDBFDF91CF911F910F913E
:1030F000FF90EF90DF90CF900C94061EFF2061F3BD
:10310000842F8F7128960FB6F894DEBF0FBECDBF07
:10311000DF91CF911F910F91FF90EF90DF90CF90B3
:103120000C94211EFF2091F0842F8F7128960FB6EA
:10313000F894DEBF0FBECDBFDF91CF911F910F91ED
:10314000FF90EF90DF90CF900C94F71D28960FB66C
:10315000F894DEBF0FBECDBFDF91CF911F910F91CD
:10316000FF90EF90DF90CF900C94F21DFF2029F09C
:10317000222309F4B1CF862F4DCF222309F2862FC7
:1031800028960FB6F894DEBF0FBECDBFDF91CF916A
:103190001F910F91FF90EF90DF90CF900C949F15AF
:1031A0004F70C8010E94F72228960FB6F894DEBF30
:1031B0000FBECDBFDF91CF911F910F91FF90EF9088
:1031C000DF90CF900C94041DF11084C0662341F071
:1031D000842F8F70843021F0407F862F8F70482B92
:1031E000942F9F70492F50E04230510509F440C0A0
:1031F000BCF44115510561F14130510509F06AC037
:1032000028960FB6F894DEBF0FBECDBFDF91CF91E9
:103210001F910F91FF90EF90DF90CF900C941D2B9A
:1032200043305105A9F14430510509F053C0862FB0
:1032300028960FB6F894DEBF0FBECDBFDF91CF91B9
:103240001F910F91FF90EF90DF90CF900C947D2B0A
:1032500028960FB6F894DEBF0FBECDBFDF91CF9199
:103260001F910F91FF90EF90DF90CF900C94062B61
:1032700028960FB6F894DEBF0FBECDBFDF91CF9179
:103280001F910F91FF90EF90DF90CF900C94392B0E
:1032900028960FB6F894DEBF0FBECDBFDF91CF9159
:1032A0001F910F91FF90EF90DF90CF900C94582BCF
:1032B0004F70C80128960FB6F894DEBF0FBECDBF81
:1032C000DF91CF911F910F91FF90EF90DF90CF9002
:1032D0000C94AC0228960FB6F894DEBF0FBECDBF9B
:1032E000DF91CF911F910F91FF90EF90DF90CF90E2
:1032F00008950E945A200E9429200E946B200E945B
:103300000D270E94612680E090E00E947F1380E0FC
:1033100090E00C9495130E944A200C9479190E9415
:10332000921E292F22952F7030E02C3031054CF45D
:103330002A3031056CF4225031092230310590F4E5
:1033400007C02C30310551F02F30310539F00AC05B
:10335000803E10F0803F31F481E0089593FB882790
:1033600080F9089580E00895CF93DF9300D000D0D6
:103370001F92CDB7DEB70F900F900F900F900F9068
:10338000DF91CF910895CF93DF9300D000D000D08C
:10339000CDB7DEB726960FB6F894DEBF0FBECDBF11
:1033A000DF91CF9108951F93CF93DF93C091900346
:1033B00016E080919103C81799F0D0E01C9FF001AE
:1033C0001D9FF00D1124EE56FC4F4081518162810A
:1033D0007381848195810E94C3192196C770E9CFBA
:1033E000DF91CF911F9108954091C2035091C30383
:1033F0006091C4037091C5038091C6039091C70387
:103400000C94C319CF938091C70382958F7009F0F4
:103410005FC08091C403882309F45AC020919003AF
:10342000A09191036091C2037091C3038091C50381
:103430009091C60331E06F3F09F030E0B32FC6E052
:103440002A1709F445C0009721F07F3F21F44B2F44
:1034500003C041E001C040E030E040FD35C0C29F04
:10346000F001C39FF00D1124EE56FC4F41817413FF
:103470002BC04081641328C04281411125C0438183
:1034800054814817590710F441505109481B590BF2
:10349000483C5105C8F48091C7038F7080618093C8
:1034A000C70386E0829FF001839FF00D1124E95647
:1034B000FC4F80818F708061808382EC93E00E945A
:1034C000D515CF910C94D3192F5F3F4F2770B8CFEC
:1034D000CF910895CF92DF92EF92FF920F931F93B7
:1034E000CF93DF93CDB7DEB762970FB6F894DEBF08
:1034F0000FBECDBF8C0185E0F801DE011D96019065
:103500000D928A95E1F7D8014C9111965C91119733
:1035100012966C9112971396ED90FC9014977091FF
:10352000C203E091C3032091C5033091C603211566
:10353000310531F0EF3F31F481E07F3F19F403C0F2
:1035400081E001C080E0B82FB170CB2E80FD6CC14E
:10355000D090C403DD2009F4F5C0F091C703E21652
:10356000F30638F0C701821B930B883C910548F0A5
:103570009BC0209530952E0D3F1D283C310508F04D
:1035800093C08F2F807F09F052C0E51314C07413CD
:1035900012C0D62E61110FC0FF70F061F093C70307
:1035A0000E94F41982EC93E00E94D5158091C70324
:1035B000F80185836CC1EF2831F05F3F31F481E081
:1035C0004F3F19F403C081E001C080E080FD03C0DB
:1035D00081E0862701C080E0F82FF170FF2E80FF88
:1035E0001CC0809190032091910336E0821709F46A
:1035F00028C190E0389FF001399FF00D1124EE565C
:10360000FC4F7181571306C07081471303C072814C
:10361000671303C001968770E9CFD62E662309F49D
:1036200036C18091C70381608093C70353C0E513FF
:1036300008C0741306C0611104C0D8011596FC932C
:10364000AEC04D875E878D859E856A8B0E948F19DF
:103650006A89882329F1D62E662311F12091C703A8
:10366000822F82958F7090E002970CF460C0809159
:10367000C2039091C30398878F831986FB86EA86DD
:103680002C87CE01079651C0E51731F14D875E8733
:103690008D859E856A8B0E948F196A8981112EC043
:1036A000C8010E94D515A4C08F2F807F69F77E2D99
:1036B000F98AE88A89890E94B41982EC93E00E9411
:1036C000D515E2ECF3E086E0DF011D928A95E9F77B
:1036D0000E94F419D12CDBC07413D8CF6111D6CF5E
:1036E000D8011596FC93C8010E94D515E2ECF3E0D1
:1036F00086E0DF011D928A95E9F7C9C0D62E6623C0
:1037000079F22091C703822F82958F7090E0029703
:1037100074F08091C2039091C3039A8389831B82C2
:10372000FD82EC822E83CE0101960E94D51586E0A3
:10373000F801A2ECB3E001900D928A95E1F70E94A6
:10374000021A6FC0E216F30628F0C701821B930B22
:103750009C0104C0209530952E0D3F1D283C31055D
:1037600008F052C0D62E662309F49ACFE5132CC078
:1037700074132AC08091C70380FD1DC0982F9295B5
:103780009F70C9F0D80115968C9315979F3039F02A
:103790009F5F9295907F8F70892B15968C93C801AF
:1037A0000E94D51586E0F801A2ECB3E001900D92DD
:1037B0008A95E1F736C086E0F801A2ECB3E001900B
:1037C0000D928A95E1F763C04D875E878D859E8552
:1037D0000E948F19882379F086E0F801A2ECB3E00B
:1037E00001900D928A95E1F70E94021A0E94F41945
:1037F000DD24D3944CC08091C70381608093C703BC
:10380000C8010E94D51543C07E2DF98AE88A8989AE
:103810000E94B419E2ECF3E086E0DF011D928A9584
:10382000E9F70E94F41933C0662309F439CF4D87B4
:103830005E878D859E850E948F19882309F430CF7D
:10384000CBCF4D875E878D859E850E94921E292F46
:1038500022952F7030E0223031052CF49F7041F01A
:10386000811106C00CC0243031052CF49F7049F43E
:10387000805E883020F0C8010E94D515CF2CDC2C4A
:1038800006C0D80115969C91907F91F7F8CF8D2DA9
:1038900062960FB6F894DEBF0FBECDBFDF91CF9119
:1038A0001F910F91FF90EF90DF90CF9008951F939D
:1038B000CF93DF93CDB7DEB72C970FB6F894DEBF6A
:1038C0000FBECDBF4F83588769877A878B879C87C8
:1038D000CE0107960E946A1A8823C1F02F8138858D
:1038E0008A859B85892B31F03F3F11F080E003C032
:1038F0002F3FE1F781E0811147C04F8158856985ED
:103900007A858B859C850E94C3193EC086E0FE01A6
:103910003796DE01119601900D928A95E1F7FF81AD
:10392000E8854A855B854115510531F0EF3F31F45B
:1039300081E0FF3F19F403C081E001C080E080FD19
:1039400023C02091910330E0C90101968770992727
:103950006091900370E086179707F1F1F983EA838D
:103960005D834C8396E0929FD001939FB00D11240C
:10397000AE56BC4FFE01319601900D929A95E1F73B
:10398000809391030E94D31916E080919003909147
:103990009103891779F1189FC00111248E569C4F0D
:1039A0000E946A1A882331F1E09190031E9FF00172
:1039B0001124EE56FC4F40815181628173818481D4
:1039C00095810E94C3198091900390E001968770C1
:1039D000992780939003D9CF0E948B19109291035D
:1039E00010929003E2ECF3E086E0DF011D928A95ED
:1039F000E9F7CACF2C960FB6F894DEBF0FBECDBF45
:103A0000DF91CF911F910895DF92EF92FF920F9374
:103A10001F93CF93DF939C01009709F48AC0E12C98
:103A2000F12CDD24D394E9012196F90184918537A5
:103A300009F462C058F4843708F04EC0843008F0AE
:103A400069C08130D1F0823071F173C0883709F4D8
:103A50005CC050F4863709F454C0873709F069C058
:103A60008E2D0E94472053C09CE7980F903708F096
:103A700060C08F770E949F154FC089010E5F1F4F56
:103A8000FE01C49180E28C0F883048F4C7708D2D00
:103A900001C0880FCA95EAF70E944D2015C08C2FEF
:103AA0000E94D51413C089010E5F1F4FFE01C491FF
:103AB00080E28C0F883060F4C7708D2D01C0880FB4
:103AC000CA95EAF70E9453200E946B20E80124C0A7
:103AD0008C2F0E949F15FACF2E5F3F4FFE01C4919D
:103AE000CC2341F08FE99FE00197F1F700C000007F
:103AF000C150F6CFE90110C0FE01F490E901229611
:103B00000BC00E943720E82E07C00E944A200E9466
:103B10006B2002C00E94D5149F2D992341F0EFE93C
:103B2000FFE03197F1F700C000009150F6CF9E0101
:103B30007ACFDF91CF911F910F91FF90EF90DF909F
:103B400008956093CC037093CD038093CE0390933C
:103B5000CF030E94962C0C9479196093C80370933C
:103B6000C9038093CA039093CB030E94EE2C0C945C
:103B7000791908950C94A11D0F931F930091CC0304
:103B80001091CD032091CE033091CF03602B712B88
:103B9000822B932B1F910F910C94A11D0F931F93B8
:103BA0000091CC031091CD032091CE033091CF032F
:103BB00060237123822393231F910F910C94A11DE5
:103BC0000F931F930091CC031091CD032091CE034E
:103BD0003091CF0360277127822793271F910F9180
:103BE0000C94A11D60E070E0CB010C94AD1D41E090
:103BF00050E060E070E004C0440F551F661F771F5F
:103C00008A95D2F7CB01BA010C94AD1D41E050E08A
:103C100060E070E004C0440F551F661F771F8A954F
:103C2000D2F78091C8039091C903A091CA03B091C3
:103C3000CB03482B592B6A2B7B2BCB01BA010C945D
:103C4000AD1D41E050E060E070E004C0440F551F3E
:103C5000661F771F8A95D2F74095509560957095AD
:103C60008091C8039091C903A091CA03B091CB037E
:103C7000482359236A237B23CB01BA010C94AD1D41
:103C800041E050E060E070E004C0440F551F661F43
:103C9000771F8A95D2F78091C8039091C903A091AC
:103CA000CA03B091CB03482759276A277B27CB014A
:103CB000BA010C94AD1D0F931F930091C80310918E
:103CC000C9032091CA033091CB03602B712B822B47
:103CD000932B1F910F910C94AD1D0F931F93009187
:103CE000C8031091C9032091CA033091CB0360230C
:103CF0007123822393231F910F910C94AD1D0F9379
:103D00001F930091C8031091C9032091CA033091F9
:103D1000CB0360277127822793271F910F910C9463
:103D2000AD1D0895CF92DF92EF92FF920F931F93F4
:103D3000CF93DF93EC01C090CC03D090CD03E09003
:103D4000CE03F090CF038091C8039091C903A09156
:103D5000CA03B091CB03C82AD92AEA2AFB2A0FE169
:103D600010E0B701A601002E04C07695679557951F
:103D700047950A94D2F740FF07C0BE01802F0E94EA
:103D800084228130910539F40150110950F7BE01A8
:103D900080E00E948422DF91CF911F910F91FF90CC
:103DA000EF90DF90CF900895CF92DF92EF92FF9245
:103DB0000F931F93CF93DF93F82E80910C018823EC
:103DC000E9F080910D018823C9F08F2D86958695A5
:103DD00086958F3008F0A4C0E0910E01F0910F019C
:103DE000E80FF11D8F2D877021E030E001C0220F18
:103DF0008A95EAF78181822B818392C0E090E30368
:103E00004091E103E0910E01F0910F01442309F488
:103E100072C02091E2038E2D3FEF06E010E0A82F44
:103E2000BB27A7FDB095EF01CA0FDB1F9A819F1535
:103E300009F476C03F3F19F4911101C0382FCD012C
:103E40000196C6E0D0E0B8010E94EF2F8213E7CFC1
:103E50002E1151C03F3F71F4822F992787FD909515
:103E60000196BE010E94EF2F8093E30341504093DF
:103E7000E10341C0832F992787FD90950196BE01EC
:103E80000E94EF2FEE24E394C6E0D0E0082F112724
:103E900007FD10956F01C00ED11ED60112966C91D0
:103EA0006623A1F0432F552747FD5095CF01840F7E
:103EB000951FDC0112966C93D60112961C92CA01D2
:103EC0000196BE010E94EF2F382F01C0E394C80174
:103ED0000196BE010E94EF2F8213D8CF822F99271F
:103EE00087FD90958E199109069666E070E00E9414
:103EF000EF2F8093E2032091E203332727FD3095D3
:103F0000E20FF31FF282C901019666E070E00E94A1
:103F1000EF2F8093E2038091E1038F5F8093E103B1
:103F2000DF91CF911F910F91FF90EF90DF90CF9095
:103F30000895DF92EF92FF920F931F93CF93DF9339
:103F4000482F80910C018823F1F080910D01882386
:103F5000D1F0842F8695869586958F3008F071C0B4
:103F6000E0910E01F0910F01E80FF11D477021E083
:103F700030E0042E01C0220F0A94EAF720958181D7
:103F8000282321835EC0E091E303D090E103DD208C
:103F900009F457C0C0910E01D0910F010091E203C6
:103FA000112707FD109586E0E82EF12CF0E0DE01E8
:103FB000AE0FBF1F9D012E5F3F4F12968C91841351
:103FC00036C0D9011C92DA94D092E103D11004C01A
:103FD0001092E3031092E2032091E203822F9927CB
:103FE00087FD9095059666E070E00E94EF2FE81738
:103FF000F90739F54091E303E6E0F0E0822F9927D5
:1040000087FD90950596BF010E94EF2F9C010596B4
:10401000BF010E94EF2F8C0F9D1FDC0112968C9127
:10402000811102C02413EACF2093E2030AC0CF011A
:104030000196B7010E94EF2FE82F8017910709F032
:10404000B5CFDF91CF911F910F91FF90EF90DF904F
:10405000089581E090E0E0910E01F0910F01E80FEA
:10406000F91F1082019680319105A9F7089580917A
:10407000E50308959091E503982B9093E503089547
:1040800080959091E50398239093E503089580939C
:10409000E50308951092E50308959091E403982BA9
:1040A0009093E403089580959091E403982390936E
:1040B000E40308951092E40308958093D0030895D3
:1040C0001092D003089580910D01811103C0809159
:1040D000E10308950895E0910E01F0910F018091A0
:1040E000E5038083E0910E01F0910F0180819091B2
:1040F000E403892B80839091D003992361F0E091B0
:104100000E01F0910F018081892B80830E94632032
:1041100081111092D00380910E0190910F010C94A7
:1041200069130895089582E084BD93E095BD9AEFE8
:1041300097BD80936E0008952FB7F8948091E703A0
:104140009091E803A091E903B091EA032FBF08958D
:10415000CF92DF92EF92FF920F931F932FB7F894B5
:104160004091E7035091E8036091E9037091EA03FD
:104170002FBF6A017B01EE24FF248C0120E030E098
:10418000C016D106E206F30610F441505109481B4F
:10419000590BCA011F910F91FF90EF90DF90CF90C4
:1041A00008951F920F920FB60F9211248F939F9331
:1041B000AF93BF938091E7039091E803A091E90347
:1041C000B091EA030196A11DB11D8093E70390937E
:1041D000E803A093E903B093EA03BF91AF919F91E5
:1041E0008F910F900FBE0F901F9018950E94B00FE7
:1041F000F8942FEF87EA91E6215080409040E1F754
:1042000000C0000087E090EBDC018093890490936C
:104210008A04A0938B04B0938C042CE088E190E096
:104220000FB6F894A895809360000FBE20936000AD
:10423000FFCF80917D04843019F11092EB0320E4CC
:1042400088E190E00FB6F894A895809360000FBEC7
:10425000209360000E94332983B7817F846083BFED
:1042600083B7816083BF7894889583B78E7F83BF3F
:1042700088E10FB6F89480936000109260000FBE42
:10428000089508950895CF930E9441210E94AB03A1
:104290000E944221C0E08C2F0E949704892B29F4B0
:1042A000CF5FC530C1F780E001C081E0CF910895B4
:1042B0000E948B190C94F52A1F920F920FB60F9241
:1042C00011248F939F93AF93BF938091EB03811140
:1042D00013C08091E7039091E803A091E903B091A6
:1042E000EA034196A11DB11D8093E7039093E80373
:1042F000A093E903B093EA03BF91AF919F918F918F
:104300000F900FBE0F901F901895CF93C82F8F3B23
:1043100068F4883A08F046C0853AD8F58430A0F4AD
:10432000813009F099C081E090E0E3C0883E30F42C
:10433000803E20F58F3B09F47DC08EC0803F08F49D
:104340008BC090E09065D5C06091E7037091E80361
:104350008091E9039091EA0325E030E040E050E0ED
:104360000E940330643071058105910539F4809114
:10437000EC03882319F00E948B196EC08C2F8B7F61
:10438000833E21F48091ED03811166C08C2F90E073
:10439000B0C0853A09F463C0863A09F063C082E888
:1043A00090E4A7C0883A09F460C0893A09F460C073
:1043B0008A3A09F460C08D3B09F460C08E3B09F471
:1043C00060C08B3A09F460C08C3A09F460C08D3A41
:1043D00009F460C08E3A09F460C08F3A09F460C0F5
:1043E000813B09F460C0803B09F460C0823B09F462
:1043F00060C0833B09F460C0843B09F460C0853B26
:1044000009F460C0863B09F460C0873B09F460C0D2
:10441000883B09F460C0893B09F460C08A3B09F419
:1044200060C08B3B09F460C08C3B09F060C08AE23D
:1044300096E45FC00E94372080FF9DCF0E948B19B9
:104440002FEF80E792E0215080409040E1F700C0DC
:1044500000000E94F6208FCF80E090E04AC081E803
:1044600090E447C083E890E444C082EE94E441C005
:1044700089EE94E43EC08AEE94E43BC08FE694E477
:1044800038C080E794E435C085EB94E432C086EB15
:1044900094E42FC083EB94E42CC084EB94E429C013
:1044A00087EB94E426C08CEC94E423C08DEC94E478
:1044B00020C083E895E41DC08AE895E41AC082E92B
:1044C00095E417C084E995E414C081E296E411C034
:1044D00083E296E40EC084E296E40BC085E296E4A3
:1044E00008C086E296E405C087E296E402C080E058
:1044F00094E4CF91089588E090E00C942B30682FDD
:1045000088E090E00C9451300E946403803EA8F44F
:10451000803C00F5813309F45CC038F4893209F439
:1045200052C08A3209F45BC05FC08933B1F082386F
:10453000A1F0853309F441C057C0833E41F128F40E
:10454000803E99F0823EB9F04FC0863E31F1873E01
:1045500071F14AC00E94680308959091870490FD0C
:1045600002C091FF41C080EE3FC08091870480FF70
:10457000FACF89E339C08091870482FF0CC0809113
:10458000870484FF02C080E02FC083EE2DC080919D
:10459000870482FFF4CF82EE27C08091870483FFD7
:1045A0000AC08091870484FDEECF87EE1DC0809104
:1045B000870483FFF6CF86EE17C08091870485FFBE
:1045C00006C089E211C08091870485FFFACF85E398
:1045D0000BC08091870486FF06C08AE205C08091E7
:1045E000870486FFFACF81E30E948521089580E049
:1045F00090E00895BF92CF92DF92EF92FF920F93D7
:104600001F93CF93DF938C01B12CEE24E394F12C14
:104610008B2D0E9497046C01C0E0D0E097010C2E16
:1046200002C0220F331F0A94E2F72C213D21232BD5
:10463000B1F06C2F7B2D80E00E9484229C018017BA
:10464000910759F0832F807E932F907C11F0803A50
:1046500031F430E02017310711F481E009C02196D0
:10466000CE30D105D9F6B39485E0B812D1CF80E031
:10467000DF91CF911F910F91FF90EF90DF90CF903E
:10468000BF900895CF93DF93EC018CE290E00E94FD
:10469000FA22882329F0CE01DF91CF910C94FA22DF
:1046A00080E0DF91CF910895CF930E94C4248111BF
:1046B00002C00E949F24C5E6C15049F00E94AB038E
:1046C0008FE39CE90197F1F700C00000F5CF89E284
:1046D00090E00E944223811130C18AE290E00E9462
:1046E0004223882341F00E94BE240E949F240E94FE
:1046F0003D2E0E94A22D85E090E00E944223811170
:104700000E94F6200E9492200E94CF248093E6030C
:1047100087E090E00E9442238823B1F18BE190E092
:104720000E944223882351F09091E60391FB882751
:1047300080F921E0822780FB91F924C08EE090E08F
:104740000E944223882351F09091E60392FB882730
:1047500080F921E0822780FB92F914C080E190E08B
:104760000E9442239091E603882341F093FB88271F
:1047700080F921E0822780FB93F904C0892F80957E
:1047800080FB90F99093E6038091E6030E94D32486
:104790000E94E1248093870480EE90E00E944223EF
:1047A000882341F080918704982F909590FB80F9A1
:1047B0008093870489E390E00E944223882359F084
:1047C0009091870491FB882780F921E0822780FB64
:1047D00091F99093870482EE90E00E94422388230F
:1047E00059F09091870492FB882780F921E0822775
:1047F00080FB92F99093870486EE90E00E9442231A
:10480000882359F09091870493FB882780F921E051
:10481000822780FB93F99093870483EE90E00E94B7
:104820004223882359F09091870494FB882780F9CC
:1048300021E0822780FB94F99093870485E390E040
:104840000E944223882359F09091870495FB882782
:1048500080F921E0822780FB95F99093870481E31A
:1048600090E00E944223882359F09091870496FBA0
:10487000882780F921E0822780FB96F990938704AE
:1048800081E190E00E944223882359F090918704AF
:1048900097FB882780F921E0822780FB97F9909386
:1048A0008704809187040E94E5248091870487FB18
:1048B000882780F980930D0187E290E00E944223CF
:1048C000C82F8EE190E00E9442238111C2608FE1E7
:1048D00090E00E9442238111C46080E290E00E9437
:1048E00042238111C86081E290E00E94422381113D
:1048F000C06182E290E00E9442238111C06283E2A3
:1049000090E00E9442238111C06484E290E00E9402
:104910004223882311F0C06802C0CC2329F08C2FD9
:104920000E94DC246C2F03C00E94D824682F70E002
:1049300080E090E0CF910C94BA1DCF9108956DEE78
:104940007EEF80E090E00E94673060E082E090E0DF
:104950000E94513060E083E090E00E94513060E0BE
:1049600084E090E00E94513060E085E090E00E9499
:10497000513060E086E090E00C9451306FEF7FEFB3
:1049800080E090E00C94673080E090E00E94393045
:1049900021E08D3E9E4F09F020E0822F089582E0B5
:1049A00090E00C942B30682F82E090E00C94513012
:1049B00083E090E00C942B30682F83E090E00C941F
:1049C000513084E090E00C942B30682F84E090E02C
:1049D0000C94513086E090E00C942B30682F86E0E8
:1049E00090E00C9451308091F00380FF0BC06091F7
:1049F000130185E0689FB001112475956795759541
:104A000067952AC081FF09C06091130185E0689F06
:104A1000B0011124759567951FC082FF07C0609192
:104A2000130185E0689FB001112416C04091F10385
:104A30004423C9F060911201461788F720911301B1
:104A400085E0289F90011124429FC001439F900D53
:104A5000112470E00E94EF2F6038710540F4611559
:104A6000710539F002C065E070E0862F08958FE788
:104A7000089581E008958091F00380FF08C060915F
:104A8000110170E0759567957595679521C081FF57
:104A900006C06091110170E07595679519C082FF9D
:104AA00004C06091110170E010C08091F10388236F
:104AB000C1F0609110018617A0F790911101989FA5
:104AC000C001112470E00E94EF2F6038710528F4B6
:104AD0006115710521F0862F08958FE7089581E013
:104AE000089561E070E0F4CF803F21F40E94F32448
:104AF000819504C0813F29F40E94F3248093F4033C
:104B00000895823F21F40E94F324819504C0833FDD
:104B100029F40E94F3248093F3030895893F19F444
:104B20000E943B2505C08A3F31F40E943B258195B8
:104B30008093F50308958B3F21F40E943B258195D6
:104B400004C08C3F29F40E943B258093F60308950E
:104B5000843F21F48091F203816017C0853F21F4E6
:104B60008091F203826011C0863F21F48091F203AC
:104B700084600BC0873F21F48091F203886005C0F8
:104B8000883F31F48091F20380618093F2030895AD
:104B90008D3F21F48091F00381600BC08E3F21F4A2
:104BA0008091F003826005C08F3F29F48091F0036B
:104BB00084608093F0030895803F39F48091F4037A
:104BC00087FF6CC01092F40369C0813F29F4809183
:104BD000F4031816BCF362C09091F303823F29F4EA
:104BE00097FF5CC01092F30359C0833F19F4191664
:104BF000CCF354C0893F41F48091F50318160CF0B2
:104C00004DC01092F5034AC08A3F29F48091F50304
:104C100087FF44C0F6CF8B3F39F48091F60387FFBE
:104C20003DC01092F6033AC08C3F29F48091F60300
:104C30001816BCF333C0843F21F48091F2038E7FB9
:104C400017C0853F21F48091F2038D7F11C0863F0C
:104C500021F48091F2038B7F0BC0873F21F4809178
:104C6000F203877F05C0883F31F48091F2038F7E85
:104C70008093F20313C08D3F21F48091F0038E7F67
:104C80000BC08E3F21F48091F0038D7F05C08F3FD4
:104C900029F48091F0038B7F8093F0038091F303DC
:104CA00081110EC08091F40381110AC08091F50337
:104CB000811106C08091F603811102C01092F103A8
:104CC000089582EF93E00E9474130E949C209093B9
:104CD000EF038093EE0308951F93CF93DF938091AA
:104CE000EE039091EF030E94A8204091F10344232A
:104CF00021F02091140130E006C0209115015AE006
:104D0000259F900111248217930708F482C0809197
:104D1000F3031091F403D091F503C091F6038111D0
:104D200007C0111105C0D11103C0CC2309F471C013
:104D30004F3F19F04F5F4093F103181624F40E947F
:104D4000F3248093F3038091F30387FF05C00E944F
:104D5000F32481958093F303111624F40E94F32425
:104D60008093F4038091F40387FF05C00E94F3242D
:104D700081958093F4036091F303662339F11091D8
:104D8000F403112319F1772767FD7095872F972F6B
:104D90000E94EC2E23E333E343E35FE30E94502FB2
:104DA0000E94B92E6093F303612F772767FD7095FA
:104DB000872F972F0E94EC2E23E333E343E35FE337
:104DC0000E94502F0E94B92E6093F4031D1624F404
:104DD0000E943B258093F5038091F50387FF05C072
:104DE0000E943B2581958093F5031C1624F40E94B4
:104DF0003B258093F6038091F60387FF05C00E9450
:104E00003B2581958093F603DF91CF911F910C9400
:104E10006126DF91CF911F910895E2EFF3E085E0E5
:104E2000DF011D928A95E9F71092F1031092F003C9
:104E30000895833081F128F4813059F08230D1F027
:104E40000895853009F449C0B8F1863009F456C098
:104E5000089520911501862F90E0820F911D8F3FBC
:104E6000910520F4620F6093150108958FEF8093F0
:104E70001501089520911401862F90E0820F911D55
:104E80008F3F910520F4620F6093140108958FEF16
:104E900080931401089520911301862F90E0820FD2
:104EA000911D8F3F910520F4620F609313010895C7
:104EB0008FEF80931301089520911201862F90E0C7
:104EC000820F911D8F3F910520F4620F60931201B4
:104ED00008958FEF80931201089520911101862F7C
:104EE00090E0820F911D8F3F910520F4620F609337
:104EF000110108958FEF8093110108952091100101
:104F0000862F90E0820F911D8F3F910520F4620F54
:104F10006093100108958FEF8093100108958330FE
:104F200011F128F4813049F0823091F008958530F4
:104F300081F120F18630C1F1089580911501681743
:104F400020F4861B80931501089510921501089591
:104F500080911401681720F4861B80931401089532
:104F600010921401089580911301681720F4861B94
:104F700080931301089510921301089580911201F6
:104F8000681720F4861B8093120108951092120175
:104F9000089580911101681720F4861B80931101F8
:104FA000089510921101089580911001681720F45E
:104FB000861B809310010895109210010895482FC8
:104FC00050E0FA013697E334F10520F4E858FF4F3A
:104FD0000C94253080E008950E94CF240E94E124A3
:104FE0000E94EA2488C08091E603817F8E7F8093AF
:104FF000E60381E08093F80308950E948B192FEF58
:1050000083ED90E3215080409040E1F700C0000024
:105010000E94F62070C09091E603892F817090FF66
:1050200003C0917F9E7F27C091609093E60363C089
:105030009091E60391FB882780F921E0822780FB8D
:1050400091F913C09091E60392FB882780F921E043
:10505000822780FB92F909C09091E60393FB882791
:1050600080F921E0822780FB93F99093E60388235F
:1050700009F441C091609093E60308950E948B1952
:1050800080910D0191E0892780930D0134C061E08A
:1050900070E080E090E00DC023EE280F61E070E04A
:1050A00080E090E004C0660F771F881F991F2A9543
:1050B000D2F70E94BA1D0E948B191DC027ECEDCFBC
:1050C00091E08091ED03811190E09093ED03809148
:1050D000860490FB80F90BC091E08091EC03811174
:1050E00090E09093EC038091860490FB81F980938B
:1050F00086040E947F2281E0089580E0089580E088
:105100000895CF93C82F8091F803813069F018F08B
:105110008230B1F181C0A0910E01B0910F018C914C
:10512000823209F07BC007C0A0910E01B0910F013F
:105130008C91823249F48C2F0E947D2881111DC0F0
:105140008C2F0E94DF271AC08C2F0E947F2881118C
:1051500014C0C43179F048F4CB3079F0C03109F093
:1051600061C082E08093F80308C0C93219F0C833E7
:1051700021F058C01092F80355C081E0817054C0EE
:10518000C93291F120F5C43179F1B0F4C73009F09A
:1051900047C08EE18093150182E3809314018AE079
:1051A0008093130184E18093120188E080931101C0
:1051B00088E28093100134C0CE51C63088F5EC2FC0
:1051C000F0E0E95CFC4F80818093F70329C0CE3486
:1051D000E9F020F4CB3421F56AE013C0C13579F051
:1051E000C235F1F461E00DC08091F703882319F016
:1051F0001092F70315C081E08093F80315C061E0B9
:1052000006C08091F7030E9419270AC06AE08091C6
:10521000F7030E948F2704C01092F80380E004C0B7
:1052200081E002C080E0AACFCF910895E1E8F0E0EC
:105230008081886080838081816080838FB7F894CB
:1052400093E09093890090ED909388008FBF0C9429
:10525000462DEFE6F0E080818260808381E08093DC
:1052600021040C94612DCF9380916F008D7F8093EA
:105270006F0010922104C0E08C2F0E94542DCF5F4C
:10528000C730D1F780912104CF910C94612D80918A
:1052900020048F67809320040895CF9310922004F8
:1052A000C0E08C2F0E94542DCF5FC730D1F7809182
:1052B0002104CF910C94612DE2E1F4E0819394E01C
:1052C000E931F907D9F70895E82FF0E0EE5EFB4FDA
:1052D0004081242F30E08FEF90E0861B91098217E8
:1052E00093071CF48FEF80830895640F6083089503
:1052F000CF93DF93D82FC0E06D2F8C2F0E946429AD
:10530000CF5FC730C9F7DF91CF910895E82FF0E064
:10531000EE5EFB4F8081861710F410820895861B85
:1053200080830895CF93DF93D82FC0E06D2F8C2F0B
:105330000E948629CF5FC730C9F7DF91CF910895CA
:10534000809111048F6780931104089510921104C5
:1053500008959091100421E030E0082E01C0220F42
:105360000A94EAF7662311F0292B02C0209529231D
:10537000209310040895CF93DF93D82FC0E06D2FB2
:105380008C2F0E94A929CF5FC730C9F7DF91CF9139
:10539000089580930F040895E8E0F4E0819394E089
:1053A000EF30F907D9F70895809107048F6780934C
:1053B0000704089510920704089580930504089542
:1053C0001F920F920FB60F921124EF92FF920F933C
:1053D0001F932F933F934F935F936F937F938F937D
:1053E0009F93AF93BF93CF93DF93EF93FF938091FE
:1053F000FC038F5F8093FC0309E114E0C0E0D0E080
:10540000FC2E2091200430E00C2E02C0369527950A
:105410000A94E2F720FF1AC08091FC0381110DC0AD
:10542000F8018081882319F08C2F0E94472DFE01FE
:10543000EE5EFB4F8081F80180839091FC03F801C0
:105440008081981303C08F2D0E94542D21960F5FE9
:105450001F4FC730D105A1F68091FB038F5F80936A
:10546000FB03803408F4AAC01092FB03E0901104FF
:10547000E11005C0F0900704F1103BC09FC080917F
:10548000FA038F5F8093FA0390910F04981790F7B7
:105490001092FA0308E014E0C0E0D0E0F12CC7015C
:1054A0000C2E02C0969587950A94E2F780FF1AC0E9
:1054B000F8018081882319F08150808313C0809186
:1054C000100490E00C2E02C0969587950A94E2F79E
:1054D00061E080FF04C08C2F0E94862903C08C2FBE
:1054E0000E94642921960F5F1F4FC730D105B9F67E
:1054F000C1CF8091F9038F5F8093F90390910504E8
:10550000981708F05BC01092F9031091FD03009109
:105510000604AEEFB3E080E090E041E050E02F2DD4
:1055200030E0082E02C0369527950A94E2F720FF56
:1055300039C06C91E62FF0E0E15CFB4FE491EC01A7
:10554000CE5EDB4FE883212F30E0082E02C0369577
:1055500027950A94E2F720FF19C0611115C0BA011E
:10556000082E01C0660F0A94EAF760951623202FD3
:1055700030E0082E02C0369527950A94E2F720FF06
:1055800011C00623F6220EC061500BC06F3741F4E4
:105590009A01082E01C0220F0A94EAF7122B02C0CA
:1055A0006F5F6C93019611968730910509F0B7CF24
:1055B000F09207041093FD0300930604FF91EF910E
:1055C000DF91CF91BF91AF919F918F917F916F911B
:1055D0005F914F913F912F911F910F91FF90EF900D
:1055E0000F900FBE0F901F9018950E94C424811138
:1055F00002C00E949F240E94EA248093880480FFB6
:1056000002C0869501C080E00C94A10480918804BA
:10561000982F9695292F30E0283031054CF49F5F64
:10562000990F8170892B8160809388040E94EE24F9
:105630008091880486950C94A10480918804982F09
:10564000969591F09158990F8170892B80938804D9
:105650008E7F91E009F490E08091880490FB80F9BE
:10566000809388040E94EE248091880486950C948F
:10567000A10480918804982F9095917090FB80F9F7
:1056800080938804992339F0982F9E7F21F48170AC
:10569000826080938804809188040E94EE24809127
:1056A000880480FF02C0869501C080E00C94A104AC
:1056B00030918804232F26952F5F2F77822F90E03B
:1056C000317009972CF4220F232B2093880402C0F9
:1056D00030938804809188048E7F91E009F490E0F3
:1056E0008091880490FB80F9809388040E94EE24C6
:1056F0008091880486950C94A104880F9091880469
:105700009170982B909388049E7F21E009F420E00B
:105710008091880420FB80F9809388040E94EE2405
:105720008091880486950C94A104EF92FF920F93C8
:105730001F93CF93DF93F82EE62E009127040827BE
:10574000611101C0E1F1C0E0D0E010E08C2F9C2F8E
:105750002091200430E00C2E02C0369527950A9443
:10576000E2F720FF0BC02091230430E00C2E02C092
:10577000369527950A94E2F720FD1BC0E11009C079
:105780009801092E02C0369527950A94E2F720FF6A
:1057900010C0209122042F2530E002C036952795B5
:1057A0009A95E2F720FF03C00E94340502C00E94D0
:1057B00074052196C730D10549F6F0922704DF9190
:1057C000CF911F910F91FF90EF9008950F931F932A
:1057D000CF93DF93C0E0D0E001E010E08C2F0E9477
:1057E000B72D94FF0BC08091220498010C2E01C0AC
:1057F000220F0A94EAF7822B8093220495FF0BC0B4
:105800008091230498010C2E01C0220F0A94EAF71C
:10581000822B809323049F70892F90E08230910522
:1058200089F083309105D1F08130910511F50C2E6E
:1058300001C0880F0A94EAF790912504982B909361
:10584000250417C020912404C8010C2E01C0880F24
:105850000A94EAF7282B209324040BC020912604F5
:10586000C8010C2E01C0880F0A94EAF7282B209358
:1058700026042196C730D10509F0B0CF0E942B0530
:1058800061E080E0DF91CF911F910F910C94952BF7
:10589000CF92DF92EF92FF920F931F93CF93DF93FC
:1058A000909126049923C9F1D0902704C0E0D0E05C
:1058B000E82EF12C01E010E02091260430E08C2F3E
:1058C0000C2E02C0369527950A94E2F720FF15C0EA
:1058D0000E94B72D970102C0359527958A95E2F76A
:1058E000C90198010C2E01C0220F0A94EAF780FF2B
:1058F00002C0D22A02C02095D2222196C730D105FB
:10590000D9F660E08D2DDF91CF911F910F91FF901F
:10591000EF90DF90CF900C94952BDF91CF911F915A
:105920000F91FF90EF90DF90CF900895AF92BF92CC
:10593000CF92DF92EF92FF920F931F93CF93DF935B
:105940006B017C01809125048823E9F1B090270444
:10595000C0E0D0E001E010E02091250430E00C2E02
:1059600002C0369527950A94E2F720FF1AC08C2FC3
:105970000E94B72DA701960104C05695479537950B
:1059800027958A95D2F7DA01C90198010C2E01C03A
:10599000220F0A94EAF780FF02C0B22A02C02095C3
:1059A000B2222196C730D105B9F660E08B2DDF9188
:1059B000CF911F910F91FF90EF90DF90CF90BF900C
:1059C000AF900C94952BDF91CF911F910F91FF9089
:1059D000EF90DF90CF90BF90AF900895AF92BF92BD
:1059E000CF92DF92EF92FF920F931F93CF93DF93AB
:1059F0006B017C01809124048823E9F1B090270495
:105A0000C0E0D0E001E010E02091240430E00C2E52
:105A100002C0369527950A94E2F720FF1AC08C2F12
:105A20000E94B72DA701960104C05695479537955A
:105A300027958A95D2F7DA01C90198010C2E01C089
:105A4000220F0A94EAF780FF02C0B22A02C0209512
:105A5000B2222196C730D105B9F660E08B2DDF91D7
:105A6000CF911F910F91FF90EF90DF90CF90BF905B
:105A7000AF900C94952BDF91CF911F910F91FF90D8
:105A8000EF90DF90CF90BF90AF9008950895209150
:105A9000230430E0082E02C0369527950A94E2F7D9
:105AA00020FD0C94340508952091230430E0082E45
:105AB00002C0369527950A94E2F720FD0C947405F0
:105AC000089561E0809127040C94952BCF92DF928A
:105AD000EF92FF920F931F93CF93DF9308E214E0AE
