:100000000C946C070C94B0070C94B0070C94B007D8
:100010000C94B0070C94B0070C94B0070C94B00784
:100020000C94B0070C94B0070C94DA180C94AC192B
:100030000C94210D0C94B0070C94B0070C94B007ED
:100040000C94B0070C941E300C94B0070C94B007BD
:100050000C94B0070C94D5280C94B0070C94B007FE
:100060000C94B0070C94B0070C94B0070C94B00734
:100070000C94B0070C94B0070C94B0070C94B00724
:100080000C94F1130C94B0070C94B0070C94B007C7
:100090000C94B0070C94B0070C94B0070C94B00704
:1000A0000C94B0070C94B0070C94B007750877084F
:1000B00094089B08A20897089E08A5080C1A2C1AF9
:1000C000E41A2C1AE41A6E1A911AE41AB31AC61A10
:1000D000401E401E6E1E6E1ECA1E3F213F213F2144
:1000E000061F3F21FD1FFD1F3F21B9203F212D216C
:1000F00000002CA12BA2000028A20000000000F0AC
:1001000001F000000000523200000000000000007A
:10011000000000000000000000000000000000D20D
:1001200000D100D029141A0815171C180C12132A14
:10013000000000000000000000000000C2041607DC
:10014000090A0B0D0E0F00C40000000000000000A3
:1001500000000000E1001D1B06190511103637CB09
:10016000000000000000000000000000E0E3E200EA
:10017000C1002C000050514F0000000000000000A2
:10018000000000000000000000000000000000006F
:10019000000000000000000000000000000000005F
:1001A000000000000000000000000000000000004F
:1001B000000000000000000000000000000000003F
:1001C000000000000000000000000000000000002F
:1001D000000000000000000000000000000000001F
:1001E000000000000000000000000000000000000F
:1001F00000000000000000000000000000000000FF
:1002000000000000000000000000000000000000EE
:1002100000000000000000000000000000000000DE
:1002200000000000351E1F20212223242526272A16
:100230000000000000000000000000002B3A3B3CE2
:100240003D3EC7C82D2E0028000000000000000021
:1002500000000000E1003F4041424344453637CBB7
:10026000000000000000000000000000E0E3E200E9
:10027000C1002C0000A8AAA9000000000000000096
:10028000000000000000000000000000000000006E
:10029000000000000000000000000000000000005E
:1002A000000000000000000000000000000000004E
:1002B000000000000000000000000000000000003E
:1002C000000000000000000000000000000000002E
:1002D000000000000000000000000000000000001E
:1002E000000000000000000000000000000000000E
:1002F00000000000000000000000000000000000FE
:1003000000000000000000000000000000000000ED
:1003100000000000000000000000000000000000DD
:100320000000000039014B4A3B012F30522D2E4C6A
:10033000000000000000000000000000C24C4E4D14
:100340003E010150514F00C40000000000000000B9
:1003500000000000E100464801010133343831CB90
:10036000000000000000000000000000E0E3E200E8
:100370002800280000D7D8D90000000000000000A5
:10038000000000000000000000000000000000006D
:10039000000000000000000000000000000000005D
:1003A000000000000000000000000000000000004D
:1003B000000000000000000000000000000000003D
:1003C000000000000000000000000000000000002D
:1003D000000000000000000000000000000000001D
:1003E000000000000000000000000000000000000D
:1003F00000000000000000000000000000000000FD
:1004000000000000000000000000000000000000EC
:1004100000000000000000000000000000000000DC
:10042000000000000A00253033326C62003A2000E0
:1004300025303258000A722F632030313233343580
:10044000363738394142434445463031323334350A
:10045000363738394142434445460A000A002530C0
:10046000325800626F756E6365213A20000010807B
:10047000FF00030103020300206932632074696DE9
:10048000656F75740A00666F756E643A2025640A9C
:10049000006C6F73743A2025640A0054494D45522C
:1004A000332064697361626C65642E0A0054494D9F
:1004B00045523320656E61626C65642E0A00726776
:1004C000626C696768742073657420687376205B5A
:1004D000454550524F4D5D3A2025752C25752C25EC
:1004E000750A007267626C6967687420746F676769
:1004F0006C653A207267626C696768745F636F6EDF
:100500006669672E656E61626C65203D2025750AFF
:10051000007267626C69676874206D6F64653A2069
:1005200025750A007267626C696768745F696E6935
:1005300074207267626C696768745F636F6E666966
:10054000672E6D6F6465203D20302E2057726974D0
:10055000652064656661756C742076616C75657381
:1005600020746F20454550524F4D2E0A007267622D
:100570006C696768745F696E6974206565636F6E26
:10058000666967206973206E6F7420656E61626CA6
:1005900065642E0A007267626C696768745F696ED1
:1005A0006974207374617274210A007267626C69E5
:1005B0006768745F696E69742063616C6C65642E32
:1005C0000A007267626C696768745F636F6E666960
:1005D000672E76616C203D2025640A007267626C8C
:1005E000696768745F636F6E6669672E73617420F4
:1005F0003D2025640A007267626C696768745F63F6
:100600006F6E6669672E687565203D2025640A0057
:100610007267686C696768745F636F6E6669672E7E
:100620006D6F6465203D2025640A007267626C6905
:100630006768745F636F6E6669672E656E61626C72
:1006400065203D2025640A007267626C69676874E2
:100650005F636F6E666967206570726F6D0A006513
:1006600065636F6E6669675F77726974655F7267ED
:10067000626C696768745F64656661756C740A00B2
:10068000643214643214783C1E1E140A0500000003
:10069000000101010202030405050607090A0B0C0B
:1006A0000E0F1112141517191B1D1F212325282A9F
:1006B0002C2F313436393B3E414346494C4F52553D
:1006C000585A5D6164676A6D707376797C7F838642
:1006D000898C8F9295989B9EA2A5A7AAADB0B3B620
:1006E000B9BCBEC1C4C6C9CBCED0D3D5D7DADCDE47
:1006F000E0E2E4E6E8EAEBEDEEF0F1F3F4F5F6F82B
:10070000F9FAFAFBFCFDFDFEFEFEFFFFFFFFFFFF17
:10071000FFFEFEFEFDFDFCFBFAFAF9F8F6F5F4F338
:10072000F1F0EEEDEBEAE8E6E4E2E0DEDCDAD7D584
:10073000D3D0CECBC9C6C4C1BEBCB9B6B3B0ADAAC6
:10074000A7A5A29E9B9895928F8C898683807C79A1
:100750007673706D6A6764615D5A5855524F4C49A3
:100760004643413E3B393634312F2C2A282523215C
:100770001F1D1B1917151412110F0E0C0B0A090758
:100780000605050403020201010100000000010149
:10079000020202020202030303030303030303032F
:1007A000030303030404040404040404040404040D
:1007B00005050505050505050505060606060606E3
:1007C00006060707070707070708080808080809B3
:1007D00009090909090A0A0A0A0A0B0B0B0B0B0C77
:1007E0000C0C0C0C0D0D0D0D0E0E0E0E0F0F0F1030
:1007F00010101011111112121213131314141415D6
:1008000015161616171718181919191A1A1B1B1C62
:100810001C1D1D1E1E1F20202121222323242425D0
:100820002626272828292A2B2B2C2D2E2F30303115
:1008300032333435363738393A3B3C3D3E3F404120
:100840004244454647494A4B4C4E4F5152535556E8
:10085000585A5B5D5E6062636567696B6D6E70724E
:100860007476797B7D7F818486888B8D9092959735
:100870009A9D9FA2A5A8ABAEB1B4B7BABEC1C4C879
:10088000CBCFD3D6DADEE2E6EAEEF2F8FF5B735DB9
:10089000004B6579626F6172642073746172742EAB
:1008A0000A0055534220636F6E666967757265640E
:1008B0002E0A005B575D005B535D005B525D005B81
:1008C000445D005B435D000A002530325820006B18
:1008D0006579626F6172645F7265706F72743A20DD
:1008E000004C45443A20253032580A0064656C5F5C
:1008F0006B65795F6269743A2063616E2774206466
:10090000656C3A20253032580A006164645F6B657B
:10091000795F6269743A2063616E27742061646450
:100920003A20253032580A00646F6E652E0A006244
:100930006F6F746D61676963207363616E3A202E17
:100940002E2E20003F00433E20004C25640A000A62
:10095000092D20436F6E736F6C65202D0A4553433C
:100960002F713A09717569740A000A092D204D61C9
:10097000676963202D0A643A0964656275670A78BD
:100980003A096465627567206D61747269780A6BF3
:100990003A096465627567206B6579626F6172649C
:1009A0000A6D3A096465627567206D6F7573650A33
:1009B000763A0976657273696F6E0A733A097374D1
:1009C000617475730A633A09636F6E736F6C6520A7
:1009D0006D6F64650A302D343A096C617965723047
:1009E0002D34284631302D4634290A506175733A2A
:1009F00009626F6F746C6F616465720A653A0965AC
:100A00006570726F6D0A6E3A094E4B524F0A000ABA
:100A1000002575002E6C6576656C3A20000A00256D
:100A200075002E656E61626C653A20000A00253003
:100A30003258006261636B6C696768745F636F6EE4
:100A40006669672E7261773A20000A002575002ECC
:100A50006E6B726F3A20000A002575002E73776165
:100A6000705F6261636B736C6173685F6261636B1B
:100A700073706163653A20000A002575002E737754
:100A800061705F67726176655F6573633A20000A23
:100A9000002575002E6E6F5F6775693A20000A00A9
:100AA0002575002E737761705F72616C745F726779
:100AB00075693A20000A002575002E737761705F12
:100AC0006C616C745F6C6775693A20000A0025756B
:100AD000002E636170736C6F636B5F746F5F636F25
:100AE0006E74726F6C3A20000A002575002E7377C1
:100AF00061705F636F6E74726F6C5F636170736C53
:100B00006F636B3A20000A0025303258006B65791C
:100B10006D61705F636F6E6669672E7261773A20F0
:100B2000000A002575002E6D6F7573653A20000A66
:100B3000002575002E6B6579626F6172643A200042
:100B40000A002575002E6D61747269783A20000ADA
:100B5000002575002E656E61626C653A20000A0002
:100B6000253032580064656275675F636F6E666931
:100B7000672E7261773A20000A0025750064656669
:100B800061756C745F6C617965723A20003F004E4C
:100B90004B524F3A206F66660A004E4B524F3A2036
:100BA0006F6E0A0074696D65725F726561643332DD
:100BB00028293A202530346C580A006B6579626F19
:100BC0006172645F6E6B726F3A2025580A006B6524
:100BD00079626F6172645F69646C653A2025580AB6
:100BE000006B6579626F6172645F70726F746F63BE
:100BF0006F6C3A2025580A00686F73745F6B6579D3
:100C0000626F6172645F6C65647328293A202558AD
:100C10000A000A092D20537461747573202D0A008F
:100C20004743433A20342E382E32204156522D4C21
:100C30004942433A20312E382E30204156525F41EE
:100C40005243483A20617672350A004F5054494F5A
:100C50004E533A204C55464120424F4F544D414748
:100C600049432045585452414B455920434F4E5318
:100C70004F4C4520434F4D4D414E44204E4B524F1B
:100C8000204B45594D41505F494E5F454550524FAD
:100C90004D204C45444D4150204C45444D41505F02
:100CA000494E5F454550524F4D204241434B4C49C0
:100CB00047485420534F465450574D5F4C454420AD
:100CC000425245415448494E475F4C4544203430D8
:100CD00039360A004255494C443A20356365396239
:100CE00066382D6469727479202831363A34353A81
:100CF0003133204F63742032312032303136290AAB
:100D0000005649443A20307831323039284B6169F5
:100D10002052797529205049443A203078323333B3
:100D200033284B696D65726129205645523A20304F
:100D300078303130300A00444553433A20742E6DE8
:100D40002E6B2E206B6579626F617264206669720A
:100D50006D7761726520666F72204B696D65726197
:100D60000A000A092D2056657273696F6E202D0ADC
:100D7000000A6D6F7573653A206F66660A000A6D2A
:100D80006F7573653A206F6E0A000A6B6579626F42
:100D90006172643A206F66660A000A6B6579626F59
:100DA0006172643A206F6E0A000A6D61747269782C
:100DB0003A206F66660A000A6D61747269783A209B
:100DC0006F6E0A000A64656275673A206F6E0A00EA
:100DD0000A64656275673A206F66660A000A0A62ED
:100DE0006F6F746C6F616465722E2E2E2000433E0F
:100DF00020006565636F6E6669673A0A000000004F
:100E000000000000000000010101020202030304CF
:100E10000405050606070808090A0B0B0C0D0E0F42
:100E200010111213151617191A1B1D1E2022232527
:100E300027292B2D2F313335383A3D3F4244474A3D
:100E40004D505356595C5F6266696C7074777B7E57
:100E500082868A8E9195999DA1A5A9ADB0B4B8BCA2
:100E6000C0C3C7CBCED2D5D8DBDFE2E4E7EAECEFF4
:100E7000F1F3F5F7F8FAFBFCFDFEFFFFFF6261639B
:100E80006B6C6967687420737465703A2025750A05
:100E9000006261636B6C6967687420746F67676C6C
:100EA000653A2025750A006261636B6C6967687436
:100EB0002064656372656173653A2025750A006276
:100EC00061636B6C6967687420696E6372656173D6
:100ED000653A2025750A000011241FBECFEFDAE025
:100EE000DEBFCDBF04B603FE24C080917105909192
:100EF0007205A0917305B09174058730904BA7409F
:100F0000B04BB9F4109271051092720510927305EE
:100F10001092740514BE84B7877F84BF88E10FB632
:100F2000F89480936000109260000FBEE0E0F8E358
:100F3000099512E0A0E0B1E0E8E2FBE602C005900E
:100F40000D92AC3EB107D9F715E0ACEEB2E001C0AE
:100F50001D92A137B107E1F70E949B160C949235C0
:100F60000C940000FF93EF93E091EC02F091ED02FE
:100F7000309709F00995EF91FF910895FC01859153
:100F8000803011F0EFDFFBCF0895FF27E0E230E281
:100F900047FF0CC0419597FF09C0EDE26095709541
:100FA00080959095611D711D811D911D27FF02C0C7
:100FB000219530E350E2AA27660F771F881F991FFB
:100FC000AA1FA41710F0A41B63955A95A9F7AA307D
:100FD00008F0A95FA05DAF93F395611571058105D8
:100FE000910541F7ED3211F4EF93F395F21718F4F0
:100FF0003F93F395FBCF8F91B5DFFA95E1F7089515
:10100000E991F9918591803021F0853219F0AADFBC
:10101000F9CF089520E0E89455915532C1F350334B
:1010200011F4689455915A3348F4505390F3220FB9
:10103000022E220F220F200D250FF4CF0EF4219542
:1010400089919991533619F3533729F1533559F151
:10105000BC0188279927E8945C3621F489919991FD
:1010600068945591543639F446EF7EF077FF0DC001
:101070008FEF9FEF0AC055374AE039F0583540E10D
:1010800021F0523642E009F00895FF93EF937DDF9F
:10109000EF91FF91B7CFFF93EF93FC0181918030E7
:1010A000B9F360DFFBCFFF93EF9368DFF1CFDF93FE
:1010B000CF93CDB7DEB72596A3DFCF91DF9108950B
:1010C00080E093E008958AE190E00895FC01828138
:1010D000882309F43EC0862F90E088309105C8F53A
:1010E000FC01EA5AFF4F0C944D350C9493110E9469
:1010F0008B2781FF17C090912B05892F8695815CE6
:101100008F739178882329F0880F892B80932B0582
:1011100003C09E6290932B0580912B0586958F735B
:101120000C94D2100C9489110E948B2781FD0C9491
:1011300011100C94F80F0E948B2781FD0C944B101A
:101140000C9430100E948B2781FD0C9480100C941D
:1011500065100895462F672F0C948534805C0E949B
:101160007734089584E291E0089580EF90E0089547
:101170000C946F0BCF9380E885BF85BF0E94160D3E
:101180000E9428110E944B0CC0E00E946C0BC817F3
:10119000A0F424E0C29FC0011124FC01E259FC4FDD
:1011A0001082118212821382FC01E251FD4F1082E3
:1011B000118212821382CF5FE8CF5C98CF9108959D
:1011C000EF92FF920F931F93CF93DF930E949C0C9B
:1011D000F12CEE24E394CEE5D4E00E946C0BF816DB
:1011E00008F046C08F2D0E94580C20EA2A95F1F78E
:1011F0008F2D0E94E70B24E0F29EF0011124E251B2
:10120000FD4F0081118122813381061717072807BE
:10121000390751F160837183828393838091000148
:10122000882301F18091F90480FF04C083E694E0F3
:101230000E94BE078091F90480FF0CC080910001DC
:101240001F928F93DF93CF930E9457080F900F90B8
:101250000F900F908091F90480FF04C08CE594E01A
:101260000E94BE07E09200010E944B0CF394B5CFA0
:1012700080910001882339F1815080930001811110
:1012800002C0C0E007C08FE99FE00197F1F700C0FE
:10129000000019C00E946C0BC817A8F424E0C29F7C
:1012A000C0011124FC01E259FC4FDC01A251BD4FE9
:1012B0008D919D910D90BC91A02D80839183A283EF
:1012C000B383CF5FE7CF81E0DF91CF911F910F9183
:1012D000FF90EF90089594E0899FF0011124E25966
:1012E000FC4F60817181828193810895DF92EF923A
:1012F000FF920F931F93CF93DF9385E394E00E94B7
:10130000BE07D12CC0E3D4E006E214E00E946C0BCF
:10131000D81678F5ED2CF12C1F92DF92DF93CF9346
:101320000E9457088DE294E00E94BE07F701EE0F7D
:10133000FF1FEE0FFF1FE259FC4F60817181828118
:1013400093810E9413289F938F937F936F931F9392
:101350000F930E94570884E294E00E94BE07D39442
:101360008DB79EB70A960FB6F8949EBF0FBE8DBF7D
:10137000CDCFDF91CF911F910F91FF90EF90DF9034
:101380000895CF93C82F8730A0F4843000F58130C2
:10139000D0F10E94842F0E94A52F0E94EC2F0E9462
:1013A0001830EC2FF0E0E359FB4F8491CF910C946F
:1013B000BD2F8730C9F0883031F50E94842F0E94FC
:1013C000A52F0E94E62F0E94183081E016C00E94CF
:1013D000842F0E94A52F0E94EC2F0E94123086E0DD
:1013E0008C1BCF910C941B300E94842F0E94A52F40
:1013F0000E94E62F0E94183080E00E94013083E0B6
:10140000CF910C940F300E94EC2F0E9418300E9454
:10141000AB2FCF910C948E2FE82FF0E0EE0FFF1F33
:10142000EF58FB4F859194910895259A2D9A269A0D
:101430002E9A3F9A47980895813031F018F0833002
:1014400029F008952D9808952E980895479A0895A3
:10145000813031F018F0833029F008952D9A0895E5
:101460002E9A0895479808951092B9008CE08093C1
:10147000B800089594EA9093BC009091BC0097FD49
:1014800006C09091EE039923C1F31092EE03909160
:10149000B900987F983021F0903111F081E00895E3
:1014A0008093BB0084E88093BC008091BC0087FDE2
:1014B00006C08091EE038823C1F31092EE03809161
:1014C000B900887F883111F0803441F780E00895B9
:1014D00084E98093BC008091BC0084FF07C08091A8
:1014E000EE038823C1F31092EE03089508958093CC
:1014F000BB0084E88093BC008091BC0087FD06C0DF
:101500008091EE038823C1F31092EE039091B9000D
:10151000987F81E0983209F480E0089584EC80930C
:10152000BC008091BC0087FD06C08091EE0388233B
:10153000C1F31092EE038091BB00089584E880937C
:10154000BC008091BC0087FD06C08091EE0388231B
:10155000C1F31092EE038091BB000895F894A89512
:1015600026E488E190E00FB6F894A8958093600097
:101570000FBE2093600078940895AF92BF92CF92EF
:10158000DF92EF92FF920F931F93CF93DF9380E14F
:1015900090E00E945335F82E81E190E00E9453358F
:1015A000C82E8FEF8F0DDD24D3948E3F08F4D12CFD
:1015B000CC2019F08FEFC81201C0D3942C2D30E04D
:1015C0002F0D311D2132310514F0D39443C0D110B9
:1015D00041C0F0920201C092010103E211E0E12C4E
:1015E00082E190E0BB24BA94EF1450F4EC01219610
:1015F0000E945335F8018083803228F0D39403C0D1
:10160000F801B082EC01E3940F5F1F4FF0E2EF1698
:1016100011F0CE01E9CF03E011E0B12CAA24AA9485
:10162000BC1468F47E018FEFE81AF80ACE010E941C
:101630005335F8018083803228F0D39403C0F80139
:10164000A0827E01B3940F5F1F4FF0E2BF1611F02E
:10165000E701E6CF8D2DDF91CF911F910F91FF9084
:10166000EF90DF90CF90BF90AF9008951F93CF93EE
:10167000DF936091020180E190E00E946735609104
:10168000010181E190E00E94673582E190E0EEEE99
:10169000E80F20910201E21750F4EC012196F0E0EE
:1016A000ED5DFE4F60810E946735CE01F0CF182FAF
:1016B000E82FE11B20910101E21750F4EC01219683
:1016C000F0E0ED5FFE4F60810E946735CE01F0CF04
:1016D000DF91CF911F91089580910201089580912B
:1016E000010108950F931F93CF93DF931F92CDB7FE
:1016F000DEB78A01A895805E880F69830E943A0A46
:10170000698181110FC0862F0E94770A81110AC05A
:10171000F80180810E94770A811104C0F80181815B
:101720000E94770A89830E94680A89810F90DF915D
:10173000CF911F910F910895EF92FF920F931F93F6
:10174000CF93DF931F92CDB7DEB7182F7A01A895FC
:10175000105E110F812F69830E943A0A082F698158
:10176000811115C0862F0E94770A082F81110FC0A2
:10177000812F81600E943A0A082F811108C00E94BF
:101780008E0AF70180830E949E0AF70181830E94DE
:10179000680A802F0F90DF91CF911F910F91FF90DA
:1017A000EF900895AB0162E00C94720BAB0166E020
:1017B0000C94720BAB0160E00C949C0B8093F003D3
:1017C0008093F1038093F2038093F30308958F9243
:1017D0009F92AF92BF92CF92DF92EF92FF920F93C0
:1017E0001F93CF93DF938FEF0E94DE0B60EF73E0C8
:1017F00080E00E94DA0B62EF73E081E00E94DA0B76
:10180000D091010143E051E0FA0160E070E0CB01CA
:1018100001E010E020E030E0AE2FA41BAD1770F522
:10182000DF01A350B1406D01C191CF3FA9F3C3FBCC
:10183000EE24E0F8FC2EF2945FE0F522AE2DB0E04D
:10184000AF0DB11DAF0DB11DA051BC4FAC91B0E0BB
:10185000C77002C0B595A795CA95E2F7A0FDDCCF89
:101860004801590104C0880C991CAA1CBB1CCA94CD
:10187000D2F7682979298A299B29CECFDF91CF9188
:101880001F910F91FF90EF90DF90CF90BF90AF909E
:101890009F908F9008958FEF0E94DE0B60EF73E0B2
:1018A00080E00E94D60B62EF73E081E00C94D60BCF
:1018B0001F93CF93DF93182F8FEF0E94DE0BE12F42
:1018C000F0E0ED5DFE4F90819F3F19F1892F8295E9
:1018D0008F70682F70E093FB222720F9C22F20E041
:1018E000D22F660F771FC60FD71FC051DC4F9770DE
:1018F00021E030E001C0220F9A95EAF72095988107
:101900002923288360517C4FDF91CF911F910C9444
:10191000D60BDF91CF911F910895CF93C82F80E010
:101920000E94DE0B6C2F70E0660F771F60517C4FBA
:101930008C2FCF910C94D20BAF92BF92CF92DF92AB
:10194000EF92FF920F931F93CF93DF93A895C0E080
:10195000D0E001E010E0B6E8EB2EB4E0FB2E81E928
:10196000C82E84E0D82EAC2EBC2ECE018096880FD7
:10197000991F81600E943A0A2091EF0330E00C2EFB
:1019800002C0359527950A94E2F720FF1DC08823F1
:10199000E9F18091F90480FF0AC0DF93CF93DF92D1
:1019A000CF920E9457080F900F900F900F909801C0
:1019B0000B2C01C0220F0A94EAF720958091EF03C7
:1019C00082238093EF0320C0811120C08091F9040D
:1019D00080FF0AC0DF93CF93FF92EF920E945708D7
:1019E0000F900F900F900F9098010B2C01C0220FB9
:1019F0000A94EAF79091EF03922B9093EF030E94E1
:101A0000680A8A2D0E948D0C0E945C212196C230AA
:101A1000D10509F0A8CFDF91CF911F910F91FF90D1
:101A2000EF90DF90CF90BF90AF9008950E94BD0AD5
:101A300081110E94360B0E94340A0E94AE0A0C9457
:101A40009C0C1F920F920FB60F9211242F933F936D
:101A50004F935F936F937F938F939F93AF93BF93B6
:101A6000EF93FF938091F90480FF08C089E794E029
:101A70009F938F930E9457080F900F901092BC0075
:101A8000509A5198499B17C084E98093BC0081E02B
:101A90008093EE03FF91EF91BF91AF919F918F9152
:101AA0007F916F915F914F913F912F910F900FBE5A
:101AB0000F901F90189589E0589895E09A95F1F746
:101AC0000000589A95E09A95F1F700008150A1F72F
:101AD000DBCF38B1242F2095232338B1342B4FB7D7
:101AE000F894FC01680F791FE617F70789F08191D8
:101AF00098E038B9000000C087FF28B9880F0000BF
:101B000000C000C000C028B900C09A9591F7ECCF82
:101B10004FBF089527B1242B27B99B01220F331FF4
:101B2000260F371FB9010E94690D87EC90E00197DD
:101B3000F1F700C00000089540E40C948A0DCF92A4
:101B4000DF92EF92FF920F931F93CF93DF937C016D
:101B5000E42FF0E0E357F84F44918FEF90E0FC0161
:101B6000E61BF109E357F84FE491E09509F496C0BC
:101B7000042F10E08E1B9109809FB001819F700D92
:101B8000909F700D1124E72FF72FCCE3D0E0C70111
:101B9000BE010E942535DC016230710509F447C0A1
:101BA000D8F461157105A1F16130710509F07AC0B1
:101BB0000E1B1109CE018A1B9B0BDC010A9FC00181
:101BC0000B9F900D1A9F900D1124BE010E94253588
:101BD000CE2EC60ED42E67C06430710509F44BC0FA
:101BE000B8F16530710509F05DC00E1B1109BE0129
:101BF000681B790B069FC001079F900D169F900DE3
:101C00001124BE010E942535DE2EFE2FF60F44C0A2
:101C10000E1B11090E9DC0010F9D900D1E9D900D74
:101C20001124BE010E942535DE2ED60E35C00E1BB6
:101C300011090A9FC0010B9F900D1A9F900D11244E
:101C4000BE010E942535D42ECE2EFE2FF60F2BC0BE
:101C50000E1B1109BE01681B790B069FC001079F6F
:101C6000900D169F900D1124BE010E942535DE2E89
:101C7000D60ECE2E0FC00E1B11090A9FC0010B9F5E
:101C8000900D1A9F900D1124BE010E942535CE2E75
:101C9000C60EDE2EF42F07C0C42E05C0F42FD42E9E
:101CA000C42E01C0F0E0D9011196CC921197DC92BC
:101CB0001296FC93DF91CF911F910F91FF90EF90BF
:101CC000DF90CF90089582E390E00C945B35AB01F8
:101CD000BC0182E390E00C9475358091F90480FF9B
:101CE00008C08FE596E09F938F930E9457080F904E
:101CF0000F9083E080932B0580912C05807884667B
:101D00008F7780932C058CEC80932D0580932E0586
:101D100060912B0570912C0580912D0590912E05D9
:101D20000C94670E8091F90480FF08C088E496E067
:101D30009F938F930E9457080F900F908091F90402
:101D400080FF0FC080912B0581701F928F938BE2D3
:101D500096E09F938F930E9457080F900F900F90DB
:101D60000F908091F90480FF10C080912B0586951B
:101D70008F731F928F9380E196E09F938F930E94C1
:101D800057080F900F900F900F908091F90480FFEB
:101D900019C090912B05991F9927991F20912C0507
:101DA000822F880F892B27FB222720F92F938F93CF
:101DB00086EF95E09F938F930E9457080F900F90A6
:101DC0000F900F908091F90480FF0EC080912D0537
:101DD0001F928F938CED95E09F938F930E945708ED
:101DE0000F900F900F900F908091F90480FF0EC01C
:101DF00080912E051F928F9382EC95E09F938F9395
:101E00000E9457080F900F900F900F9008958091A7
:101E10002B0580FF06C060E170E083E395E00C9441
:101E20009C0DE5E3F5E0DF0111971C92DF011297AD
:101E30001C921082339685E0E536F807A1F7EBCFC8
:101E4000E5E3F5E0DF0111978C93DF0112976C93C6
:101E50004083339695E0E536F907A1F70C94070F18
:101E6000CF92DF92EF92FF920F931F93CF93DF9366
:101E700000D01F92CDB7DEB7F82EC92ED62EE42E95
:101E800000912B0510912C0520912D0530912E05E8
:101E900000932F05109330052093310530933205C0
:101EA00080912B0580FF1EC09E012F5F3F4F8F2D1D
:101EB0000E949F0D80912F05F0FA87F980932F05DE
:101EC000F6942091300520782F29C0FA27F9209325
:101ED0003005D0923105E09232054B8169818A81CB
:101EE0000E94200F0F900F900F90DF91CF911F91C4
:101EF0000F91FF90EF90DF90CF9008950F931F9375
:101F0000CF93DF93C82F192F062FD42F80912B0545
:101F100080FF69C0982F9E77923029F48C2F912FE3
:101F20000E94300F1AC0282F26952F739EE3920F20
:101F30009F73943018F4D0912E050FC0265C2F7338
:101F4000293058F4881F8827881F10912C05C12F2D
:101F5000CC0FC82B17FB112710F980912B05C0FB64
:101F600087F980932B05C69580912C0580788C2B62
:101F700010FB87F980932C0500932D05D0932E0537
:101F800060912B0570912C0580912D0590912E0567
:101F90000E94670E8091F90480FF25C080912E0574
:101FA0001F928F9380912D051F928F9390912B05F7
:101FB000991F9927991F20912C05822F880F892B13
:101FC00027FB222720F92F938F938EEB94E09F938A
:101FD0008F930E9457088DB79EB708960FB6F89456
:101FE0009EBF0FBE8DBFDF91CF911F910F910895BE
:101FF00020912B05221F2227221F30912C05432FD1
:10200000440F842F822B37FB992790F90A9668E6B4
:1020100071E00E94393540912E0560912D050C9498
:102020007E0F20912B05221F2227221F30912C0585
:10203000432F440F842F822B37FB992790F98A3046
:1020400091051CF4825A9E4F01C00A9768E671E020
:102050000E94393540912E0560912D050C947E0F1C
:1020600060912D05862F90E08F3E910514F46F5EF0
:1020700001C06FEF80912B05881F8827881F9091E2
:102080002C05292F220F97FB992790F940912E05B7
:10209000822B0C947E0F60912D05862F90E0419746
:1020A00014F0615101C060E080912B05881F8827E2
:1020B000881F90912C05292F220F97FB992790F9C3
:1020C00040912E05822B0C947E0F40912E05842F7B
:1020D00090E08F3E910514F44F5E01C04FEF809168
:1020E0002B05881F8827881F90912C05292F220FE8
:1020F00097FB992790F960912D05822B0C947E0F08
:1021000040912E05842F90E0419714F0415101C079
:1021100040E080912B05881F8827881F90912C050F
:10212000292F220F97FB992790F960912D05822B7B
:102130000C947E0F8091050481110FC081E0809383
:10214000050489E0809391008FB7F89493E0909311
:10215000990090ED909398008FBF08958091710041
:102160008260809371008091F90480FF08C08DEA3D
:1021700094E09F938F930E9457080F900F900895BB
:10218000809171008D7F809371008091F90480FFB0
:1021900008C08BE994E09F938F930E9457080F909B
:1021A0000F90089590912B0590FF51C09178811167
:1021B00002C0926003C0883120F09E6290932B058C
:1021C00005C08F73880F892B80932B0560912B0599
:1021D00070912C0580912D0590912E050E94670E1F
:1021E0008091F90480FF10C080912B0586958F7334
:1021F0001F928F9381E195E09F938F930E945708E0
:102200000F900F900F900F9080912B05982F9E7735
:10221000923019F40E94C01007C08695825C8F73BB
:10222000863110F40E94AE1080912B05881F8827FC
:10223000881F90912C05292F220F97FB992790F941
:1022400040912E0560912D05822B0C947E0F0895F0
:102250008091F90481608093F9048BEA95E09F9363
:102260008F930E94570881E0809306048091F904BF
:102270000F900F9080FF08C085E995E09F938F93A2
:102280000E9457080F900F900E94262C811110C0B9
:102290008091F90480FF08C08DE695E09F938F93AD
:1022A0000E9457080F900F900E94012C0E946D0E03
:1022B0000E94630E60932B0570932C0580932D056F
:1022C00090932E056E77C1F48091F90480FF08C0C9
:1022D00084E295E09F938F930E9457080F900F9090
:1022E0000E946D0E0E94630E60932B0570932C0567
:1022F00080932D0590932E050E94920E0E949A10B5
:1023000080912B0580FF04C086958F730C94D210AA
:10231000089580912B0586958F738F5F883108F023
:1023200081E00C94D21080912B05982F909590FB12
:1023300080F980932B0560912B0570912C0580917D
:102340002D0590912E050E94670E8091F90480FF63
:102350000FC080912B0581701F928F9383EE94E0C4
:102360009F938F930E9457080F900F900F900F909C
:1023700080912B0580FF04C086958F730C94D2103A
:102380000E94C0102FEF80E792E0215080409040E3
:10239000E1F700C000000C94070FCF93C82F809185
:1023A0000304909104040E94AC28EC2FF0E0E7575E
:1023B000F94FE491F0E08E179F0710F10E949428E6
:1023C0009093040480930304E0910204F0E0E35747
:1023D000F94F449180912B05881F8827881F909181
:1023E0002C05292F220F97FB992790F960912D0535
:1023F000822B0E94300F809102048F5F8093020431
:10240000CF910895CF93C82F80910004909101043B
:102410000E94AC28EC2FF0E0EA57F94FE491F0E08D
:102420008E179F07E8F00E949428909301048093F0
:10243000000440912E0560912D058091FE0390913E
:10244000FF030E94300F8091FE039091FF030196DD
:1024500068E671E00E9425359093FF038093FE03A8
:10246000CF910895DF92EF92FF920F931F93CF9336
:10247000DF93D82E8091FC039091FD030E94AC283D
:10248000ED2DE695F0E0EA57F94FE491F0E08E1774
:102490009F07F0F10E9494289093FD038093FC0322
:1024A00003E315E0C0E0D0E088E6E82EFF24F394D3
:1024B0008091FA039091FB038C0F9D1FB7010E943E
:1024C0002535980140912E0560912D050E949F0DA4
:1024D00066960D5F1F4FC03681E0D80749F70E940E
:1024E000070F2091FA033091FB03D0FE0BC0C90106
:1024F000069668E671E00E9425359093FB03809371
:10250000FA0306C0215031093093FB032093FA03EC
:10251000DF91CF911F910F91FF90EF90DF90089581
:102520008F929F92AF92BF92CF92DF92EF92FF92E3
:102530000F931F93CF93DF93C82F80FD03C099247F
:10254000939402C099249A948091F8039091F9038E
:102550000E94AC28C695EC2FF0E0ED57F94FE491BE
:10256000F0E08E179F0708F468C00E9494289093AB
:10257000F9038093F80323E3E22E25E0F22E05E32E
:1025800015E0C0E0D0E037E0A32EB12CF801319780
:102590001082F7011082F801108297E0C92ED12C29
:1025A000812C8091F703880D87FD805F992787FD37
:1025B0009095C817D907E9F420912E052C9DC001EC
:1025C0002D9D900D1124B5010E943935462F809123
:1025D0002B05881F8827881F90912C05592F550F90
:1025E00097FB992790F9970160912D05852B0E9403
:1025F0009F0D890CF1E0CF1AD108C114D10489F6DE
:10260000219683E0E80EF11C0D5F1F4FC031D1050C
:1026100009F0BCCF0E94070F8091F70391E0991257
:1026200006C0811102C08DE006C0815004C090E058
:1026300001968F7099278093F703DF91CF911F91B7
:102640000F91FF90EF90DF90CF90BF90AF909F9051
:102650008F9008959F92AF92BF92CF92DF92EF92A8
:10266000FF920F931F93CF93DF93CDB7DEB7E09721
:102670000FB6F894DEBF0FBECDBF182F8091F503C3
:102680009091F6030E94AC28E12FF0E0E058F94F5A
:10269000E491F0E08E179F0708F491C00E949428FF
:1026A0009093F6038093F5038E010F5F1F4F6E0129
:1026B00083E0C80ED11CE12CF12C5801F6013197B2
:1026C0001082D8011C92F6011082912C9091430146
:1026D0008091F403999E800D112487FD04C0803100
:1026E0001CF08FE001C080E0992787FD9095E816E7
:1026F000F906A1F480912B05881F8827881F9091E7
:102700002C05592F550F97FB992790F99801409167
:102710002E0560912D05852B0E949F0D9394F7E067
:102720009F12D4CF8FEFE81AF80A0D5F1F4FA3E076
:10273000CA0ED11CB0E1EB16F10409F0BFCF65E37E
:1027400075E08BE090E09C012F703327AB01415086
:102750005109F901EE0FFF1FE20FF31FEA0DFB1DF8
:102760002181DA012C939B01225031094081D9014A
:102770004C932281FB01208301966D5F7F4F8B314B
:10278000910509F70E94070F909143018091F4038E
:10279000913049F48A3F2CF489EF8093F4038FEF52
:1027A00008C081500AC087313CF086E18093F40371
:1027B00081E08093430103C08F5F8093F403E09630
:1027C0000FB6F894DEBF0FBECDBFDF91CF911F9142
:1027D0000F91FF90EF90DF90CF90BF90AF909F90C0
:1027E00008951F920F920FB60F9211242F933F93CB
:1027F0004F935F936F937F938F939F93AF93BF9309
:10280000EF93FF9380912B0586958F739EE3980F2E
:102810009F73943020F482500E94CD1123C09AE31C
:10282000980F9F73933020F486500E9402121AC0B2
:1028300097E3980F9F73963020F489500E943212CC
:1028400011C091E3980F9F73963020F48F500E942F
:10285000901208C09BE2980F9F73933018F4855133
:102860000E942A13FF91EF91BF91AF919F918F9199
:102870007F916F915F914F913F912F910F900FBE7C
:102880000F901F90189580911A04089508959FB78E
:10289000F894109209049FBF90916605943009F056
:1028A00058C09091E9009F702091EC0020FF02C079
:1028B00020E801C020E0292B93E09093E90090915B
:1028C000EB0090FF43C09091EE0097FF3FC09091C6
:1028D0000704992321F09091E80095FF37C01092EA
:1028E000070496E03091E80035FD15C0309166058B
:1028F000343061F53091EB0035FD28C0915021F462
:1029000081E08093070422C0EFE9FFE03197F1F7FF
:1029100000C00000E7CF8093F1008091E80085FDC2
:102920000AC08091E80080FFFCCF8091E8008E779C
:102930008093E80006C08FB7F89491E09093090463
:102940008FBF2F702093E90080E008952F702093AF
:10295000E9008FEF0895CF93DF9300D01F92CDB79A
:10296000DEB720916605243021F523E029839B837F
:102970008A8382E08093E9008FEF9091E800815094
:1029800095FD06C095ED9A95F1F700008111F5CF00
:102990008091E80085FF0DC040E050E063E070E00A
:1029A000CE0101960E9452178091E8008E778093A5
:1029B000E8000F900F900F90DF91CF910895CF9383
:1029C000DF9300D01F92CDB7DEB72091660524308B
:1029D00019F522E029839B838A832093E9008FEFF6
:1029E0009091E800815095FD06C095ED9A95F1F71C
:1029F00000008111F5CF8091E80085FF0DC040E017
:102A000050E063E070E0CE0101960E945217809181
:102A1000E8008E778093E8000F900F900F90DF9181
:102A2000CF910895CF93DF93EC01809166058430B8
:102A300009F046C090914E019923D9F090914F0131
:102A40009923B9F08093E9008FEF9091E8008150CD
:102A500095FD06C095E19A95F1F700008111F5CF3B
:102A60008091E80085FF2CC040E050E060E170E01C
:102A700017C081E08093E9008FEF9091E8008150CA
:102A800095FD06C095ED9A95F1F700008111F5CFFF
:102A90008091E80085FF14C040E050E068E070E0FD
:102AA000CE010E9452178091E8008E778093E80053
:102AB00080E1FE01AAE0B4E001900D928A95E1F771
:102AC000DF91CF91089583EC98E00E94BE0780913A
:102AD0006505811109C00E9461180E94BC1880918F
:102AE000E20084608093E20008958FEB98E00E94FA
:102AF000BE071092650508958BEB98E00C94BE0715
:102B0000809108048F5F8093080462E30E94193566
:102B1000911135C01092080480910904882379F13D
:102B200080916605843049F58091E9008F7090911D
:102B3000EC0090FF02C090E801C090E0982B83E089
:102B40008093E9008091EB0080FF14C08091EE003B
:102B500087FF10C08091E80085FF03C01092F1004C
:102B6000F9CF8091E80080FF05C08091E8008E7762
:102B70008093E8009F709093E900109209040895F3
:102B800042E061EC81E00E94FC1742E061EC82E0EF
:102B90000E94FC1742E261EC83E00E94FC1742E1D4
:102BA00061EC84E00C94FC1780916805833009F493
:102BB00055C030F4813071F0823009F48EC0089530
:102BC0008A3009F47AC08B3009F460C0893009F08A
:102BD0009CC020C080916705813A09F096C0809121
:102BE000E800877F8093E80080916B0590916C05E9
:102BF000892B21F060E080E090E003C060E18AE092
:102C000094E070E00E949B178091E8008B7780939E
:102C1000E800089580916705813209F076C08091BF
:102C20006B0590916C05009719F0039709F06DC042
:102C30008091E800877F8093E8008091E80082FD22
:102C400005C0809166058111F8CF5FC08091F100C9
:102C500080931A048091E8008B7753C080916705B8
:102C6000813A09F052C080916B0590916C05892BD7
:102C700009F04BC08091E800877F8093E800809145
:102C8000E80080FFFCCF80914E0136C0809167053F
:102C90008132D9F580916B0590916C05892BA9F54E
:102CA0008091E800877F8093E8000E94101880914F
:102CB000690580934E010C945C21809167058132F7
:102CC00021F58091E800877F8093E8000E9410182A
:102CD00080916A0580931B04089580916705813A6D
:102CE000A1F48091E800877F8093E8008091E8005C
:102CF00080FFFCCF80911B048093F1008091E8005D
:102D00008E778093E8000C94101808950895089524
:102D1000089587EB98E00E94BE070C9488160E94E5
:102D2000462880916405882329F00E94702881112B
:102D30000C943C17089584B7877F84BF88E10FB651
:102D4000F89480936000109260000FBE90E080E8DD
:102D50000FB6F89480936100909361000FBE0E94BB
:102D600086160E947B1B0E9461180E94BC188091ED
:102D7000E20084608093E20087E494E10E94E2270D
:102D80007894809166058430E1F782EA98E00E94A9
:102D9000BE070E947D1B84E491E00E94F81A81E93D
:102DA00098E00E94BE070E948716809166058530D4
:102DB00039F48DE898E00E94BE070E948F16F5CF87
:102DC0000E948D1BF2CF0C94872883EB98E00E9421
:102DD000BE070C94E316292F33272330310599F0D1
:102DE0005CF421303105D9F122303105E9F584E771
:102DF00090E025E931E03CC02132310599F02232E2
:102E00003105E9F031C099278330910568F5FC015F
:102E1000EE0FFF1FE759FE4F20813181FC01EA5977
:102E2000FE4F1AC0643000F5E62FF0E0EE0FFF1FF2
:102E3000E25AFE4F2081318189E090E019C0643070
:102E400098F4E62FF0E0DF01AA0FBB1FAA5ABE4F8D
:102E50002D913C91EE5AFE4F808190E009C082E1B5
:102E600090E029E032E004C080E090E020E030E033
:102E7000FA0131832083089580E189BD82E189BD13
:102E800009B400FEFDCF8091D8008F7D8093D800DB
:102E90008091E00082608093E0008091E00081FDFD
:102EA000FCCF0895CF92DF92EF92FF920F931F9382
:102EB000CF93DF937C018B01EA010E9431188111CD
:102EC00031C0209731F088819981081B190BE80ED9
:102ED000F91EC12CD12C0115110519F18091E800C2
:102EE00085FD14C08091E8008E778093E8002097DC
:102EF00041F0888199818C0D9D1D9983888385E09F
:102F000011C00E943118882331F30CC0F701819160
:102F10007F018093F10001501109FFEFCF1ADF0A02
:102F2000DACF80E0DF91CF911F910F91FF90EF906A
:102F3000DF90CF90089520916D0530916E05261792
:102F4000370748F06115710539F42091E8002E77B4
:102F50002093E80001C0B901FC0120E06115710572
:102F6000B9F180916605882309F440C0853009F4E1
:102F70003FC08091E80083FD3DC08091E80082FF62
:102F800006C08091E80082FF26C080E0089580910D
:102F9000E80080FFE3CF2091F3008091F20090E001
:102FA000922B6115710551F08830910538F421910B
:102FB0002093F100615071090196F3CF21E0089749
:102FC00009F020E08091E8008E778093E800C6CF7A
:102FD0002111C7CFD6CF80916605882339F085307F
:102FE00039F08091E80083FFCCCF04C082E00895DF
:102FF00083E0089581E008958F708093E900EBEEFF
:10300000F0E0808181608083EDEEF0E010826093DB
:10301000EC0040838091EE00881F8827881F089568
:103020008091670587FD05C08091E80080FF0EC094
:1030300012C08091E80082FD05C080916605811173
:10304000F8CF08958091E8008B7708C080916605DD
:103050008111EACF08958091E8008E778093E8008F
:1030600008958091E4009091E50045E62091EC0000
:1030700020FF21C02091E80020FD21C0209166059D
:10308000222389F0253089F02091EB0025FD0FC027
:103090002091E4003091E5002817390739F34150B9
:1030A00041F0C901E3CF82E0089583E0089581E013
:1030B000089584E008952091E80022FFDFCF80E0AA
:1030C00008950E94CD180E94D518E0EEF0E08081AE
:1030D00081608083E8EDF0E080818F77808319BC88
:1030E000A7EDB0E08C918E7F8C9380818F7E808362
:1030F0001092650508950F931F93CF93DF930E945D
:10310000CD180E94D518C8EDD0E088818F778883CC
:1031100088818068888388818F7D888319BC10921C
:103120006605109263051092640500EE10E0F80148
:1031300080818B7F808388818160888342E060E02A
:1031400080E00E94FC17E1EEF0E080818E7F8083BA
:10315000E2EEF0E0808181608083808188608083FE
:10316000F80180818E7F8083888180618883DF91F0
:10317000CF911F910F910895E8EDF0E080818F7E4F
:103180008083E7EDF0E080818160808384E082BF0E
:1031900081E0809365050C947B18E8EDF0E0808178
:1031A0008E7F80831092E20008951092DA001092D0
:1031B000E10008951F920F920FB60F9211242F93E2
:1031C0003F934F935F936F937F938F939F93AF93AF
:1031D000BF93EF93FF938091E10082FF0BC080913A
:1031E000E20082FF07C08091E1008B7F8093E100C5
:1031F0000E9480158091DA0080FF1FC08091D80066
:1032000080FF1BC08091DA008E7F8093DA0080916E
:10321000D90080FF0DC080E189BD82E189BD09B47C
:1032200000FEFDCF81E0809366050E94631505C016
:1032300019BC109266050E9475158091E10080FF0F
:1032400019C08091E20080FF15C08091E2008E7F5E
:103250008093E2008091E20080618093E20080919F
:10326000D80080628093D80019BC85E08093660501
:103270000E9489168091E10084FF30C08091E200B5
:1032800084FF2CC080E189BD82E189BD09B400FEC4
:10329000FDCF8091D8008F7D8093D8008091E10090
:1032A0008F7E8093E1008091E2008F7E8093E20028
:1032B0008091E20081608093E20080916305882321
:1032C00011F084E007C08091E30087FF02C083E033
:1032D00001C081E0809366050E94E5168091E100BF
:1032E00083FF29C08091E20083FF25C08091E10027
:1032F000877F8093E10082E08093660510926305EA
:103300008091E1008E7F8093E1008091E2008E7FCA
:103310008093E2008091E20080618093E20042E0CD
:1033200060E080E00E94FC178091F000886080934C
:10333000F0000E947C15FF91EF91BF91AF919F919A
:103340008F917F916F915F914F913F912F910F904E
:103350000FBE0F901F9018951F920F920FB60F92ED
:1033600011242F933F934F935F936F937F938F938A
:103370009F93AF93BF93CF93EF93FF93C091E900D7
:10338000CF708091EC001092E9008091F000877F6F
:103390008093F00078940E94E8191092E9008091DF
:1033A000F00088608093F000C093E900FF91EF91F6
:1033B000CF91BF91AF919F918F917F916F915F91CD
:1033C0004F913F912F910F900FBE0F901F90189526
:1033D0001F93CF93DF9300D0CDB7DEB7E7E6F5E0DC
:1033E0008091F100819385E0EF36F807C9F70E94DC
:1033F000D4158091E80083FFE7C0209167053091E4
:103400006805832F90E08A30910508F0DDC0FC014B
:10341000E25AFF4F0C944D35203881F0223809F0E4
:10342000D3C080916B058F708093E9008091EB0091
:1034300085FB882780F91092E90004C0809164051B
:10344000811182E09091E800977F9093E80080934B
:10345000F1001092F10092C0822F8D7F09F0B4C06C
:10346000222319F0223061F0AFC0809169058130CC
:1034700009F0AAC0333009F080E08093640528C0C9
:1034800080916905811124C020916B052F7009F48A
:103490009BC02093E9008091EB0080FF19C08091D0
:1034A000EB00333011F4806211C080618093EB0037
:1034B00081E090E0022E01C0880F0A94EAF7809321
:1034C000EA001092EA008091EB0088608093EB00A4
:1034D0001092E9008091E800877F53C0211174C0E9
:1034E000109169051F778091E3008078812B80938C
:1034F000E3008091E800877F8093E8000E94101825
:103500008091E80080FFFCCF8091E3008068809389
:10351000E300112311F083E001C082E0809366058F
:1035200053C02058223008F04FC0AE014F5F5F4FAC
:1035300060916B058091690590916A050E94EB1678
:10354000009709F441C02091E800277F2093E8000C
:10355000BC0189819A810E949B178091E8008B773A
:103560008093E80031C0203879F58091E800877FAA
:103570008093E800809163058093F1008091E800DA
:103580008E778093E8000E9410181EC021111CC085
:10359000909169059230C0F48091E800877F809314
:1035A000E800909363050E941018809163058111D3
:1035B00004C08091E30087FF02C084E001C081E085
:1035C000809366050E94C0158091E80083FF0AC0C1
:1035D0008091E800877F8093E8008091EB00806213
:1035E0008093EB000F900F90DF91CF911F91089582
:1035F00090932104809320040895E0912004F09199
:103600002104309721F00190F081E02D099480E0B1
:103610000895FF920F931F93CF93DF938C01E09156
:103620002004F0912104309799F10280F381E02D7C
:1036300009958091F90482FF2BC080FF04C08FECB4
:1036400098E00E94BE07E80180E1F82E09EC18E03E
:103650008091F90480FF0BC088811F928F931F9384
:103660000F930E9457080F900F900F900F90FA94AD
:103670002196F110EDCF8091F90480FF09C087EC0D
:1036800098E0DF91CF911F910F91FF900C94BE07AE
:10369000DF91CF911F910F91FF90089520911E040B
:1036A00030911F048217930771F090931F04809349
:1036B0001E04E0912004F0912104309721F006804F
:1036C000F781E02D0994089520911C0430911D0488
:1036D0008217930771F090931D0480931C04E0916E
:1036E0002004F0912104309721F00084F185E02D31
:1036F0000994089508950C947A1B0E948B280E94C7
:10370000BA080E94AE2A0E94F0330E9470320E94D2
:10371000712F0E9433310C9412354F925F926F9249
:103720007F929F92AF92BF92CF92DF92EF92FF92E1
:103730000F931F93CF93DF93CDB7DEB729970FB6C3
:10374000F894DEBF0FBECDBF0E94E00833E2A32E87
:1037500034E0B32E00E010E0902E802F0E946B0921
:10376000F501C190D190E190F1905F01C626D72676
:10377000E826F926C114D104E104F104B1F40F5F85
:103780001F4F0032110541F78FEF89838A831B8217
:103790000E9494288160782F9D838C8349815A816F
:1037A0006B818D810E94871C65C02091F90421FFE7
:1037B0000AC06E837F83888799870E9476099985DE
:1037C00088857F816E8120E030E0422F260137011D
:1037D000022E04C076946794579447940A94D2F7C3
:1037E00040FE41C029839A82C12CD12C7601C3941A
:1037F00004C0CC0CDD1CEE1CFF1C4A95D2F7DC018A
:10380000CB018C219D21AE21BF2121E0892B8A2B68
:103810008B2B09F420E02B830E9494288160782F61
:103820009D838C8349815A816B818D810E94871C85
:1038300049815A816B817C818D810E943628F801F3
:10384000EE0FFF1FEE0FFF1FED5DFB4F808191819B
:10385000A281B3818C259D25AE25BF2580839183D0
:10386000A283B38307C02F5F3F4F2032310509F099
:10387000ACCF85CF0E943528109122040E94FD1AFA
:10388000181779F10E94FD1A809322049091F9048F
:1038900092FF0EC090FF0CC01F928F9381EE98E0B4
:1038A0009F938F930E9457080F900F900F900F9047
:1038B0008091220429960FB6F894DEBF0FBECDBFCB
:1038C000DF91CF911F910F91FF90EF90DF90CF90FC
:1038D000BF90AF909F907F906F905F904F900C94AF
:1038E000D23229960FB6F894DEBF0FBECDBFDF915E
:1038F000CF911F910F91FF90EF90DF90CF90BF90ED
:10390000AF909F907F906F905F904F900895CF936E
:10391000DF93CDB7DEB72B970FB6F894DEBF0FBE9F
:10392000CDBF4F83588769877A878B878A859B8528
:10393000892B31F05F3F11F080E003C04F3FE1F78A
:1039400081E0811107C04F81588569857A858B8513
:103950000E943628DE01119686E0FD0111928A95BB
:10396000E9F785E0FE01379601900D928A95E1F71F
:1039700049815A816B817C818D819E810E9428249E
:103980002B960FB6F894DEBF0FBECDBFDF91CF915F
:103990000895CF93C82F882309F4CCC0823859F4F6
:1039A0000E94FD1A81FDC6C089E30E9408260E947C
:1039B000BC2789E30CC0833879F40E94FD1A80FD8E
:1039C000B9C083E50E9408260E94BC2783E50E94B7
:1039D000DD26CF910C94BC27843859F40E94FD1A3F
:1039E00082FDA8C087E40E9408260E94BC2787E4C5
:1039F000EECF8CEF8C0F813A48F48C2F0E94252F4C
:103A0000811198C08C2F0E940826E3CF80E28C0F92
:103A1000883048F4C77081E001C0880FCA95EAF782
:103A20000E948E27D6CF8BE58C0F833078F4C53A71
:103A300029F0C63A31F482E890E005C081E890E0D0
:103A400002C083E890E0CF910C944E1B88E58C0F68
:103A5000853108F06FC0C83A61F1C93A69F1CA3AD4
:103A600071F1CB3A79F1CC3A81F1CD3A89F1CE3A84
:103A700091F1CF3A99F1C13BA1F1C03BA9F1C23B11
:103A8000B1F1C33BB9F1C43BC1F1C53BC9F1C63B80
:103A9000D1F1C73BD9F1C83BE1F1C93BE9F1CA3BE0
:103AA000F1F1CB3BF9F1CC3B09F03FC08AE292E067
:103AB0003EC082EE90E03BC089EE90E038C08AEED6
:103AC00090E035C085EB90E032C086EB90E02FC0EF
:103AD00083EB90E02CC084EB90E029C087EB90E072
:103AE00026C08CEC90E023C08DEC90E020C083E8F1
:103AF00091E01DC08AE891E01AC082E991E017C008
:103B000084E991E014C081E292E011C083E292E086
:103B10000EC084E292E00BC085E292E008C086E22B
:103B200092E005C087E292E002C080E090E0CF9191
:103B30000C94641BCF910895882309F44BC08238FC
:103B400059F40E94FD1A81FF45C089E30E940826AE
:103B50000E94BC2789E30CC0833871F40E94FD1ACF
:103B600080FF38C083E50E9408260E94BC2783E5B9
:103B70000E94DD260C94BC27843859F40E94FD1A5B
:103B800082FF28C087E40E9408260E94BC2787E4A1
:103B9000EFCF9CEF980F913A58F390E2980F98303E
:103BA00050F4877091E001C0990F8A95EAF7892F48
:103BB0000E949427DFCF9BE5980F933020F480E09C
:103BC00090E00C944E1B885A853120F480E090E000
:103BD0000C94641B0895882321F00E948E270C9476
:103BE000BC270895882321F00E9494270C94BC27B9
:103BF0000895CF92DF92EF92FF920F931F93CF938E
:103C0000DF93CDB7DEB728970FB6F894DEBF0FBEAF
:103C1000CDBF8C0185E0F801DE01119601900D9277
:103C20008A95E1F7F80140813181F2802581229562
:103C30002F7083819481892B31F03F3F31F481E0F3
:103C40004F3F19F403C081E001C080E080FD17C33D
:103C500049833A8389819A812F830E94C6259E8356
:103C600088870E94C5250E94ED244E81E42FE295AD
:103C7000EF70F0E0E859FF4F2F8168850C944D35C7
:103C8000842F807F142F1F70882311F01295107FCE
:103C9000FF2059F0112309F447C2812F68870E9441
:103CA0009E270E94BC2768853FC2862F0E949C1DCC
:103CB000112309F4E4C2812F0E94A42728960FB68D
:103CC000F894DEBF0FBECDBFDF91CF911F910F9152
:103CD000FF90EF90DF90CF900C94BC27842F807FD3
:103CE000942F9F70E92E803219F0E29480EFE82241
:103CF000662319F0613001F129C0FF20A9F08E2D53
:103D0000222349F1213039F528960FB6F894DEBF09
:103D10000FBECDBFDF91CF911F910F91FF90EF901C
:103D2000DF90CF900C94AE27222319F0213009F4B4
:103D3000A6C20E94B1272CC0FF20E9F0263008F06F
:103D40009EC20E948B278E2129F022C0FF20F1F015
:103D5000211115C08E2D28960FB6F894DEBF0FBE28
:103D6000CDBFDF91CF911F910F91FF90EF90DF902A
:103D7000CF900C94EB1D253008F081C209C0F801EA
:103D8000858180FFD1C18F708583E4CF2111E0C18F
:103D90008E2D4EC1242F26952695237030E02115B7
:103DA000310521F021303105C9F069C2FF2021F031
:103DB000862F942F937002C080E090E028960FB673
:103DC000F894DEBF0FBECDBFDF91CF911F910F9151
:103DD000FF90EF90DF90CF900C944E1BFF2021F0CE
:103DE000862F942F937002C080E090E028960FB643
:103DF000F894DEBF0FBECDBFDF91CF911F910F9121
:103E0000FF90EF90DF90CF900C94641B842F837011
:103E100009F076C0F11033C2262F2295269527701F
:103E2000220F220F862F8F70C82ED12CE12CF12C5F
:103E3000022E04C0CC0CDD1CEE1CFF1C0A94D2F731
:103E400064FF10C06FE070E080E090E004C0660F97
:103E5000771F881F991F2A95D2F7609570958095D6
:103E6000909503C060E070E0CB01242F2695269545
:103E70002370422F50E042305105D1F043305105BC
:103E800059F16C297D298E299F294130510541F135
:103E900028960FB6F894DEBF0FBECDBFDF91CF914D
:103EA0001F910F91FF90EF90DF90CF900C9402251F
:103EB0006C297D298E299F2928960FB6F894DEBF9C
:103EC0000FBECDBFDF91CF911F910F91FF90EF906B
:103ED000DF90CF900C9414250E940225C701B601F3
:103EE00028960FB6F894DEBF0FBECDBFDF91CF91FD
:103EF0001F910F91FF90EF90DF90CF900C94F024E2
:103F0000FF2019F0842F817001C08695882309F461
:103F1000B6C1262F229526952770220F220F862FB5
:103F20008F70C82ED12CE12CF12C022E04C0CC0CA9
:103F3000DD1CEE1CFF1C0A94D2F764FF10C06FE07A
:103F400070E080E090E004C0660F771F881F991F23
:103F50002A95D2F7609570958095909503C060E0A2
:103F600070E0CB01242F269526952370422F50E038
:103F700042305105D1F04330510559F16C297D296A
:103F80008E299F294130510541F128960FB6F894AA
:103F9000DEBF0FBECDBFDF91CF911F910F91FF907C
:103FA000EF90DF90CF900C94A1256C297D298E296C
:103FB0009F2928960FB6F894DEBF0FBECDBFDF91C4
:103FC000CF911F910F91FF90EF90DF90CF900C94C5
:103FD000B3250E94A125C701B60128960FB6F89413
:103FE000DEBF0FBECDBFDF91CF911F910F91FF902C
:103FF000EF90DF90CF900C948F25603F49F118F43B
:10400000603E48F48CC0623F09F451C0E0F1633F68
:1040100009F461C084C0162F1F70842F8F71FF2098
:1040200021F00E943A25812F96CE0E945525812F9E
:1040300028960FB6F894DEBF0FBECDBFDF91CF91AB
:104040001F910F91FF90EF90DF90CF900C94F21D95
:10405000FF20A9F0253008F012C1842F8F71289617
:104060000FB6F894DEBF0FBECDBFDF91CF911F9189
:104070000F91FF90EF90DF90CF900C947425263035
:1040800008F0FDC0EACFFF20A1F0842F8F712896A1
:104090000FB6F894DEBF0FBECDBFDF91CF911F9159
:1040A0000F91FF90EF90DF90CF900C943A25FF2076
:1040B00061F3842F8F7128960FB6F894DEBF0FBE80
:1040C000CDBFDF91CF911F910F91FF90EF90DF90C7
:1040D000CF900C945525FF2091F0842F8F71289656
:1040E0000FB6F894DEBF0FBECDBFDF91CF911F9109
:1040F0000F91FF90EF90DF90CF900C942B25289696
:104100000FB6F894DEBF0FBECDBFDF91CF911F91E8
:104110000F91FF90EF90DF90CF900C942625FF2019
:10412000A1F0222309F4B1CF862F28960FB6F89478
:10413000DEBF0FBECDBFDF91CF911F910F91FF90DA
:10414000EF90DF90CF900C94C91C222309F4B1CFDB
:10415000862F28960FB6F894DEBF0FBECDBFDF9135
:10416000CF911F910F91FF90EF90DF90CF900C9423
:104170009C1DF11084C0662341F0842F8F70843021
:1041800021F0407F862F8F70482B942F9F70492FEE
:1041900050E04230510509F440C0BCF441155105CE
:1041A00061F14130510509F06AC028960FB6F894C4
:1041B000DEBF0FBECDBFDF91CF911F910F91FF905A
:1041C000EF90DF90CF900C946E3143305105A9F100
:1041D0004430510509F053C0862F28960FB6F89445
:1041E000DEBF0FBECDBFDF91CF911F910F91FF902A
:1041F000EF90DF90CF900C94073228960FB6F8948A
:10420000DEBF0FBECDBFDF91CF911F910F91FF9009
:10421000EF90DF90CF900C94443128960FB6F8942D
:10422000DEBF0FBECDBFDF91CF911F910F91FF90E9
:10423000EF90DF90CF900C949D3128960FB6F894B4
:10424000DEBF0FBECDBFDF91CF911F910F91FF90C9
:10425000EF90DF90CF900C94CF314F70C80128962B
:104260000FB6F894DEBF0FBECDBFDF91CF911F9187
:104270000F91FF90EF90DF90CF900C9466082896F6
:104280000FB6F894DEBF0FBECDBFDF91CF911F9167
:104290000F91FF90EF90DF90CF9008950E94AB2791
:1042A0000E947D270E94BC2780E090E00E944E1B68
:1042B00080E090E00C94641B0E949B270C944E219C
:1042C0000E94C625292F22952F7030E02C30310511
:1042D0004CF42A3031056CF422503109223031057A
:1042E00090F407C02C30310551F02F30310539F0F2
:1042F0000AC0803E10F0803F31F481E0089593FBC6
:10430000882780F9089580E00895CF93DF9300D047
:1043100000D01F92CDB7DEB70F900F900F900F9087
:104320000F90DF91CF910895CF93DF9300D000D00D
:1043300000D0CDB7DEB726960FB6F894DEBF0FBE1D
:10434000CDBFDF91CF9108951F93CF93DF93C0919D
:10435000A30416E08091A404C81799F0D0E01C9F34
:10436000F0011D9FF00D1124EB55FB4F4081518151
:1043700062817381848195810E9494212196C77006
:10438000E9CFDF91CF911F9108954091D5045091CD
:10439000D6046091D7047091D8048091D90490918B
:1043A000DA040C949421CF938091DA0482958F7073
:1043B00009F05FC08091D704882309F45AC0209186
:1043C000A304A091A4046091D5047091D6048091B7
:1043D000D8049091D90431E06F3F09F030E0B32F59
:1043E000C6E02A1709F445C0009721F07F3F21F469
:1043F0004B2F03C041E001C040E030E040FD35C03C
:10440000C29FF001C39FF00D1124EB55FB4F41817A
:1044100074132BC04081641328C04281411125C010
:10442000438154814817590710F441505109481BE2
:10443000590B483C5105C8F48091DA048F708061B3
:104440008093DA0486E0829FF001839FF00D1124AF
:10445000E655FB4F80818F708061808385ED94E00D
:104460000E94F91DCF910C94A4212F5F3F4F27701C
:10447000B8CFCF910895CF92DF92EF92FF920F9332
:104480001F93CF93DF93CDB7DEB762970FB6F89443
:10449000DEBF0FBECDBF8C0185E0F801DE011D96A9
:1044A00001900D928A95E1F7D8014C9111965C919B
:1044B000119712966C9112971396ED90FC901497A9
:1044C0007091D504E091D6042091D8043091D9049C
:1044D0002115310531F0EF3F31F481E07F3F19F4D0
:1044E00003C081E001C080E0B82FB170CB2E80FD09
:1044F0006CC1D090D704DD2009F4F5C0F091DA0446
:10450000E216F30638F0C701821B930B883C910535
:1045100048F09BC0209530952E0D3F1D283C31055D
:1045200008F093C08F2F807F09F052C0E51314C0AC
:10453000741312C0D62E61110FC0FF70F061F0939A
:10454000DA040E94C52185ED94E00E94F91D809156
:10455000DA04F80185836CC1EF2831F05F3F31F454
:1045600081E04F3F19F403C081E001C080E080FD8D
:1045700003C081E0862701C080E0F82FF170FF2E94
:1045800080FF1CC08091A3042091A40436E0821710
:1045900009F428C190E0389FF001399FF00D1124F3
:1045A000EB55FB4F7181571306C07081471303C051
:1045B0007281671303C001968770E9CFD62E6623F8
:1045C00009F436C18091DA0481608093DA0453C023
:1045D000E51308C0741306C0611104C0D801159614
:1045E000FC93AEC04D875E878D859E856A8B0E9449
:1045F00060216A89882329F1D62E662311F1209142
:10460000DA04822F82958F7090E002970CF460C0DC
:104610008091D5049091D60498878F831986FB8664
:10462000EA862C87CE01079651C0E51731F14D87F8
:104630005E878D859E856A8B0E9460216A898111C3
:104640002EC0C8010E94F91DA4C08F2F807F69F77A
:104650007E2DF98AE88A89890E94852185ED94E07A
:104660000E94F91DE5EDF4E086E0DF011D928A95D8
:10467000E9F70E94C521D12CDBC07413D8CF61119A
:10468000D6CFD8011596FC93C8010E94F91DE5ED1F
:10469000F4E086E0DF011D928A95E9F7C9C0D62EC5
:1046A000662379F22091DA04822F82958F7090E050
:1046B000029774F08091D5049091D6049A838983EF
:1046C0001B82FD82EC822E83CE0101960E94F91D91
:1046D00086E0F801A5EDB4E001900D928A95E1F72E
:1046E0000E94D3216FC0E216F30628F0C701821B97
:1046F000930B9C0104C0209530952E0D3F1D283C46
:10470000310508F052C0D62E662309F49ACFE5137E
:104710002CC074132AC08091DA0480FD1DC0982F2C
:1047200092959F70C9F0D80115968C9315979F307C
:1047300039F09F5F9295907F8F70892B15968C939F
:10474000C8010E94F91D86E0F801A5EDB4E00190D2
:104750000D928A95E1F736C086E0F801A5EDB4E048
:1047600001900D928A95E1F763C04D875E878D8534
:104770009E850E946021882379F086E0F801A5EDEE
:10478000B4E001900D928A95E1F70E94D3210E9436
:10479000C521DD24D3944CC08091DA0481608093DC
:1047A000DA04C8010E94F91D43C07E2DF98AE88A07
:1047B00089890E948521E5EDF4E086E0DF011D9204
:1047C0008A95E9F70E94C52133C0662309F439CFE1
:1047D0004D875E878D859E850E946021882309F420
:1047E00030CFCBCF4D875E878D859E850E94C625B5
:1047F000292F22952F7030E0223031052CF49F7044
:1048000041F0811106C00CC0243031052CF49F709A
:1048100049F4805E883020F0C8010E94F91DCF2C39
:10482000DC2C06C0D80115969C91907F91F7F8CFAB
:104830008D2D62960FB6F894DEBF0FBECDBFDF910F
:10484000CF911F910F91FF90EF90DF90CF9008953F
:104850001F93CF93DF93CDB7DEB72C970FB6F894A5
:10486000DEBF0FBECDBF4F83588769877A878B879E
:104870009C87CE0107960E943B228823C1F02F819E
:1048800038858A859B85892B31F03F3F11F080E088
:1048900003C02F3FE1F781E0811147C04F81588568
:1048A00069857A858B859C850E9494213EC086E02F
:1048B000FE013796DE01119601900D928A95E1F77F
:1048C000FF81E8854A855B854115510531F0EF3F51
:1048D00031F481E0FF3F19F403C081E001C080E0C2
:1048E00080FD23C02091A40430E0C90101968770A7
:1048F00099276091A30470E086179707F1F1F98377
:10490000EA835D834C8396E0929FD001939FB00D24
:104910001124AB55BB4FFE01319601900D929A9533
:10492000E1F78093A4040E94A42116E08091A304DF
:104930009091A404891779F1189FC00111248B5517
:104940009B4F0E943B22882331F1E091A3041E9FDC
:10495000F0011124EB55FB4F40815181628173813D
:10496000848195810E9494218091A30490E0019616
:10497000877099278093A304D9CF0E945C2110925D
:10498000A4041092A304E5EDF4E086E0DF011D929B
:104990008A95E9F7CACF2C960FB6F894DEBF0FBE02
:1049A000CDBFDF91CF911F9108956093DF04709385
:1049B000E0048093E1049093E2040E9420330C947D
:1049C0004E216093DB047093DC048093DD049093AC
:1049D000DE040E9478330C944E2108950C94D52463
:1049E0000F931F930091DF041091E0042091E104E4
:1049F0003091E204602B712B822B932B1F910F912E
:104A00000C94D5240F931F930091DF041091E004C0
:104A10002091E1043091E2046023712382239323E7
:104A20001F910F910C94D5240F931F930091DF04D5
:104A30001091E0042091E1043091E2046027712795
:104A4000822793271F910F910C94D52460E070E08A
:104A5000CB010C94E12441E050E060E070E004C040
:104A6000440F551F661F771F8A95D2F7CB01BA01F5
:104A70000C94E12441E050E060E070E004C0440F99
:104A8000551F661F771F8A95D2F78091DB0490919E
:104A9000DC04A091DD04B091DE04482B592B6A2B75
:104AA0007B2BCB01BA010C94E12441E050E060E0A3
:104AB00070E004C0440F551F661F771F8A95D2F718
:104AC00040955095609570958091DB049091DC0441
:104AD000A091DD04B091DE04482359236A237B238F
:104AE000CB01BA010C94E12441E050E060E070E0B9
:104AF00004C0440F551F661F771F8A95D2F7809117
:104B0000DB049091DC04A091DD04B091DE04482721
:104B100059276A277B27CB01BA010C94E1240F9314
:104B20001F930091DB041091DC042091DD0430918F
:104B3000DE04602B712B822B932B1F910F910C9411
:104B4000E1240F931F930091DB041091DC0420916A
:104B5000DD043091DE0460237123822393231F91AF
:104B60000F910C94E1240F931F930091DB0410919B
:104B7000DC042091DD043091DE0460277127822758
:104B800093271F910F910C94E1240895CF92DF9207
:104B9000EF92FF920F931F93CF93DF93EC01C0909E
:104BA000DF04D090E004E090E104F090E204809112
:104BB000DB049091DC04A091DD04B091DE04C82AEE
:104BC000D92AEA2AFB2A0FE110E0B701A601002E3C
:104BD00004C076956795579547950A94D2F740FF9C
:104BE00007C0BE01802F0E94E1298130910539F470
:104BF0000150110950F7BE0180E00E94E129DF91C8
:104C0000CF911F910F91FF90EF90DF90CF9008957B
:104C1000CF92DF92EF92FF920F931F93CF93DF9388
:104C2000F82E80914E01882369F180914F018823ED
:104C300049F18F2D8695869586958F3090F4E09179
:104C40005001F0915101E80FF11D8F2D877021E087
:104C500030E001C0220F8A95EAF78181822B81839F
:104C6000A3C08091F90480FF9FC01F92FF928AE049
:104C700099E09F938F930E9457080F900F900F9089
:104C80000F9092C0E090F6044091F404E09150013E
:104C9000F0915101442309F472C02091F5048E2D46
:104CA0003FEF06E010E0A82FBB27A7FDB095EF016E
:104CB000CA0FDB1F9A819F1509F476C03F3F19F494
:104CC000911101C0382FCD010196C6E0D0E0B801A6
:104CD0000E9439358213E7CF2E1151C03F3F71F446
:104CE000822F992787FD90950196BE010E94393544
:104CF0008093F60441504093F40441C0832F9927D8
:104D000087FD90950196BE010E943935EE24E3940B
:104D1000C6E0D0E0082F112707FD10956F01C00EE7
:104D2000D11ED60112966C916623A1F0432F552710
:104D300047FD5095CF01840F951FDC0112966C93AF
:104D4000D60112961C92CA010196BE010E94393505
:104D5000382F01C0E394C8010196BE010E94393585
:104D60008213D8CF822F992787FD90958E199109AC
:104D7000069666E070E00E9439358093F504209134
:104D8000F504332727FD3095E20FF31FF282C901A6
:104D9000019666E070E00E9439358093F5048091B9
:104DA000F4048F5F8093F404DF91CF911F910F91F2
:104DB000FF90EF90DF90CF900895DF92EF92FF92F7
:104DC0000F931F93CF93DF93482F80914E01882339
:104DD00071F180914F01882351F1842F869586953A
:104DE00086958F3098F4E0915001F0915101E80FD1
:104DF000F11D477021E030E0042E01C0220F0A941B
:104E0000EAF720958181282321836FC08091F904DE
:104E100080FF6BC01F924F938CEE98E09F938F930F
:104E20000E9457080F900F900F900F905EC0E09176
:104E3000F604D090F404DD2009F457C0C09150016D
:104E4000D09151010091F504112707FD109586E0DE
:104E5000E82EF12CF0E0DE01AE0FBF1F9D012E5FAA
:104E60003F4F12968C91841336C0D9011C92DA946C
:104E7000D092F404D11004C01092F6041092F504FC
:104E80002091F504822F992787FD9095059666E07D
:104E900070E00E943935E817F90739F54091F604BA
:104EA000E6E0F0E0822F992787FD90950596BF01F7
:104EB0000E9439359C010596BF010E9439358C0F3F
:104EC0009D1FDC0112968C91811102C02413EACF40
:104ED0002093F5040AC0CF010196B7010E9439352D
:104EE000E82F8017910709F0B5CFDF91CF911F917F
:104EF0000F91FF90EF90DF90089581E090E0E091B6
:104F00005001F0915101E80FF91F10820196803194
:104F10009105A9F708958091F80408959091F804F7
:104F2000982B9093F804089580959091F804982315
:104F30009093F80408951092F80408959091F7045E
:104F4000982B9093F704089580959091F7049823F7
:104F50009093F70408951092F70408958093E30462
:104F600008951092E304089580914F01811103C0C8
:104F70008091F40408950895E0915001F091510159
:104F80008091F8048083E0915001F091510180817B
:104F90009091F704892B80839091E304992361F029
:104FA000E0915001F09151018081892B80830E9412
:104FB000B42781111092E304809150019091510126
:104FC0000C94091B9093ED028093EC020895829556
:104FD000982F9C7C96959695837344E0849F9001CE
:104FE0001124922B892F8A7A86959575990F892B92
:104FF00008951F93CF93DF931F92CDB7DEB79983A8
:105000000E94E727182F9981892F0E94E727212FD7
:1050100030E0322F2227A901482BCA010F90DF91DF
:10502000CF911F910895CF92DF92EF92FF92CF938D
:10503000DF936B017C01CB010E94F927EC01C701D2
:105040000E94F9276C01CE01A0E0B0E07727662727
:10505000E12CF12C6C297D298E299F29DF91CF919C
:10506000FF90EF90DF90CF9008950895CF93DF9356
:1050700000D000D01F92CDB7DEB70F900F900F90E9
:105080000F900F90DF91CF9108950895809166055C
:10509000843019F11092FA0420E488E190E00FB610
:1050A000F894A895809360000FBE209360000E9442
:1050B0008E2F83B7817F846083BF83B7816083BF76
:1050C0007894889583B78E7F83BF88E10FB6F89474
:1050D00080936000109260000FBE089508950895B7
:1050E000CF930E946E280E94E0080E946F28C0E0C3
:1050F0008C2F0E946B09672B682B692B29F4CF5FDB
:10510000C032B1F780E001C081E0CF9108950E94E4
:105110005C210C94333182E084BD93E095BD9AEF1D
:1051200097BD80936E0008952FB7F8948091FB048B
:105130009091FC04A091FD04B091FE042FBF08954E
:105140002FB7F8946091FB047091FC048091FD04EA
:105150009091FE042FBF0895CF92DF92EF92FF92BD
:105160000F931F932FB7F8944091FB045091FC04C8
:105170006091FD047091FE042FBF6A017B01EE2453
:10518000FF248C0120E030E0C016D106E206F306D1
:1051900010F441505109481B590BCA011F910F913E
:1051A000FF90EF90DF90CF9008951F920F920FB66F
:1051B0000F9211248F939F93AF93BF938091FB0421
:1051C0009091FC04A091FD04B091FE040196A11DF4
:1051D000B11D8093FB049093FC04A093FD04B09355
:1051E000FE04BF91AF919F918F910F900FBE0F90D2
:1051F0001F9018950E946118F8942FEF87EA91E6A6
:10520000215080409040E1F700C0000087E090EB23
:10521000DC018093710590937205A0937305B093A0
:1052200074052CE088E190E00FB6F894A89580937F
:1052300060000FBE20936000FFCF8D3B60F4883A82
:1052400018F5853AC0F48430A0F4813009F071C0BB
:1052500081E090E00895883E30F4803E50F48F3B2A
:1052600009F454C066C0803F08F463C090E09065C4
:10527000089590E00895853A09F45EC0863A09F0F1
:105280005EC082E890E40895883A09F45BC0893AE8
:1052900009F45BC08A3A09F45BC08B3A09F45BC03D
:1052A0008C3A09F45BC08D3A09F45BC08E3A09F47C
:1052B0005BC08F3A09F45BC0813B09F45BC0803B63
:1052C00009F45BC0823B09F45BC0833B09F45BC01B
:1052D000843B09F45BC0853B09F45BC0863B09F461
:1052E0005BC0873B09F45BC0883B09F45BC0893B2A
:1052F00009F45BC08A3B09F45BC08B3B09F45BC0DB
:105300008C3B09F05BC08AE296E408950E948B27EB
:1053100080FF0DC00E945C212FEF80E792E02150BA
:1053200080409040E1F700C000000E94FA280E94EF
:105330005C2180E090E0089581E890E4089583E89E
:1053400090E4089582EE94E4089589EE94E408953B
:105350008AEE94E4089585EB94E4089586EB94E452
:10536000089583EB94E4089584EB94E4089587EB27
:1053700094E408958CEC94E408958DEC94E40895FD
:1053800083E895E408958AE895E4089582E995E430
:10539000089584E995E4089581E296E4089583E20E
:1053A00096E4089584E296E4089585E296E40895EB
:1053B00086E296E4089587E296E4089580E094E416
:1053C00008950E94AA08803EA8F4803C00F581332D
:1053D00009F45CC038F4893209F452C08A3209F405
:1053E0005BC05FC08933B1F08238A1F0853309F426
:1053F00041C057C0833E41F128F4803E99F0823E7F
:10540000B9F04FC0863E31F1873E71F14AC00E942B
:10541000AE08089590916F0590FD02C091FF41C0C4
:1054200080EE3FC080916F0580FFFACF89E339C0DD
:1054300080916F0582FF0CC080916F0584FF02C0D0
:1054400080E02FC083EE2DC080916F0582FFF4CFE6
:1054500082EE27C080916F0583FF0AC080916F059F
:1054600084FDEECF87EE1DC080916F0583FFF6CFE0
:1054700086EE17C080916F0585FF06C089E211C0D6
:1054800080916F0585FFFACF85E30BC080916F0592
:1054900086FF06C08AE205C080916F0586FFFACFBD
:1054A00081E30E941D290895BF92CF92DF92EF926F
:1054B000FF920F931F93CF93DF93EC01B12C8B2DB1
:1054C0000E946B096B017C0100E010E0B701A601AE
:1054D000002E04C076956795579547950A94D2F7A4
:1054E00040FF16C0602F7B2D80E00E94E1298C17C1
:1054F0009D0761F0292F207E392F307C11F0203A52
:1055000039F4282F30E02C173D0711F481E00AC050
:105510000F5F1F4F00321105C9F6B39480E2B81235
:10552000CECF80E0DF91CF911F910F91FF90EF9050
:10553000DF90CF90BF900895CF93DF93EC018CE282
:1055400090E00E94542A882329F0CE01DF91CF9168
:105550000C94542A80E0DF91CF910895CF930E945C
:10556000262C811102C00E94012C8FE299E00E943A
:10557000BE07C5E6C15049F00E94E0088FE39CE9F0
:105580000197F1F700C00000F5CF88E299E00E9492
:10559000BE0789E290E00E949C2A811130C18AE214
:1055A00090E00E949C2A882341F00E94202C0E94B7
:1055B000012C0E94AA340E942C3485E090E00E94C5
:1055C0009C2A81110E94FA280E9445280E94312CB1
:1055D0008093F90487E090E00E949C2A8823B1F12F
:1055E0008BE190E00E949C2A882351F09091F9046D
:1055F00091FB882780F921E0822780FB91F924C064
:105600008EE090E00E949C2A882351F09091F9044A
:1056100092FB882780F921E0822780FB92F914C051
:1056200080E190E00E949C2A9091F904882341F047
:1056300093FB882780F921E0822780FB93F904C03F
:10564000892F809580FB90F99093F9048091F9045B
:105650000E94352C0E94432C80936F0580EE90E0D1
:105660000E949C2A882341F080916F05982F909585
:1056700090FB80F980936F0589E390E00E949C2A5B
:10568000882359F090916F0591FB882780F921E0DC
:10569000822780FB91F990936F0582EE90E00E9443
:1056A0009C2A882359F090916F0592FB882780F9F6
:1056B00021E0822780FB92F990936F0586EE90E0BF
:1056C0000E949C2A882359F090916F0593FB8827AC
:1056D00080F921E0822780FB93F990936F0583EE98
:1056E00090E00E949C2A882359F090916F0594FBCA
:1056F000882780F921E0822780FB94F990936F0539
:1057000085E390E00E949C2A882359F090916F05D0
:1057100095FB882780F921E0822780FB95F99093FB
:105720006F0581E390E00E949C2A882359F09091B4
:105730006F0596FB882780F921E0822780FB96F988
:1057400090936F0581E190E00E949C2A882359F094
:1057500090916F0597FB882780F921E0822780FBD5
:1057600097F990936F0580916F050E94472C809167
:105770006F0587FB882780F980934F0187E290E0CF
:105780000E949C2AC82F8EE190E00E949C2A8111E1
:10579000C2608FE190E00E949C2A8111C46080E287
:1057A00090E00E949C2A8111C86081E290E00E94F2
:1057B0009C2A8111C06182E290E00E949C2A8111A2
:1057C000C06283E290E00E949C2A8111C06484E25E
:1057D00090E00E949C2A882311F0C06802C0CC236C
:1057E00029F08C2F0E943E2C6C2F03C00E943A2C73
:1057F000682F70E080E090E0CF910C94EE24CF9180
:1058000008956DEE7EEF80E090E00E947D3560E0CF
:1058100082E090E00E94673560E083E090E00E94C3
:10582000673560E084E090E00E94673560E085E0E5
:1058300090E00E94673560E086E090E00C94673568
:105840006FEF7FEF80E090E00C947D3580E090E09A
:105850000E94613521E08D3E9E4F09F020E0822FAD
:10586000089582E090E00C945335682F82E090E038
:105870000C94673583E090E00C945335682F83E0F7
:1058800090E00C94673584E090E00C945335682FD9
:1058900084E090E00C94673586E090E00C945335FA
:1058A000682F86E090E00C946735CF93C82F1F9245
:1058B0008F932AE439E03F932F930E94570861E0C9
:1058C00070E080E090E004C0660F771F881F991F8A
:1058D000CA95D2F70E94EE240F900F900F900F9070
:1058E000CF910C945C21CF938B3109F409C208F05D
:1058F00049C08E3009F417C200F5873009F4E7C1BA
:10590000A8F4863009F095C28091F904817F8E7FDA
:105910008093F9048FE499E00E94BE078EEE9DE02B
:105920000E94BE0781E08093FF04CFC1883009F454
:105930005BC08B3009F4C5C17CC2813109F461C2FE
:1059400020F4803109F402C274C2863109F418C20D
:10595000893109F06EC282E69DE00E94BE0787E3AE
:105960009DE00E94BE0781E09DE00E94BE0784ED9D
:105970009CE00E94BE078BE49CE00E94BE0780E290
:105980009CE0A1C1853309F44EC268F4873209F462
:105990004AC228F48E3108F44CC28D5147C2893274
:1059A00009F441C246C2833438F48A3308F03DC258
:1059B000883309F486C13DC2833409F434C2883483
:1059C00009F037C20E945C218DED9DE00E94BE0768
:1059D0009FEF23ED80E3915020408040E1F700C02D
:1059E00000000E94FA2871C182EF9DE00E94BE076C
:1059F0008DE79BE00E94BE070E943A2C1F928F9376
:105A00008AE79BE09F938F930E94570888E79BE06B
:105A10000E94BE070E94312CC82F85E69BE00E94A1
:105A2000BE071F92CF9320E63BE03F932F930E9447
:105A300057088EE59BE00E94BE0784E59BE00E942C
:105A4000BE078C2F81701F928F9321E53BE03F931F
:105A50002F930E9457088FE49BE00E94BE0785E4C5
:105A60009BE00E94BE07C1FB882780F91F928F939D
:105A700022E43BE03F932F930E94570880E49BE091
:105A80000E94BE0784E39BE00E94BE07C2FB8827FA
:105A900080F91F928F9321E33BE03F932F930E9465
:105AA00057088FE29BE00E94BE0786E29BE00E94BF
:105AB000BE07C3FBCC27C0F91F92CF9383E29BE0C4
:105AC0009F938F930E94570881E29BE00E94BE073C
:105AD0000E94432CC82F8DE09BE00E94BE071F92BE
