:100000000C9475000C94C4000C94C4000C94C400AF
:100010000C94C4000C94C4000C94C4000C94C40050
:100020000C94C4000C94C4000C944C230C941E2417
:100030000C94D92F0C94C4000C94C4000C94C400EC
:100040000C94C4000C94C4000C94C4000C94C40020
:100050000C94C4000C94C6100C94C4000C94C400FE
:100060000C94C4000C94C4000C94C4000C94C40000
:100070000C94C4000C94C4000C94C4000C94C400F0
:100080000C94C4000C94C4000C94C4000C94C400E0
:100090000C94C4000C94C4000C94C4000C94C400D0
:1000A0000C94C4000C94C4000C94C4007E249E24C0
:1000B00056259E245625E02403255625252538253A
:1000C00094289428C228C228FB281929A42AA42AE3
:1000D0003129A42AB229B229A42AA42AA42A912A1D
:1000E0000003010302030103610E11241FBECFEFC1
:1000F000DAE0DEBFCDBF04B603FE24C08091B105B7
:100100009091B205A091B305B091B4058730904BA2
:10011000A740B04BB9F41092B1051092B2051092FD
:10012000B3051092B40514BE84B7877F84BF88E1FD
:100130000FB6F89480936000109260000FBEE0E06C
:10014000F8E3099513E0A0E0B1E0EAEBFBE602C0BA
:1001500005900D92AA3EB107D9F715E0AAEEB3E0DB
:1001600001C01D92A13BB107E1F710E0CAEED0E05B
:1001700004C02297FE010E948D35C83ED107C9F701
:100180000E943F0F0C94DB350C9400000FB6809555
:100190009AE0F8947BE27A95F1F708F05D9A08F41A
:1001A0005D9886959A95B1F70FBE0895611118C0B4
:1001B000FC0182818823A1F080910A01882329F023
:1001C00010920A01209A289A089581E080930A01EA
:1001D000209A28980E94C12A8BE091E00C947B26FB
:1001E0000895462F50E0672F70E090E00E94FA33A8
:1001F000089590E0805C91090E94F4330895E82FFF
:10020000F0E0EE0FFF1FE052FF4F859194910895AB
:100210001092EA03569A5E980895833011F45E9A1C
:10022000089521E030E001C0220F8A95EAF780911D
:10023000EA03822B8093EA030C94AC0D833011F413
:100240005E98089521E030E001C0220F8A95EAF718
:10025000822F80959091EA0389238093EA030C947E
:10026000AC0D80E00895089580E0089581E0089540
:10027000CF93DF93CDB7DEB728970FB6F894DEBFE4
:100280000FBECDBFE22F29833A834B835C836D83FE
:100290007E838F8398878091FD04E82BE093FD0493
:1002A000FE0133969E01275F3F4F4191443088F015
:1002B000AFEFB4E080E090E05D91511106C0DC0149
:1002C000A350BB4F12964C9304C001968630910503
:1002D00099F7E217F30749F728960FB6F894DEBFAF
:1002E0000FBECDBFDF91CF910895860F911D860F70
:1002F000911DFC01518B408B81E00895860F911D6B
:10030000860F911DFC015687458781E00895860F71
:10031000911D860F911DFC015687458781E0089548
:10032000CF93DF93EC018C819D81DC01ED91FC91F9
:100330000480F581E02D6E8109951F86188A81E081
:100340008A8B1E821B8A1C8A1D8A1E8A1F8A80E055
:10035000DF91CF910895FC018681089581E063309B
:1003600009F080E0089581E0623009F080E00895AE
:10037000860F911D860F911DFC0185859685089538
:10038000FC0187890895EF92FF92CF93DF93FC01E0
:10039000E7012289223029F16787408B8B818370A6
:1003A0008330F9F48A8187FF1CC08E81908D981765
:1003B00008F4808F822F90E0DC01AA0FBB1FA80FEA
:1003C000B91FAE0FBF1F8A818F7017968C93179736
:1003D0008C8118968C93189784E019968C932F5FD4
:1003E000228BDF91CF91FF90EF900895EF92FF92D3
:1003F0000F9302970E94C3010F91FF90EF90089511
:10040000CF93DF93EC018C819D81DC01ED91FC9118
:100410000480F581E02D6E8109951F86188A81E0A0
:100420008A8B1E821B8A1C8A1D8A1E8A1F8A80E074
:10043000DF91CF910895FC018681089581E06330BA
:1004400009F080E0089581E0613009F080E00895CE
:10045000860F911D860F911DFC0185859685089557
:10046000FC0187890895EF92FF92CF93DF93FC01FF
:10047000E7012289223029F16787408B8B818370C5
:100480008330F9F48A8187FF1CC08E81908D981784
:1004900008F4808F822F90E0DC01AA0FBB1FA80F09
:1004A000B91FAE0FBF1F8A818F7017968C93179755
:1004B0008C8118968C93189784E019968C932F5FF3
:1004C000228BDF91CF91FF90EF900895EF92FF92F2
:1004D0000F9302970E9433020F91FF90EF900895BF
:1004E000CF93DF93EC018C819D81DC01ED91FC9138
:1004F0000480F581E02D6E8109951C8A1D8A81E0BA
:100500008F8B1E82188E198E1A8E1B8E1C8E80E089
:10051000DF91CF910895FC018681089581E06330D9
:1005200009F080E0089581E0633009F080E00895EB
:10053000860F911D860F911DFC0180899189089578
:10054000FC01848D0895EF92FF92CF93DF93FC011D
:10055000E7012789233029F1648B458B8B818370D8
:100560008330F9F48A8187FF1CC08E81958D98179E
:1005700008F4858F822F90E0DC01AA0FBB1FA80F23
:10058000B91FAE0FBF1F8A818F7017968C93179774
:100590008C8118968C93189784E019968C932F5F12
:1005A000278BDF91CF91FF90EF900895EF92FF920C
:1005B0000F9302970E94A3020F91FF90EF9008956E
:1005C0000895DF92EF92FF920F931F93CF93DF93E3
:1005D000CDB7DEB762970FB6F894DEBF0FBECDBFC2
:1005E0007C01DC0157968C91882369F00E942C10C5
:1005F000F7010389148925893689601B710B820BE9
:10060000930B97FF02C0D12C38C0F701838590E08F
:100610009A8B898B8E010F5F1F4F9E012F5E3F4F7C
:1006200042856681848195810E94B917D82E8111F7
:1006300018C029893A892330310598F0D7011D96D1
:100640008D919C911E97009761F0DC01ED91FC91DA
:100650000190F081E02D8E010F5F1F4F40E0B70148
:1006600009950E942C10F701208D620F711D811DCC
:10067000911D638B748B858B968B8D2D62960FB637
:10068000F894DEBF0FBECDBFDF91CF911F910F91C8
:10069000FF90EF90DF900895DF92EF92FF920F931B
:1006A0001F93CF93DF93CDB7DEB762970FB6F89461
:1006B000DEBF0FBECDBF7C01DC0157968C91882335
:1006C00069F00E942C10F701038914892589368965
:1006D000601B710B820B930B97FF02C0D12C38C0AB
:1006E000F701838590E09A8B898B8E010F5F1F4FF6
:1006F0009E012F5E3F4F42856681848195810E94D5
:10070000B917D82E811118C029893A8923303105AB
:1007100098F0D7011D968D919C911E97009761F0DE
:10072000DC01ED91FC910190F081E02D8E010F5FD5
:100730001F4F40E0B70109950E942C10F701208D52
:10074000620F711D811D911D638B748B858B968B40
:100750008D2D62960FB6F894DEBF0FBECDBFDF9130
:10076000CF911F910F91FF90EF90DF9008959F928E
:10077000AF92BF92CF92DF92EF92FF920F931F93AF
:10078000CF93DF93CDB7DEB762970FB6F894DEBF95
:100790000FBECDBF7C01DC015C968C91882309F4EF
:1007A0005AC00E942C10F701008D118D228D338DBF
:1007B000601B710B820B930B97FD4DC05701C12C31
:1007C000D12CF701EC0DFD1D838590E09A8B898B70
:1007D0008E010F5F1F4F9E012F5E3F4F4285D70155
:1007E00016966C91169714968D919C9115970E9470
:1007F000B917982E811116C029893A8923303105FD
:1008000088F0F50180899189009761F0DC01ED9114
:10081000FC910190F081E02D8E010F5F1F4F40E0B1
:10082000B7010995B3E0CB0ED11CE2E0AE0EB11CCE
:10083000F6E0CF16D10429F60E942C10D7015D9660
:100840002C91620F711D811D911DF701608F718FB9
:10085000828F938F01C0912C892D62960FB6F894E8
:10086000DEBF0FBECDBFDF91CF911F910F91FF90E3
:10087000EF90DF90CF90BF90AF909F9008953F9200
:100880004F925F926F927F928F929F92AF92BF92A0
:10089000CF92DF92EF92FF920F931F93CF93DF934C
:1008A000CDB7DEB7EB970FB6F894DEBF0FBECDBF66
:1008B0007C01462E342E522EDC011496AD90BC9055
:1008C000159716968C911697811111C158961C9206
:1008D000D501ED91FC910190F081E02D60E0C50122
:1008E00009956C01009711F486ED0BC1FC01808025
:1008F00091808114910409F4FCC03701F7E06F0E78
:10090000711CDC0111967C926E9214965C928E01A1
:10091000065D1F4F28E030E040E060E0F701848191
:1009200095810E94B816182F8111E7C01AA5D6012B
:100930008D929C92D501ED91FC910280F381E02D86
:10094000232D40E0642DC5010995F7018683882396
:1009500009F4D1C099A99087282F40E060E08481F4
:1009600095810E946517982ED501ED91FC91D601D5
:1009700014961C92882361F00480F581E02DD70144
:1009800016966C91C5010995F7011682892DB9C09B
:100990000190F081E02DD70116966C91C501099563
:1009A000009709F4A1CF133108F012E1FC01548241
:1009B00011110FC04BAC512C6EE2A62E61E0B62E89
:1009C0004701F2E08F0E911C6E0181E1C80ED11C2F
:1009D00039C0212F30E08E01065D1F4F40E0D70166
:1009E00016966C91169714968D919C9115970E946E
:1009F000B816182F811171C0DDCFBA82A9829C82EE
:100A00008B821E86188A1F8619A21AA21BA219A6FB
:100A1000DF82CE82D986C8868D818B878A87DD86E4
:100A2000CC868E010F5F1F4F252D40E0F7016681B8
:100A3000848195810E940617D70152968C9182304D
:100A400019F053945410D9CFF7018289823009F0FC
:100A500043C0930142E06681848195810E942F12F8
:100A600068EE73E080E090E00E942E10D7011F96A0
:100A70002C911F9740E016966C91169714968D91C5
:100A80009C9115970E949417182F811126C068EE2B
:100A900073E080E090E00E942E1040E060E0C7012B
:100AA0000E94451B182F811118C020E040E060E033
:100AB000C7010E941B1B84E391E09A838983AE01E6
:100AC0004F5F5F4F60E070E0C7010E94AA1A81E0AB
:100AD000F701878B80E015C011EDD701ED91FC91F6
:100AE0000480F581E02DC7010995812F0AC089EDA9
:100AF00008C087ED06C084ED04C0F60191828082B3
:100B0000ECCFEB960FB6F894DEBF0FBECDBFDF91F2
:100B1000CF911F910F91FF90EF90DF90CF90BF90FA
:100B2000AF909F908F907F906F905F904F903F908D
:100B300008953F924F925F926F927F928F929F9211
:100B4000AF92BF92CF92DF92EF92FF920F931F93DB
:100B5000CF93DF93CDB7DEB7EC970FB6F894DEBF37
:100B60000FBECDBF5C01462E342E522EDC011496F2
:100B7000CD90DC90159716968C911697811131C106
:100B80005D961C92D601ED91FC910190F081E02DD3
:100B900060E0C60109957C01009711F486ED26C13D
:100BA000FC01808091808114910409F41CC13501FD
:100BB000F7E06F0E711CDC0111967C926E92149618
:100BC0005C928E01065D1F4F28E030E040E060E05F
:100BD000F501848195810E94B8168CAF8111F4C013
:100BE0001AA5D7018D929C92D601ED91FC910280BD
:100BF000F381E02D232D40E0642DC6010995F50118
:100C00008683882309F4F1C099A99087282F40E0B2
:100C100060E0848195810E9465178CAFD601ED91CB
:100C2000FC91D70114961C92882359F00480F58119
:100C3000E02DD50116966C91C6010995F501168235
:100C4000CEC00190F081E02DD50116966C91C601C1
:100C50000995009709F4A2CF133108F012E1FC01C5
:100C60005482112389F0212F30E08E01065D1F4F41
:100C700040E0D50116966C91169714968D919C9133
:100C800015970E94B8168CAF8CAD8111A0C0EBAC4B
:100C900082E291E09A838983C50102969C838B83CB
:100CA0001E86188A1F8619A21AA21BA2CE0141967F
:100CB0009F838E83998788872D812B872A879D879D
:100CC0008C8781E089A7F12CFE1481F08E010F5FE3
:100CD0001F4F2F2D40E0F5016681848195810E9490
:100CE0000617D50157968C91833039F4F501878921
:100CF000833029F081ED8CAF6AC0F394E5CF930186
:100D000043E06681848195810E942F128CAF68EE4A
:100D100073E080E090E00E942E10F501248940E00D
:100D20006681848195810E9494178CAF81114FC098
:100D300068EE73E080E090E00E942E10E12CF12C30
:100D400004E311E040E06E2DC5010E94451B8CAF0D
:100D500081113DC020E040E06E2DC5010E941B1BAB
:100D60008CAF1A830983AE014F5F5F4FB701C50196
:100D70000E94AA1A8CAFFFEFEF1AFF0A82E0E81672
:100D8000F10401F780E28CAF8CAD8823C1F090E0D4
:100D9000959587958CAFDE01DC966D01EE24E3948A
:100DA000F12C00E022E040E060E0C5010E94ED1A75
:100DB00069E170E080E090E00E942E10E5CF81E0D4
:100DC000F501848F80E012C0F70191828082D50105
:100DD000ED91FC910480F581E02DC50109958CAD64
:100DE00005C089ED03C087ED01C084EDEC960FB618
:100DF000F894DEBF0FBECDBFDF91CF911F910F9151
:100E0000FF90EF90DF90CF90BF90AF909F908F902A
:100E10007F906F905F904F903F9008953F924F92D8
:100E20005F926F927F928F929F92AF92BF92CF927A
:100E3000DF92EF92FF920F931F93CF93DF93CDB783
:100E4000DEB7EC970FB6F894DEBF0FBECDBF5C01E6
:100E5000462E342E522EDC011496CD90DC90159740
:100E600016968C911697811139C158961C92D6010D
:100E7000ED91FC910190F081E02D60E0C6010995B3
:100E80007C01009711F486ED2EC1FC0180809180D9
:100E90008114910409F424C13501F7E06F0E711C2F
:100EA000DC0111967C926E9214965C928E01065D26
:100EB0001F4F28E030E040E060E0F501848195813B
:100EC0000E94B8168CAF8111FCC01AA5D7018D9273
:100ED0009C92D601ED91FC910280F381E02D232DAF
:100EE00040E0642DC6010995F5018683882309F445
:100EF000F9C099A99087282F40E060E0848195810E
:100F00000E9465178CAFD601ED91FC91D701149624
:100F10001C92882359F00480F581E02DD5011696A6
:100F20006C91C6010995F5011682D6C00190F08139
:100F3000E02DD50116966C91C6010995009709F42C
:100F4000A2CF133108F012E1FC015482112389F081
:100F5000212F30E08E01065D1F4F40E0D50116962F
:100F60006C91169714968D919C9115970E94B816C6
:100F70008CAF8CAD8111A8C04BAC512CB8E2CB2EFC
:100F8000B1E0DB2E4501B2E08B0E911C7E01E1E168
:100F9000EE0EF11C541449F1DA82C9829C828B82D4
:100FA0001E86188A1F8619A21AA21BA219A6FF82E2
:100FB000EE82F986E8868D818B878A87FD86EC86AE
:100FC0008E010F5F1F4F252D40E0D50116966C91C5
:100FD000169714968D919C9115970E940617F5010E
:100FE0008289823011F05394D5CFD50152968C91DD
:100FF000823019F081ED8CAF67C0930142E0F501BA
:101000006681848195810E942F128CAF68EE73E017
:1010100080E090E00E942E10D5011F962C911F9722
:1010200040E016966C91169714968D919C911597A9
:101030000E9494178CAF811147C068EE73E080E086
:1010400090E00E942E1040E060E0C5010E94451B28
:101050008CAF811139C020E040E060E0C5010E9402
:101060001B1B8CAF84E391E09A838983AE014F5FB1
:101070005F4F60E070E0C5010E94AA1A80E28CAF69
:101080008CAD8823C1F090E0959587958CAFFE01DB
:10109000FC966F01EE24E394F12C00E022E040E0A6
:1010A00060E0C5010E94ED1A69E170E080E090E027
:1010B0000E942E10E5CF81E0D50157968C9380E0F9
:1010C00012C0F70191828082D501ED91FC910480DC
:1010D000F581E02DC50109958CAD05C089ED03C0F2
:1010E00087ED01C084EDEC960FB6F894DEBF0FBE1D
:1010F000CDBFDF91CF911F910F91FF90EF90DF90C7
:10110000CF90BF90AF909F908F907F906F905F90A7
:101110004F903F9008959C01E0E0F0E0D901AA5A79
:10112000BF4F4D915C91452B49F4BB96EE0FFF1FCD
:10113000E80FF91F7183608380E0089531962E5F78
:101140003F4FE031F10551F783ED0895CF93DF93E1
:10115000FC01DA018281882319F08130D9F01FC0A7
:101160003483238381E0828315C02D913C911197B4
:10117000232BA9F0019794838383EB0188819981C4
:101180000196998388838D919C911197019711966F
:101190009C938E9383819481009739F7128281E02A
:1011A00023813481232B09F080E0DF91CF910895D2
:1011B0002F923F924F925F926F927F928F929F9267
:1011C000AF92BF92CF92DF92EF92FF920F931F9355
:1011D000CF93DF9300D000D0CDB7DEB76C017C8316
:1011E0006B835A8349834C0180E1880E911C560120
:1011F000A7E0AA0EB11C332433942601BBE04B0EAA
:10120000511C3601E2E16E0E711C33E0232E12E018
:101210008B819C81892B09F4F5C0D60190968C9125
:10122000823069F128F4882349F0813081F0F0CFD1
:10123000833049F1843009F457C0EACFF6011483B2
:1012400085819681908787831287118730A2AE01AE
:101250004D5F5F4FBE016F5F7F4FC5010E94441F0E
:10126000882309F4CFC0D6011596ED91FC9116970D
:10127000808191968C939197818192968C93F601BF
:101280007682658220A2D60192968C91843069F094
:1012900018F4823061F013C0853071F0813279F436
:1012A000F60181A1825084830AC0F60113A2E7E00F
:1012B000D6011496EC9303C0D60114968C93D601F4
:1012C00015968D919C91169718969C938E931797CF
:1012D00014968C9114971A968C931A9719968C934E
:1012E0001997E4E09096EC93D60192968C91843015
:1012F000B1F0853009F442C0823009F06BC0AE0114
:101300004D5F5F4FBE016F5F7F4FC5010E94441F5D
:10131000882309F477C0F601858984A36BC0AE01E8
:101320004D5F5F4FBE016F5F7F4FC5010E94441F3D
:10133000882309F467C0D60155968C915597833060
:1013400009F058C056968C915697813009F052C0DA
:1013500098969C91989757968C91992321F0882381
:1013600009F448C003C0823009F044C0F60133A23A
:10137000928996A3938997A385A33CC0AE014D5F44
:101380005F4FBE016F5F7F4FC5010E94441F8823DE
:10139000C9F1D60193968C919397882359F11296AF
:1013A0008D919C911397009729F1DC01ED91FC91AF
:1013B0000190F081E02D7401D60195960C919597DE
:1013C00097962C91979796964C91969794966C91A8
:1013D000099510C0F60121A130E022503109AE017B
:1013E0004D5F5F4FBE016F5F7F4FC2010E94A60835
:1013F000882341F0D60116969C928E92159790966E
:101400001C9206CF0F900F900F900F90DF91CF910D
:101410001F910F91FF90EF90DF90CF90BF90AF9012
:101420009F908F907F906F905F904F903F902F9004
:1014300008952F923F924F925F926F927F928F9278
:101440009F92AF92BF92CF92DF92EF92FF920F9353
:101450001F93CF93DF9300D000D0CDB7DEB76C01E0
:101460007C836B835A8349834C0180E1880E911CF5
:101470005601A7E0AA0EB11C332433942601BBE029
:101480004B0E511C3601E2E16E0E711C43E0242E1E
:1014900012E08B819C81892B09F4F5C0D6019096CE
:1014A0008C91823069F128F4882349F0813081F0F1
:1014B000F0CF833049F1843009F457C0EACFF60108
:1014C000148385819681908787831287118730A244
:1014D000AE014D5F5F4FBE016F5F7F4FC5010E9440
:1014E000441F882309F4CFC0D6011596ED91FC91D5
:1014F0001697808191968C939197818192968C9387
:10150000F6017682658220A2D60192968C91843073
:1015100069F018F4823061F013C0853071F08132C7
:1015200079F4F60181A1825084830AC0F60113A2E6
:10153000E7E0D6011496EC9303C0D60114968C9381
:10154000D60115968D919C91169718969C938E9323
:10155000179714968C9114971A968C931A9719963C
:101560008C931997E4E09096EC93D60192968C9127
:101570008430B1F0853009F442C0823009F06BC08C
:10158000AE014D5F5F4FBE016F5F7F4FC5010E948F
:10159000441F882309F477C0F601858984A36BC0B2
:1015A000AE014D5F5F4FBE016F5F7F4FC5010E946F
:1015B000441F882309F467C0D60155968C9155972E
:1015C000833009F058C056968C915697813009F0B7
:1015D00052C098969C91989757968C91992321F098
:1015E000882309F448C003C0813009F044C0F601E3
:1015F00033A2928996A3938997A385A33CC0AE0199
:101600004D5F5F4FBE016F5F7F4FC5010E94441F5A
:101610008823C9F1D60193968C919397882359F129
:1016200012968D919C911397009729F1DC01ED9111
:10163000FC910190F081E02D7401D60195960C91FA
:10164000959797962C91979796964C9196979496F6
:101650006C91099510C0F60121A130E022503109AA
:10166000AE014D5F5F4FBE016F5F7F4FC2010E94B1
:10167000A608882341F0D60116969C928E92159763
:1016800090961C9206CF0F900F900F900F90DF91C5
:10169000CF911F910F91FF90EF90DF90CF90BF906F
:1016A000AF909F908F907F906F905F904F903F9002
:1016B0002F9008952F923F924F925F926F927F9258
:1016C0008F929F92AF92BF92CF92DF92EF92FF9252
:1016D0000F931F93CF93DF9300D000D0CDB7DEB729
:1016E0006C017C836B835A8349834C0180E1880EB3
:1016F000911C5601A7E0AA0EB11C33243394260195
:10170000BBE04B0E511C3601E2E16E0E711C53E042
:10171000252E12E08B819C81892B09F4F5C0D6011E
:1017200090968C91823069F128F4882349F08130B9
:1017300081F0F0CF833049F1843009F457C0EACF0B
:10174000F60114838581968190878783128711879C
:1017500030A2AE014D5F5F4FBE016F5F7F4FC5018D
:101760000E94441F882309F4CFC0D6011596ED913D
:10177000FC911697808191968C9391978181929696
:101780008C93F6017682658220A2D60192968C9186
:10179000843069F018F4823061F013C0853071F044
:1017A000813279F4F60181A1825084830AC0F60166
:1017B00013A2E7E0D6011496EC9303C0D601149669
:1017C0008C93D60115968D919C91169718969C93A3
:1017D0008E93179714968C9114971A968C931A9748
:1017E00019968C931997E4E09096EC93D601929613
:1017F0008C918430B1F0853009F442C0823009F018
:101800006BC0AE014D5F5F4FBE016F5F7F4FC50183
:101810000E94441F882309F477C0F601858984A3B8
:101820006BC0AE014D5F5F4FBE016F5F7F4FC50163
:101830000E94441F882309F467C0D60155968C91F5
:101840005597833009F058C056968C915697813041
:1018500009F052C098969C91989757968C9199232D
:1018600021F0882309F448C003C0833009F044C044
:10187000F60133A2928996A3938997A385A33CC0CE
:10188000AE014D5F5F4FBE016F5F7F4FC5010E948C
:10189000441F8823C9F1D60193968C91939788238E
:1018A00059F112968D919C911397009729F1DC01C3
:1018B000ED91FC910190F081E02D7401D601959697
:1018C0000C91959797962C91979796964C91969701
:1018D00094966C91099510C0F60121A130E0225038
:1018E0003109AE014D5F5F4FBE016F5F7F4FC20197
:1018F0000E94A608882341F0D60116969C928E92EB
:10190000159790961C9206CF0F900F900F900F9006
:10191000DF91CF911F910F91FF90EF90DF90CF90CB
:10192000BF90AF909F908F907F906F905F904F90FF
:101930003F902F90089580E1089580E10895CF931E
:10194000DF932091290430912A044091EF035091B4
:10195000F00380911D0490911E042417350739F47B
:101960004091ED035091EE0384179507B9F1309340
:10197000F0032093EF039093EE038093ED03EDEFDC
:10198000F4E088E0DF011D928A95E9F720912104B7
:101990003091220440912304509124046091250445
:1019A0007091260480912704909128040E943801A8
:1019B0002091150430911604409117045091180499
:1019C0006091190470911A0480911B0490911C0479
:1019D0000E94380181E08093FB0402C01092FB0456
:1019E00080910405893F10F0109204058091F8035E
:1019F0009091F9032091EB033091EC0328173907FC
:101A000091F19093EC038093EB039091F503809117
:101A1000F603911102C0882381F0D0919405C09102
:101A20009505909394058093950583E995E00E9430
:101A30009C26D0939405C09395058091F70381303F
:101A400011F489EF03C08F3F19F48AEF80930405E6
:101A50008091F4039091FC04981729F08093FC0482
:101A600081E08093FB040E948510EC0184E894E0FF
:101A70000E94B119CE010E949D1081E0DF91CF91AB
:101A80000895282F30E0A90164E0440F551F6A959E
:101A9000E1F7CA01805E9109089730F48091FD0456
:101AA000882311F090E002C080E090E0405F51098F
:101AB0004031510558F44091FC04442339F04F71F2
:101AC00060E1469FA0011124842B952BEFEFF4E0F9
:101AD00041E050E06191643080F0A62FA295AF7094
:101AE000B0E02A173B0749F46F70DA0102C0AA0F71
:101AF000BB1F6A95E2F78A2B9B2BB5E0E530FB070D
:101B000049F708950895CF92DF92EF92FF920F93D5
:101B1000CF93DF931F92CDB7DEB78983CE010196B5
:101B20006C01EE24E394F12C00E022E040E060E060
:101B300084E494E00E94ED1A22E040E060E08BE251
:101B400094E00E94ED1A0F90DF91CF910F91FF90DA
:101B5000EF90DF90CF9008950C94830D2E9A089506
:101B60002E988EBD0DB407FEFDCF1EBC0DB407FE32
:101B7000FDCF0E94AE0D8EB508952E9882608EBD69
:101B80000DB407FEFDCF6EBD0DB407FEFDCF0C9466
:101B9000AE0D88EF0E94B00D807C8034A1F018F467
:101BA000882301F10895803819F0803CB9F0089538
:101BB00088ED0E94B00D81FD0BC069EC88ED0E949C
:101BC000BD0D82E00CC088ED0E94B00D81FDF5CF07
:101BD0006BEC88ED0E94BD0D83E001C081E0809335
:101BE000F103089561ED88ED0E94BD0D1092F1039F
:101BF00008950F931F93CF93DF938C01269A0E9431
:101C0000AE0D219A229A2398209A80E58CBD81E01E
:101C10008DBD259868E188E80E94BD0D60E288E7E7
:101C20000E94BD0D60E088E70E94BD0DC0E0D0E0DD
:101C300088E60E94B00D219680FD06C0CF3F8FEF51
:101C4000D807B1F78FEF1DC061EC88ED0E94BD0D84
:101C500060E680ED0E94BD0D64E088EE0E94BD0D3F
:101C600088EE0E94B00D82FFFBCFC8010E94C90D13
:101C700060E288EC0E94BD0D61E080E80E94BD0D2D
:101C800080E0DF91CF911F910F91089584E894E057
:101C90000E94F90D8FE194E09093550480935404D1
:101CA00082EF93E0909357048093560423E134E04D
:101CB00030933904209338049093080480930704E8
:101CC0000895EF92FF920F931F93CF93DF9384E8D1
:101CD00094E00E94EB1064E874E083E794E00E94D3
:101CE000D31D64E874E082E694E00E94D31DC4E84A
:101CF000D4E0D0934904C09348048AE391E09093E0
:101D000045048093440488E591E0909347048093D0
:101D1000460410925C0410925D0410925E041092CE
:101D20005F041092600410924B04E8E0EE2EE09203
:101D30004C04FCE3FF2EF0924D0410924E041092DE
:101D40004F0414E010935004109251041092520466
:101D50001093530401E000935B0410925A04109214
:101D60005804109255041092540410925704109283
:101D7000560464E474E0CE010E948B08D0933004D2
:101D8000C0932F048EE591E090932C0480932B0454
:101D90008CE791E090932E0480932D0410923E04E2
:101DA00010923F0410924004109241041092420499
:101DB00010923204E0923304F0923404109235040D
:101DC000109236041093370400933D0410923C04A3
:101DD00010923A0410923904109238046BE274E0C5
:101DE000CE010E948B0882E192E0909320048093C0
:101DF0001F049093140480931304D093FF03C093A3
:101E0000FE0382E891E09093FB038093FA0380EA5B
:101E100091E09093FD038093FC0310920D041092C7
:101E20000E0410920F0410921004109211041092DC
:101E30000104E0920204F092030410920404109250
:101E400005041093060400930C0410920B041092E6
:101E5000090410920804109207046AEF73E0CE019F
:101E60000E948B0888E192E09093F3038093F20341
:101E7000DF91CF911F910F91FF90EF90089584B75C
:101E8000877F84BF88E10FB6F8948093600010923A
:101E900060000FBE90E080E80FB6F8948093610078
:101EA000909361000FBE85B7806885BF85B7806855
:101EB00085BF0E94D3220E942E238091E20084607D
:101EC0008093E20078948FEF9091A8058150943030
:101ED00041F0EFE7FEE33197F1F700C00000811118
:101EE000F3CF0E94E20F0E94EB0F0E94BD260E94DA
:101EF000C7260E94EF0FFBCF809105050895089536
:101F0000CF93DF93855B91098633910540F4FC0103
:101F1000EE0FFF1FEE55FE4FD081C18102C0D0E011
:101F2000C0E08DEF0E94C60083E00E94C60083E0FF
:101F30000E94C6008D2F0E94C6008C2FDF91CF918A
:101F40000C94C600CF93DF93EC018DEF0E94C60086
:101F500085E00E94C60082E00E94C60088810E943F
:101F6000C60089810E94C6008A810E94C6008B81BA
:101F7000DF91CF910C94C600CF93DF93EC018DEFEE
:101F80000E94C60089E00E94C60081E00E94C6004F
:101F900088810E94C60080E00E94C6008A810E945B
:101FA000C6008B810E94C6008C810E94C6008D8174
:101FB0000E94C6008E810E94C6008F81DF91CF9162
:101FC0000C94C60085B7806885BF85B7806885BFDB
:101FD000559A279A08958BE091E00C947B26809186
:101FE0000A0181110BC00E9480268050914031F07F
:101FF0000E94C12A80E091E00C947B2608950F9303
:102000001F93CF93DF93EC01DC01129688E0F80177
:1020100001900D928A95E1F70E942C107B876A87C8
:10202000DF91CF911F910F9108950F931F93CF933D
:10203000DF93EC01F80140815181628173814A8311
:102040005B836C837D830E942C107F836E83DF9182
:10205000CF911F910F9108950C9491108F929F92A0
:10206000AF92BF92CF92DF92EF92FF920E945E34C6
:102070004B015C0120E030E04AE755E40E94143552
:102080006B017C0120E030E040E85FE30E942934EE
:1020900087FD24C020E03FEF4FE757E4C701B601BA
:1020A0000E9410351816ACF420E030E040E251E414
:1020B000C501B4010E9414350E94323420E931E098
:1020C0006115710581F0C9010197F1F7615071093E
:1020D000F7CFC701B6010E94323402C061E070E060
:1020E000CB010197F1F7FF90EF90DF90CF90BF9079
:1020F000AF909F908F90089582E084BD93E095BD4E
:102100009AEF97BD80936E0008952FB7F894809151
:10211000060590910705A0910805B09109052FBF0C
:1021200008952FB7F8946091060570910705809186
:102130000805909109052FBF0895CF92DF92EF9285
:10214000FF920F931F932FB7F8944091060550917B
:10215000070560910805709109052FBF6A017B0191
:10216000EE24FF248C0120E030E0C016D106E20608
:10217000F30610F441505109481B590BCA011F9135
:102180000F91FF90EF90DF90CF9008951F920F92E4
:102190000FB60F9211248F939F93AF93BF938091AB
:1021A000060590910705A0910805B09109050196D3
:1021B000A11DB11D8093060590930705A093080506
:1021C000B0930905BF91AF919F918F910F900FBE72
:1021D0000F901F901895FC018EE192E0918380830F
:1021E0001582108681E0818712869F012E5F3F4F06
:1021F00037832683128288E083838CE3848380E0A4
:1022000090E041E0DF01A80FB91F1D961C921D97B9
:102210001E964C931E971F961C921F971C963C93DC
:102220002E931B9705968B34910561F7EA58FF4F63
:10223000108281E180930E050895CF92DF92EF9294
:10224000FF920F931F93CF93DF931F92CDB7DEB70B
:102250007C016623B1F18C01C12CD12CF801EA5A22
:10226000FF4F80819181009719F1DC01ED91FC9184
:102270000084F185E02D698309956981861318C072
:10228000F601BB96EE0FFF1FEE0DFF1D80819181C1
:10229000DC01ED91FC910480F581E02D0F90DF9140
:1022A000CF911F910F91FF90EF90DF90CF90099405
:1022B000BFEFCB1ADB0A0E5F1F4FE0E1CE16D10451
:1022C00069F680E00F90DF91CF911F910F91FF9001
:1022D000EF90DF90CF90089520E030E041E0FC01E6
:1022E000E20FF31F5585561739F04F5F2B5F3F4FB5
:1022F0004031A9F780E00895842F0895EF92FF926E
:102300001F93CF93DF9300D0CDB7DEB77C01162F9C
:1023100067FD5FC0283008F05CC0442331F0DC0169
:1023200015968C91873009F454C060E0C7012A8368
:1023300049830E946C112A814981882309F449C08C
:10234000E82FF0E0111123C085E08E9FD0018F9F10
:10235000B00D1124AE0DBF1D442359F081E4189631
:102360008C93D70115968C9115978F5F15968C934A
:1023700003C081E018968C9385E08E9FD0018F9FDB
:10238000B00D1124AE0DBF1D18968C9123C0612F86
:102390006770660F660F660F442361F06064D701B3
:1023A00015968C9115978F5F15968C938770687F23
:1023B000682B03C02770687B622B85E08E9FD0015D
:1023C0008F9FB00D1124AE0DBF1D18966C93862FF4
:1023D00001C080E00F900F90DF91CF911F91FF908F
:1023E000EF900895CF93DF93EC01611102C0069640
:1023F0000FC00E946C11882349F09E0145E0849F24
:10240000200D311D1124C901069602C080E090E024
:10241000DF91CF910895CF93DF931F92CDB7DEB7B1
:1024200049830E94F2114981009789F0DC01ED9106
:10243000FC911197309759F013969C9180E0891781
:1024400031F02081241731F033968F5FF8CF80E090
:1024500090E001C0CF010F90DF91CF910895EF92EE
:10246000FF921F93CF93DF931F92CDB7DEB7162F46
:1024700079012115310569F049830E94F211FC01AF
:102480004981009741F01283F182E082438380E02A
:1024900003C088ED01C086ED0F90DF91CF911F91B1
:1024A000FF90EF9008952E980895CF93DF931F9299
:1024B000CDB7DEB789830E94531289818EBD0DB4DA
:1024C00007FEFDCF1EBC0DB407FEFDCF0E94AE0D72
:1024D0008EB50F90DF91CF910895CF93DF9300D009
:1024E000CDB7DEB76A8389830E94531289818260E7
:1024F0008EBD6A810DB407FEFDCF6EBD0DB407FE23
:10250000FDCF0F900F90DF91CF910C94AE0D8F9275
:102510009F92BF92CF92DF92EF92FF920F931F9301
:10252000CF93DF931F92CDB7DEB74C01B62E690172
:1025300049830E94F2117C014981009709F443C04C
:10254000FC0180819181892B09F43FC06B2DC4016E
:102550000E940B12F601918380830097C1F1FC0168
:10256000228126952695822F90E0409764F441E0E1
:1025700050E060E070E004C0440F551F661F771FF5
:102580002A95D2F702C040E050E841505109F801C5
:10259000518340836B2D80EE0E946D1288ED0E9466
:1025A0005512F7019481992339F0F401EA58FF4F4D
:1025B00060816260682B02C0682F697F88ED0E948D
:1025C0006D1280E005C086ED03C087ED01C08BED84
:1025D0000F90DF91CF911F910F91FF90EF90DF90BF
:1025E000CF90BF909F908F9008958F929F92AF92BF
:1025F000BF92CF92DF92EF92FF920F931F93CF93F0
:10260000DF931F92CDB7DEB7A62E890149830E94C2
:102610002C106B017C0188E8C80E83E1D81EE11CF8
:10262000F11C812C912CB12C20E04981A42A298312
:102630000E942C106C197D098E099F09298197FF32
:102640002DC06A2D80EF0E946D120E942C106C1913
:102650007D098E099F0997FF09C088EC0E945512D9
:1026600087FFF3CF60E888EC0E946D1288EF0E942C
:102670005512282F2F70243019F02E3059F00EC02B
:10268000EFEF8E1A9E0A0115110589F28016910648
:1026900071F604C0B394F3E0BF12C9CF822F0F903C
:1026A000DF91CF911F910F91FF90EF90DF90CF902E
:1026B000BF90AF909F908F9008959F92AF92BF92DE
:1026C000CF92DF92EF92FF920F931F93CF93DF93FE
:1026D0007C01B42E122FAA24A394DC01A60FB11DF5
:1026E000A60FB11D6D0186E5C80ED11CC42FD0E028
:1026F000AB96CC0FDD1FCE0DDF1DD6018D919C91C9
:10270000DC01ED91FC910280F381E02D202F412F1F
:102710006B2D0995803EC1F4B1100BC061E088EECD
:102720000E946D1266E670E080E090E00E942E103C
:1027300015C088819981DC01ED91FC910284F385BB
:10274000E02D612F09950AC08D3031F48FEF8A0D8D
:10275000833008F042C017C0811142C0F601808169
:102760009181DC01ED91FC910190F081E02D202F11
:10277000412F6B2D0995982EBDE08B130CC08FEF68
:102780008A0D833050F464E670E080E090E00E94AF
:102790002E10A394B2CF882311F1B1100BC061E0C9
:1027A00088EE0E946D1266E670E080E090E00E9484
:1027B0002E1011C0EB2DF0E0BB96EE0FFF1FEE0DBB
:1027C000FF1D80819181DC01ED91FC910284F385F4
:1027D000E02D612F0995892D03C08DE001C080E0B7
:1027E000DF91CF911F910F91FF90EF90DF90CF90ED
:1027F000BF90AF909F9008950F931F93CF93DF9357
:1028000000D0CDB7DEB78A016A8389830E94531254
:10281000898182608EBDF8016A81862F882339F014
:102820000DB407FEFDCF91919EBD8150F7CF060FED
:10283000111D0DB407FEFDCF0E94AE0DC8010F9013
:102840000F90DF91CF911F910F9108952F923F929A
:102850004F925F926F927F928F929F92AF92BF92B0
:10286000CF92DF92EF92FF920F931F93CF93DF935C
:1028700000D000D01F92CDB7DEB77D836C835A01A4
:102880006901FB0121808FEF820D803408F06FC059
:102890000E942C102B013C01F8E84F0EF3E15F1E63
:1028A000611C711CEC81FD81828180FF02C060E8A7
:1028B00001C060E488EE0E946D1220E0312CC1144A
:1028C000D10409F444C076012C143D0408F47101CC
:1028D000EA82A8016E2D80E10E94FC136E2D88E330
:1028E0000E946D12EC81FD816081606280EF0E9428
:1028F0006D1288EC0E94551287FFFBCF60E888ECD0
:102900000E946D1288EF0E945512282F2F70812C83
:10291000912C1982222309F46BC02B830E942C1066
:1029200064197509860997092B8197FF61C02630C4
:1029300001F12E3009F456C0243049F4FFEF8F1A0C
:102940009F0AA114B10459F18A149B0441F588EF40
:102950002B830E94551285FB882780F9EC81FD812D
:10296000928180FB90F992832B81822F46C08AED61
:1029700044C088EF0E94551285FB882780F991E0BA
:102980008927EC81FD81928180FB90F9928390FFF1
:1029900002C060E801C060E488EE0E946D1260E051
:1029A00088E30E946D12F801608180E10E946D123F
:1029B0006A8188E30E946D12EC81FD816081606212
:1029C00080EF0E946D1288EC0E94551287FFFBCFAA
:1029D00060E888EC0E946D1288EF0E945512282F43
:1029E0002F7098CF89818F5F89838330C1F6AFCFF5
:1029F000CE18DF080E0D1F1D62CF0F900F900F90A5
:102A00000F900F90DF91CF911F910F91FF90EF905A
:102A1000DF90CF90BF90AF909F908F907F906F90FE
:102A20005F904F903F902F9008952F923F924F923A
:102A30005F926F927F928F929F92AF92BF92CF924E
:102A4000DF92EF92FF920F931F93CF93DF9300D00B
:102A500000D0CDB7DEB75C017C836B834A0179017E
:102A6000F901C080D180FB014180F90111821082FF
:102A7000FB01828181FF02C060E201C060E188EE5B
:102A80000E946D123C2C9401EB81FC81408160E03E
:102A9000C5010E94F512582EF6E08F1316C088EF7C
:102AA0000E9455128295817091E08927EB81FC810B
:102AB000928180FB91F9928391FF02C060E201C094
:102AC00060E188EE0E946D12DECF81115AC088EC61
:102AD0000E94551282FF53C080E30E945512282E97
:102AE000282F30E0C216D30608F4232CF7012081EA
:102AF0003181622C712CA601421B530B57FF02C07F
:102B000040E050E09301461557050CF49A012983E3
:102B10003A830E945312F8E0FEBD3A8129810DB438
:102B200007FEFDCFF801822F800F8E1739F01EBCF3
:102B30000DB407FEFDCF4EB54193F7CF020F131F23
:102B40000E94AE0D64E088EC0E946D12F7012081B6
:102B50003181260D371D31832083241420F02C155C
:102B60003D0508F490CF88EF0E9455128295817040
:102B7000EB81FC81928180FB91F9928302C030EF5E
:102B8000532E852D0F900F900F900F90DF91CF91C6
:102B90001F910F91FF90EF90DF90CF90BF90AF907B
:102BA0009F908F907F906F905F904F903F902F906D
:102BB00008952F923F924F925F926F927F928F92E1
:102BC0009F92AF92BF92CF92DF92EF92FF920F93BC
:102BD0001F93CF93DF93CDB7DEB762970FB6F8940C
:102BE000DEBF0FBECDBF3C01542ED22E402E5E2D37
:102BF0002FA038A4E9A4FAA4188A1F861E861D8671
:102C00008E01035F1F4F9E01215F3F4F598B0E9432
:102C100087125989811193C0D9824A825B83CC8201
:102C2000BE82AD8298868F82AE014F5F5F4F68E0B3
:102C300080E20E94FC132D853E85452D60E1C30195
:102C40000E94F512182F811179C0BD2CBB1CBB242A
:102C5000BB1CE114F10409F465C0EF85F889828199
:102C6000BB2009F452C0826082836401AA24A39429
:102C7000C114D10409F454C03C862B864D855E8571
:102C80006F85788987019E01255F3F4FC3010E94B0
:102C90001515182F8630B1F42F85388988EF298BC8
:102CA0003A8B0E94551285FB882780F98A2529894D
:102CB0003A89D90112969C91129780FB91F912964C
:102CC0009C93D6CF81113AC0EBA5FCA53097A1F01B
:102CD0000190F081E02D0190F081E02DC4018C196C
:102CE0009D099A8789876B857C859E01275F3F4F69
:102CF000A7018BA59CA509958B859C85C81AD90A27
:102D00008215930508F0B4CF0DC0816082834D8594
:102D10005E8587019101BF01C3010E942614182F0F
:102D200011110CC02D853E85BB2011F060EA01C059
:102D300060E8452DC3010E94F51201C0812F629603
:102D40000FB6F894DEBF0FBECDBFDF91CF911F91BC
:102D50000F91FF90EF90DF90CF90BF90AF909F903A
:102D60008F907F906F905F904F903F902F9008953D
:102D70008F929F92AF92BF92CF92EF920F931F9339
:102D80001F921F921F930F933F932F934901A12CE2
:102D9000B12CCC24C394E12C06E020E80E94D91584
:102DA0000F900F900F900F900F900F901F910F9119
:102DB000EF90CF90BF90AF909F908F9008958F929B
:102DC0009F92AF92BF92CF92EF92FF920F931F927A
:102DD0001F92FF92EF923F932F934901A12CB12CA8
:102DE00052E0C52EE02E06E020E80E94D9150F9093
:102DF0000F900F900F900F900F900F91FF90EF900A
:102E0000CF90BF90AF909F908F9008953F924F9238
:102E10005F926F927F928F929F92AF92BF92CF926A
:102E2000DF92EF92FF920F931F93CF93DF93CDB773
:102E3000DEB7C054D1090FB6F894DEBF0FBECDBFC8
:102E40003C01562E442E322EB02ECE0101966C013E
:102E50007C01022F29E030E0C3010E94DF168111BE
:102E60001BC08B809C801F93BF92DF92CF921F92DA
:102E700080E48F93A12CB12C62E0C62EE32C06E0F7
:102E800020E8442D652DC3010E94D9150F900F90A5
:102E90000F900F900F900F90C05CDF4F0FB6F8941B
:102EA000DEBF0FBECDBFDF91CF911F910F91FF907D
:102EB000EF90DF90CF90BF90AF909F908F907F90DA
:102EC0006F905F904F903F9008958F929F92AF9236
:102ED000BF92CF92EF920F93CF931F921F921F92A8
:102EE0001F921F921F92812C912CA12CB12CC12CCE
:102EF000E22E05E020E00E94D915C82F6CE271E0B7
:102F000080E090E00E942E100F900F900F900F9095
:102F10000F900F908C2FCF910F91EF90CF90BF908B
:102F2000AF909F908F9008958F929F92AF92BF9293
:102F3000CF92EF920F931F921F921F921F921F9298
:102F40001F92812C912CA12CB12CC12CE22E09E0D6
:102F500020E00E94D9150F900F900F900F900F90C6
:102F60000F900F91EF90CF90BF90AF909F908F9068
:102F70000895AF92BF92CF92DF92EF92FF920F939C
:102F80001F93CF93DF9300D000D0CDB7DEB77C0185
:102F9000690158011C821B821A8219828E010F5FFF
:102FA0001F4F9E012D5F3F4F0E948712811109C064
:102FB00049815A816B817C8185019601C7010E94FC
:102FC00015150F900F900F900F90DF91CF911F91DB
:102FD0000F91FF90EF90DF90CF90BF90AF9008954A
:102FE000CF92DF92FF920F931F93CF93DF9300D086
:102FF000CDB7DEB76C01662309F442C0062F10E09E
:1030000085E0689FB0011124F601E60FF71F808567
:10301000282F277086FF19C031E0E5E0FE2EF6016B
:10302000F39EE00DF11D1124808586958695869589
:1030300087708217E1F03F5F303188F3F6018581B8
:10304000821303C02150F601258385E0809FF001A3
:10305000819FF00D1124EC0DFD1D108681E081870C
:10306000128682E0C80ED11CD782C68209C0632FA7
:10307000C6012A8339830E94F0172A813981CFCF74
:103080000F900F90DF91CF911F910F91FF90DF90E4
:10309000CF900895CF93DF93EC016134A1F4FC014C
:1030A000855B9F4F41E09E012E5F3F4F158646870F
:1030B0001786348723873596E817F907B9F71D82F5
:1030C000DF91CF9108950E946C11682FCE01DF919E
:1030D000CF910C94F0170F931F93CF93DF93EC01D4
:1030E000022FCA3F8FEFD80711F486ED29C08E81D9
:1030F0009F81892B01F12A87242F40E0CE010E9475
:103100007E11182F8823C9F0682FCE010E94F2117A
:10311000009759F3FC010483212F40E060E0CE01C9
:103120000E946517082F882351F0612FCE010E945D
:103130004A18802F05C087ED03C084ED01C080E0F0
:10314000DF91CF911F910F9108952F923F924F924F
:103150005F926F927F928F929F92AF92BF92CF9227
:10316000DF92EF92FF920F931F93CF93DF93CDB730
:10317000DEB766970FB6F894DEBF0FBECDBF7C01F9
:10318000862E742E922E1B8A88E08C8B8CE38D8B7E
:10319000D701ED91FC910190F081E02D60E0C70135
:1031A00009956C01009709F4ABC0FC01A080B180C7
:1031B000CE0143969183808394828E010F5F1F4FCF
:1031C00022E130E040E060E0C7010E94B816D6017D
:1031D000AD92BC928111ACC029843A844B845C844A
:1031E000BD81BE8B1E815701612C6501E6E5CE0EC7
:1031F000D11CD6018D919C91009789F1DC01ED9154
:10320000FC910084F185E02D0995811128C0F6011B
:1032100080819181DC01ED91FC910088F189E02DA4
:10322000612F09958823D9F0F60180819181DC0115
:10323000ED91FC910484F585E02DA201B101099581
:10324000811160C0F60180819181DC01ED91FC91DA
:103250000684F785E02D6E890995811153C063942A
:10326000B2E0AB0EB11CE0E16E12BFCF5701612C92
:103270006501F6E5CF0ED11CD6018D919C9100978A
:1032800089F1DC01ED91FC910084F185E02D099537
:10329000811128C0F60180819181DC01ED91FC91C2
:1032A0000088F189E02D612F09958823B1F1F6019D
:1032B00080819181DC01ED91FC910484F585E02D04
:1032C000A201B101099581110DC0F60180819181A2
:1032D000DC01ED91FC910684F785E02D6E8909955E
:1032E0008823D9F06394B2E0AB0EB11CE0E16E121A
:1032F000BFCF292D472D682DC7010E946B1818C01C
:1033000086ED16C0092D272D482D662DC7010E9478
:103310005D13813D09F4A3CF0BC0092D272D482D46
:10332000662DC7010E945D13982F977F913DD1F2C2
:1033300066960FB6F894DEBF0FBECDBFDF91CF917A
:103340001F910F91FF90EF90DF90CF90BF90AF90C3
:103350009F908F907F906F905F904F903F902F90B5
:103360000895FF920F931F93CF93DF93EC011D9964
:103370000EC088EC0E94551285FF05C0CE010E9448
:10338000C90D60E201C060E088EC0E946D1280917E
:10339000F103813051F058F0823029F0833039F553
:1033A000FF24F3940DC0F12C0BC083E106C0809183
:1033B0000E05807F8031D9F081E180930E0517C022
:1033C00080910E05807F803199F40E942C10685303
:1033D0007F4F8F4F9F4F60930A0570930B0580932B
:1033E0000C0590930D0580E280930E0501C0F12C31
:1033F00000E010E0FE01E00FF11FEA5AFF4F80816C
:103400009181009739F0DC01ED91FC910680F78104
:10341000E02D09950E5F1F4F0032110559F780917D
:103420000E05803409F446C070F4803269F18033AF
:10343000D9F1813109F088C0FE01EA58FF4F1082AE
:1034400000E010E00AC0813509F45AC0803809F460
:103450006AC0803509F078C03CC0FE01E00FF11F62
:10346000EA5AFF4F80819181009739F0DC01ED919C
:10347000FC910480F581E02D09950E5F1F4F00320D
:10348000110559F782E15EC00E942C1000910A05D7
:1034900010910B0520910C0530910D05601B710BEF
:1034A000820B930B97FD50C061E088EE0E946D1275
:1034B00080E448C088EE0E94551280FD45C088ED2A
:1034C0000E945512682F686088ED0E946D1280E599
:1034D00039C088EC0E94551286FF36C081E5809382
:1034E0000E050E942C106C5E7F4F8F4F9F4F609394
:1034F0000A0570930B0580930C0590930D0524C06D
:103500000E942C1000910A0510910B0520910C05CA
:1035100030910D05601B710B820B930B97FD14C04E
:1035200080E880930E052F2D40E060E0CE010E94E0
:10353000A518882331F0823D39F080930F0580EA89
:1035400001C080E980930E05DF91CF911F910F910B
:10355000FF9008958F929F92AF92BF92CF92EF9279
:103560000F93CF93DF93CDB7DEB7C054D1090FB619
:10357000F894DEBF0FBECDBF5F934F939E012F5FC8
:103580003F4F3F932F931F9220E42F9320E8822EEA
:10359000912C5B0132E2C32EE12C06E021E840E0F1
:1035A000FC016681848195810E94D9150F900F904E
:1035B0000F900F900F900F90C05CDF4F0FB6F894F4
:1035C000DEBF0FBECDBFDF91CF910F91EF90CF90B7
:1035D000BF90AF909F908F9008958F929F92AF92DF
:1035E000BF92CF92DF92EF92FF920F938E2CA42E78
:1035F000B12C1F921F92DF92CF92FF92EF929F2CDD
:10360000C22EE02E09E021E2462FFC016681848172
:1036100095810E94D9150F900F900F900F900F90E9
:103620000F900F91FF90EF90DF90CF90BF90AF90F1
:103630009F908F9008958F929F92AF92BF92CF925A
:10364000EF920F93A62EB12C1F921F921F921F92E2
:103650001F921F92812C912CC22EE42E0AE021E2AF
:1036600040E0FC016681848195810E94D9150F900C
:103670000F900F900F900F900F900F91EF90CF90B1
:10368000BF90AF909F908F9008958F929F92AF922E
:10369000BF92CF92EF920F93A62EB12C1F921F9242
:1036A0001F921F921F921F92812C912CC12CE42EED
:1036B0000BE021E240E0FC016681848195810E945B
:1036C000D9150F900F900F900F900F900F900F91B2
:1036D000EF90CF90BF90AF909F908F900895FC0196
:1036E0008285089581E0693009F080E00895CF93E4
:1036F000DF93EC018A819B81DC01ED91FC910480D8
:10370000F581E02D6A8509958A85813439F4EA814D
:10371000FB81EA58FF4F8081846080831A861B8674
:103720001C861D861E861F86188A80E0DF91CF9139
:1037300008958F929F92AF92BF92CF92EF920F9384
:10374000A42EB12CB22A1F921F921F921F921F9279
:103750001F92812C912CC12CE62E01E023E240E047
:10376000FC016285828193810E94D9150F900F9090
:103770000F900F900F900F900F91EF90CF90BF9000
:10378000AF909F908F9008958F929F92AF92BF922B
:10379000CF92EF920F93A62EB12C1F921F923F93C0
:1037A0002F935F934F934A01C12CE12C00E023EA51
:1037B00040E0FC016285828193810E94D9150F90BF
:1037C0000F900F900F900F900F900F91EF90CF9060
:1037D000BF90AF909F908F9008958F929F92AF92DD
:1037E000BF92CF92EF920F93A42EB12CB22A1F92C8
:1037F0001F921F921F921F921F92812C912CC12CFD
:10380000E62E03E023E240E0FC01628582819381A1
:103810000E94D9150F900F900F900F900F900F905E
:103820000F91EF90CF90BF90AF909F908F900895A1
:103830002F923F924F925F926F927F928F929F92C0
:10384000AF92BF92CF92DF92EF92FF920F931F93AE
:10385000CF93DF93CDB7DEB7E9970FB6F894DEBF0D
:103860000FBECDBF3C01362E242EDC011296ED900A
:10387000FC9013971A968C91811103C1D701ED9199
:10388000FC910190F081E02D60E0C70129AF09951E
:103890006C0129AD009709F4F6C0FC01A080B1804D
:1038A000A114B10409F4F1C04301F4E08F0E911C9E
:1038B000DC0111969C928E9214962C93FE01319607
:1038C0002F018F0128E030E040E060E0D301129644
:1038D0008D919C9113970E94B816F6011482811164
:1038E000DAC019818D81893009F0D1C0D701ED91FD
:1038F000FC910280F381E02D222D41E0632DC70170
:103900000995F3018287882309F4C3C098859583BC
:10391000282F40E060E0828193810E946517082F84
:10392000882391F0D601AD92BC92D701ED91FC9124
:103930000480F581E02DD3011A966C91C701099599
:10394000F3011286102FABC0113208F010E2D6013D
:10395000AD92BC9211110BC0940142E0F30162855B
:10396000828193810E942F12811198C011C0212F52
:1039700030E0820140E0D3011A966C911A971296BA
:103980008D919C9113970E94B816811187C0E4CF46
:103990001F921F925F924F921F9288E08F9388E050
:1039A000882E912CA12CB12C99E2C92EE12C06E095
:1039B00020EA40E0F3016285828193810E94D9155B
:1039C000182F0F900F900F900F900F900F90811164
:1039D00066C08B81D3011B968C931B97720100E00C
:1039E00028E030E040E01A966C911A9712968D917B
:1039F0009C9113970E94DF16811150C02B813C814E
:103A000040E0F3016285828193810E94DF1681117B
:103A100045C0298130E0CE0181967C0140E0D30190
:103A20001A966C911A9712968D919C9113970E94F9
:103A3000DF16811133C02E8140E0F301628582815F
:103A400093810E949417811129C001E0D3011B9634
:103A50008C911B97801740F020E0402F68E0C30155
:103A60000E94ED1B0F5FF2CF1296ED91FC91139720
:103A7000EA58FF4F80818460808381E050968C9368
:103A80000EC019ED0CC016ED0AC017ED08C011EDFF
:103A900006C014ED04C0F601B182A082182F812F58
:103AA000E9960FB6F894DEBF0FBECDBFDF91CF9180
:103AB0001F910F91FF90EF90DF90CF90BF90AF904C
:103AC0009F908F907F906F905F904F903F902F903E
:103AD0000895BF92CF92DF92EF92FF920F931F93C0
:103AE000CF93DF9300D000D0CDB7DEB77C01B62EE8
:103AF00019821A821B821C8220E0462F61E10E94FB
:103B0000991B20E04B2D60E1C7010E94991B20E02A
:103B10004B2D64E0C7010E94ED1B23E0C22ED12C87
:103B20009E012F5F3F4F44E050E06B2DC7010E9484
:103B3000C41B882301F120E04B2D64E1C7010E94E2
:103B4000991B20E04B2D60E1C7010E94991B64E1A5
:103B500070E080E090E00E942E100F900F900F9088
:103B60000F90DF91CF911F910F91FF90EF90DF9019
:103B7000CF90BF90089509811A812B813C811D7FD0
:103B80000330114020413105B1F264E670E080E07D
:103B900090E00E942E1081E0C81AD108C114D1040F
:103BA00009F0BECFC8CFCF93DF93FC0188E292E04B
:103BB00091838083738362831286138614861586AD
:103BC00016861786108A148288E085839CE3968384
:103BD00091E09783808784E0818761157105B9F052
:103BE000CB01A0E0B0E0EC01CA5ADF4F2881398157
:103BF000232B41F49B96AA0FBB1FA60FB71FED9373
:103C0000FC9305C011960296A031B10561F7DF91D2
:103C1000CF910895DF92EF92FF920F931F93CF936E
:103C2000DF93EC01D62E7A01FA0100811181228105
:103C300033810130F3E01F07F1E02F073105D1F0A8
:103C400060F40115E1E01E072E07310571F1013026
:103C500011402140310571F062C0033081E0180746
:103C600080E128073105E1F103301340204131059F
:103C7000B9F155C080911005811151C020E04D2D42
:103C800061E1CE010E94991B20E04D2D60E1CE0143
:103C90000E94991B20E04D2D64E0CE010E94ED1B97
:103CA00081E08093100581EB3BC020E0462F61E16D
:103CB000CE010E94991B20E04D2D60E1CE010E94B3
:103CC000991B109210056A8567708D2D8770660F9D
:103CD000660F660F682B8A819B810E941D111FC091
:103CE00020E04D2D64E1CE010E94991B20E04D2D76
:103CF00060E1CE010E94991B64E170E080E090E0F9
:103D00000E942E106A85F701218126952170677027
:103D10004D2D8A819B810E94A5181092100580E08C
:103D2000DF91CF911F910F91FF90EF90DF90089559
:103D3000EF92FF920F931F93CF93DF93CDB7DEB730
:103D40002E970FB6F894DEBF0FBECDBF7C0181E089
:103D500090E09E878D878E010F5F1F4F9E01235F2E
:103D60003F4F41E0F7016285828193810E94B9173C
:103D7000811151C002E011E089818023D1F01986C0
:103D80001A861B861C869E01275F3F4F44E050E049
:103D9000612FC7010E94C41B81110BC0AE01475F98
:103DA0005F4F612FC7010E940A1E813B99F181116B
:103DB00032C0000F1F5F1830F9F611E0F70183855C
:103DC000811740F119861A861B861C869E01275F83
:103DD0003F4F44E050E0612FC7010E94C41B811196
:103DE00017C089859A85877091708130914081F4E0
:103DF0008B859C8581609C878B87AE01475F5F4F79
:103E0000612FC7010E940A1E813B21F0811103C06E
:103E10001F5FD4CF80E02E960FB6F894DEBF0FBEA2
:103E2000CDBFDF91CF911F910F91FF90EF9008953B
:103E30000F931F93CF93DF93EC0188898823F1F0D0
:103E40000E942C100C851D852E853F85601B710BF3
:103E5000820B930B97FD0FC0CE010E94981E182F66
:103E60000E942C106C597F4F8F4F9F4F6C877D871E
:103E70008E879F8701C010E0812F01C080E0DF9115
:103E8000CF911F910F910895CF93DF93FC01EA0129
:103E900080819181892B21F580E028C088819981DA
:103EA000892BD1F3DB018D919C91DC015C91238105
:103EB00030E0241B310980819181820F931FDC0146
:103EC0005C93828181508283888199810197998353
:103ED0008883DB018D919C91119701968D939C9322
:103EE00042814111DBCF8381828381E0DF91CF91D9
:103EF00008958091190508950895CF93DF9300D018
:103F00001F92CDB7DEB72091A805243019F523E024
:103F100029839B838A832093E9008FEF9091E800A7
:103F2000815095FD06C095ED9A95F1F7000081113D
:103F3000F5CF8091E80085FF0DC040E050E063E0E0
:103F400070E0CE0101960E947B218091E8008E777F
:103F50008093E8000F900F900F90DF91CF9108951C
:103F60002091A8052430F1F422E02093E9002FEFFE
:103F70003091E800215035FD06C035ED3A95F1F756
:103F800000002111F5CF2091E80025FF0BC040E093
:103F900050E064E070E00E947B218091E8008E7721
:103FA0008093E8000895CF93DF93EC018091A805FA
:103FB000843039F581E08093E9008FEF9091E8003B
:103FC000815095FD06C095ED9A95F1F7000081119D
:103FD000F5CF8091E80085FF14C040E050E068E034
:103FE00070E0CE010E947B218091E8008E77809363
:103FF000E80088E0FE01A1E1B5E001900D928A950C
:10400000E1F7DF91CF9108958091A705811109C053
:104010000E94D3220E942E238091E200846080932C
:10402000E20008951092A705089508951F93CF9375
:10403000DF93CDB7DEB7A0970FB6F894DEBF0FBE03
:10404000CDBF8091A805843059F58091E9008F702B
:104050009091EC0090FF02C090E801C090E0192F11
:10406000182B85E08093E9008091E80082FF15C05D
:104070008091E80085FF0CC040E050E060E270E015
:10408000CE0101960E94C421CE0101960E946A25AC
:104090008091E8008B778093E8001F701093E9000F
:1040A000A0960FB6F894DEBF0FBECDBFDF91CF91C3
:1040B0001F91089542E061EC81E00E946E2242E08F
:1040C00061EC82E00E946E2242E061EC83E00E949B
:1040D0006E2242E261EC84E00E946E2242E260ECD9
:1040E00085E00C946E228091AA05833009F453C0B8
:1040F00030F4813071F0823009F48CC008958A3038
:1041000009F478C08B3009F45EC0893009F09AC098
:1041100020C08091A905813A09F094C08091E800FF
:10412000877F8093E8008091AD059091AE05892B43
:1041300021F060E080E090E003C068E081E195E07C
:1041400070E00E940D228091E8008B778093E80058
:1041500008958091A905813209F074C08091AD0560
:104160009091AE05892B09F06DC08091E800877FA2
:104170008093E8008091E80082FD05C08091A80549
:104180008111F8CF5FC08091F10080931905809173
:10419000E8008B7753C08091A905813A09F052C09D
:1041A0008091AD059091AE05892B09F04BC08091AF
:1041B000E800877F8093E8008091E80080FFFCCFD3
:1041C0008091150136C08091A9058132D9F5809181
:1041D000AD059091AE05892BA9F58091E800877F08
:1041E0008093E8000E9482228091AB0580931501A4
:1041F0000C94C12A8091A905813221F58091E800B3
:10420000877F8093E8000E9482228091AC05809392
:104210001A0508958091A905813AA1F48091E800DA
:10422000877F8093E8008091E80080FFFCCF809139
:104230001A058093F1008091E8008E778093E80062
:104240000C948222089508950C9423210C94D72F66
:104250000C942621292F33272330310599F05CF463
:1042600021303105D9F122303105E9F584E790E0BC
:1042700029EA32E03CC02132310599F02232310581
:10428000E9F031C099278330910568F5FC01EE0F04
:10429000FF1FEF5AFD4F20813181FC01E25BFD4F92
:1042A0001AC0643000F5E62FF0E0EE0FFF1FEA5B66
:1042B000FD4F2081318189E090E019C0643098F48D
:1042C000E62FF0E0DF01AA0FBB1FA25CBD4F2D91CE
:1042D0003C91E65CFD4F808190E009C082E190E076
:1042E0002DE133E004C080E090E020E030E0FA010E
:1042F000318320830895CF92DF92EF92FF920F9344
:104300001F93CF93DF937C018B01EA010E94A322CC
:10431000811131C0209731F088819981081B190BD8
:10432000E80EF91EC12CD12C0115110519F180914F
:10433000E80085FD14C08091E8008E778093E80046
:10434000209741F0888199818C0D9D1D99838883E8
:1043500085E011C00E94A322882331F30CC0F7012D
:1043600081917F018093F10001501109FFEFCF1A75
:10437000DF0ADACF80E0DF91CF911F910F91FF909C
:10438000EF90DF90CF900895CF92DF92EF92FF925F
:104390000F931F93CF93DF937C018B01EA010E945F
:1043A000A322811131C0209731F088819981081BA7
:1043B000190BE80EF91EC12CD12C0115110519F1AC
:1043C0008091E80085FD14C08091E8008B77809390
:1043D000E800209741F0888199818C0D9D1D99837B
:1043E000888385E011C00E94A322882331F30CC08A
:1043F0008091F100F70181937F0101501109FFEFD6
:10440000CF1ADF0ADACF80E0DF91CF911F910F91B1
:10441000FF90EF90DF90CF9008952091AF053091FD
:10442000B0052617370748F06115710539F420915A
:10443000E8002E772093E80001C0B901FC0120E0DC
:1044400061157105B9F18091A805882309F440C070
:10445000853009F43FC08091E80083FD3DC0809124
:10446000E80082FF06C08091E80082FF26C080E05D
:1044700008958091E80080FFE3CF2091F3008091C0
:10448000F20090E0922B6115710551F08830910592
:1044900038F421912093F100615071090196F3CF16
:1044A00021E0089709F020E08091E8008E77809362
:1044B000E800C6CF2111C7CFD6CF8091A8058823A9
:1044C00039F0853039F08091E80083FFCCCF04C00B
:1044D00082E0089583E0089581E008958F708093CD
:1044E000E900EBEEF0E0808181608083EDEEF0E0AA
:1044F00010826093EC0040838091EE00881F882733
:10450000881F08958091A90587FD05C08091E80066
:1045100080FF0EC012C08091E80082FD05C080912E
:10452000A8058111F8CF08958091E8008B7708C025
:104530008091A8058111EACF08958091E8008E77D7
:104540008093E80008958091E4009091E50045E6AD
:104550002091EC0020FF21C02091E80020FD21C027
:104560002091A805222389F0253089F02091EB00C5
:1045700025FD0FC02091E4003091E5002817390790
:1045800039F3415041F0C901E3CF82E0089583E05F
:10459000089581E0089584E008952091E80022FFC5
:1045A000DFCF80E008950E943F230E944723E0EE82
:1045B000F0E0808181608083E8EDF0E080818F779A
:1045C000808319BCA7EDB0E08C918E7F8C938081A5
:1045D0008F7E80831092A70508950F931F93CF932A
:1045E000DF930E943F230E944723C8EDD0E08881DB
:1045F0008F77888388818068888388818F7D88838E
:1046000019BC1092A8051092A5051092A60500EEFF
:1046100010E0F80180818B7F8083888181608883AE
:1046200042E060E080E00E946E22E1EEF0E08081F6
:104630008E7F8083E2EEF0E08081816080838081E4
:1046400088608083F80180818E7F8083888180618B
:104650008883DF91CF911F910F910895E8EDF0E0ED
:1046600080818F7E8083E7EDF0E0808181608083B0
:1046700084E082BF81E08093A7050C94ED22E8EDF1
:10468000F0E080818E7F80831092E2000895109286
:10469000DA001092E10008951F920F920FB60F9268
:1046A00011242F933F934F935F936F937F938F9337
:1046B0009F93AF93BF93EF93FF938091E10082FFAD
:1046C0000BC08091E20082FF07C08091E1008B7FE8
:1046D0008093E1000E9416208091DA0080FF1FC0C5
:1046E0008091D80080FF1BC08091DA008E7F80937C
:1046F000DA008091D90080FF0DC080E189BD82E1A0
:1047000089BD09B400FEFDCF81E08093A8050E9419
:10471000042005C019BC1092A8050E9412208091A7
:10472000E10080FF19C08091E20080FF15C08091F8
:10473000E2008E7F8093E2008091E20080618093AE
:10474000E2008091D80080628093D80019BC85E097
:104750008093A8050E9424218091E10084FF30C04D
:104760008091E20084FF2CC080E189BD82E189BD97
:1047700009B400FEFDCF8091D8008F7D8093D800D2
:104780008091E1008F7E8093E1008091E2008F7E36
:104790008093E2008091E20081608093E20080914A
:1047A000A505882311F084E007C08091E30087FF0E
:1047B00002C083E001C081E08093A8050E94282107
:1047C0008091E10083FF29C08091E20083FF25C032
:1047D0008091E100877F8093E10082E08093A805CB
:1047E0001092A5058091E1008E7F8093E100809179
:1047F000E2008E7F8093E2008091E20080618093EE
:10480000E20042E060E080E00E946E228091F000D1
:1048100088608093F0000E941520FF91EF91BF9176
:10482000AF919F918F917F916F915F914F913F9148
:104830002F910F900FBE0F901F9018951F920F92FF
:104840000FB60F9211242F933F934F935F936F9363
:104850007F938F939F93AF93BF93CF93EF93FF93E8
:10486000C091E900CF708091EC001092E900809136
:10487000F000877F8093F00078940E945A24109271
:10488000E9008091F00088608093F000C093E90017
:10489000FF91EF91CF91BF91AF919F918F917F91B8
:1048A0006F915F914F913F912F910F900FBE0F909D
:1048B0001F9018951F93CF93DF9300D0CDB7DEB72D
:1048C000E9EAF5E08091F100819385E0E13BF807AA
:1048D000C9F70E9473208091E80083FFE7C0209110
:1048E000A9053091AA05832F90E08A30910508F040
:1048F000DDC0FC01EA5AFF4F0C948B35203881F063
:10490000223809F0D3C08091AD058F708093E90003
:104910008091EB0085FB882780F91092E90004C0A4
:104920008091A605811182E09091E800977F909395
:10493000E8008093F1001092F10092C0822F8D7FE9
:1049400009F0B4C0222319F0223061F0AFC0809189
:10495000AB05813009F0AAC0333009F080E08093C4
:10496000A60528C08091AB05811124C02091AD051A
:104970002F7009F49BC02093E9008091EB0080FF29
:1049800019C08091EB00333011F4806211C0806156
:104990008093EB0081E090E0022E01C0880F0A9422
:1049A000EAF78093EA001092EA008091EB008860B9
:1049B0008093EB001092E9008091E800877F53C05C
:1049C000211174C01091AB051F778091E3008078AE
:1049D000812B8093E3008091E800877F8093E8003B
:1049E0000E9482228091E80080FFFCCF8091E3004A
:1049F00080688093E300112311F083E001C082E01E
:104A00008093A80553C02058223008F04FC0AE0153
:104A10004F5F5F4F6091AD058091AB059091AC0504
:104A20000E942A21009709F441C02091E800277FC5
:104A30002093E800BC0189819A810E940D22809117
:104A4000E8008B778093E80031C0203879F58091B9
:104A5000E800877F8093E8008091A5058093F100AE
:104A60008091E8008E778093E8000E9482221EC029
:104A700021111CC09091AB059230C0F48091E800E8
:104A8000877F8093E8009093A5050E948222809101
:104A9000A505811104C08091E30087FF02C084E076
:104AA00001C081E08093A8050E945A208091E8000F
:104AB00083FF0AC08091E800877F8093E80080919F
:104AC000EB0080628093EB000F900F90DF91CF910D
:104AD0001F9108958F929F92AF92BF92CF92DF92D3
:104AE000EF92FF920F931F93CF93DF93CDB7DEB773
:104AF00028970FB6F894DEBF0FBECDBFEDB6FEB659
:104B0000FC0120813181ADB6BEB6A31AB1080FB643
:104B1000F894BEBE0FBEADBE0DB71EB70F5F1F4FE0
:104B2000722F771F7727771F632F661F6627661FF1
:104B30002F773F77772351F0E30FF11DA281B0E08B
:104B4000BA2FAA274381A40FB11D02C0A0E0B0E094
:104B5000C02E480142E0D42ED01A5D2D580D482DAC
:104B60004C19431740F4FC01E50FF11D4081F4019D
:104B700041934F01F2CF29836D833A83402F1C83E9
:104B80000B837E83B887AF835C818A2F98850E94D0
:104B90005C2681E00FB6F894FEBE0FBEEDBE2896EF
:104BA0000FB6F894DEBF0FBECDBFDF91CF911F913E
:104BB0000F91FF90EF90DF90CF90BF90AF909F90BC
:104BC0008F900895DF92EF92FF920F931F93CF93F0
:104BD000DF93CDB7DEB728970FB6F894DEBF0FBED0
:104BE000CDBF29833A834B835C836D837E838F8320
:104BF00098870B811C8180911D05662391F081119E
:104C000023C0F801818190E0982F88272081820FAE
:104C1000911D90931C0580931B0581E080931D05D9
:104C200011C0882319F010921D050EC0F801818172
:104C300090E0982F88272081820F911D90931C056A
:104C400080931B0582E001C080E0D12CE82EF12C7E
:104C5000ED2DF0E08A8190E08E199F09E817F907A1
:104C6000E4F480911B0590911C059C0128503109AA
:104C7000283F334038F4E00FF11FEE0DFF1D608137
:104C80000E94B33580911B0590911C05019690936D
:104C90001C0580931B05D394DBCF81E028960FB6CB
:104CA000F894DEBF0FBECDBFDF91CF911F910F9162
:104CB000FF90EF90DF900895CF93DF93CDB7DEB7ED
:104CC00028970FB6F894DEBF0FBECDBF3A834B8353
:104CD0005C836D837E838F839887203111F40E94DB
:104CE000E22581E028960FB6F894DEBF0FBECDBF57
:104CF000DF91CF9108959093210580932005089529
:104D000080912005909121050895E0912005F09172
:104D10002105309721F00190F081E02D099480E089
:104D20000895E0912005F0912105309721F002804F
:104D3000F381E02D09940895E0912005F09121057B
:104D4000309721F00480F581E02D09940895209199
:104D50001E0530911F058217930771F090931F0570
:104D600080931E05E0912005F0912105309721F0F8
:104D70000084F185E02D099408950E947C100E9422
:104D8000460E0E94AE330E94A6320C94F3335F921B
:104D90006F927F928F929F92AF92BF92CF92DF924B
:104DA000EF92FF920F931F93CF93DF9300D000D029
:104DB0001F92CDB7DEB70E949F0C93E2C92E95E0FB
:104DC000D92E00E010E0AA24A394B12C502E802FFD
:104DD0000E94410D3C01F601E190F1906F01E8263F
:104DE000F926E114F104B1F40F5F1F4F00311105F2
:104DF00069F78FEF89838A831B820E948510816007
:104E0000782F9D838C8349815A816B818D810E948B
:104E1000842741C080918D0581FD0E94820D20E094
:104E200030E04501022E02C0880C991C0A94E2F77A
:104E3000C4018E219F21892B41F129835A82682048
:104E4000792081E0672809F480E08B830E94851037
:104E50008160782F9D838C8349815A816B818D81FC
:104E60000E94842749815A816B817C818D810E94B7
:104E7000A52FF801EE0FFF1FED5DFA4F80819181A4
:104E8000882599259183808306C02F5F3F4F20316D
:104E9000310539F6A9CF0E94A42F0E94D331109179
:104EA00022050E9485261817D1F00E94852680933E
:104EB00022050F900F900F900F900F90DF91CF91E0
:104EC0001F910F91FF90EF90DF90CF90BF90AF9028
:104ED0009F908F907F906F905F900C9408330F900D
:104EE0000F900F900F900F90DF91CF911F910F9126
:104EF000FF90EF90DF90CF90BF90AF909F908F90FA
:104F00007F906F905F900895CF93DF93CDB7DEB71A
:104F10002B970FB6F894DEBF0FBECDBF4F835887D7
:104F200069877A878B878A859B85892B31F05F3FDC
:104F300011F080E003C04F3FE1F781E0811107C02D
:104F40004F81588569857A858B850E94A52FDE0162
:104F5000119686E0FD0111928A95E9F785E0FE0140
:104F6000379601900D928A95E1F749815A816B81BC
:104F70007C818D819E810E948D2D2B960FB6F89499
:104F8000DEBF0FBECDBFDF91CF910895882309F416
:104F900055C09CEF980F913A18F40E943F2F0DC016
:104FA00090E2980F983058F4877091E001C0990F03
:104FB0008A95EAF7892F0E94842F0C94292F98E56F
:104FC000980F9731D8F5883AB9F0893AC1F08A3A02
:104FD000C9F08D3BD1F08E3BD9F08B3AE1F08C3AA1
:104FE000E9F08F3AF1F0803BF9F0843B01F1873B27
:104FF00009F583E292E020C082EE90E01DC089EEC8
:1050000090E01AC08AEE90E017C08FE690E014C0DE
:1050100080E790E011C085EB90E00EC086EB90E059
:105020000BC087EB90E008C08DEC90E005C082E9F2
:1050300091E002C080E090E00C94A72608958823B8
:10504000E9F09CEF980F913A18F40E94602F0DC080
:1050500090E2980F983058F4877091E001C0990F52
:105060008A95EAF7892F0E948A2F0C94292F885A53
:10507000873120F480E090E00C94A72608958823DF
:1050800021F00E94842F0C94292F0895882321F069
:105090000E948A2F0C94292F0895CF92DF92EF92CD
:1050A000FF920F931F93CF93DF93CDB7DEB728976F
:1050B0000FB6F894DEBF0FBECDBF8C0185E0F801BE
:1050C000DE01119601900D928A95E1F7F801408179
:1050D0003181F280258122952F7083819481892BE3
:1050E00031F03F3F31F481E04F3F19F403C081E0DC
:1050F00001C080E080FD28C249833A8389819A817A
:105100002F830E94E72E9E8388870E94E62E0E94AE
:10511000462E3E81E32FE295EF70F0E0E05AFF4F1C
:105120002F8168850C948B35832F807F132F1F7000
:10513000882311F01295107FFF2059F0112309F4F4
:10514000CBC1812F68870E94942F0E94292F6885E8
:10515000C3C1862F0E941F28112309F4F5C1812F96
:105160000E949A2F28960FB6F894DEBF0FBECDBFCF
:10517000DF91CF911F910F91FF90EF90DF90CF9033
:105180000C94292F832F807F932F9F70E92E8032DC
:1051900019F0E29480EFE822613071F4FF2041F0D1
:1051A000233008F0D1C10E94812F8E2179F021C0D7
:1051B000223008F0C9C11DC0FF20C9F0222331F000
:1051C000F801858180FF88C18F7085838E2D289698
:1051D0000FB6F894DEBF0FBECDBFDF91CF911F9108
:1051E0000F91FF90EF90DF90CF900C943F2821110A
:1051F00087C18E2DE7C0832F86958695837009F031
:10520000A3C1FF2021F0862F932F937002C080E06E
:1052100090E028960FB6F894DEBF0FBECDBFDF91A9
:10522000CF911F910F91FF90EF90DF90CF900C9452
:10523000A726862FFF2019F00E94FD3002C00E9491
:10524000583128960FB6F894DEBF0FBECDBFDF9160
:10525000CF911F910F91FF90EF90DF90CF900C9422
:10526000C831832F837009F46FC1FF2019F0832F99
:10527000817001C08695882309F466C1262F229586
:1052800026952770220F220F862F8F70C82ED12CC3
:10529000E12CF12C022E04C0CC0CDD1CEE1CFF1CFA
:1052A0000A94D2F764FF10C06FE070E080E090E0F5
:1052B00004C0660F771F881F991F2A95D2F7609543
:1052C00070958095909503C060E070E0CB01232F2E
:1052D000269526952370422F50E042305105D1F09B
:1052E0004330510559F16C297D298E299F29413080
:1052F000510541F128960FB6F894DEBF0FBECDBF21
:10530000DF91CF911F910F91FF90EF90DF90CF90A1
:105310000C94C22E6C297D298E299F2928960FB6C0
:10532000F894DEBF0FBECDBFDF91CF911F910F91DB
:10533000FF90EF90DF90CF900C94D42E0E94C22E5D
:10534000C701B60128960FB6F894DEBF0FBECDBFD9
:10535000DF91CF911F910F91FF90EF90DF90CF9051
:105360000C94B02E603F28F4603EE0F5603D68F498
:10537000AEC0613F09F45FC008F442C0623F09F467
:105380006EC0633F09F47FC0A2C0FF2071F02223EA
:1053900011F082E5A2C0832F8F7168870E945B2E77
:1053A0006885862F8295807F12CF222311F082E5B7
:1053B000A8C0832F8F7168870E94762E6885862FFC
:1053C0008295807F28960FB6F894DEBF0FBECDBFC2
:1053D000DF91CF911F910F91FF90EF90DF90CF90D1
:1053E0000C944628162F1F70832F8F71FF2021F0F9
:1053F0000E945B2E812FEBCE0E94762E812FE2CF72
:10540000FF20A9F0223008F09FC0832F8F712896CB
:105410000FB6F894DEBF0FBECDBFDF91CF911F91C5
:105420000F91FF90EF90DF90CF900C94952E23304A
:1054300008F08AC0EACFFF20A1F0832F8F71289651
:105440000FB6F894DEBF0FBECDBFDF91CF911F9195
:105450000F91FF90EF90DF90CF900C945B2EFF2088
:1054600061F3832F8F7128960FB6F894DEBF0FBEBD
:10547000CDBFDF91CF911F910F91FF90EF90DF9003
:10548000CF900C94762EFF2091F0832F8F71289669
:105490000FB6F894DEBF0FBECDBFDF91CF911F9145
:1054A0000F91FF90EF90DF90CF900C944C2E2896A8
:1054B0000FB6F894DEBF0FBECDBFDF91CF911F9125
:1054C0000F91FF90EF90DF90CF900C94472EFF202C
:1054D000A1F0222309F4B1CF862F28960FB6F894B5
:1054E000DEBF0FBECDBFDF91CF911F910F91FF9017
:1054F000EF90DF90CF900C94C627222309F4B1CF10
:10550000862F28960FB6F894DEBF0FBECDBFDF9171
:10551000CF911F910F91FF90EF90DF90CF900C945F
:105520001F28432F4F70C80128960FB6F894DEBF8E
:105530000FBECDBFDF91CF911F910F91FF90EF90E4
:10554000DF90CF900C94D60028960FB6F894DEBF6B
:105550000FBECDBFDF91CF911F910F91FF90EF90C4
:10556000DF90CF9008950E94A12F0E94732F0E9478
:10557000292F0E945E320E94C83180E090E00C9496
:10558000A7260E94912F0C94B32A0E94E72E292F60
:1055900022952F7030E02C3031054CF42A30310543
:1055A0006CF4225031092230310590F407C02C30C0
:1055B000310551F02F30310539F00AC0803E10F02E
:1055C000803F31F481E0089593FB882780F90895A6
:1055D00080E00895CF93DF9300D000D01F92CDB725
:1055E000DEB70F900F900F900F900F90DF91CF913B
:1055F0000895CF93DF9300D000D000D0CDB7DEB7B1
:1056000026960FB6F894DEBF0FBECDBFDF91CF91C7
:1056100008951F93CF93DF93C091430516E08091C7
:105620004405C81799F0D0E01C9FF0011D9FF00DB4
:105630001124EB5BFA4F4081518162817381848137
:1056400095810E94F92A2196C770E9CFDF91CF9109
:105650001F910895409175055091760560917705E9
:10566000709178058091790590917A050C94F92ACA
:10567000CF9380917A0582958F7009F05FC08091F9
:105680007705882309F45AC020914305A091440569
:1056900060917505709176058091780590917905F6
:1056A00031E06F3F09F030E0B32FC6E02A1709F46C
:1056B00045C0009721F07F3F21F44B2F03C041E00C
:1056C00001C040E030E040FD35C0C29FF001C39F03
:1056D000F00D1124EB5BFA4F418174132BC0408114
:1056E000641328C04281411125C043815481481769
:1056F000590710F441505109481B590B443B5105BF
:10570000C8F480917A058F70806180937A0586E075
:10571000829FF001839FF00D1124E65BFA4F808198
:105720008F708061808385E795E00E944D28CF913E
:105730000C94092B2F5F3F4F2770B8CFCF9108955E
:10574000CF92DF92EF92FF920F931F93CF93DF934D
:10575000CDB7DEB762970FB6F894DEBF0FBECDBFF0
:105760008C0185E0F801DE011D9601900D928A956D
:10577000E1F7D8014C9111965C91119712966C91BA
:1057800012971396ED90FC90149770917505E09127
:10579000760520917805309179052115310531F094
:1057A000EF3F31F481E07F3F19F403C081E001C095
:1057B00080E0B82FB170CB2E80FD6CC1D090770502
:1057C000DD2009F4F5C0F0917A05E216F30638F011
:1057D000C701821B930B843B910548F09BC0209529
:1057E00030952E0D3F1D243B310508F093C08F2FBF
:1057F000807F09F052C0E51314C0741312C0D62E76
:1058000061110FC0FF70F061F0937A050E942A2B9E
:1058100085E795E00E944D2880917A05F8018583FF
:105820006CC1EF2831F05F3F31F481E04F3F19F454
:1058300003C081E001C080E080FD03C081E08627D5
:1058400001C080E0F82FF170FF2E80FF1CC0809116
:1058500043052091440536E0821709F428C190E001
:10586000389FF001399FF00D1124EB5BFA4F7181E5
:10587000571306C07081471303C07281671303C0BA
:1058800001968770E9CFD62E662309F436C1809140
:105890007A05816080937A0553C0E51308C07413BC
:1058A00006C0611104C0D8011596FC93AEC04D87A7
:1058B0005E878D859E856A8B0E94C52A6A898823AA
:1058C00029F1D62E662311F120917A05822F829537
:1058D0008F7090E002970CF460C0809175059091F4
:1058E000760598878F831986FB86EA862C87CE01FA
:1058F000079651C0E51731F14D875E878D859E85EE
:105900006A8B0E94C52A6A8981112EC0C8010E9433
:105910004D28A4C08F2F807F69F77E2DF98AE88AF1
:1059200089890E94EA2A85E795E00E944D28E5E7EB
:10593000F5E086E0DF011D928A95E9F70E942A2BA7
:10594000D12CDBC07413D8CF6111D6CFD8011596F6
:10595000FC93C8010E944D28E5E7F5E086E0DF01F1
:105960001D928A95E9F7C9C0D62E662379F2209157
:105970007A05822F82958F7090E0029774F0809163
:105980007505909176059A8389831B82FD82EC824E
:105990002E83CE0101960E944D2886E0F801A5E7EE
:1059A000B5E001900D928A95E1F70E94382B6FC007
:1059B000E216F30628F0C701821B930B9C0104C07A
:1059C000209530952E0D3F1D243B310508F052C027
:1059D000D62E662309F49ACFE5132CC074132AC07F
:1059E00080917A0580FD1DC0982F92959F70C9F017
:1059F000D80115968C9315979F3039F09F5F92953B
:105A0000907F8F70892B15968C93C8010E944D282A
:105A100086E0F801A5E7B5E001900D928A95E1F7DF
:105A200036C086E0F801A5E7B5E001900D928A95B1
:105A3000E1F763C04D875E878D859E850E94C52AEC
:105A4000882379F086E0F801A5E7B5E001900D9292
:105A50008A95E1F70E94382B0E942A2BDD24D394EB
:105A60004CC080917A05816080937A05C8010E94BC
:105A70004D2843C07E2DF98AE88A89890E94EA2A46
:105A8000E5E7F5E086E0DF011D928A95E9F70E94DF
:105A90002A2B33C0662309F439CF4D875E878D8565
:105AA0009E850E94C52A882309F430CFCBCF4D872D
:105AB0005E878D859E850E94E72E292F22952F7067
:105AC00030E0223031052CF49F7041F0811106C086
:105AD0000CC0243031052CF49F7049F4805E88306E
