:100000000C947B000C94CA000C94CA000C94CA0097
:100010000C94CA000C94CA000C94CA000C94CA0038
:100020000C94CA000C94CA000C9437230C94092435
:100030000C942A310C94CA000C94CA000C94CA0087
:100040000C94CA000C94CA000C94CA000C94CA0008
:100050000C94CA000C94B1100C94CA000C94CA0001
:100060000C94CA000C94CA000C94CA000C94CA00E8
:100070000C94CA000C94CA000C94CA000C94CA00D8
:100080000C94CA000C94CA000C94CA000C94CA00C8
:100090000C94CA000C94CA000C94CA000C94CA00B8
:1000A0000C94CA000C94CA000C94CA0069248924D8
:1000B000412589244125CB24EE24412510252325E3
:1000C00073287328A128A128DA28F9280F2B0F2BD1
:1000D00011290F2B082A082AE72A0F2B0F2BFC2A9D
:1000E000014E024E00014D024D00014B024B00013A
:1000F0004A024A00C90E11241FBECFEFDAE0DEBF6C
:10010000CDBF04B603FE24C080911E0590911F054B
:10011000A0912005B09121058730904BA740B04BAE
:10012000B9F410921E0510921F051092200510922E
:10013000210514BE84B7877F84BF88E10FB6F89489
:1001400080936000109260000FBEE0E0F8E3099534
:1001500013E0A0E0B1E0E0EBFBE602C005900D92F9
:10016000A835B107D9F715E0A8E5B3E001C01D92A5
:10017000AE31B107E1F710E0C6EFD0E004C022973E
:10018000FE010E948E35C43FD107C9F70E94AF0F10
:100190000C94D6350C940000CF93DF93EC016130C2
:1001A000A9F020F0623009F45FC068C08A8188231A
:1001B00009F452C00E94CB3081FF06C00E94CB30B0
:1001C00080FD02C085E341C089E23FC0423009F1B1
:1001D00048F4442389F0413061F584E380935A0365
:1001E00088E225C04430F9F0C8F0453011F581E3CC
:1001F00080935A038AE21BC00E94CB3082FF02C068
:100200008DE301C089E280935B0385E380935A0309
:1002100010C088E380935A0387E309C088E3809382
:100220005A0382E504C083E380935A038FE08093EE
:100230005B038A81882381F00E94CB3085FF03C055
:1002400080915A0302C080915B0380935C0380918C
:100250005C030E94AA2704C080915C030E94FE27D1
:10026000DF91CF910C9473308A81882339F081E03B
:1002700090910905911180E080930905DF91CF915C
:100280000895662319F06130C1F027C0FC01828116
:10029000882339F00E94701090935903809358037B
:1002A0001CC080915803909159030E948810893C8A
:1002B0009105B4F08FEE90E00895FC0182818111E8
:1002C000E9CF80915803909159030E948810893C8E
:1002D00091054CF085EE90E0089580E090E008955F
:1002E0008AEE90E0089580EE90E00895462F50E069
:1002F000672F70E090E00E94FB33089590E0805CEF
:1003000091090E94F533089580E00895089580E0F2
:10031000089581E00895CF93DF93CDB7DEB7289796
:100320000FB6F894DEBF0FBECDBFE22F29833A830C
:100330004B835C836D837E838F8398878091870452
:10034000E82BE0938704FE0133969E01275F3F4F21
:100350004191443088F0A9E8B4E080E090E05D91FC
:10036000511106C0DC01A957BB4F12964C9304C033
:1003700001968630910599F7E217F30749F7289619
:100380000FB6F894DEBF0FBECDBFDF91CF910895B9
:10039000860F911D860F911DFC01518B408B81E0D2
:1003A0000895860F911D860F911DFC015687458784
:1003B00081E00895860F911D860F911DFC015687DF
:1003C000458781E00895CF93DF93EC018C819D8177
:1003D000DC01ED91FC910480F581E02D6E810995A1
:1003E0001F86188A81E08A8B1E821B8A1C8A1D8ABE
:1003F0001E8A1F8A80E0DF91CF910895FC018681DB
:10040000089581E0633009F080E0089581E0623072
:1004100009F080E00895860F911D860F911DFC0163
:10042000858596850895FC0187890895EF92FF924E
:10043000CF93DF93FC01E7012289223029F16787FE
:10044000408B8B8183708330F9F48A8187FF1CC0D5
:100450008E81908D981708F4808F822F90E0DC01B8
:10046000AA0FBB1FA80FB91FAE0FBF1F8A818F70C5
:1004700017968C9317978C8118968C93189784E015
:1004800019968C932F5F228BDF91CF91FF90EF9085
:100490000895EF92FF920F9302970E9416020F9118
:1004A000FF90EF900895CF93DF93EC018C819D81B5
:1004B000DC01ED91FC910480F581E02D6E810995C0
:1004C0001F86188A81E08A8B1E821B8A1C8A1D8ADD
:1004D0001E8A1F8A80E0DF91CF910895FC018681FA
:1004E000089581E0633009F080E0089581E0613093
:1004F00009F080E00895860F911D860F911DFC0183
:10050000858596850895FC0187890895EF92FF926D
:10051000CF93DF93FC01E7012289223029F167871D
:10052000408B8B8183708330F9F48A8187FF1CC0F4
:100530008E81908D981708F4808F822F90E0DC01D7
:10054000AA0FBB1FA80FB91FAE0FBF1F8A818F70E4
:1005500017968C9317978C8118968C93189784E034
:1005600019968C932F5F228BDF91CF91FF90EF90A4
:100570000895EF92FF920F9302970E9486020F91C7
:10058000FF90EF900895CF93DF93EC018C819D81D4
:10059000DC01ED91FC910480F581E02D6E810995DF
:1005A0001C8A1D8A81E08F8B1E82188E198E1A8EEE
:1005B0001B8E1C8E80E0DF91CF910895FC01868117
:1005C000089581E0633009F080E0089581E06330B0
:1005D00009F080E00895860F911D860F911DFC01A2
:1005E000808991890895FC01848D0895EF92FF928E
:1005F000CF93DF93FC01E7012789233029F1648B36
:10060000458B8B8183708330F9F48A8187FF1CC00E
:100610008E81958D981708F4858F822F90E0DC01EC
:10062000AA0FBB1FA80FB91FAE0FBF1F8A818F7003
:1006300017968C9317978C8118968C93189784E053
:1006400019968C932F5F278BDF91CF91FF90EF90BE
:100650000895EF92FF920F9302970E94F6020F9176
:10066000FF90EF9008950895DF92EF92FF920F931D
:100670001F93CF93DF93CDB7DEB762970FB6F89491
:10068000DEBF0FBECDBF7C01DC0157968C91882365
:1006900069F00E941710F7010389148925893689AA
:1006A000601B710B820B930B97FF02C0D12C38C0DB
:1006B000F701838590E09A8B898B8E010F5F1F4F26
:1006C0009E012F5E3F4F42856681848195810E9405
:1006D000A417D82E811118C029893A8923303105F1
:1006E00098F0D7011D968D919C911E97009761F00F
:1006F000DC01ED91FC910190F081E02D8E010F5F06
:100700001F4F40E0B70109950E941710F701208D97
:10071000620F711D811D911D638B748B858B968B70
:100720008D2D62960FB6F894DEBF0FBECDBFDF9160
:10073000CF911F910F91FF90EF90DF900895DF927E
:10074000EF92FF920F931F93CF93DF93CDB7DEB756
:1007500062970FB6F894DEBF0FBECDBF7C01DC01FF
:1007600057968C91882369F00E941710F70103892E
:10077000148925893689601B710B820B930B97FFB7
:1007800002C0D12C38C0F701838590E09A8B898B09
:100790008E010F5F1F4F9E012F5E3F4F4285668186
:1007A000848195810E94A417D82E811118C02989AF
:1007B0003A892330310598F0D7011D968D919C918F
:1007C0001E97009761F0DC01ED91FC910190F081A2
:1007D000E02D8E010F5F1F4F40E0B70109950E9489
:1007E0001710F701208D620F711D811D911D638B04
:1007F000748B858B968B8D2D62960FB6F894DEBF29
:100800000FBECDBFDF91CF911F910F91FF90EF9061
:10081000DF9008959F92AF92BF92CF92DF92EF92B6
:10082000FF920F931F93CF93DF93CDB7DEB76297FD
:100830000FB6F894DEBF0FBECDBF7C01DC015C9625
:100840008C91882309F45AC00E941710F701008D7B
:10085000118D228D338D601B710B820B930B97FDD5
:100860004DC05701C12CD12CF701EC0DFD1D838526
:1008700090E09A8B898B8E010F5F1F4F9E012F5E38
:100880003F4F4285D70116966C91169714968D911D
:100890009C9115970E94A417982E811116C0298942
:1008A0003A892330310588F0F501808991890097D4
:1008B00061F0DC01ED91FC910190F081E02D8E0161
:1008C0000F5F1F4F40E0B7010995B3E0CB0ED11C7D
:1008D000E2E0AE0EB11CF6E0CF16D10429F60E947C
:1008E0001710D7015D962C91620F711D811D911D0E
:1008F000F701608F718F828F938F01C0912C892DAA
:1009000062960FB6F894DEBF0FBECDBFDF91CF91D8
:100910001F910F91FF90EF90DF90CF90BF90AF901D
:100920009F9008953F924F925F926F927F928F9225
:100930009F92AF92BF92CF92DF92EF92FF920F936E
:100940001F93CF93DF93CDB7DEB7EB970FB6F89435
:10095000DEBF0FBECDBF7C01462E342E522EDC01F1
:100960001496AD90BC90159716968C9116978111A0
:1009700011C158961C92D501ED91FC910190F08126
:10098000E02D60E0C50109956C01009711F486ED3A
:100990000BC1FC01808091808114910409F4FCC09A
:1009A0003701F7E06F0E711CDC0111967C926E929C
:1009B00014965C928E01065D1F4F28E030E040E007
:1009C00060E0F701848195810E94A316182F8111A0
:1009D000E7C01AA5D6018D929C92D501ED91FC91AC
:1009E0000280F381E02D232D40E0642DC50109959F
:1009F000F7018683882309F4D1C099A99087282F0D
:100A000040E060E0848195810E945017982ED501C6
:100A1000ED91FC91D60114961C92882361F004801C
:100A2000F581E02DD70116966C91C5010995F70166
:100A30001682892DB9C00190F081E02DD70116965C
:100A40006C91C5010995009709F4A1CF133108F005
:100A500012E1FC01548211110FC04BAC512C63E226
:100A6000A62E61E0B62E4701F2E08F0E911C6E01BA
:100A700081E1C80ED11C39C0212F30E08E01065D06
:100A80001F4F40E0D70116966C91169714968D91E2
:100A90009C9115970E94A316182F811171C0DDCF6C
:100AA000BA82A9829C828B821E86188A1F8619A20E
:100AB0001AA21BA219A6DF82CE82D986C8868D8192
:100AC0008B878A87DD86CC868E010F5F1F4F252D91
:100AD00040E0F7016681848195810E94F116D7017B
:100AE00052968C91823019F053945410D9CFF7015B
:100AF0008289823009F043C0930142E0668184819B
:100B000095810E941A1268EE73E080E090E00E94E6
:100B10001910D7011F962C911F9740E016966C91E3
:100B2000169714968D919C9115970E947F17182FF8
:100B3000811126C068EE73E080E090E00E941910F9
:100B400040E060E0C7010E94301B182F811118C0DF
:100B500020E040E060E0C7010E94061B89E291E0CE
:100B60009A838983AE014F5F5F4F60E070E0C701F9
:100B70000E94951A81E0F701878B80E015C011ED86
:100B8000D701ED91FC910480F581E02DC701099515
:100B9000812F0AC089ED08C087ED06C084ED04C02E
:100BA000F60191828082ECCFEB960FB6F894DEBF0F
:100BB0000FBECDBFDF91CF911F910F91FF90EF90AE
:100BC000DF90CF90BF90AF909F908F907F906F906D
:100BD0005F904F903F9008953F924F925F926F9237
:100BE0007F928F929F92AF92BF92CF92DF92EF92BD
:100BF000FF920F931F93CF93DF93CDB7DEB7EC97A0
:100C00000FB6F894DEBF0FBECDBF5C01462E342E6A
:100C1000522EDC011496CD90DC90159716968C918F
:100C20001697811131C15D961C92D601ED91FC9110
:100C30000190F081E02D60E0C60109957C010097EC
:100C400011F486ED26C1FC0180809180811491040D
:100C500009F41CC13501F7E06F0E711CDC0111961F
:100C60007C926E9214965C928E01065D1F4F28E076
:100C700030E040E060E0F501848195810E94A31698
:100C80008CAF8111F4C01AA5D7018D929C92D60128
:100C9000ED91FC910280F381E02D232D40E0642D45
:100CA000C6010995F5018683882309F4F1C099A945
:100CB0009087282F40E060E0848195810E94501742
:100CC0008CAFD601ED91FC91D70114961C9288232C
:100CD00059F00480F581E02DD50116966C91C6017E
:100CE0000995F5011682CEC00190F081E02DD50165
:100CF00016966C91C6010995009709F4A2CF13319D
:100D000008F012E1FC015482112389F0212F30E018
:100D10008E01065D1F4F40E0D50116966C91169727
:100D200014968D919C9115970E94A3168CAF8CAD53
:100D30008111A0C0EBAC87E191E09A838983C50162
:100D400002969C838B831E86188A1F8619A21AA27C
:100D50001BA2CE0141969F838E83998788872D8120
:100D60002B872A879D878C8781E089A7F12CFE1429
:100D700081F08E010F5F1F4F2F2D40E0F50166813E
:100D8000848195810E94F116D50157968C9183300C
:100D900039F4F5018789833029F081ED8CAF6AC081
:100DA000F394E5CF930143E06681848195810E94AD
:100DB0001A128CAF68EE73E080E090E00E94191088
:100DC000F501248940E06681848195810E947F1726
:100DD0008CAF81114FC068EE73E080E090E00E941C
:100DE0001910E12CF12C09E211E040E06E2DC50153
:100DF0000E94301B8CAF81113DC020E040E06E2D81
:100E0000C5010E94061B8CAF1A830983AE014F5F98
:100E10005F4FB701C5010E94951A8CAFFFEFEF1A23
:100E2000FF0A82E0E816F10401F780E28CAF8CAD96
:100E30008823C1F090E0959587958CAFDE01DC9614
:100E40006D01EE24E394F12C00E022E040E060E04C
:100E5000C5010E94D81A69E170E080E090E00E942C
:100E60001910E5CF81E0F501848F80E012C0F70111
:100E700091828082D501ED91FC910480F581E02D75
:100E8000C50109958CAD05C089ED03C087ED01C092
:100E900084EDEC960FB6F894DEBF0FBECDBFDF91A8
:100EA000CF911F910F91FF90EF90DF90CF90BF9067
:100EB000AF909F908F907F906F905F904F903F90FA
:100EC00008953F924F925F926F927F928F929F927E
:100ED000AF92BF92CF92DF92EF92FF920F931F9348
:100EE000CF93DF93CDB7DEB7EC970FB6F894DEBFA4
:100EF0000FBECDBF5C01462E342E522EDC0114965F
:100F0000CD90DC90159716968C911697811139C16A
:100F100058961C92D601ED91FC910190F081E02D44
:100F200060E0C60109957C01009711F486ED2EC1A1
:100F3000FC01808091808114910409F424C1350161
:100F4000F7E06F0E711CDC0111967C926E92149684
:100F50005C928E01065D1F4F28E030E040E060E0CB
:100F6000F501848195810E94A3168CAF8111FCC08C
:100F70001AA5D7018D929C92D601ED91FC91028029
:100F8000F381E02D232D40E0642DC6010995F50184
:100F90008683882309F4F9C099A99087282F40E017
:100FA00060E0848195810E9450178CAFD601ED914D
:100FB000FC91D70114961C92882359F00480F58186
:100FC000E02DD50116966C91C6010995F5011682A2
:100FD000D6C00190F081E02DD50116966C91C60126
:100FE0000995009709F4A2CF133108F012E1FC0132
:100FF0005482112389F0212F30E08E01065D1F4FAE
:1010000040E0D50116966C91169714968D919C919F
:1010100015970E94A3168CAF8CAD8111A8C04BAC64
:10102000512CBDE1CB2EB1E0DB2E4501B2E08B0EA1
:10103000911C7E01E1E1EE0EF11C541449F1DA82BB
:10104000C9829C828B821E86188A1F8619A21AA2C8
:101050001BA219A6FF82EE82F986E8868D818B8716
:101060008A87FD86EC868E010F5F1F4F252D40E09D
:10107000D50116966C91169714968D919C911597A3
:101080000E94F116F5018289823011F05394D5CF78
:10109000D50152968C91823019F081ED8CAF67C0EA
:1010A000930142E0F5016681848195810E941A12C4
:1010B0008CAF68EE73E080E090E00E941910D501DB
:1010C0001F962C911F9740E016966C9116971496D8
:1010D0008D919C9115970E947F178CAF811147C00D
:1010E00068EE73E080E090E00E94191040E060E05C
:1010F000C5010E94301B8CAF811139C020E040E057
:1011000060E0C5010E94061B8CAF89E291E09A83E2
:101110008983AE014F5F5F4F60E070E0C5010E94C0
:10112000951A80E28CAF8CAD8823C1F090E0959544
:1011300087958CAFFE01FC966F01EE24E394F12CB1
:1011400000E022E040E060E0C5010E94D81A69E1B9
:1011500070E080E090E00E941910E5CF81E0D501B9
:1011600057968C9380E012C0F70191828082D5015E
:10117000ED91FC910480F581E02DC50109958CADC0
:1011800005C089ED03C087ED01C084EDEC960FB674
:10119000F894DEBF0FBECDBFDF91CF911F910F91AD
:1011A000FF90EF90DF90CF90BF90AF909F908F9087
:1011B0007F906F905F904F903F9008959C01E0E08A
:1011C000F0E0D901AA5ABF4F4D915C91452B49F4EB
:1011D000BB96EE0FFF1FE80FF91F7183608380E05D
:1011E000089531962E5F3F4FE031F10551F783EDC1
:1011F0000895CF93DF93FC01DA018281882319F0EF
:101200008130D9F01FC03483238381E0828315C0ED
:101210002D913C911197232BA9F0019794838383FF
:10122000EB01888199810196998388838D919C91A6
:101230001197019711969C938E93838194810097C7
:1012400039F7128281E023813481232B09F080E079
:10125000DF91CF9108952F923F924F925F926F92BC
:101260007F928F929F92AF92BF92CF92DF92EF9236
:10127000FF920F931F93CF93DF9300D000D0CDB791
:10128000DEB76C017C836B835A8349834C0180E118
:10129000880E911C5601A7E0AA0EB11C332433948A
:1012A0002601BBE04B0E511C3601E2E16E0E711CB3
:1012B00033E0232E12E08B819C81892B09F4F5C049
:1012C000D60190968C91823069F128F4882349F0F8
:1012D000813081F0F0CF833049F1843009F457C078
:1012E000EACFF601148385819681908787831287E0
:1012F000118730A2AE014D5F5F4FBE016F5F7F4F20
:10130000C5010E942F1F882309F4CFC0D60115966E
:10131000ED91FC911697808191968C9391978181A4
:1013200092968C93F6017682658220A2D6019296DF
:101330008C91843069F018F4823061F013C08530EC
:1013400071F0813279F4F60181A1825084830AC060
:10135000F60113A2E7E0D6011496EC9303C0D60180
:1013600014968C93D60115968D919C91169718968C
:101370009C938E93179714968C9114971A968C932E
:101380001A9719968C931997E4E09096EC93D601EE
:1013900092968C918430B1F0853009F442C082304D
:1013A00009F06BC0AE014D5F5F4FBE016F5F7F4FB5
:1013B000C5010E942F1F882309F477C0F601858993
:1013C00084A36BC0AE014D5F5F4FBE016F5F7F4F67
:1013D000C5010E942F1F882309F467C0D6015596C6
:1013E0008C915597833009F058C056968C9156973A
:1013F000813009F052C098969C91989757968C919D
:10140000992321F0882309F448C003C0823009F0F1
:1014100044C0F60133A2928996A3938997A385A32A
:101420003CC0AE014D5F5F4FBE016F5F7F4FC50196
:101430000E942F1F8823C9F1D60193968C91939710
:10144000882359F112968D919C911397009729F159
:10145000DC01ED91FC910190F081E02D7401D60149
:1014600095960C91959797962C91979796964C9167
:10147000969794966C91099510C0F60121A130E0E1
:1014800022503109AE014D5F5F4FBE016F5F7F4F4C
:10149000C2010E94F908882341F0D60116969C9259
:1014A0008E92159790961C9206CF0F900F900F90EA
:1014B0000F90DF91CF911F910F91FF90EF90DF90F0
:1014C000CF90BF90AF909F908F907F906F905F90E4
:1014D0004F903F902F9008952F923F924F925F929E
:1014E0006F927F928F929F92AF92BF92CF92DF9234
:1014F000EF92FF920F931F93CF93DF9300D000D012
:10150000CDB7DEB76C017C836B835A8349834C0172
:1015100080E1880E911C5601A7E0AA0EB11C33246D
:1015200033942601BBE04B0E511C3601E2E16E0EF6
:10153000711C43E0242E12E08B819C81892B09F4DD
:10154000F5C0D60190968C91823069F128F48823F9
:1015500049F0813081F0F0CF833049F1843009F4D3
:1015600057C0EACFF60114838581968190878783DF
:101570001287118730A2AE014D5F5F4FBE016F5FD2
:101580007F4FC5010E942F1F882309F4CFC0D601C9
:101590001596ED91FC911697808191968C93919779
:1015A000818192968C93F6017682658220A2D60183
:1015B00092968C91843069F018F4823061F013C0F7
:1015C000853071F0813279F4F60181A182508483F3
:1015D0000AC0F60113A2E7E0D6011496EC9303C00B
:1015E000D60114968C93D60115968D919C911697E1
:1015F00018969C938E93179714968C9114971A961D
:101600008C931A9719968C931997E4E09096EC9323
:10161000D60192968C918430B1F0853009F442C0A5
:10162000823009F06BC0AE014D5F5F4FBE016F5F4E
:101630007F4FC5010E942F1F882309F477C0F60150
:10164000858984A36BC0AE014D5F5F4FBE016F5FA4
:101650007F4FC5010E942F1F882309F467C0D60160
:1016600055968C915597833009F058C056968C91B9
:101670005697813009F052C098969C91989757964A
:101680008C91992321F0882309F448C003C081304C
:1016900009F044C0F60133A2928996A3938997A3D7
:1016A00085A33CC0AE014D5F5F4FBE016F5F7F4FB2
:1016B000C5010E942F1F8823C9F1D60193968C91F2
:1016C0009397882359F112968D919C9113970097C7
:1016D00029F1DC01ED91FC910190F081E02D740184
:1016E000D60195960C91959797962C9197979696EB
:1016F0004C91969794966C91099510C0F60121A192
:1017000030E022503109AE014D5F5F4FBE016F5F87
:101710007F4FC2010E94F908882341F0D601169636
:101720009C928E92159790961C9206CF0F900F90D8
:101730000F900F90DF91CF911F910F91FF90EF903D
:10174000DF90CF90BF90AF909F908F907F906F90E1
:101750005F904F903F902F9008952F923F924F921D
:101760005F926F927F928F929F92AF92BF92CF9231
:10177000DF92EF92FF920F931F93CF93DF9300D0EE
:1017800000D0CDB7DEB76C017C836B835A8349836D
:101790004C0180E1880E911C5601A7E0AA0EB11CF5
:1017A000332433942601BBE04B0E511C3601E2E199
:1017B0006E0E711C53E0252E12E08B819C81892BCB
:1017C00009F4F5C0D60190968C91823069F128F425
:1017D000882349F0813081F0F0CF833049F18430A3
:1017E00009F457C0EACFF60114838581968190876A
:1017F00087831287118730A2AE014D5F5F4FBE0114
:101800006F5F7F4FC5010E942F1F882309F4CFC04F
:10181000D6011596ED91FC911697808191968C9347
:101820009197818192968C93F6017682658220A2AF
:10183000D60192968C91843069F018F4823061F070
:1018400013C0853071F0813279F4F60181A18250A4
:1018500084830AC0F60113A2E7E0D6011496EC9344
:1018600003C0D60114968C93D60115968D919C9148
:10187000169718969C938E93179714968C9114979D
:101880001A968C931A9719968C931997E4E0909670
:10189000EC93D60192968C918430B1F0853009F4A6
:1018A00042C0823009F06BC0AE014D5F5F4FBE0198
:1018B0006F5F7F4FC5010E942F1F882309F477C0F7
:1018C000F601858984A36BC0AE014D5F5F4FBE01F9
:1018D0006F5F7F4FC5010E942F1F882309F467C0E7
:1018E000D60155968C915597833009F058C056967D
:1018F0008C915697813009F052C098969C91989798
:1019000057968C91992321F0882309F448C003C08D
:10191000833009F044C0F60133A2928996A39389DB
:1019200097A385A33CC0AE014D5F5F4FBE016F5FC3
:101930007F4FC5010E942F1F8823C9F1D6019396BE
:101940008C919397882359F112968D919C911397BE
:10195000009729F1DC01ED91FC910190F081E02DDF
:101960007401D60195960C91959797962C9197971F
:1019700096964C91969794966C91099510C0F601A5
:1019800021A130E022503109AE014D5F5F4FBE0111
:101990006F5F7F4FC2010E94F908882341F0D60192
:1019A00016969C928E92159790961C9206CF0F9049
:1019B0000F900F900F90DF91CF911F910F91FF909B
:1019C000EF90DF90CF90BF90AF909F908F907F90DF
:1019D0006F905F904F903F902F90089588E008950A
:1019E00080E108950F931F93CF93DF9300D000D031
:1019F0001F92CDB7DEB72091B3033091B40340916D
:101A00006103509162038091A7039091A80324176A
:101A1000350739F440915F035091600384179507AF
:101A2000B9F1309362032093610390936003809334
:101A30005F03E7E8F4E088E0DF011D928A95E9F7AB
:101A40002091AB033091AC034091AD035091AE03B4
:101A50006091AF037091B0038091B1039091B20394
:101A60000E948B0120919F033091A0034091A1031C
:101A70005091A2036091A3037091A4038091A503E8
:101A80009091A6030E948B0181E08093850402C09F
:101A90001092850480916A0390916B0320915D03FD
:101AA00030915E032817390709F453C090935E0301
:101AB00080935D039091670380916803911102C048
:101AC000882381F000910F051091100590930F0568
:101AD000809310058EE095E00E94822600930F050A
:101AE0001093100580916903882321F0813071F0F3
:101AF0008F3F71F08091660390918604981749F1A9
:101B00008093860481E08093850423C08DE701C023
:101B10008EE797E09A838F70898381E08B830E94A0
:101B200070108160782F9D838C8349815A816B81ED
:101B30008D810E9468271B820E9470108160782F1F
:101B40009D838C8349815A816B818D810E94682796
:101B5000D1CF0E9470108C018EE094E00E949C19FD
:101B6000C8010E94881081E00F900F900F900F9095
:101B70000F90DF91CF911F910F910895282F30E0A2
:101B8000C90174E0880F991F7A95E1F78057910990
:101B9000089730F480918704882311F090E002C008
:101BA00080E090E0A90164E0440F551F6A95E1F7D9
:101BB000405751094031510570F440918604442347
:101BC00051F040FD916041FD926042FD946043FD03
:101BD000986044FD9061E9E8F4E041E050E06191F3
:101BE0006430B8F06B3221F0633311F0683309F4DC
:101BF00060E0A62FA295AF70B0E02A173B0749F42A
:101C00006F70DA0102C0AA0FBB1F6A95E2F78A2B38
:101C10009B2BB4E0EF38FB0711F708950895569A0F
:101C200081FF02C05E9A08955E9808952E9A0895E5
:101C30002E988EBD0DB407FEFDCF1EBC0DB407FE61
:101C4000FDCF0E94160E8EB508952E9882608EBD2F
:101C50000DB407FEFDCF6EBD0DB407FEFDCF0C9495
:101C6000160E88EF0E94180E807C8034A1F018F4C4
:101C7000882301F10895803819F0803CB9F0089567
:101C800088ED0E94180E81FD0BC069EC88ED0E9462
:101C9000250E82E00CC088ED0E94180E81FDF5CF64
:101CA0006BEC88ED0E94250E83E001C081E08093FB
:101CB0006303089561ED88ED0E94250E1092630381
:101CC00008950F931F93CF93DF938C01269A0E9460
:101CD000160E219A229A2398209A80E58CBD81E0E5
:101CE0008DBD259868E188E80E94250E60E288E7AE
:101CF0000E94250E60E088E70E94250EC0E0D0E03B
:101D000088E60E94180E219680FD06C0CF3F8FEF17
:101D1000D807B1F78FEF1DC061EC88ED0E94250E4A
:101D200060E680ED0E94250E64E088EE0E94250E9C
:101D300088EE0E94180E82FFFBCFC8010E94310E70
:101D400060E288EC0E94250E61E080E80E94250E8A
:101D500080E0DF91CF911F910F9108958EE094E084
:101D60000E94610E89EA93E09093DF038093DE0383
:101D700084E693E09093E1038093E0032DE933E060
:101D80003093C3032093C20390937A038093790323
:101D90000895EF92FF920F931F93CF93DF938EE0FE
:101DA00094E00E94D6106EE074E08DEF93E00E9404
:101DB000BE1D6EE074E08CEE93E00E94BE1DCEE08E
:101DC000D4E0D093D303C093D2038FE291E09093F9
:101DD000CF038093CE038DE491E09093D103809361
:101DE000D0031092E6031092E7031092E8031092DA
:101DF000E9031092EA031092D503E8E0EE2EE09298
:101E0000D603FCE3FF2EF092D7031092D803109272
:101E1000D90314E01093DA031092DB031092DC0371
:101E20001093DD0301E00093E5031092E4031092A8
:101E3000E2031092DF031092DE031092E10310928E
:101E4000E0036EEC73E0CE010E94DE08D093BA038B
:101E5000C093B90383E591E09093B6038093B503F3
:101E600081E791E09093B8038093B7031092C80381
:101E70001092C9031092CA031092CB031092CC03A4
:101E80001092BC03E092BD03F092BE031092BF0318
:101E90001092C0031093C1030093C7031092C603AE
:101EA0001092C4031092C3031092C20365EB73E057
:101EB000CE010E94DE088BE991E09093AA03809303
:101EC000A90390939E0380939D0390939203809324
:101ED00091039093860380938503D0937103C093FD
:101EE000700387E791E090936D0380936C0385E91D
:101EF00091E090936F0380936E0310927F03109292
:101F00008003109281031092820310928303109237
:101F10007303E0927403F0927503109276031092AB
:101F200077031093780300937E0310927D03109241
:101F30007B0310927A03109279036CE673E0CE0172
:101F40000E94DE0881EA91E0909365038093640328
:101F5000DF91CF911F910F91FF90EF90089580E056
:101F600091E00E9466260E94A32684B7877F84BFE3
:101F700088E10FB6F89480936000109260000FBE65
:101F800090E080E80FB6F894809361009093610030
:101F90000FBE0E94BE220E9419238091E20084603D
:101FA0008093E2007894809115058430E1F7809168
:101FB000070580FF09C02FEF83ED90E3215080409B
:101FC0009040E1F700C0000081E080938F040E9400
:101FD000A926FDCF0F931F93CF93DF93EC01DC0174
:101FE000129688E0F80101900D928A95E1F70E941F
:101FF00017107B876A87DF91CF911F910F9108950A
:102000000F931F93CF93DF93EC01F801408151812F
:10201000628173814A835B836C837D830E94171086
:102020007F836E83DF91CF911F910F9108950C9460
:102030007C108F929F92AF92BF92CF92DF92EF92DD
:10204000FF920E945F344B015C0120E030E04AE7E0
:1020500055E40E9415356B017C0120E030E040E83A
:102060005FE30E942A3487FD24C020E03FEF4FE762
:1020700057E4C701B6010E9411351816ACF420E0F0
:1020800030E040E251E4C501B4010E9415350E94E0
:10209000333420E931E06115710581F0C901019700
:1020A000F1F761507109F7CFC701B6010E943334CF
:1020B00002C061E070E0CB010197F1F7FF90EF9073
:1020C000DF90CF90BF90AF909F908F90089582E067
:1020D00084BD93E095BD9AEF97BD80936E000895FF
:1020E0002FB7F8948091900490919104A09192045C
:1020F000B09193042FBF08952FB7F8946091900486
:102100007091910480919204909193042FBF08954F
:10211000CF92DF92EF92FF920F931F932FB7F89415
:1021200040919004509191046091920470919304B5
:102130002FBF6A017B01EE24FF248C0120E030E0F8
:10214000C016D106E206F30610F441505109481BAF
:10215000590BCA011F910F91FF90EF90DF90CF9024
:1021600008951F920F920FB60F9211248F939F9391
:10217000AF93BF938091900490919104A0919204A9
:10218000B09193040196A11DB11D8093900490938A
:102190009104A0939204B0939304BF91AF919F9147
:1021A0008F910F900FBE0F901F901895FC0187EA3A
:1021B00091E0918380831582108681E08187128669
:1021C0009F012E5F3F4F37832683128288E08383EF
:1021D0008CE3848380E090E041E0DF01A80FB91F29
:1021E0001D961C921D971E964C931E971F961C922F
:1021F0001F971C963C932E931B9705968B34910545
:1022000061F7EA58FF4F108281E1809398040895A6
:10221000CF92DF92EF92FF920F931F93CF93DF93B2
:102220001F92CDB7DEB77C016623B1F18C01C12CC2
:10223000D12CF801EA5AFF4F80819181009719F162
:10224000DC01ED91FC910084F185E02D6983099515
:102250006981861318C0F601BB96EE0FFF1FEE0DC5
:10226000FF1D80819181DC01ED91FC910480F5815D
:10227000E02D0F90DF91CF911F910F91FF90EF9084
:10228000DF90CF900994BFEFCB1ADB0A0E5F1F4F90
:10229000E0E1CE16D10469F680E00F90DF91CF9196
:1022A0001F910F91FF90EF90DF90CF90089520E065
:1022B00030E041E0FC01E20FF31F5585561739F07D
:1022C0004F5F2B5F3F4F4031A9F780E00895842F87
:1022D0000895EF92FF921F93CF93DF9300D0CDB775
:1022E000DEB77C01162F67FD5FC0283008F05CC0A8
:1022F000442331F0DC0115968C91873009F454C0E9
:1023000060E0C7012A8349830E9457112A814981CD
:10231000882309F449C0E82FF0E0111123C085E0BB
:102320008E9FD0018F9FB00D1124AE0DBF1D442391
:1023300059F081E418968C93D70115968C911597D6
:102340008F5F15968C9303C081E018968C9385E07F
:102350008E9FD0018F9FB00D1124AE0DBF1D18961A
:102360008C9123C0612F6770660F660F660F442340
:1023700061F06064D70115968C9115978F5F159663
:102380008C938770687F682B03C02770687B622BF3
:1023900085E08E9FD0018F9FB00D1124AE0DBF1D23
:1023A00018966C93862F01C080E00F900F90DF91FC
:1023B000CF911F91FF90EF900895CF93DF93EC01A1
:1023C000611102C006960FC00E945711882349F080
:1023D0009E0145E0849F200D311D1124C901069600
:1023E00002C080E090E0DF91CF910895CF93DF931A
:1023F0001F92CDB7DEB749830E94DD114981009756
:1024000089F0DC01ED91FC911197309759F013960A
:102410009C9180E0891731F02081241731F03396A8
:102420008F5FF8CF80E090E001C0CF010F90DF9187
:10243000CF910895EF92FF921F93CF93DF931F9256
:10244000CDB7DEB7162F79012115310569F0498323
:102450000E94DD11FC014981009741F01283F18255
:10246000E082438380E003C088ED01C086ED0F90D9
:10247000DF91CF911F91FF90EF9008952E980895CE
:10248000CF93DF931F92CDB7DEB789830E943E12B0
:1024900089818EBD0DB407FEFDCF1EBC0DB407FEB5
:1024A000FDCF0E94160E8EB50F90DF91CF9108954B
:1024B000CF93DF9300D0CDB7DEB76A8389830E94C4
:1024C0003E12898182608EBD6A810DB407FEFDCF08
:1024D0006EBD0DB407FEFDCF0F900F90DF91CF9131
:1024E0000C94160E8F929F92BF92CF92DF92EF9232
:1024F000FF920F931F93CF93DF931F92CDB7DEB759
:102500004C01B62E690149830E94DD117C0149818D
:10251000009709F443C0FC0180819181892B09F463
:102520003FC06B2DC4010E94F611F6019183808398
:102530000097C1F1FC01228126952695822F90E01B
:10254000409764F441E050E060E070E004C0440F64
:10255000551F661F771F2A95D2F702C040E050E84A
:1025600041505109F801518340836B2D80EE0E9448
:10257000581288ED0E944012F7019481992339F096
:10258000F401EA58FF4F60816260682B02C0682F37
:10259000697F88ED0E94581280E005C086ED03C077
:1025A00087ED01C08BED0F90DF91CF911F910F91BF
:1025B000FF90EF90DF90CF90BF909F908F90089505
:1025C0008F929F92AF92BF92CF92DF92EF92FF9243
:1025D0000F931F93CF93DF931F92CDB7DEB7A62E35
:1025E000890149830E9417106B017C0188E8C80E9D
:1025F00083E1D81EE11CF11C812C912CB12C20E030
:102600004981A42A29830E9417106C197D098E091B
:102610009F09298197FF2DC06A2D80EF0E945812D3
:102620000E9417106C197D098E099F0997FF09C038
:1026300088EC0E94401287FFF3CF60E888EC0E948C
:10264000581288EF0E944012282F2F70243019F062
:102650002E3059F00EC0EFEF8E1A9E0A01151105AB
:1026600089F28016910671F604C0B394F3E0BF12AC
:10267000C9CF822F0F90DF91CF911F910F91FF90C3
:10268000EF90DF90CF90BF90AF909F908F90089584
:102690009F92AF92BF92CF92DF92EF92FF920F93F1
:1026A0001F93CF93DF937C01B42E122FAA24A394FF
:1026B000DC01A60FB11DA60FB11D6D0186E5C80E88
:1026C000D11CC42FD0E0AB96CC0FDD1FCE0DDF1D8B
:1026D000D6018D919C91DC01ED91FC910280F381FA
:1026E000E02D202F412F6B2D0995803EC1F4B110B4
:1026F0000BC061E088EE0E94581266E670E080E050
:1027000090E00E94191015C088819981DC01ED913B
:10271000FC910284F385E02D612F09950AC08D306C
:1027200031F48FEF8A0D833008F042C017C0811159
:1027300042C0F60180819181DC01ED91FC91019014
:10274000F081E02D202F412F6B2D0995982EBDE0B3
:102750008B130CC08FEF8A0D833050F464E670E069
:1027600080E090E00E941910A394B2CF882311F169
:10277000B1100BC061E088EE0E94581266E670E06E
:1027800080E090E00E94191011C0EB2DF0E0BB96A4
:10279000EE0FFF1FEE0DFF1D80819181DC01ED9199
:1027A000FC910284F385E02D612F0995892D03C0EA
:1027B0008DE001C080E0DF91CF911F910F91FF90DC
:1027C000EF90DF90CF90BF90AF909F9008950F93C0
:1027D0001F93CF93DF9300D0CDB7DEB78A016A8312
:1027E00089830E943E12898182608EBDF8016A81D0
:1027F000862F882339F00DB407FEFDCF91919EBD41
:102800008150F7CF060F111D0DB407FEFDCF0E94BA
:10281000160EC8010F900F90DF91CF911F910F916D
:1028200008952F923F924F925F926F927F928F9274
:102830009F92AF92BF92CF92DF92EF92FF920F934F
:102840001F93CF93DF9300D000D01F92CDB7DEB798
:102850007D836C835A016901FB0121808FEF820D1A
:10286000803408F06FC00E9417102B013C01F8E87B
:102870004F0EF3E15F1E611C711CEC81FD818281B2
:1028800080FF02C060E801C060E488EE0E94581238
:1028900020E0312CC114D10409F444C076012C1479
:1028A0003D0408F47101EA82A8016E2D80E10E94C6
:1028B000E7136E2D88E30E945812EC81FD81608140
:1028C000606280EF0E94581288EC0E94401287FFDD
:1028D000FBCF60E888EC0E94581288EF0E944012FB
:1028E000282F2F70812C912C1982222309F46BC080
:1028F0002B830E94171064197509860997092B818B
:1029000097FF61C0263001F12E3009F456C0243003
:1029100049F4FFEF8F1A9F0AA114B10459F18A14E8
:102920009B0441F588EF2B830E94401285FB88278A
:1029300080F9EC81FD81928180FB90F992832B815B
:10294000822F46C08AED44C088EF0E94401285FB6A
:10295000882780F991E08927EC81FD81928180FBB5
:1029600090F9928390FF02C060E801C060E488EEB5
:102970000E94581260E088E30E945812F8016081BA
:1029800080E10E9458126A8188E30E945812EC810B
:10299000FD816081606280EF0E94581288EC0E9485
:1029A000401287FFFBCF60E888EC0E94581288EF46
:1029B0000E944012282F2F7098CF89818F5F8983C2
:1029C0008330C1F6AFCFCE18DF080E0D1F1D62CFCA
:1029D0000F900F900F900F900F90DF91CF911F915C
:1029E0000F91FF90EF90DF90CF90BF90AF909F90AE
:1029F0008F907F906F905F904F903F902F900895B1
:102A00002F923F924F925F926F927F928F929F92FE
:102A1000AF92BF92CF92DF92EF92FF920F931F93EC
:102A2000CF93DF9300D000D0CDB7DEB75C017C83BD
:102A30006B834A017901F901C080D180FB0141809B
:102A4000F90111821082FB01828181FF02C060E2E4
:102A500001C060E188EE0E9458123C2C9401EB8189
:102A6000FC81408160E0C5010E94E012582EF6E032
:102A70008F1316C088EF0E9440128295817091E0FA
:102A80008927EB81FC81928180FB91F9928391FFF0
:102A900002C060E201C060E188EE0E945812DECF01
:102AA00081115AC088EC0E94401282FF53C080E31B
:102AB0000E944012282E282F30E0C216D30608F4B8
:102AC000232CF70120813181622C712CA601421B3D
:102AD000530B57FF02C040E050E0930146155705E5
:102AE0000CF49A0129833A830E943E12F8E0FEBD5D
:102AF0003A8129810DB407FEFDCFF801822F800FA6
:102B00008E1739F01EBC0DB407FEFDCF4EB54193B4
:102B1000F7CF020F131F0E94160E64E088EC0E948C
:102B20005812F70120813181260D371D3183208312
:102B3000241420F02C153D0508F490CF88EF0E9456
:102B4000401282958170EB81FC81928180FB91F92A
:102B5000928302C030EF532E852D0F900F900F906F
:102B60000F90DF91CF911F910F91FF90EF90DF9029
:102B7000CF90BF90AF909F908F907F906F905F901D
:102B80004F903F902F9008952F923F924F925F92D7
:102B90006F927F928F929F92AF92BF92CF92DF926D
:102BA000EF92FF920F931F93CF93DF93CDB7DEB7D2
:102BB00062970FB6F894DEBF0FBECDBF3C01542E16
:102BC000D22E402E5E2D2FA038A4E9A4FAA4188A94
:102BD0001F861E861D868E01035F1F4F9E01215F8B
:102BE0003F4F598B0E9472125989811193C0D9822B
:102BF0004A825B83CC82BE82AD8298868F82AE0190
:102C00004F5F5F4F68E080E20E94E7132D853E85AD
:102C1000452D60E1C3010E94E012182F811179C097
:102C2000BD2CBB1CBB24BB1CE114F10409F465C022
:102C3000EF85F8898281BB2009F452C082608283CB
:102C40006401AA24A394C114D10409F454C03C869D
:102C50002B864D855E856F85788987019E01255F6E
:102C60003F4FC3010E940015182F8630B1F42F8505
:102C7000388988EF298B3A8B0E94401285FB882780
:102C800080F98A2529893A89D90112969C9112974F
:102C900080FB91F912969C93D6CF81113AC0EBA597
:102CA000FCA53097A1F00190F081E02D0190F0811A
:102CB000E02DC4018C199D099A8789876B857C85D5
:102CC0009E01275F3F4FA7018BA59CA509958B858A
:102CD0009C85C81AD90A8215930508F0B4CF0DC097
:102CE000816082834D855E8587019101BF01C301AB
:102CF0000E941114182F11110CC02D853E85BB2088
:102D000011F060EA01C060E8452DC3010E94E012A5
:102D100001C0812F62960FB6F894DEBF0FBECDBF03
:102D2000DF91CF911F910F91FF90EF90DF90CF90A7
:102D3000BF90AF909F908F907F906F905F904F90DB
:102D40003F902F9008958F929F92AF92BF92CF9213
:102D5000EF920F931F931F921F921F930F933F9316
:102D60002F934901A12CB12CCC24C394E12C06E073
:102D700020E80E94C4150F900F900F900F900F90B5
:102D80000F901F910F91EF90CF90BF90AF909F90B9
:102D90008F9008958F929F92AF92BF92CF92EF92B1
:102DA000FF920F931F921F92FF92EF923F932F93E8
:102DB0004901A12CB12C52E0C52EE02E06E020E8FE
:102DC0000E94C4150F900F900F900F900F900F90CE
:102DD0000F91FF90EF90CF90BF90AF909F908F900A
:102DE00008953F924F925F926F927F928F929F923F
:102DF000AF92BF92CF92DF92EF92FF920F931F9309
:102E0000CF93DF93CDB7DEB7C054D1090FB6F89496
:102E1000DEBF0FBECDBF3C01562E442E322EB02E4B
:102E2000CE0101966C017C01022F29E030E0C30144
:102E30000E94CA1681111BC08B809C801F93BF9279
:102E4000DF92CF921F9280E48F93A12CB12C62E08D
:102E5000C62EE32C06E020E8442D652DC3010E9418
:102E6000C4150F900F900F900F900F900F90C05CB3
:102E7000DF4F0FB6F894DEBF0FBECDBFDF91CF910D
:102E80001F910F91FF90EF90DF90CF90BF90AF9088
:102E90009F908F907F906F905F904F903F9008959C
:102EA0008F929F92AF92BF92CF92EF920F93CF9358
:102EB0001F921F921F921F921F921F92812C912C82
:102EC000A12CB12CC12CE22E05E020E00E94C415FB
:102ED000C82F6CE271E080E090E00E9419100F9022
:102EE0000F900F900F900F900F908C2FCF910F910C
:102EF000EF90CF90BF90AF909F908F9008958F925A
:102F00009F92AF92BF92CF92EF920F931F921F9218
:102F10001F921F921F921F92812C912CA12CB12CD9
:102F2000C12CE22E09E020E00E94C4150F900F9002
:102F30000F900F900F900F900F91EF90CF90BF9048
:102F4000AF909F908F900895AF92BF92CF92DF92F3
:102F5000EF92FF920F931F93CF93DF9300D000D097
:102F6000CDB7DEB77C01690158011C821B821A8231
:102F700019828E010F5F1F4F9E012D5F3F4F0E94F0
:102F80007212811109C049815A816B817C8185014E
:102F90009601C7010E9400150F900F900F900F909F
:102FA000DF91CF911F910F91FF90EF90DF90CF9025
:102FB000BF90AF900895CF92DF92FF920F931F932F
:102FC000CF93DF9300D0CDB7DEB76C01662309F451
:102FD00042C0062F10E085E0689FB0011124F60181
:102FE000E60FF71F8085282F277086FF19C031E074
:102FF000E5E0FE2EF601F39EE00DF11D1124808523
:1030000086958695869587708217E1F03F5F30310F
:1030100088F3F6018581821303C02150F6012583D0
:1030200085E0809FF001819FF00D1124EC0DFD1DC6
:10303000108681E08187128682E0C80ED11CD7827B
:10304000C68209C0632FC6012A8339830E94DB1719
:103050002A813981CFCF0F900F90DF91CF911F91AF
:103060000F91FF90DF90CF900895CF93DF93EC0105
:103070006134A1F4FC01855B9F4F41E09E012E5F0E
:103080003F4F158646871786348723873596E8177E
:10309000F907B9F71D82DF91CF9108950E9457116A
:1030A000682FCE01DF91CF910C94DB170F931F9304
:1030B000CF93DF93EC01022FCA3F8FEFD80711F4B3
:1030C00086ED29C08E819F81892B01F12A87242FCB
:1030D00040E0CE010E946911182F8823C9F0682FA3
:1030E000CE010E94DD11009759F3FC010483212FCA
:1030F00040E060E0CE010E945017082F882351F075
:10310000612FCE010E943518802F05C087ED03C0C6
:1031100084ED01C080E0DF91CF911F910F91089560
:103120002F923F924F925F926F927F928F929F92D7
:10313000AF92BF92CF92DF92EF92FF920F931F93C5
:10314000CF93DF93CDB7DEB766970FB6F894DEBFA7
:103150000FBECDBF7C01862E742E922E1B8A88E076
:103160008C8B8CE38D8BD701ED91FC910190F081DC
:10317000E02D60E0C70109956C01009709F4ABC030
:10318000FC01A080B180CE0143969183808394821C
:103190008E010F5F1F4F22E130E040E060E0C70189
:1031A0000E94A316D601AD92BC928111ACC02984B5
:1031B0003A844B845C84BD81BE8B1E815701612C97
:1031C0006501E6E5CE0ED11CD6018D919C9100974C
:1031D00089F1DC01ED91FC910084F185E02D0995E8
:1031E000811128C0F60180819181DC01ED91FC9173
:1031F0000088F189E02D612F09958823D9F0F60127
:1032000080819181DC01ED91FC910484F585E02DB4
:10321000A201B1010995811160C0F60180819181FF
:10322000DC01ED91FC910684F785E02D6E8909950E
:10323000811153C06394B2E0AB0EB11CE0E16E1299
:10324000BFCF5701612C6501F6E5CF0ED11CD60129
:103250008D919C91009789F1DC01ED91FC910084A6
:10326000F185E02D0995811128C0F60180819181B9
:10327000DC01ED91FC910088F189E02D612F099529
:103280008823B1F1F60180819181DC01ED91FC91FF
:103290000484F585E02DA201B101099581110DC0CD
:1032A000F60180819181DC01ED91FC910684F78526
:1032B000E02D6E8909958823D9F06394B2E0AB0EB6
:1032C000B11CE0E16E12BFCF292D472D682DC7013B
:1032D0000E94561818C086ED16C0092D272D482DBE
:1032E000662DC7010E944813813D09F4A3CF0BC08E
:1032F000092D272D482D662DC7010E944813982FB0
:10330000977F913DD1F266960FB6F894DEBF0FBE5F
:10331000CDBFDF91CF911F910F91FF90EF90DF9084
:10332000CF90BF90AF909F908F907F906F905F9065
:103330004F903F902F900895FF920F931F93CF933C
:10334000DF93EC011D990EC088EC0E94401285FFAE
:1033500005C0CE010E94310E60E201C060E088EC41
:103360000E94581280916303813051F058F08230EE
:1033700029F0833039F5FF24F3940DC0F12C0BC0F4
:1033800083E106C080919804807F8031D9F081E18B
:103390008093980417C080919804807F803199F4BD
:1033A0000E94171068537F4F8F4F9F4F6093940474
:1033B00070939504809396049093970480E2809391
:1033C000980401C0F12C00E010E0FE01E00FF11FB5
:1033D000EA5AFF4F80819181009739F0DC01ED912D
:1033E000FC910680F781E02D09950E5F1F4F00329A
:1033F000110559F780919804803409F446C070F49F
:10340000803269F18033D9F1813109F088C0FE0141
:10341000EA58FF4F108200E010E00AC0813509F43D
:103420005AC0803809F46AC0803509F078C03CC0C1
:10343000FE01E00FF11FEA5AFF4F80819181009752
:1034400039F0DC01ED91FC910480F581E02D0995C6
:103450000E5F1F4F0032110559F782E15EC00E94D6
:1034600017100091940410919504209196043091C6
:103470009704601B710B820B930B97FD50C061E0AA
:1034800088EE0E94581280E448C088EE0E944012E4
:1034900080FD45C088ED0E944012682F686088ED6D
:1034A0000E94581280E539C088EC0E94401286FFC5
:1034B00036C081E5809398040E9417106C5E7F4FA0
:1034C0008F4F9F4F6093940470939504809396045C
:1034D0009093970424C00E941710009194041091B7
:1034E00095042091960430919704601B710B820B18
:1034F000930B97FD14C080E8809398042F2D40E033
:1035000060E0CE010E949018882331F0823D39F0AE
:103510008093990480EA01C080E980939804DF9148
:10352000CF911F910F91FF9008958F929F92AF922C
:10353000BF92CF92EF920F93CF93DF93CDB7DEB7C9
:10354000C054D1090FB6F894DEBF0FBECDBF5F9354
:103550004F939E012F5F3F4F3F932F931F9220E485
:103560002F9320E8822E912C5B0132E2C32EE12CB6
:1035700006E021E840E0FC016681848195810E949B
:10358000C4150F900F900F900F900F900F90C05C8C
:10359000DF4F0FB6F894DEBF0FBECDBFDF91CF91E6
:1035A0000F91EF90CF90BF90AF909F908F90089524
:1035B0008F929F92AF92BF92CF92DF92EF92FF9243
:1035C0000F938E2CA42EB12C1F921F92DF92CF92BC
:1035D000FF92EF929F2CC22EE02E09E021E2462FAF
:1035E000FC016681848195810E94C4150F900F9023
:1035F0000F900F900F900F900F91FF90EF90DF9032
:10360000CF90BF90AF909F908F9008958F929F9290
:10361000AF92BF92CF92EF920F93A62EB12C1F9232
:103620001F921F921F921F921F92812C912CC22ECB
:10363000E42E0AE021E240E0FC016681848195816C
:103640000E94C4150F900F900F900F900F900F9045
:103650000F91EF90CF90BF90AF909F908F90089573
:103660008F929F92AF92BF92CF92EF920F93A62E1E
:10367000B12C1F921F921F921F921F921F92812C9A
:10368000912CC12CE42E0BE021E240E0FC0166818C
:10369000848195810E94C4150F900F900F900F9018
:1036A0000F900F900F91EF90CF90BF90AF909F90A1
:1036B0008F900895FC018285089581E0693009F0BA
:1036C00080E00895CF93DF93EC018A819B81DC0138
:1036D000ED91FC910480F581E02D6A8509958A853C
:1036E000813439F4EA81FB81EA58FF4F808184609C
:1036F00080831A861B861C861D861E861F86188A56
:1037000080E0DF91CF9108958F929F92AF92BF9208
:10371000CF92EF920F93A42EB12CB22A1F921F9238
:103720001F921F921F921F92812C912CC12CE62E6A
:1037300001E023E240E0FC016285828193810E94E6
:10374000C4150F900F900F900F900F900F900F9146
:10375000EF90CF90BF90AF909F908F9008958F92F1
:103760009F92AF92BF92CF92EF920F93A62EB12C61
:103770001F921F923F932F935F934F934A01C12C47
:10378000E12C00E023EA40E0FC0162858281938124
:103790000E94C4150F900F900F900F900F900F90F4
:1037A0000F91EF90CF90BF90AF909F908F90089522
:1037B0008F929F92AF92BF92CF92EF920F93A42ECF
:1037C000B12CB22A1F921F921F921F921F921F921A
:1037D000812C912CC12CE62E03E023E240E0FC0179
:1037E0006285828193810E94C4150F900F900F9083
:1037F0000F900F900F900F91EF90CF90BF90AF90E0
:103800009F908F9008952F923F924F925F926F9268
:103810007F928F929F92AF92BF92CF92DF92EF9260
:10382000FF920F931F93CF93DF93CDB7DEB7E99746
:103830000FB6F894DEBF0FBECDBF3C01362E242E4E
:10384000DC011296ED90FC9013971A968C918111E1
:1038500003C1D701ED91FC910190F081E02D60E072
:10386000C70129AF09956C0129AD009709F4F6C08D
:10387000FC01A080B180A114B10409F4F1C043019E
:10388000F4E08F0E911CDC0111969C928E9214969E
:103890002C93FE0131962F018F0128E030E040E0AB
:1038A00060E0D30112968D919C9113970E94A3160C
:1038B000F60114828111DAC019818D81893009F0F5
:1038C000D1C0D701ED91FC910280F381E02D222D32
:1038D00041E0632DC7010995F3018287882309F42C
:1038E000C3C098859583282F40E060E08281938152
:1038F0000E945017082F882391F0D601AD92BC92F8
:10390000D701ED91FC910480F581E02DD3011A9649
:103910006C91C7010995F3011286102FABC01132CB
:1039200008F010E2D601AD92BC9211110BC09401C7
:1039300042E0F3016285828193810E941A12811113
:1039400098C011C0212F30E0820140E0D3011A96C7
:103950006C911A9712968D919C9113970E94A316C1
:10396000811187C0E4CF1F921F925F924F921F92E6
:1039700088E08F9388E0882E912CA12CB12C99E2BD
:10398000C92EE12C06E020EA40E0F3016285828145
:1039900093810E94C415182F0F900F900F900F90D5
:1039A0000F900F90811166C08B81D3011B968C9371
:1039B0001B97720100E028E030E040E01A966C911D
:1039C0001A9712968D919C9113970E94CA16811195
:1039D00050C02B813C8140E0F3016285828193815C
:1039E0000E94CA16811145C0298130E0CE0181961E
:1039F0007C0140E0D3011A966C911A9712968D9132
:103A00009C9113970E94CA16811133C02E8140E009
:103A1000F3016285828193810E947F17811129C001
:103A200001E0D3011B968C911B97801740F020E09A
:103A3000402F68E0C3010E94D81B0F5FF2CF12969F
:103A4000ED91FC911397EA58FF4F80818460808349
:103A500081E050968C930EC019ED0CC016ED0AC093
:103A600017ED08C011ED06C014ED04C0F601B182D7
:103A7000A082182F812FE9960FB6F894DEBF0FBEF3
:103A8000CDBFDF91CF911F910F91FF90EF90DF900D
:103A9000CF90BF90AF909F908F907F906F905F90EE
:103AA0004F903F902F900895BF92CF92DF92EF9268
:103AB000FF920F931F93CF93DF9300D000D0CDB729
:103AC000DEB77C01B62E19821A821B821C8220E08E
:103AD000462F61E10E94841B20E04B2D60E1C7016D
:103AE0000E94841B20E04B2D64E0C7010E94D81B7C
:103AF00023E0C22ED12C9E012F5F3F4F44E050E0C7
:103B00006B2DC7010E94AF1B882301F120E04B2DD4
:103B100064E1C7010E94841B20E04B2D60E1C701D6
:103B20000E94841B64E170E080E090E00E94191024
:103B30000F900F900F900F90DF91CF911F910F91E9
:103B4000FF90EF90DF90CF90BF90089509811A8188
:103B50002B813C811D7F0330114020413105B1F2A2
:103B600064E670E080E090E00E94191081E0C81ADD
:103B7000D108C114D10409F0BECFC8CFCF93DF93D1
:103B8000FC0181EB91E091838083738362831286D1
:103B900013861486158616861786108A148288E086
:103BA00085839CE3968391E09783808784E0818777
:103BB00061157105B9F0CB01A0E0B0E0EC01CA5A83
:103BC000DF4F28813981232B41F49B96AA0FBB1F1D
:103BD000A60FB71FED93FC9305C011960296A03176
:103BE000B10561F7DF91CF910895DF92EF92FF92D7
:103BF0000F931F93CF93DF93EC01D62E7A01FA0136
:103C000000811181228133810130F3E01F07F1E04F
:103C10002F073105D1F060F40115E1E01E072E07F2
:103C2000310571F1013011402140310571F062C060
:103C3000033081E0180780E128073105E1F1033006
:103C4000134020413105B9F155C080919A0481118A
:103C500051C020E04D2D61E1CE010E94841B20E087
:103C60004D2D60E1CE010E94841B20E04D2D64E0CB
:103C7000CE010E94D81B81E080939A0481EB3BC067
:103C800020E0462F61E1CE010E94841B20E04D2DF3
:103C900060E1CE010E94841B10929A046A856770CD
:103CA0008D2D8770660F660F660F682B8A819B814A
:103CB0000E9408111FC020E04D2D64E1CE010E943A
:103CC000841B20E04D2D60E1CE010E94841B64E145
:103CD00070E080E090E00E9419106A85F701218170
:103CE0002695217067704D2D8A819B810E949018C6
:103CF00010929A0480E0DF91CF911F910F91FF9075
:103D0000EF90DF900895EF92FF920F931F93CF9360
:103D1000DF93CDB7DEB72E970FB6F894DEBF0FBE98
:103D2000CDBF7C0181E090E09E878D878E010F5F83
:103D30001F4F9E01235F3F4F41E0F7016285828163
:103D400093810E94A417811151C002E011E0898182
:103D50008023D1F019861A861B861C869E01275F58
:103D60003F4F44E050E0612FC7010E94AF1B81111B
:103D70000BC0AE01475F5F4F612FC7010E94F51D69
:103D8000813B99F1811132C0000F1F5F1830F9F6A5
:103D900011E0F7018385811740F119861A861B8689
:103DA0001C869E01275F3F4F44E050E0612FC70112
:103DB0000E94AF1B811117C089859A858770917009
:103DC0008130914081F48B859C8581609C878B87B5
:103DD000AE01475F5F4F612FC7010E94F51D813B18
:103DE00021F0811103C01F5FD4CF80E02E960FB663
:103DF000F894DEBF0FBECDBFDF91CF911F910F9121
:103E0000FF90EF9008950F931F93CF93DF93EC01F2
:103E100088898823F1F00E9417100C851D852E8556
:103E20003F85601B710B820B930B97FD0FC0CE017A
:103E30000E94831E182F0E9417106C597F4F8F4FBE
:103E40009F4F6C877D878E879F8701C010E0812FF1
:103E500001C080E0DF91CF911F910F910895CF9322
:103E6000DF93FC01EA0180819181892B21F580E0BB
:103E700028C088819981892BD1F3DB018D919C9198
:103E8000DC015C91238130E0241B31098081918128
:103E9000820F931FDC015C93828181508283888131
:103EA0009981019799838883DB018D919C9111976A
:103EB00001968D939C9342814111DBCF8381828354
:103EC00081E0DF91CF9108958091A3040895089532
:103ED000CF93DF9300D01F92CDB7DEB720911505A9
:103EE000243019F523E029839B838A832093E900FA
:103EF0008FEF9091E800815095FD06C095ED9A9561
:103F0000F1F700008111F5CF8091E80085FF0DC029
:103F100040E050E063E070E0CE0101960E9466212F
:103F20008091E8008E778093E8000F900F900F90BB
:103F3000DF91CF910895209115052430F1F422E00E
:103F40002093E9002FEF3091E800215035FD06C0A5
:103F500035ED3A95F1F700002111F5CF2091E800F9
:103F600025FF0BC040E050E064E070E00E94662155
:103F70008091E8008E778093E8000895CF93DF93D7
:103F8000EC0180911505843039F581E08093E900DA
:103F90008FEF9091E800815095FD06C095ED9A95C0
:103FA000F1F700008111F5CF8091E80085FF14C082
:103FB00040E050E068E070E0CE010E946621809110
:103FC000E8008E778093E80088E0FE01ABE9B4E07A
:103FD00001900D928A95E1F7DF91CF91089580913C
:103FE0001405811109C00E94BE220E9419238091EC
:103FF000E20084608093E200089510921405089511
:1040000008951F93CF93DF93CDB7DEB7A0970FB678
:10401000F894DEBF0FBECDBF80911505843059F5F1
:104020008091E9008F709091EC0090FF02C090E8C1
:1040300001C090E0192F182B85E08093E900809152
:10404000E80082FF15C08091E80085FF0CC040E0C9
:1040500050E060E270E0CE0101960E94AF21CE01F7
:1040600001960E9455258091E8008B778093E800A7
:104070001F701093E900A0960FB6F894DEBF0FBE34
:10408000CDBFDF91CF911F91089542E061EC81E0B7
:104090000E94592242E061EC82E00E94592242E0F3
:1040A00061EC83E00E94592242E261EC84E00E94CC
:1040B000592242E260EC85E00C9459228091170568
:1040C000833009F453C030F4813071F0823009F448
:1040D0008CC008958A3009F478C08B3009F45EC032
:1040E000893009F09AC020C080911605813A09F004
:1040F00094C08091E800877F8093E80080911A0542
:1041000090911B05892B21F060E080E090E003C0D6
:1041100068E08BE994E070E00E94F8218091E8006B
:104120008B778093E800089580911605813209F01D
:1041300074C080911A0590911B05892B09F06DC000
:104140008091E800877F8093E8008091E80082FDFD
:1041500005C0809115058111F8CF5FC08091F100F5
:104160008093A3048091E8008B7753C0809116055B
:10417000813A09F052C080911A0590911B05892B54
:1041800009F04BC08091E800877F8093E800809120
:10419000E80080FFFCCF80910A0136C080911605AF
:1041A0008132D9F580911A0590911B05892BA9F5CB
:1041B0008091E800877F8093E8000E946D228091C3
:1041C000180580930A010C942C2B809116058132DE
:1041D00021F58091E800877F8093E8000E946D229E
:1041E000809119058093A404089580911605813A61
:1041F000A1F48091E800877F8093E8008091E80037
:1042000080FFFCCF8091A4048093F1008091E800AE
:104210008E778093E8000C946D22089508950C9495
:104220000E210C9428310C941121292F332723308F
:10423000310599F05CF421303105D9F12230310596
:10424000E9F584E790E026E132E03CC02132310517
:1042500099F022323105E9F031C099278330910578
:1042600068F5FC01EE0FFF1FE652FE4F2081318101
:10427000FC01E952FE4F1AC0643000F5E62FF0E071
:10428000EE0FFF1FE153FE4F2081318189E090E066
:1042900019C0643098F4E62FF0E0DF01AA0FBB1FCD
:1042A000A953BE4F2D913C91ED53FE4F808190E07C
:1042B00009C082E190E02AE832E004C080E090E0AA
:1042C00020E030E0FA01318320830895CF92DF921D
:1042D000EF92FF920F931F93CF93DF937C018B019B
:1042E000EA010E948E22811131C0209731F088812D
:1042F0009981081B190BE80EF91EC12CD12C011550
:10430000110519F18091E80085FD14C08091E80045
:104310008E778093E800209741F0888199818C0DF9
:104320009D1D9983888385E011C00E948E22882379
:1043300031F30CC0F70181917F018093F1000150AE
:104340001109FFEFCF1ADF0ADACF80E0DF91CF91BA
:104350001F910F91FF90EF90DF90CF900895CF9233
:10436000DF92EF92FF920F931F93CF93DF937C0125
:104370008B01EA010E948E22811131C0209731F019
:1043800088819981081B190BE80EF91EC12CD12CCC
:104390000115110519F18091E80085FD14C0809187
:1043A000E8008B778093E800209741F0888199811D
:1043B0008C0D9D1D9983888385E011C00E948E22FB
:1043C000882331F30CC08091F100F70181937F01C4
:1043D00001501109FFEFCF1ADF0ADACF80E0DF9139
:1043E000CF911F910F91FF90EF90DF90CF900895A4
:1043F00020911C0530911D052617370748F06115DF
:10440000710539F42091E8002E772093E80001C06F
:10441000B901FC0120E061157105B9F18091150524
:10442000882309F440C0853009F43FC08091E8003A
:1044300083FD3DC08091E80082FF06C08091E800C6
:1044400082FF26C080E008958091E80080FFE3CFDE
:104450002091F3008091F20090E0922B611571059C
:1044600051F08830910538F421912093F10061508A
:1044700071090196F3CF21E0089709F020E08091BF
:10448000E8008E778093E800C6CF2111C7CFD6CF42
:1044900080911505882339F0853039F08091E80046
:1044A00083FFCCCF04C082E0089583E0089581E0CB
:1044B00008958F708093E900EBEEF0E080818160D9
:1044C0008083EDEEF0E010826093EC0040838091F9
:1044D000EE00881F8827881F08958091160587FDA4
:1044E00005C08091E80080FF0EC012C08091E800F6
:1044F00082FD05C0809115058111F8CF0895809146
:10450000E8008B7708C0809115058111EACF0895E6
:104510008091E8008E778093E80008958091E40010
:104520009091E50045E62091EC0020FF21C020910C
:10453000E80020FD21C020911505222389F02530B7
:1045400089F02091EB0025FD0FC02091E40030910F
:10455000E5002817390739F3415041F0C901E3CF8D
:1045600082E0089583E0089581E0089584E008954D
:104570002091E80022FFDFCF80E008950E942A23E7
:104580000E943223E0EEF0E0808181608083E8EDDC
:10459000F0E080818F77808319BCA7EDB0E08C912B
:1045A0008E7F8C9380818F7E808310921405089576
:1045B0000F931F93CF93DF930E942A230E943223ED
:1045C000C8EDD0E088818F77888388818068888370
:1045D00088818F7D888319BC109215051092120571
:1045E0001092130500EE10E0F80180818B7F80832C
:1045F00088818160888342E060E080E00E945922E7
:10460000E1EEF0E080818E7F8083E2EEF0E0808159
:1046100081608083808188608083F80180818E7FC3
:104620008083888180618883DF91CF911F910F9172
:104630000895E8EDF0E080818F7E8083E7EDF0E083
:1046400080818160808384E082BF81E08093140553
:104650000C94D822E8EDF0E080818E7F8083109268
:10466000E20008951092DA001092E10008951F927E
:104670000F920FB60F9211242F933F934F935F9396
:104680006F937F938F939F93AF93BF93EF93FF931A
:104690008091E10082FF0BC08091E20082FF07C0A1
:1046A0008091E1008B7F8093E1000E940120809146
:1046B000DA0080FF1FC08091D80080FF1BC080916E
:1046C000DA008E7F8093DA008091D90080FF0DC0E0
:1046D00080E189BD82E189BD09B400FEFDCF81E0A2
:1046E000809315050E94EF1F05C019BC1092150597
:1046F0000E94FD1F8091E10080FF19C08091E200BF
:1047000080FF15C08091E2008E7F8093E20080914F
:10471000E20080618093E2008091D8008062809303
:10472000D80019BC85E0809315050E940F21809167
:10473000E10084FF30C08091E20084FF2CC080E162
:1047400089BD82E189BD09B400FEFDCF8091D8000A
:104750008F7D8093D8008091E1008F7E8093E1006F
:104760008091E2008F7E8093E2008091E200816080
:104770008093E20080911205882311F084E007C045
:104780008091E30087FF02C083E001C081E0809355
:1047900015050E9413218091E10083FF29C08091BB
:1047A000E20083FF25C08091E100877F8093E100D4
:1047B00082E080931505109212058091E1008E7FB2
:1047C0008093E1008091E2008E7F8093E2008091EF
:1047D000E20080618093E20042E060E080E00E94BD
:1047E00059228091F00088608093F0000E940020A0
:1047F000FF91EF91BF91AF919F918F917F916F91B9
:104800005F914F913F912F910F900FBE0F901F908E
:1048100018951F920F920FB60F9211242F933F936A
:104820004F935F936F937F938F939F93AF93BF93B8
:10483000CF93EF93FF93C091E900CF708091EC008C
:104840001092E9008091F000877F8093F0007894C7
:104850000E9445241092E9008091F00088608093C6
:10486000F000C093E900FF91EF91CF91BF91AF911C
:104870009F918F917F916F915F914F913F912F9178
:104880000F900FBE0F901F9018951F93CF93DF933B
:1048900000D0CDB7DEB7E6E1F5E08091F10081937D
:1048A00085E0EE31F807C9F70E945E208091E800AC
:1048B00083FFE7C02091160530911705832F90E004
:1048C0008A30910508F0DDC0FC01EA5AFF4F0C94D4
:1048D0008C35203881F0223809F0D3C080911A0538
:1048E0008F708093E9008091EB0085FB882780F929
:1048F0001092E90004C080911305811182E090912B
:10490000E800977F9093E8008093F1001092F10007
:1049100092C0822F8D7F09F0B4C0222319F022307B
:1049200061F0AFC080911805813009F0AAC0333022
:1049300009F080E08093130528C08091180581114B
:1049400024C020911A052F7009F49BC02093E90020
:104950008091EB0080FF19C08091EB00333011F49F
:10496000806211C080618093EB0081E090E0022EB4
:1049700001C0880F0A94EAF78093EA001092EA00D7
:104980008091EB0088608093EB001092E9008091A9
:10499000E800877F53C0211174C0109118051F775C
:1049A0008091E3008078812B8093E3008091E80080
:1049B000877F8093E8000E946D228091E80080FF4D
:1049C000FCCF8091E30080688093E300112311F015
:1049D00083E001C082E08093150553C02058223047
:1049E00008F04FC0AE014F5F5F4F60911A05809194
:1049F0001805909119050E941521009709F441C0EE
:104A00002091E800277F2093E800BC0189819A81EA
:104A10000E94F8218091E8008B778093E80031C0F4
:104A2000203879F58091E800877F8093E8008091B5
:104A300012058093F1008091E8008E778093E80062
:104A40000E946D221EC021111CC090911805923049
:104A5000C0F48091E800877F8093E800909312056E
:104A60000E946D2280911205811104C08091E300A3
:104A700087FF02C084E001C081E0809315050E9499
:104A800045208091E80083FF0AC08091E800877F7D
:104A90008093E8008091EB0080628093EB000F90A0
:104AA0000F90DF91CF911F9108958F929F92AF92B7
:104AB000BF92CF92DF92EF92FF920F931F93CF930B
:104AC000DF93CDB7DEB728970FB6F894DEBF0FBEE1
:104AD000CDBFEDB6FEB6FC0120813181ADB6BEB6CC
:104AE000A31AB1080FB6F894BEBE0FBEADBE0DB787
:104AF0001EB70F5F1F4F722F771F7727771F632F08
:104B0000661F6627661F2F773F77772351F0E30FE5
:104B1000F11DA281B0E0BA2FAA274381A40FB11DD5
:104B200002C0A0E0B0E0C02E480142E0D42ED01A6E
:104B30005D2D580D482D4C19431740F4FC01E50F2D
:104B4000F11D4081F40141934F01F2CF29836D8320
:104B50003A83402F1C830B837E83B887AF835C81AD
:104B60008A2F98850E94472681E00FB6F894FEBEF2
:104B70000FBEEDBE28960FB6F894DEBF0FBECDBFB8
:104B8000DF91CF911F910F91FF90EF90DF90CF9029
:104B9000BF90AF909F908F900895DF92EF92FF9219
:104BA0000F931F93CF93DF93CDB7DEB728970FB640
:104BB000F894DEBF0FBECDBF29833A834B835C835D
:104BC0006D837E838F8398870B811C818091A704DE
:104BD000662391F0811123C0F801818190E0982F24
:104BE00088272081820F911D9093A6048093A504AD
:104BF00081E08093A70411C0882319F01092A704C4
:104C00000EC0F801818190E0982F88272081820FC3
:104C1000911D9093A6048093A50482E001C080E0DA
:104C2000D12CE82EF12CED2DF0E08A8190E08E1948
:104C30009F09E817F907E4F48091A5049091A60470
:104C40009C01245131092C3E334038F4E00FF11F10
:104C5000EE0DFF1D60810E94B4358091A5049091F6
:104C6000A60401969093A6048093A504D394DBCF69
:104C700081E028960FB6F894DEBF0FBECDBFDF915E
:104C8000CF911F910F91FF90EF90DF900895CF93F8
:104C9000DF93CDB7DEB728970FB6F894DEBF0FBE0F
:104CA000CDBF3A834B835C836D837E838F839887EC
:104CB000203111F40E94CD2581E028960FB6F8949A
:104CC000DEBF0FBECDBFDF91CF9108959093AB04AF
:104CD0008093AA040895E091AA04F091AB04309760
:104CE00021F00190F081E02D099480E00895E09199
:104CF000AA04F091AB04309721F00280F381E02DFB
:104D000009940895E091AA04F091AB04309721F042
:104D10000480F581E02D099408952091A804309134
:104D2000A9048217930771F09093A9048093A804B3
:104D3000E091AA04F091AB04309721F00084F18552
:104D4000E02D099408950E9467100E94AE0E0C9405
:104D5000F4335F926F927F928F929F92AF92BF9245
:104D6000CF92DF92EF92FF920F931F93CF93DF9337
:104D700000D000D01F92CDB7DEB70E94F20C9DEAA2
:104D8000C92E94E0D92E00E010E0AA24A394B12CFF
:104D9000502E802F0E94BE0D3C01F601E190F19053
:104DA0006F01E826F926E114F104B1F40F5F1F4FFB
:104DB0000830110569F78FEF89838A831B820E946F
:104DC00070108160782F9D838C8349815A816B811B
:104DD0008D810E94682741C08091070581FD0E9456
:104DE0000E0E20E030E04501022E02C0880C991C16
:104DF0000A94E2F7C4018E219F21892B41F1298376
:104E00005A826820792081E0672809F480E08B834A
:104E10000E9470108160782F9D838C8349815A8114
:104E20006B818D810E94682749815A816B817C81C9
:104E30008D810E94F230F801EE0FFF1FE355FB4F0A
:104E400080819181882599259183808306C02F5F79
:104E50003F4F2031310539F6A9CF0E94F1300E9431
:104E60005C331091AC040E946B261817D1F00E949D
:104E70006B268093AC040F900F900F900F900F90C3
:104E8000DF91CF911F910F91FF90EF90DF90CF9026
:104E9000BF90AF909F908F907F906F905F900C9499
:104EA00003310F900F900F900F900F90DF91CF91E3
:104EB0001F910F91FF90EF90DF90CF90BF90AF9038
:104EC0009F908F907F906F905F9008950C940F0E3D
:104ED000CF93DF93CDB7DEB72B970FB6F894DEBF35
:104EE0000FBECDBF4F83588769877A878B878A85A6
:104EF0009B85892B31F05F3F11F080E003C04F3F6D
:104F0000E1F781E0811107C04F81588569857A8575
:104F10008B850E94F230DE01119686E0FD01119230
:104F20008A95E9F785E0FE01379601900D928A9502
:104F3000E1F749815A816B817C818D819E810E943C
:104F4000F82D2B960FB6F894DEBF0FBECDBFDF91C4
:104F5000CF910895882309F450C09CEF980F913A9F
:104F600018F40E9489300DC090E2980F983058F4E0
:104F7000877091E001C0990F8A95EAF7892F0E9406
:104F8000CE300C94733098E5980F9731B0F5883A8D
:104F9000A9F0893AB1F08A3AB9F08D3BC1F08E3B65
:104FA000C9F08B3AD1F08C3AD9F08F3AE1F0803BDE
:104FB000E9F0843BF1F482E991E01DC082EE90E0DB
:104FC0001AC089EE90E017C08AEE90E014C08FE618
:104FD00090E011C080E790E00EC085EB90E00BC040
:104FE00086EB90E008C087EB90E005C08DEC90E088
:104FF00002C080E090E00C948D2608958823E9F0AB
:105000009CEF980F913A18F40E94AA300DC090E2DC
:10501000980F983058F4877091E001C0990F8A95E5
:10502000EAF7892F0E94D4300C947330885A873164
:1050300020F480E090E00C948D260895882321F0E0
:105040000E94CE300C9473300895882321F00E9482
:10505000D4300C9473300895CF92DF92EF92FF9288
:105060000F931F93CF93DF93CDB7DEB728970FB67B
:10507000F894DEBF0FBECDBF8C0185E0F801DE01E4
:10508000119601900D928A95E1F7F80140813181E6
:10509000F280258122952F7083819481892B31F0B4
:1050A0003F3F31F481E04F3F19F403C081E001C07C
:1050B00080E080FDB4C249833A8389819A812F833D
:1050C0000E9431309E8388870E9430300E945A2F80
:1050D0003E81E32FE295EF70F0E0E05AFF4F2F8121
:1050E00068850C948C35832F807F132F1F70882345
:1050F00011F01295107FFF2059F0112309F442C2DC
:10510000812F68870E94E1300E94733068853AC21F
:10511000862F0E94FE27112309F481C2812F0E944D
:10512000E73028960FB6F894DEBF0FBECDBFDF91F3
:10513000CF911F910F91FF90EF90DF90CF900C9443
:105140007330832F807F932F9F70E92E803219F068
:10515000E29480EFE822613071F4FF2041F02330C7
:1051600008F05DC20E94CB308E2179F021C0223040
:1051700008F055C21DC0FF20C9F0222331F0F8010C
:10518000858180FFFFC18F7085838E2D28960FB695
:10519000F894DEBF0FBECDBFDF91CF911F910F916D
:1051A000FF90EF90DF90CF900C941E282111FEC14C
:1051B0008E2D5EC1832F869586958370813009F090
:1051C0002EC2FF2021F0862F932F937002C080E023
:1051D00090E028960FB6F894DEBF0FBECDBFDF91EA
:1051E000CF911F910F91FF90EF90DF90CF900C9493
:1051F0008D26862FFF2019F00E94863202C00E9461
:10520000E13228960FB6F894DEBF0FBECDBFDF9116
:10521000CF911F910F91FF90EF90DF90CF900C9462
:105220005133832F837009F076C0F110F8C1262F17
:10523000229526952770220F220F862F8F70C82E59
:10524000D12CE12CF12C022E04C0CC0CDD1CEE1C68
:10525000FF1C0A94D2F764FF10C06FE070E080E09A
:1052600090E004C0660F771F881F991F2A95D2F718
:10527000609570958095909503C060E070E0CB01DB
:10528000232F269526952370422F50E0423051055A
:10529000D1F04330510559F16C297D298E299F2980
:1052A0004130510541F128960FB6F894DEBF0FBE8C
:1052B000CDBFDF91CF911F910F91FF90EF90DF90C5
:1052C000CF900C946D2F6C297D298E299F292896CB
:1052D0000FB6F894DEBF0FBECDBFDF91CF911F9107
:1052E0000F91FF90EF90DF90CF900C947F2F0E9452
:1052F0006D2FC701B60128960FB6F894DEBF0FBE1A
:10530000CDBFDF91CF911F910F91FF90EF90DF9074
:10531000CF900C945B2FFF2019F0832F817001C078
:105320008695882309F47BC1262F22952695277020
:10533000220F220F862F8F70C82ED12CE12CF12C3A
:10534000022E04C0CC0CDD1CEE1CFF1C0A94D2F70C
:1053500064FF10C06FE070E080E090E004C0660F72
:10536000771F881F991F2A95D2F7609570958095B1
:10537000909503C060E070E0CB01232F2695269521
:105380002370422F50E042305105D1F04330510597
:1053900059F16C297D298E299F294130510541F110
:1053A00028960FB6F894DEBF0FBECDBFDF91CF9128
:1053B0001F910F91FF90EF90DF90CF900C940C30E5
:1053C0006C297D298E299F2928960FB6F894DEBF77
:1053D0000FBECDBFDF91CF911F910F91FF90EF9046
:1053E000DF90CF900C941E300E940C30C701B601A4
:1053F00028960FB6F894DEBF0FBECDBFDF91CF91D8
:105400001F910F91FF90EF90DF90CF900C94FA2FA7
:10541000603F28F4603EE0F5603D68F4AEC0613F57
:1054200009F45FC008F442C0623F09F46EC0633FF4
:1054300009F47FC0A2C0FF2071F0222311F082E5A1
:10544000A2C0832F8F7168870E94A52F6885862F41
:105450008295807F9BCE222311F082E5A8C0832F06
:105460008F7168870E94C02F6885862F8295807F04
:1054700028960FB6F894DEBF0FBECDBFDF91CF9157
:105480001F910F91FF90EF90DF90CF900C94252803
:10549000162F1F70832F8F71FF2021F00E94A52FE0
:1054A000812F74CE0E94C02F812FE2CFFF20A9F060
:1054B000223008F0B4C0832F8F7128960FB6F8946D
:1054C000DEBF0FBECDBFDF91CF911F910F91FF9037
:1054D000EF90DF90CF900C94DF2F233008F09FC027
:1054E000EACFFF20A1F0832F8F7128960FB6F89492
:1054F000DEBF0FBECDBFDF91CF911F910F91FF9007
:10550000EF90DF90CF900C94A52FFF2061F3832FB5
:105510008F7128960FB6F894DEBF0FBECDBFDF9116
:10552000CF911F910F91FF90EF90DF90CF900C944F
:10553000C02FFF2091F0832F8F7128960FB6F8941B
:10554000DEBF0FBECDBFDF91CF911F910F91FF90B6
:10555000EF90DF90CF900C94962F28960FB6F8948A
:10556000DEBF0FBECDBFDF91CF911F910F91FF9096
:10557000EF90DF90CF900C94912FFF20A1F0222389
:1055800009F4B1CF862F28960FB6F894DEBF0FBE70
:10559000CDBFDF91CF911F910F91FF90EF90DF90E2
:1055A000CF900C94AA27222309F4B1CF862F2896F6
:1055B0000FB6F894DEBF0FBECDBFDF91CF911F9124
:1055C0000F91FF90EF90DF90CF900C94FE27432F28
:1055D0004F70C8010E94410128960FB6F894DEBFB3
:1055E0000FBECDBFDF91CF911F910F91FF90EF9034
:1055F000DF90CF900C94A52E432F4F70C8012896B2
:105600000FB6F894DEBF0FBECDBFDF91CF911F91D3
:105610000F91FF90EF90DF90CF900C94CC002896E4
:105620000FB6F894DEBF0FBECDBFDF91CF911F91B3
:105630000F91FF90EF90DF90CF9008950E94EE3091
:105640000E94BD300E9473300E94E7330E945133A4
:1056500080E090E00C948D260E94DE300C941E2B8E
:105660000E943130292F22952F7030E02C303105E7
:105670004CF42A3031056CF42250310922303105C6
:1056800090F407C02C30310551F02F30310539F03E
:105690000AC0803E10F0803F31F481E0089593FB12
:1056A000882780F9089580E00895CF93DF9300D094
:1056B00000D01F92CDB7DEB70F900F900F900F90D4
:1056C0000F90DF91CF910895CF93DF9300D000D05A
:1056D00000D0CDB7DEB726960FB6F894DEBF0FBE6A
:1056E000CDBFDF91CF9108951F93CF93DF93C091EA
:1056F000BD0416E08091BE04C81799F0D0E01C9F4D
:10570000F0011D9FF00D1124E154FB4F40815181A8
:1057100062817381848195810E94642B2196C77078
:10572000E9CFDF91CF911F9108954091EF045091FF
:10573000F0046091F1047091F2048091F30490916F
:10574000F4040C94642BCF938091F40482958F70B1
:1057500009F05FC08091F104882309F45AC02091B8
:10576000BD04A091BE046091EF047091F00480919B
:10577000F2049091F30431E06F3F09F030E0B32F71
:10578000C6E02A1709F445C0009721F07F3F21F4B5
:105790004B2F03C041E001C040E030E040FD35C088
:1057A000C29FF001C39FF00D1124E154FB4F4181D2
:1057B00074132BC04081641328C04281411125C05D
:1057C000438154814817590710F441505109481B2F
:1057D000590B443B5105C8F48091F4048F708061EB
:1057E0008093F40486E0829FF001839FF00D1124E2
:1057F000EC53FB4F80818F70806180838FEE94E04B
:105800000E942C28CF910C94742B2F5F3F4F277050
:10581000B8CFCF910895CF92DF92EF92FF920F937E
:105820001F93CF93DF93CDB7DEB762970FB6F8948F
:10583000DEBF0FBECDBF8C0185E0F801DE011D96F5
:1058400001900D928A95E1F7D8014C9111965C91E7
:10585000119712966C9112971396ED90FC901497F5
:105860007091EF04E091F0042091F2043091F30480
:105870002115310531F0EF3F31F481E07F3F19F41C
:1058800003C081E001C080E0B82FB170CB2E80FD55
:105890006CC1D090F104DD2009F4F5C0F091F4045E
:1058A000E216F30638F0C701821B930B843B910587
:1058B00048F09BC0209530952E0D3F1D243B3105AF
:1058C00008F093C08F2F807F09F052C0E51314C0F9
:1058D000741312C0D62E61110FC0FF70F061F093E7
:1058E000F4040E94952B8FEE94E00E942C28809166
:1058F000F404F80185836CC1EF2831F05F3F31F487
:1059000081E04F3F19F403C081E001C080E080FDD9
:1059100003C081E0862701C080E0F82FF170FF2EE0
:1059200080FF1CC08091BD042091BE0436E0821728
:1059300009F428C190E0389FF001399FF00D11243F
:10594000E154FB4F7181571306C07081471303C0A8
:105950007281671303C001968770E9CFD62E662344
:1059600009F436C18091F40481608093F40453C03B
:10597000E51308C0741306C0611104C0D801159660
:10598000FC93AEC04D875E878D859E856A8B0E9495
:10599000302B6A89882329F1D62E662311F12091B4
:1059A000F404822F82958F7090E002970CF460C00F
:1059B0008091EF049091F00498878F831986FB867D
:1059C000EA862C87CE01079651C0E51731F14D8745
:1059D0005E878D859E856A8B0E94302B6A89811136
:1059E0002EC0C8010E942C28A4C08F2F807F69F789
:1059F0007E2DF98AE88A89890E94552B8FEE94E0E2
:105A00000E942C28EFEEF4E086E0DF011D928A95DB
:105A1000E9F70E94952BD12CDBC07413D8CF61110C
:105A2000D6CFD8011596FC93C8010E942C28EFEE22
:105A3000F4E086E0DF011D928A95E9F7C9C0D62E11
:105A4000662379F22091F404822F82958F7090E082
:105A5000029774F08091EF049091F0049A83898307
:105A60001B82FD82EC822E83CE0101960E942C289F
:105A700086E0F801AFEEB4E001900D928A95E1F76F
:105A80000E94A32B6FC0E216F30628F0C701821B09
:105A9000930B9C0104C0209530952E0D3F1D243B97
:105AA000310508F052C0D62E662309F49ACFE513CB
:105AB0002CC074132AC08091F40480FD1DC0982F5F
:105AC00092959F70C9F0D80115968C9315979F30C9
:105AD00039F09F5F9295907F8F70892B15968C93EC
