:100000000C947C000C94CE000C94CE000C94CE008A
:100010000C94CE000C94CE000C94CE000C94CE0028
:100020000C94CE000C94CE000C9497220C9469236F
:100030000C94AE2F0C94CE000C94CE000C94CE00F9
:100040000C94CE000C94CE000C94CE000C94CE00F8
:100050000C94CE000C94C6100C94CE000C94CE00E0
:100060000C94CE000C94CE000C94CE000C94CE00D8
:100070000C94CE000C94CE000C94CE000C94CE00C8
:100080000C94CE000C94CE000C94CE000C94CE00B8
:100090000C94CE000C94CE000C94CE000C94CE00A8
:1000A0000C94CE000C94CE000C94CE00D123F423FB
:1000B000AF24F423AF2439245C24AF247E2491247C
:1000C0002F272F275E275E279827D627DF29DF29AE
:1000D000EF27DF29F028F028B329DF29DF29CA29F3
:1000E000014E024E00014D024D00014B024B00013A
:1000F0004A024A000103140F11241FBECFEFDAE0B9
:10010000DEBFCDBF04B603FE27C0809116059091D7
:100110001705A0911805B09119058730904BA7409D
:10012000B04BD1F4109216051092170510921805D5
:100130001092190514BE84B7877F84BF0FB6F89458
:10014000A8958091600088618093600010926000A3
:100150000FBEE0E0F8E3099513E0A0E0B1E0E2E0D3
:10016000FDE602C005900D92AA33B107D9F725E04C
:10017000AAE3B3E001C01D92A631B207E1F710E097
:10018000CCE7D0E004C02197FE010E943436CB3783
:10019000D107C9F70E94BB0F0C947F360C94000066
:1001A00080E090E0089580E090E00895FC016230E6
:1001B00041F128F4662351F0613099F008956330DD
:1001C00009F457C0643009F468C008958281882317
:1001D00009F452C00E94762F82729927892B79F0F8
:1001E00008C08281882309F447C00E94762F81FFCE
:1001F00006C00E94762F80FD02C085E358C089E2C8
:1002000056C04230C9F048F4442389F0413021F50A
:1002100084E380933D0388E21DC04430B9F088F048
:100220004530D1F481E380933D038AE213C085E336
:1002300080933D0389E20EC088E380933D0387E30A
:1002400009C088E380933D0382E504C083E3809383
:100250003D038FE080933C038281882369F00E94F4
:10026000762F85FF03C080913D0321C080913C0320
:100270001EC08281811105C080913E030E94BB2671
:100280001CC00E94762F80FF06C00E94762F82FF3E
:1002900010C08CE40CC08AE20AC08281882361F31A
:1002A0000E94762F82FF02C08DE301C081E280931D
:1002B0003E0380913E030E941C260C94242F66234B
:1002C00019F06130C1F027C0FC018281882339F028
:1002D0000E94841090933B0380933A031CC080914A
:1002E0003A0390913B030E949C10893C9105B4F421
:1002F0008AEE90E00895FC0182818111E9CF80911E
:100300003A0390913B030E949C10893C91054CF468
:1003100080EE90E0089580E090E008958FEE90E008
:10032000089585EE90E00895462F50E0672F70E025
:1003300090E00E940B34089590E0805C91090E9447
:10034000FF33089584EF90E0089584EF90E00895DE
:10035000E82FF0E0EE0FFF1FEC50FF4F85919491D6
:100360000895569A5E9A0895811101C05E9A089583
:10037000811101C05E98089580E00895089580E09D
:10038000089581E00895CF93DF93CDB7DEB7289726
:100390000FB6F894DEBF0FBECDBF29833A834B83DF
:1003A0005C836D837E838F83988780916A04282B7A
:1003B00020936A04FE013396AE01475F5F4F21919F
:1003C000243088F080E090E0DC01A659BB4F129603
:1003D0003C911297311103C012962C9304C00196E0
:1003E0008630910589F7E417F50749F728960FB687
:1003F000F894DEBF0FBECDBFDF91CF910895860F79
:10040000911D860F911DFC01518B408B81E0089559
:10041000860F911D860F911DFC015687458781E04F
:100420000895860F911D860F911DFC015687458703
:1004300081E00895CF93DF93EC018C819D81DC01F5
:10044000ED91FC910480F581E02D6E8109951F8668
:10045000188A81E08A8B1E821B8A1C8A1D8A1E8A4A
:100460001F8A80E0DF91CF910895FC018681089575
:1004700081E0633009F080E0089581E0623009F0A6
:1004800080E00895860F911D860F911DFC018585E2
:1004900096850895FC0187890895EF92FF92CF9386
:1004A000DF93DC01E70152968C915297823049F13B
:1004B0001F966C931F9750964C9350979B81937007
:1004C0009330F9F49A8197FF1CC09E8158962C9125
:1004D0005897291718F458969C935897E82FF0E0EE
:1004E0009F01220F331FE20FF31FEA0FFB1F9A81B8
:1004F0009F7097839C81908794E091878F5F52963D
:100500008C93DF91CF91FF90EF900895EF92FF923F
:100510000F9302970E944D020F91FF90EF90089564
:10052000CF93DF93EC018C819D81DC01ED91FC91F7
:100530000480F581E02D6E8109951F86188A81E07F
:100540008A8B1E821B8A1C8A1D8A1E8A1F8A80E053
:10055000DF91CF910895FC018681089581E0633099
:1005600009F080E0089581E0613009F080E00895AD
:10057000860F911D860F911DFC0185859685089536
:10058000FC0187890895EF92FF92CF93DF93DC01FE
:10059000E70152968C915297823049F11F966C93E5
:1005A0001F9750964C9350979B8193709330F9F41A
:1005B0009A8197FF1CC09E8158962C9158972917B5
:1005C00018F458969C935897E82FF0E09F01220F5B
:1005D000331FE20FF31FEA0FFB1F9A819F7097836F
:1005E0009C81908794E091878F5F52968C93DF91E6
:1005F000CF91FF90EF900895EF92FF920F930297A3
:100600000E94C3020F91FF90EF900895CF93DF9364
:10061000EC018C819D81DC01ED91FC910480F581E0
:10062000E02D6E8109951C8A1D8A81E08F8B1E82C8
:10063000188E198E1A8E1B8E1C8E80E0DF91CF9142
:100640000895FC018681089581E0633009F080E01F
:10065000089581E0633009F080E00895860F911DD0
:10066000860F911DFC01808991890895FC01848D7C
:100670000895EF92FF92CF93DF93DC01E701579645
:100680008C915797833049F154966C9354975596B3
:100690004C9355979B8193709330F9F49A8197FF0F
:1006A0001CC09E815D962C915D97291718F45D966C
:1006B0009C935D97E82FF0E09F01220F331FE20F1C
:1006C000F31FEA0FFB1F9A819F7097839C8190878D
:1006D00094E091878F5F57968C93DF91CF91FF9035
:1006E000EF900895EF92FF920F9302970E943903C3
:1006F0000F91FF90EF90089508956F927F928F92DF
:100700009F92AF92BF92CF92DF92EF92FF920F93A0
:100710001F93CF93DF93CDB7DEB762970FB6F894F0
:10072000DEBF0FBECDBFDC015C962C91222309F405
:100730005FC07C010E942B10F701808C918CA28CF1
:10074000B38CDC01CB0188199909AA09BB09B7FD53
:100750004FC06701FBE0CF0ED11C4701370181E19B
:10076000680E711CD6018C9190E09A8B898B8E015A
:100770000F5F1F4F9E012F5E3F4FF6013197408163
:10078000F7016681848195810E942D19B82E81110F
:1007900015C029893A892330310580F0D40150965B
:1007A0008D919C915197009749F0DC01ED91FC915E
:1007B0000190F081E02D40E0B7010995B3E0CB0E48
:1007C000D11CE2E08E0E911CC614D70459F60E948B
:1007D0002B10D7015D962C91DC01CB01820F911D6E
:1007E000A11DB11DF701808F918FA28FB38F01C022
:1007F000B12C8B2D62960FB6F894DEBF0FBECDBF25
:10080000DF91CF911F910F91FF90EF90DF90CF90EC
:10081000BF90AF909F908F907F906F900895DF92E0
:10082000EF92FF920F931F93CF93DF93CDB7DEB775
:1008300062970FB6F894DEBF0FBECDBFDC015796AE
:100840002C91222381F07C010E942B10F701038957
:10085000148925893689DC01CB01801B910BA20B01
:10086000B30BB7FF02C0D12C39C0838590E09A8BBF
:10087000898B8E010F5F1F4F9E012F5E3F4F428578
:100880006681848195810E942D19D82E811118C00E
:1008900029893A892330310598F0D7011D968D9129
:1008A0009C911E97009761F0DC01ED91FC91019005
:1008B000F081E02D8E010F5F1F4F40E0B7010995D9
:1008C0000E942B10F701208DDC01CB01820F911DBE
:1008D000A11DB11D838B948BA58BB68B8D2D62963C
:1008E0000FB6F894DEBF0FBECDBFDF91CF911F9141
:1008F0000F91FF90EF90DF900895DF92EF92FF92BB
:100900000F931F93CF93DF93CDB7DEB762970FB6E8
:10091000F894DEBF0FBECDBFDC0157962C91222389
:1009200081F07C010E942B10F7010389148925892D
:100930003689DC01CB01801B910BA20BB30BB7FFF7
:1009400002C0D12C39C0838590E09A8B898B8E01AF
:100950000F5F1F4F9E012F5E3F4F4285668184814E
:1009600095810E942D19D82E811118C029893A89A4
:100970002330310598F0D7011D968D919C911E97DB
:10098000009761F0DC01ED91FC910190F081E02D88
:100990008E010F5F1F4F40E0B70109950E942B1099
:1009A000F701208DDC01CB01820F911DA11DB11D2E
:1009B000838B948BA58BB68B8D2D62960FB6F89496
:1009C000DEBF0FBECDBFDF91CF911F910F91FF9082
:1009D000EF90DF9008952F923F924F925F926F9227
:1009E0007F928F929F92AF92BF92CF92DF92EF92BF
:1009F000FF920F931F93CF93DF93CDB7DEB7EB97A3
:100A00000FB6F894DEBF0FBECDBFDC0114968D90FB
:100A10009C9015971696DC90D11015C1C22E242EED
:100A2000362E7C01FC01108ED401ED91FC910190D9
:100A3000F081E02D60E0C40109955C01009719F494
:100A400046EDD42E0DC1FC016080718061147104EB
:100A500009F4FCC02701F7E04F0E511CDC01119690
:100A60005C924E921496CC928E01065D1F4F28E048
:100A700030E040E060E0F701848195810E94F0164B
:100A8000182F8111E9C01AA5D5016D927C92D4016D
:100A9000ED91FC910280F381E02D222D40E0632D49
:100AA000C4010995F7018683882309F4D2C099A966
:100AB0009087282F40E060E0848195810E949B17F9
:100AC000782ED401ED91FC91D50114961C928823C7
:100AD00061F00480F581E02DD70116966C91C40178
:100AE0000995F7011682D72CBBC00190F081E02D4B
:100AF000D70116966C91C4010995009709F4A0CF0F
:100B0000212F133108F022E1FC01C48221110FC012
:100B10003BACC12C33E2832E31E0932E3701F2E05F
:100B20006F0E711C5E0181E1A80EB11C38C030E06F
:100B30008E01065D1F4F40E0D70116966C91169707
:100B400014968D919C9115970E94F016182F811183
:100B500070C0DECF9A8289827C826B821E86188A60
:100B60001F8619A21AA21BA219A6BF82AE82B9863D
:100B7000A8868D818B878A87BD86AC868E010F5FA4
:100B80001F4F2C2D40E0F7016681848195810E94E2
:100B90003E17D70152968C91823019F0C394C3103E
:100BA000D9CFF7018289823009F042C0920142E038
:100BB0006681848195810E942A1268EE73E080E04C
:100BC00090E00E942D10D7011F962C911F9740E0B6
:100BD00016966C91169714968D919C9115970E947C
:100BE0000819182F811125C068EE73E080E090E0AD
:100BF0000E942D1040E060E0C7010E94FE1A182FED
:100C0000811117C020E040E060E0C7010E94D41AC3
:100C100089E291E09A838983AE014F5F5F4F60E084
:100C200070E0C7010E94631A81E0F701878B18C04A
:100C300011EDD701ED91FC910480F581E02DC70104
:100C40000995D12E0DC029EDD22E0AC097EDD92ECF
:100C500007C084EDD82E04C0F50171826082E9CF0F
:100C60008D2DEB960FB6F894DEBF0FBECDBFDF9192
:100C7000CF911F910F91FF90EF90DF90CF90BF9099
:100C8000AF909F908F907F906F905F904F903F902C
:100C90002F9008953F924F925F926F927F928F9222
:100CA0009F92AF92BF92CF92DF92EF92FF920F93FB
:100CB0001F93CF93DF93CDB7DEB7EC970FB6F894C1
:100CC000DEBF0FBECDBFDC0114968D909C901597B2
:100CD00016963C9131113EC1522E342E462E5C01A7
:100CE000FC01158ED401ED91FC910190F081E02D75
:100CF00060E0C40109957C01009711F486ED2FC1D5
:100D0000FC01608071806114710409F425C16501E2
:100D1000F7E0CF0ED11CDC011196DC92CE92149636
:100D20005C928E01065D1F4F28E030E040E060E0FD
:100D3000F501848195810E94F0168CAF8111FDC070
:100D40001AA5D7016D927C92D401ED91FC9102809D
:100D5000F381E02D232D40E0642DC4010995F501B8
:100D60008683882309F4FAC099A99087282F40E048
:100D700060E0848195810E949B178CAFD401ED9136
:100D8000FC91D70114961C92882359F00480F581B8
:100D9000E02DD50116966C91C4010995F5011682D6
:100DA000D7C00190F081E02DD50116966C91C40159
:100DB0000995FC01892B09F4A1CF912F133108F07B
:100DC00092E15482992369F0292F30E08E01065D6B
:100DD0001F4F40E0F5016681848195810E94F016E5
:100DE0008CAF8CAD8111ACC0EBAC87E191E09A8304
:100DF0008983C50102969C838B831E86188A1F8671
:100E000019A21AA21BA2CE0141969F838E839987B5
:100E100088872D812B872A879D878C8781E089A7EA
:100E2000F12CFE1499F08E010F5F1F4F2F2D40E023
:100E3000D50116966C91169714968D919C911597E5
:100E40000E943E17F5018789833041F4D5015796FA
:100E50008C91833029F081ED8CAF72C0F394E1CF97
:100E6000960143E0F5016681848195810E942A12F2
:100E70008CAF68EE73E080E090E00E942D10D50109
:100E800054962C91549740E016966C9116971496B0
:100E90008D919C9115970E9408198CAF811150C0BB
:100EA00068EE73E080E090E00E942D1000E010E01A
:100EB00049E2E42E41E0F42E40E0602FC5010E949B
:100EC000FE1A8CAF81113CC020E040E0602FC501CC
:100ED0000E94D41A8CAFFA82E982AE014F5F5F4F55
:100EE000B801C5010E94631A8CAF0130110519F0D9
:100EF00001E010E0E1CF80E28CAF8CAD8823C1F03F
:100F000090E0959587958CAFFE01FC966F01EE24DD
:100F1000E394F12C00E022E040E060E0C5010E9493
:100F2000A61A69E170E080E090E00E942D10E5CF04
:100F300091E0D5015C969C9312C0F70171826082AA
:100F4000D501ED91FC910480F581E02DC501099555
:100F50008CAD05C089ED03C087ED01C084EDEC9632
:100F60000FB6F894DEBF0FBECDBFDF91CF911F91BA
:100F70000F91FF90EF90DF90CF90BF90AF909F9038
:100F80008F907F906F905F904F903F9008953F9229
:100F90004F925F926F927F928F929F92AF92BF9289
:100FA000CF92DF92EF92FF920F931F93CF93DF9335
:100FB000CDB7DEB7EC970FB6F894DEBF0FBECDBF4E
:100FC000DC0114968D909C90159716963C913111EA
:100FD00039C1522E342E462E5C01FC01108ED401F4
:100FE000ED91FC910190F081E02D60E0C401099544
:100FF0007C01009711F486ED2AC1FC0160807180AC
:101000006114710409F420C16501F7E0CF0ED11C11
:10101000DC011196DC92CE9214965C928E01065DF4
:101020001F4F28E030E040E060E0F50184819581C9
:101030000E94F0168CAF8111F8C01AA5D7016D92ED
:101040007C92D401ED91FC910280F381E02D232D5F
:1010500040E0642DC4010995F5018683882309F4D5
:10106000F5C099A99087282F40E060E084819581A0
:101070000E949B178CAFD401ED91FC91D70114967F
:101080001C92882359F00480F581E02DD501169635
:101090006C91C4010995F5011682D2C00190F081CE
:1010A000E02DD50116966C91C4010995FC01892BA0
:1010B00009F4A1CF912F133108F092E154829923C2
:1010C00069F0292F30E08E01065D1F4F40E0F501E9
:1010D0006681848195810E94F0168CAF8CAD811160
:1010E000A7C0EBACF12C4DE1642E41E0742E25013C
:1010F000F2E04F0E511C4E0181E1880E911CFE144E
:1011000049F17A8269825C824B821E86188A1F8628
:1011100019A21AA21BA219A69F828E82998688867E
:101120008D818B878A879D868C868E010F5F1F4FEE
:101130002F2D40E0D50116966C91169714968D913F
:101140009C9115970E943E17F5018289823011F01B
:10115000F394D5CFD50152968C91823019F081ED60
:101160008CAF66C0960142E0F5016681848195816D
:101170000E942A128CAF68EE73E080E090E00E943B
:101180002D10D5011F962C911F9740E016966C915B
:10119000169714968D919C9115970E9408198CAF03
:1011A000811146C068EE73E080E090E00E942D104F
:1011B00040E060E0C5010E94FE1A8CAF811138C08A
:1011C00020E040E060E0C5010E94D41A8CAF89E2C3
:1011D00091E09A838983AE014F5F5F4F60E070E0DA
:1011E000C5010E94631A80E28CAF8CAD8823C1F0E8
:1011F00090E0959587958CAFFE01FC966F01EE24EB
:10120000E394F12C00E022E040E060E0C5010E94A0
:10121000A61A69E170E080E090E00E942D10E5CF11
:1012200091E0D50157969C9312C0F70171826082BC
:10123000D501ED91FC910480F581E02DC501099562
:101240008CAD05C089ED03C087ED01C084EDEC963F
:101250000FB6F894DEBF0FBECDBFDF91CF911F91C7
:101260000F91FF90EF90DF90CF90BF90AF909F9045
:101270008F907F906F905F904F903F900895DC012A
:10128000AA5ABF4F20E030E04D915D91452B59F4B3
:10129000255D3F4F220F331FFC01E20FF31F7183C7
:1012A000608380E008952F5F3F4F2031310561F763
:1012B00083ED0895CF93DF93FC01DA0182818823C7
:1012C00019F08130D9F01FC03483238381E08283F9
:1012D00015C02D913C911197232BA9F00197948370
:1012E0008383EB01888199810196998388838D910D
:1012F0009C911197019711969C938E938381948171
:10130000009739F7128281E023813481232B09F081
:1013100080E0DF91CF9108952F923F924F925F929C
:101320006F927F928F929F92AF92BF92CF92DF92F5
:10133000EF92FF920F931F93CF93DF9300D000D0D3
:10134000CDB7DEB76C017C836B835A8349834C0134
:1013500080E1880E911C5601A7E0AA0EB11C33242F
:1013600033942601BBE04B0E511C3601E2E16E0EB8
:10137000711C83E0282E12E08B819C81892B09F45B
:10138000F5C0D60190968C91823069F128F48823BB
:1013900049F0813081F0F0CF833049F1843009F495
:1013A00057C0EACFF60114838581968190878783A1
:1013B0001287118730A2AE014D5F5F4FBE016F5F94
:1013C0007F4FC5010E94F01E882309F4CFC0D601CB
:1013D0001596ED91FC911697808191968C9391973B
:1013E000818192968C93F6017682658220A2D60145
:1013F00092968C91843069F018F4823061F013C0B9
:10140000853071F0813279F4F60181A182508483B4
:101410000AC0F60113A2E7E0D6011496EC9303C0CC
:10142000D60114968C93D60115968D919C911697A2
:1014300018969C938E93179714968C9114971A96DE
:101440008C931A9719968C931997E4E09096EC93E5
:10145000D60192968C918430B1F0853009F442C067
:10146000823009F06BC0AE014D5F5F4FBE016F5F10
:101470007F4FC5010E94F01E882309F477C0F60152
:10148000858984A36BC0AE014D5F5F4FBE016F5F66
:101490007F4FC5010E94F01E882309F467C0D60162
:1014A00055968C915597833009F058C056968C917B
:1014B0005697813009F052C098969C91989757960C
:1014C0008C91992321F0882309F448C003C082300D
:1014D00009F044C0F60133A2928996A3938997A399
:1014E00085A33CC0AE014D5F5F4FBE016F5F7F4F74
:1014F000C5010E94F01E8823C9F1D60193968C91F4
:101500009397882359F112968D919C911397009788
:1015100029F1DC01ED91FC910190F081E02D740145
:10152000D60195960C91959797962C9197979696AC
:101530004C91969794966C91099510C0F60121A153
:1015400030E022503109AE014D5F5F4FBE016F5F49
:101550007F4FC2010E945A09882341F0D601169696
:101560009C928E92159790961C9206CF0F900F909A
:101570000F900F90DF91CF911F910F91FF90EF90FF
:10158000DF90CF90BF90AF909F908F907F906F90A3
:101590005F904F903F902F9008952F923F924F92DF
:1015A0005F926F927F928F929F92AF92BF92CF92F3
:1015B000DF92EF92FF920F931F93CF93DF9300D0B0
:1015C00000D0CDB7DEB76C017C836B835A8349832F
:1015D0004C0180E1880E911C5601A7E0AA0EB11CB7
:1015E000332433942601BBE04B0E511C3601E2E15B
:1015F0006E0E711C83E0282E12E08B819C81892B5A
:1016000009F4F5C0D60190968C91823069F128F4E6
:10161000882349F0813081F0F0CF833049F1843064
:1016200009F457C0EACFF60114838581968190872B
:1016300087831287118730A2AE014D5F5F4FBE01D5
:101640006F5F7F4FC5010E94F01E882309F4CFC051
:10165000D6011596ED91FC911697808191968C9309
:101660009197818192968C93F6017682658220A271
:10167000D60192968C91843069F018F4823061F032
:1016800013C0853071F0813279F4F60181A1825066
:1016900084830AC0F60113A2E7E0D6011496EC9306
:1016A00003C0D60114968C93D60115968D919C910A
:1016B000169718969C938E93179714968C9114975F
:1016C0001A968C931A9719968C931997E4E0909632
:1016D000EC93D60192968C918430B1F0853009F468
:1016E00042C0823009F06BC0AE014D5F5F4FBE015A
:1016F0006F5F7F4FC5010E94F01E882309F477C0F9
:10170000F601858984A36BC0AE014D5F5F4FBE01BA
:101710006F5F7F4FC5010E94F01E882309F467C0E8
:10172000D60155968C915597833009F058C056963E
:101730008C915697813009F052C098969C91989759
:1017400057968C91992321F0882309F448C003C04F
:10175000813009F044C0F60133A2928996A393899F
:1017600097A385A33CC0AE014D5F5F4FBE016F5F85
:101770007F4FC5010E94F01E8823C9F1D6019396C0
:101780008C919397882359F112968D919C91139780
:10179000009729F1DC01ED91FC910190F081E02DA1
:1017A0007401D60195960C91959797962C919797E1
:1017B00096964C91969794966C91099510C0F60167
:1017C00021A130E022503109AE014D5F5F4FBE01D3
:1017D0006F5F7F4FC2010E945A09882341F0D601F2
:1017E00016969C928E92159790961C9206CF0F900B
:1017F0000F900F900F90DF91CF911F910F91FF905D
:10180000EF90DF90CF90BF90AF909F908F907F90A0
:101810006F905F904F903F902F9008952F923F923E
:101820004F925F926F927F928F929F92AF92BF92F0
:10183000CF92DF92EF92FF920F931F93CF93DF939C
:1018400000D000D0CDB7DEB76C017C836B835A83A8
:1018500049834C0180E1880E911C5601A7E0AA0E35
:10186000B11C332433942601BBE04B0E511C3601CE
:10187000E2E16E0E711C83E0282E12E08B819C81C8
:10188000892B09F4F5C0D60190968C91823069F1CC
:1018900028F4882349F0813081F0F0CF833049F17A
:1018A000843009F457C0EACFF6011483858196810C
:1018B000908787831287118730A2AE014D5F5F4FFB
:1018C000BE016F5F7F4FC5010E94F01E882309F49F
:1018D000CFC0D6011596ED91FC9116978081919617
:1018E0008C939197818192968C93F6017682658292
:1018F00020A2D60192968C91843069F018F482303F
:1019000061F013C0853071F0813279F4F60181A164
:10191000825084830AC0F60113A2E7E0D601149630
:10192000EC9303C0D60114968C93D60115968D9135
:101930009C91169718969C938E93179714968C915A
:1019400014971A968C931A9719968C931997E4E02A
:101950009096EC93D60192968C918430B1F08530BC
:1019600009F442C0823009F06BC0AE014D5F5F4F99
:10197000BE016F5F7F4FC5010E94F01E882309F4EE
:1019800077C0F601858984A36BC0AE014D5F5F4FC0
:10199000BE016F5F7F4FC5010E94F01E882309F4CE
:1019A00067C0D60155968C915597833009F058C081
:1019B00056968C915697813009F052C098969C911A
:1019C000989757968C91992321F0882309F448C061
:1019D00003C0833009F044C0F60133A2928996A374
:1019E000938997A385A33CC0AE014D5F5F4FBE01B5
:1019F0006F5F7F4FC5010E94F01E8823C9F1D60199
:101A000093968C919397882359F112968D919C917E
:101A10001397009729F1DC01ED91FC910190F08181
:101A2000E02D7401D60195960C91959797962C917F
:101A3000979796964C91969794966C91099510C0AD
:101A4000F60121A130E022503109AE014D5F5F4F18
:101A5000BE016F5F7F4FC2010E945A09882341F087
:101A6000D60116969C928E92159790961C9206CF50
:101A70000F900F900F900F90DF91CF911F910F91CA
:101A8000FF90EF90DF90CF90BF90AF909F908F909E
:101A90007F906F905F904F903F902F90089580E1DE
:101AA000089580E108950F931F93CF93DF9300D0A3
:101AB00000D01F92CDB7DEB72091960330919703E7
:101AC000409143035091440380918A0390918B038A
:101AD0002417350739F4409141035091420384178C
:101AE0009507B9F130934403209343039093420345
:101AF00080934103EAE6F4E088E0DF011D928A95D5
:101B0000E9F720918E0330918F034091900350911B
:101B1000910360919203709193038091940390914B
:101B200095030E94C3012091820330918303409169
:101B3000840350918503609186037091870380919F
:101B40008803909189030E94C30181E08093680417
:101B500002C01092680480914D0390914E03209131
:101B60003F03309140032817390709F453C090937D
:101B7000400380933F039091490380914A03911160
:101B800002C0882381F00091000510910105909317
:101B90000005809301058FEF94E00E94E0240093FC
:101BA00000051093010580914B03882321F08130BB
:101BB00071F08F3F71F080914803909169049817FC
:101BC00049F18093690481E08093680423C089EF20
:101BD00001C08AEF9FE09A838F70898381E08B83B5
:101BE0000E9484108160782F9D838C8349815A8163
:101BF0006B818D810E94DC251B820E948410816094
:101C0000782F9D838C8349815A816B818D810E94BD
:101C1000DC25D1CF0E9484108C0181EF93E00E94DB
:101C20006419C8010E949C1081E00F900F900F90E2
:101C30000F900F90DF91CF911F910F910895682F12
:101C400070E09B0184E0220F331F8A95E1F7C90100
:101C5000805E9109089730F480916A04882311F01E
:101C600090E002C080E090E0205F31092031310532
:101C700070F420916904222351F020FD806121FD40
:101C8000806222FD806423FD806824FD9160ECE683
:101C9000F4E0A1E0B0E036E03E0F2191243080F086
:101CA000422F42954F7050E06417750749F42F702A
:101CB000AD0102C0440F551F2A95E2F7842B952BE6
:101CC0003E13EBCF089508952E9A08952E988EBD59
:101CD0000DB407FEFDCF1EBC0DB407FEFDCF0E9464
:101CE000640E8EB508952E9882608EBD0DB407FEE9
:101CF000FDCF6EBD0DB407FEFDCF0C94640E88EFD2
:101D00000E94660E807C8034A1F018F4882301F1D3
:101D10000895803819F0803CB9F0089588ED0E944C
:101D2000660E81FD0BC069EC88ED0E94730E82E0A7
:101D30000CC088ED0E94660E81FDF5CF6BEC88ED3E
:101D40000E94730E83E001C081E0809345030895F3
:101D500061ED88ED0E94730E1092450308950F9374
:101D60001F93CF93DF938C01269A0E94640E219AD1
:101D7000229A2398209A80E58CBD81E08DBD25981C
:101D800068E188E80E94730E60E288E70E94730EA3
:101D900060E088E70E94730EC1E0D0E0209799F0E0
:101DA00088E60E94660E219680FFF8CF61EC88EDF0
:101DB0000E94730E60E680ED0E94730E64E088EE70
:101DC0000E94730E02C08FEF11C088EE0E94660E53
:101DD00082FFFBCFC8010E947F0E60E288EC0E9468
:101DE000730E61E080E80E94730E80E0DF91CF9176
:101DF0001F910F91089581EF93E00E94AF0EE1EBE8
:101E0000F3E08CE893E0918B808B86E493E0938BF6
:101E1000828B20E833E03093A6032093A5039093B0
:101E20005D0380935C0308950F931F93CF93DF931B
:101E300081EF93E00E94D51161EF73E080EE93E0B3
:101E40000E94831D61EF73E08FEC93E00E94831D7D
:101E5000E1EBF3E001EF13E0158304838FE291E0FF
:101E6000918380838DE491E093838283108E118E21
:101E7000128E138E148E1782D8E0D0878CE3809355
:101E8000BA031286138684E08093BD0315861686F6
:101E90008093C003C1E0C78B168A148A118A108A06
:101EA000138A128ABF01C8010E943F09E8E9F3E0E2
:101EB0001583048383E591E09183808381E791E03A
:101EC00093838283138A148A158A168A178A178243
:101ED000D0878CE38093A1031286138684E08093DD
:101EE000A403C28B118A178616861586BF01C80106
:101EF0000E943F098BE991E090938D0380938C03BE
:101F0000909381038093800390937503809374036F
:101F10009093690380936803EFE4F3E015830483EF
:101F200087E791E09183808385E991E093838283C1
:101F3000138A148A158A168A178A1782D0878CE327
:101F4000809358031286138684E080935B03C28BD0
:101F5000118A178616861586BF01C8010E943F099F
:101F600081EA91E09093470380934603DF91CF91FC
:101F70001F910F9108958091F9048160846080938E
:101F8000F90480E091E00E94C4240E94172584B7E0
:101F9000877F84BF0FB6F894A89580916000886110
:101FA00080936000109260000FBE90E080E80FB652
:101FB000F89480936100909361000FBE0E941E22EE
:101FC0000E9479228091E20084608093E2007894FC
:101FD00080910D058430E1F78091F90480FF09C0FC
:101FE0002FEF83ED90E3215080409040E1F700C057
:101FF000000081E0809372040E941F25FDCF0F93A3
:102000001F93CF93DF93EC01DC01129688E0F80177
:1020100001900D928A95E1F70E942B107B876A87C9
:10202000DF91CF911F910F9108950F931F93CF933D
:10203000DF93EC01DC01129685E0F80101900D922E
:102040008A95E1F70E942B1078876F83DF91CF91FB
:102050001F910F9108950C9490108F929F92AF92C0
:10206000BF92CF92DF92EF92FF920E94FC344B011D
:102070005C0120E030E04AE755E40E94B3356B0193
:102080007C0120E030E040E85FE30E94C13487FD3E
:1020900024C020E03FEF4FE757E4C701B6010E949C
:1020A000AE351816ACF420E030E040E251E4C50152
:1020B000B4010E94B3350E94CD3420E931E06115AE
:1020C000710581F0C9010197F1F761507109F7CFEE
:1020D000C701B6010E94CD3402C061E070E0CB01BF
:1020E0000197F1F7FF90EF90DF90CF90BF90AF9006
:1020F0009F908F90089582E084BD93E095BD9AEF04
:1021000097BD80936E0008952FB7F8948091730463
:1021100090917404A0917504B09176042FBF089536
:102120002FB7F894609173047091740480917504D2
:10213000909176042FBF0895CF92DF92EF92FF9295
:102140000F931F932FB7F894409173045091740428
:1021500060917504709176042FBF6A017B01EE24B3
:10216000FF248C0120E030E0C016D106E206F30621
:1021700010F4415051099A01281B390BC9011F91D4
:102180000F91FF90EF90DF90CF9008951F920F92E4
:102190000FB60F9211248F939F93AF93BF938091AB
:1021A000730490917404A0917504B0917604019623
:1021B000A11DB11D8093730490937404A0937504C2
:1021C000B0937604BF91AF919F918F910F900FBE06
:1021D0000F901F901895CF93DF93FC01862F807886
:1021E00009F051C0283008F04FC0442321F09581F8
:1021F000973009F449C0EF012D96A0E0B0E01196A8
:102200009881911103C0662331F021C02596AF302B
:10221000B105A9F739C085E08A9FE0018B9FD00DF9
:102220001124CE0FDF1F442331F081E4888785819C
:102230008F5F858302C081E0888725E02A9FC001E7
:102240002B9F900D1124E80FF91F80851DC067702A
:10225000660F660F660F442341F0606485818F5FCF
:1022600085838770687F682B03C02770687B622B2B
:1022700025E02A9FC0012B9F900D1124E80FF91F24
:102280006087862F01C080E0DF91CF910895DF92B3
:10229000EF92FF920F931F93CF93DF93EC01E62E03
:1022A000F12C85E0689FB0011124FE01E60FF71FB5
:1022B0008085182F177086FF21C001E085E0D82E99
:1022C0008FEF800F8F3008F001E0FE01D09EE00D0F
:1022D000F11D1124808586958695869587708113DA
:1022E00005C0602FCE010E944711EACF0F5F003179
:1022F00061F78D81811302C011501D8385E08E9D91
:10230000F0018F9DF00D1124EC0FFD1F108681E070
:10231000818712862296D783C683DF91CF911F9142
:102320000F91FF90EF90DF900895611102C0069623
:102330000895FC013D9621E03081361307C035E059
:10234000239F800D911D1124069608952F5F3596C9
:10235000203191F780E090E00895FC016134C1F4F0
:102360003F969C01265A3F4F61E0AC014E5F5F4FA4
:10237000DF0112971C9211966C93108213974D9364
:102380005C933596E217F30799F7FC0115820895DF
:102390003D9621E03081361303C0622F0C94471123
:1023A0002F5F35962031B1F70895CF93DF93FC016D
:1023B00087EA91E0918380831582108681E081878E
:1023C0001286CF01029697838683128228E02383A8
:1023D0002CE32483DF011F969F01265A3F4F41E0E3
:1023E000ED0122971882219648831C9223979983A6
:1023F00088831596A217B30799F7EA58FF4F108202
:1024000081E180937B04DF91CF910895CF93DF9397
:102410001F92CDB7DEB749830E949511498100977D
:1024200089F0DC01ED91FC911197309759F01396EA
:102430009C9180E0891731F02081241731F0339688
:102440008F5FF8CF80E090E001C0CF010F90DF9167
:10245000CF9108950F931F93CF93DF9321153105EB
:1024600071F0E901042F162F0E949511FC01892BB0
:1024700041F01283D183C083038380E003C088EDE1
:1024800001C086EDDF91CF911F910F910895CF92FA
:10249000DF92FF920F931F93CF93DF93662381F117
:1024A000F62E8C016C0186E5C80ED11CC0E0D0E090
:1024B000D6018D919D916D010097F1F0DC01ED91B8
:1024C000FC910084F185E02D09958F1115C0AB9624
:1024D000CC0FDD1FC00FD11F88819981DC01ED91E8
:1024E000FC910480F581E02DDF91CF911F910F9138
:1024F000FF90DF90CF9009942196C031D105C1F6AD
:1025000080E0DF91CF911F910F91FF90DF90CF90EE
:1025100008952E980895CF93DF931F92CDB7DEB71D
:1025200089830E94891289818EBD0DB407FEFDCF7B
:102530001EBC0DB407FEFDCF0E94640E8EB50F9039
:10254000DF91CF910895CF93DF9300D0CDB7DEB761
:102550006A8389830E948912898182608EBD6A8123
:102560000DB407FEFDCF6EBD0DB407FEFDCF0F907D
:102570000F90DF91CF910C94640E8F929F92AF9247
:10258000BF92DF92EF92FF920F931F93CF93DF934F
:102590001F92CDB7DEB74C01D62E590149830E9458
:1025A00095117C014981009709F440C0FC018081AC
:1025B0009181892BE9F16D2DC4010E940612F5016C
:1025C000918380830097B1F1FC01228126952695A5
:1025D00030E02031310514F02FE030E081E090E070
:1025E000A0E0B0E004C0880F991FAA1FBB1F2A9566
:1025F000D2F70197F801918380836D2D80EE0E94C0
:10260000A31288ED0E948B12682FF7018481882322
:1026100039F0F401EA58FF4F80818260682B01C0D5
:10262000697F88ED0E94A31280E005C086ED03C09B
:1026300087ED01C08BED0F90DF91CF911F910F912E
:10264000FF90EF90DF90BF90AF909F908F90089594
:102650008F929F92AF92BF92CF92DF92EF92FF92B2
:102660000F931F93CF93DF93862E942E59010E94D0
:102670002B106B017C0128E8C20E23E1D21EE11C65
:10268000F11C00E010E0D0E0C0E098280E942B1080
:10269000DC01CB018C199D09AE09BF09B7FF2DC024
:1026A000692D80EF0E94A3120E942B10DC01CB0148
:1026B0008C199D09AE09BF09B7FF09C088EC0E94BB
:1026C0008B1287FFF1CF60E888EC0E94A31288EF9D
:1026D0000E948B12C82FCF70C43019F0CE3051F049
:1026E0000CC00F5F1F4FA114B10481F20A151B0526
:1026F00069F603C0DF5FD33049F68C2FDF91CF91AD
:102700001F910F91FF90EF90DF90CF90BF90AF900F
:102710009F908F9008959F92AF92BF92CF92DF9239
:10272000EF92FF920F931F93CF93DF937C01C42FFF
:10273000122F992493946C01C60ED11CC60ED11C85
:1027400086E5C80ED11CA42EB12CABE2AA0EB11C9A
:10275000AA0CBB1CAE0CBF1CF60180819181DC0170
:10276000ED91FC910280F381E02D202F412F6C2F01
:102770000995803EC9F4C1110BC061E088EE0E944A
:10278000A31266E670E080E090E00E942D1016C073
:10279000F50180819181DC01ED91FC910284F3854A
:1027A000E02D612F09950AC08D3031F49FEF990D0E
:1027B000933008F040C016C081113DC0F601808101
:1027C0009181DC01ED91FC910190F081E02D202FB1
:1027D000412F6C2F0995D82F8D3061F48FEF890D23
:1027E000833050F464E670E080E090E00E942D10A9
:1027F0009394B2CF8823F1F0C1110BC061E088EE51
:102800000E94A31266E670E080E090E00E942D1026
:1028100011C0EC2FF0E0BB96EE0FFF1FEE0DFF1D79
:1028200080819181DC01ED91FC910284F385E02DA2
:10283000612F09958D2FDF91CF911F910F91FF90FF
:10284000EF90DF90CF90BF90AF909F9008950F933F
:102850001F93CF93DF9300D0CDB7DEB78A016A8391
:1028600089830E948912898182608EBDF8016A8104
:10287000862F882339F00DB407FEFDCF91919EBDC0
:102880008150F7CF060F111D0DB407FEFDCF0E943A
:10289000640EC8010F900F90DF91CF911F910F919F
:1028A00008952F923F924F925F926F927F928F92F4
:1028B0009F92AF92BF92CF92DF92EF92FF920F93CF
:1028C0001F93CF93DF9300D000D01F92CDB7DEB718
:1028D0007D836C835A016901FB0121808FEF820D9A
:1028E000803408F075C00E942B102B013C01F8E8E1
:1028F0004F0EF3E15F1E611C711CEC81FD81828132
:1029000080FD02C060E401C060E888EE0E94A3126E
:1029100020E0312CC114D10409F44AC076012C14F2
:102920003D0408F47101EA82A8016E2D80E10E9445
:1029300027146E2D88E30E94A312EC81FD81608133
:10294000606280EF0E94A31288EC0E948B1287FFC6
:10295000FBCF60E888EC0E94A31288EF0E948B12E4
:10296000282F2F70812C912C1982222361F02B8328
:102970000E942B10DC01CB0184199509A609B70927
:102980002B81B7FD05C0CE18DF080E0D1F1DC2CF6D
:10299000263001F12E3009F456C0243049F4FFEFFF
:1029A0008F1A9F0AA114B10459F18A149B0441F5AE
:1029B00088EF2B830E948B1285FB882780F9EC819E
:1029C000FD81928180FB90F992832B81822F41C0FF
:1029D0008AED3FC088EF0E948B1285FB882780F923
:1029E00091E08927EC81FD81928180FB90F99283AF
:1029F00090FD02C060E401C060E888EE0E94A3126E
:102A000060E088E30E94A312F801608180E10E94E7
:102A1000A3126A8188E30E94A312EC81FD81608188
:102A2000606280EF0E94A31288EC0E948B1287FFE5
:102A3000FBCF60E888EC0E94A31288EF0E948B1203
:102A4000282F2F7092CF89818F5F89838330C1F6C1
:102A5000AFCF0F900F900F900F900F90DF91CF910D
:102A60001F910F91FF90EF90DF90CF90BF90AF90AC
:102A70009F908F907F906F905F904F903F902F909E
:102A800008952F923F924F925F926F927F928F9212
:102A90009F92AF92BF92CF92DF92EF92FF920F93ED
:102AA0001F93CF93DF9300D000D01F92CDB7DEB736
:102AB0005C017D836C834A017901F901C080D1807A
:102AC000FB014180F90111821082FB01828181FDAD
:102AD00002C060E101C060E288EE0E94A3123C2CBB
:102AE0009401EC81FD81408160E0C5010E942813C2
:102AF000582EF6E08F1316C088EF0E948B12829535
:102B0000817091E08927EC81FD81928180FB91F9B0
:102B1000928391FD02C060E101C060E288EE0E94F4
:102B2000A312DECF81115BC088EC0E948B1282FF62
:102B300054C080E30E948B12282E282F30E0C2164A
:102B4000D30608F4232CF70120813181622C712CEB
:102B5000A601421B530B57FF02C040E050E0930117
:102B6000461557050CF49A0129833A832B830E945A
:102B70008912F8E0FEBD8B813A8129810DB407FEF0
:102B8000FDCFF801882341F01EBC81500DB407FE33
:102B9000FDCF4EB54193F6CF020F131F0E94640E76
:102BA00064E088EC0E94A312F70120813181620E5B
:102BB000731E71826082241420F06C147D0408F46A
:102BC0008FCF88EF0E948B1282958170EC81FD81FE
:102BD000928180FB91F9928302C080EF582E852D5F
:102BE0000F900F900F900F900F90DF91CF911F914A
:102BF0000F91FF90EF90DF90CF90BF90AF909F909C
:102C00008F907F906F905F904F903F902F9008959E
:102C10002F923F924F925F926F927F928F929F92EC
:102C2000AF92BF92CF92DF92EF92FF920F931F93DA
:102C3000CF93DF93CDB7DEB762970FB6F894DEBFC0
:102C40000FBECDBF3C01542ED22E402E5E2D2FA0A4
:102C500038A4E9A4FAA4188A1F861E861D868E0150
:102C6000035F1F4F9E01215F3F4F598B0E94BD1292
:102C7000598981119CC0D9824A825B83CC82BE82F1
:102C8000AD8298868F82AE014F5F5F4F68E080E231
:102C90000E9427142D853E85452D60E1C3010E94C9
:102CA0002813182F81117FC0BD2CBB1CBB24BB1C5B
:102CB000E114F10409F46AC0EF85F8898281BB2030
:102CC00009F455C0826082836401AA24A394C114CC
:102CD000D10409F449C03C862B864D855E856F85FD
:102CE000788987019E01255F3F4FC3010E944115EE
:102CF000182F8630B1F42F85388988EF298B3A8BCD
:102D00000E948B1285FB882780F98A2529893A89B8
:102D1000D90112969C91129780FB91F912969C937F
:102D2000D6CF811140C0EBA5FCA53097A1F0019052
:102D3000F081E02D0190F081E02DC4018C199D09F6
:102D40009A8789876B857C859E01275F3F4FA70106
:102D50008BA59CA509958B859C85C81AD90A8215D7
:102D6000930508F0B4CF12C011111DC014C08160CA
:102D700082834D855E8587019101BF01C3010E9459
:102D80005114811114C02D853E850FC02D853E85BF
:102D9000B11003C00AC02D853E8560EA452DC301F0
:102DA0000E94281304C0812F02C060E8F7CF62960A
:102DB0000FB6F894DEBF0FBECDBFDF91CF911F914C
:102DC0000F91FF90EF90DF90CF90BF90AF909F90CA
:102DD0008F907F906F905F904F903F902F900895CD
:102DE0008F929F92AF92BF92CF92EF920F931F93C9
:102DF0001F921F921F930F933F932F934901A12C72
:102E0000B12CCC24C394E12C06E020E80E940816E3
:102E10000F900F900F900F900F900F901F910F91A8
:102E2000EF90CF90BF90AF909F908F9008958F922A
:102E30009F92AF92BF92CF92EF92FF920F931F9209
:102E40001F92FF92EF923F932F934901A12CB12C37
:102E500022E0C22EE02E06E020E80E9408160F9025
:102E60000F900F900F900F900F900F91FF90EF9099
:102E7000CF90BF90AF909F908F9008954F925F92A8
:102E80006F927F928F929F92AF92BF92CF92DF927A
:102E9000EF92FF920F931F93CF93DF93CDB7DEB7DF
:102EA000C054D1090FB6F894DEBF0FBECDBF3C01B0
:102EB000D62E542E422EC02ECE0101965C017C01EE
:102EC000022F29E030E0C3010E94171781111BC0B7
:102ED0008B809C801F93CF92BF92AF921F9280E411
:102EE0008F93A12CB12C82E0C82EE42C06E020E8C0
:102EF000452D6D2DC3010E9408160F900F900F9065
:102F00000F900F900F90C05CDF4F0FB6F894DEBFAC
:102F10000FBECDBFDF91CF911F910F91FF90EF902A
:102F2000DF90CF90BF90AF909F908F907F906F90E9
:102F30005F904F9008958F929F92AF92BF92CF92E1
:102F4000EF920F93CF931F921F921F921F921F9287
:102F50001F92812C912CA12CB12CC12CE22E05E0CA
:102F600020E00E940816C82F6CE271E080E090E03B
:102F70000E942D100F900F900F900F900F900F90B8
:102F80008C2FCF910F91EF90CF90BF90AF909F90EB
:102F90008F9008950F931F93CF93DF938A3F3FEF56
:102FA000930711F486ED2DC0DC011696ED91FC918E
:102FB0001797EF2B09F1122F242FEC011A8740E00D
:102FC0000E94EB10082F8823C9F0682FCE010E94C1
:102FD0009511009739F3FC011483202F40E060E045
:102FE000CE010E949B17182F882351F0602FCE012D
:102FF0000E94AD11812F05C087ED03C084ED01C093
:1030000080E0DF91CF911F910F9108952F923F9211
:103010004F925F926F927F928F929F92AF92BF92E8
:10302000CF92DF92EF92FF920F931F93CF93DF9394
:10303000CDB7DEB766970FB6F894DEBF0FBECDBF33
:103040001B8A38E03C8B3CE33D8B8A3F3FEF930784
:1030500009F4ADC0B22E342EA62E7C01DC011696EA
:10306000CD90DC901797CE01439617969C938E9344
:1030700016971A962C938E010F5F1F4F22E130E0B6
:1030800040E060E0C7010E94F016F701D782C682D7
:103090008111A5C069847A844B845C843D813E8B18
:1030A0002E80670186E5C80ED11C460110E0D401D0
:1030B0008D919C91009789F1DC01ED91FC91008448
:1030C000F185E02D0995811128C0F401808191815D
:1030D000DC01ED91FC910088F189E02D622D0995CC
:1030E0008823D9F0F40180819181DC01ED91FC917C
:1030F0000484F585E02DA201B3010995811159C021
:10310000F40180819181DC01ED91FC910684F785C9
:10311000E02D6E89099581114CC01F5FB2E08B0EC6
:10312000911C103121F610E0F60180819181009709
:1031300089F1DC01ED91FC910084F185E02D099588
:10314000811128C0F60180819181DC01ED91FC9113
:103150000088F189E02D622D09958823A9F1F601F7
:1031600080819181DC01ED91FC910484F585E02D55
:10317000A201B301099581110DC0F60180819181F1
:10318000DC01ED91FC910684F785E02D6E890995AF
:103190008823D1F01F5FB2E0CB0ED11C103121F695
:1031A0002B2D432D6A2DC7010E94CA1718C086ED2A
:1031B00016C00B2D232D4A2D612FC7010E948B13A2
:1031C000813D09F4AACF0BC00B2D232D4A2D612F71
:1031D000C7010E948B13982F977F913DD9F2669675
:1031E0000FB6F894DEBF0FBECDBFDF91CF911F9118
:1031F0000F91FF90EF90DF90CF90BF90AF909F9096
:103200008F907F906F905F904F903F902F90089598
:103210008F929F92AF92BF92CF92EF920F931F9295
:103220001F921F921F921F921F92812C912CA12CF2
:10323000B12CC12CE22E09E020E00E9408160F906C
:103240000F900F900F900F900F900F91EF90CF90E5
:10325000BF90AF909F908F900895AF92BF92CF9202
:10326000DF92EF92FF920F931F93CF93DF9300D0E3
:1032700000D0CDB7DEB77C01690158011C821B82EA
:103280001A8219828E010F5F1F4F9E012D5F3F4FE3
:103290000E94BD12811109C049815A816B817C81D4
:1032A00085019601C7010E9441150F900F900F9064
:1032B0000F90DF91CF911F910F91FF90EF90DF90D2
:1032C000CF90BF90AF900895AF92BF92CF92DF9210
:1032D000EF92FF920F931F93CF938C011D990EC015
:1032E00088EC0E948B1285FF05C0C8010E947F0EEA
:1032F00060E201C060E088EC0E94A3128091450367
:10330000813039F040F0823079F0833039F5C1E016
:103310000CC083E106C080917B04807F8031F1F096
:1033200081E180937B041AC0C0E080917B04807FA0
:103330008031A9F40E942B10DC01CB0188539F4FF0
:10334000AF4FBF4F8093770490937804A093790494
:10335000B0937A0480E280937B0401C0C0E07801DE
:1033600086E5E80EF11C6801A6E7CA0ED11C5701DC
:10337000F501819191915F01009739F0DC01ED91A8
:10338000FC910680F781E02D0995AC14BD0481F70E
:1033900090917B04903409F43FC050F4903221F1B5
:1033A0009033A1F1913109F084C0F60110820AC076
:1033B000913509F458C0903809F46AC0903509F085
:1033C00078C039C0D7018D919D917D01009739F06A
:1033D000DC01ED91FC910480F581E02D0995EC1460
:1033E000FD0481F782E163C00E942B1000917704F5
:1033F000109178042091790430917A04DC01CB019A
:10340000801B910BA20BB30BB7FD53C061E088EE9C
:103410000E94A31280E44BC088EE0E948B1280FDB4
:1034200048C088ED0E948B12682F686088ED0E946A
:10343000A31280E53CC088EC0E948B1286FF39C045
:1034400081E580937B040E942B10DC01CB01449624
:10345000A11DB11D8093770490937804A093790403
:10346000B0937A0426C00E942B10C0907704D090AD
:103470007804E0907904F0907A04DC01CB018C1997
:103480009D09AE09BF09B7FD14C080E880937B0495
:103490002C2F40E060E0C8010E940618882331F01C
:1034A000823D39F080937C0480EA01C080E98093FA
:1034B0007B04CF911F910F91FF90EF90DF90CF9001
:1034C000BF90AF9008958F929F92AF92BF92CF928C
:1034D000EF920F93CF93DF93CDB7DEB7C054D109EE
:1034E0000FB6F894DEBF0FBECDBF5F934F939E0122
:1034F0002F5F3F4F3F932F931F9220E42F9320E89D
:10350000822E912C5B0132E2C32EE12C06E021E8F1
:1035100040E0FC016681848195810E9408160F902D
:103520000F900F900F900F900F90C05CDF4F0FB671
:10353000F894DEBF0FBECDBFDF91CF910F91EF901A
:10354000CF90BF90AF909F908F9008958F929F9251
:10355000AF92BF92CF92DF92EF92FF920F938E2C99
:10356000A42EB12C1F921F92DF92CF92FF92EF9266
:103570009F2CC22EE02E09E021E2462FFC0166813D
:10358000848195810E9408160F900F900F900F90E4
:103590000F900F900F91FF90EF90DF90CF90BF9022
:1035A000AF909F908F9008958F929F92AF92BF920D
:1035B000CF92EF920F93A62EB12C1F921F921F92C3
:1035C0001F921F921F92812C912CC22EE42E0AE092
:1035D00021E240E0FC016681848195810E94081609
:1035E0000F900F900F900F900F900F900F91EF9002
:1035F000CF90BF90AF909F908F9008958F929F92A1
:10360000AF92BF92CF92EF920F93A62EB12C1F9242
:103610001F921F921F921F921F92812C912CC12CDE
:10362000E42E0BE021E240E0FC016681848195817B
:103630000E9408160F900F900F900F900F900F9010
:103640000F91EF90CF90BF90AF909F908F90089583
:10365000FC018285089581E0693009F080E00895D9
:10366000CF93DF93EC018A819B81DC01ED91FC918A
:103670000480F581E02D6A8509958A85813439F4C5
:10368000EA81FB81EA58FF4F8081846080831A863B
:103690001B861C861D861E861F86188A80E0DF9189
:1036A000CF9108958F929F92AF92BF92CF92EF9257
:1036B0000F93A42EB12CB22A1F921F921F921F9219
:1036C0001F921F92812C912CC12CE62E01E023E247
:1036D00040E0FC016285828193810E9408160F9070
:1036E0000F900F900F900F900F900F91EF90CF9041
:1036F000BF90AF909F908F9008958F929F92AF92BE
:10370000BF92CF92EF920F93A62EB12C1F921F92D1
:103710003F932F935F934F934A01C12CE12C00E01C
:1037200023EA40E0FC016285828193810E940816B1
:103730000F900F900F900F900F900F900F91EF90B0
:10374000CF90BF90AF909F908F9008958F929F924F
:10375000AF92BF92CF92EF920F93A42EB12CB22AC8
:103760001F921F921F921F921F921F92812C912CC9
:10377000C12CE62E03E023E240E0FC016285828159
:1037800093810E9408160F900F900F900F900F904A
:103790000F900F91EF90CF90BF90AF909F908F9030
:1037A00008952F923F924F925F926F927F928F92E5
:1037B0009F92AF92BF92CF92DF92EF92FF920F93C0
:1037C0001F93CF93DF93CDB7DEB7E8970FB6F8948A
:1037D000DEBF0FBECDBFDC011296ED90FC901397BB
:1037E0001A963C91311104C1122F242E362E3C0121
:1037F000D701ED91FC910190F081E02D60E0C701CF
:1038000009956C01009709F4F5C0FC01A080B18016
:10381000A114B10409F4F0C04301F4E08F0E911C2F
:10382000DC0111969C928E9214961C93FE013196A7
:103830002F018F0128E030E040E060E0D3011296D4
:103840008D919C9113970E94F016F60114828111BC
:10385000D9C009818D81893009F0D0C0D701ED919F
:10386000FC910280F381E02D222D41E0632DC70100
:103870000995F3018287882309F4C2C0988595834E
:10388000282F40E060E0828193810E949B17182FCF
:10389000882389F0D601AD92BC92D701ED91FC91BD
:1038A0000480F581E02DD3011A966C91C70109952A
:1038B000F3011286ABC0202F013208F020E2D601BE
:1038C000AD92BC9221110BC0940142E0F3016285DC
:1038D000828193810E942A12811197C010C030E02A
:1038E000820140E0D3011A966C911A9712968D913D
:1038F0009C9113970E94F016811187C0E5CF1F920B
:103900001F925F924F921F9288E08F9388E0882EDB
:10391000912CA12CB12C99E2C92EE12C06E020EAD1
:1039200040E0F3016285828193810E940816182F7E
:103930000F900F900F900F900F900F90811166C015
:103940008B81D3011B968C931B97720100E028E0BA
:1039500030E040E01A966C911A9712968D919C91E6
:1039600013970E941717811150C02B813C8140E0B2
:10397000F3016285828193810E941717811145C0EE
:10398000298130E0CE0181967C0140E0D3011A9676
:103990006C911A9712968D919C9113970E9417170C
:1039A000811133C02E8140E0F301628582819381D1
:1039B0000E940819811129C001E0D3011B968C9146
:1039C0001B97801740F020E0402F68E0C3010E9461
:1039D000A61B0F5FF2CF1296ED91FC911397EA5858
:1039E000FF4F80818460808381E050968C930EC06D
:1039F00019ED0CC016ED0AC017ED08C011ED06C098
:103A000014ED04C0F601B182A082182F812FE89630
:103A10000FB6F894DEBF0FBECDBFDF91CF911F91DF
:103A20000F91FF90EF90DF90CF90BF90AF909F905D
:103A30008F907F906F905F904F903F902F90089560
:103A4000CF92DF92FF920F931F93CF93DF9300D01B
:103A500000D0CDB7DEB78C01F62E19821A821B82F8
:103A60001C8220E0462F61E10E94521B20E04F2D76
:103A700060E1C8010E94521B20E04F2D64E0C801A4
:103A80000E94A61B83E0C82ED12C9E012F5F3F4FC2
:103A900044E050E06F2DC8010E947D1B8823F1F0A7
:103AA00020E04F2D64E1C8010E94521B20E04F2D01
:103AB00060E1C8010E94521B64E170E080E090E088
:103AC0000E942D100F900F900F900F90DF91CF91CB
:103AD0001F910F91FF90DF90CF90089589819A8177
:103AE000AB81BC819D7F83309140A041B105C1F283
:103AF00064E670E080E090E00E942D1081E0C81A3A
:103B0000D10819F6CDCFFC0181EB91E09183808340
:103B1000738362831286138614861586168617862B
:103B2000108A148288E085839CE3968391E09783D2
:103B3000808784E0818761157105B1F0DB01AA5AA5
:103B4000BF4F80E090E02D913D91232B49F48B965F
:103B5000880F991FDB01A80FB91FED93FC930895FF
:103B600001968031910579F70895EF92FF920F93B6
:103B70001F93CF938C01C62F7A01FA018081918126
:103B8000A281B3818130F3E09F07F1E0AF07B10577
:103B9000D1F060F48115E1E09E07AE07B10571F147
:103BA00081309140A140B10571F064C0833021E0C3
:103BB000920720E1A207B105E1F183309340A041D3
:103BC000B105B9F157C080917D04811153C020E047
:103BD0004C2F61E1C8010E94521B20E04C2F60E194
:103BE000C8010E94521B20E04C2F64E0C8010E94D3
:103BF000A61B81E080937D0481EB3DC020E0462F31
:103C000061E1C8010E94521B20E04C2F60E1C80115
:103C10000E94521B10927D04F80162856770C77084
:103C2000660F660F660F6C2B828193810E9447128C
:103C300021C020E04C2F64E1C8010E94521B20E00B
:103C40004C2F60E1C8010E94521B64E170E080E0EB
:103C500090E00E942D10F8016285F70121812695E0
:103C6000217067704C2FF801828193810E940618A1
:103C700010927D0480E0CF911F910F91FF90EF9003
:103C80000895EF92FF920F931F93CF93DF93CDB7D9
:103C9000DEB72E970FB6F894DEBF0FBECDBF7C0106
:103CA00081E090E09E878D878E010F5F1F4F9E0100
:103CB000235F3F4F41E0F7016285828193810E943B
:103CC0002D19811151C002E011E089818023D1F0CA
:103CD00019861A861B861C869E01275F3F4F44E08B
:103CE00050E0612FC7010E947D1B81110BC0AE0106
:103CF000475F5F4F612FC7010E94B51D813B99F15E
:103D0000811132C0000F1F5F1830F9F611E0F70182
:103D10008385811740F119861A861B861C869E01B1
:103D2000275F3F4F44E050E0612FC7010E947D1B99
:103D3000811117C089859A85877091708130914073
:103D400081F48B859C8581609C878B87AE01475F62
:103D50005F4F612FC7010E94B51D813B21F081118A
:103D600003C01F5FD4CF80E02E960FB6F894DEBF5D
:103D70000FBECDBFDF91CF911F910F91FF90EF90BC
:103D800008950F931F93CF93DF93FC012089211196
:103D900002C080E020C0EC010E942B100C851D8524
:103DA0002E853F85DC01CB01801B910BA20BB30B51
:103DB000B7FDEFCFCE010E94411E182F0E942B109D
:103DC000DC01CB018C599F4FAF4FBF4F8C879D8734
:103DD000AE87BF87812FDF91CF911F910F910895FB
:103DE000CF93DF93FC01EA0180819181892B19F542
:103DF00080E027C028813981232BD1F3DB012D916D
:103E00003C91D9019C91A381B0E0A81BB10920810C
:103E10003181A20FB31F9C9382818150828388815C
:103E20009981019799838883DB018D919C911197EA
:103E300001968D939C9382818111DCCF8381828353
:103E400081E0DF91CF910895809186040895CF930A
:103E5000DF9300D01F92CDB7DEB79C0180910D0596
:103E6000843019F593E099833B832A839093E9008A
:103E70008FEF9091E800815095FD06C095ED9A95E1
:103E8000F1F700008111F5CF8091E80085FF0DC0AA
:103E900040E050E063E070E0CE0101960E940B210B
:103EA0008091E8008E778093E8000F900F900F903C
:103EB000DF91CF910895CF93DF9300D01F92CDB7BC
:103EC000DEB720910D05243021F522E029839B8364
:103ED0008A8383E08093E9008FEF9091E80081501E
:103EE00095FD06C095ED9A95F1F700008111F5CF8B
:103EF0008091E80085FF0DC040E050E063E070E095
:103F0000CE0101960E940B218091E8008E7780936C
:103F1000E8000F900F900F90DF91CF9108952091BE
:103F20000D052430F1F422E02093E9002FEF3091C9
:103F3000E800215035FD06C035ED3A95F1F7000057
:103F40002111F5CF2091E80025FF0BC040E050E0A3
:103F500065E070E00E940B218091E8008E778093ED
:103F6000E8000895CF93DF9320910D05243039F5B3
:103F700021E02093E9002FEF3091E800215035FD3A
:103F800006C035ED3A95F1F700002111F5CF2091EB
:103F9000E80025FF14C0EC0140E050E068E070E06C
:103FA0000E940B218091E8008E778093E80088E0E2
:103FB000FE01AEE7B4E001900D928A95E1F7DF9142
:103FC000CF91089580910C05811109C00E941E2295
:103FD0000E9479228091E20084608093E20008953B
:103FE00010920C050895089542E061EC81E00E9472
:103FF000B92142E061EC82E00E94B92142E061EC2B
:1040000083E00C94B92180910F05833009F453C0EB
:1040100030F4813071F0823009F48CC008958A3018
:1040200009F478C08B3009F45EC0893009F09AC079
:1040300020C080910E05813A09F094C08091E8007B
:10404000877F8093E8008091120590911305892B5A
:1040500021F468E08EE794E003C060E080E090E047
:1040600070E00E9456218091E8008B778093E800F1
:10407000089580910E05813209F074C08091120577
:1040800090911305892B09F06DC08091E800877F1E
:104090008093E8008091E80082FD05C080910D05C5
:1040A0008111F8CF5FC08091F100809386048091E8
:1040B000E8008B7753C080910E05813A09F052C019
:1040C0008091120590911305892B09F04BC08091C6
:1040D000E800877F8093E8008091E80080FFFCCFB4
:1040E00080910A0136C080910E058132D9F5809108
:1040F000120590911305892BA9F58091E800877F1F
:104100008093E8000E94CD218091100580930A01E0
:104110000C94012A80910E05813221F58091E800EE
:10412000877F8093E8000E94CD21809111058093C4
:104130008704089580910E05813AA1F48091E800EA
:10414000877F8093E8008091E80080FFFCCF80911A
:1041500087048093F1008091E8008E778093E800D7
:104160000C94CD21089508950C94B3200C94AC2F99
:104170000C94B620292F332723303105C1F05CF48D
:104180002130310579F022303105E9F584E590E000
:1041900021E132E03CC021323105C1F0223231054B
:1041A00011F131C082E190E025E632E030C099277C
:1041B0008330910540F5FC01EE0FFF1FEB52FE4FDF
:1041C00020813181FC01EE52FE4F1AC06330D8F4D9
:1041D000E62FF0E0EE0FFF1FE453FE4F2081318108
:1041E00089E090E014C0633070F470E0FB01EE0FE2
:1041F000FF1FEA53FE4F20813181FB01ED53FE4F3B
:10420000808190E004C080E090E020E030E0FA019E
:10421000318320830895CF92DF92EF92FF920F9324
:104220001F93CF93DF93EC018B016A010E94EC2175
:10423000811133C0C114D10439F0F601808191811C
:10424000081B190BC80FD91FE12CF12C0115110502
:1042500019F18091E80085FD16C08091E8008E7705
:104260008093E800C114D10449F0F6018081918166
:10427000E80EF91EF182E08285E00FC00E94EC2179
:10428000882321F30AC089918093F100015011091C
:10429000FFEFEF1AFF0ADACF80E0DF91CF911F9195
:1042A0000F91FF90EF90DF90CF900895209114052B
:1042B000309115052617370748F06115710539F457
:1042C0002091E8002E772093E80001C0B90140E07A
:1042D00061157105A9F120910D05222309F443C050
:1042E000253009F442C02091E80023FD40C0209110
:1042F000E80022FD32C02091E80020FFE9CF409184
:10430000F3002091F20030E0342BFC01CF01611565
:10431000710559F02830310540F481918093F10006
:10432000615071092F5F3F4FF1CF41E028303105D7
:1043300009F040E02091E8002E772093E800C8CFF4
:104340004111C9CF0AC080910D05882361F08530E5
:1043500061F08091E80083FD0AC08091E80082FF4F
:10436000F2CF80E0089582E0089583E0089581E02F
:1043700008958F708093E900EBEEF0E0808181601A
:104380008083EDEEF0E010826093EC00408380913A
:10439000EE00881F8827881F089580910E0587FFEB
:1043A00011C08091E80082FD05C080910D0581114A
:1043B000F8CF11C08091E8008B770BC080910D057C
:1043C000882349F08091E80080FFF8CF8091E800D1
:1043D0008E778093E80008952091E4003091E50005
:1043E00095E64091EC00842F817040FF22C08091BF
:1043F000E80080FD1CC080910D05882391F0853078
:1044000091F08091EB0085FD10C04091E400509147
:10441000E5004217530729F39A01915011F784E000
:10442000089582E0089583E0089581E0089580E092
:1044300008954091E80042FFDECF08950E948A224D
:104440000E949222E0EEF0E0808181608083E8EDBE
:10445000F0E080818F77808319BCA7EDB0E08C916C
:104460008E7F8C9380818F7E808310920C050895BF
:104470000F931F93CF93DF930E948A220E94922270
:10448000C8EDD0E088818F778883888180688883B1
:1044900088818F7D888319BC10920D0510920A05C2
:1044A00010920B0500EE10E0F80180818B7F808375
:1044B00088818160888342E060E080E00E94B921C9
:1044C000E1EEF0E080818E7F8083E2EEF0E080819B
:1044D00081608083808188608083F80180818E7F05
:1044E0008083888180618883DF91CF911F910F91B4
:1044F0000895E8EDF0E080818F7E8083E7EDF0E0C5
:1045000080818160808384E082BF81E080930C059C
:104510000C943822E8EDF0E080818E7F8083109249
:10452000E20008951092DA001092E10008951F92BF
:104530000F920FB60F9211242F933F934F935F93D7
:104540006F937F938F939F93AF93BF93EF93FF935B
:104550008091E10082FF0BC08091E20082FF07C0E2
:104560008091E1008B7F8093E1000E94C3248091C1
:10457000DA0080FF1FC08091D80080FF1BC08091AF
:10458000DA008E7F8093DA008091D90080FF0DC021
:1045900080E189BD82E189BD09B400FEFDCF81E0E3
:1045A00080930D050E94E21F05C019BC10920D05F5
:1045B0000E94F01F8091E10080FF19C08091E2000D
:1045C00080FF15C08091E2008E7F8093E200809191
:1045D000E20080618093E2008091D8008062809345
:1045E000D80019BC85E080930D050E94B42080910D
:1045F000E10084FF30C08091E20084FF2CC080E1A4
:1046000089BD82E189BD09B400FEFDCF8091D8004B
:104610008F7D8093D8008091E1008F7E8093E100B0
:104620008091E2008F7E8093E2008091E2008160C1
:104630008093E20080910A05882311F084E007C08E
:104640008091E30087FD02C081E001C083E0809398
:104650000D050E94B8208091E10083FF29C0809160
:10466000E20083FF25C08091E100877F8093E10015
:1046700082E080930D0510920A058091E1008E7F03
:104680008093E1008091E2008E7F8093E200809130
:10469000E20080618093E20042E060E080E00E94FE
:1046A000B9218091F00088608093F0000E94F31F90
:1046B000FF91EF91BF91AF919F918F917F916F91FA
:1046C0005F914F913F912F910F900FBE0F901F90D0
:1046D00018951F920F920FB60F9211242F933F93AC
:1046E0004F935F936F937F938F939F93AF93BF93FA
:1046F000CF93DF93EF93FF93C091E900CF70809148
:10470000EC00D82FD17080FDD0E81092E9008091A4
:10471000F000877F8093F00078940E94AD23109280
:10472000E9008091F00088608093F000CD2BCF707D
:10473000C093E900FF91EF91DF91CF91BF91AF91CD
:104740009F918F917F916F915F914F913F912F91A9
:104750000F900FBE0F901F9018951F93CF93DF936C
:1047600000D0CDB7DEB7EEE0F5E088E08E0F909197
:10477000F10091938E13FBCF0E9403208091E800FB
:1047800083FFEDC080910E0590910F05492F50E0F9
:104790004A30510508F0E3C0FA01EA5AFF4F0C9481
:1047A0003436803881F0823809F0D9C08091120502
:1047B0008F708093E9008091EB0085FB882780F95A
:1047C0001092E90007C080910B05882311F082E068
:1047D00001C080E09091E800977F9093E80080937B
:1047E000F1001092F10095C0282F2D7F09F0B7C07D
:1047F000882319F0823061F0B2C0809110058130B9
:1048000009F0ADC0933009F080E080930B052BC018
:1048100080911005811127C0809112058F7009F4D5
:104820009EC08093E9002091EB0020FF1CC09330D4
:1048300021F48091EB00806214C09091EB009061B4
:104840009093EB0021E030E0A90102C0440F551F16
:104850008A95E2F74093EA001092EA008091EB001B
:1048600088608093EB001092E9008091E800877FD8
:1048700053C0811174C0109110051F778091E3001F
:104880008078812B8093E3008091E800877F80937C
:10489000E8000E94CD218091E80080FFFCCF80914C
:1048A000E30080688093E300111102C082E001C040
:1048B00083E080930D0553C08058823008F04FC0CC
:1048C000AE014F5F5F4F609112058091100590918E
:1048D00011050E94BA20BC01892B09F440C09091B7
:1048E000E800977F9093E80089819A810E94562181
:1048F0008091E8008B778093E80031C0803879F5AB
:104900008091E800877F8093E80080910A0580937A
:10491000F1008091E8008E778093E8000E94CD211D
:104920001EC081111CC0909110059230C0F480917E
:10493000E800877F8093E80090930A050E94CD21CC
:1049400080910A05811106C08091E30087FD02C0B5
:1049500081E001C084E080930D050E94F41F8091E6
:10496000E80083FF0AC08091E800877F8093E80019
:104970008091EB0080628093EB000F900F90DF91AD
:10498000CF911F910895089590938D0480938C0486
:104990000895E0918C04F0918D04309721F00190FE
:1049A000F081E02D099480E00895E0918C04F0916D
:1049B0008D04309721F00280F381E02D0994089551
:1049C000E0918C04F0918D04309721F00480F58102
:1049D000E02D0994089520918A0430918B04821768
:1049E000930771F090938B0480938A04E0918C0478
:1049F000F0918D04309721F00680F781E02D099425
:104A0000089520918804309189048217930771F0EA
:104A10009093890480938804E0918C04F0918D0434
:104A2000309721F00084F185E02D099408950E94CB
:104A30007B100E94FB0E0E940D330C94BA344F92EF
:104A40005F927F928F929F92AF92BF92CF92DF92AE
:104A5000EF92FF920F931F93CF93DF9300D000D07C
:104A60001F92CDB7DEB70E94530D9FE8C92E94E088
:104A7000D92E00E010E0AA24A394B12C702E802F30
:104A80000E941F0E4C01F601419051906F01482683
:104A9000592641145104B1F40F5F1F4F0031110525
:104AA00069F78FEF89838A831B820E94841081605B
:104AB000782F9D838C8349815A816B818D810E94DF
:104AC000DC2541C08091F90481FD0E94630E20E045
:104AD00030E07501022E02C0EE0CFF1C0A94E2F7D2
:104AE000C70184219521892B41F129837A828E2067
:104AF0009F2091E0892809F490E09B830E94841014
:104B00008160782F9D838C8349815A816B818D814F
:104B10000E94DC2549815A816B817C818D810E94B4
:104B20009D2F000F111FF801E157FB4F80819181EC
:104B3000E826F926F182E08206C02F5F3F4F203140
:104B4000310539F6A9CF0E949C2F0E944232109164
:104B50008E040E94C9241817D1F00E94C9248093A2
:104B60008E040F900F900F900F900F90DF91CF91C8
:104B70001F910F91FF90EF90DF90CF90BF90AF907B
:104B80009F908F907F905F904F900C9440330F9048
:104B90000F900F900F900F90DF91CF911F910F9179
:104BA000FF90EF90DF90CF90BF90AF909F908F904D
:104BB0007F905F904F900895CF93DF93CDB7DEB78E
:104BC0002B970FB6F894DEBF0FBECDBF942F4F8347
:104BD000252F588769877A878B874A855B85452B80
:104BE00021F02F3F09F59F3FF9F4DE01119686E091
:104BF000FD0111928A95E9F785E0FE013796019053
:104C00000D928A95E1F749815A816B817C818D8172
:104C10009E810E949B2C2B960FB6F894DEBF0FBE90
:104C2000CDBFDF91CF9108954F81588569857A85F1
:104C30008B850E949D2FD9CF882309F49BC09CEFC0
:104C4000980F913A18F40E943A2F0DC090E2980FF5
:104C5000983058F4877091E001C0990F8A95EAF76F
:104C6000892F0E94792F0C94242F9BE5980F933065
:104C700070F4853A29F0863A31F083E890E005C077
:104C800081E890E002C082E890E00C94EB2498E583
:104C9000980F953108F06EC0883A61F1893A69F150
:104CA0008A3A71F18B3A79F18C3A81F18D3A89F136
:104CB0008E3A91F18F3A99F1813BA1F1803BA9F1B4
:104CC000823BB1F1833BB9F1843BC1F1853BC9F132
:104CD000863BD1F1873BD9F1883BE1F1893BE9F192
:104CE0008A3BF1F18B3BF9F18C3B09F43FC080E04A
:104CF00090E03EC082EE90E03BC089EE90E038C08C
:104D00008AEE90E035C085EB90E032C086EB90E013
:104D10002FC083EB90E02CC084EB90E029C087EBA0
:104D200090E026C08CEC90E023C08DEC90E020C099
:104D300083E891E01DC08AE891E01AC082E991E021
:104D400017C084E991E014C081E292E011C083E2CF
:104D500092E00EC084E292E00BC085E292E008C0CF
:104D600086E292E005C087E292E002C08AE292E029
:104D70000C9401250895882329F19CEF980F913A0E
:104D800018F40E94572F0DC090E2980F983058F4F5
:104D9000877091E001C0990F8A95EAF7892F0E94E8
:104DA0007F2F0C94242F9BE5980F933020F480E004
:104DB00090E00C94EB24885A853120F480E090E058
:104DC0000C9401250895882321F00E94792F0C94DA
:104DD000242F0895882321F00E947F2F0C94242FE4
:104DE0000895BF92CF92DF92EF92FF920F931F939D
:104DF000CF93DF9300D000D000D0CDB7DEB725E051
:104E0000FC01DE01119601900D922A95E1F7FC015B
:104E1000408131810281258122952F7063817481C7
:104E2000672B09F4CCC23F3F19F44F3F09F4C7C2C6
:104E30006C0149833A8389819A812E830E94E32EF3
:104E4000182FB92E0E94E22E0E94F42DEB2DE29530
:104E5000EF70F0E0E05AFF4F2E810C9434368B2D2A
:104E6000807F9B2D9F70F92E882319F0F29490EF8C
:104E7000F922002349F0FF2009F44EC28F2D0E9431
:104E80008C2F0E94242F48C2812F0E94BB26FF2016
:104E900009F495C28F2D0E94922F26960FB6F89492
:104EA000DEBF0FBECDBFDF91CF911F910F91FF905D
:104EB000EF90DF90CF90BF900C94242F8B2D807FAC
:104EC0009B2D9F70F92E803219F0F29480EFF8221A
:104ED000113071F4002341F0263008F070C20E94B6
:104EE000762F8F2179F022C0253008F068C21EC0CD
:104EF0000023D1F0222331F0F601858180FF0CC21E
:104F00008F7085838F2D26960FB6F894DEBF0FBE67
:104F1000CDBFDF91CF911F910F91FF90EF90DF9068
:104F2000CF90BF900C94E32621110BC28F2D72C13C
:104F30002B2D26952695237030E02115310521F083
:104F400021303105D1F03BC2002321F0812F9B2D70
:104F5000937002C080E090E026960FB6F894DEBF12
:104F60000FBECDBFDF91CF911F910F91FF90EF90BA
:104F7000DF90CF90BF900C94EB24002321F0812F81
:104F80009B2D937002C080E090E026960FB6F894B7
:104F9000DEBF0FBECDBFDF91CF911F910F91FF906C
:104FA000EF90DF90CF90BF900C940125812F0023CC
:104FB00019F00E944A3102C00E94B23126960FB603
:104FC000F894DEBF0FBECDBFDF91CF911F910F913F
:104FD000FF90EF90DF90CF90BF900C9437328B2DE5
:104FE000837009F07BC00111EAC1812F82958695FB
:104FF0008770880F880F912F9F70C92ED12CE12CBC
:10500000F12C082E04C0CC0CDD1CEE1CFF1C0A94F5
:10501000D2F714FF12C04FE050E060E070E004C02F
:10502000440F551F661F771F8A95D2F7CB01BA012F
:10503000609570958095909503C060E070E0CB011D
:105040002B2D269526952370422F50E04230510596
:10505000D9F04330510569F16C297D298E299F29AA
:105060004130510551F126960FB6F894DEBF0FBEC0
:10507000CDBFDF91CF911F910F91FF90EF90DF9007
:10508000CF90BF900C94072E6C297D298E299F29E3
:1050900026960FB6F894DEBF0FBECDBFDF91CF913D
:1050A0001F910F91FF90EF90DF90CF90BF900C94E5
:1050B000192E0E94072EC701B60126960FB6F89446
:1050C000DEBF0FBECDBFDF91CF911F910F91FF903B
:1050D000EF90DF90CF90BF900C94F52D002319F046
:1050E0008B2D817001C08695882309F468C1812FBA
:1050F000829586958770880F880F912F9F70C92E93
:10510000D12CE12CF12C082E04C0CC0CDD1CEE1CA3
:10511000FF1C0A94D2F714FF12C04FE050E060E089
:1051200070E004C0440F551F661F771F8A95D2F7A1
:10513000CB01BA01609570958095909503C060E0B1
:1051400070E0CB012B2D269526952370422F50E041
:1051500042305105D9F04330510569F16C297D2960
:105160008E299F294130510551F126960FB6F894AA
:10517000DEBF0FBECDBFDF91CF911F910F91FF908A
:10518000EF90DF90CF90BF900C94BE2E6C297D29BC
:105190008E299F2926960FB6F894DEBF0FBECDBF8D
:1051A000DF91CF911F910F91FF90EF90DF90CF9003
:1051B000BF900C94D02E0E94BE2EC701B601269639
:1051C0000FB6F894DEBF0FBECDBFDF91CF911F9118
:1051D0000F91FF90EF90DF90CF90BF900C94AC2E8A
:1051E000103F49F118F4103E48F491C0123F09F401
:1051F00053C0E8F1133F09F464C089C01F708B2DC0
:105200008F71002321F00E94452E812F7CCE0E94B9
:10521000662E812F26960FB6F894DEBF0FBECDBF47
:10522000DF91CF911F910F91FF90EF90DF90CF9082
:10523000BF900C94EA260023B1F0253008F0BFC0DF
:105240008B2D8F7126960FB6F894DEBF0FBECDBFA3
:10525000DF91CF911F910F91FF90EF90DF90CF9052
:10526000BF900C948B2E263008F0A9C0E9CF002304
:10527000A9F08B2D8F7126960FB6F894DEBF0FBE66
:10528000CDBFDF91CF911F910F91FF90EF90DF90F5
:10529000CF90BF900C94452E002359F38B2D8F7126
:1052A00026960FB6F894DEBF0FBECDBFDF91CF912B
:1052B0001F910F91FF90EF90DF90CF90BF900C94D3
:1052C000662E002399F08B2D8F7126960FB6F894D9
:1052D000DEBF0FBECDBFDF91CF911F910F91FF9029
:1052E000EF90DF90CF90BF900C94302E26960FB6A3
:1052F000F894DEBF0FBECDBFDF91CF911F910F910C
:10530000FF90EF90DF90CF90BF900C942B2E002356
:10531000A9F0222309F4ADCF812F26960FB6F89479
:10532000DEBF0FBECDBFDF91CF911F910F91FF90D8
:10533000EF90DF90CF90BF900C941C26222309F4AD
:10534000ADCF812F26960FB6F894DEBF0FBECDBF2E
:10535000DF91CF911F910F91FF90EF90DF90CF9051
:10536000BF900C94BB264B2D4F70612FC6010E943D
:105370005F0126960FB6F894DEBF0FBECDBFDF915A
:10538000CF911F910F91FF90EF90DF90CF90BF9042
:105390000C943F2D4B2D4F70612FC60126960FB6F2
:1053A000F894DEBF0FBECDBFDF91CF911F910F915B
:1053B000FF90EF90DF90CF90BF900C94D600269690
:1053C0000FB6F894DEBF0FBECDBFDF91CF911F9116
:1053D0000F91FF90EF90DF90CF90BF9008950E94C3
:1053E000992F0E94682F0E94242F0E94E7320E946A
:1053F000373280E090E00E94EB2480E090E00C9453
:1054000001250E94892F0C94EF290E94E32E292F59
:1054100022952F7030E02C3031054CF42A303105C4
:105420006CF4225031092230310588F407C02C3049
:10543000310549F02F30310531F009C0803E48F088
:10544000803F29F406C093FB882780F9089580E007
:10545000089581E00895CF93DF9300D000D01F928C
:10546000CDB7DEB70F900F900F900F900F90DF9198
:10547000CF910895CF93DF9300D000D000D0CDB767
:10548000DEB726960FB6F894DEBF0FBECDBFDF9114
:10549000CF9108951F93CF93DF93C091AF0416E08F
:1054A0008091B004C81799F0D0E01C9FF0011D9FB7
:1054B000F00D1124EF54FB4F4081518162817381C3
:1054C000848195810E943A2A2196C770E9CFDF91A5
:1054D000CF911F9108954091E1045091E2046091B1
:1054E000E3047091E4048091E5049091E6040C9447
:1054F0003A2A8091E60482958F7009F054C0809119
:10550000E304882309F44FC08091AF04A091B00454
:105510006091E1047091E2044091E4045091E5044B
:10552000B6E08A1709F43FC090E041155105C1F17A
:105530007F3F11F46F3FA1F1B89FF001B99FF00DCB
:105540001124EF54FB4F218172132AC02081621372
:1055500027C02281211124C02381348124173507DB
:1055600010F421503109241B350B283C3105C0F4BF
:105570002091E6042F7020612093E60426E0289F06
:10558000F001299FF00D1124EA54FB4F80818F70A8
:105590008061808381EE94E00E94F1260C944A2A77
:1055A00001968770BECF0895CF92DF92EF92FF925F
:1055B0000F931F93CF93DF93CDB7DEB762970FB6EC
:1055C000F894DEBF0FBECDBF8C0185E0F801DE018F
:1055D0001D9601900D928A95E1F7D8014C91119694
:1055E0005C91119712966C9112971396CD90DC9066
:1055F00014973091E1047091E2048091E404909159
:10560000E504009709F46BC17F3F19F43F3F09F4AB
:1056100066C1E090E304EE2009F4C0C02091E604E6
:10562000C816D90628F0F601E81BF90BCF0104C013
:10563000809590958C0D9D1DFF24F394883C9105D9
:1056400078F0F12C207F09F0C6C07C2DD98AC88A59
:1056500089890E942B2A81EE94E00E94F126B1C034
:10566000822F807F09F046C0751314C0341312C016
:10567000611110C02F7020612093E6040E946B2AF4
:1056800081EE94E00E94F1268091E604D8011596FF
:105690008C932EC0CD2819F15F3F11F44F3FF9F0E4
:1056A000F62E61111CC08091AF042091B00436E049
:1056B000821709F45AC090E0389FF001399FF00D2D
:1056C0001124EF54FB4F7181571306C070814713AB
:1056D00003C07281711103C001968770E9CFF62E65
:1056E000662309F418C18091E60481608093E60482
:1056F000F12C11C1751308C0341306C0611104C028
:105700008091E604D801C3C04D875E878D859E8554
:105710006A8B0E94052A6A898823E1F16623D1F108
:105720002091E604822F82958F7090E0029774F0AA
:105730008091E1049091E20498878F831986DB863B
:10574000CA862C87CE0107960E94F12686E0F801D2
:10575000A1EEB4E001900D928A95E1F70E94792ABA
:105760000E946B2AFF24F394D6C04D875E878D85F7
:105770009E850E94E32E292F22952F7030E0223043
:1057800031050CF0BCC09F7009F0B6C0805E883057
:1057900008F4C1C0C8010E94F126E4CFC816D9069A
:1057A00008F453C0F601E81BF90BCF01883C9105C2
:1057B00008F450C0F12C7C2DD98AC88A89890E94AE
:1057C0002B2AE1EEF4E086E0DF011D928A95E9F7ED
:1057D0000E946B2AA0C0751314C0341312C061114B
:1057E00010C08091E604F8018583C8010E94F1266B
:1057F00086E0E1EEF4E0DF011D928A95E9F7FE2CE8
:105800008AC04D875E878D859E856A8B0E94052A9A
:105810006A89882309F4BECF662309F4BBCF20919F
:10582000E604822F82958F7090E002970CF48ECF61
:105830008091E1049091E2049A8389831B82DD8246
:10584000CC822E83CE0101967FCF809590958C0DD2
:105850009D1DACCFF62E662309F49CCF75132EC088
:1058600034132CC02091E60420FD1FC0822F8295A6
:105870008F70D9F0D80115962C9315978F3049F079
:105880008F5F982F9295907F822F8F70892B15961E
:105890008C93C8010E94F12686E0F801A1EEB4E0E5
:1058A00001900D928A95E1F793CF86E0F801A1EE81
:1058B000B4E001900D928A95E1F72DC04D875E8787
:1058C0008D859E850E94052A811140CF8091E60436
:1058D00081608093E604C8010E94F1261CC0662303
:1058E00009F458CF4D875E878D859E850E94052AD5
:1058F000882309F44FCF2ACF811148CF0CC0243020
:1059000031050CF047CF9F7009F440CFF801958125
:10591000907F09F03BCF8F2D62960FB6F894DEBFD3
:105920000FBECDBFDF91CF911F910F91FF90EF90F0
:10593000DF90CF9008951F93CF93DF93CDB7DEB75D
:105940002C970FB6F894DEBF0FBECDBF4F8358879C
:1059500069877A878B879C87CE0107960E94D42A15
:10596000882369F08F8198852A853B85232BF1F167
:105970009F3F09F063C08F3F09F060C037C086E0E9
:10598000FE013796DE01119601900D928A95E1F79E
:105990006F817885EA85FB85309741F17F3F11F46F
:1059A0006F3F21F12091B00430E0C901019687706A
:1059B00099274091AF0450E08417950709F447C038
:1059C00069837A83FD83EC8396E0929FD001939F55
:1059D000B00D1124AF54BB4FFE01319601900D92D2
:1059E0009A95E1F78093B0040E944A2A16E08091CC
:1059F000AF049091B0048917C1F1189FC001112420
:105A00008F549B4F0E94D42A882379F1E091AF04F0
:105A10001E9FF0011124EF54FB4F408151816281A0
:105A20007381848195810E943A2A8091AF0490E02D
:105A30000196877099278093AF04D9CF4F815885FD
:105A400069857A858B859C850E943A2ACFCF0E94F2
:105A5000012A1092B0041092AF04E1EEF4E086E067
:105A6000DF011D928A95E9F7C1CF2C960FB6F89405
:105A7000DEBF0FBECDBFDF91CF911F910895DF92A2
:105A8000EF92FF920F931F93CF93DF93FC01892B2B
:105A900009F48AC0E12CF12CDD24D394EF01219686
:105AA0008491853709F461C058F4843708F04EC0FA
:105AB000843008F06AC08130D1F0823071F174C056
:105AC000883709F45DC050F4863709F455C087372C
:105AD00009F06AC08E2D0E94862F54C09CE7980F53
