:100000000C94BB010C940D020C940D020C940D0287
:100010000C940D020C940D020C940D020C940D0224
:100020000C940D020C940D020C940F1B0C94E11B0C
:100030000C94A2280C940D020C940D020C940D0249
:100040000C940D020C9401290C940D020C940D02D9
:100050000C940D020C94AE080C940D020C940D023D
:100060000C940D020C940D020C940D020C940D02D4
:100070000C940D020C940D020C940D020C940D02C4
:100080000C940D020C940D020C940D020C940D02B4
:100090000C940D020C940D020C940D020C940D02A4
:1000A0000C940D020C940D020C940D024E1C701C4D
:1000B0005E1D701C5E1DB51CD81C5E1D2D1D401DD7
:1000C000921F921FC01FC01F1A2048224822482298
:1000D00058204822592159211C22482248223322E3
:1000E0000000000000000000000000000000000010
:1000F0000000000000003832000000000405060780
:1001000008090A0B0C0D0E0F1011121314151617F7
:1001100018191A1B1C1D1E1F2021222324252627E7
:1001200028292A2B2C2D2E2F3031323334353637D7
:10013000CB393A3B3C3D3E3F404142434445464734
:1001400048494A4B4C4D4E4F5051525354555657B7
:1001500058595A5B5C5D5E5F606162636465A56768
:1001600068696A6B6C6D6E6F707172737475767797
:1001700078797A7B7C7D7EA8A9AA0000008500871B
:1001800088898A8B00000000909100000000000028
:10019000000000000000000000000000000000005F
:1001A000000000000000000000000000000000004F
:1001B000000000000000000000000000000000003F
:1001C000000000000000000000000000000000002F
:1001D0000000000000000000E0E1E2E3E4E5E6E703
:1001E000000000000000000000000000000000000F
:1001F000000000000000000001032403550053002C
:1002000042003200550053004200200066006F009B
:1002100072002000590044004B00420073000000AF
:100220000A03590041004E0047000000040309047E
:1002300009023B00020100A0320904000001030191
:100240000100092111010001223F00070581030877
:10025000000A090401000103000000092111010046
:10026000012236000705820308000A12011001006E
:10027000000008BCFA6B0027060102000105010915
:1002800080A101850216010026B7001A01002AB7D5
:1002900000751095018100C0050C0901A1018503BD
:1002A000160100269C021A01002A9C027510950175
:1002B0008100C005010906A101050719E029E7151C
:1002C00000250195087501810295017508810105D8
:1002D000081901290595057501910295017503918C
:1002E000010507190029FF150025FF9506750881EE
:1002F00000C0000000000000000000000101010239
:1003000002020303040405050606070808090A0B90
:100310000B0C0D0E0F10111213151617191A1B1DA9
:100320001E2022232527292B2D2F313335383A3D06
:100330003F4244474A4D505356595C5F6266696C70
:100340007074777B7E82868A8E9195999DA1A5A9EE
:10035000ADB0B4B8BCC0C3C7CBCED2D5D8DBDFE21A
:10036000E4E7EAECEFF1F3F5F7F8FAFBFCFDFEFF4A
:10037000FFFF7107020811241FBECFEFDAE0DEBFD6
:10038000CDBF04B603FE27C08091E6029091E7023C
:10039000A091E802B091E9028730904BA740B04BA2
:1003A000D1F41092E6021092E7021092E802109245
:1003B000E90214BE84B7877F84BF0FB6F894A8956E
:1003C00080916000886180936000109260000FBE91
:1003D000E0E0F8E3099511E0A0E0B1E0EEE9FAE52C
:1003E00002C005900D92A637B107D9F722E0A6E723
:1003F000B1E001C01D92A63EB207E1F711E0CBEBE0
:10040000D1E004C02197FE010E94162DC93BD107FF
:10041000C9F70E9412060C944D2D0C94000008950B
:1004200080E091E008958CE090E00895FC01623056
:1004300041F128F4662351F0613099F0089563305A
:1004400009F457C0643009F468C008958281882394
:1004500009F452C00E94E72782729927892B79F00C
:1004600008C08281882309F447C00E94E72781FFE2
:1004700006C00E94E72780FD02C085E358C089E2DC
:1004800056C04230C9F048F4442389F0413021F588
:1004900084E38093770188E21DC04430B9F088F08E
:1004A0004530D1F481E3809377018AE213C085E37C
:1004B0008093770189E20EC088E38093770187E318
:1004C00009C088E38093770182E504C083E38093C9
:1004D00077018FE0809376018281882369F00E9402
:1004E000E72785FF03C08091770121C080917601C5
:1004F0001EC08281811105C0809178010E94201F59
:100500001CC00E94E72780FF06C00E94E72782FFE9
:1005100010C08CE40CC08AE20AC08281882361F397
:100520000E94E72782FF02C08DE301C081E2809331
:100530007801809178010E94811E0C942128462F19
:10054000672F0C94082B805C0E94FC2A089588EF8A
:1005500090E0089580EE90E0089580E1089580E1B4
:1005600008950895809120029091210220917901AF
:1005700030917A012817390741F090937A018093DE
:10058000790181E080937B0102C010927B0181E0C0
:100590000895482F50E0CA0124E0880F991F2A953A
:1005A000E1F7805E9109089730F480912202882358
:1005B00011F090E002C080E090E0E4E2F2E0A1E01F
:1005C000B0E036E03E0F2191243080F0622F62953A
:1005D0006F7070E04617570749F42F70BD0102C0D5
:1005E000660F771F2A95E2F7862B972B3E13EBCFEA
:1005F00008950895E82FF0E0EE0FFF1FE850FE4F3A
:10060000859194910895569A5E9A0895811101C03A
:100610005E9A0895811101C05E98089580E0089562
:10062000089580E0089581E00895860F911D860F5A
:10063000911DFC015687458781E00895CF93DF9394
:10064000EC018C819D81DC01ED91FC910480F581B0
:10065000E02D6E8109951F86188A81E08A8B1E82A3
:100660001B8A1C8A1D8A1E8A1F8A80E0DF91CF9117
:100670000895FC018681089581E0633009F080E0EF
:10068000089581E0613009F080E00895860F911DA2
:10069000860F911DFC01858596850895FC0187894B
:1006A0000895EF92FF92CF93DF93DC01E70152961A
:1006B0008C915297823049F11F966C931F975096F8
:1006C0004C9350979B8193709330F9F49A8197FFE4
:1006D0001CC09E8158962C915897291718F458964B
:1006E0009C935897E82FF0E09F01220F331FE20FF1
:1006F000F31FEA0FFB1F9A819F7097839C8190875D
:1007000094E091878F5F52968C93DF91CF91FF9009
:10071000EF900895EF92FF920F9302970E9451037A
:100720000F91FF90EF9008950895DF92EF92FF925E
:100730000F931F93CF93DF93CDB7DEB762970FB6BA
:10074000F894DEBF0FBECDBFDC0157962C9122235B
:1007500081F07C010E941308F7010389148925891F
:100760003689DC01CB01801B910BA20BB30BB7FFC9
:1007700002C0D12C39C0838590E09A8B898B8E0181
:100780000F5F1F4F9E012F5E3F4F42856681848120
:1007900095810E941511D82E811118C029893A8996
:1007A0002330310598F0D7011D968D919C911E97AD
:1007B000009761F0DC01ED91FC910190F081E02D5A
:1007C0008E010F5F1F4F40E0B70109950E9413088B
:1007D000F701208DDC01CB01820F911DA11DB11D00
:1007E000838B948BA58BB68B8D2D62960FB6F89468
:1007F000DEBF0FBECDBFDF91CF911F910F91FF9054
:10080000EF90DF9008953F924F925F926F927F92A8
:100810008F929F92AF92BF92CF92DF92EF92FF9210
:100820000F931F93CF93DF93CDB7DEB7EC970FB63F
:10083000F894DEBF0FBECDBFDC0114968D909C9066
:10084000159716963C91311139C1522E342E462EF1
:100850005C01FC01108ED401ED91FC910190F081BE
:10086000E02D60E0C40109957C01009711F486ED4C
:100870002AC1FC01608071806114710409F420C1F7
:100880006501F7E0CF0ED11CDC011196DC92CE920F
:1008900014965C928E01065D1F4F28E030E040E028
:1008A00060E0F501848195810E94D80E8CAF8111A2
:1008B000F8C01AA5D7016D927C92D401ED91FC91FC
:1008C0000280F381E02D232D40E0642DC4010995C1
:1008D000F5018683882309F4F5C099A99087282F0C
:1008E00040E060E0848195810E94830F8CAFD40149
:1008F000ED91FC91D70114961C92882359F0048045
:10090000F581E02DD50116966C91C4010995F5018C
:100910001682D2C00190F081E02DD50116966C911F
:10092000C4010995FC01892B09F4A1CF912F133142
:1009300008F092E15482992369F0292F30E08E016A
:10094000065D1F4F40E0F5016681848195810E941C
:10095000D80E8CAF8CAD8111A7C0EBACF12C41E16E
:10096000642E41E0742E2501F2E04F0E511C4E0121
:1009700081E1880E911CFE1449F17A8269825C82C1
:100980004B821E86188A1F8619A21AA21BA219A6BC
:100990009F828E82998688868D818B878A879D86A5
:1009A0008C868E010F5F1F4F2F2D40E0D5011696CC
:1009B0006C91169714968D919C9115970E94260F15
:1009C000F5018289823011F0F394D5CFD50152968A
:1009D0008C91823019F081ED8CAF66C0960142E0B7
:1009E000F5016681848195810E94120A8CAF68EEC0
:1009F00073E080E090E00E941508D5011F962C91CD
:100A00001F9740E016966C91169714968D919C91C5
:100A100015970E94F0108CAF811146C068EE73E00C
:100A200080E090E00E94150840E060E0C5010E946F
:100A3000E6128CAF811138C020E040E060E0C501D3
:100A40000E94BC128CAF87E191E09A838983AE014A
:100A50004F5F5F4F60E070E0C5010E944B1280E283
:100A60008CAF8CAD8823C1F090E0959587958CAFC5
:100A7000FE01FC966F01EE24E394F12C00E022E0ED
:100A800040E060E0C5010E948E1269E170E080E004
:100A900090E00E941508E5CF91E0D50157969C9310
:100AA00012C0F70171826082D501ED91FC91048042
:100AB000F581E02DC50109958CAD05C089ED03C018
:100AC00087ED01C084EDEC960FB6F894DEBF0FBE43
:100AD000CDBFDF91CF911F910F91FF90EF90DF90ED
:100AE000CF90BF90AF909F908F907F906F905F90CE
:100AF0004F903F9008952E9A08952E988EBD0DB474
:100B000007FEFDCF1EBC0DB407FEFDCF0E947B0586
:100B10008EB508952E9882608EBD0DB407FEFDCF70
:100B20006EBD0DB407FEFDCF0C947B0588EF0E94CF
:100B30007D05807C8034A1F018F4882301F10895AC
:100B4000803819F0803CB9F0089588ED0E947D0549
:100B500081FD0BC069EC88ED0E948A0582E00CC023
:100B600088ED0E947D0581FDF5CF6BEC88ED0E943C
:100B70008A0583E001C081E080937C01089561EDE6
:100B800088ED0E948A0510927C0108950F931F93AF
:100B9000CF93DF938C01269A0E947B05219A229A9B
:100BA0002398209A80E58CBD81E08DBD259868E171
:100BB00088E80E948A0560E288E70E948A0560E072
:100BC00088E70E948A05C1E0D0E0209799F088E686
:100BD0000E947D05219680FFF8CF61EC88ED0E9490
:100BE0008A0560E680ED0E948A0564E088EE0E9436
:100BF0008A0502C08FEF11C088EE0E947D0582FF3A
:100C0000FBCFC8010E94960560E288EC0E948A052D
:100C100061E080E80E948A0580E0DF91CF911F911A
:100C20000F910895569A5E9A8091BF028160846008
:100C30008093BF0280E091E00E94761D0E94BE1D5D
:100C400084B7877F84BF0FB6F894A8958091600021
:100C5000886180936000109260000FBE90E080E891
:100C60000FB6F89480936100909361000FBE0E94CC
:100C7000941A0E94F11A8091E20084608093E2004D
:100C800089EA91E00E94C6058DE791E090938D017D
:100C900080938C0178948091DD028430E1F780911B
:100CA000BF0280FF09C02FEF83ED90E32150804009
:100CB0009040E1F700C000000E94CA1D0E946C082D
:100CC000EC0189EA91E00E944C11CE010E94840857
:100CD000F3CFEF92FF920F931F93CF93DF93EC012B
:100CE0007B018A0188A1823029F128F4882341F010
:100CF000813081F0C9C0833019F18430D9F1C4C08A
:100D000082E08C832D813E8138872F838A87898773
:100D100081E088A3A801B701CE0107960E94D816EA
:100D2000811102C080E0B1C0ED81FE81808189A384
:100D300081818AA3CE0142969E838D8383E088A31E
:100D40008AA1843059F018F4823049F00AC0853005
:100D500039F0813231F489A1825002C01BA287E0B0
:100D60008C838D819E8198878F838C818A878987E8
:100D700084E088A38AA1843081F0853091F18230AB
:100D800009F050C0A801B701CE0107960E94D816FD
:100D9000882341F28D898CA372C0A801B701CE01CE
:100DA00007960E94D816882309F4BCCF8D8983301A
:100DB00009F065C08E89813009F061C098A58F89DE
:100DC000992321F0882309F45AC003C0813009F027
:100DD00056C091E09BA39A899EA39B899FA38DA354
:100DE0004EC0A801B701CE0107960E94D8168823ED
:100DF00009F498CF8BA1882309F441C08A819B8193
:100E00000097E9F1DC01ED91FC910190F081E02D7A
:100E10007E01B0E1EB0EF11C0DA12FA14EA16CA142
:100E200009952DC089A19D85992319F09130E9F08C
:100E300021C090E002979F878E8781E08D8715C043
:100E4000F80120813181232BA9F001979F878E879C
:100E5000F70180819181019691838083D8018D91E2
:100E60009C91119701978D939C938E859F850097F8
:100E700039F71D868E859F85892B09F053CFCE01CA
:100E800040969E838D8318A281E0DF91CF911F91C0
:100E90000F91FF90EF9008950F931F93CF93DF93DF
:100EA00000D000D0CDB7DEB78C017C836B835A8332
:100EB00049832B813C81232B59F0AE014D5F5F4F5D
:100EC000BE016F5F7F4FC8010E9469068111F1CF9B
:100ED0000F900F900F900F90DF91CF911F910F9176
:100EE000089589EA91E00E94BD0969EA71E088E904
:100EF00091E00E946B1589EA91E0909384018093C0
:100F000083018DE191E09093800180937F018BE3D9
:100F100091E090938201809381011092920110924E
:100F200093011092940110929501109296011092E3
:100F3000860188E0809387018CE38093880110927A
:100F4000890110928A0184E080938B0181E0809373
:100F500091011092900110928E0110928D011092C9
:100F60008C01EFEFF1E080E090E021913191232BB3
:100F700051F4880F991FFC01E150FE4F8FE791E07B
:100F80009183808304C001968031910571F781E4DB
:100F900091E090937E0180937D0108950F931F93BC
:100FA000F80132969801285F3F4F90E0819181507F
:100FB000833008F491E0E217F307C1F791110EC0F6
:100FC000F80188E0A2E2B2E001900D928A95E1F783
:100FD0000E94130870932102609320021F910F91C9
:100FE0000895089580E090E008958FEF9FEF0895B1
:100FF0008FEF9FEF08950895862F0E94A61881E035
:1010000090E00895EAE2F2E01382128288EE93E023
:10101000A0E0B0E084839583A683B78387E491E062
:101020009183808308950C9478088F929F92AF9259
:10103000BF92CF92DF92EF92FF920E94F22B4B0170
:101040005C0120E030E04AE755E40E94A92C6B01E6
:101050007C0120E030E040E85FE30E94BE2B87FD8A
:1010600024C020E03FEF4FE757E4C701B6010E94DC
:10107000A42C1816ACF420E030E040E251E4C501A5
:10108000B4010E94A92C0E94C32B20E931E0611514
:10109000710581F0C9010197F1F761507109F7CF2E
:1010A000C701B6010E94C32B02C061E070E0CB0112
:1010B0000197F1F7FF90EF90DF90CF90BF90AF9046
:1010C0009F908F90089582E084BD93E095BD9AEF44
:1010D00097BD80936E0008952FB7F89480913802E1
:1010E00090913902A0913A02B0913B022FBF08952E
:1010F0002FB7F894609138027091390280913A02CA
:1011000090913B022FBF0895CF92DF92EF92FF9212
:101110000F931F932FB7F8944091380250913902E2
:1011200060913A0270913B022FBF6A017B01EE246D
:10113000FF248C0120E030E0C016D106E206F30661
:1011400010F4415051099A01281B390BC9011F9114
:101150000F91FF90EF90DF90CF9008951F920F9224
:101160000FB60F9211248F939F93AF93BF938091EB
:10117000380290913902A0913A02B0913B02019657
:10118000A11DB11D8093380290933902A0933A02B9
:10119000B0933B02BF91AF919F918F910F900FBE83
:1011A0000F901F901895CF93DF93FC01862F8078C6
:1011B00009F051C0283008F04FC0442321F0958138
:1011C000973009F449C0EF012D96A0E0B0E01196E8
:1011D0009881911103C0662331F021C02596AF306C
:1011E000B105A9F739C085E08A9FE0018B9FD00D3A
:1011F0001124CE0FDF1F442331F081E488878581DD
:101200008F5F858302C081E0888725E02A9FC00127
:101210002B9F900D1124E80FF91F80851DC067706A
:10122000660F660F660F442341F0606485818F5F0F
:1012300085838770687F682B03C02770687B622B6B
:1012400025E02A9FC0012B9F900D1124E80FF91F64
:101250006087862F01C080E0DF91CF910895DF92F3
:10126000EF92FF920F931F93CF93DF93EC01E62E43
:10127000F12C85E0689FB0011124FE01E60FF71FF5
:101280008085182F177086FF21C001E085E0D82ED9
:101290008FEF800F8F3008F001E0FE01D09EE00D4F
:1012A000F11D11248085869586958695877081131A
:1012B00005C0602FCE010E942F09EACF0F5F0031D9
:1012C00061F78D81811302C011501D8385E08E9DD1
:1012D000F0018F9DF00D1124EC0FFD1F108681E0B1
:1012E000818712862296D783C683DF91CF911F9183
:1012F0000F91FF90EF90DF900895611102C0069664
:101300000895FC013D9621E03081361307C035E099
:10131000239F800D911D1124069608952F5F359609
:10132000203191F780E090E00895FC016134C1F430
:101330003F969C01265A3F4F61E0AC014E5F5F4FE4
:10134000DF0112971C9211966C93108213974D93A4
:101350005C933596E217F30799F7FC01158208951F
:101360003D9621E03081361303C0622F0C942F0983
:101370002F5F35962031B1F70895CF93DF93FC01AD
:1013800089E591E0918380831582108681E08187D1
:101390001286CF01029697838683128228E02383E8
:1013A0002CE32483DF011F969F01265A3F4F41E023
:1013B000ED0122971882219648831C9223979983E6
:1013C00088831596A217B30799F7EA58FF4F108242
:1013D00081E180934002DF91CF910895CF93DF9315
:1013E0001F92CDB7DEB749830E947D0949810097DE
:1013F00089F0DC01ED91FC911197309759F013962B
:101400009C9180E0891731F02081241731F03396C8
:101410008F5FF8CF80E090E001C0CF010F90DF91A7
:10142000CF9108950F931F93CF93DF93211531052B
:1014300071F0E901042F162F0E947D09FC01892B10
:1014400041F01283D183C083038380E003C088ED21
:1014500001C086EDDF91CF911F910F910895CF923A
:10146000DF92FF920F931F93CF93DF93662381F157
:10147000F62E8C016C0186E5C80ED11CC0E0D0E0D0
:10148000D6018D919D916D010097F1F0DC01ED91F8
:10149000FC910084F185E02D09958F1115C0AB9664
:1014A000CC0FDD1FC00FD11F88819981DC01ED9128
:1014B000FC910480F581E02DDF91CF911F910F9178
:1014C000FF90DF90CF9009942196C031D105C1F6ED
:1014D00080E0DF91CF911F910F91FF90DF90CF902F
:1014E00008952E980895CF93DF931F92CDB7DEB75E
:1014F00089830E94710A89818EBD0DB407FEFDCFDC
:101500001EBC0DB407FEFDCF0E947B058EB50F906B
:10151000DF91CF910895CF93DF9300D0CDB7DEB7A1
:101520006A8389830E94710A898182608EBD6A8183
:101530000DB407FEFDCF6EBD0DB407FEFDCF0F90BD
:101540000F90DF91CF910C947B058F929F92AF9279
:10155000BF92DF92EF92FF920F931F93CF93DF938F
:101560001F92CDB7DEB74C01D62E590149830E9498
:101570007D097C014981009709F440C0FC0180810C
:101580009181892BE9F16D2DC4010E94EE09F501CD
:10159000918380830097B1F1FC01228126952695E5
:1015A00030E02031310514F02FE030E081E090E0B0
:1015B000A0E0B0E004C0880F991FAA1FBB1F2A95A6
:1015C000D2F70197F801918380836D2D80EE0E9400
:1015D0008B0A88ED0E94730A682FF70184818823A3
:1015E00039F0F401EA58FF4F80818260682B01C016
:1015F000697F88ED0E948B0A80E005C086ED03C0FC
:1016000087ED01C08BED0F90DF91CF911F910F916E
:10161000FF90EF90DF90BF90AF909F908F900895D4
:101620008F929F92AF92BF92CF92DF92EF92FF92F2
:101630000F931F93CF93DF93862E942E59010E9410
:1016400013086B017C0128E8C20E23E1D21EE11CC5
:10165000F11C00E010E0D0E0C0E098280E941308E0
:10166000DC01CB018C199D09AE09BF09B7FF2DC064
:10167000692D80EF0E948B0A0E941308DC01CB01C8
:101680008C199D09AE09BF09B7FF09C088EC0E94FB
:10169000730A87FFF1CF60E888EC0E948B0A88EF1D
:1016A0000E94730AC82FCF70C43019F0CE3051F0A9
:1016B0000CC00F5F1F4FA114B10481F20A151B0566
:1016C00069F603C0DF5FD33049F68C2FDF91CF91ED
:1016D0001F910F91FF90EF90DF90CF90BF90AF9050
:1016E0009F908F9008959F92AF92BF92CF92DF927A
:1016F000EF92FF920F931F93CF93DF937C01C42F40
:10170000122F992493946C01C60ED11CC60ED11CC5
:1017100086E5C80ED11CA42EB12CABE2AA0EB11CDA
:10172000AA0CBB1CAE0CBF1CF60180819181DC01B0
:10173000ED91FC910280F381E02D202F412F6C2F41
:101740000995803EC9F4C1110BC061E088EE0E948A
:101750008B0A66E670E080E090E00E94150816C0F3
:10176000F50180819181DC01ED91FC910284F3858A
:10177000E02D612F09950AC08D3031F49FEF990D4E
:10178000933008F040C016C081113DC0F601808141
:101790009181DC01ED91FC910190F081E02D202FF1
:1017A000412F6C2F0995D82F8D3061F48FEF890D63
:1017B000833050F464E670E080E090E00E94150809
:1017C0009394B2CF8823F1F0C1110BC061E088EE91
:1017D0000E948B0A66E670E080E090E00E941508A7
:1017E00011C0EC2FF0E0BB96EE0FFF1FEE0DFF1DBA
:1017F00080819181DC01ED91FC910284F385E02DE3
:10180000612F09958D2FDF91CF911F910F91FF903F
:10181000EF90DF90CF90BF90AF909F9008950F937F
:101820001F93CF93DF9300D0CDB7DEB78A016A83D1
:1018300089830E94710A898182608EBDF8016A8164
:10184000862F882339F00DB407FEFDCF91919EBD00
:101850008150F7CF060F111D0DB407FEFDCF0E947A
:101860007B05C8010F900F90DF91CF911F910F91D1
:1018700008952F923F924F925F926F927F928F9234
:101880009F92AF92BF92CF92DF92EF92FF920F930F
:101890001F93CF93DF9300D000D01F92CDB7DEB758
:1018A0007D836C835A016901FB0121808FEF820DDA
:1018B000803408F075C00E9413082B013C01F8E841
:1018C0004F0EF3E15F1E611C711CEC81FD81828172
:1018D00080FD02C060E401C060E888EE0E948B0ACF
:1018E00020E0312CC114D10409F44AC076012C1433
:1018F0003D0408F47101EA82A8016E2D80E10E9486
:101900000F0C6E2D88E30E948B0AEC81FD816081B3
:10191000606280EF0E948B0A88EC0E94730A87FF46
:10192000FBCF60E888EC0E948B0A88EF0E94730A64
:10193000282F2F70812C912C1982222361F02B8368
:101940000E941308DC01CB0184199509A609B70987
:101950002B81B7FD05C0CE18DF080E0D1F1DC2CFAD
:10196000263001F12E3009F456C0243049F4FFEF3F
:101970008F1A9F0AA114B10459F18A149B0441F5EE
:1019800088EF2B830E94730A85FB882780F9EC81FE
:10199000FD81928180FB90F992832B81822F41C03F
:1019A0008AED3FC088EF0E94730A85FB882780F983
:1019B00091E08927EC81FD81928180FB90F99283EF
:1019C00090FD02C060E401C060E888EE0E948B0ACE
:1019D00060E088E30E948B0AF801608180E10E9448
:1019E0008B0A6A8188E30E948B0AEC81FD81608109
:1019F000606280EF0E948B0A88EC0E94730A87FF66
:101A0000FBCF60E888EC0E948B0A88EF0E94730A83
:101A1000282F2F7092CF89818F5F89838330C1F601
:101A2000AFCF0F900F900F900F900F90DF91CF914D
:101A30001F910F91FF90EF90DF90CF90BF90AF90EC
:101A40009F908F907F906F905F904F903F902F90DE
:101A500008952F923F924F925F926F927F928F9252
:101A60009F92AF92BF92CF92DF92EF92FF920F932D
:101A70001F93CF93DF9300D000D01F92CDB7DEB776
:101A80005C017D836C834A017901F901C080D180BA
:101A9000FB014180F90111821082FB01828181FDED
:101AA00002C060E101C060E288EE0E948B0A3C2C1B
:101AB0009401EC81FD81408160E0C5010E94100B22
:101AC000582EF6E08F1316C088EF0E94730A829595
:101AD000817091E08927EC81FD81928180FB91F9F1
:101AE000928391FD02C060E101C060E288EE0E9435
:101AF0008B0ADECF81115BC088EC0E94730A82FFE3
:101B000054C080E30E94730A282E282F30E0C216AA
:101B1000D30608F4232CF70120813181622C712C2B
:101B2000A601421B530B57FF02C040E050E0930157
:101B3000461557050CF49A0129833A832B830E949A
:101B4000710AF8E0FEBD8B813A8129810DB407FE50
:101B5000FDCFF801882341F01EBC81500DB407FE73
:101B6000FDCF4EB54193F6CF020F131F0E947B05A8
:101B700064E088EC0E948B0AF70120813181620EBB
:101B8000731E71826082241420F06C147D0408F4AA
:101B90008FCF88EF0E94730A82958170EC81FD815E
:101BA000928180FB91F9928302C080EF582E852D9F
:101BB0000F900F900F900F900F90DF91CF911F918A
:101BC0000F91FF90EF90DF90CF90BF90AF909F90DC
:101BD0008F907F906F905F904F903F902F900895DF
:101BE0002F923F924F925F926F927F928F929F922D
:101BF000AF92BF92CF92DF92EF92FF920F931F931B
:101C0000CF93DF93CDB7DEB762970FB6F894DEBF00
:101C10000FBECDBF3C01542ED22E402E5E2D2FA0E4
:101C200038A4E9A4FAA4188A1F861E861D868E0190
:101C3000035F1F4F9E01215F3F4F598B0E94A50AF2
:101C4000598981119CC0D9824A825B83CC82BE8231
:101C5000AD8298868F82AE014F5F5F4F68E080E271
:101C60000E940F0C2D853E85452D60E1C3010E9429
:101C7000100B182F81117FC0BD2CBB1CBB24BB1CBB
:101C8000E114F10409F46AC0EF85F8898281BB2070
:101C900009F455C0826082836401AA24A394C1140C
:101CA000D10409F449C03C862B864D855E856F853D
:101CB000788987019E01255F3F4FC3010E94290D4E
:101CC000182F8630B1F42F85388988EF298B3A8B0D
:101CD0000E94730A85FB882780F98A2529893A8919
:101CE000D90112969C91129780FB91F912969C93C0
:101CF000D6CF811140C0EBA5FCA53097A1F0019093
:101D0000F081E02D0190F081E02DC4018C199D0936
:101D10009A8789876B857C859E01275F3F4FA70146
:101D20008BA59CA509958B859C85C81AD90A821517
:101D3000930508F0B4CF12C011111DC014C081600A
:101D400082834D855E8587019101BF01C3010E9499
:101D5000390C811114C02D853E850FC02D853E851F
:101D6000B11003C00AC02D853E8560EA452DC30130
:101D70000E94100B04C0812F02C060E8F7CF62966A
:101D80000FB6F894DEBF0FBECDBFDF91CF911F918C
:101D90000F91FF90EF90DF90CF90BF90AF909F900A
:101DA0008F907F906F905F904F903F902F9008950D
:101DB0008F929F92AF92BF92CF92EF920F931F9309
:101DC0001F921F921F930F933F932F934901A12CB2
:101DD000B12CCC24C394E12C06E020E80E94F00D45
:101DE0000F900F900F900F900F900F901F910F91E9
:101DF000EF90CF90BF90AF909F908F9008958F926B
:101E00009F92AF92BF92CF92EF92FF920F931F9249
:101E10001F92FF92EF923F932F934901A12CB12C77
:101E200022E0C22EE02E06E020E80E94F00D0F9086
:101E30000F900F900F900F900F900F91FF90EF90D9
:101E4000CF90BF90AF909F908F9008954F925F92E8
:101E50006F927F928F929F92AF92BF92CF92DF92BA
:101E6000EF92FF920F931F93CF93DF93CDB7DEB71F
:101E7000C054D1090FB6F894DEBF0FBECDBF3C01F0
:101E8000D62E542E422EC02ECE0101965C017C012E
:101E9000022F29E030E0C3010E94FF0E81111BC018
:101EA0008B809C801F93CF92BF92AF921F9280E451
:101EB0008F93A12CB12C82E0C82EE42C06E020E800
:101EC000452D6D2DC3010E94F00D0F900F900F90C6
:101ED0000F900F900F90C05CDF4F0FB6F894DEBFED
:101EE0000FBECDBFDF91CF911F910F91FF90EF906B
:101EF000DF90CF90BF90AF909F908F907F906F902A
:101F00005F904F9008958F929F92AF92BF92CF9221
:101F1000EF920F93CF931F921F921F921F921F92C7
:101F20001F92812C912CA12CB12CC12CE22E05E00A
:101F300020E00E94F00DC82F6CE271E080E090E09C
:101F40000E9415080F900F900F900F900F900F9018
:101F50008C2FCF910F91EF90CF90BF90AF909F902B
:101F60008F9008950F931F93CF93DF938A3F3FEF96
:101F7000930711F486ED2DC0DC011696ED91FC91CE
:101F80001797EF2B09F1122F242FEC011A8740E04D
:101F90000E94D308082F8823C9F0682FCE010E9421
:101FA0007D09009739F3FC011483202F40E060E0A5
:101FB000CE010E94830F182F882351F0602FCE018D
:101FC0000E949509812F05C087ED03C084ED01C0F3
:101FD00080E0DF91CF911F910F9108952F923F9252
:101FE0004F925F926F927F928F929F92AF92BF9229
:101FF000CF92DF92EF92FF920F931F93CF93DF93D5
:10200000CDB7DEB766970FB6F894DEBF0FBECDBF73
:102010001B8A38E03C8B3CE33D8B8A3F3FEF9307C4
:1020200009F4ADC0B22E342EA62E7C01DC0116962A
:10203000CD90DC901797CE01439617969C938E9384
:1020400016971A962C938E010F5F1F4F22E130E0F6
:1020500040E060E0C7010E94D80EF701D782C68237
:102060008111A5C069847A844B845C843D813E8B58
:102070002E80670186E5C80ED11C460110E0D40110
:102080008D919C91009789F1DC01ED91FC91008488
:10209000F185E02D0995811128C0F401808191819D
:1020A000DC01ED91FC910088F189E02D622D09950C
:1020B0008823D9F0F40180819181DC01ED91FC91BC
:1020C0000484F585E02DA201B3010995811159C061
:1020D000F40180819181DC01ED91FC910684F7850A
:1020E000E02D6E89099581114CC01F5FB2E08B0E07
:1020F000911C103121F610E0F6018081918100974A
:1021000089F1DC01ED91FC910084F185E02D0995C8
:10211000811128C0F60180819181DC01ED91FC9153
:102120000088F189E02D622D09958823A9F1F60137
:1021300080819181DC01ED91FC910484F585E02D95
:10214000A201B301099581110DC0F6018081918131
:10215000DC01ED91FC910684F785E02D6E890995EF
:102160008823D1F01F5FB2E0CB0ED11C103121F6D5
:102170002B2D432D6A2DC7010E94B20F18C086ED8A
:1021800016C00B2D232D4A2D612FC7010E94730B02
:10219000813D09F4AACF0BC00B2D232D4A2D612FB1
:1021A000C7010E94730B982F977F913DD9F26696D5
:1021B0000FB6F894DEBF0FBECDBFDF91CF911F9158
:1021C0000F91FF90EF90DF90CF90BF90AF909F90D6
:1021D0008F907F906F905F904F903F902F900895D9
:1021E0008F929F92AF92BF92CF92EF920F931F92D6
:1021F0001F921F921F921F921F92812C912CA12C33
:10220000B12CC12CE22E09E020E00E94F00D0F90CD
:102210000F900F900F900F900F900F91EF90CF9025
:10222000BF90AF909F908F900895AF92BF92CF9242
:10223000DF92EF92FF920F931F93CF93DF9300D023
:1022400000D0CDB7DEB77C01690158011C821B822A
:102250001A8219828E010F5F1F4F9E012D5F3F4F23
:102260000E94A50A811109C049815A816B817C8134
:1022700085019601C7010E94290D0F900F900F90C4
:102280000F90DF91CF911F910F91FF90EF90DF9012
:10229000CF90BF90AF900895AF92BF92CF92DF9250
:1022A000EF92FF920F931F93CF938C011D990EC055
:1022B00088EC0E94730A85FF05C0C8010E9496053C
:1022C00060E201C060E088EC0E948B0A80917C0192
:1022D000813039F040F0823079F0833039F5C1E057
:1022E0000CC083E106C080914002807F8031F1F014
:1022F00081E1809340021AC0C0E080914002807F5B
:102300008031A9F40E941308DC01CB0188539F4F50
:10231000AF4FBF4F80933C0290933D02A0933E028B
:10232000B0933F0280E28093400201C0C0E0780198
:1023300086E5E80EF11C6801A6E7CA0ED11C57011C
:10234000F501819191915F01009739F0DC01ED91E8
:10235000FC910680F781E02D0995AC14BD0481F74E
:1023600090914002903409F43FC050F4903221F132
:102370009033A1F1913109F084C0F60110820AC0B6
:10238000913509F458C0903809F46AC0903509F0C5
:1023900078C039C0D7018D919D917D01009739F0AA
:1023A000DC01ED91FC910480F581E02D0995EC14A0
:1023B000FD0481F782E163C00E94130800913C0292
:1023C00010913D0220913E0230913F02DC01CB0191
:1023D000801B910BA20BB30BB7FD53C061E088EEDD
:1023E0000E948B0A80E44BC088EE0E94730A80FD35
:1023F00048C088ED0E94730A682F686088ED0E94CB
:102400008B0A80E53CC088EC0E94730A86FF39C0C5
:1024100081E5809340020E941308DC01CB014496C1
:10242000A11DB11D80933C0290933D02A0933E02FA
:10243000B0933F0226C00E941308C0903C02D09087
:102440003D02E0903E02F0903F02DC01CB018C198E
:102450009D09AE09BF09B7FD14C080E88093400212
:102460002C2F40E060E0C8010E94EE0F882331F07D
:10247000823D39F08093410280EA01C080E9809377
:102480004002CF911F910F91FF90EF90DF90CF907E
:10249000BF90AF9008958F929F92AF92BF92CF92CC
:1024A000EF920F93CF93DF93CDB7DEB7C054D1092E
:1024B0000FB6F894DEBF0FBECDBF5F934F939E0162
:1024C0002F5F3F4F3F932F931F9220E42F9320E8DD
:1024D000822E912C5B0132E2C32EE12C06E021E832
:1024E00040E0FC016681848195810E94F00D0F908F
:1024F0000F900F900F900F900F90C05CDF4F0FB6B2
:10250000F894DEBF0FBECDBFDF91CF910F91EF905A
:10251000CF90BF90AF909F908F9008958F929F9291
:10252000AF92BF92CF92DF92EF92FF920F938E2CD9
:10253000A42EB12C1F921F92DF92CF92FF92EF92A6
:102540009F2CC22EE02E09E021E2462FFC0166817D
:10255000848195810E94F00D0F900F900F900F9045
:102560000F900F900F91FF90EF90DF90CF90BF9062
:10257000AF909F908F9008958F929F92AF92BF924D
:10258000CF92EF920F93A62EB12C1F921F921F9203
:102590001F921F921F92812C912CC22EE42E0AE0D2
:1025A00021E240E0FC016681848195810E94F00D6A
:1025B0000F900F900F900F900F900F900F91EF9042
:1025C000CF90BF90AF909F908F9008958F929F92E1
:1025D000AF92BF92CF92EF920F93A62EB12C1F9283
:1025E0001F921F921F921F921F92812C912CC12C1F
:1025F000E42E0BE021E240E0FC01668184819581BC
:102600000E94F00D0F900F900F900F900F900F9071
:102610000F91EF90CF90BF90AF909F908F900895C3
:10262000FC018285089581E0693009F080E0089519
:10263000CF93DF93EC018A819B81DC01ED91FC91CA
:102640000480F581E02D6A8509958A85813439F405
:10265000EA81FB81EA58FF4F8081846080831A867B
:102660001B861C861D861E861F86188A80E0DF91C9
:10267000CF9108958F929F92AF92BF92CF92EF9297
:102680000F93A42EB12CB22A1F921F921F921F9259
:102690001F921F92812C912CC12CE62E01E023E287
:1026A00040E0FC016285828193810E94F00D0F90D1
:1026B0000F900F900F900F900F900F91EF90CF9081
:1026C000BF90AF909F908F9008958F929F92AF92FE
:1026D000BF92CF92EF920F93A62EB12C1F921F9212
:1026E0003F932F935F934F934A01C12CE12C00E05D
:1026F00023EA40E0FC016285828193810E94F00D13
:102700000F900F900F900F900F900F900F91EF90F0
:10271000CF90BF90AF909F908F9008958F929F928F
:10272000AF92BF92CF92EF920F93A42EB12CB22A08
:102730001F921F921F921F921F921F92812C912C09
:10274000C12CE62E03E023E240E0FC016285828199
:1027500093810E94F00D0F900F900F900F900F90AB
:102760000F900F91EF90CF90BF90AF909F908F9070
:1027700008952F923F924F925F926F927F928F9225
:102780009F92AF92BF92CF92DF92EF92FF920F9300
:102790001F93CF93DF93CDB7DEB7E8970FB6F894CA
:1027A000DEBF0FBECDBFDC011296ED90FC901397FB
:1027B0001A963C91311104C1122F242E362E3C0161
:1027C000D701ED91FC910190F081E02D60E0C7010F
:1027D00009956C01009709F4F5C0FC01A080B18057
:1027E000A114B10409F4F0C04301F4E08F0E911C70
:1027F000DC0111969C928E9214961C93FE013196E8
:102800002F018F0128E030E040E060E0D301129614
:102810008D919C9113970E94D80EF601148281111C
:10282000D9C009818D81893009F0D0C0D701ED91DF
:10283000FC910280F381E02D222D41E0632DC70140
:102840000995F3018287882309F4C2C0988595838E
:10285000282F40E060E0828193810E94830F182F2F
:10286000882389F0D601AD92BC92D701ED91FC91FD
:102870000480F581E02DD3011A966C91C70109956A
:10288000F3011286ABC0202F013208F020E2D601FE
:10289000AD92BC9221110BC0940142E0F30162851C
:1028A000828193810E94120A811197C010C030E08A
:1028B000820140E0D3011A966C911A9712968D917D
:1028C0009C9113970E94D80E811187C0E5CF1F926B
:1028D0001F925F924F921F9288E08F9388E0882E1C
:1028E000912CA12CB12C99E2C92EE12C06E020EA12
:1028F00040E0F3016285828193810E94F00D182FE0
:102900000F900F900F900F900F900F90811166C055
:102910008B81D3011B968C931B97720100E028E0FA
:1029200030E040E01A966C911A9712968D919C9126
:1029300013970E94FF0E811150C02B813C8140E013
:10294000F3016285828193810E94FF0E811145C04F
:10295000298130E0CE0181967C0140E0D3011A96B6
:102960006C911A9712968D919C9113970E94FF0E6D
:10297000811133C02E8140E0F30162858281938111
:102980000E94F010811129C001E0D3011B968C91A7
:102990001B97801740F020E0402F68E0C3010E94A1
:1029A0008E130F5FF2CF1296ED91FC911397EA58B8
:1029B000FF4F80818460808381E050968C930EC0AD
:1029C00019ED0CC016ED0AC017ED08C011ED06C0D8
:1029D00014ED04C0F601B182A082182F812FE89671
:1029E0000FB6F894DEBF0FBECDBFDF91CF911F9120
:1029F0000F91FF90EF90DF90CF90BF90AF909F909E
:102A00008F907F906F905F904F903F902F900895A0
:102A1000CF92DF92FF920F931F93CF93DF9300D05B
:102A200000D0CDB7DEB78C01F62E19821A821B8238
:102A30001C8220E0462F61E10E943A1320E04F2DD6
:102A400060E1C8010E943A1320E04F2D64E0C80104
:102A50000E948E1383E0C82ED12C9E012F5F3F4F22
:102A600044E050E06F2DC8010E9465138823F1F007
:102A700020E04F2D64E1C8010E943A1320E04F2D61
:102A800060E1C8010E943A1364E170E080E090E0E8
:102A90000E9415080F900F900F900F90DF91CF912B
:102AA0001F910F91FF90DF90CF90089589819A81B7
:102AB000AB81BC819D7F83309140A041B105C1F2C3
:102AC00064E670E080E090E00E94150881E0C81A9A
:102AD000D10819F6CDCFFC0183E691E09183808384
:102AE000738362831286138614861586168617866C
:102AF000108A148288E085839CE3968391E0978313
:102B0000808784E0818761157105B1F0DB01AA5AE5
:102B1000BF4F80E090E02D913D91232B49F48B969F
:102B2000880F991FDB01A80FB91FED93FC9308953F
:102B300001968031910579F70895EF92FF920F93F6
:102B40001F93CF938C01C62F7A01FA018081918166
:102B5000A281B3818130F3E09F07F1E0AF07B105B7
:102B6000D1F060F48115E1E09E07AE07B10571F187
:102B700081309140A140B10571F064C0833021E003
:102B8000920720E1A207B105E1F183309340A04113
:102B9000B105B9F157C080914202811153C020E0C4
:102BA0004C2F61E1C8010E943A1320E04C2F60E1F4
:102BB000C8010E943A1320E04C2F64E0C8010E9433
:102BC0008E1381E08093420281EB3DC020E0462FCE
:102BD00061E1C8010E943A1320E04C2F60E1C80176
:102BE0000E943A1310924202F80162856770C77022
:102BF000660F660F660F6C2B828193810E942F0AED
:102C000021C020E04C2F64E1C8010E943A1320E06B
:102C10004C2F60E1C8010E943A1364E170E080E04B
:102C200090E00E941508F8016285F7012181269540
:102C3000217067704C2FF801828193810E94EE0F02
:102C40001092420280E0CF911F910F91FF90EF9080
:102C50000895EF92FF920F931F93CF93DF93CDB719
:102C6000DEB72E970FB6F894DEBF0FBECDBF7C0146
:102C700081E090E09E878D878E010F5F1F4F9E0140
:102C8000235F3F4F41E0F7016285828193810E947B
:102C90001511811151C002E011E089818023D1F02A
:102CA00019861A861B861C869E01275F3F4F44E0CB
:102CB00050E0612FC7010E94651381110BC0AE0166
:102CC000475F5F4F612FC7010E949D15813B99F1BE
:102CD000811132C0000F1F5F1830F9F611E0F701C3
:102CE0008385811740F119861A861B861C869E01F2
:102CF000275F3F4F44E050E0612FC7010E946513FA
:102D0000811117C089859A858770917081309140B3
:102D100081F48B859C8581609C878B87AE01475FA2
:102D20005F4F612FC7010E949D15813B21F08111EA
:102D300003C01F5FD4CF80E02E960FB6F894DEBF9D
:102D40000FBECDBFDF91CF911F910F91FF90EF90FC
:102D500008950F931F93CF93DF93FC0120892111D6
:102D600002C080E020C0EC010E9413080C851D8584
:102D70002E853F85DC01CB01801B910BA20BB30B91
:102D8000B7FDEFCFCE010E942916182F0E9413081D
:102D9000DC01CB018C599F4FAF4FBF4F8C879D8774
:102DA000AE87BF87812FDF91CF911F910F9108953B
:102DB000CF93DF93FC01EA0180819181892B19F582
:102DC00080E027C028813981232BD1F3DB012D91AD
:102DD0003C91D9019C91A381B0E0A81BB10920814D
:102DE0003181A20FB31F9C9382818150828388819D
:102DF0009981019799838883DB018D919C9111972B
:102E000001968D939C9382818111DCCF8381828393
:102E100081E0DF91CF910895CF92DF92EF92FF9200
:102E20000F931F93CF93DF936C01EB017B01E40EB3
:102E3000F51E00E010E0CE15DF0561F06991D601C6
:102E4000ED91FC910190F081E02DC6010995080FEC
:102E5000191FF1CFC801DF91CF911F910F91FF9002
:102E6000EF90DF90CF90089580914B0208950895E0
:102E7000CF93DF9300D01F92CDB7DEB72091DD0254
:102E8000243021F523E029839B838A8382E0809389
:102E9000E9008FEF9091E800815095FD06C095ED17
:102EA0009A95F1F700008111F5CF8091E80085FF38
:102EB0000DC040E050E063E070E0CE0101960E945A
:102EC000FF188091E8008E778093E8000F900F90B4
:102ED0000F90DF91CF910895CF93DF9300D01F9291
:102EE000CDB7DEB79C018091DD02843019F592E008
:102EF00099833B832A839093E9008FEF9091E800B8
:102F0000815095FD06C095ED9A95F1F7000081116D
:102F1000F5CF8091E80085FF0DC040E050E063E010
:102F200070E0CE0101960E94FF188091E8008E7734
:102F30008093E8000F900F900F90DF91CF9108954C
:102F4000CF93DF932091DD02243039F521E02093E7
:102F5000E9002FEF3091E800215035FD06C035ED36
:102F60003A95F1F700002111F5CF2091E80025FFF7
:102F700014C0EC0140E050E068E070E00E94FF18EF
:102F80008091E8008E778093E80088E0FE01A3E45A
:102F9000B2E001900D928A95E1F7DF91CF9108950B
:102FA0008091DC02811109C00E94941A0E94F11ADA
:102FB0008091E20084608093E20008951092DC0228
:102FC000089508950C940F020C94A028089542E0EF
:102FD00061EC81E00E940E1A42E061EC82E00C9408
:102FE0000E1A8091DF02833009F453C030F481302F
:102FF00071F0823009F491C008958A3009F47DC0DF
:103000008B3009F45EC0893009F09FC020C08091E8
:10301000DE02813A09F099C08091E800877F8093B1
:10302000E8008091E2029091E302892B21F468E0AC
:1030300083E492E003C060E080E090E070E00E94F2
:103040004A198091E8008B778093E8000895809179
:10305000DE02813209F079C08091E2029091E302B0
:10306000892B09F072C08091E800877F8093E80087
:103070008091E80082FD05C08091DD028111F8CFCA
:1030800064C08091F10080934B028091E8008B77BF
:1030900058C08091DE02813A09F057C08091E20267
:1030A0009091E302892B09F050C08091E800877F5E
:1030B0008093E8008091E80080FFFCCF80910A01B6
:1030C0003BC08091DE02813209F03FC08091E20274
:1030D0009091E302892BC9F58091E800877F809366
:1030E000E8000E94431A9091E00281E0911101C032
:1030F00080E080930A010C9466228091DE02813286
:1031000021F58091E800877F8093E8000E94431AB0
:103110008091E10280934C0208958091DE02813A11
:10312000A1F48091E800877F8093E8008091E80017
:1031300080FFFCCF80914C028093F1008091E800E9
:103140008E778093E8000C94431A089580E00895E8
:10315000292F332723303105C9F064F4213031059C
:1031600081F02230310509F042C08BE390E020E38A
:1031700032E041C021323105F1F02232310549F10E
:1031800036C082E190E02BE632E035C099278130ED
:10319000910541F08230910541F0892B41F5ECE237
:1031A000F2E005C0E0E2F2E002C0EAEFF1E0849173
:1031B00090E09F0120C0662339F06130C1F489E0BE
:1031C00090E02BE532E017C089E090E022E432E0A5
:1031D00012C0662339F0613051F486E390E02DE7A8
:1031E00032E009C08FE390E023EB32E004C080E0DE
:1031F00090E020E030E0FA01318320830895CF92FF
:10320000DF92EF92FF920F931F93CF93DF93EC0126
:103210008B016A010E94621A811133C0C114D1046A
:1032200039F0F60180819181081B190BC80FD91F55
:10323000E12CF12C0115110519F18091E80085FDB3
:1032400016C08091E8008E778093E800C114D10405
:1032500049F0F60180819181E80EF91EF182E08249
:1032600085E00FC00E94621A882321F30AC0899169
:103270008093F10001501109FFEFEF1AFF0ADACF36
:1032800080E0DF91CF911F910F91FF90EF90DF9041
:10329000CF9008952091E4023091E5022617370778
:1032A00048F06115710539F42091E8002E772093DC
:1032B000E80001C0B90140E061157105A9F1209154
:1032C000DD02222309F443C0253009F442C02091D5
:1032D000E80023FD40C02091E80022FD32C020918B
:1032E000E80020FFE9CF4091F3002091F20030E0A8
:1032F000342BFC01CF016115710559F028303105DF
:1033000040F481918093F100615071092F5F3F4F2C
:10331000F1CF41E02830310509F040E02091E8008C
:103320002E772093E800C8CF4111C9CF0AC0809101
:10333000DD02882361F0853061F08091E80083FD33
:103340000AC08091E80082FFF2CF80E0089582E019
:10335000089583E0089581E008952091E40230917A
:10336000E5022617370748F06115710539F42091F9
:10337000E8002E772093E80001C0B901FC0120E0AD
:103380006115710591F18091DD02882309F440C037
:10339000853009F43FC08091E80083FD3DC08091F5
:1033A000E80082FD2FC08091E80080FFE9CF2091E6
:1033B000F3008091F20090E0922B6115710559F0B5
:1033C0008830910540F424912093F10031966150AA
:1033D00071090196F2CF21E0089709F020E0809171
:1033E000E8008E778093E800CBCF2111CCCF0AC0C4
:1033F0008091DD02882361F0853061F08091E800E2
:1034000083FD0AC08091E80082FFF2CF80E008953A
:1034100082E0089583E0089581E00895982F973021
:1034200058F59093E900981739F07091EC002091CD
:10343000ED005091F00003C0242F762F50E021FFC3
:1034400019C03091EB003E7F3093EB003091ED00DE
:103450003D7F3093ED003091EB0031603093EB0015
:103460007093EC002093ED005093F0002091EE005B
:1034700027FF07C09F5FD3CF8F708093E90081E063
:10348000089580E008958091DE0287FF11C0809149
:10349000E80082FD05C08091DD028111F8CF11C0E6
:1034A0008091E8008B770BC08091DD02882349F082
:1034B0008091E80080FFF8CF8091E8008E778093BC
:1034C000E80008952091E4003091E50095E64091F0
:1034D000EC00842F817040FF22C08091E80080FDC5
:1034E0001CC08091DD02882391F0853091F080919D
:1034F000EB0085FD10C04091E4005091E5004217BB
:10350000530729F39A01915011F784E0089582E05E
:10351000089583E0089581E0089580E00895409142
:10352000E80042FFDECF08950E94021B0E940A1BA2
:10353000E0EEF0E0808181608083E8EDF0E0808162
:103540008F77808319BCA7EDB0E08C918E7F8C9330
:1035500080818F7E80831092DC0208950F931F93E9
:10356000CF93DF930E94021B0E940A1BC8EDD0E09C
:1035700088818F77888388818068888388818F7D20
:10358000888319BC1092DD021092D9021092DB02DE
:103590001092DA0200EE10E0F80180818B7F8083C8
:1035A00088818160888342E060E080E00E940E1A9A
:1035B000E1EEF0E080818E7F8083E2EEF0E08081BA
:1035C00081608083808188608083F80180818E7F24
:1035D0008083888180618883DF91CF911F910F91D3
:1035E0000895E8EDF0E080818F7E8083E7EDF0E0E4
:1035F00080818160808384E082BF81E08093DC02EF
:103600000C94AE1AE8EDF0E080818E7F80831092FA
:10361000E20008951092DA001092E10008951F92DE
:103620000F920FB60F9211242F933F934F935F93F6
:103630006F937F938F939F93AF93BF93EF93FF937A
:103640008091E10082FF0BC08091E20082FF07C001
:103650008091E1008B7F8093E1000E94E6178091CA
:10366000DA0080FF1FC08091D80080FF1BC08091CE
:10367000DA008E7F8093DA008091D90080FF0DC040
:1036800080E189BD82E189BD09B400FEFDCF81E002
:103690008093DD020E94D01705C019BC1092DD0294
:1036A0000E94DE178091E10080FF19C08091E20046
:1036B00080FF15C08091E2008E7F8093E2008091B0
:1036C000E20080618093E2008091D8008062809364
:1036D000D80019BC85E08093DD020E94E21780913A
:1036E000E10084FF30C08091E20084FF2CC080E1C3
:1036F00089BD82E189BD09B400FEFDCF8091D8006B
:103700008F7D8093D8008091E1008F7E8093E100CF
:103710008091E2008F7E8093E2008091E2008160E0
:103720008093E2008091D902882311F084E007C0E1
:103730008091E30087FD02C081E001C083E08093B7
:10374000DD020E94E4178091E10083FF29C080918F
:10375000E20083FF25C08091E100877F8093E10034
:1037600082E08093DD021092D9028091E1008E7F89
:103770008093E1008091E2008E7F8093E20080914F
:10378000E20080618093E20042E060E080E00E941D
:103790000E1A8091F00088608093F0000E94E1177B
:1037A000FF91EF91BF91AF919F918F917F916F9119
:1037B0005F914F913F912F910F900FBE0F901F90EF
:1037C00018951F920F920FB60F9211242F933F93CB
:1037D0004F935F936F937F938F939F93AF93BF9319
:1037E000CF93DF93EF93FF93C091E900CF70809167
:1037F000EC00D82FD17080FDD0E81092E9008091C4
:10380000F000877F8093F00078940E94251C10922E
:10381000E9008091F00088608093F000CD2BCF709C
:10382000C093E900FF91EF91DF91CF91BF91AF91EC
:103830009F918F917F916F915F914F913F912F91C8
:103840000F900FBE0F901F9018951F93CF93DF938B
:10385000CDB7DEB7AA970FB6F894DEBF0FBECDBFC7
:10386000EEEDF2E088E08E0F9091F10091938E13CF
:10387000FBCF0E94F1178091E80083FF1FC1809168
:10388000DE029091DF02492F50E04A30510508F0E6
:1038900015C1FA01EA5AFF4F0C94162D803881F0B9
:1038A000823809F00BC18091E2028F708093E900A9
:1038B0008091EB0085FB882780F91092E90006C013
:1038C0008091DA029091DB02911182609091E80080
:1038D000977F9093E8008093F1001092F100C8C0A8
:1038E000282F2D7F09F0EAC0882319F0823061F07B
:1038F000E5C08091E002813009F0E0C0933009F02A
:1039000080E08093DB022BC08091E002811127C010
:103910008091E2028F7009F4D1C08093E900209178
:10392000EB0020FF1CC0933021F48091EB008062FB
:1039300014C09091EB0090619093EB0021E030E097
:10394000A90102C0440F551F8A95E2F74093EA008F
:103950001092EA008091EB0088608093EB00109257
:10396000E9008091E800877F86C08111A7C010918F
:10397000E0021F778091E3008078812B8093E30041
:103980008091E800877F8093E8000E94431A80912D
:10399000E80080FFFCCF8091E30080688093E30023
:1039A000111102C082E001C083E08093DD0286C075
:1039B0008058823008F082C08091E0029091E1024C
:1039C0008C3D53E0950779F583E08A838AE2898309
:1039D0004FB7F894DE01139620E03EE051E2E32F6A
:1039E000F0E050935700E49120FF03C0E295EF70A0
:1039F0003F5FEF708E2F90E0EA3010F0C79601C065
:103A0000C0968D939D932F5F243149F74FBF8091CE
:103A1000E800877F8093E8006AE270E0CE010196BB
:103A20000E944A1914C0AE014F5F5F4F6091E202DD
:103A30000E94A818BC01892B09F440C09091E800AD
:103A4000977F9093E80089819A810E94AD198091B7
:103A5000E8008B778093E80031C0803879F5809159
:103A6000E800877F8093E8008091D9028093F1007D
:103A70008091E8008E778093E8000E94431A1EC070
:103A800081111CC09091E0029230C0F48091E80056
:103A9000877F8093E8009093D9020E94431A809117
:103AA000D902811106C08091E30087FD02C081E048
:103AB00001C084E08093DD020E94E7178091E80056
:103AC00083FF0AC08091E800877F8093E80080919F
:103AD000EB0080628093EB00AA960FB6F894DEBFED
:103AE0000FBECDBFDF91CF911F91089590935202E9
:103AF000809351020895E0915102F0915202309763
:103B000021F00190F081E02D099480E00895E0918A
:103B10005102F0915202309721F00280F381E02DA2
:103B20000994089520914F02309150028217930713
:103B300071F09093500280934F02E0915102F09106
:103B40005202309721F00680F781E02D0994089504
:103B500020914D0230914E028217930771F090939D
:103B60004E0280934D02E0915102F0915202309743
:103B700021F00084F185E02D099408950E946308E6
:103B80000E94B1020E949B2A0E94CF290E94CB284A
:103B90000C94B72B4F925F927F928F929F92AF922D
:103BA000BF92CF92DF92EF92FF920F931F93CF932A
:103BB000DF93CDB7DEB72A970FB6F894DEBF0FBEFE
:103BC000CDBF0E94B20294E5C92E92E0D92E00E04A
:103BD00010E0AA24A394B12C702E802F0E94C90259
:103BE0004C01F601419051906F014826592641142D
:103BF0005104B1F40F5F1F4F0031110569F78FEFCA
:103C000089838A831B820E946C088160782F9D8340
:103C10008C8349815A816B818D810E94BE223AC07A
:103C20008091BF0281FD0E94F90220E030E0750121
:103C3000022E02C0EE0CFF1C0A94E2F7C701842199
:103C40009521892B09F12E837F828E209F2091E080
:103C5000892809F490E098870E946C088160782F89
:103C60009A8789874E815F8168858A850E94BE22F6
:103C7000000F111FF801EC5AFD4F80819181E82659
:103C8000F926F182E08206C02F5F3F4F20313105D7
:103C900071F6B0CF109153020E947B1D1817D9F016
:103CA0000E947B1D809353022A960FB6F894DEBFC4
:103CB0000FBECDBFDF91CF911F910F91FF90EF907D
:103CC000DF90CF90BF90AF909F908F907F905F904C
:103CD0004F900C94022A2A960FB6F894DEBF0FBEBE
:103CE000CDBFDF91CF911F910F91FF90EF90DF90AB
:103CF000CF90BF90AF909F908F907F905F904F90AC
:103D00000895882309F49BC09CEF980F913A18F40A
:103D10000E94AB270DC090E2980F983058F487703E
:103D200091E001C0990F8A95EAF7892F0E94EA274E
:103D30000C9421289BE5980F933070F4853A29F074
:103D4000863A31F083E890E005C081E890E002C057
:103D500082E890E00C94921D98E5980F953108F058
:103D60006EC0883A61F1893A69F18A3A71F18B3A09
:103D700079F18C3A81F18D3A89F18E3A91F18F3A4D
:103D800099F1813BA1F1803BA9F1823BB1F1833BE9
:103D9000B9F1843BC1F1853BC9F1863BD1F1873B49
:103DA000D9F1883BE1F1893BE9F18A3BF1F18B3BA9
:103DB000F9F18C3B09F43FC080E090E03EC082EE18
:103DC00090E03BC089EE90E038C08AEE90E035C0CC
:103DD00085EB90E032C086EB90E02FC083EB90E063
:103DE0002CC084EB90E029C087EB90E026C08CECDF
:103DF00090E023C08DEC90E020C083E891E01DC0EE
:103E00008AE891E01AC082E991E017C084E991E064
:103E100014C081E292E011C083E292E00EC084E21D
:103E200092E00BC085E292E008C086E292E005C015
:103E300087E292E002C08AE292E00C94A81D089505
:103E4000882329F19CEF980F913A18F40E94C82713
:103E50000DC090E2980F983058F4877091E001C03F
:103E6000990F8A95EAF7892F0E94F0270C94212850
:103E70009BE5980F933020F480E090E00C94921D25
:103E8000885A853120F480E090E00C94A81D0895B4
:103E9000882321F00E94EA270C9421280895882382
:103EA00021F00E94F0270C9421280895BF92CF9210
:103EB000DF92EF92FF920F931F93CF93DF9300D087
:103EC00000D000D0CDB7DEB725E0FC01DE011196B1
:103ED00001900D922A95E1F7FC0130812181F28059
:103EE000058102950F7043815481452B09F4D0C29E
:103EF0002F3F19F43F3F09F4CBC26C0139832A8369
:103F000089819A810E946A27182FB92E0E946927F9
:103F10000E947B26EB2DE295EF70F0E0E05AFF4F18
:103F20000C94162D8B2D807F9B2D9F70092F88233D
:103F300011F00295007FFF2049F0002309F455C2DB
:103F4000802F0E94FA270E9421284FC2812F0E94B1
:103F5000201F002309F49CC2802F0E94002826966F
:103F60000FB6F894DEBF0FBECDBFDF91CF911F918A
:103F70000F91FF90EF90DF90CF90BF900C9421288D
:103F80008B2D807F9B2D9F70803211F4892F03C071
:103F9000892F8295807F112319F0113011F12BC0E8
:103FA000FF20A9F0002389F1013079F526960FB69C
:103FB000F894DEBF0FBECDBFDF91CF911F910F915F
:103FC000FF90EF90DF90CF90BF900C940A280023D1
:103FD00019F0013009F45CC28E830E940D288E8195
:103FE00082C1FF2021F0063008F052C20EC0053019
:103FF00008F04EC278C1FF20C9F0002331F0F6016D
:10400000958190FFF2C19F70958326960FB6F89424
:10401000DEBF0FBECDBFDF91CF911F910F91FF90FB
:10402000EF90DF90CF90BF900C94481F002309F4CD
:104030005AC1F0C12B2D26952695237030E021150D
:10404000310521F021303105D1F022C2FF2021F0CD
:10405000812F9B2D937002C080E090E026960FB6D2
:10406000F894DEBF0FBECDBFDF91CF911F910F91AE
:10407000FF90EF90DF90CF90BF900C94921DFF20A7
:1040800021F0812F9B2D937002C080E090E0269656
:104090000FB6F894DEBF0FBECDBFDF91CF911F9159
:1040A0000F91FF90EF90DF90CF90BF900C94A81DE0
:1040B0008B2D837009F07BC0F110EAC1812F8295AE
:1040C00086958770880F880F912F9F70C92ED12CED
:1040D000E12CF12C082E04C0CC0CDD1CEE1CFF1CC6
:1040E0000A94D2F714FF12C04FE050E060E070E095
:1040F00004C0440F551F661F771F8A95D2F7CB0166
:10410000BA01609570958095909503C060E070E06D
:10411000CB012B2D269526952370422F50E042305F
:104120005105D9F04330510569F16C297D298E295B
:104130009F294130510551F126960FB6F894DEBF04
:104140000FBECDBFDF91CF911F910F91FF90EF90E8
:10415000DF90CF90BF900C948E266C297D298E29FC
:104160009F2926960FB6F894DEBF0FBECDBFDF9114
:10417000CF911F910F91FF90EF90DF90CF90BF9064
:104180000C94A0260E948E26C701B60126960FB673
:10419000F894DEBF0FBECDBFDF91CF911F910F917D
:1041A000FF90EF90DF90CF90BF900C947C26FF2083
:1041B00019F08B2D817001C08695882309F468C1A0
:1041C000812F829586958770880F880F912F9F7019
:1041D000C92ED12CE12CF12C082E04C0CC0CDD1CF6
:1041E000EE1CFF1C0A94D2F714FF12C04FE050E0FF
:1041F00060E070E004C0440F551F661F771F8A956A
:10420000D2F7CB01BA01609570958095909503C067
:1042100060E070E0CB012B2D269526952370422F70
:1042200050E042305105D9F04330510569F16C2915
:104230007D298E299F294130510551F126960FB6CF
:10424000F894DEBF0FBECDBFDF91CF911F910F91CC
:10425000FF90EF90DF90CF90BF900C9445276C2992
:104260007D298E299F2926960FB6F894DEBF0FBEB2
:10427000CDBFDF91CF911F910F91FF90EF90DF9015
:10428000CF90BF900C9457270E944527C701B601D5
:1042900026960FB6F894DEBF0FBECDBFDF91CF914B
:1042A0001F910F91FF90EF90DF90CF90BF900C94F3
:1042B0003327103F49F118F4103E48F491C0123FE3
:1042C00009F453C0E8F1133F09F464C089C01F70BA
:1042D0008B2D8F71FF2021F00E94CC26812F95CE4F
:1042E0000E94ED26812F26960FB6F894DEBF0FBEF2
:1042F000CDBFDF91CF911F910F91FF90EF90DF9095
:10430000CF90BF900C944F1FFF20B1F0053008F004
:10431000BFC08B2D8F7126960FB6F894DEBF0FBEEF
:10432000CDBFDF91CF911F910F91FF90EF90DF9064
:10433000CF90BF900C941227063008F0A9C0E9CFA7
:10434000FF20A9F08B2D8F7126960FB6F894DEBF53
:104350000FBECDBFDF91CF911F910F91FF90EF90D6
:10436000DF90CF90BF900C94CC26FF2059F38B2D7B
:104370008F7126960FB6F894DEBF0FBECDBFDF91CA
:10438000CF911F910F91FF90EF90DF90CF90BF9052
:104390000C94ED26FF2099F08B2D8F7126960FB689
:1043A000F894DEBF0FBECDBFDF91CF911F910F916B
:1043B000FF90EF90DF90CF90BF900C94B726269699
:1043C0000FB6F894DEBF0FBECDBFDF91CF911F9126
:1043D0000F91FF90EF90DF90CF90BF900C94B2269A
:1043E000FF20A9F0002309F4ADCF812F26960FB648
:1043F000F894DEBF0FBECDBFDF91CF911F910F911B
:10440000FF90EF90DF90CF90BF900C94811E00231F
:1044100009F4ADCF812F26960FB6F894DEBF0FBEFC
:10442000CDBFDF91CF911F910F91FF90EF90DF9063
:10443000CF90BF900C94201F4B2D4F70612FC60161
:104440000E949D2826960FB6F894DEBF0FBECDBF02
:10445000DF91CF911F910F91FF90EF90DF90CF9060
:10446000BF900C94E8254B2D4F70612FC601269606
:104470000FB6F894DEBF0FBECDBFDF91CF911F9175
:104480000F91FF90EF90DF90CF90BF900C941602A9
:1044900026960FB6F894DEBF0FBECDBFDF91CF9149
:1044A0001F910F91FF90EF90DF90CF90BF900895F4
:1044B0000E9407280E94D9270E94212880E090E0CE
:1044C0000E94921D80E090E00C94A81D0E94F727A6
:1044D0000C9458220E946A27292F22952F7030E0D1
:1044E0002C3031054CF42A3031056CF4225031095E
:1044F0002230310588F407C02C30310549F02F30C7
:10450000310531F009C0803E48F0803F29F406C0F3
:1045100093FB882780F9089580E0089581E008954D
:10452000CF93DF9300D000D01F92CDB7DEB70F90AE
:104530000F900F900F900F90DF91CF910895CF9330
:10454000DF9300D000D000D0CDB7DEB726960FB6EF
:10455000F894DEBF0FBECDBFDF91CF910895CF930A
:10456000DF9300D000D01F92CDB7DEB70F900F9031
:104570000F900F900F90DF91CF910895CF93DF931D
:10458000CDB7DEB72B970FB6F894DEBF0FBECDBF09
:104590004F83588769877A878B87DE01119686E07B
:1045A000FD0111928A95E9F785E0FE0137960190A9
:1045B0000D928A95E1F74F81588569857A858B85BB
:1045C0000E94AF2249815A816B817C818D819E81BD
:1045D0000E9444252B960FB6F894DEBF0FBECDBFC8
:1045E000DF91CF9108951F93CF93DF93C091740211
:1045F00016E080917502C81799F0D0E01C9FF00179
:104600001D9FF00D1124EA58FD4F408151816281B8
:104610007381848195810E949F222196C770E9CF82
:10462000DF91CF911F9108954091A6025091A7026A
:104630006091A8027091A9028091AA029091AB02A8
:104640000C949F228091AB0282958F7009F054C028
:104650008091A802882309F44FC080917402A09130
:1046600075026091A6027091A7024091A902509133
:10467000AA02B6E08A1709F43FC090E0411551053F
:10468000C1F17F3F11F46F3FA1F1B89FF001B99FD5
:10469000F00D1124EA58FD4F218172132AC02081A8
:1046A000621327C02281211124C023813481241761
:1046B000350710F421503109241B350B283C3105F6
:1046C000C0F42091AB022F7020612093AB0226E052
:1046D000289FF001299FF00D1124E558FD4F80819E
:1046E0008F708061808386EA92E00E94561F0C944E
:1046F000F32201968770BECF0895CF92DF92EF929A
:10470000FF920F931F93CF93DF93CDB7DEB76297DE
:104710000FB6F894DEBF0FBECDBF8C0185E0F80167
:10472000DE011D9601900D928A95E1F7D8014C911A
:1047300011965C91119712966C9112971396CD90E9
:10474000DC9014973091A6027091A7028091A90283
:104750009091AA02009709F46BC17F3F19F43F3F83
:1047600009F466C1E090A802EE2009F4C0C02091CF
:10477000AB02C816D90628F0F601E81BF90BCF01E9
:1047800004C0809590958C0D9D1DFF24F394883C6A
:10479000910578F0F12C207F09F0C6C07C2DD98AD4
:1047A000C88A89890E94902286EA92E00E94561F58
:1047B000B1C0822F807F09F046C0751314C0341336
:1047C00012C0611110C02F7020612093AB020E94B3
:1047D000142386EA92E00E94561F8091AB02D80112
:1047E00015968C932EC0CD2819F15F3F11F44F3FE1
:1047F000F9F0F62E61111CC08091740220917502AF
:1048000036E0821709F45AC090E0389FF001399FD2
:10481000F00D1124EA58FD4F7181571306C07081C5
:10482000471303C07281711103C001968770E9CFED
:10483000F62E662309F418C18091AB028160809343
:10484000AB02F12C11C1751308C0341306C06111FD
:1048500004C08091AB02D801C3C04D875E878D85AF
:104860009E856A8B0E946A226A898823E1F1662309
:10487000D1F12091AB02822F82958F7090E0029748
:1048800074F08091A6029091A70298878F83198671
:10489000DB86CA862C87CE0107960E94561F86E0CB
:1048A000F801A6EAB2E001900D928A95E1F70E9424
:1048B00022230E941423FF24F394D6C04D875E87E1
:1048C0008D859E850E946A27292F22952F7030E0C2
:1048D000223031050CF0BCC09F7009F0B6C0805E7C
:1048E000883008F4C1C0C8010E94561FE4CFC81622
:1048F000D90608F453C0F601E81BF90BCF01883C38
:10490000910508F450C0F12C7C2DD98AC88A898978
:104910000E949022E6EAF2E086E0DF011D928A958D
:10492000E9F70E941423A0C0751314C0341312C0F9
:10493000611110C08091AB02F8018583C8010E940B
:10494000561F86E0E6EAF2E0DF011D928A95E9F75C
:10495000FE2C8AC04D875E878D859E856A8B0E945E
:104960006A226A89882309F4BECF662309F4BBCF83
:104970002091AB02822F82958F7090E002970CF409
:104980008ECF8091A6029091A7029A8389831B8281
:10499000DD82CC822E83CE0101967FCF80959095CB
:1049A0008C0D9D1DACCFF62E662309F49CCF75139C
:1049B0002EC034132CC02091AB0220FD1FC0822FCB
:1049C00082958F70D9F0D80115962C9315978F305A
:1049D00049F08F5F982F9295907F822F8F70892B4F
:1049E00015968C93C8010E94561F86E0F801A6EA2E
:1049F000B2E001900D928A95E1F793CF86E0F8013D
:104A0000A6EAB2E001900D928A95E1F72DC04D879C
:104A10005E878D859E850E946A22811140CF80919C
:104A2000AB0281608093AB02C8010E94561F1CC07C
:104A3000662309F458CF4D875E878D859E850E9439
:104A40006A22882309F44FCF2ACF811148CF0CC0A6
:104A5000243031050CF047CF9F7009F440CFF801A6
:104A60009581907F09F03BCF8F2D62960FB6F89419
:104A7000DEBF0FBECDBFDF91CF911F910F91FF9091
:104A8000EF90DF90CF9008951F93CF93DF93CDB732
:104A9000DEB72C970FB6F894DEBF0FBECDBF4F83A5
:104AA000588769877A878B879C87CE0107960E94F3
:104AB0007D23882369F08F8198852A853B85232B68
:104AC000F1F19F3F09F063C08F3F09F060C037C02C
:104AD00086E0FE013796DE01119601900D928A95CF
:104AE000E1F76F817885EA85FB85309741F17F3F5B
:104AF00011F46F3F21F12091750230E0C901019658
:104B0000877099274091740250E08417950709F443
:104B100047C069837A83FD83EC8396E0929FD0013E
:104B2000939FB00D1124AA58BD4FFE0131960190FC
:104B30000D929A95E1F7809375020E94F32216E098
:104B400080917402909175028917C1F1189FC0017C
:104B500011248A589D4F0E947D23882379F1E0918A
:104B600074021E9FF0011124EA58FD4F40815181CB
:104B700062817381848195810E949F228091740259
:104B800090E001968770992780937402D9CF4F8166
:104B9000588569857A858B859C850E949F22CFCF19
:104BA0000E9466221092750210927402E6EAF2E008
:104BB00086E0DF011D928A95E9F7C1CF2C960FB6EA
:104BC000F894DEBF0FBECDBFDF91CF911F91089546
:104BD000EF92FF920F931F93CF93DF938C01892B5A
:104BE00009F46AC0F12CEE24E394E8012196F8015F
:104BF0008491843740F4843008F04FC0813081F0D4
:104C0000823019F159C0853709F442C098F19CE708
:104C1000980F903708F050C08F770E94201F3FC038
:104C20000E5F1F4FFE01C49180E28C0F883048F464
:104C3000C7708E2D01C0880FCA95EAF70E94FA2727
:104C40002FC08C2F0E94811E2BC00E5F1F4FFE01B4
:104C5000C49180E28C0F883048F4C7708E2D01C05B
:104C6000880FCA95EAF70E9400281AC08C2F0E946C
:104C7000201F16C00E5F1F4FFE01C491CC2381F090
:104C80008FE99FE00197F1F700C00000C150F6CF17
:104C90000E5F1F4FFE01F49003C00E94811E8E0123
:104CA0008F2D882309F4A1CFEFE9FFE03197F1F7C9
:104CB00000C000008150F5CFDF91CF911F910F917F
:104CC000FF90EF9008956093B0027093B1028093CB
:104CD000B2029093B3020E94262A0C945822609349
:104CE000AC027093AD028093AE029093AF020E942B
:104CF000532A0C94582208950F931F930091B002E9
:104D00001091B1022091B2023091B302602B712B4D
:104D1000822B932B1F910F910C9463260F931F935B
:104D20000091B0021091B1022091B2023091B30211
:104D300060237123822393231F910F910C94632688
:104D40000F931F930091B0021091B1022091B20213
:104D50003091B30260277127822793271F910F910B
:104D60000C94632660E070E0CB010C946F260F93E7
:104D70001F9341E050E060E070E08A019B0104C0B5
:104D8000000F111F221F331F8A95D2F7C901B801E6
:104D90001F910F910C946F260F931F9341E050E0E9
:104DA00060E070E004C0440F551F661F771F8A95AE
:104DB000D2F78091AC029091AD02A091AE02B09179
:104DC000AF028A019B01082B192B2A2B3B2BC9010F
:104DD000B8011F910F910C946F260F931F9341E020
:104DE00050E060E070E004C0440F551F661F771F5D
:104DF0008A95D2F740955095609570958091AC0258
:104E00009091AD02A091AE02B091AF028A019B01D8
:104E1000082319232A233B23C901B8011F910F91AD
:104E20000C946F260F931F9341E050E060E070E018
:104E300004C0440F551F661F771F8A95D2F78091D3
:104E4000AC029091AD02A091AE02B091AF028A0186
:104E50009B01082719272A273B27C901B8011F9161
:104E60000F910C946F260F931F930091AC02109139
:104E7000AD022091AE023091AF02602B712B822BDC
:104E8000932B1F910F910C946F260F931F930091FA
:104E9000AC021091AD022091AE023091AF026023BE
:104EA0007123822393231F910F910C946F260F93EC
:104EB0001F930091AC021091AD022091AE0230918F
:104EC000AF0260277127822793271F910F910C94BF
:104ED0006F260895CF92DF92EF92FF920F931F9368
:104EE000CF93DF938C01C090B002D090B102E090DC
:104EF000B202F090B3024091AC025091AD026091C9
:104F0000AE027091AF02C42AD52AE62AF72ACFE171
:104F1000D0E0D701C6010C2E04C0B695A795979591
:104F200087950A94D2F780FF07C0B8018C2F0E94A2
:104F300047288130910531F4219758F7B80180E076
:104F40000E944728DF91CF911F910F91FF90EF9022
:104F5000DF90CF90089520910B0130910C01F90161
:104F600032969FEF40E05191581789F09F3F19F416
:104F7000511101C0942F4F5F4630A9F79F3F39F080
:104F8000F901E90FF11D97FDFA95828308950895BF
:104F900020910B0130910C01F9013296285F3F4FAF
:104FA0009081981301C010823196E217F307C1F780
:104FB000089581E090E0E0910B01F0910C01E80F81
:104FC000F91F1082019688309105A9F70895809104
:104FD000BE0208959091BE02892B8093BE0208956F
:104FE00080959091BE0289238093BE02089510920D
:104FF000BE0208959091BD02892B8093BD02089551
:1050000080959091BD0289238093BD0208951092EE
:10501000BD0208958093B40208951092B4020895D9
:1050200080910B0190910C01FC0131969C01285F4D
:105030003F4F80E0919191118F5FE217F307D1F715
:105040000895E0910B01F0910C018091BE028083E4
:10505000E0910B01F0910C0190818091BD02892BB0
:1050600080838091B402882361F0E0910B01F0917C
:105070000C019081892B80830E941028811110924D
:10508000B40280910B0190910C010C94871D0E9439
:105090009F0290E4980F903218F40E94A3020895A2
:1050A0008F3A48F4883AD0F4853A88F4843060F432
:1050B000813039F106C0803E20F0883E28F0803FE4
:1050C000E0F420E030E037C0282F30E034C0853AEB
:1050D000D9F0863AE1F023E830E42DC0883AD1F0E7
:1050E000893AD9F08A3AE1F08B3AE9F08C3AF1F05A
:1050F0008D3AF9F024EB34E41EC0282F30E03065FF
:105100001AC021E030E017C021E830E414C022E8E2
:1051100030E411C022EE34E40EC029EE34E40BC0BA
:105120002AEE34E408C025EB34E405C026EB34E471
:1051300002C023EB34E4C901089580E090E00895B3
:105140000C9466221F920F920FB60F9211248F9328
:105150009F93AF93BF938091C002811113C0809140
:10516000380290913902A0913A02B0913B024196E7
:10517000A11DB11D8093380290933902A0933A0289
:10518000B0933B02BF91AF919F918F910F900FBE53
:105190000F901F901895E1E8F0E08081886080838F
:1051A0008081816080838FB7F89493E09093890029
:1051B00090ED909388008FBF0C94802AE82FF0E048
:1051C000E253FD4F2081422F50E08FEF90E0861B8D
:1051D0009109841795071CF48FEF80830895620F5F
:1051E00060830895E82FF0E0E253FD4F8081861739
:1051F00010F410820895861B808308958091D00258
:1052000008951F920F920FB60F9211242F933F9380
:105210004F935F936F937F938F939F93AF93BF93BE
:10522000EF93FF938091C4028F5F8093C40281113A
:105230000BC08091CF02882319F080E00E94812A60
:105240008091CE028093CF029091C4028091CF02D0
:10525000981303C080E00E948E2A8091C3028F5F62
:10526000803418F48093C30260C01092C3029091FE
:10527000CD02992309F18091C2028F5F8093C2020F
:105280002091CB022817C0F41092C20290FF14C0E4
:105290008091CA02882321F081508093CA020CC0F9
:1052A0008091CC0261E080FF04C080E00E94F2287F
:1052B00003C080E00E94DE282091C9022223A9F1C8
:1052C0008091C1028F5F8093C1029091C7029817AD
:1052D00060F51092C10220FF28C08091C602E82F1D
:1052E000F0E0EE50FD4FE491E093CE029091C502C4
:1052F00090FF12C081110EC09E7F9093C5028091D5
:10530000C80280FF12C02E7F2093C9028E7F809337
:10531000C8020BC0815007C08F3721F49160909371
:10532000C50203C08F5F8093C602FF91EF91BF91CA
:10533000AF919F918F917F916F915F914F913F912D
:105340002F910F900FBE0F901F9018951F93CF9322
:10535000DF93D091D602D827611101C0E1F0162F5A
:10536000C82F0E94FE28882321F08091D20280FD60
:1053700010C0111102C0D0FF0CC08091D1028C2747
:1053800080FF04C080E00E94060303C080E00E940A
:105390000A03C093D602DF91CF911F91089580E058
:1053A0000E94B22A94FF05C08091D102816080934F
:1053B000D10295FF05C08091D20281608093D20214
:1053C0009F70892F90E08230910559F083309105CC
:1053D00071F0019789F48091D40281608093D402A6
:1053E0000BC08091D30281608093D30205C080916D
:1053F000D50281608093D5020E94030361E080E0C2
:105400000C94A629CF93DF93282F8091D50288236F
:10541000D1F0D091D60280FF10C0C22F80E00E9450
:10542000B22A2C2F30E002C0359527958A95E2F7F5
:1054300020FF02C0D16001C0DE7F60E08D2FDF91D0
:10544000CF910C94A629DF91CF910895CF92DF924E
:10545000EF92FF92CF932091D4022223F1F0C091DA
:10546000D60220FF11C06B017C0180E00E94B22AAD
:1054700004C0F694E794D794C7948A95D2F7C0FEF7
:1054800002C0C16001C0CE7F60E08C2FCF91FF9041
:10549000EF90DF90CF900C94A629CF91FF90EF90E2
:1054A000DF90CF900895CF92DF92EF92FF92CF934B
:1054B0002091D3022223F1F0C091D60220FF11C027
:1054C0006B017C0180E00E94B22A04C0F694E7944C
:1054D000D794C7948A95D2F7C0FE02C0C16001C0BC
:1054E000CE7F60E08C2FCF91FF90EF90DF90CF9038
:1054F0000C94A629CF91FF90EF90DF90CF90089564
:1055000008952091D20230E0082E02C036952795EA
:105510000A94E2F720FD0C94060308952091D2022C
:1055200030E0082E02C0369527950A94E2F720FD58
:105530000C940A03089587E090E00E94242D909334
:10554000D8028093D702019661F480E00E94FA02AB
:105550009093D8028093D702BC0187E090E00C942E
:10556000382D0895E82FF0E0EE0FFF1FE952FD4FB0
:10557000808191810895CF92DF92EF92FF920F93F5
:105580001F93CF9382E390E00E94242D8C01C12CC5
:10559000D12C6DEEE62E6EEFF62E0E94AD02C82FD6
:1055A0000E94AF02C89F90011124C901880F991F62
:1055B000280F391F205C3F4FC216D30680F4C60166
:1055C000C4960E941C2D282F30E0C0FE02C0322F4E
:1055D0002227E20EF31E8FEFC81AD80ADECF81E031
:1055E0000E151F0509F080E0CF911F910F91FF90DC
:1055F000EF90DF90CF90089590E0880F991FC496A8
:105600000C94242D90E0880F991FC4960C94382D8B
:10561000EF92FF920F931F93CF93DF9300D0CDB7FC
:10562000DEB7182F4A8369830E94AD02082F0E94BB
:10563000AF02089FC0011124189F7001199FF00C40
:1056400011240E94AF0269819701689F200D311DCE
:105650001124C9014A81840F911D8C589F4F0F90CE
:105660000F90DF91CF911F910F91FF90EF900C94CD
:105670001C2D8C589F4F0C942A2D8F929F92AF9285
:10568000BF92CF92DF92EF92FF920F931F93CF932F
:10569000DF930E94AA026C010E94A7027C01C11440
:1056A000D10409F10E9413024C01A12CB12C0DEE82
:1056B0001EEFA814B90420F4F601C591D49102C0DC
:1056C000C0E0D0E0BE018A2D0E94022B0C0F1D1FEE
:1056D0008FEFA81AB80A82E0C80ED11C80E2A81683
:1056E000B10439F702C00DEE1EEFE114F10471F1BF
:1056F0000E9410026C01A12CB12C0E94AD02C82F97
:105700000E94AF02C89FC00111249C01220F331FC9
:10571000820F931FA816B906C8F4AC14BD0428F470
:10572000F701EA0DFB1DC49101C0C0E06C2FC5015B
:105730000E94392BEC2FF0E0A0FE02C0FE2FEE27D6
:105740000E0F1F1F8FEFA81AB80AD7CFB80182E338
:1057500090E0DF91CF911F910F91FF90EF90DF903C
:10576000CF90BF90AF909F908F900C94382D0E9457
:10577000BB2A811102C00C943D2B08950E942F2C4E
:1057800008F481E008950E94832C88F09F5798F0D8
:10579000B92F9927B751B0F0E1F0660F771F881F36
:1057A000991F1AF0BA95C9F714C0B13091F00E9450
:1057B0009D2CB1E008950C949D2C672F782F88279D
:1057C000B85F39F0B93FCCF3869577956795B39577
:1057D000D9F73EF490958095709561957F4F8F4FE6
:1057E0009F4F0895E89409C097FB3EF490958095EB
:1057F000709561957F4F8F4F9F4F9923A9F0F92F97
:1058000096E9BB279395F695879577956795B79514
:10581000F111F8CFFAF4BB0F11F460FF1BC06F5FFA
:105820007F4F8F4F9F4F16C0882311F096E911C00C
:10583000772321F09EE8872F762F05C0662371F02D
:1058400096E8862F70E060E02AF09A95660F771F41
:10585000881FDAF7880F9695879597F90895990F1D
:105860000008550FAA0BE0E8FEEF16161706E8072A
:10587000F907C0F012161306E407F50798F0621B4B
:10588000730B840B950B39F40A2661F0232B242B20
:10589000252B21F408950A2609F4A140A6958FEF3F
:1058A000811D811D089597F99F6780E870E060E091
:1058B00008959FEF80EC089500240A9416161706A9
:1058C00018060906089500240A94121613061406F1
:1058D00005060895092E0394000C11F4882352F054
:1058E000BB0F40F4BF2B11F460FF04C06F5F7F4F0C
:1058F0008F4F9F4F089557FD9058440F551F59F0F3
:105900005F3F71F04795880F97FB991F61F09F3FAC
:1059100079F087950895121613061406551FF2CFD5
:105920004695F1DF08C0161617061806991FF1CF25
:1059300086957105610508940895E894BB2766274C
:105940007727CB0197F908950E942F2C08F48FEF49
:1059500008950E94BC2C0C946A2C0E945C2C38F098
:105960000E94632C20F0952311F00C94532C0C947E
:10597000592C11240C949E2C0E947B2C70F3959F23
:10598000C1F3950F50E0551F629FF001729FBB2736
:10599000F00DB11D639FAA27F00DB11DAA1F649FD2
:1059A0006627B00DA11D661F829F2227B00DA11D85
:1059B000621F739FB00DA11D621F839FA00D611D0B
:1059C000221F749F3327A00D611D231F849F600D2C
:1059D000211D822F762F6A2F11249F5750409AF055
:1059E000F1F088234AF0EE0FFF1FBB1F661F771FE1
:1059F000881F91505040A9F79E3F510580F00C94AC
:105A0000532C0C949E2C5F3FE4F3983ED4F3869580
:105A100077956795B795F795E7959F5FC1F7FE2B4B
:105A2000880F911D9695879597F90895EE0FFF1FA2
:105A30000590F491E02D0994F999FECF92BD81BDB6
:105A4000F89A992780B50895A8E1B0E042E050E0C7
:105A50000C943F2D262FF999FECF1FBA92BD81BD20
:105A600020BD0FB6F894FA9AF99A0FBE01960895E0
:105A70000E942A2D272F0C942B2DDC01CB01FC0139
:105A8000F999FECF06C0F2BDE1BDF89A319600B497
:0E5A90000D9241505040B8F70895F894FFCFA2
:105A9E003417A01737176C17381701B5020000001E
:105AAE00004C070000000094030000000003040EE9
:105ABE00031E0395033903100311033C03410346F0
:105ACE000315034E035103FEFF00008A030000007E
