:100000000C94CC010C9413020C9413020C94130264
:100010000C9413020C9413020C9413020C9413020C
:100020000C9413020C9413020C9493080C9465091D
:100030000C94F0180C9413020C9413020C941302F9
:100040000C9413020C94121D0C9413020C941302C2
:100050000C9413020C942E190C9413020C9413029A
:100060000C9413020C9413020C9413020C941302BC
:100070000C9413020C9413020C9413020C941302AC
:100080000C9413020C9413020C9413020C9413029C
:100090000C9413020C9413020C9413020C9413028C
:1000A0000C9413020C9413020C941302D209F40959
:1000B000E20AF409E20A390A5C0AE20AB10AC40A4D
:1000C000740D740DA10DA10DF80D87108710871008
:1000D000320E87102F0F2F0FEA0F001087107310AA
:1000E0008A1B981BB11B6D1B231C231CAF1B231CDD
:1000F000231CCF1B231CD91BE31B231C231C231CE9
:10010000231CAF1BAF1B231CAF1B231CBC1B231CBE
:10011000231C0C1C0C1C0C1C0C1C0C1C0C1C0C1C88
:100120000C1C0C1C071C231C071C231C231C231C3D
:10013000231C231C231C231C231C231C231C231CC7
:10014000071C231C231CAF1B741B0E1C0E1C0E1C37
:100150000E1C0E1C0E1C0E1C0E1C0E1C0E1C0E1C4F
:100160000E1CEC1B231CA21BF1A129141A08151745
:100170001C180C12132A2B041607090A0B0D0E0F5C
:100180003328E11D1B0619051110363752E1E0E353
:10019000E200C0002C00C050514F291E1F20212218
:1001A00023242526272A39041607090A0B0D0E0FCA
:1001B0003328E11D1B0619051110363752E1E0E323
:1001C000E200C0002C00C050514F001080FF0123FE
:1001D000002020034D004100340032004D006F002C
:1001E00064002000620079002000590041004E00A8
:1001F000470000000A03590041004E00470000007C
:100200000403090409025400030100A03209040098
:10021000000103010100092111010001223F000733
:1002200005810308000A0904010001030000000918
:1002300021110100012236000705820308000A0986
:10024000040200010300000009211101000122390C
:1002500000070583031000011201100100000008CF
:10026000EDFE001102000102000105010906A101D5
:10027000050719E029E71500250195087501810298
:100280000508190129059505750191029501750368
:100290009101050719002977150025019578750149
:1002A0008102C005010980A101850216010026B75F
:1002B000001A01002AB700751095018100C0050CD5
:1002C0000901A1018503160100269C021A01002ADA
:1002D0009C02751095018100C005010906A1010568
:1002E0000719E029E7150025019508750181029598
:1002F0000175088101050819012905950575019108
:10030000029501750391010507190029FF150025C4
:10031000FF950675088100C0000000000000000085
:1003200000000101010202020303040405050606A0
:10033000070808090A0B0B0C0D0E0F1011121315EC
:100340001617191A1B1D1E2022232527292B2D2F96
:10035000313335383A3D3F4244474A4D5053565960
:100360005C5F6266696C7074777B7E82868A8E9130
:1003700095999DA1A5A9ADB0B4B8BCC0C3C7CBCE5B
:10038000D2D5D8DBDFE2E4E7EAECEFF1F3F5F7F8FA
:10039000FAFBFCFDFEFFFFFF11241FBECFEFDAE0EA
:1003A000DEBFCDBF04B603FE27C08091DF01909170
:1003B000E001A091E101B091E2018730904BA740AC
:1003C000B04BD1F41092DF011092E0011092E101E4
:1003D0001092E20114BE84B7877F84BF0FB6F894F1
:1003E000A895809160008861809360001092600001
:1003F0000FBEE0E0FFE3099511E0A0E0B1E0E6EE1A
:10040000F3E402C005900D92AE31B107D9F721E0B7
:10041000AEE1B1E001C01D92AF3DB207E1F70E942D
:10042000D6050C94F1210C9400000895089580E6FF
:1004300090E0089581E090E00895FC01613081F042
:1004400028F06230C1F06330C1F1089582818823C1
:10045000B9F10E94311782729927892B51F007C098
:100460008281882369F10E94311781FF02C085E3F0
:1004700037C089E235C0413069F038F0423081F44C
:1004800088E380931F0182E509C085E380931F0103
:1004900089E204C084E380931F0188E280931E01F7
:1004A0008281882369F00E94311785FF03C0809103
:1004B0001F0116C080911E0113C08281811105C0E9
:1004C000809120010E94D60C11C00E94311780FF3C
:1004D00006C00E94311782FF05C08CE401C08AE289
:1004E00080932001809120010E940E0C0C946217D1
:1004F000462F672F0C94DC20805C0E94D02008954A
:100500008AE691E0089588E691E0089580B38F70BF
:1005100080BB81B38F7081BB089584E008958CE027
:10052000089580E885BF85BF0E9486028AB18C76D7
:100530008AB98BB183698BB984B1817884B985B16B
:100540008E6785B93E98469A6E98769AA9E2B1E090
:1005500011961C921E92E1E2F1E011821082139634
:100560001C921E9212971382128215961C921E9252
:1005700014971582148217961C921E921697178252
:1005800016820895DF92EF92FF920F931F93CF93FD
:10059000DF9341E2E42E41E0F42EC0E0D1E055E0EB
:1005A000D52EC23051F0C33059F0C13019F0879ABE
:1005B0008F9808C0869A8E9805C0859A8D9802C03B
:1005C000849A8C9880EA8A95F1F789B186958D276F
:1005D000082F017010E0489903C082E090E002C04B
:1005E00080E090E0802B912B4C9903C064E070E098
:1005F00002C060E070E0862B972B369903C028E09C
:1006000030E002C020E030E0AC01422B532B29B196
:10061000022E000C330B20953095C9018827990FC5
:10062000881F992734E0880F991F3A95E1F7842BAA
:10063000952B669903C040E250E002C040E050E0D4
:10064000842B952B1C9903C040E450E002C040E08D
:1006500050E0842B952B1D9903C020E830E002C0A8
:1006600020E030E0822B932B1E9903C060E071E004
:1006700002C060E070E0862B972B1A9903C040E01F
:1006800052E002C040E050E0842B952B1B9903C040
:1006900020E034E002C020E030E0822B932B199957
:1006A00003C020E038E002C020E030E0822B932B32
:1006B000F701208131812817390721F09183808348
:1006C000D09200010E948602CF5FF2E0EF0EF11C93
:1006D000C43009F066CF80910001882361F1815018
:1006E00080930001882339F08FE99FE00197F1F7AB
:1006F00000C0000020C080912101909122019093C0
:100700002A018093290180912301909124019093E3
:100710002C0180932B0180912501909126019093CB
:100720002E0180932D0180912701909128019093B3
:10073000300180932F0181E0DF91CF911F910F91C4
:10074000FF90EF90DF900895E82FF0E0EE0FFF1F8D
:10075000E75DFE4F8081918108950895CF93C82F62
:1007600080933101873090F48430E0F4813090F14F
:100770000E947C1C0E94DB1C0E940C1DEC2FF0E0F0
:10078000E653FE4F8491CF910C94971C8730A9F0CB
:10079000883001F50E947C1C0E94D51C0E940C1D13
:1007A00081E012C00E947C1C0E94DB1C0E94061D7E
:1007B00086E08C1BCF910C940F1D0E947C1C0E9424
:1007C000D51C0E940C1D80E00E94F81C83E0CF9194
:1007D0000C94031D0E94DB1C0E940C1DCF910C94F5
:1007E000861C1F93CF93DF9300D000D01F92CDB70C
:1007F000DEB7162F80913101873029F4662319F076
:1008000080E20E94C71C80913101883069F4112375
:1008100059F080E20F900F900F900F900F90DF91A2
:10082000CF911F910C94B01C0F900F900F900F90D0
:100830000F90DF91CF911F910895E82FF0E0EE0F18
:10084000FF1FE253FE4F859194910895209A289AB4
:10085000559A5D980895882319F0813019F008950C
:10086000289808955D9A0895882319F0813019F029
:100870000895289A08955D980895809142010895F9
:100880000895CF93DF9300D01F92CDB7DEB72091AC
:10089000D501243021F523E029839B838A8382E0DC
:1008A0008093E9008FEF9091E800815095FD06C09C
:1008B00095ED9A95F1F700008111F5CF8091E80050
:1008C00085FF0DC040E050E063E070E0CE0101968E
:1008D0000E9483068091E8008E778093E8000F9055
:1008E0000F900F90DF91CF910895CF93DF9300D0B9
:1008F0001F92CDB7DEB79C018091D501843019F5E8
:1009000092E099833B832A839093E9008FEF909143
:10091000E800815095FD06C095ED9A95F1F700002D
:100920008111F5CF8091E80085FF0DC040E050E0D7
:1009300063E070E0CE0101960E9483068091E8009A
:100940008E778093E8000F900F900F90DF91CF91FA
:100950000895CF93DF932091D501243009F044C04E
:10096000EC0180910C018823C1F083E08093E900C1
:100970008FEF9091E800815095FD06C095E19A9522
:10098000F1F700008111F5CF8091E80085FF2CC0C0
:1009900040E050E060E170E017C081E08093E90042
:1009A0008FEF9091E800815095FD06C095ED9A95E6
:1009B000F1F700008111F5CF8091E80085FF14C0A8
:1009C00040E050E068E070E0CE010E948306809134
:1009D000E8008E778093E80080E1FE01A2E3B1E0B9
:1009E00001900D928A95E1F7DF91CF910895809162
:1009F000D401811109C00E9418080E9475088091D5
:100A0000E20084608093E20008951092D40108957A
:100A100008950C9416020C94EC18089542E061ECD1
:100A200081E00E94920742E061EC82E00E9492071E
:100A300042E161EC83E00C9492078091D70183300E
:100A400009F455C030F4813071F0823009F495C05A
:100A500008958A3009F481C08B3009F460C0893070
:100A600009F0A3C020C08091D601813A09F09DC051
:100A70008091E800877F8093E8008091DA0190916F
:100A8000DB01892B21F460E182E391E003C060E0A7
:100A900080E090E070E00E94CE068091E8008B77C5
:100AA0008093E80008958091D601813209F07DC0DD
:100AB0008091DA019091DB01009719F0029709F01B
:100AC00074C08091E800877F8093E8008091E800FF
:100AD00082FD05C08091D5018111F8CF66C080915B
:100AE000F100809342018091E8008B775AC0809199
:100AF000D601813A09F059C08091DA019091DB0169
:100B0000892B09F052C08091E800877F8093E8002C
:100B10008091E80080FFFCCF80910B013DC0809167
:100B2000D601813209F041C08091DA019091DB0158
:100B3000892BD9F58091E800877F8093E8000E9497
:100B4000C7079091D80181E0911101C080E08093A6
:100B50000B0180930C010C94A4108091D60181327A
:100B600021F58091E800877F8093E8000E94C70705
:100B70008091D9018093430108958091D601813AF3
:100B8000A1F48091E800877F8093E8008091E800DD
:100B900080FFFCCF809143018093F1008091E800B9
:100BA0008E778093E8000C94C707089584B7877FF9
:100BB00084BF0FB6F894A8958091600088618093F7
:100BC0006000109260000FBE90E080E80FB6F894CD
:100BD00080936100909361000FBE0E9418080E94EC
:100BE00075088091E20084608093E200789480919F
:100BF000D5018430E1F70E94470B81E091E00E942B
:100C0000FA0A8091D501853069F40E94AC18809170
:100C1000D3018823B1F30E94D718882391F30E944F
:100C20006D06EFCF0E94570BECCF292F33272330CF
:100C30003105C9F064F42130310581F022303105ED
:100C400009F043C084E590E024E032E042C0213264
:100C50003105F1F02232310541F137C082E190E0F7
:100C600028E532E036C099278130910541F0823085
:100C7000910541F0892B49F5E0E0F2E005C0E4EF91
:100C8000F1E002C0E2EDF1E0849190E09F0121C02B
:100C90006330D8F4E62FF0E0EE0FFF1FE85EFE4F62
:100CA0002081318189E090E014C0633070F470E0FD
:100CB000FB01EE0FFF1FEE5EFE4F20813181FB0135
:100CC000E15FFE4F808190E004C080E090E020E092
:100CD00030E0FA0131832083089580E189BD82E10B
:100CE00089BD09B400FEFDCF8091D8008F7D80932F
:100CF000D8008091E00082608093E0008091E00065
:100D000081FDFCCF0895CF92DF92EF92FF920F9377
:100D10001F93CF93DF93EC018B016A010E94E607DA
:100D2000811133C0C114D10439F0F6018081918161
:100D3000081B190BC80FD91FE12CF12C0115110547
:100D400019F18091E80085FD16C08091E8008E774A
:100D50008093E800C114D10449F0F60180819181AB
:100D6000E80EF91EF182E08285E00FC00E94E607DE
:100D7000882321F30AC089918093F1000150110961
:100D8000FFEFEF1AFF0ADACF80E0DF91CF911F91DA
:100D90000F91FF90EF90DF90CF9008952091DC01AC
:100DA0003091DD012617370748F06115710539F4D8
:100DB0002091E8002E772093E80001C0B90140E0BF
:100DC00061157105A9F12091D501222309F443C0D1
:100DD000253009F442C02091E80023FD40C0209155
:100DE000E80022FD32C02091E80020FFE9CF4091C9
:100DF000F3002091F20030E0342BFC01CF016115AB
:100E0000710559F02830310540F481918093F1004B
:100E1000615071092F5F3F4FF1CF41E0283031051C
:100E200009F040E02091E8002E772093E800C8CF39
:100E30004111C9CF0AC08091D501882361F0853066
:100E400061F08091E80083FD0AC08091E80082FF94
:100E5000F2CF80E0089582E0089583E0089581E074
:100E600008952091DC013091DD012617370748F005
:100E70006115710539F42091E8002E772093E80080
:100E800001C0B901FC0120E06115710591F180916B
:100E9000D501882309F440C0853009F43FC0809112
:100EA000E80083FD3DC08091E80082FD2FC0809165
:100EB000E80080FFE9CF2091F3008091F20090E0FC
:100EC000922B6115710559F08830910540F42491F9
:100ED0002093F1003196615071090196F2CF21E023
:100EE000089709F020E08091E8008E778093E80071
:100EF000CBCF2111CCCF0AC08091D501882361F0DE
:100F0000853061F08091E80083FD0AC08091E8009F
:100F100082FFF2CF80E0089582E0089583E0089593
:100F200081E00895982F973058F59093E90098172D
:100F300039F07091EC002091ED005091F00003C069
:100F4000242F762F50E021FF19C03091EB003E7F17
:100F50003093EB003091ED003D7F3093ED00309108
:100F6000EB0031603093EB007093EC002093ED00C8
:100F70005093F0002091EE0027FF07C09F5FD3CF72
:100F80008F708093E90081E0089580E0089580915A
:100F9000D60187FF11C08091E80082FD05C08091D5
:100FA000D5018111F8CF11C08091E8008B770BC07B
:100FB0008091D501882349F08091E80080FFF8CF27
:100FC0008091E8008E778093E80008952091E400F6
:100FD0003091E50095E64091EC00842F817040FF50
:100FE00022C08091E80080FD1CC08091D50188233B
:100FF00091F0853091F08091EB0085FD10C040911B
:10100000E4005091E5004217530729F39A019150EB
:1010100011F784E0089582E0089583E0089581E067
:10102000089580E008954091E80042FFDECF0895E2
:101030000E9486080E948E08E0EEF0E080818160C8
:101040008083E8EDF0E080818F77808319BCA7ED85
:10105000B0E08C918E7F8C9380818F7E8083109204
:10106000D40108950F931F93CF93DF930E948608B6
:101070000E948E08C8EDD0E088818F7788838881B0
:101080008068888388818F7D888319BC1092D50100
:101090001092D1011092D3011092D20100EE10E013
:1010A000F80180818B7F808388818160888342E022
:1010B00060E080E00E949207E1EEF0E080818E7FA8
:1010C0008083E2EEF0E080818160808380818860AF
:1010D0008083F80180818E7F80838881806188830E
:1010E000DF91CF911F910F910895E8EDF0E080819D
:1010F0008F7E8083E7EDF0E080818160808384E0F3
:1011000082BF81E08093D4010C943208E8EDF0E0D6
:1011100080818E7F80831092E20008951092DA0021
:101120001092E10008951F920F920FB60F921124B2
:101130002F933F934F935F936F937F938F939F93DF
:10114000AF93BF93EF93FF938091E10082FF0BC0B9
:101150008091E20082FF07C08091E1008B7F809345
:10116000E1000E940D058091DA0080FF1FC0809190
:10117000D80080FF1BC08091DA008E7F8093DA0058
:101180008091D90080FF0DC080E189BD82E189BDD9
:1011900009B400FEFDCF81E08093D5010E94F704E1
:1011A00005C019BC1092D5010E9405058091E1008F
:1011B00080FF19C08091E20080FF15C08091E2009D
:1011C0008E7F8093E2008091E20080618093E20054
:1011D0008091D80080628093D80019BC85E080930C
:1011E000D5010E9409058091E10084FF30C0809103
:1011F000E20084FF2CC080E189BD82E189BD09B491
:1012000000FEFDCF8091D8008F7D8093D800809123
:10121000E1008F7E8093E1008091E2008F7E8093D9
:10122000E2008091E20081608093E2008091D10130
:10123000882311F084E007C08091E30087FD02C09D
:1012400081E001C083E08093D5010E940B0580916D
:10125000E10083FF29C08091E20083FF25C08091D7
:10126000E100877F8093E10082E08093D5011092B6
:10127000D1018091E1008E7F8093E1008091E200B6
:101280008E7F8093E2008091E20080618093E20093
:1012900042E060E080E00E9492078091F000886068
:1012A0008093F0000E940805FF91EF91BF91AF91EC
:1012B0009F918F917F916F915F914F913F912F916E
:1012C0000F900FBE0F901F9018951F920F920FB6A0
:1012D0000F9211242F933F934F935F936F937F93BC
:1012E0008F939F93AF93BF93CF93DF93EF93FF932E
:1012F000C091E900CF708091EC00D82FD17080FDB3
:10130000D0E81092E9008091F000877F8093F00090
:1013100078940E94A9091092E9008091F0008860F9
:101320008093F000CD2BCF70C093E900FF91EF9137
:10133000DF91CF91BF91AF919F918F917F916F91ED
:101340005F914F913F912F910F900FBE0F901F9083
:1013500018951F93CF93DF93CDB7DEB7AA970FB63B
:10136000F894DEBF0FBECDBFE6EDF1E088E08E0F52
:101370009091F10091938E13FBCF0E941D058091F7
:10138000E80083FF1FC18091D6019091D701492FBA
:1013900050E04A30510508F015C1FA01EA5AFF4FF2
:1013A0000C94A621803881F0823809F00BC180911D
:1013B000DA018F708093E9008091EB0085FB88272C
:1013C00080F91092E90006C08091D2019091D3017A
:1013D000911182609091E800977F9093E80080934C
:1013E000F1001092F100C8C0282F2D7F09F0EAC04B
:1013F000882319F0823061F0E5C08091D8018130F6
:1014000009F0E0C0933009F080E08093D3012BC055
:101410008091D801811127C08091DA018F7009F481
:10142000D1C08093E9002091EB0020FF1CC09330D5
:1014300021F48091EB00806214C09091EB009061E8
:101440009093EB0021E030E0A90102C0440F551F4A
:101450008A95E2F74093EA001092EA008091EB004F
:1014600088608093EB001092E9008091E800877F0C
:1014700086C08111A7C01091D8011F778091E30029
:101480008078812B8093E3008091E800877F8093B0
:10149000E8000E94C7078091E80080FFFCCF8091A0
:1014A000E30080688093E300111102C082E001C074
:1014B00083E08093D50186C08058823008F082C0D6
:1014C0008091D8019091D9018C3D53E0950779F531
:1014D00083E08A838AE289834FB7F894DE0113960A
:1014E00020E03EE051E2E32FF0E050935700E4911A
:1014F00020FF03C0E295EF703F5FEF708E2F90E00A
:10150000EA3010F0C79601C0C0968D939D932F5F6F
:10151000243149F74FBF8091E800877F8093E8002E
:101520006AE270E0CE0101960E94CE0614C0AE01C0
:101530004F5F5F4F6091DA010E941506BC01892B55
:1015400009F440C09091E800977F9093E80089816A
:101550009A810E9431078091E8008B778093E800A0
:1015600031C0803879F58091E800877F8093E8006A
:101570008091D1018093F1008091E8008E77809373
:10158000E8000E94C7071EC081111CC09091D801BD
:101590009230C0F48091E800877F8093E8009093B8
:1015A000D1010E94C7078091D101811106C08091AD
:1015B000E30087FD02C081E001C084E08093D50193
:1015C0000E940E058091E80083FF0AC08091E80028
:1015D000877F8093E8008091EB0080628093EB002E
:1015E000AA960FB6F894DEBF0FBECDBFDF91CF91A4
:1015F0001F91089590934901809348010895809127
:101600004801909149010895E0914801F091490104
:10161000309721F00190F081E02D099480E0089549
:10162000E0914801F0914901309721F00280F38167
:10163000E02D0994089520914601309147018217C9
:10164000930771F09093470180934601E091480120
:10165000F0914901309721F00680F781E02D09943F
:10166000089520914401309145018217930771F04C
:101670009093450180934401E0914801F091490124
:10168000309721F00084F185E02D099408950E949F
:1016900019190E9491020E94BD190E9448200E94BF
:1016A000091F0E94691C0E941E1E0C948B214F92E0
:1016B0005F927F928F929F92AF92BF92CF92DF9272
:1016C000EF92FF920F931F93CF93DF93CDB7DEB7C7
:1016D0002A970FB6F894DEBF0FBECDBF0E94C2029C
:1016E0009BE4C92E91E0D92E00E010E0AA24A39437
:1016F000B12C702E802F0E94A4034C01F601419062
:1017000051906F014826592641145104B1F40F5FDE
:101710001F4F0430110569F78FEF89838A831B827D
:101720000E9422198160782F9D838C8349815A8180
:101730006B818D810E94ED103AC08091A90181FDDD
:101740000E94AD0320E030E07501022E02C0EE0CD5
:10175000FF1C0A94E2F7C70184219521892B09F126
:101760002E837F828E209F2091E0892809F490E0CB
:1017700098870E9422198160782F9A8789874E81E5
:101780005F8168858A850E94ED10000F111FF801A6
:10179000E55BFE4F80819181E826F926F182E082A7
:1017A00006C02F5F3F4F2C30310571F6B0CF10913E
:1017B0004A010E94040B1817D9F00E94040B809371
:1017C0004A012A960FB6F894DEBF0FBECDBFDF9157
:1017D000CF911F910F91FF90EF90DF90CF90BF902E
:1017E000AF909F908F907F905F904F900C946B1F65
:1017F0002A960FB6F894DEBF0FBECDBFDF91CF9112
:101800001F910F91FF90EF90DF90CF90BF90AF901E
:101810009F908F907F905F904F900895CF938823F3
:1018200009F4C2C0C82F823859F40E94040B81FD0C
:10183000BBC089E30E94DC150E94621789E30CC0DB
:10184000833879F40E94040B80FDAEC083E50E94CA
:10185000DC150E94621783E50E949D16CF910C94BF
:101860006217843859F40E94040B82FD9DC087E4FE
:101870000E94DC150E94621787E4EECF8CEF8C0F7C
:10188000813A48F48C2F0E94271C81118DC08C2F27
:101890000E94DC15E3CF80E28C0F883048F4C770DB
:1018A00081E001C0880FCA95EAF70E943417D6CFAD
:1018B0008BE58C0F833078F4C53A29F0C63A31F0C5
:1018C00083E890E005C081E890E002C082E890E003
:1018D000CF910C941B0B88E58C0F833108F064C00A
:1018E000C83A39F1C93A41F1CA3A49F1CB3A51F112
:1018F000CC3A59F1CD3A61F1C03B69F1CE3A71F180
:10190000CF3A79F1C13B81F1C23B89F1C33B91F1FF
:10191000C43B99F1C53BA1F1C63BA9F1C73BB1F16D
:10192000C83BB9F1C93BC1F1CA3BC9F180E090E0C5
:1019300038C082EE90E035C089EE90E032C08AEE89
:1019400090E02FC085EB90E02CC086EB90E029C0A2
:1019500087EB90E026C08CEC90E023C08DEC90E00B
:1019600020C083E891E01DC08AE891E01AC082E9B6
:1019700091E017C084E991E014C081E292E011C0C7
:1019800083E292E00EC084E292E00BC085E292E036
:1019900008C086E292E005C087E292E002C08AE2D7
:1019A00092E0CF910C94310BCF910895882309F4E4
:1019B0004BC0823859F40E94040B81FF45C089E373
:1019C0000E94DC150E94621789E30CC0833871F411
:1019D0000E94040B80FF38C083E50E94DC150E9442
:1019E000621783E50E949D160C946217843859F49F
:1019F0000E94040B82FF28C087E40E94DC150E942D
:101A0000621787E4EFCF9CEF980F913A58F390E27A
:101A1000980F983050F4877091E001C0990F8A9523
:101A2000EAF7892F0E943A17DFCF9BE5980F933092
:101A300020F480E090E00C941B0B885A833120F452
:101A400080E090E00C94310B0895882321F00E94EF
:101A500034170C9462170895882321F00E943A17D6
:101A60000C9462170895CF92DF92EF92FF920F933A
:101A70001F93CF93DF93CDB7DEB727970FB6F894B8
:101A8000DEBF0FBECDBF25E0FC01DE011196019047
:101A90000D922A95E1F7FC01408131810281258177
:101AA00022952F7063817481672B09F430C33F3F07
:101AB00019F44F3F09F42BC37C0149833A83898190
:101AC0009A812F830E949B15182F9E830E949A153E
:101AD0000E94AA149E81E92FE295EF70F0E0E05A8F
:101AE000FF4F2F810C94A621892F807F9F70F92EA4
:101AF000882319F0F29480EFF822002349F0FF20A8
:101B000009F443C28F2D0E9444170E9462173DC200
:101B1000812F0E94D60CFF2009F4F9C28F2D0E945C
:101B20004A1727960FB6F894DEBF0FBECDBFDF91E0
:101B3000CF911F910F91FF90EF90DF90CF900C9479
:101B40006217892F807F9F70803211F4892F03C024
:101B5000892F8295807F112319F0113009F12AC055
:101B60000023A1F0222381F1213071F527960FB6D1
:101B7000F894DEBF0FBECDBFDF91CF911F910F91C3
:101B8000FF90EF90DF90CF900C945417222319F020
:101B9000213009F4BCC28E830E9457178E8179C10F
:101BA000002321F0263008F0B2C20EC0253008F024
:101BB000AEC26FC10023C1F0222331F0F70195813D
:101BC00090FFE3C19F70958327960FB6F894DEBF10
:101BD0000FBECDBFDF91CF911F910F91FF90EF907E
:101BE000DF90CF900C94250D222309F452C1E1C15E
:101BF000292F26952695237030E02115310521F0F7
:101C000021303105C1F083C2002319F0812F937078
:101C100002C080E090E027960FB6F894DEBF0FBEBA
:101C2000CDBFDF91CF911F910F91FF90EF90DF908B
:101C3000CF900C941B0B002319F0812F937002C0DE
:101C400080E090E027960FB6F894DEBF0FBECDBFC0
:101C5000DF91CF911F910F91FF90EF90DF90CF9088
:101C60000C94310B892F837009F079C001114FC298
:101C7000812F829586958770880F880F212F2F706E
:101C8000C22ED12CE12CF12C082E04C0CC0CDD1C72
:101C9000EE1CFF1C0A94D2F714FF12C04FE050E074
:101CA00060E070E004C0440F551F661F771F8A95DF
:101CB000D2F78A019B01009510952095309503C0BD
:101CC00000E010E09801969596959370492F50E0AA
:101CD000C901B80142305105D1F04330510559F1E5
:101CE0006C297D298E299F294130510541F1279684
:101CF0000FB6F894DEBF0FBECDBFDF91CF911F911D
:101D00000F91FF90EF90DF90CF900C94BF146C294F
:101D10007D298E299F2927960FB6F894DEBF0FBE26
:101D2000CDBFDF91CF911F910F91FF90EF90DF908A
:101D3000CF900C94D1140E94BF14C701B60127960E
:101D40000FB6F894DEBF0FBECDBFDF91CF911F91CC
:101D50000F91FF90EF90DF90CF900C94AD14002383
:101D600019F0892F817001C08695882309F4CFC1AD
:101D7000812F829586958770880F880F212F2F706D
:101D8000C22ED12CE12CF12C082E04C0CC0CDD1C71
:101D9000EE1CFF1C0A94D2F714FF12C04FE050E073
:101DA00060E070E004C0440F551F661F771F8A95DE
:101DB000D2F78A019B01009510952095309503C0BC
:101DC00000E010E09801969596959370492F50E0A9
:101DD000C901B80142305105D1F04330510559F1E4
:101DE0006C297D298E299F294130510541F1279683
:101DF0000FB6F894DEBF0FBECDBFDF91CF911F911C
:101E00000F91FF90EF90DF90CF900C9476156C2996
:101E10007D298E299F2927960FB6F894DEBF0FBE25
:101E2000CDBFDF91CF911F910F91FF90EF90DF9089
:101E3000CF900C9488150E947615C701B60127969D
:101E40000FB6F894DEBF0FBECDBFDF91CF911F91CB
:101E50000F91FF90EF90DF90CF900C946415103F9E
:101E600041F118F4103E48F48BC0123F09F450C001
:101E7000D8F1133F09F460C083C01F70892F8F71A0
:101E8000002321F00E94FD14812F9ECE0E941E157A
:101E9000812F27960FB6F894DEBF0FBECDBFDF911E
:101EA000CF911F910F91FF90EF90DF90CF900C9406
:101EB0002C0D0023A9F0253008F029C1892F8F713E
:101EC00027960FB6F894DEBF0FBECDBFDF91CF913E
:101ED0001F910F91FF90EF90DF90CF900C944315DE
:101EE000263008F014C1EACF0023A1F0892F8F71AA
:101EF00027960FB6F894DEBF0FBECDBFDF91CF910E
:101F00001F910F91FF90EF90DF90CF900C94FD14F4
:101F1000002361F3892F8F7127960FB6F894DEBFE7
:101F20000FBECDBFDF91CF911F910F91FF90EF902A
:101F3000DF90CF900C941E15002391F0892F8F71A4
:101F400027960FB6F894DEBF0FBECDBFDF91CF91BD
:101F50001F910F91FF90EF90DF90CF900C94E814B9
:101F600027960FB6F894DEBF0FBECDBFDF91CF919D
:101F70001F910F91FF90EF90DF90CF900C94E3149E
:101F80000023A1F0222309F4B1CF812F27960FB6A9
:101F9000F894DEBF0FBECDBFDF91CF911F910F919F
:101FA000FF90EF90DF90CF900C940E0C222309F459
:101FB000B1CF812F27960FB6F894DEBF0FBECDBFED
:101FC000DF91CF911F910F91FF90EF90DF90CF9015
:101FD0000C94D60C492F4F70612FC7010E94A9188D
:101FE00027960FB6F894DEBF0FBECDBFDF91CF911D
:101FF0001F910F91FF90EF90DF90CF900C941714EA
:10200000011185C0112341F0892F8F70843021F098
:10201000907F212F2F70922B9F70492F50E04230DC
:10202000510509F440C0BCF44115510561F141303E
:10203000510509F06CC027960FB6F894DEBF0FBEAD
:10204000CDBFDF91CF911F910F91FF90EF90DF9067
:10205000CF900C94481E43305105A9F144305105EE
:1020600009F055C0812F27960FB6F894DEBF0FBE3A
:10207000CDBFDF91CF911F910F91FF90EF90DF9037
:10208000CF900C94A31E27960FB6F894DEBF0FBE18
:10209000CDBFDF91CF911F910F91FF90EF90DF9017
:1020A000CF900C942F1E27960FB6F894DEBF0FBE6C
:1020B000CDBFDF91CF911F910F91FF90EF90DF90F7
:1020C000CF900C94611E27960FB6F894DEBF0FBE1A
:1020D000CDBFDF91CF911F910F91FF90EF90DF90D7
:1020E000CF900C94801E492F4F70612FC701279607
:1020F0000FB6F894DEBF0FBECDBFDF91CF911F9119
:102100000F91FF90EF90DF90CF900C941D022796D7
:102110000FB6F894DEBF0FBECDBFDF91CF911F91F8
:102120000F91FF90EF90DF90CF9008950E9451178C
:102130000E9423170E94621780E090E00E941B0B10
:1021400080E090E00C94310B0E9441170C949610A3
:102150000E949B15292F22952F7030E02C303105DD
:102160004CF42A3031056CF422503109223031050B
:1021700088F407C02C30310549F02F30310531F09B
:1021800009C0803E48F0803F29F406C093FB8827B1
:1021900080F9089580E0089581E00895CF93DF935A
:1021A00000D000D01F92CDB7DEB70F900F900F90E8
:1021B0000F900F90DF91CF910895CF93DF9300D0D0
:1021C00000D000D0CDB7DEB726960FB6F894DEBFAC
:1021D0000FBECDBFDF91CF910895CF93DF93CDB7E1
:1021E000DEB72B970FB6F894DEBF0FBECDBF4F837F
:1021F000588769877A878B87DE01119686E0FD0113
:1022000011928A95E9F785E0FE01379601900D92CB
:102210008A95E1F74F81588569857A858B850E947B
:10222000F10349815A816B817C818D819E810E945D
:1022300073132B960FB6F894DEBF0FBECDBFDF91A0
:10224000CF9108951F93CF93DF93C091530116E070
:1022500080915401C81799F0D0E01C9FF0011D9F98
:10226000F00D1124EB5AFE4F408151816281738140
:10227000848195810E94DD102196C770E9CFDF919E
:10228000CF911F91089540918501509186016091F1
:102290008701709188018091890190918A010C9445
:1022A000DD1080918A0182958F7009F054C0809171
:1022B0008701882309F44FC080915301A0915401F4
:1022C000609185017091860140918801509189014A
:1022D000B6E08A1709F43FC090E041155105C1F1FD
:1022E0007F3F11F46F3FA1F1B89FF001B99FF00D4E
:1022F0001124EB5AFE4F218172132AC020816213F0
:1023000027C02281211124C023813481241735075D
:1023100010F421503109241B350B283C3105C0F441
:1023200020918A012F70206120938A0126E0289F46
:10233000F001299FF00D1124E65AFE4F80818F7025
:102340008061808385E891E00E94330D0C94221116
:1023500001968770BECF0895CF92DF92EF92FF92E1
:102360000F931F93CF93DF93CDB7DEB762970FB66E
:10237000F894DEBF0FBECDBF8C0185E0F801DE0111
:102380001D9601900D928A95E1F7D8014C91119616
:102390005C91119712966C9112971396CD90DC90E8
:1023A00014973091850170918601809188019091F8
:1023B0008901009709F46BC17F3F19F43F3F09F48D
:1023C00066C1E0908701EE2009F4C0C020918A0127
:1023D000C816D90628F0F601E81BF90BCF0104C096
:1023E000809590958C0D9D1DFF24F394883C91055C
:1023F00078F0F12C207F09F0C6C07C2DD98AC88ADC
:1024000089890E94CE1085E891E00E94330DB1C009
:10241000822F807F09F046C0751314C0341312C098
:10242000611110C02F70206120938A010E94431116
:1024300085E891E00E94330D80918A01D8011596BC
:102440008C932EC0CD2819F15F3F11F44F3FF9F066
:10245000F62E61111CC0809153012091540136E089
:10246000821709F45AC090E0389FF001399FF00DAF
:102470001124EB5AFE4F7181571306C07081471328
:1024800003C07281711103C001968770E9CFF62EE7
:10249000662309F418C180918A01816080938A01C2
:1024A000F12C11C1751308C0341306C0611104C0AA
:1024B00080918A01D801C3C04D875E878D859E8536
:1024C0006A8B0E94A8106A898823E1F16623D1F102
:1024D00020918A01822F82958F7090E0029774F08C
:1024E000809185019091860198878F831986DB867C
:1024F000CA862C87CE0107960E94330D86E0F8012C
:10250000A5E8B1E001900D928A95E1F70E94511182
:102510000E944311FF24F394D6C04D875E878D85BA
:102520009E850E949B15292F22952F7030E0223026
:1025300031050CF0BCC09F7009F0B6C0805E8830D9
:1025400008F4C1C0C8010E94330DE4CFC816D906F3
:1025500008F453C0F601E81BF90BCF01883C910544
:1025600008F450C0F12C7C2DD98AC88A89890E9430
:10257000CE10E5E8F1E086E0DF011D928A95E9F7EB
:102580000E944311A0C0751314C0341312C061110E
:1025900010C080918A01F8018583C8010E94330D23
:1025A00086E0E5E8F1E0DF011D928A95E9F7FE2C6F
:1025B0008AC04D875E878D859E856A8B0E94A81094
:1025C0006A89882309F4BECF662309F4BBCF209122
:1025D0008A01822F82958F7090E002970CF48ECF43
:1025E00080918501909186019A8389831B82DD8287
:1025F000CC822E83CE0101967FCF809590958C0D55
:102600009D1DACCFF62E662309F49CCF75132EC00A
:1026100034132CC020918A0120FD1FC0822F829587
:102620008F70D9F0D80115962C9315978F3049F0FB
:102630008F5F982F9295907F822F8F70892B1596A0
:102640008C93C8010E94330D86E0F801A5E8B1E043
:1026500001900D928A95E1F793CF86E0F801A5E805
:10266000B1E001900D928A95E1F72DC04D875E870C
:102670008D859E850E94A810811140CF80918A018E
:10268000816080938A01C8010E94330D1CC06623BB
:1026900009F458CF4D875E878D859E850E94A810CE
:1026A000882309F44FCF2ACF811148CF0CC02430A2
:1026B00031050CF047CF9F7009F440CFF8019581A8
:1026C000907F09F03BCF8F2D62960FB6F894DEBF56
:1026D0000FBECDBFDF91CF911F910F91FF90EF9073
:1026E000DF90CF9008951F93CF93DF93CDB7DEB7E0
:1026F0002C970FB6F894DEBF0FBECDBF4F8358871F
:1027000069877A878B879C87CE0107960E94AC11D8
:10271000882369F08F8198852A853B85232BF1F1E9
:102720009F3F09F063C08F3F09F060C037C086E06B
:10273000FE013796DE01119601900D928A95E1F720
:102740006F817885EA85FB85309741F17F3F11F4F1
:102750006F3F21F12091540130E0C901019687704B
:1027600099274091530150E08417950709F447C019
:1027700069837A83FD83EC8396E0929FD001939FD7
:10278000B00D1124AB5ABE4FFE01319601900D924F
:102790009A95E1F7809354010E94221116E08091EE
:1027A0005301909154018917C1F1189FC001112460
:1027B0008B5A9E4F0E94AC11882379F1E09153010E
:1027C0001E9FF0011124EB5AFE4F4081518162811E
:1027D0007381848195810E94DD108091530190E086
:1027E00001968770992780935301D9CF4F815885DF
:1027F00069857A858B859C850E94DD10CFCF0E94EC
:10280000A4101092540110925301E5E8F1E086E023
:10281000DF011D928A95E9F7C1CF2C960FB6F89487
:10282000DEBF0FBECDBFDF91CF911F910895EF9214
:10283000FF920F931F93CF93DF938C01892B09F4A1
:102840006AC0F12CEE24E394E8012196F80184910A
:10285000843740F4843008F04FC0813081F08230FA
:1028600019F159C0853709F442C098F19CE7980FD7
:10287000903708F050C08F770E94D60C3FC00E5F93
:102880001F4FFE01C49180E28C0F883048F4C7705E
:102890008E2D01C0880FCA95EAF70E9444172FC0F9
:1028A0008C2F0E940E0C2BC00E5F1F4FFE01C49197
:1028B00080E28C0F883048F4C7708E2D01C0880FDD
:1028C000CA95EAF70E944A171AC08C2F0E94D60CAC
:1028D00016C00E5F1F4FFE01C491CC2381F08FE91B
:1028E0009FE00197F1F700C00000C150F6CF0E5FE6
:1028F0001F4FFE01F49003C00E940E0C8E018F2D1D
:10290000882309F4A1CFEFE9FFE03197F1F700C088
:1029100000008150F5CFDF91CF911F910F91FF9073
:10292000EF90089560938F017093900180939101CF
:10293000909392010E94A11F0C94961060938B01BA
:1029400070938C0180938D0190938E010E94E31F00
:102950000C94961008950C9492140F931F93009169
:102960008F01109190012091910130919201602B83
:10297000712B822B932B1F910F910C9492140F9318
:102980001F9300918F01109190012091910130913E
:10299000920160237123822393231F910F910C9442
:1029A00092140F931F9300918F0110919001209129
:1029B00091013091920160277127822793271F91FF
:1029C0000F910C94921460E070E0CB010C949E1473
:1029D0000F931F9341E050E060E070E08A019B019B
:1029E00004C0000F111F221F331F8A95D2F7C9019F
:1029F000B8011F910F910C949E140F931F9341E007
:102A000050E060E070E004C0440F551F661F771F60
:102A10008A95D2F780918B0190918C01A0918D01C4
:102A2000B0918E018A019B01082B192B2A2B3B2B7D
:102A3000C901B8011F910F910C949E140F931F931D
:102A400041E050E060E070E004C0440F551F661F95
:102A5000771F8A95D2F74095509560957095809133
:102A60008B0190918C01A0918D01B0918E018A0112
:102A70009B01082319232A233B23C901B8011F9175
:102A80000F910C949E140F931F9341E050E060E06F
:102A900070E004C0440F551F661F771F8A95D2F758
:102AA00080918B0190918C01A0918D01B0918E014C
:102AB0008A019B01082719272A273B27C901B8014A
:102AC0001F910F910C949E140F931F9300918B01F3
:102AD00010918C0120918D0130918E01602B712B12
:102AE000822B932B1F910F910C949E140F931F9385
:102AF00000918B0110918C0120918D0130918E01FC
:102B000060237123822393231F910F910C949E14B1
:102B10000F931F9300918B0110918C0120918D01D7
:102B200030918E0160277127822793271F910F9183
:102B30000C949E140895CF92DF92EF92FF920F9320
:102B40001F93CF93DF938C01C0908F01D0909001A1
:102B5000E0909101F090920140918B0150918C0195
:102B600060918D0170918E01C42AD52AE62AF72A38
:102B7000CFE1D0E0D701C6010C2E04C0B695A795D1
:102B8000979587950A94D2F780FF07C0B8018C2FDC
:102B90000E9436188130910531F4219758F7B80119
:102BA00080E00E943618DF91CF911F910F91FF9026
:102BB000EF90DF90CF900895CF92DF92EF92FF9247
:102BC0000F931F93CF93DF93C82F80910C0188231D
:102BD000C1F08C2F8695869586958F3008F0A4C01D
:102BE000E0910D01F0910E01E80FF11DC77081E039
:102BF00090E001C0880FCA95EAF79181892B818303
:102C000093C0D090A6013091A401E0910D01F09104
:102C10000E01332309F473C04091A5018D2D2FEFD0
:102C200096E0E92EF12C082F082E000C110BBF01A5
:102C3000600F711FDB0112969C919C1709F474C000
:102C40002F3F19F4911101C0282FC801019606E009
:102C500010E0B7010E9492218413E5CFD22F4D11CD
:102C60004EC02F3F69F4842F440F990B0196B80191
:102C70000E9492218093A60131503093A4013FC05D
:102C8000822F220F990B0196B8010E949221282FC2
:102C9000FF24F39406E010E0022E000C330B6F01CA
:102CA000C20ED31ED60112965C91552391F08D2F42
:102CB000DD0F990BBF01680F791FDB0112965C9342
:102CC000D60112961C920196B8010E949221D82F2B
:102CD00001C0F394C9010196B8010E949221282FE6
:102CE0008413DACF242F440F330B2F193109C90174
:102CF000069666E070E00E9492218093A5012091E3
:102D0000A501022E000C330BE20FF31FC283C90191
:102D1000019666E070E00E9492218093A501809167
:102D2000A4018F5F8093A401DF91CF911F910F9138
:102D3000FF90EF90DF90CF900895EF92FF920F9366
:102D40001F93CF93C82F80910C018823C9F08C2F3B
:102D50008695869586958F3008F06FC0E0910D01BD
:102D6000F0910E01E80FF11DC77081E090E001C005
:102D7000880FCA95EAF780959181892381835DC088
:102D80002091A6014091A401442309F456C0E0918A
:102D90000D01F0910E010091A501002E000C110B08
:102DA00086E0E82EF12C30E0DF01A20FB31FCD0149
:102DB000029612965C915C1336C0DC011C92415065
:102DC0004093A401411104C01092A6011092A501E4
:102DD0004091A501842F042E000C990B059666E006
:102DE00070E00E9492212817390739F5C091A60199
:102DF00006E010E0842F440F990B0596B8010E945D
:102E000092219C01482F0596B8010E949221DF0172
:102E1000A80FB91F12968C91811102C02C13EACF12
:102E20002093A5010AC0C9010196B7010E94922111
:102E3000282F8017910709F0B6CFCF911F910F91DE
:102E4000FF90EF90089581E090E0E0910D01F09106
:102E50000E01E80FF91F1082019680319105A9F744
:102E600008958091A80108959091A801892B8093DD
:102E7000A801089580959091A80189238093A801C5
:102E800008951092A80108959091A701892B80932D
:102E9000A701089580959091A70189238093A701A8
:102EA00008951092A70108958093930108951092B8
:102EB0009301089580910C01811103C08091A401B8
:102EC00008950895E0910D01F0910E018091A801FF
:102ED0008083E0910D01F0910E0190818091A70116
:102EE000892B808380919301882361F0E0910D010B
:102EF000F0910E019081892B80830E945A178111D5
:102F00001092930180910D0190910E010C94100B81
:102F10008D3B50F4883AE8F4853A90F4843070F4AC
:102F2000813009F45BC007C0803E28F0883E30F055
:102F3000803F08F050C080E090E0089590E0089550
:102F4000853A09F44EC0863A09F44EC083E890E40D
:102F50000895883A09F44BC0893A09F44BC08A3A7B
:102F600009F44BC08B3A09F44BC08C3A09F44BC0BE
:102F70008B3B09F44BC08C3B09F44BC08D3A09F4F0
:102F80004BC0803B09F44BC08E3A09F44BC08F3ADA
:102F900009F44BC0813B09F44BC0823B09F44BC0A0
:102FA000833B09F44BC0843B09F44BC0853B09F4D7
:102FB0004BC0863B09F44BC0873B09F44BC0883BB0
:102FC00009F44BC0893B09F44BC08A3B09F44BC060
:102FD00080E094E4089590E09065089581E090E0A9
:102FE000089581E890E4089582E890E4089582EEDF
:102FF00094E4089589EE94E408958AEE94E40895A3
:1030000085EB94E4089586EB94E4089583EB94E4CF
:10301000089584EB94E4089587EB94E408958CEC90
:1030200094E408958DEC94E4089583E895E408957C
:103030008AE895E4089582E995E4089584E995E4A1
:10304000089581E296E4089583E296E4089584E287
:1030500096E4089585E296E4089586E296E408955C
:1030600087E296E408958AE296E408950E94780241
:10307000803EA8F4803C00F5813309F45CC038F44C
:10308000893209F452C08A3209F45BC05FC08933C7
:10309000B1F08238A1F0853309F441C057C0833EB6
:1030A00041F128F4803E99F0823EB9F04FC0863E4F
:1030B00031F1873E71F14AC00E947C0208959091DF
:1030C000D00190FD02C091FF41C080EE3FC08091D1
:1030D000D00180FFFACF89E339C08091D00182FF0F
:1030E0000CC08091D00184FF02C080E02FC083EE2D
:1030F0002DC08091D00182FFF4CF82EE27C0809155
:10310000D00183FF0AC08091D00184FDEECF87EE0D
:103110001DC08091D00183FFF6CF86EE17C080914D
:10312000D00185FF06C089E211C08091D00185FFE2
:10313000FACF85E30BC08091D00186FF06C08AE2FA
:1031400005C08091D00186FFFACF81E30E948817E5
:10315000089580E090E008958091D501843031F1A8
:103160001092AA0120E488E190E00FB6F894A895A7
:10317000809360000FBE209360000E94861C83B77E
:10318000817F846083BF83B7816083BF7894889593
:1031900083B78E7F83BF0FB6F894A89580916000A7
:1031A000886180936000109260000FBE0895CF93F5
:1031B0000E9415020E94C2020E941602C0E08C2FDB
:1031C0000E94A403892B29F4CF5FC430C1F780E0AB
:1031D00001C081E0CF9108950E94A4100C941E1E9E
:1031E0001F920F920FB60F9211248F939F93AF935C
:1031F000BF938091AA01811113C08091AB0190917E
:10320000AC01A091AD01B091AE014196A11DB11DDF
:103210008093AB019093AC01A093AD01B093AE014C
:10322000BF91AF919F918F910F900FBE0F901F9004
:10323000189582E084BD93E095BD9AEF97BD809389
:103240006E0008952FB7F8948091AB019091AC0176
:10325000A091AD01B091AE012FBF08951F920F92C2
:103260000FB60F9211248F939F93AF93BF938091CA
:10327000AB019091AC01A091AD01B091AE0101966E
:10328000A11DB11D8093AB019093AC01A093AD0142
:10329000B093AE01BF91AF919F918F910F900FBEF0
:1032A0000F901F9018950E941808F8942FEF87EA46
:1032B00091E6215080409040E1F700C0000087E097
:1032C00090EBDC018093DF019093E001A093E1019A
:1032D000B093E2019CE088E10FB6F894A895809342
:1032E00060000FBE90936000FFCFCF92DF92EF920D
:1032F000FF920F931F93CF93DF93D82FC0E0EE245C
:10330000E394F12C8C2F0E94A4036C0100E010E0E8
:103310009701002E02C0220F331F0A94E2F72C21DE
:103320003D21232B31F40F5F1F4F0C30110581F726
:1033300009C0602F7C2F80E00E947802D813F3CF61
:1033400081E004C0CF5FC430E9F680E0DF91CF9127
:103350001F910F91FF90EF90DF90CF900895CF9342
:10336000C82F8CE20E947519882321F08C2FCF91F1
:103370000C94751980E0CF910895CF930E94161B8D
:10338000811102C00E94F11AC5E6C15049F00E94A5
:10339000C2028FE39CE90197F1F700C00000F5CF6E
:1033A00089E20E94AF1981111AC18AE20E94AF1905
:1033B000882341F00E94101B0E94F11A0E941121E3
:1033C0000E94752085E00E94AF1981110E94531957
:1033D0000E94211B8093A90187E00E94AF198823D6
:1033E000A9F18BE10E94AF19882351F08091A901C6
:1033F00081FB222720F991E0922790FB81F90EC0F2
:103400008EE00E94AF19882361F08091A90182FBB0
:10341000222720F991E0922790FB82F98093A9015D
:1034200015C080E10E94AF199091A901882341F055
:1034300093FB222720F981E0822780FB93F904C0C7
:10344000892F809580FB90F99093A9018091A90123
:103450000E94251B0E94331B8093D00180EE0E94A6
:10346000AF19882341F08091D001982F909590FB5F
:1034700080F98093D00189E30E94AF19882359F025
:103480008091D00181FB222720F991E0922790FBC7
:1034900081F98093D00182EE0E94AF19882359F000
:1034A0008091D00182FB222720F991E0922790FBA6
:1034B00082F98093D00186EE0E94AF19882359F0DB
:1034C0008091D00183FB222720F991E0922790FB85
:1034D00083F98093D00183EE0E94AF19882359F0BD
:1034E0008091D00184FB222720F991E0922790FB64
:1034F00084F98093D00185E30E94AF19882359F0A5
:103500008091D00185FB222720F991E0922790FB42
:1035100085F98093D00181E30E94AF19882359F087
:103520008091D00186FB222720F991E0922790FB21
:1035300086F98093D00181E10E94AF19882359F068
:103540008091D00187FB222720F991E0922790FB00
:1035500087F98093D0018091D0010E94371B809120
:10356000D00187FB882780F980930C0187E20E94B5
:10357000AF19C82F8EE10E94AF198111C2608FE18F
:103580000E94AF198111C46080E20E94AF198111BD
:10359000C86081E20E94AF198111C06182E20E947D
:1035A000AF198111C06283E20E94AF198111C0641A
:1035B00084E20E94AF19882311F0C06802C0CC23B6
:1035C00029F08C2F0E942E1B6C2F03C00E942A1BF7
:1035D000682F70E080E090E0CF910C94AB14CF9115
:1035E00008956DEE7EEF80E090E00E94DC2160E0C7
:1035F00082E090E00E94CE2160E083E090E00E94B3
:10360000CE2160E084E090E00E94CE2160E085E081
:1036100090E00E94CE2160E086E090E00C94CE2104
:103620006FEF7FEF80E090E00C94DC2180E090E091
:103630000E94C82121E08D3E9E4F09F020E0822F9C
:10364000089582E090E00C94C021682F82E090E021
:103650000C94CE2183E090E00C94C021682F83E08D
:1036600090E00C94CE2184E090E00C94C021682F6F
:1036700084E090E00C94CE2186E090E00C94C02190
:10368000682F86E090E00C94CE2180E0089580E0E1
:103690000895811103C080E090E002C087E797E7BA
:1036A00090930108809300089AE088E10FB6F8949F
:1036B000A895809360000FBE90936000FFCF0F939A
:1036C0001F93482F50E0FA013597E434F10508F0D4
:1036D000BAC0E059FF4F0C94A6210E94211B0E9402
:1036E000331B0E943C1B3BC00E94FF0A892B59F0F0
:1036F0000E94FF0A9093B0018093AF010E94A41032
:1037000080E090E004C08091AF019091B0010E94F0
:10371000FA0A25C00E94A4100FEF13ED20E3015018
:1037200010402040E1F700C0000081E00E94491BEA
:103730008091A901817F8E7F8093A90181E0809390
:10374000B10182C00E94A4103FEF83ED90E331509D
:1037500080409040E1F700C000000E94531981E0D2
:1037600073C09091A901892F817090FF12C0917F41
:103770009E7F9093A90168C08091A90181FB2227B7
:1037800020F991E0922790FB81F98093A901992378
:1037900031F38091A90181608093A901E0CF8091EC
:1037A000A90182FB222720F991E0922790FB82F960
:1037B000ECCF8091A90183FB222720F991E0922789
:1037C00090FB83F9E2CF0E94A41090910C0181E05C
:1037D000892780930C01C3CF81E890E00E941B0BE6
:1037E0000FEF11EE24E0015010402040E1F700C03F
:1037F000000080E090E00E941B0B3FEF89E698E11B
:10380000315080409040E1F700C00000A8CF61E057
:1038100070E080E090E012C08D5101C0895341E01A
:1038200050E060E070E08A019B0104C0000F111FAE
:10383000221F331F8A95D2F7C901B8010E94AB1429
:103840000E94A4108CCF80E01F910F910895CF9318
:10385000C82F8091B101882319F0813049F031C01F
:10386000E0910D01F0910E018081823261F507C077
:10387000E0910D01F0910E018081823261F48C2F74
:103880000E94451B811104C08C2F0E945F1B17C032
:1038900081E090E014C08C2F0E94471B81110EC064
:1038A000C43149F018F4CB3049F00FC0C93219F0D7
:1038B000C83321F00AC01092B10107C081E08170C5
:1038C00006C01092B10180E002C080E0F8CFCF9135
:1038D0000895E1E8F0E080818860808380818160E4
:1038E00080838FB7F89493E09093890090ED909344
:1038F00088008FBF0C942520EFE6F0E08081826085
:10390000808381E08093C5010C944020EFE6F0E0D5
:1039100080818D7F80831092C50180E00E943320DA
:1039200081E00E9433208091C5010C944020E1EC9D
:10393000F1E0808381830895E82FF0E0EF53FE4F9C
:103940002081422F50E08FEF90E0861B9109841771
:1039500095071CF48FEF80830895620F60830895AC
:10396000CF93C82F682F80E00E949C1C6C2F81E0B1
:10397000CF910C949C1CE82FF0E0EF53FE4F808118
:10398000861710F410820895861B80830895CF93C4
:10399000C82F682F80E00E94BB1C6C2F81E0CF9164
:1039A0000C94BB1C8091C50108958091C001836077
:1039B0008093C00108951092C00108954091BF0105
:1039C00021E030E0662341F001C0220F8A95EAF73A
:1039D000242B2093BF010895B90102C0660F771F01
:1039E0008A95E2F7CB01809584238093BF010895E7
:1039F000CF93C82F682F80E00E94DE1C6C2F81E0DF
:103A0000CF910C94DE1C8093BE0108958091BB0180
:103A100083608093BB0108951092BB010895809349
:103A2000B90108951F920F920FB60F921124EF92D1
:103A3000FF920F931F932F933F934F935F936F9337
:103A40007F938F939F93AF93BF93CF93DF93EF9326
:103A5000FF938091B5018F5F8093B50103EC11E076
:103A6000C0E0D0E0FC2E8091B50181110DC0F801BD
:103A70008081882319F08C2F0E942620FE01EF53AD
:103A8000FE4F8081F8018083F80181918F01909130
:103A9000B501981303C08F2D0E943320219719F090
:103AA000C1E0D0E0DFCF8091B4018F5F803418F4A3
:103AB0008093B401ACC01092B401E090C001E11059
:103AC00005C09091BB0191113BC0A1C08091B30191
:103AD0008F5F8093B3019091BE01981790F7109279
:103AE000B3010CEB11E0C0E0D0E0F12CC7010C2ECB
:103AF00002C0969587950A94E2F780FF1AC0F801F4
:103B00008081882319F08150808313C08091BF0188
:103B100090E00C2E02C0969587950A94E2F761E03A
:103B200080FF04C08C2F0E94BB1C03C08C2F0E94FE
:103B30009C1C0F5F1F4F219721F2C1E0D0E0D6CF30
:103B40008091B2018F5F8093B2012091B901281753
:103B500008F05DC01092B2012091B6013091BA0117
:103B6000A7EBB1E040E050E0C1E0D0E0692F70E0A9
:103B7000042E02C0769567950A94E2F760FF3AC07A
:103B80008C91E82FF0E0E85EFC4F0491BA016F538E
:103B90007E4FFB010083622F70E0042E02C07695F9
:103BA00067950A94E2F760FF19C0811115C0BE0144
:103BB000042E01C0660F0A94EAF760952623E32FCE
:103BC000F0E0042E02C0F695E7950A94E2F7E0FFD4
:103BD00011C0962336230EC081500BC08F3741F49D
:103BE000BE01042E01C0660F0A94EAF7262B02C01C
:103BF0008F5F8C9311964130510519F041E050E0F0
:103C0000B5CF2093B6019093BB013093BA01FF91D9
:103C1000EF91DF91CF91BF91AF919F918F917F9164
:103C20006F915F914F913F912F911F910F91FF9055
:103C3000EF900F900FBE0F901F9018950E94161BCB
:103C4000811102C00E94F11A0E943C1B8093DE0188
:103C500080FF02C0869501C080E00C94AE03809185
:103C6000DE0180FF14C0982F9695292F30E0283070
:103C7000310544F49F5F990F8170892B8093DE0199
:103C80000E94401B8091DE0186950C94AE0308953E
:103C90008091DE0180FF14C0982F9695292F30E087
:103CA0002230310544F09158990F8170892B80930F
:103CB000DE010E94401B8091DE0186950C94AE03CC
:103CC00008958091DE01982F9095917090FB80F976
:103CD0008093DE01992339F0982F9E7F21F4817023
:103CE00082608093DE018091DE010E94401B809102
:103CF000DE0180FF02C0869501C080E00C94AE0317
:103D00009091DE01892F86958F5F8F779170893032
:103D100028F4880F892B8093DE0102C09093DE0186
:103D20008091DE018E7F91E009F490E08091DE01C8
:103D300090FB80F98093DE010E94401B8091DE01A0
:103D400086950C94AE03880F9091DE019170892BBB
:103D50008093DE018E7F91E009F490E08091DE0196
:103D600090FB80F98093DE010E94401B8091DE0170
:103D700086950C94AE03DF92EF92FF920F931F9300
:103D8000CF93DF930091CB010827611101C0C9F1E6
:103D9000C0E0D0E0E62EF82E10E0DC2E0E94D21C0F
:103DA000882359F02091C70130E00C2E02C03695CF
:103DB00027950A94E2F720FD1DC0E11009C0C80153
:103DC0000C2E02C0969587950A94E2F780FF12C0E8
:103DD0002091C6012F2530E00C2E02C03695279584
:103DE0000A94E2F78D2D20FF03C00E942B0402C02D
:103DF0000E943404219719F0C1E0D0E0CECFF092B8
:103E0000CB01DF91CF911F910F91FF90EF90DF9049
:103E100008950F931F93CF93DF93C0E0D0E001E0AC
:103E200010E08C2F0E94852094FF0BC08091C6016A
:103E300098010C2E01C0220F0A94EAF7282B209338
:103E4000C60195FF0BC08091C70198010C2E01C0DF
:103E5000220F0A94EAF7282B2093C7019F70892F1D
:103E600090E08230910589F083309105D1F0813066
:103E7000910511F50C2E01C0880F0A94EAF7909174
:103E8000C901892B8093C90117C02091C801C801BD
:103E90000C2E01C0880F0A94EAF7822B8093C80188
:103EA0000BC02091CA01C8010C2E01C0880F0A94D2
:103EB000EAF7822B8093CA01219719F0C1E0D0E084
:103EC000B0CF0E94260461E080E0DF91CF911F9186
:103ED0000F910C94BB1ECF93DF939091CA0199234D
:103EE00069F1D82FC091CB0190FF0FC080E00E94F4
:103EF00085202D2F30E002C0359527958A95E2F771
:103F000020FD02C0CE7F01C0C1608091CA0181FF47
:103F10000FC081E00E9485202D2F30E002C0359532
:103F200027958A95E2F720FD02C0CD7F01C0C260CF
:103F300060E08C2FDF91CF910C94BB1EDF91CF916D
:103F40000895CF92DF92EF92FF92CF932091C90113
:103F5000222399F16B017C01C091CB0120FF11C09C
:103F600080E00E948520A701960104C056954795E0
:103F7000379527958A95D2F720FD02C0CE7F01C0E4
:103F8000C1608091C90181FF0FC081E00E9485203E
:103F900004C0F694E794D794C7948A95D2F7C0FCEE
:103FA00002C0CD7F01C0C26060E08C2FCF91FF9036
:103FB000EF90DF90CF900C94BB1ECF91FF90EF90CD
:103FC000DF90CF900895CF92DF92EF92FF92CF9340
:103FD0002091C801222399F16B017C01C091CB0192
:103FE00020FF11C080E00E948520A701960104C037
:103FF00056954795379527958A95D2F720FD02C0AB
:10400000CE7F01C0C1608091C80181FF0FC081E0F7
:104010000E94852004C0F694E794D794C7948A95AB
:10402000D2F7C0FC02C0CD7F01C0C26060E08C2F1F
:10403000CF91FF90EF90DF90CF900C94BB1ECF916B
:10404000FF90EF90DF90CF90089508952091C701E1
:1040500030E0082E02C0369527950A94E2F720FD3D
:104060000C942B0408952091C70130E0082E02C063
:10407000369527950A94E2F720FD0C9434040895B0
:10408000811105C061E08091CB010C94BB1E0895A5
:1040900088E090E00E94C8219093CD018093CC01EC
:1040A000019661F480E00E941D049093CD018093FD
:1040B000CC01BC0188E090E00E94DC218AE090E025
:1040C0000E94C8219093CF018093CE01019661F4A4
:1040D00081E00E941D049093CF018093CE01BC012A
:1040E0008AE090E00C94DC21089580E00E941D0499
:1040F000BC0188E090E00E94DC2181E00E941D0468
:10410000BC018AE090E00C94DC21E82FF0E0EE0F97
:10411000FF1FE453FE4F808191810895CF92DF927B
:10412000EF92FF920F931F93CF9380E190E00E9454
:10413000C8218C01C12CD12C2DEEE22E2EEFF22EB7
:104140000E948D02C82F0E948F02C89FC0011124B7
:104150009C0183E0220F331F8A95E1F7205C3F4FDB
:10416000C216D30680F4C60142960E94C021282FB1
:1041700030E0C0FE02C0322F2227E20EF31E8FEF86
:10418000C81AD80ADDCF81E00E151F0509F080E0BE
:10419000CF911F910F91FF90EF90DF90CF900895F6
:1041A00090E0880F991F42960C94C82190E0880FE8
:1041B000991F42960C94DC21EF92FF920F931F936C
:1041C000CF93DF9300D0CDB7DEB7182F4A83698332
:1041D0000E948D02082F0E948F02089FC0011124A7
:1041E000189F7001199FF00C11240E948F026981A1
:1041F0009701689F200D311D1124C9014A81840F48
:10420000911D8E5A9F4F0F900F90DF91CF911F916C
:104210000F91FF90EF900C94C0218E5A9F4F0C94F9
:10422000CE218F929F92AF92BF92CF92DF92EF9268
:10423000FF920F931F93CF93DF930E9483026C0131
:104240000E9480027C01C114D10409F10E941A026B
:104250004C01A12CB12C0DEE1EEFA814B90420F4D2
:10426000F601C591D49102C0C0E0D0E0BE018A2D14
:104270000E94D6200C0F1D1F8FEFA81AB80A82E0EB
:10428000C80ED11C80E2A816B10439F702C00DEEA9
:104290001EEFE114F10471F10E9417026C01A12CD0
:1042A000B12C0E948D02C82F0E948F02C89FC001AE
:1042B000112423E0880F991F2A95E1F7A816B90663
:1042C000C8F4AC14BD0428F4F701EA0DFB1DC49139
:1042D00001C0C0E06C2FC5010E940D21EC2FF0E061
:1042E000A0FE02C0FE2FEE270E0F1F1F8FEFA81A91
:1042F000B80AD7CFB80180E190E0DF91CF911F914C
:104300000F91FF90EF90DF90CF90BF90AF909F9074
:104310008F900C94DC210E948E20811102C00C949D
:104320001121089597FB072E16F4009407D077FD0E
:1043300009D00E94AC2107FC05D03EF490958195F0
:104340009F4F0895709561957F4F0895EE0FFF1F61
:104350000590F491E02D0994AA1BBB1B51E107C005
:10436000AA1FBB1FA617B70710F0A61BB70B881F05
:10437000991F5A95A9F780959095BC01CD01089594
:10438000F999FECF92BD81BDF89A992780B508951D
:10439000A8E1B0E042E050E00C94E321262FF99927
:1043A000FECF1FBA92BD81BD20BD0FB6F894FA9A18
:1043B000F99A0FBE019608950E94CE21272F0C94E2
:1043C000CF21DC01CB01FC01F999FECF06C0F2BD83
:1043D000E1BDF89A319600B40D9241505040B8F7C3
:0643E0000895F894FFCFE0
:1043E600053D04A904400475044104010194013FFC
:0E43F6003639D902A3026A0216022F024802CB
:00000001FF
